:020000040000FA
:100000008031C128803008007E1480318B1E092881
:100010000A28BF280B1D0D280E28BF280B112E0003
:1000200034080319142815281F28560857040319E3
:100030001A281B281F28FF30D607FF30D73D5A0843
:100040005B0403192428252859285E085F04031D32
:100050002A282B2859285C085D04031D30283128E4
:1000600059282F004E084F040319372838285E28D6
:100070000130CE020030CF3B4E084F04031D412813
:1000800042285E2850302E00D600C330D700B4017D
:10009000B40A3A30FD007D08F600F701F70A003097
:1000A000AA31E92280310430FD007D082E00BA001B
:1000B0005E2810302F00CE002730CF002E005E08C3
:1000C0005F040319642865287C285C085D04031D0F
:1000D0006A286B287C285A085B04031D7028712845
:1000E0007C28580859040319762877288028FF307F
:1000F000D807FF30D93D8028A830D8006130D9001A
:100100005E085F0403198528862896285C085D042C
:1001100003198B288C2896285A085B040319912808
:1001200092289628AA01AB01AC01B5012A082B043C
:1001300003199B289C28A0280130AA020030AB3B61
:10014000540855040319A528A628AA28FF30D40767
:10015000FF30D53D2F004D084C044B044A040319D1
:10016000B228B328BC28FF30CA07FF30CB3DFF3090
:10017000CC3DFF30CD3DBF282E00B101B10A7E102D
:1001800009008031C3288D308400B630850054309A
:100190008600073087000030FF0010308D311725B2
:1001A0008031DE308400B6308500CA3086000730EA
:1001B00087000030FF0016308D31172580319E30CA
:1001C0008400A83085002030860008308700003089
:1001D000FF0030308D3117258031283084002730E2
:1001E0008500C830FE000030FF00B6315A2680314D
:1001F0000030840020308500F030FE000330FF0026
:10020000B6315A26803120308400073085001B30FB
:10021000FE000030FF00B6315A268031A030840045
:10022000073085002A30FE000030FF00B6315A2624
:10023000803150308400083085002030FE000030CE
:10024000FF00B6315A268031A03084000830850086
:100250004030FE000030FF00B6315A2680317E105B
:100260002000A631252E1034103420345F340034A1
:1002700000340034003400340034003400340034DE
:1002800000340034003400340034003400340034CE
:1002900000340034003400340034003400340034BE
:1002A00000340034003400340034003400340034AE
:1002B000003400340034F834FC34FC34FC34F834BA
:1002C000003400340034003400340034003400348E
:1002D0000034003400340034733473347334003425
:1002E000003400340034003400340034003400346E
:1002F0000034003400341E343E343E3400340034C4
:1003000000343E343E341E340034003400340034B3
:10031000003400340034003400340034003400343D
:10032000003400340034003400340034003400342D
:10033000303430343034FE34FE3430343034303401
:100340003034FE34FE343034303430340034003451
:100350000C340C340C347F347F340C340C340C34B7
:100360000C347F347F340C340C340C3400340034BF
:1003700000340034F034F8349834FE34983498342F
:10038000FE34983498341834003400340034003487
:10039000003400341834193419347F3419341934C2
:1003A0007F3419341F340F340034003400340034E7
:1003B0000034003400343834383438348034C034B5
:1003C000E034703438340034003400340034003405
:1003D0000034003400341C340E3407340334013448
:1003E0001C341C341C340034003400340034003419
:1003F000003400343834FC34C434C434FC3438346D
:1004000000340034003480340034003400340034CC
:10041000003400341E343F342134213433343F342B
:100420001E341E3437342334003400340034003496
:1004300000340034003420343C343C341C34003468
:10044000003400340034003400340034003400340C
:1004500000340034003400340034003400340034FC
:1004600000340034003400340034003400340034EC
:10047000003400340034C034E034F03438341C34F8
:100480000C340434043400340034003400340034B8
:10049000003400340034033407340F341C3438344F
:1004A000303420342034003400340034003400343C
:1004B000003400340034043404340C341C34383434
:1004C000F034E034C03400340034003400340034FC
:1004D00000340034003420342034303438341C34B8
:1004E0000F34073403340034003400340034003453
:1004F0000034803488349034E034E034FC34FC340C
:10050000E034E034903488348034003400340034F3
:100510000034013411340934073407343F343F3494
:100520000734073409341134013400340034003402
:10053000003400340034803480348034F034F034BB
:10054000803480348034003400340034003400348B
:100550000034003400340134013401340F340F34DA
:1005600001340134013400340034003400340034E8
:1005700000340034003400340034003400340034DB
:1005800000340034003400340034003400340034CB
:100590000034003400344034783478343834003453
:1005A00000340034003400340034003400340034AB
:1005B000003400348034803480348034803480349B
:1005C000803480348034803400340034003400348B
:1005D0000034003401340134013401340134013475
:1005E0000134013401340134003400340034003467
:1005F000003400340034003400340034003400345B
:10060000003400340034003400340034003400344A
:100610000034003400340034383438343834003492
:10062000003400340034003400340034003400342A
:10063000003400340034003400340034003400341A
:100640008034C034E034703438341C340034003426
:10065000003400342034303438341C340E34073441
:1006600003340134003400340034003400340034E6
:1006700000340034F834FC34FC3404348434E4347E
:100680007434FC34FC34F834003400340034003466
:10069000003400341F343F343F342E3427342134A7
:1006A00020343F343F341F340034003400340034ED
:1006B00000340034603460346034F034FC34FC3492
:1006C000003400340034003400340034003400348A
:1006D000003400342034203420343F343F343F345D
:1006E000203420342034003400340034003400340A
:1006F0000034003418341C341C340434043484347E
:10070000CC34FC34783430340034003400340034D9
:1007100000340034303438343C342E34273423341D
:100720002134383438343834003400340034003460
:100730000034003418341C341C348434843484343D
:10074000CC347C3478343034003400340034003419
:10075000003400341834383438342134213421340E
:1007600033343E341E340C3400340034003400344E
:10077000003400348034C034603430341834FC34F5
:10078000FC34FC34003400340034003400340034D1
:1007900000340034033403340334233423343F342B
:1007A0003F343F34233423340034003400340034E5
:1007B00000340034FC34FC34FC3484348434843419
:1007C0008434843404340434003400340034003479
:1007D000003400341934393439342134213421348B
:1007E00033343F341F340E340034003400340034CA
:1007F00000340034E034F034F8349C348C348434E5
:1008000084348434803400340034003400340034C0
:10081000003400341F343F343F3421342134213438
:1008200021343F343F341F3400340034003400346A
:10083000003400343C343C343C3404340434043458
:1008400004348434FC34FC347C340034003400340C
:100850000034003400340034003438343C343E3446
:1008600007340334013400340034003400340034DD
:100870000034003478347C34FC34C434C4348434DC
:100880008434FC347C347834003400340034003454
:10089000003400341E343E343F34213421342334B8
:1008A00023343F343E341E340034003400340034EA
:1008B00000340034F834FC34FC348434843484341C
:1008C0008434FC34FC34F834003400340034003414
:1008D00000340034003401342134213421343134E3
:1008E00039341F340F3407340034003400340034FA
:1008F0000034003400340034003470347034703408
:100900000034003400340034003400340034003447
:10091000003400340034003400340E340E340E340D
:100920000034003400340034003400340034003427
:1009300000340034003400340034703470347034C7
:100940000034003400340034003400340034003407
:10095000003400340034003410341E341E340E349D
:1009600000340034003400340034003400340034E7
:10097000003400348034C034E034703438341C34F3
:100980000E340634023400340034003400340034B1
:10099000003400340134033407340E341C3438344A
:1009A0007034603440340034003400340034003497
:1009B00000346034603460346034603460346034F7
:1009C00060346034603460346034003400340034A7
:1009D000003406340634063406340634063406344D
:1009E0000634063406340634063400340034003449
:1009F00000340034023406340E341C34383470347D
:100A0000E034C03480340034003400340034003426
:100A10000034003440346034703438341C340E34C4
:100A2000073403340134003400340034003400341B
:100A30000034003418341C340C340E34063486343C
:100A4000CE34FC347C343834003400340034003488
:100A50000034003400340034003400347334733410
:100A60007334003400340034003400340034003473
:100A700000340034FC34FE34FE3402340234C23418
:100A8000C234C234FE34FE34FC340034003400344A
:100A9000003400343F343F347F3460346034633496
:100AA0006334633463344334033400340034003437
:100AB00000340034E034F034F8341C340C340C349A
:100AC0001C34F834F034E0340034003400340034A2
:100AD000003400343F343F343F34023402340234B3
:100AE00002343F343F343F340034003400340034A7
:100AF000003400340434FC34FC34FC348434843456
:100B00008434FC34FC347834003400340034003451
:100B10000034003420343F343F343F342134213416
:100B200021343F343F341E34003400340034003468
:100B300000340034F034F834FC340C34043404341D
:100B400004341C341C3418340034003400340034B1
:100B5000003400340F341F343F3430342034203418
:100B6000203438343834183400340034003400343D
:100B7000003400340434FC34FC34FC3404340434D5
:100B80000C34FC34F834F0340034003400340034D5
:100B90000034003420343F343F343F342034203498
:100BA00030343F341F340F34003400340034003408
:100BB000003400340434FC34FC34FC348434843495
:100BC0008434C434CC341C34003400340034003455
:100BD0000034003420343F343F343F342134213456
:100BE00021342334333438340034003400340034B6
:100BF000003400340434FC34FC34FC348434843455
:100C00008434C434CC341C34003400340034003414
:100C10000034003420343F343F343F342134013435
:100C2000013403340334003400340034003400341D
:100C300000340034F034F834FC340C34043404341C
:100C400004343C343C343834003400340034003450
:100C5000003400340F341F343F3430342034223415
:100C600022343E343E343E34003400340034003408
:100C700000340034FC34FC34FC3480348034803460
:100C8000FC34FC34FC3400340034003400340034D0
:100C9000003400343F343F343F34013401340134F4
:100CA0003F343F343F3400340034003400340034E7
:100CB00000340034003404340434FC34FC34FC3498
:100CC000043404340034003400340034003400347C
:100CD000003400340034203420343F343F343F3477
:100CE0002034203400340034003400340034003424
:100CF000003400340034003400340034043404344C
:100D0000FC34FC34FC340434043400340034003447
:100D100000341E341E343E34203420342034203439
:100D20003F343F341F340034003400340034003486
:100D3000003400340434FC34FC34FC34C034E0347B
:100D400070343C341C340C3400340034003400342F
:100D50000034003420343F343F343F34033407340C
:100D60000E343C3438343034003400340034003431
:100D7000003400340434FC34FC34FC3404340034D7
:100D800000340034003400340034003400340034C3
:100D90000034003420343F343F343F342034203496
:100DA0002034303438343C340034003400340034DF
:100DB00000340034FC34FC34FC347834F034E03457
:100DC000F0347834FC34FC34FC3400340034003427
:100DD000003400343F343F343F34003400340134B5
:100DE000003400343F343F343F34003400340034A6
:100DF00000340034FC34FC34FC347034E034C0344F
:100E000080340034FC34FC34FC34003400340034CE
:100E1000003400343F343F343F3400340034013474
:100E2000033407343F343F343F340034003400345B
:100E300000340034E034F034F8341C340C340C3416
:100E40000C341C34F834F034E03400340034003412
:100E50000034003407340F341F3438343034303425
:100E6000303438341F340F34073400340034003445
:100E7000003400340434FC34FC34FC3484348434D2
:100E80008434FC34FC3478340034003400340034CE
:100E90000034003420343F343F343F3421340134B3
:100EA000013401340134003400340034003400349F
:100EB00000340034E034F834F8341C340C34043496
:100EC0000C341C34F834F834E0340034003400348A
:100ED0000034003407341F341F34183418345C34A1
:100EE0005E347E347F347F34473400340034003441
:100EF000003400340434FC34FC34FC348434843452
:100F00008434FC34FC34783400340034003400344D
:100F10000034003420343F343F343F340134013452
:100F200003343F343F343C34003400340034003464
:100F3000003400347834FC34FC3484348434843415
:100F40008434BC343C34383400340034003400344D
:100F5000003400341C343C343D34213421342134F9
:100F600021343F343F341E34003400340034003424
:100F7000003400341C340C3404340434FC34FC34A9
:100F8000FC34043404340C341C3400340034003495
:100F90000034003400340034203420343F343F34F3
:100FA0003F34203420340034003400340034003422
:100FB00000340034FC34FC34FC340034003400349D
:100FC000FC34FC34FC34003400340034003400348D
:100FD000003400341F343F343F3420342034203474
:100FE0003F343F341F3400340034003400340034C4
:100FF00000340034FC34FC34FC340034003400345D
:10100000FC34FC34FC34003400340034003400344C
:101010000034003407340F341F343834303438345B
:101020001F340F34073400340034003400340034EB
:1010300000340034FC34FC34FC340034003480349C
:1010400000340034FC34FC34FC340034003400340C
:101050000034003403340F343F343C343C340F3418
:101060003C343C343F340F34033400340034003417
:10107000003400341C343C347C34E034C034E0347C
:101080007C343C341C3400340034003400340034EC
:101090000034003438343C343E34073403340734ED
:1010A0003E343C34383400340034003400340034EE
:1010B000003400347C34FC34FC348034003480341C
:1010C000FC34FC347C34003400340034003400340C
:1010D000003400340034203421343F343F343F3472
:1010E000213420340034003400340034003400341F
:1010F000003400343C341C340C3404348434C434A0
:10110000E4347C343C341C34003400340034003487
:101110000034003438343C343E3427342334213412
:101120002034303438343C3400340034003400345B
:101130000034003400340034FC34FC34FC34043417
:1011400004340434043400340034003400340034F3
:1011500000340034003400343F343F343F34203412
:10116000203420342034003400340034003400347F
:10117000003400341C3438347034E034C0348034EB
:1011800000340034003400340034003400340034BF
:1011900000340034003400340034003401340334AB
:1011A00007340E341C3418343034203420340034E6
:1011B000003400340034003404340434043404347F
:1011C000FC34FC34FC34003400340034003400348B
:1011D00000340034003400342034203420342034EF
:1011E0003F343F343F3400340034003400340034A2
:1011F000003400342034303438341C340E340E348F
:101200001C3438343034203400340034003400349A
:10121000003400340034003400340034003400342E
:10122000003400340034003400340034003400341E
:10123000003400340034003400340034003400340E
:1012400000340034003400340034003400340034FE
:10125000C034C034C034C034C034C034C034C034EE
:10126000C034C034C034C034C034C034C03400349E
:10127000003400340C340C343C343034303400341A
:1012800000340034003400340034003400340034BE
:1012900000340034003400340034003400340034AE
:1012A000003400340034003400340034003400349E
:1012B000003400340034403440344034403440344E
:1012C000C034C0348034003400340034003400347E
:1012D000003400341C343E343E3422342234223470
:1012E0003F341F343F3420340034003400340034A1
:1012F000003400340434FC34FC34FC3440344034D6
:101300004034C034C03480340034003400340034FD
:101310000034003420343F341F343F342034203430
:1013200020343F343F341F34003400340034003460
:10133000003400348034C034C0344034403440344D
:10134000C034C034803400340034003400340034FD
:10135000003400341F343F343F34203420342034F0
:101360003934393419340034003400340034003452
:10137000003400348034C034C03440344034443409
:10138000FC34FC34FC3404340034003400340034C5
:10139000003400341F343F343F34203420342034B0
:1013A0003F341F343F3420340034003400340034E0
:1013B000003400348034C034C034403440344034CD
:1013C000C034C0348034003400340034003400347D
:1013D000003400341F343F343F342234223422346A
:1013E0003B343B341B3400340034003400340034CC
:1013F0000034003480348034F834FC34FC348434D9
:101400009C349C34183400340034003400340034EC
:1014100000340034213421343F343F343F3421340C
:1014200021340134003400340034003400340034FA
:10143000003400348034C034C0344034403440344C
:10144000C0348034C03440340034003400340034BC
:10145000003400344734CF34DF349834983498342F
:10146000FF34FF347F34003400340034003400345F
:10147000003400340434FC34FC34FC348034403414
:101480004034C034C034803400340034003400347C
:101490000034003420343F343F343F3401340034CE
:1014A00000343F343F343F340034003400340034DF
:1014B000003400340034403440344034DC34DC3414
:1014C000DC340034003400340034003400340034A0
:1014D0000034003400342034203420343F343F348E
:1014E0003F342034203420340034003400340034BD
:1014F000003400340034003400344034403440348C
:10150000DC34DC34DC3400340034003400340034A7
:101510000034003420346034E03480348034C0340B
:10152000FF34FF347F34003400340034003400349E
:10153000003400340434FC34FC34FC340034003413
:101540008034C034C03440340034003400340034BB
:101550000034003420343F343F343F340234073405
:101560000F343D3438343034003400340034003427
:10157000003400340034043404340434FC34FC34C7
:10158000FC340034003400340034003400340034BF
:101590000034003400342034203420343F343F34CD
:1015A0003F342034203420340034003400340034FC
:1015B00000340034C034C034C03440344034C0340B
:1015C00040344034C034C0348034003400340034FB
:1015D000003400343F343F343F34003400343F346F
:1015E000003400343F343F343F340034003400349E
:1015F00000340034C034C034C0344034403440344B
:10160000C034C0348034003400340034003400343A
:10161000003400343F343F343F340034003400346D
:101620003F343F343F34003400340034003400345D
:10163000003400348034C034C0344034403440344A
:10164000C034C034803400340034003400340034FA
:10165000003400341F343F343F34203420342034ED
:101660003F343F341F34003400340034003400343D
:10167000003400344034C0348034C034403440340A
:101680004034C034C034803400340034003400347A
:10169000003400348034FF34FF34FF34903410348D
:1016A00010341F341F340F3400340034003400343D
:1016B00000348034C034C034403440344034C0340A
:1016C0008034C034403400340034003400340034FA
:1016D00000340F341F341F34103410349034FF346E
:1016E000FF34FF34803400340034003400340034DC
:1016F000003400344034C034C034C0348034C0348A
:10170000C034C034C0348034003400340034003479
:101710000034003420343F343F343F34213400342B
:101720000034013401340134003400340034003416
:10173000003400348034C034C03440344034403449
:101740004034C03480340034003400340034003479
:101750000034003419343B34233426342634263400
:101760003C343D3419340034003400340034003447
:101770000034003440344034E034F034F834403441
:1017800040344034403400340034003400340034F9
:1017900000340034003400341F343F343F342034EC
:1017A0003834383418340034003400340034003411
:1017B00000340034C034C034C03400340034003449
:1017C000C034C034C0340034003400340034003439
:1017D000003400341F343F343F342034203420346C
:1017E0003F341F343F34203400340034003400349C
:1017F00000340034C034C034C03400340034003409
:10180000C034C034C03400340034003400340034F8
:101810000034003407340F341F3438343034383453
:101820001F340F34073400340034003400340034E3
:1018300000340034C034C034C034003400340034C8
:1018400000340034C034C034C034003400340034B8
:101850000034003407340F343F34383438340E3415
:10186000383438343F340F34073400340034003413
:1018700000340034C034C034C03400340034C034C8
:10188000C034C03400340034003400340034003438
:1018900000340034303439343F340F340F343F34A3
:1018A000393430340034003400340034003400342F
:1018B000003400340034C034C034C0340034003448
:1018C0000034C034C034C034003400340034003438
:1018D00000340034803487348F349F34D834F83463
:1018E00078343F340F34073400340034003400348B
:1018F00000340034C034C034403440344034C03448
:10190000C034C034003400340034003400340034B7
:1019100000340034313438343C342E34273423340A
:1019200031343834003400340034003400340034AE
:101930000034003480348034C03478347C343C3417
:1019400004340434043404340034003400340034E7
:10195000003400340134013403341E343E343C344A
:101960002034203420342034003400340034003457
:10197000003400340034003400340034FE34FE34CB
:10198000FE340034003400340034003400340034B9
:101990000034003400340034003400347F347F34A9
:1019A0007F34003400340034003400340034003418
:1019B0000034003404340434043404343C347C34BF
:1019C0007834C0348034803400340034003400343F
:1019D0000034003420342034203420343C343E346D
:1019E0001E34033401340134003400340034003434
:1019F000003438343C343C3404340C341C34383433
:101A0000303420343C343C341C3400340034003452
:101A10000034003400340034003400340034003426
:101A20000034003400340034003400340034FE004C
:101A300012001E000130FE020030FF3B7F087E04D2
:101A4000031D182D003403102D006D0D6E0D2E009A
:101A5000BB003B08C1004108031D2F2D302D3A2D3E
:101A600000302D00EE000030ED000030EC000030C2
:101A7000EB00A82D2D006B082E00BB002D006C087C
:101A80002E00BC002D006D082E00BD002D006E083C
:101A90002E00BE001F30BE36BD0CBC0CBB0C890B2B
:101AA0004B2D3B08BF003F08C0002D00ED17FF3055
:101AB000EB05FF30EC05FF30ED050030EE0596300C
:101AC0002E00C102C11F652D662D802D4108803A70
:101AD000973E03186C2D6D2D6E2D302D01302D008D
:101AE000EE36ED0CEC0CEB0C890B6F2D01302E005B
:101AF000BB003B08C107031D7E2D7F2D6E2D972D4A
:101B000020304102031C852D862D922D302D013071
:101B10002D00EB35EC0DED0DEE0D890B882D013010
:101B20002E00C1024108031D962D972D872D4008D8
:101B300003199B2D9C2DA82D2D00EB09EC09ED0917
:101B4000EE09EB0A0319EC0A0319ED0A0319EE0A70
:101B500008002D003A088039BF003F08C4003A351C
:101B6000BF003F08CA00B91FB62DB72DB82D4A14C3
:101B70004A080319BC2DBD2DCC2D4A0A031DC12DC9
:101B8000C22DCA2D0030BA000030B9000030B800B4
:101B90000030B700B917D42D0030BA000030B900BA
:101BA0000030B8000030B7003E088039BF003F0861
:101BB000C4063E35BF003F08C500BD1FE02DE12D26
:101BC000E22D451445080319E62DE72DF62D450AAB
:101BD000031DEB2DEC2DF42D0030BE000030BD00B8
:101BE0000030BC000030BB00BD17FE2D0030BE0031
:101BF0000030BD000030BC000030BB0045080319B8
:101C0000022E032E082E4A08031D072E082E112E21
:101C10000030BA000030B9000030B8000030B70022
:101C2000FF2F3708BF003F08A0003D08B731DC2771
:101C30008D312D002108D0002008CF004F08BF00B3
:101C4000C001C101C2014208C9004108C8004008E2
:101C5000C7003F08C6005008BF00C001C101C20153
:101C60004208CE004108CD004008CC003F08CB0020
:101C70003808BF003F08A0003C08B731DC278D3191
:101C80002D002108D0002008CF004F08BF00C00160
:101C9000C101C2013F08C6074008C73D4108C83D11
:101CA0004208C93D5008BF00C001C101C2013F0840
:101CB000CB074008CC3D4108CD3D4208CE3D390818
:101CC000BF003F08A0003B08B731DC278D312D0055
:101CD0002108D0002008CF004F08BF00C001C1017B
:101CE000C2013F08C6074008C73D4108C83D420839
:101CF000C93D5008BF00C001C101C2013F08CB0768
:101D00004008CC3D4108CD3D4208CE3D0830C635A7
:101D1000C70DC80DC90D890B872E3808BF003F08B5
:101D2000A0003B08B731DC278D312D002108D00001
:101D30002008CF004F08C6075008C73D0030C83DF7
:101D4000C93D3708BF003F08A0003C08B731DC2779
:101D50008D312D002108D0002008CF004F08C60784
:101D60005008C73D0030C83DC93D0830C635C70DD5
:101D7000C80DC90D890BB62E3708BF003F08A0005B
:101D80003B08B731DC278D312D002108D000200819
:101D9000CF004F08C6075008C73D0030C83DC93DB9
:101DA0003808BF003F08A0003D08B731DC278D315F
:101DB0002D002108D0002008CF004F08CB07500885
:101DC000CC3D0030CD3DCE3D3908BF003F08A000DE
:101DD0003C08B731DC278D312D002108D0002008C8
:101DE000CF004F08CB075008CC3D0030CD3DCE3D55
:101DF0003908BF003F08A0003D08B731DC278D310E
:101E00002D002108D0002008CF004F08BF00500847
:101E1000C000C101C2010830BF35C00DC10DC20DE7
:101E2000890B0C2F3F08CB074008CC3D4108CD3D26
:101E30004208CE3D4608BF004708C0004808C10020
:101E40004908C2001830C236C10CC00CBF0C890B47
:101E5000232F3F08CB074008CC3D4108CD3D420829
:101E6000CE3D0830C635C70DC80DC90D890B322FC0
:101E70004A084507BF00C001C00D3F08823ECF00A1
:101E8000FF30403DD0005B2F0130CB35CC0DCD0D68
:101E9000CE0D890B452FC91F4E2F4F2F502F4B149E
:101EA0000130C635C70DC80DC90D890B512FFF3044
:101EB000CF07FF30D03DCD1F5E2F5F2F442FC501D0
:101EC000C91F632F642F802FFF304605BF00FF30EE
:101ED0004705C000FF304805C1007F304905C200FA
:101EE0004208410440043F040319772F782F7B2FC9
:101EF000C501C50A802F4B1C7E2F7F2F802F782F86
:101F000045080319842F852FAD2F0130CB070030F2
:101F1000CC3D0030CD3D0030CE3D4E1C902F912F5A
:101F2000AD2F4B08BF004C08C0004D08C1004E0843
:101F3000C2000130C300C237C10CC00CBF0CC30BC0
:101F40009B2F4208CE004108CD004008CC003F083E
:101F5000CB000130CF070030D03D5008803ABF00A1
:101F600080303F02031DB62FFF304F02031CB92FF4
:101F7000BA2FC42F7F302D00CE008030CD0000302E
:101F8000CC000030CB00F32F2D005008803ABF006A
:101F900080303F02031DCE2F01304F020318D12F96
:101FA000D22FDD2F00302D00CE000030CD000030CC
:101FB000CC000030CB00C401F32F2D004F08BF0030
:101FC0003F08CA00FF30CB05FF30CC057F30CD0580
:101FD0000030CE054A1CED2FEE2FEF2FCD174A36DD
:101FE000BF003F08CE004408BF003F08CE044E08A3
:101FF000BA004D08B9004C08B8004B08B7000800FB
:1020000008002E004508440443044204031909282B
:102010000A284528CA01CA0A1A280130C235C30D48
:10202000C40DC50D890B0E2801302D00EF006F087F
:102030002E00CA07C51F1D281E280D284508490265
:10204000031D2C2844084802031D2C28430847027E
:10205000031D2C2842084602031C2F28302838284C
:102060004208C6024308C73B4408C83B4508C93B71
:102070000130C536C40CC30CC20C890B39280130A1
:10208000CA02031D442845281E284908C5004808DF
:10209000C4004708C3004608C20008002D00B20172
:1020A000A030860006308700473FB000B01F592897
:1020B0005A287C282D00A009A109A209A309A40976
:1020C000A509A609A709A00A031D7928A10A031DCD
:1020D0007928A20A031D7928A30A031D7928A40AD6
:1020E000031D7928A50A031D7928A60A031D79284E
:1020F000A70A2D00B201B20AA83086000630870078
:10210000473F2D00B000B01F86288728AB282D0040
:10211000A809A909AA09AB09AC09AD09AE09AF091B
:10212000A80A031DA628A90A031DA628AA0A031D9A
:10213000A628AB0A031DA628AC0A031DA628AD0AD3
:10214000031DA628AE0A031DA628AF0A01302D00E4
:10215000B0003008B206B330860006308700083081
:102160002D00B00000301E00B00BB3282008210461
:102170002204230424042504260427040319C12867
:10218000C2281E29B101B10AD128A035A10DA20D86
:10219000A30DA40DA50DA60DA70D0130B0003008AC
:1021A000B107A71FD428D528C528B335B40DB50D60
:1021B000B60DB70DB80DB90DBA0D27082F02031DC6
:1021C000FB2826082E02031DFB2825082D02031DCF
:1021D000FB2824082C02031DFB2823082B02031DC7
:1021E000FB2822082A02031DFB2821082902031DBF
:1021F000FB2820082802031CFE28FF28102920089D
:10220000A8022108A93B2208AA3B2308AB3B2408CB
:10221000AC3B2508AD3B2608AE3B2708AF3B33144B
:10222000A736A60CA50CA40CA30CA20CA10CA00C08
:102230000130B102031D1D291E29D52832080319BA
:10224000222923294129B309B409B509B609B709D7
:10225000B809B909BA09B30A031D4129B40A031D13
:102260004129B50A031D4129B60A031D4129B70AB0
:10227000031D4129B80A031D4129B90A031D41293B
:10228000BA0A2D003308A0003408A1003508A200C6
:102290003608A3003708A4003808A5003908A600AE
:1022A0003A08A700080029000E082E00CF00D00130
:1022B00029000F082E00D100D2015108D200D1010F
:1022C0004F0851072D00A9002E005008523D2D0047
:1022D000AA00AB01AA1BAB032B08AC00013098315C
:1022E000062091312D002C082E00A3002D002B0874
:1022F0002E00A2002D002A082E00A1002D00290882
:102300002E00A000003029023130031928020318E2
:102310008A298B29AA292908D0002808CF00CF357F
:10232000D00DCF35D00D2830D1002730D2004F0846
:10233000510786005008523D87002008C03F210801
:10234000C13F2208C23F2308C33F0130A807003025
:10235000A93DC6292908D0002808CF00CF35D00DC7
:10236000CF35D00D2830D1002730D2004F0851078B
:1023700086005008523D87002008C03F2108C13F19
:102380002208C23F2308C33FA801A9010030310041
:10239000ED000030EC000030EB000030EA00E60118
:1023A000E70100306702323003196602031CD929A5
:1023B000DA29DB29542A67082E00D000310066088C
:1023C0002E00CF00CF35D00DCF35D00D2830D10025
:1023D0002730D2004F08510786005008523D870031
:1023E000403F2D00A000413FA100423FA200433FDB
:1023F000A30031006D082D00A70031006C082D00EE
:10240000A60031006B082D00A50031006A082D00E0
:10241000A4009A31DB2291312D0023083100ED0018
:102420002D0022083100EC002D0021083100EB00C6
:102430002D0020083100EA00313066066704031DD4
:10244000222A232A4F2A42302D00D4004830D300BC
:102450000030D2000030D10031006D082D00D800CE
:1024600031006C082D00D70031006B082D00D6001C
:1024700031006A082D00D500A231A02291312D0033
:1024800054083100ED002D0053083100EC002D0000
:1024900052083100EB002D0051083100EA000130F4
:1024A000E6070030E73DD1296D082D00BE00310060
:1024B0006C082D00BD0031006B082D00BC00310000
:1024C0006A082D00BB004130BA002030B90000304E
:1024D000B8000030B7008D31A92591312D003A08A0
:1024E000D8003908D7003808D6003708D50044305E
:1024F000D4007A30D3000030D2000030D100A231B5
:10250000A02291312D005408EE005308ED0052082E
:10251000EC005108EB008D31232591312D006C0822
:102520003100E1002D006B083100E00000302E008A
:10253000C5000030C4000030C3000A30C2003100C2
:102540006D082D00BE0031006C082D00BD0031006B
:102550006B082D00BC0031006A082D00BB00423022
:10256000BA00C830B9000030B8000030B7008D3173
:10257000A92591312D003A08D8003908D70038082C
:10258000D6003708D5004430D4007A30D30000306C
:10259000D2000030D100A231A02291312D00540888
:1025A000EE005308ED005208EC005108EB008D31AD
:1025B000232591312D006E082E00C9002D006D08D5
:1025C0002E00C8002D006C082E00C7002D006B08DF
:1025D0002E00C6009031012091312E0043083100B9
:1025E000E3002E0042083100E200D0302E00BE0091
:1025F0000730BF002030C000B830C100A8317320C0
:10260000913130302E00BE000830BF008630C0004F
:10261000B830C100A831732091312E002D08031D60
:10262000122B132B332B1430CF004F08AD0020306A
:10263000BE000830BF002C30C000B830C1003100EF
:1026400061082E00C300310060082E00C200310076
:1026500063082E00C500310062082E00C400A831B6
:10266000732091315E2B3100E801E9016908803A5D
:102670002E00CF0080304F02031D412B103031005F
:102680006802031C442B452B462B5E2B3100680847
:10269000503E86000830870001082E00CF00310030
:1026A0006808203E8600083087002E004F08810011
:1026B00001303100E8070030E93D362B20000D1EC7
:1026C000622B632B672B8C1D662B672B882C40306D
:1026D0002E00BE000830BF007530C000B830C10009
:1026E000A831732091312E0023082D00EE002E001A
:1026F00022082D00ED002E0021082D00EC002E00F8
:1027000020082D00EB008D31232591312D006C0820
:102710002E00C3002D006B082E00C200B6314226E9
:1027200091313F302E00BE00F330BD003330BC008D
:102730003330BB0042302D00D400C830D30000300D
:10274000D2000030D1002E0023082D00D8002E002A
:1027500022082D00D7002E0021082D00D6002E00C3
:1027600020082D00D500A231A02291312D0054085F
:102770002E00C2002D0053082E00C1002D0052086B
:102780002E00C0002D0051082E00BF00AD317D2568
:1027900091310318CC2BCD2BD02B22000C140D2CF7
:1027A00042302D00D400C830D3000030D2000030B9
:1027B000D1002E0023082D00D8002E0022082D0065
:1027C000D7002E0021082D00D6002E0020082D0055
:1027D000D500A231A02291312D0054082E00BE0058
:1027E0002D0053082E00BD002D0052082E00BC0005
:1027F0002D0051082E00BB003F30C200E630C10062
:102800006630C0006630BF00AD317D2591310318C0
:102810000A2C0B2C0D2C22000C1040302E00BE0078
:102820000330BD003330BC003330BB0042302D00DC
:10283000D400C830D3000030D2000030D1002E00C8
:1028400023082D00D8002E0022082D00D7002E00CE
:1028500021082D00D6002E0020082D00D500A23121
:10286000A02291312D0054082E00C2002D005308E3
:102870002E00C1002D0052082E00C0002D0051086E
:102880002E00BF00AD317D2591310318482C492C15
:102890004B2C9E31AB2E42302D00D400C830D300DB
:1028A0000030D2000030D1002E0023082D00D800C7
:1028B0002E0022082D00D7002E0021082D00D60062
:1028C0002E0020082D00D500A231A02291312D002C
:1028D00054082E00BE002D0053082E00BD002D0010
:1028E00052082E00BC002D0051082E00BB003F30C6
:1028F000C200F930C1009930C0009A30BF00AD313C
:102900007D2591310318852C862CEE2D9D317A2D55
:1029100040302E00BE000830BF006430C000B83028
:10292000C100A831732091319D31712D0230CF004B
:102930004F082D00A200A301A30A6230A031062097
:102940009131D0302E00BE000730BF004330C000B0
:10295000B830C100A8317320913120302E00BE0064
:102960000830BF004E30C000B830C1000A302D0022
:10297000A0000030A1002E006208CF00D0014F0857
:102980002D00A2002E0050082D00A300AB314723DC
:1029900091312D0021082E00C3002D0020082E00AB
:1029A000C2000A302D00A0000030A1002E006208F5
:1029B000D100D20151082D00A2002E0052082D0096
:1029C000A300A931842191312D0021082E00C500DA
:1029D0002D0020082E00C400A831732091312E0054
:1029E0006208CF00D001D101D20152082D00AC0005
:1029F0002E0051082D00AB002E0050082D00AA001B
:102A00002E004F082D00A90000309831062091318A
:102A10002D002C08BE002B08BD002A08BC00290888
:102A2000BB004130BA001930B900D830B8009E3030
:102A3000B7008D31A92591312D003A08EE003908F3
:102A4000ED003808EC003708EB008D31232591317B
:102A50002D006C082E00C3002D006B082E00C20054
:102A6000B631422691313F302E00BE00EC30BD0021
:102A7000CC30BC00CD30BB0041302D00D400203024
:102A8000D3000030D2000030D1002E006208CF0009
:102A9000D001D101D20152082D00AC002E00510806
:102AA0002D00AB002E0050082D00AA002E004F086C
:102AB0002D00A90000309831062091312D002C08FE
:102AC000D8002B08D7002A08D6002908D500A23143
:102AD000A02291312D0054082E00C2002D00530871
:102AE0002E00C1002D0052082E00C0002D005108FC
:102AF0002E00BF00AD317D2591310318802D812D31
:102B0000842D22000C14862D22000C102E00620849
:102B1000CF00D0014F082D00A2002E0050082D003C
:102B2000A3000A30A0000030A100AB31472391314F
:102B30002D002008A9002108AA00890D893B8909D8
:102B4000AB00AC0001309831062091312D002C08EB
:102B50002E00BE002D002B082E00BD002D002A08DF
:102B60002E00BC002D0029082E00BB004030C20002
:102B70000030C1000030C0000030BF00AD317D2505
:102B80009131031CC42DC52D862C492CD030BE009C
:102B90000730BF005930C000B830C100A8317320E1
:102BA0009131942C2E003A08CF00D0015008003A01
:102BB0000319DB2DC62D4F08003A9D3103197E2DD8
:102BC000013A0319662D9131033A0319FE2F013A98
:102BD00003195329073A0319962CC62D2E005408C1
:102BE00055040319F42DF52DFA2DFF30B6314E267C
:102BF0009131FE2D0030B6314E269131A43154244E
:102C000091312E00AE0120008D18072E082E182EAF
:102C100001302E00CF004F08AE075E085F04031995
:102C2000122E132E1D2EFF30DE07FF30DF3D1D2E2E
:102C300014302E00DE000030DF0020000D19212EA0
:102C4000222E322E01302E00CF004F08AE075C0836
:102C50005D0403192C2E2D2E372EFF30DC07FF309C
:102C6000DD3D372E14302E00DC000030DD0020006A
:102C70000D183B2E3C2E4C2E01302E00CF004F085D
:102C8000AE075A085B040319462E472E512EFF301B
:102C9000DA07FF30DB3D512E14302E00DA00003011
:102CA000DB002E03031D552E562E912F6008610464
:102CB00003195B2E5C2E612EFF30E007FF30E13DF3
:102CC000952F5030D400C330D5005E085F04031D3B
:102CD0006A2E6B2ED52E20008D1E6F2E702ED52EB7
:102CE0000D1D732E742ED52E2E002A082B04031DC5
:102CF0007A2E7B2ED52E04302C020318802E812EA6
:102D0000892E0130CF004F08AC07D030AA00073021
:102D1000AB00340803198D2E8E2EA42E643062026F
:102D20000318932E942ED52E0130CF004F08E207C2
:102D30006230CF004F082D00A600A701A70A02307D
:102D4000AB31A7239131D52E643063020318A92E2D
:102D5000AA2ED52E3A08031DAE2EAF2EBF2E01305F
:102D6000CF004F08E3076330CF004F082D00A600C7
:102D7000A701A70A0130AB31A7239131D52E02302C
:102D80003A06031DC42EC52ED52E0130CF004F08A4
:102D9000E3076330CF004F082D00A600A701A70A64
:102DA0000330AB31A7239131D52E2E005C085D0492
:102DB000031DDB2EDC2E3E2F20008D1EE02EE12E8B
:102DC0003E2F8D1CE42EE52E3E2F2E002A082B04CC
:102DD000031DEB2EEC2E3E2F04302C020318F12E97
:102DE000F22EFA2E0130CF004F08AC07D030AA00E7
:102DF0000730AB0034080319FE2EFF2E122F620895
:102E00000319032F042F3E2F0130E2026230CF005E
:102E10004F082D00A600A701A70A0230AB31A72357
:102E200091313E2F63080319162F172F3E2F3A08B2
:102E3000031D1B2F1C2F2A2F0130E3026330CF000C
:102E40004F082D00A600A701A70A0130AB31A72328
:102E500091313E2F02303A06031D2F2F302F3E2F87
:102E60000130E3026330CF004F082D00A600A70118
:102E7000A70A0330AB31A72391313E2F2E005A0809
:102E80005B04031D442F452F952F3508031D492F43
:102E90004A2F952FB501B50A34080319502F512F29
:102EA000542FD601D701952F20008D1C582F592F54
:102EB000952F0D1D5C2F5D2F952F04302E003A06A7
:102EC000031D632F642F6D2FB4012D00A201A301F8
:102ED000A30A3A30A0310620913103302E003A0285
:102EE0000318732F742F842F0130CF004F08BA07B7
:102EF0003A30CF004F082D00A600A701A70A0030E6
:102F0000AB31A7239131952FBA013A30CF004F084A
:102F10002D00A600A701A70A0030AB31A7239131ED
:102F2000952F1430E0000030E1002E002D08031929
:102F30009A2F9B2F9D2F0130AD0256085704031D79
:102F4000A22FA32FAC2FB4012D00A201A301A30A2D
:102F50003A30A031062091312E0058085904031D43
:102F6000B22FB42FA6319A2EB401D601D701B201E7
:102F70000530CF004F08BA003230CF004F08E300D1
:102F80006430CF004F08E2000030A3000030A20000
:102F90000030A1000030A0003A30CF004F082D00D3
:102FA000A600A701A70A0030AB31A72391316330F7
:102FB0002E00CF004F082D00A600A701A70A013060
:102FC000AB31A723913163302E00CF004F082D0085
:102FD000A600A701A70A0330AB31A72391316230C5
:102FE0002E00CF004F082D00A600A701A70A02302F
:102FF000AB31A7239131B22F8031C1289E31AE2E43
:10300200640025302100990008002D00B10031082C
:1030120003190C280D282128AC1F1028112821285B
:103022002909B3002A09B4002B09B5002C09B600FE
:10303200B30A0319B40A0319B50A0319B60A2928EF
:103042002C08B6002B08B5002A08B4002908B300E2
:103052002C082B042A042904031D302831283A287D
:103062000030AC000030AB000030AA000030A900F4
:10307200B2289630AD002D08B2004A280130AD00CA
:103082002D08B2070130B636B50CB40CB30C890B5F
:103092004428FE303605031D4F2850283F28642857
:1030A2000130AD002D08B2070130B3070030B43D46
:1030B2000030B53D0030B63D0130B636B50CB40C2B
:1030C200B30C890B5E28FF303605031D69286A2878
:1030D200512874280130B2020130B335B40DB50D58
:1030E200B60D890B6E28B51B772878287E2802300A
:1030F200320203187D287E286B2832188128822804
:103102008A28FF30B305FF30B4057F30B505FF30A4
:10311200B6050310B20C3208AD00AE01AF01B0012A
:103122001830AD35AE0DAF0DB00D890B92282D08BC
:10313200B3042E08B4042F08B5043008B6043108CD
:103142000319A428A528AA28AC1FA828A928AA28B8
:10315200B6173608AC003508AB003408AA003308AD
:10316200A90008002D00D101D201D301D401C3016D
:10317200C4012F0040080739031DC028C128EF29C8
:103182003F082D00BB00BC013B08A9003C08AA0077
:103192000830A0000030A1002F0040082D00BD0023
:1031A200BE013D08A2003E08A300AB31472398317F
:1031B2002D002108AC002008AB00A8310020983176
:1031C2002D002A08C8002908C7002F0041082D0039
:1031D2003A02A900AA01031CAA034808AC00470846
:1031E200AB00A831002098312D002908043ECB0005
:1031F20000302A3DCC00D101D201D3290230D300C4
:103202000030D400BC292F003F082D00BB00BC01B8
:103212003B08A9003C08AA005208AC005108AB00C8
:10322200A831002098312D0029082F003D072D00DC
:10323200BD002A082F003E3D2D00BE004B083D0771
:10324200BF004C083E3DC0003F08530784004008C1
:10325200543D85000008C100C2014108C300420874
:10326200C400D5010130BB000030BC00550A3B2927
:10327200BB35BC0D890B392943083B05BD00440809
:103282003C05BE003D083E04031948294929A629E8
:103292002F004308031D4E294F297B292D00530877
:1032A2003607BB005408373DBC003B08FE3EA90070
:1032B200FF303C3DAA005508BD00BE015208C000C7
:1032C2005108BF00BF35C00DBF35C00DBF35C00DA1
:1032D2003D083F07C1003E08403DC2003808410793
:1032E200AB003908423DAC00AD01AD0AAE313A2621
:1032F2009831AD292D0053083607BB005408373DDD
:10330200BC003B08FE3EA900FF303C3DAA00550828
:10331200BD00BE015208C0005108BF00BF35C00D3C
:10332200BF35C00DBF35C00D3D083F07C1003E0887
:10333200403DC20038084107AB003908423DAC00AD
:10334200AD01AE313A269831AD292F004308031D55
:10335200AB29AC294F297B2901302D00BB003B084A
:10336200D50708305502031CB729B8293329013083
:10337200D3070030D43D2F003F08FE3E2D00BB0096
:10338200FF3003180030BC003C085402031DCB2957
:103392003B085302031CCE29CF2904290130D1074F
:1033A2000030D23D0830A0000030A1002F004008BC
:1033B2002D00BB00BC013B08A2003C08A300AB31BE
:1033C200472398312D0021085202031DEA292008C3
:1033D2005102031CED29EE29FF28DA2A08302D00BC
:1033E200A0000030A1002F003F082D00BB00BC014F
:1033F2003B08A9003C08AA002F0040082D00BD0090
:10340200BE013D08AB003E08AC00A8310020983157
:103412002D002A08A3002908A200AB3147239831C6
:103422002D002108C8002008C7002F0041082D00E8
:103432003A02A900AA01031CAA034808AC004708E3
:10344200AB00A831002098312D002908043ECB00A2
:1034520000302A3DCC002F003D082D004B07840090
:103462002F003E082D004C3D85000008BB00BC012A
:103472003B08C5003C08C6000730C9000030CA003E
:10348200CD01CE01CB2A2D00CF01D001B72A0130C8
:103492002D00BB000030BC00490A512ABB35BC0DCF
:1034A200890B4F2A45083B05BD0046083C05BE0076
:1034B2003D083E0403195E2A5F2A8A2A2F00430828
:1034C200031D642A652A782A2D004D083607A900B3
:1034D2004E08373DAA004F083807AB005008393D67
:1034E200AC00AD01AD0AAE313A269831912A2D00D9
:1034F2004D083607A9004E08373DAA004F08380785
:10350200AB005008393DAC00AD01AE313A269831DE
:10351200912A2F004308031D8F2A902A652A782AB0
:10352200FF302D00C907FF30CA3DCA1F992A9A2AC7
:10353200B32A0730C9000030CA000130CB0700307F
:10354200CC3D2F003D082D004B0784002F003E0884
:103552002D004C3D85000008BB00BC013B08C500A6
:103562003C08C6000130CF070030D03D5008803AF9
:10357200BB0080303B02031DC22A2F0040082D00F1
:103582004F02031CC52AC62A482A01302D00CD0746
:103592000030CE3D4E08803ABB0080303B02031D16
:1035A200D62A2F003F082D004D02031CD92ADA2A01
:1035B200442A08002D0023088039A8002808B000FA
:1035C2002335A8002808B200A21FE82AE92AEA2A1D
:1035D200321432080319EE2AEF2AFF2A320A031D97
:1035E200F32AF42AFC2A0030A3000030A2000030A3
:1035F200A1000030A000A217A301072B0030A300F6
:103602000030A2000030A1000030A000270880395D
:10361200A8002808B100310830060319112B122B1B
:10362200132B30172735A8002808B100A61F1A2B24
:103632001B2B1C2B311431080319202B212B312B6E
:10364200310A031D252B262B2E2B0030A70000301C
:10365200A6000030A5000030A400A617A701392B50
:103662000030A7000030A6000030A5000030A40002
:103672003208310203183E2B3F2B832B301F422B83
:10368200432B472B8030A8002808B0063208A80038
:103692002808B3003108A8002808B2003308A8009F
:1036A2002808B1002008A8002808B3002408A800B0
:1036B2002808A0003308A8002808A4002108A800B0
:1036C2002808B3002508A8002808A1003308A8008C
:1036D2002808A5002208A8002808B3002608A80088
:1036E2002808A2003308A8002808A6002308A8007A
:1036F2002808B3002708A8002808A3003308A80058
:103702002808A700B3013108A800A9012908AB00C5
:1037120032082802AA00031CAB032B08803AAC0033
:1037220080302C02031D972B1A302A02031C9A2B7D
:103732009B2BD32B2D002308220421042004031DDC
:10374200A32BA52B0130A62B0030A8002808B3001C
:103752000030A3000030A2000030A1000030A00021
:103762003108A8002808B200DA2B331CB92BBA2B77
:10377200C02B33360138A8002808B300C22B03102F
:10378200B30C201CC52BC62BC72BB3170130A800C6
:10379200A337A20CA10CA00CA80BC92B0130A800C6
:1037A2002808B2072D0031083202031CD92BDA2B6C
:1037B200B62B301BDD2BDE2B162C3208031DE22B21
:1037C200E32BEC2B0030A3000030A2000030A1005C
:1037D2000030A000122D2408A0072508A13D2608CC
:1037E200A23D2708A33D231CF72BF82BA22C331C48
:1037F200FB2BFC2B022C33360138A8002808B3001F
:10380200042C0310B30C201C072C082C092CB31712
:103812000130A800A337A20CA10CA00CA80B0B2C02
:103822000130A8002808B207A22C2308803AA80079
:103832002708803A2802031D282C26082202031D8D
:10384200282C25082102031D282C240820020318F5
:103852002B2C2C2C642CFF30A800FF30A900FF3049
:10386200AA00FF30AB0020082402AC002108253B4F
:10387200AD002208263BAE002308273BAF002C08F0
:10388200A8072D08A93D2E08AA3D2F08AB3D2B08FD
:10389200A3002A08A2002908A1002808A00080305D
:1038A200A8002808B006B309B30A3308031D5A2C2E
:1038B2005B2C6C2C0130A0070030A13D0030A23DF2
:1038C2000030A33D6C2C2408A0022508A13B260849
:1038D200A23B2708A33B2308220421042004031D42
:1038E200732C742C9E2C3308031D782C792C9E2C5F
:1038F2000030A3000030A2000030A1000030A00080
:10390200122D0130A035A10DA20DA30D890B832C20
:10391200B31F8C2C8D2C8E2C2014331C912C922CAA
:10392200952C0314B30D972C0310B30D3208031911
:103932009B2C9C2C9E2C0130B202A21FA12CA22CEB
:10394200822CB101B31FA62CA72CB52C33087F39CA
:103952000319AC2CAD2CB02CB101B10AB52C201C32
:10396200B32CB42CB52CAD2C31080319B92CBA2CBC
:10397200E72C0130A0070030A13D0030A23D00300D
:10398200A33D231CC52CC62CE72C2008A800210827
:10399200A9002208AA002308AB000130AC00AB3713
:1039A200AA0CA90CA80CAC0BD02C2B08A3002A083B
:1039B200A2002908A1002808A000320A0319E22C5B
:1039C200E32CE72C0130A8002808B207320A0319B9
:1039D200EB2CEC2CF12C3208031DF02CF12CFF2CDB
:1039E2000030A3000030A2000030A1000030A0008F
:1039F2003208031DFD2CFE2CFF2CB001321C022DBF
:103A0200032D052DA217092D7F30A8002808A20535
:103A12003236A8002808A300B01F102D112D122D38
:103A2200A31708003100640865040319192D1A2D23
:103A32001F2D0130E4020030E53B232DE830E40085
:103A42000330E50001306502F53003196402031CFE
:103A52002B2D2C2D2F2D22000C13312D22000C1773
:103A62000B302E00CF006230890B352DCF0B352D58
:103A72000000983101209D3120008D1E412D422DE4
:103A8200132D22000C17D0302D00A0000730A1000A
:103A9200B731BA279D3140302D00A0000830A10077
:103AA200B731BA279D3130302D00A0000830A10077
:103AB200B731BA279D3120302D00A0000830A10077
:103AC200B731BA279D319531D22DD030BE000730A3
:103AD200BF008230C000B830C100A83173209D31D0
:103AE20000302E00C200C300B63142269D312200B2
:103AF2000C1022008C109531EE2D2D00A201A20A8D
:103B0200A301A30A6330A03106209D31D0302E00DC
:103B1200BE000730BF007D30C000B830C100A83100
:103B220073209D3120302E00BE000830BF004E3081
:103B3200C000B830C1000A302D00A0000030A10042
:103B42002E006308CF00D0014F082D00A2002E00E6
:103B520050082D00A300AB3147239D312D002108D1
:103B62002E00C3002D0020082E00C2000A302D00B6
:103B7200A0000030A1002E006308D100D20151083C
:103B82002D00A2002E0052082D00A300A93184218D
:103B92009D312D0021082E00C5002D0020082E0089
:103BA200C400A83173209D312E006308CF00D001DC
:103BB200D101D20152082D00AC002E0051082D0077
:103BC200AB002E0050082D00AA002E004F082D0039
:103BD200A9000030983106209D312D002C08BE002E
:103BE2002B08BD002A08BC002908BB004130BA00DE
:103BF2001930B900D830B8009E30B7008D31A925F0
:103C02009D312D003A08EE003908ED003808EC002D
:103C12003708EB008D3123259D312D006C082E00D5
:103C2200C3002D006B082E00C200B63142269D3122
:103C32003F302E00BE00EC30BD00CC30BC00CD3099
:103C4200BB0041302D00D4002030D3000030D20020
:103C52000030D1002E006308CF00D001D101D20183
:103C620052082D00AC002E0051082D00AB002E0092
:103C720050082D00AA002E004F082D00A900003088
:103C8200983106209D312D002C08D8002B08D70032
:103C92002A08D6002908D500A231A0229D312D0084
:103CA20054082E00C2002D0053082E00C1002D0022
:103CB20052082E00C0002D0051082E00BF00AD3169
:103CC2007D259D310318662E672E6A2E22000C1464
:103CD2006C2E22000C102E006308CF00D0014F087A
:103CE2002D00A2002E0050082D00A3000A30A000D3
:103CF2000030A100AB3147239D312D002008A900DF
:103D02002108AA00890D893B8909AB00AC0001306A
:103D1200983106209D312D002C082E00BE002D006A
:103D22002B082E00BD002D002A082E00BC002D00FD
:103D320029082E00BB004030C2000030C100003014
:103D4200C0000030BF00AD317D259D31031CAA2E7D
:103D5200AB2E7A2D22008C147C2D0330CF004F081D
:103D62002D00A200A301A30A6330A03106209D31D9
:103D7200D0302E00BE000730BF003830C000B8304F
:103D8200C100A83173209D3120302E00BE000830C2
:103D9200BF004E30C000B830C1000A302D00A00074
:103DA2000030A1002E006308CF00D0014F082D0083
:103DB200A2002E0050082D00A300AB3147239D31F5
:103DC2002D0021082E00C3002D0020082E00C20065
:103DD2000A302D00A0000030A1002E006308D1009F
:103DE200D20151082D00A2002E0052082D00A3007E
:103DF200A93184219D312D0021082E00C5002D00FE
:103E020020082E00C400A83173209D3120000D1E11
:103E12000B2F0C2F102F8C1D0F2F102FF32F403034
:103E22002E00BE000830BF007530C000B830C1009F
:103E3200A83173209D312E006308CF00D001D1013B
:103E4200D20152082D00AC002E0051082D00AB000B
:103E52002E0050082D00AA002E004F082D00A900A8
:103E62000030983106209D312D002C08BE002B0811
:103E7200BD002A08BC002908BB004130BA00193035
:103E8200B900D830B8009E30B7008D31A9259D31D8
:103E92002D003A08EE003908ED003808EC0037082A
:103EA200EB008D3123259D312D006C082E00C300BF
:103EB2002D006B082E00C200B63142269D313F30E4
:103EC2002E00BE00EC30BD00CC30BC00CD30BB00BB
:103ED20041302D00D4002030D3000030D200003019
:103EE200D1002E006308CF00D001D101D2015208C7
:103EF2002D00AC002E0051082D00AB002E00500802
:103F02002D00AA002E004F082D00A9000030983184
:103F120006209D312D002C08D8002B08D7002A0836
:103F2200D6002908D500A231A0229D312D005408C7
:103F32002E00C2002D0053082E00C1002D00520891
:103F42002E00C0002D0051082E00BF00AD317D258E
:103F52009D310318AD2FAE2FB12F22000C14B32FB9
:103F620022000C102E006308CF00D0014F082D0054
:103F7200A2002E0050082D00A3000A30A00000303D
:103F8200A100AB3147239D312D002008A900210853
:103F9200AA00890D893B8909AB00AC000130983138
:103FA20006209D312D002C082E00BE002D002B086E
:103FB2002E00BD002D002A082E00BC002D0029086D
:103FC2002E00BB004030C2000030C1000030C000F3
:103FD2000030BF00AD317D259D31031CF12FF22F42
:103FE2007A2DAB2E40302E00BE000830BF00643068
:103FF200C000B830C100A83173209D31712D40300E
:10400200080025302100990008002D00A800220890
:10401200A400A5010530A435A50D890B0C282408A0
:10402200803EA6003F30253DA70021302302031821
:104032001B281C28422804302202031C2128222883
:104042003D2842282708A1002608A000B6319D2657
:10405200A0312D002008A400280886000730870020
:10406200240881000130A6070030A73D0130A400DA
:104072002408A8070130A3022308031D412842286F
:10408200232808002D00B201A830860006308700E0
:10409200473FB000B01F4E284F2871282D00A809B5
:1040A200A909AA09AB09AC09AD09AE09AF09A80A69
:1040B200031D6E28A90A031D6E28AA0A031D6E2875
:1040C200AB0A031D6E28AC0A031D6E28AD0A031D40
:1040D2006E28AE0A031D6E28AF0A2D00B201B20A85
:1040E200A030860006308700473F2D00B000B01F89
:1040F2007B287C289B282D00A009A109A209A309DD
:10410200A409A509A609A709A00A031D9B28A10ABB
:10411200031D9B28A20A031D9B28A30A031D9B289B
:10412200A40A031D9B28A50A031D9B28A60A031D9A
:104132009B28A70A2D00200821042204230424041A
:104142002504260427040319A728A828FB28B1015F
:10415200B10AB728A035A10DA20DA30DA40DA50D7E
:10416200A60DA70D0130B0003008B107A71FBA286D
:10417200BB28AB2827082F02031DD92826082E02A8
:10418200031DD92825082D02031DD92824082C0235
:10419200031DD92823082B02031DD92822082A022D
:1041A200031DD92821082902031DD9282008280225
:1041B200031CDC28DD28ED282008A8022108A93BE1
:1041C2002208AA3B2308AB3B2408AC3B2508AD3BA5
:1041D2002608AE3B2708AF3BA736A60CA50CA40CBD
:1041E200A30CA20CA10CA00C0130B102031DFA28F1
:1041F200FB28BB2832080319FF2800291E29A80919
:10420200A909AA09AB09AC09AD09AE09AF09A80A07
:10421200031D1E29A90A031D1E29AA0A031D1E2900
:10422200AB0A031D1E29AC0A031D1E29AD0A031D7C
:104232001E29AE0A031D1E29AF0A2D002808A00060
:104242002908A1002A08A2002B08A3002C08A40018
:104252002D08A5002E08A6002F08A70008002D0093
:10426200C6003B08CF003C08D0003D08D1003E0804
:10427200D2003F08D3004008D4004108D5004208CC
:10428200D600CF30860006308700473FC300C31BED
:104292004B294D2901304E2900302D00C400C501A3
:1042A2004408CD004508CE004D084E0403195A2992
:1042B2005B297929CF09D009D109D209D309D409B7
:1042C200D509D609CF0A031D7929D00A031D7929F8
:1042D200D10A031D7929D20A031D7929D30A031DA4
:1042E2007929D40A031D7929D50A031D7929D60A09
:1042F2002E00A51B7D297E298229FD30A605FF30CF
:10430200A7052508803A2D00C30080304302031D13
:104312008D2901302E002402031890299129972912
:1043220001302D00C9000030CA009F292E00250847
:104332002D00CA002E0024082D00C9002F004708B6
:104342002D00CC002F0046082D00CB004D084E0456
:10435200031DAC29AD29B2292E00261DB129B2298F
:10436200B729FF302D00CB07FF30CC3D1F302D0089
:10437200D7000030D8003100DF01282AFF302D009D
:10438200D707FF30D83D0A30A000A101A201A30146
:10439200A401A501A601A7014F08A8005008A90081
:1043A2005108AA005208AB005308AC005408AD00F3
:1043B2005508AE005608AF00A0314320A1312D00B0
:1043C2002108B4002008B300B7314127A1312D00E4
:1043D2003308303EC3005708C03E860008308700CD
:1043E20043088100FF30C907FF30CA3DFF30CB07C9
:1043F200FF30CC3D0A30A000A101A201A301A4011B
:10440200A501A601A7014F08A8005008A90051085C
:10441200AA005208AB005308AC005408AD0055087E
:10442200AE005608AF0090314E20A1312D00200879
:10443200CF002108D0002208D1002308D20024088E
:10444200D3002508D4002608D5002708D6002D0061
:104452005808803AC30080304302031D322A0130DB
:104462005702031C352A362A632A2D004F085004AE
:10447200510452045304540455045604031D422AA1
:10448200432ABF294A08803AC30080304302031DF1
:104492004C2A0130490203184F2A502ABF292D0005
:1044A2004C08803AC30080304302031D5A2A01306F
:1044B2004B02031C5D2A5E2A632A2E00A618622A7A
:1044C200632ABF292D004D084E04031D692A6A2A5A
:1044D2006F2A2E00261D6E2A6F2A8C2AFF302D008D
:1044E200D707FF30D83D4D084E04031D792A7A2A9A
:1044F2007F2A2B30C7000030C800832A2D30C70026
:104502000030C8004708C3005708C03E8600083084
:104512008700430881002D005708C03EC3004308AE
:10452200B0004C08B2004B08B1004608A931D821AE
:10453200A1312D003108BC003008BB0008002D005D
:1045420058088039D9005908E2005835D90059086D
:10455200E900D71FAD2AAE2AAF2A691469080319E8
:10456200B32AB42AC42A690A031DB82AB92AC12A5D
:104572000030D8000030D7000030D6000030D5001F
:10458200D717D801CC2A0030D8000030D70000302D
:10459200D6000030D50054088039D9005908E20607
:1045A2005435D9005908EA00D31FD82AD92ADA2A61
:1045B2006A146A080319DE2ADF2AEF2A6A0A031D2F
:1045C200E32AE42AEC2A0030D4000030D300003081
:1045D200D2000030D100D317D401F72A0030D40022
:1045E2000030D3000030D2000030D1005408530410
:1045F20052045104031DFE2AFF2A182B0030D80052
:104602000030D7000030D6000030D5008030D7040B
:104612007F30D8046208D9005908D8045808D40059
:104622005708D3005608D2005508D100532C690808
:10463200031D1C2B1D2B262B0030D4000030D30071
:104642000030D2000030D100532C6908D900DA01C1
:104652005A08DC006A085902DB00031CDC035B0811
:104662007F3EE30000305C3DE4005808E10057085B
:10467200E0005608DF005508DE000030D8000030A8
:10468200D7000030D6000030D5000030E8000030FE
:10469200E7000030E6000030E500EA018E2B6A08F0
:1046A2000319542B552B6F2B0130DE35DF0DE00D36
:1046B200E10D890B562B0130D535D60DD70DD80D0E
:1046C200890B5D2BE81F662B672B682B5514013075
:1046D200E535E60DE70DE80D890B692B54086102FB
:1046E200031D7D2B53086002031D7D2B52085F02C0
:1046F200031D7D2B51085E02031C802B812B8A2B0C
:1047020068175108DE025208DF3B5308E03B5408A9
:10471200E13B0130D9005908EA071A306A02031C4A
:10472200932B942B502B610860045F045E040319E1
:104732009B2B9C2BB52B6514B52B0130D535D60D93
:10474200D70DD80D890B9F2BE81FA82BA92BAA2BBD
:1047520055140130E535E60DE70DE80D890BAB2B5D
:10476200FF30E307FF30E43DD71FB82BB92B9E2B58
:10477200EA01E81FBD2BBE2BDA2BFF306505D900FD
:10478200FF306605DA00FF306705DB007F30680521
:10479200DC005C085B045A0459040319D12BD22BA8
:1047A200D52BEA01EA0ADA2B551CD82BD92BDA2BA6
:1047B200D22B6A080319DE2BDF2B072C0130D50719
:1047C2000030D63D0030D73D0030D83D581CEA2B92
:1047D200EB2B072C5508D9005608DA005708DB00E6
:1047E2005808DC000130DD00DC37DB0CDA0CD90CB8
:1047F200DD0BF52B5C08D8005B08D7005A08D60001
:104802005908D5000130E3070030E43D6408803ADE
:10481200D90080305902031D102CFF306302031CA3
:10482200132C142C212CFF302D00E3000030E40067
:104832000030D8000030D7000030D6000030D5005C
:104842002D006408803AD90080305902031D2B2CB8
:104852000130630203182E2C2F2C3B2C2D00E30178
:10486200E4010030D8000030D7000030D60000301C
:10487200D500E2012D006308D9005908E900691C3E
:10488200432C442C462CD7174A2C7F30D900590888
:10489200D7056936D9005908D8006208D9005908E5
:1048A200D8040F2B08002D00D801E101E2012D00F0
:1048B2006108D03E8600073087006108603E8400B0
:1048C2000830850000080106031D682C692C6F2C36
:1048D2002E00390803196E2C6F2CB32C2D005808AA
:1048E200D600D701D635D70DD635D70D2F003F08C4
:1048F200FC3E2D00A900FF3003180030AA00620818
:10490200AC006108AB00A8310020A4312D0056088C
:104912002902D90057082A3BDA005A08B700590879
:10492200B6000030B800B9006108D03E86000730FA
:1049320087000108D6005608BA009831B320A43186
:104942002D006108D03E8600073087000108D6009E
:104952006108603E860008308700560881002E00FC
:10496200B901B90A2D006108D03E860007308700E0
:1049720020300106031DBE2CBF2CC32C0130D600F3
:104982005608D8070130E1070030E23D6208803A5C
:10499200D60080305602031DD02C10306102031C59
:1049A200D32CD42C582C2D00DB01DC012D005B080C
:1049B200403E8600083087005B08B03E8400083025
:1049C2008500000801060319E72CE82C232D2F008F
:1049D2003F08FC3E2D00A900FF3003180030AA005A
:1049E2005C08AC005B08AB00A8310020A4312D00AC
:1049F2002A08DA002908D9005A08B7005908B6006F
:104A02001030B8000030B9005B08403E8600083024
:104A120087000108D6005608BA009831B320A431A5
:104A22002D005B08403E8600083087000108D60052
:104A32005B08B03E860008308700560881002E00D1
:104A4200B801B80A01302D00DB070030DC3D5C08FC
:104A5200803AD60080305602031D312D10305B02A1
:104A6200031C342D352DD72C2D00DD01DE012D0048
:104A72005D08303E8600083087005D08A03E840055
:104A820008308500000801060319482D492D842DA0
:104A92002F003F08FC3E2D00A900FF300318003014
:104AA200AA005E08AC005D08AB00A8310020A4316A
:104AB2002D002A08DA002908D9005A08B700590837
:104AC200B6002030B8000030B9005D08303E8600E4
:104AD200083087000108D6005608BA009831B32082
:104AE200A4312D005D08303E8600083087000108A1
:104AF200D6005D08A03E8600083087005608810077
:104B02002E00B701B70A01302D00DD070030DE3D6F
:104B12005E08803AD60080305602031D922D103076
:104B22005D02031C952D962D382D2D00DF01E0012D
:104B32002D005F08203E8600083087005F08503E47
:104B4200840008308500000801060319A92DAA2D4A
:104B5200E52D2F003F08FC3E2D00A900FF30031871
:104B62000030AA006008AC005F08AB00A83100204A
:104B7200A4312D002A08DA002908D9005A08B70002
:104B82005908B6003030B8000030B9005F08203E46
:104B92008600083087000108D6005608BA0098310E
:104BA200B320A4312D005F08203E86000830870024
:104BB2000108D6005F08503E86000830870056087C
:104BC20081002E00B601B60A01302D00DF07003049
:104BD200E03D6008803AD60080305602031DF32D76
:104BE20010305F02031CF62DF72D992D2E00390887
:104BF2000319FC2DFD2D032E0030AC317924A43194
:104C02002E00B90138080319072E082E0E2E023085
:104C1200AC317924A4312E00B80137080319122EC1
:104C2200132E192E0430AC317924A4312E00B70191
:104C3200360803191D2E1E2E242E0630AC3179247F
:104C4200A4312E00B6010800B631C826A6318B1752
:104C52000B1705302E00D0000F30CF00F130890B3A
:104C6200302ECF0B302ED00B302E2D00A201A301FF
:104C7200A30A3A30A0310620A6312D00A201A20AD1
:104C8200A301A30A6330A0310620A63102302E0010
:104C9200CF004F082D00A200A301A30A6230A03169
:104CA2000620A63165302E006302031C592E5A2EAF
:104CB200752E3230CF004F08E3006330CF004F082B
:104CC2002D00A600A701A70A0130AB31A723A63108
:104CD20063302E00CF004F082D00A600A701A70ABF
:104CE2000330AB31A723A63165302E006202031CCC
:104CF2007B2E7C2E8B2E6430CF004F08E200623078
:104D0200CF004F082D00A600A701A70A0230AB3141
:104D1200A723A631AC31EA24A63105302E00D000FB
:104D22000F30CF00F130890B942ECF0B942ED00B85
:104D3200942E98310120A63120008D1AA12EA32E87
:104D42009D31422D02302E00CF004F082D00A200CF
:104D5200A301A30A6230A0310620A631D0302D0073
:104D6200A0000730A100B731BA27A631D0302E00FB
:104D7200BE000730BF006D30C000B830C100A8319E
:104D82007320A63140302D00A0000830A100B731B9
:104D9200BA27A63130302D00A0000830A100B7316B
:104DA200BA27A63120302D00A0000830A100B7316B
:104DB200BA27A63120302E00BE000830BF004E3088
:104DC200C000B830C1000A302D00A0000030A100A0
:104DD2002E006208CF00D0014F082D00A2002E0045
:104DE20050082D00A300AB314723A6312D00210826
:104DF2002E00C3002D0020082E00C2000A302D0014
:104E0200A0000030A1002E006208D100D20151089A
:104E12002D00A2002E0052082D00A300A9318421EA
:104E2200A6312D0021082E00C5002D0020082E00DD
:104E3200C400A8317320A6312E006208CF00D00131
:104E4200D101D20152082D00AC002E0051082D00D4
:104E5200AB002E0050082D00AA002E004F082D0096
:104E6200A900003098310620A6312D002C08BE0082
:104E72002B08BD002A08BC002908BB004130BA003B
:104E82001930B900D830B8009E30B7008D31A9254D
:104E9200A6312D003A08EE003908ED003808EC0082
:104EA2003708EB008D312325A6312D006C082E002A
:104EB200C3002D006B082E00C200B6314226A63177
:104EC2003F302E00BE00EC30BD00CC30BC00CD30F7
:104ED200BB0041302D00D4002030D3000030D2007E
:104EE2000030D1002E006208CF00D001D101D201E2
:104EF20052082D00AC002E0051082D00AB002E00F0
:104F020050082D00AA002E004F082D00A9000030E5
:104F120098310620A6312D002C08D8002B08D70086
:104F22002A08D6002908D500A231A022A6312D00D8
:104F320054082E00C2002D0053082E00C1002D007F
:104F420052082E00C0002D0051082E00BF00AD31C6
:104F52007D25A6310318AE2FAF2FB22F22000C14DD
:104F6200B42F22000C102E006208CF00D0014F088F
:104F72002D00A2002E0050082D00A3000A30A00030
:104F82000030A100AB314723A6312D002008A90033
:104F92002108AA00890D893B8909AB00AC000130C8
:104FA20098310620A6312D002C082E00BE002D00BF
:104FB2002B082E00BD002D002A082E00BC002D005B
:104FC20029082E00BB004030C2000030C100003072
:104FD200C0000030BF00AD317D25A631031CF22F89
:104FE200F32FF62F22008C14F82F22008C10A431FC
:104FF2005424A6313100E401E5019D313D2D2D00FF
:10500200AD01AE01291C062807280B282B08AD0785
:105012002C08AE3D0130AB35AC0D890B0C280130AC
:10502200AA36A90C890B112829082A04031D1A285B
:105032001B2803282E08AA002D08A90008002D000D
:10504200AF00AD01AE0138282C08A900AA01290839
:10505200A0002A08A1002808AB002B08A200AA3150
:105062008C22A83101302D00AD070030AE3D2D0855
:105072002F07A90029088600083087000108AA0026
:105082002A08AC002C08031D4728482825280800B8
:1050920000308B1B01302D00A5008B13210823004B
:1050A20092002D002008230091002D0023082300E8
:1050B20094002D002208230093002D00240C2300CD
:1050C200031C951203189516151315121515B631F2
:1050D2001E26A8312D002508031970287128722870
:1050E2008B17080042302D00EE006E082E00C8001B
:1050F2003F08CA003E08C900CB01CC01CD01CE0158
:1051020041082D00EA002E0040082D00E900483039
:10511200EE006E08EB004930A831CE20A8310230F3
:10512200493E860007308700403F2E003E0784003C
:10513200413F3F3D8500800108002E340034003499
:1051420000340034003400340034003400340034BD
:10515200003400340034003400342E34003400347F
:10516200003400340034003400340034003400349D
:10517200003400340034003400342E34003400345F
:10518200003400340034003400340034003400347D
:10519200003400340034003400342E00BB002D00F3
:1051A2006A082E00BD002D0069082E00BC002F00E9
:1051B200C401C501F2283C302D00EC006C08D90076
:1051C2006B08ED006D08DA002E003B08AF3118279E
:1051D200A8312D0059082F00C4072D005A082F00AE
:1051E200C53D2E003C0884003D0885001200031DC9
:1051F200FB28FC28DC282F0045082D00EA002F00A0
:1052020044082D00E900080022008C018D018E0166
:10521200083021009000B8308C00FF308D00FF3044
:105222008E0023008E0108308D0004308C00240093
:1052320090018D018C018E012100971725008C01B0
:105242008D018E01FF3026008C00FF308D00E7308B
:105252008E003F3027008C00F0308D00FF308E0032
:1052620014303C00BB0021303D00A3002230A400DA
:1052720013303C00BA0008002D0021082F00BE00A8
:105282002D0020082F00BD002D00200884002108D9
:1052920085000008A20022082F00BF002D0021086F
:1052A200A3002008A200013022078400230803186B
:1052B200230A85000008A40024082F00C0002D0046
:1052C2002108A3002008A20002302207840023083C
:1052D2000318230A85000008A40024082F00C10037
:1052E2002D002108A3002008A20003302207840019
:1052F20023080318230A85000008A40024082F00AD
:10530200C200C30108002D00A601A31F89298A2912
:105312009129A209A309A20A0319A30AA601A60AAE
:10532200A11F942995299A29A009A109A00A031964
:10533200A10A2008210403199F29A029C929A5012E
:10534200A50AAC290130A035A10D890BA429013091
:10535200A4002408A507A11FAF29B029A329210869
:105362002302031DB62920082202031CB929BA29E7
:10537200BE292008A2022108A33B0130A136A00CBD
:10538200890BBF290130A502031DC829C929B029EB
:1053920026080319CD29CE29D329A209A309A20AD5
:1053A2000319A30A2308A1002208A00008002D0067
:1053B200B8002E00261CDE29DF29E8292D00380836
:1053C200B3003308A8003008A8312020A9312D00ED
:1053D200B21BEC29ED29F2293208B7003108B600D8
:1053E200F429B601B701B401B501082A20302D0015
:1053F200A0000030A1003808B3003308A200AA318F
:105402008C22A93101302D00B4070030B53D35089A
:10541200803AB3003708803A3302031D122A360855
:105422003402031C152A162AF7292E0026181A2AD6
:105432001B2A242A2D003808B3003308A80030089C
:10544200A8312020A9312D003008B7312627A931F3
:105452002D0036082007B0003708213DB1000800B2
:105462002D00A5012130B631B226AA310030B63165
:10547200B226AA317F30B631B226AA312230B631F5
:10548200B226AA310030B631B226AA310730B6317F
:10549200B226AA31B6310626AA317830B631732641
:1054A200AA314030B6317326AA312D00A601A701D8
:1054B200A5010030A3002030A4002608230786009F
:1054C2002708243D87000108B6317326AA3101302E
:1054D2002D00A6070030A73D0130A3002308A50731
:1054E20010302502031C762A772A5A2A0130A60296
:1054F2000030A73B0130A6070030A73D0430270249
:10550200003003192602031C872A882A592AB5313A
:10551200FF25AA3108002D0022080319912A922A98
:10552200972A2208031D962A972A9C2A200890313E
:105532000020AA31E82A2208043E860007308700AC
:10554200160001040319A62AA72AC72A2208043E24
:10555200860007308700403FA300413FA400220895
:10556200023E860007308700403FA500413FA6006B
:105572002608803AA7002408803A2702031DC32A7E
:10558200230825020318C62AC72AE82A2D00220862
:10559200023E86000730870022088400073085001B
:1055A200403F0007A3000131413F003DA400230812
:1055B200860024088700200881002208023E860017
:1055C200073087000130810741310318810A080042
:1055D200FA007A08F800F9010530F835F90D890B5F
:1055E200EE2A7808803EFB003F30793DFC002130F6
:1055F20077020318FD2AFE2A462B04307A02031C86
:10560200032B042B052B462B7C08F1007B08F000B2
:10561200B631F426AA312B2B7C08F1007B08F0006E
:1056220076088600073087000108F800F90178083B
:10563200F2007908F300F401F40AB7317A27AA31AB
:105642000130F8007808F6070130FB070030FC3D16
:105652000130F702023077020318302B312B0D2B69
:105662007C08F1007B08F00076088600073087008E
:105672000108F800F9017808F2007908F300F40152
:10568200B7317A27AA312300150808002D00A60198
:10569200A11F4C2B4D2B542BA009A109A00A0319C1
:1056A200A10AA601A60AA31F572B582B612BA209F8
:1056B200A309A20A0319A30A0130A4002408A6061A
:1056C200A701A801200821040319682B692B982B34
:1056D200A501A50A752B0130A035A10D890B6D2BF3
:1056E2000130A4002408A507A11F782B792B6C2B6D
:1056F2000130A735A80D890B7A2B21082302031D3F
:10570200842B20082202031C872B882B8D2B200838
:10571200A2022108A33B27140130A136A00C890B59
:105722008E2B0130A502031D972B982B792B26086F
:1057320003199C2B9D2BA22BA709A809A70A0319C1
:10574200A80A2808A1002708A00008002D00AA0026
:105752002A08A800A9010530A835A90D890BAD2B8F
:105762002808803EAB003F30293DAC0021302702A3
:105772000318BC2BBD2B072C04302A02031CC22B9E
:10578200C32BC42B072C2C08A1002B08A000B73177
:105792005D27AB31EB2B2C08A1002B08A0002608BB
:1057A2008600073087000108A800A9012808A20086
:1057B2002908A300A401A40AA8314920AB31013071
:1057C2002D00A8002808A6070130AB070030AC3D29
:1057D2000130A70202302D0027020318F12BF22B11
:1057E200CC2B2C08A1002B08A0002608860007302D
:1057F20087000108A800A9012808A2002908A3001F
:10580200A401A8314920AB31230015080800AE30AD
:10581200B631B226AC31D530B631B226AC31F03029
:10582200B631B226AC31A830B631B226AC313F30F7
:10583200B631B226AC31D330B631B226AC310030FB
:10584200B631B226AC314030B631B226AC318D30F1
:10585200B631B226AC311430B631B226AC3120307A
:10586200B631B226AC310030B631B226AC31A130FD
:10587200B631B226AC31C830B631B226AC31DA30EC
:10588200B631B226AC311230B631B226AC318130EB
:10589200B631B226AC31FF30B631B226AC31D93096
:1058A200B631B226AC31F130B631B226AC31DB3092
:1058B200B631B226AC314030B631B226AC31A4306A
:1058C200B631B226AC31A630B631B226AC312E306A
:1058D200B631B226AC31AF30B631B226AC3133304C
:1058E2002D00A0008130A100A9313D21AC3108007A
:1058F2002D00AA00A9012130B631B226AC31003008
:10590200B631B226AC317F30B631B226AC3122305C
:10591200B631B226AC312D002A08B631B226AC31EE
:105922002D002A08013EB631B226AC31B631062628
:10593200AC317830B6317326AC314030B631732693
:10594200AC312D002A08A300A4010730A335A40D11
:10595200890BA72C2308A7002408A800CE2CA90194
:105962000030A3002030A40027082307860028085F
:10597200243D87000108B6317326AC3101302D0079
:10598200A7070030A83D0130A3002308A907103063
:105992002902031CCD2CCE2CB12C2A08A300A40171
:1059A2000730A335A40D890BD22C2308003EA50095
:1059B2000130243DA60026082802031DE22C2508FA
:1059C2002702031CE52CE62CB02CB531FF25AC31A7
:1059D20008000130B7319A27AC31B531FF25AC311F
:1059E20005302D00A9000F30A800F130890BF72CEB
:1059F200A80BF72CA90BF72CAE30B631B226AC317E
:105A0200D530B631B226AC31F030B631B226AC3137
:105A1200A830B631B226AC313F30B631B226AC3105
:105A2200D330B631B226AC310030B631B226AC3109
:105A32004030B631B226AC318D30B631B226AC31FF
:105A42001430B631B226AC312030B631B226AC3188
:105A52000030B631B226AC31A130B631B226AC310B
:105A6200C830B631B226AC31DA30B631B226AC31FA
:105A72001230B631B226AC318130B631B226AC31F9
:105A8200FF30B631B226AC31D930B631B226AC31A4
:105A9200F130B631B226AC31DB30B631B226AC31A0
:105AA2004030B631B226AC31A430B631B226AC3178
:105AB200A630B631B226AC312E30B631B226AC3178
:105AC200AF30B631B226AC3133302D00A000813078
:105AD200A100A9313D21AC3105302D00A9000F30C4
