:020000040000FA
:1000000080319A28803008007E1480318B1A0B1DB5
:1000100098280B1121005B08031916286308640453
:1000200003191628FF30E307FF30E43D6708680432
:10003000031946286B086C04031D462869086A04E6
:10004000031D462822005208530403194B2801308F
:10005000D2020030D33B52085304031D4B28E23038
:100060002100E3000430E400DB01DB0AE030FD00A6
:100070007D08F600F701F70A0030AF31AC27803178
:100080000430FD007D082100E0004B28FA302200FA
:10009000D2000030D30021006B086C0403196128E2
:1000A00069086A04031D612867086804031D612844
:1000B0006508660403196528FF30E507FF30E63D53
:1000C00065287130E5000230E6006B086C04031906
:1000D000752869086A0403197528670868040319F4
:1000E0007528D101D201D301DC0151085204031952
:1000F0007D280130D1020030D23B6108620403192F
:100100008528FF30E107FF30E23D2200510850040E
:100110004F044E0403199528FF30CE07FF30CF3D22
:10012000FF30D03DFF30D13D98282100D801D80ABA
:100130007E10090080319C285E308400AB30850041
:10014000E1308600003087000030FF000E30AB3118
:1001500052238031F4308400AB3085004E3086006D
:10016000013087000030FF001830AB31522380315E
:100170000B308400AF308500A0308600013087004E
:100180000030FF005030AB3152238031D930840031
:10019000AC30850040308600023087000030FF0020
:1001A0002030AB3152238031283084002630850046
:1001B000C830FE000130FF00AB3146238031EF0133
:1001C000CB308400003085001630FE000030FF0088
:1001D000AB314623803120308400013085002E3041
:1001E000FE000030FF00AB31462380312030840018
:1001F000023085002030FE000030FF00AB31462386
:100200007E1020009C312B2C1034103420345F34AD
:10021000003400340034003400340034003400343E
:10022000003400340034003400340034003400342E
:10023000003400340034003400340034003400341E
:10024000003400340034003400340034003400340E
:100250000034003400340034F834FC34FC34FC3412
:10026000F8340034003400340034003400340034F6
:100270000034003400340034003473347334733485
:1002800000340034003400340034003400340034CE
:1002900000340034003400341E343E343E34003424
:1002A000003400343E343E341E3400340034003414
:1002B000003400340034003400340034003400349E
:1002C000003400340034003400340034003400348E
:1002D0000034303430343034FE34FE343034303492
:1002E00030343034FE34FE34303430343034003482
:1002F00000340C340C340C347F347F340C340C3424
:100300000C340C347F347F340C340C340C34003413
:10031000003400340034F034F8349834FE34983427
:100320009834FE349834983418340034003400344F
:100330000034003400341834193419347F3419343B
:1003400019347F3419341F340F340034003400342E
:1003500000340034003400343834383438348034D5
:10036000C034E034703438340034003400340034A5
:1003700000340034003400341C340E3407340334A9
:1003800001341C341C341C34003400340034003478
:100390000034003400343834FC34C434C434FC3405
:1003A00038340034003400348034003400340034F5
:1003B0000034003400341E343F34213421343334CB
:1003C0003F341E341E3437342334003400340034B8
:1003D000003400340034003420343C343C341C34C9
:1003E000003400340034003400340034003400346D
:1003F000003400340034003400340034003400345D
:10040000003400340034003400340034003400344C
:100410000034003400340034C034E034F034383474
:100420001C340C34043404340034003400340034FC
:100430000034003400340034033407340F341C34E7
:100440003834303420342034003400340034003464
:100450000034003400340034043404340C341C34CC
:100460003834F034E034C034003400340034003424
:100470000034003400340034203420343034383434
:100480001C340F3407340334003400340034003497
:1004900000340034803488349034E034E034FC3468
:1004A000FC34E034E0349034883480340034003458
:1004B00000340034013411340934073407343F3434
:1004C0003F34073407340934113401340034003424
:1004D0000034003400340034803480348034F0340C
:1004E000F0348034803480340034003400340034FC
:1004F00000340034003400340134013401340F344A
:100500000F34013401340134003400340034003439
:10051000003400340034003400340034003400343B
:10052000003400340034003400340034003400342B
:1005300000340034003400344034783478343834B3
:10054000003400340034003400340034003400340B
:10055000003400340034803480348034803480347B
:10056000803480348034803480340034003400346B
:1005700000340034003401340134013401340134D6
:1005800001340134013401340134003400340034C6
:1005900000340034003400340034003400340034BB
:1005A00000340034003400340034003400340034AB
:1005B00000340034003400340034383438343834F3
:1005C000003400340034003400340034003400348B
:1005D000003400340034003400340034003400347B
:1005E00000348034C034E034703438341C34003487
:1005F0000034003400342034303438341C340E34A9
:10060000073403340134003400340034003400343F
:10061000003400340034F834FC34FC3404348434C2
:10062000E4347434FC34FC34F834003400340034E2
:100630000034003400341F343F343F342E34273428
:10064000213420343F343F341F340034003400342C
:10065000003400340034603460346034F034FC34EE
:10066000FC340034003400340034003400340034EE
:100670000034003400342034203420343F343F34FC
:100680003F3420342034203400340034003400342B
:1006900000340034003418341C341C340434043462
:1006A0008434CC34FC3478343034003400340034B6
:1006B000003400340034303438343C342E342734A1
:1006C000233421343834383438340034003400349E
:1006D00000340034003418341C341C348434843422
:1006E0008434CC347C3478343034003400340034F6
:1006F0000034003400341834383438342134213490
:10070000213433343E341E340C340034003400348D
:100710000034003400348034C03460343034183451
:10072000FC34FC34FC340034003400340034003435
:1007300000340034003403340334033423342334CA
:100740003F343F343F342334233400340034003406
:10075000003400340034FC34FC34FC3484348434FD
:100760008434843484340434043400340034003455
:10077000003400340034193439343934213421340C
:10078000213433343F341F340E3400340034003409
:10079000003400340034E034F034F8349C348C34C9
:1007A000843484348434803400340034003400349D
:1007B0000034003400341F343F343F3421342134BA
:1007C000213421343F343F341F34003400340034AA
:1007D0000034003400343C343C343C3404340434BD
:1007E000043404348434FC34FC347C340034003469
:1007F00000340034003400340034003438343C34E5
:100800003E340734033401340034003400340034FF
:1008100000340034003478347C34FC34C434C434C0
:1008200084348434FC347C34783400340034003430
:100830000034003400341E343E343F34213421343B
:10084000233423343F343E341E3400340034003427
:10085000003400340034F834FC34FC348434843400
:1008600084348434FC34FC34F834003400340034F0
:100870000034003400340034013421342134213474
:10088000313439341F340F34073400340034003429
:1008900000340034003400340034003470347034D8
:1008A0007034003400340034003400340034003438
:1008B0000034003400340034003400340E340E347C
:1008C0000E3400340034003400340034003400347A
:1008D0000034003400340034003400347034703498
:1008E00070340034003400340034003400340034F8
:1008F0000034003400340034003410341E341E340C
:100900000E34003400340034003400340034003439
:100910000034003400348034C034E034703438346F
:100920001C340E34063402340034003400340034F5
:100930000034003400340134033407340E341C34E2
:1009400038347034603440340034003400340034BF
:1009500000340034603460346034603460346034B7
:1009600060346034603460346034603400340034A7
:1009700000340034063406340634063406340634B3
:1009800006340634063406340634063400340034A3
:10099000003400340034023406340E341C3438344D
:1009A0007034E034C0348034003400340034003417
:1009B00000340034003440346034703438341C3433
:1009C0000E3407340334013400340034003400346E
:1009D00000340034003418341C340C340E34063423
:1009E0008634CE34FC347C34383400340034003463
:1009F00000340034003400340034003400347334E4
:100A00007334733400340034003400340034003460
:100A1000003400340034FC34FE34FE34023402343A
:100A2000C234C234C234FE34FE34FC3400340034E8
:100A30000034003400343F343F347F346034603459
:100A40006334633463346334433403340034003434
:100A5000003400340034E034F034F8341C340C3406
:100A60000C341C34F834F034E034003400340034F6
:100A70000034003400343F343F343F340234023415
:100A8000023402343F343F343F3400340034003405
:100A90000034003400340434FC34FC34FC3484343A
:100AA00084348434FC34FC3478340034003400342E
:100AB00000340034003420343F343F343F34213498
:100AC000213421343F343F341E34003400340034A8
:100AD000003400340034F034F834FC340C34043482
:100AE000043404341C341C3418340034003400340E
:100AF0000034003400340F341F343F343034203499
:100B0000203420343834383418340034003400347D
:100B10000034003400340434FC34FC34FC34043439
:100B200004340C34FC34F834F03400340034003431
:100B300000340034003420343F343F343F34203418
:100B4000203430343F341F340F3400340034003448
:100B50000034003400340434FC34FC34FC34843479
:100B600084348434C434CC341C3400340034003431
:100B700000340034003420343F343F343F342134D7
:100B800021342134233433343834003400340034F5
:100B90000034003400340434FC34FC34FC34843439
:100BA00084348434C434CC341C34003400340034F1
:100BB00000340034003420343F343F343F34213497
:100BC000013401340334033400340034003400347D
:100BD000003400340034F034F834FC340C34043481
:100BE000043404343C343C343834003400340034AD
:100BF0000034003400340F341F343F343034203498
:100C0000223422343E343E343E3400340034003446
:100C1000003400340034FC34FC34FC348034803440
:100C20008034FC34FC34FC340034003400340034B0
:100C30000034003400343F343F343F340134013455
:100C400001343F343F343F34003400340034003446
:100C5000003400340034003404340434FC34FC34F4
:100C6000FC340434043400340034003400340034E0
:100C70000034003400340034203420343F343F3416
:100C80003F34203420340034003400340034003445
:100C900000340034003400340034003400340434B0
:100CA0000434FC34FC34FC340434043400340034A4
:100CB000003400341E341E343E34203420342034BA
:100CC00020343F343F341F340034003400340034C7
:100CD0000034003400340434FC34FC34FC34C034BC
:100CE000E03470343C341C340C34003400340034B0
:100CF00000340034003420343F343F343F34033474
:100D000007340E343C34383430340034003400348A
:100D10000034003400340434FC34FC34FC34043437
:100D20000034003400340034003400340034003423
:100D300000340034003420343F343F343F34203416
:100D400020342034303438343C340034003400341F
:100D5000003400340034FC34FC34FC347834F03497
:100D6000E034F0347834FC34FC34FC3400340034A7
:100D70000034003400343F343F343F340034003416
:100D80000134003400343F343F343F340034003405
:100D9000003400340034FC34FC34FC347034E0346F
:100DA000C03480340034FC34FC34FC34003400346F
:100DB0000034003400343F343F343F3400340034D6
:100DC0000134033407343F343F343F3400340034BB
:100DD000003400340034E034F034F8341C340C3483
:100DE0000C340C341C34F834F034E0340034003467
:100DF00000340034003407340F341F3438343034B6
:100E00003034303438341F340F3407340034003475
:100E10000034003400340434FC34FC34FC348434B6
:100E200084348434FC34FC347834003400340034AA
:100E300000340034003420343F343F343F34213414
:100E400001340134013401340034003400340034FE
:100E5000003400340034E034F834F8341C340C34FA
:100E600004340C341C34F834F834E03400340034E6
:100E700000340034003407341F341F34183418345D
:100E80005C345E347E347F347F3447340034003445
:100E90000034003400340434FC34FC34FC34843436
:100EA00084348434FC34FC3478340034003400342A
:100EB00000340034003420343F343F343F340134B4
:100EC000013403343F343F343C34003400340034C4
:100ED0000034003400347834FC34FC3484348434FA
:100EE00084348434BC343C3438340034003400342A
:100EF0000034003400341C343C343D34213421347B
:100F0000213421343F343F341E3400340034003463
:100F10000034003400341C340C3404340434FC3405
:100F2000FC34FC34043404340C341C3400340034F9
:100F300000340034003400340034203420343F3492
:100F40003F343F3420342034003400340034003443
:100F5000003400340034FC34FC34FC3400340034FD
:100F60000034FC34FC34FC340034003400340034ED
:100F70000034003400341F343F343F3420342034F4
:100F800020343F343F341F34003400340034003404
:100F9000003400340034FC34FC34FC3400340034BD
:100FA0000034FC34FC34FC340034003400340034AD
:100FB00000340034003407340F341F3438343034F4
:100FC00038341F340F340734003400340034003414
:100FD000003400340034FC34FC34FC34003400347D
:100FE000803400340034FC34FC34FC3400340034ED
:100FF00000340034003403340F343F343C343C3488
:101000000F343C343C343F340F3403340034003468
:101010000034003400341C343C347C34E034C034BC
:10102000E0347C343C341C3400340034003400346C
:1010300000340034003438343C343E340734033454
:1010400007343E343C343834003400340034003447
:101050000034003400347C34FC34FC3480340034FC
:101060008034FC34FC347C340034003400340034EC
:101070000034003400340034203421343F343F3411
:101080003F34213420340034003400340034003440
:101090000034003400343C341C340C3404348434C4
:1010A000C434E4347C343C341C3400340034003424
:1010B00000340034003438343C343E342734233494
:1010C00021342034303438343C340034003400349B
:1010D00000340034003400340034FC34FC34FC347C
:1010E0000434043404340434003400340034003450
:1010F000003400340034003400343F343F343F3493
:1011000020342034203420340034003400340034BF
:101110000034003400341C3438347034E034C034CB
:10112000803400340034003400340034003400349F
:10113000003400340034003400340034003401340E
:10114000033407340E341C34183430342034203443
:1011500000340034003400340034043404340434E3
:101160000434FC34FC34FC340034003400340034E7
:10117000003400340034003400342034203420346F
:1011800020343F343F343F340034003400340034E2
:101190000034003400342034303438341C340E34FD
:1011A0000E341C34383430342034003400340034ED
:1011B000003400340034003400340034003400348F
:1011C000003400340034003400340034003400347F
:1011D000003400340034003400340034003400346F
:1011E000003400340034003400340034003400345F
:1011F0000034C034C034C034C034C034C034C0340F
:10120000C034C034C034C034C034C034C034C0343E
:101210000034003400340C340C343C34303430347A
:10122000003400340034003400340034003400341E
:10123000003400340034003400340034003400340E
:1012400000340034003400340034003400340034FE
:1012500000340034003400344034403440344034EE
:101260004034C034C034803400340034003400349E
:101270000034003400341C343E343E3422342234F2
:1012800022343F341F343F342034003400340034DF
:101290000034003400340434FC34FC34FC34403476
:1012A00040344034C034C03480340034003400341E
:1012B00000340034003420343F341F343F342034B1
:1012C000203420343F343F341F34003400340034A1
:1012D0000034003400348034C034C03440344034EE
:1012E0004034C034C034803400340034003400341E
:1012F0000034003400341F343F343F342034203471
:101300002034393439341934003400340034003492
:101310000034003400348034C034C03440344034AD
:101320004434FC34FC34FC340434003400340034E1
:101330000034003400341F343F343F342034203430
:1013400020343F341F343F34203400340034003420
:101350000034003400348034C034C034403440346D
:101360004034C034C034803400340034003400349D
:101370000034003400341F343F343F3422342234EC
:1013800022343B343B341B3400340034003400340A
:1013900000340034003480348034F834FC34FC34BD
:1013A00084349C349C3418340034003400340034C9
:1013B000003400340034213421343F343F343F348E
:1013C000213421340134003400340034003400343A
:1013D0000034003400348034C034C03440344034ED
:1013E0004034C0348034C0344034003400340034DD
:1013F0000034003400344734CF34DF349834983428
:101400009834FF34FF347F34003400340034003427
:101410000034003400340434FC34FC34FC348034B4
:1014200040344034C034C03480340034003400349C
:1014300000340034003420343F343F343F3401342E
:10144000003400343F343F343F340034003400343F
:101450000034003400340034403440344034DC3450
:10146000DC34DC3400340034003400340034003424
:1014700000340034003400342034203420343F342D
:101480003F343F34203420342034003400340034DE
:10149000003400340034003400340034403440342C
:1014A0004034DC34DC34DC340034003400340034C8
:1014B00000340034003420346034E034803480342C
:1014C000C034FF34FF347F3400340034003400343F
:1014D0000034003400340434FC34FC34FC34003474
:1014E00000348034C034C03440340034003400341C
:1014F00000340034003420343F343F343F3402346D
:1015000007340F343D343834303400340034003480
:101510000034003400340034043404340434FC3423
:10152000FC34FC3400340034003400340034003423
:1015300000340034003400342034203420343F346C
:101540003F343F342034203420340034003400341D
:10155000003400340034C034C034C034403440342B
:10156000C03440344034C034C0348034003400349B
:101570000034003400343F343F343F34003400340E
:101580003F34003400343F343F343F3400340034BF
:10159000003400340034C034C034C03440344034EB
:1015A0004034C034C034803400340034003400345B
:1015B0000034003400343F343F343F3400340034CE
:1015C00000343F343F343F340034003400340034BE
:1015D0000034003400348034C034C03440344034EB
:1015E0004034C034C034803400340034003400341B
:1015F0000034003400341F343F343F34203420346E
:1016000020343F343F341F3400340034003400347D
:101610000034003400344034C0348034C0344034AA
:1016200040344034C034C03480340034003400349A
:101630000034003400348034FF34FF34FF349034FD
:10164000103410341F341F340F340034003400348D
:10165000003400348034C034C0344034403440342A
:10166000C0348034C034403400340034003400349A
:10167000003400340F341F341F34103410349034CD
:10168000FF34FF34FF34803400340034003400343D
:101690000034003400344034C034C034C0348034AA
:1016A000C034C034C034C03480340034003400341A
:1016B00000340034003420343F343F343F3421348C
:1016C0000034003401340134013400340034003477
:1016D0000034003400348034C034C03440344034EA
:1016E00040344034C034803400340034003400349A
:1016F00000340034003419343B3423342634263487
:1017000026343C343D341934003400340034003481
:1017100000340034003440344034E034F034F834E1
:101720004034403440344034003400340034003419
:10173000003400340034003400341F343F343F346C
:101740002034383438341834003400340034003451
:10175000003400340034C034C034C03400340034A9
:101760000034C034C034C034003400340034003499
:101770000034003400341F343F343F3420342034EC
:1017800020343F341F343F342034003400340034DC
:10179000003400340034C034C034C0340034003469
:1017A0000034C034C034C034003400340034003459
:1017B00000340034003407340F341F3438343034EC
:1017C00038341F340F34073400340034003400340C
:1017D000003400340034C034C034C0340034003429
:1017E000003400340034C034C034C0340034003419
:1017F00000340034003407340F343F343834383484
:101800000E34383438343F340F3407340034003465
:10181000003400340034C034C034C03400340034E8
:10182000C034C034C03400340034003400340034D8
:10183000003400340034303439343F340F340F3442
:101840003F34393430340034003400340034003450
:101850000034003400340034C034C034C0340034A8
:1018600000340034C034C034C03400340034003498
:10187000003400340034803487348F349F34D834BB
:10188000F83478343F340F340734003400340034F3
:10189000003400340034C034C03440344034403468
:1018A000C034C034C0340034003400340034003458
:1018B000003400340034313438343C342E3427348E
:1018C00023343134383400340034003400340034EC
:1018D00000340034003480348034C03478347C34B4
:1018E0003C3404340434043404340034003400340C
:1018F0000034003400340134013403341E343E34E7
:101900003C3420342034203420340034003400347B
:101910000034003400340034003400340034FE3429
:10192000FE34FE340034003400340034003400341B
:1019300000340034003400340034003400347F3488
:101940007F347F34003400340034003400340034F9
:1019500000340034003404340434043404343C349B
:101960007C347834C0348034803400340034003423
:1019700000340034003420342034203420343C340B
:101980003E341E3403340134013400340034003456
:101990000034003438343C343C3404340C341C34CB
:1019A0003834303420343C343C341C34003400347B
:1019B0000034003400340034003400340034003487
:1019C0000034003400340034003400340034003477
:1019D0002000A0002008240091001418ED2CAA314A
:1019E000E8220800B2012030860000308700473F1F
:1019F000B000B01F1D2D2000A009A109A209A30954
:101A0000A409A509A609A709A00A031D1A2DA10A60
:101A1000031D1A2DA20A031D1A2DA30A031D1A2D38
:101A2000A40A031D1A2DA50A031D1A2DA60A031DBB
:101A30001A2DA70A2000B201B20A28308600003011
:101A40008700473F2000B000B01F4A2D2000A809A2
:101A5000A909AA09AB09AC09AD09AE09AF09A80AE1
:101A6000031D452DA90A031D452DAA0A031D452D59
:101A7000AB0A031D452DAC0A031D452DAD0A031D00
:101A8000452DAE0A031D452DAF0A01302000B000E0
:101A90003008B2063330860000308700083020005E
:101AA000B00000301E00B00B522D2008210422048B
:101AB000230424042504260427040319B52DB101A9
:101AC000B10AA71B702DA035A10DA20DA30DA40D69
:101AD000A50DA60DA70D0130B0003008B107612D8E
:101AE000B335B40DB50DB60DB70DB80DB90DBA0DB2
:101AF00027082F02031D962D26082E02031D962D62
:101B000025082D02031D962D24082C02031D962D59
:101B100023082B02031D962D22082A02031D962D51
:101B200021082902031D962D20082802031CA92D37
:101B30002008A8022108A93B2208AA3B2308AB3BA6
:101B40002408AC3B2508AD3B2608AE3B2708AF3B3D
:101B50003314A736A60CA50CA40CA30CA20CA10C44
:101B6000A00C0130B102031D702D32080319D62DCF
:101B7000B309B409B509B609B709B809B909BA0969
:101B8000B30A031DD62DB40A031DD62DB50A031DB5
:101B9000D62DB60A031DD62DB70A031DD62DB80AB9
:101BA000031DD62DB90A031DD62DBA0A200033080D
:101BB000A0003408A1003508A2003608A3003708A9
:101BC000A4003808A5003908A6003A08A7000800B4
:101BD00036088039BB003B08C0003635BB003B08E7
:101BE000C600B51B461446080319032E460A031DFA
:101BF000012E0030B6000030B5000030B4000030D7
:101C0000B300B5170B2E0030B6000030B500003021
:101C1000B4000030B3003A088039BB003B08C0066E
:101C20003A35BB003B08C100B91B411441080319F8
:101C3000262E410A031D242E0030BA000030B900C0
:101C40000030B8000030B700B9172E2E0030BA00AF
:101C50000030B9000030B8000030B7004108031D63
:101C60004608031D3C2E0030B6000030B5000030A1
:101C7000B4000030B30008003308BB003B08A000EC
:101C80003908AC319A248D312108CC002008CB00D2
:101C90004B08BB00BC01BD01BE013E08C5003D08AC
:101CA000C4003C08C3003B08C2004C08BB00BC0198
:101CB000BD01BE013E08CA003D08C9003C08C8007D
:101CC0003B08C7003408BB003B08A0003808AC3113
:101CD0009A248D312108CC002008CB004B08BB0092
:101CE000BC01BD01BE013B08C2073C08C33D3D0825
:101CF000C43D3E08C53D4C08BB00BC01BD01BE0152
:101D00003B08C7073C08C83D3D08C93D3E08CA3DE1
:101D10003508BB003B08A0003708AC319A248D3150
:101D20002108CC002008CB004B08BB00BC01BD0142
:101D3000BE013B08C2073C08C33D3D08C43D3E0808
:101D4000C53D4C08BB00BC01BD01BE013B08C70737
:101D50003C08C83D3D08C93D3E08CA3D0830C23573
:101D6000C30DC40DC50D890BAF2E3408BB003B0855
:101D7000A0003708AC319A248D312108CC0020080E
:101D8000CB004B08C2074C08C33D0030C43DC53DE5
:101D90003308BB003B08A0003808AC319A248D31D1
:101DA0002108CC002008CB004B08C2074C08C33DDB
:101DB0000030C43DC53D0830C235C30DC40DC50D4E
:101DC000890BDC2E3308BB003B08A0003708AC3180
:101DD0009A248D312108CC002008CB004B08C20783
:101DE0004C08C33D0030C43DC53D3408BB003B0832
:101DF000A0003908AC319A248D312108CC0020088C
:101E0000CB004B08C7074C08C83D0030C93DCA3D50
:101E10003508BB003B08A0003808AC319A248D314E
:101E20002108CC002008CB004B08C7074C08C83D50
:101E30000030C93DCA3D3508BB003B08A000390849
:101E4000AC319A248D312108CC002008CB004B08FE
:101E5000BB004C08BC00BD01BE010830BB35BC0D49
:101E6000BD0DBE0D890B2E2F3B08C7073C08C83D92
:101E70003D08C93D3E08CA3D4508BB00BC01BD0147
:101E8000BE013B08C7073C08C83D3D08C93D3E08A8
:101E9000CA3D0830C235C30DC40DC50D890B4A2F8C
:101EA00046084107BB00BC01BC0D3B08823ECB008D
:101EB000FF303C3DCC00C91B722F0130C735C80D27
:101EC000C90DCA0D890B5E2FC51B47140130C235E1
:101ED000C30DC40DC50D890B672FFF30CB07FF3035
:101EE000CC3D5B2FC101C51F8B2FFF304205BB00CE
:101EF000FF304305BC00FF304405BD007F30450581
:101F0000BE003E083D043C043B0403194718892FDA
:101F10008B2FC101C10A41080319B42F0130C70733
:101F20000030C83D0030C93D0030CA3D4A1CB42FC6
:101F30004708BB004808BC004908BD004A08BE006D
:101F40000130BF00BE37BD0CBC0CBB0CBF0BA22FB9
:101F50003E08CA003D08C9003C08C8003B08C7004D
:101F60000130CB070030CC3D4C08803ABB008030BC
:101F70003B02031DBD2FFF304B02031CC92F7F30D6
:101F80002000CA008030C9000030C8000030C700FF
:101F9000F32F20004C08803ABB0080303B02031D29
:101FA000D32F01304B020318E02F00302000CA006D
:101FB0000030C9000030C8000030C700C001F32F56
:101FC00020004B08BB003B08C600FF30C705FF30B0
:101FD000C8057F30C9050030CA054618C9174636FE
:101FE000BB003B08CA004008BB003B08CA044A08C3
:101FF000B6004908B5004808B4004708B300080017
:1020000021082300920020002008230091001513CE
:10201000151400000000230014082000A100230074
:1020200013082000A00008001030E1006108E7005C
:10203000FE305C065D04031D36281030A000003021
:10204000A10022003F082000E100E2016108A20097
:102050006208A300AC31262490318030E3002008D0
:102060006302DC0021090318890ADD005C0A5D04B3
:10207000031D5E280230A6000030A7001030A0002B
:102080000030A10022003F082000E100E2016108C9
:10209000A2006208A300AC31262490318030E30016
:1020A00020086302A80021090318890AA900AF319A
:1020B0005B2790312708DD002608DC00E80167086F
:1020C00068020318080022003F08FC3E2000A00020
:1020D000FF3003180030A10068080F39E100E20169
:1020E0006108A2006208A300AC31262490315C088C
:1020F0002007E5005D08213DE6006608BD00650893
:10210000BC006808E1000430E136890B84286108CE
:10211000E200E301E20EE30EF030E30562080F395E
:10212000E304F030E2055E086207BE005F08633D2D
:10213000BF0060088600013087000108E4006408E1
:10214000C0009E311126903101302000E10061086D
:10215000E0070130E1006108E8075F288230A30052
:10216000B030A4005630AD31672590310030D80032
:10217000D900AB312E23903122000C1022008C109C
:10218000402E2000A201A20AA301A30AEE30AD3125
:10219000912590317D302100A300B030A40056304D
:1021A000AD31672590314E302100A300B030A4003E
:1021B0000A30B00030082000A00021006E08AC31C9
:1021C000F92490312100B100B2013108A500320894
:1021D000A6000A30B30033082000A00021006E08DA
:1021E000AC31B92490312100B400B5013408A70006
:1021F0003508A800C030AD316725903121006E0848
:10220000B000B101B201B30133082000A8002100E1
:1022100032082000A700210031082000A60021007C
:1022200030082000A5000130A331A52390312808F3
:10223000BA002708B9002608B8002508B7004130C1
:10224000B6000230B500F130B400AA30B3008D31D1
:10225000E82590313608D0003508CF003408CE008C
:102260003308CD00A1314B2190314E08D9004D08E3
:10227000D800AB312E2390313F302000D000EC301D
:10228000CF00CC30CE00CD30CD004130B600203074
:10229000B5000030B4000030B30021006E08B0007B
:1022A000B101B201B30133082000A80021003208B7
:1022B0002000A700210031082000A60021003008DE
:1022C0002000A5000030A331A52390312808BA00D2
:1022D0002708B9002608B8002508B7009831D12092
:1022E00090313608D4003508D3003408D2003308C2
:1022F000D100A23198229031031C872A22000C10B1
:102300000A302100B00030082000A00021006E0833
:10231000AC31F92490312100B100B201B301B40114
:1023200034082000A800210033082000A700210065
:1023300032082000A600210031082000A50001304D
:10234000A331A52390312808D0002708CF00260804
:10235000CE002508CD004030D4000030D30000303E
:10236000D2000030D100A23198229031031CBE2847
:1023700022008C14402E0330B00030082000A20050
:10238000A301A30AEE30AD31912590313830210000
:10239000A300B030A4005630AD31672590314E30E7
:1023A0002100A300B030A4000A30B00030082000A3
:1023B000A00021006E08AC31F92490312100B10059
:1023C000B2013108A5003208A6000A30B300330874
:1023D0002000A00021006E08AC31B924903121000A
:1023E000B400B5013408A7003508A800C030AD31ED
:1023F000672590310D1EFE298C1D4E2D7530210054
:10240000A300B030A400E030AD3167259031210049
:102410006E08B000B101B201B30133082000A8007A
:10242000210032082000A700210031082000A6006A
:10243000210030082000A5000130A331A5239031F0
:102440002808BA002708B9002608B8002508B700F0
:102450004130B6000230B500F130B400AA30B3000C
:102460008D31E82590313608D0003508CF0034088A
:10247000CE003308CD00A1314B2190314E08D90058
:102480004D08D800AB312E2390313F302000D000D2
:10249000EC30CF00CC30CE00CD30CD004130B60096
:1024A0002030B5000030B4000030B30021006E08C9
:1024B000B000B101B201B30133082000A80021002F
:1024C00032082000A700210031082000A6002100CA
:1024D00030082000A5000030A331A5239031280842
:1024E000BA002708B9002608B8002508B7009831B7
:1024F000D12090313608D4003508D3003408D200FA
:102500003308D100A2319822903103187E2922008D
:102510000C14802929000E082100B000B101290007
:102520000F082100B200B3013208B300B201300835
:1025300032072000A50021003108333D2000A6000D
:10254000A701A8010030A331A5239031280822005B
:10255000C700200027082200C6002000260822000D
:10256000C500200025082200C400003021005002D0
:10257000313003194F020318DE2A5008B1004F080A
:10258000B000B035B10DB035B10D2830B2002730F4
:10259000B3003008320786003108333D870022003F
:1025A0004408C03F4508C13F4608C23F4708C33FF3
:1025B00001302100CF070030D03DFC2A5008B10087
:1025C0004F08B000B035B10DB035B10D2830B200B4
:1025D0002730B3003008320786003108333D8700CA
:1025E00022004408C03F4508C13F4608C23F470893
:1025F000C33F2100CF01D0010030CA000030C90024
:102600000030C8000030C700C301C40100304402DC
:1026100032300319430203187F2B4408B1004308EA
:10262000B000B035B10DB035B10D2830B200273053
:10263000B3003008320786003108333D8700403F41
:102640002000A000413FA100423FA200433FA30061
:1026500021004A082000A700210049082000A60008
:10266000210048082000A500210047082000A40000
:102670009A314A22903123082100CA002000220802
:102680002100C900200021082100C80020002008E6
:102690002100C700313043064404031D7A2B423029
:1026A0002000B6004830B5000030B4000030B30060
:1026B00021004A082000BA00210049082000B90082
:1026C000210048082000B800210047082000B7007A
:1026D0009831D120903136082100CA0020003508F9
:1026E0002100C900200034082100C8002000330860
:1026F0002100C7000130C3070030C43D062B4A0843
:102700002000BA00210049082000B9002100480833
:102710002000B800210047082000B7003C30B60078
:102720004830B5000030B4000030B3008D31E825EA
:1027300090313608D0003508CF003408CE00330879
:10274000CD00A1314B2190314E082100BB0020006B
:102750004D082100BA004A082000BA0021004908AB
:102760002000B900210048082000B80021004708D7
:102770002000B7003C30B6004830B5000030B4004F
:102780000030B3008D31E825903136082100B900C2
:10279000200035082100B800200034082100B700CF
:1027A000200033082100B60000302000DB0000309C
:1027B000DA000030D9000A30D800210039082000A2
:1027C000BA00210038082000B90021003708200095
:1027D000B800210036082000B7004130B600203094
:1027E000B5000030B4000030B3008D31E8259031E1
:1027F0003608D0003508CF003408CE003308CD00AD
:10280000A1314B2190315008DF004F08DE004E0807
:10281000DD004D08DC00A031022090315908210074
:10282000BD00200058082100BC002030A300B030BB
:10283000A4005630AD316725903186302100A300C9
:10284000B030A400D030AD3167259031210054085C
:10285000031D3D2CD401D40A2C30A300B030A400B9
:102860003B08A6003A08A5003D08A8003C08A700C0
:10287000C030AD31672590315E2CC501C6014608D8
:10288000803AB00080303002031D482C10304502E1
:1028900003185E2C21004508A03E86000130870009
:1028A0000108B0004508C03E8600013087003008AE
:1028B00081000130C5070030C63D3F2C20000D1EB1
:1028C000632C8C1D4E2D75302100A300B030A40068
:1028D000E030AD3167259031220047082000D0005C
:1028E000220046082000CF00220045082000CE002C
:1028F000220044082000CD00A1314B2190314E0828
:10290000D9004D08D800AB312E2390313F30200044
:10291000D000F330CF003330CE003330CD003C3028
:10292000B6004830B5000030B4000030B3002100DC
:102930004A082000BA00210049082000B9002100FF
:1029400048082000B800210047082000B7008D315A
:10295000E82590313608D4003508D3003408D20079
:102960003308D100A231982290310318BA2C2200EA
:102970000C14EC2C3C30B6004830B5000030B400EC
:102980000030B30021004A082000BA0021004908A5
:102990002000B900210048082000B80021004708A5
:1029A0002000B7008D31E82590313608D000350879
:1029B000CF003408CE003308CD003F30D400E630DD
:1029C000D3006630D2006630D100A2319822903117
:1029D0000318EC2C22000C1040302000D0000330F3
:1029E000CF003330CE003330CD003C30B60048301D
:1029F000B5000030B4000030B30021004A082000C8
:102A0000BA00210049082000B90021004808200030
:102A1000B800210047082000B7008D31E82590312B
:102A20003608D4003508D3003408D2003308D1006A
:102A3000A23198229031031CB8293C30B6004830AE
:102A4000B5000030B4000030B30021004A08200077
:102A5000BA00210049082000B900210048082000E0
:102A6000B800210047082000B7008D31E8259031DB
:102A70003608D0003508CF003408CE003308CD002A
:102A80003F30D400F930D3009930D2009A30D100D1
:102A9000A23198229031031CBE28402E64302100C0
:102AA000A300B030A400E030B3280230B0003008FA
:102AB0002000A200A301A30AED30AD319125903191
:102AC00043302100A300B030A4005630AD3167255B
:102AD00090314E302100A300B030A4000A30B00085
:102AE00030082000A00021006D08AC31F92490319D
:102AF0002100B100B2013108A5003208A6000A3059
:102B0000B30033082000A00021006D08AC31B924C7
:102B100090312100B400B5013408A7003508A800A1
:102B2000C030AD316725903121006D08B000B10192
:102B3000B201B30133082000A800210032082000B0
:102B4000A700210031082000A60021003008200045
:102B5000A5000130A331A52390312808BA00270829
:102B6000B9002608B8002508B7004130B600023089
:102B7000B500F130B400AA30B3008D31E8259031B2
:102B80003608D0003508CF003408CE003308CD0019
:102B9000A1314B2190314E08D9004D08D800AB31FE
:102BA0002E2390313F302000D000EC30CF00CC30CD
:102BB000CE00CD30CD004130B6002030B500003021
:102BC000B4000030B30021006D08B000B101B201C3
:102BD000B30133082000A800210032082000A7001C
:102BE000210031082000A600210030082000A500A7
:102BF0000030A331A52390312808BA002708B90076
:102C00002608B8002508B7009831D1209031360841
:102C1000D4003508D3003408D2003308D100A231E3
:102C2000982290310318172E22000C14192E22001E
:102C30000C100A302100B00030082000A000210054
:102C40006D0888295930A300B030B12821006008F0
:102C5000B000B1013108003A03192F2E222E30089E
:102C6000003A0319C128013A0319AE28033A03199F
:102C7000BB29013A03198A2A073A0319552D222E36
:102C80002100610862040319472EFF30482E0030EE
:102C9000AB3123239031A4313A2490312100C20179
:102CA000C20A0530420203185F2E4208A2312022D8
:102CB000903101302100B0003008C207512ED501FB
:102CC00020008D18712E01302100B0003008D5078A
:102CD0006B086C040319762EFF30EB07FF30EC3DD8
:102CE000762E01302100EB000030EC0020000D19A1
:102CF000872E01302100B0003008D50769086A042A
:102D000003198C2EFF30E907FF30EA3D8C2E01308D
:102D10002100E9000030EA0020000D189D2E01304E
:102D20002100B0003008D507670868040319A22EF7
:102D3000FF30E707FF30E83DA22E01302100E70019
:102D40000030E8005503031D992F22005408550454
:102D50000319AF2EFF30D407FF30D53D9E2FE23050
:102D60002100E1000430E2006B086C04031D082F11
:102D700020008D1A0D1D082F210051085204031D3B
:102D8000082F043053020318CD2E0130B000300854
:102D9000D3073230D1000030D2005B080319E12E96
:102DA00064306D020318082F0130B0003008ED07C1
:102DB000ED30B00030082000A600A701A70A0230BD
:102DC000052F64306E020318082F6008031DF52ECE
:102DD0000130B0003008EE07EE30B00030082000BF
:102DE000A600A701A70A0130052F02306006031DC7
:102DF000082F0130B0003008EE07EE30B000300888
:102E00002000A600A701A70A0330A031442090317A
:102E1000210069086A04031D552F20008D1A8D1C9E
:102E2000552F210051085204031D552F0430530221
:102E30000318222F0130B0003008D3073230D10000
:102E40000030D2005B080319332F6D080319552F8A
:102E50000130ED02ED30B00030082000A600A701DF
:102E6000A70A0230522F6E080319552F6008031D60
:102E7000442F0130EE02EE30B00030082000A600F2
:102E8000A701A70A0130522F02306006031D552FFB
:102E90000130EE02EE30B00030082000A600A7019D
:102EA000A70A0330A031442090312100670868044C
:102EB000031D9E2F5C08031D9E2FDC01DC0A5B08AE
:102EC0000319652FE301E4019E2F20008D180D1DCD
:102ED0009E2F043021006006031D772FDB012000A8
:102EE000A201A301A30AE030AD3191259031033056
:102EF0002100600203188C2F0130B0003008E00779
:102F0000E030B00030082000A600A701A70A00307A
:102F1000A031442090319E2FE001E030B000300815
:102F20002000A600A701A70A0030A031442090315C
:102F30009E2F01302200D4000030D500210054081B
:102F40000319A42F0130D40263086404031DB12FB8
:102F5000DB012000A201A301A30AE030AD319125DD
:102F60009031210065086604031DFE2FDB01E3019B
:102F7000E401D9010530B0003008E0003230B00083
:102F80003008EE006430B0003008ED000030220060
:102F9000C7000030C6000030C5000030C400E0307B
:102FA0002100B00030082000A600A701A70A0030C9
:102FB000A03144209031EE302100B00030082000D4
:102FC000A600A701A70A0130A03144209031EE30BD
:102FD0002100B00030082000A600A701A70A033096
:102FE000A03144209031ED302100B00030082000A5
:102FF000A600A701A70A0230A03144209C319B2CD7
:1030000008002000E800590886008701403FDB00E7
:10301000413FDC005B0884005C0885001200253A13
:10302000031DAE2859088600870101308107413110
:103030000318810A2200CA01CB012100CD01CE0173
:10304000FF30CB00FF30CC002000590886008701FC
:10305000403FDB00413FDC005B0884005C088500EA
:103060001200643A03194328590886008701403F3B
:10307000DB00413FDC005B0884005C088500120037
:10308000693A031D7C2859088600870101308107B1
:1030900041310318810A5A0886008701010884001B
:1030A000850102308107003FDB00013FDC005B0847
:1030B000E0005C08E100890D893B8909E200E3003A
:1030C000E400E500E600E7006008BB006108BC0022
:1030D0006208BD006308BE006408BF006508C00048
:1030E0006608C1006708C2006808A631B3263C081C
:1030F000DA003B08D9000800590886008701403FE4
:10310000DB00413FDC005B0884005C0885001200A6
:10311000253A031DA328590886008701013081073D
:1031200041310318810A2530A0000030A100680851
:10313000DB005B08A200AE31762601302000D9000A
:103140000030DA0008005908860087010130810745
:1031500041310318810AD901DA01080059088600B3
:103160008701403FDB00413FDC005B0884005C08D6
:1031700085000008DD00DE015D08A0005E08A100FA
:103180006808DF005F08A200AE3176269831200083
:103190005908860087010130810741310318810AEF
:1031A0009D283A088039BB003B08C4003A35BB0073
:1031B0003B08CB00B91B4B144B080319ED284B0AF5
:1031C000031DEA280030BA000030B9000030B80012
:1031D0000030B700B917BA01F5280030BA00003046
:1031E000B9000030B8000030B70036088039BB00A5
:1031F0003B08C4063635BB003B08CC00B51B4C145D
:103200004C08031911294C0A031D0E290030B60081
:103210000030B5000030B4000030B300B517B6017F
:1032200019290030B6000030B5000030B40000307D
:10323000B3003608350434043304031D3829003044
:10324000BA000030B9000030B8000030B70080305C
:10325000B9047F30BA044408BB003B08BA043A08FA
:10326000B6003908B5003808B4003708B3000800C4
:103270004B08031D44290030B6000030B500003073
:10328000B4000030B30008004B08BB00BC013C0890
:10329000BE004C083B02BD00031CBE033D087F3E40
:1032A000C50000303E3DC6003A08C3003908C200E0
:1032B0003808C1003708C0000030BA000030B9003B
:1032C0000030B8000030B7000030CA000030C9003C
:1032D0000030C8000030C700CC011A304C0203187F
:1032E000A9294C0803198B290130C035C10DC20D25
:1032F000C30D890B75290130B735B80DB90DBA0D5D
:10330000890B7C29CA1B37140130C735C80DC90D7C
:10331000CA0D890B852936084302031D99293508F2
:103320004202031D992934084102031D99293308DB
:103330004002031CA4294A173308C0023408C13BC9
:103340003508C23B3608C33B0130BB003B08CC0705
:103350006D294308420441044004031D4714B91B6E
:10336000C6290130B735B80DB90DBA0D890BB22990
:10337000CA1B37140130C735C80DC90DCA0D890BDA
:10338000BB29FF30C507FF30C63DAF29CC01CA1F9E
:10339000DF29FF304705BB00FF304805BC00FF3088
:1033A0004905BD007F304A05BE003E083D043C048F
:1033B0003B0403193718DD29DF29CC01CC0A4C085E
:1033C0000319082A0130B7070030B83D0030B93D75
:1033D0000030BA3D3A1C082A3708BB003808BC0048
:1033E0003908BD003A08BE000130BF00BE37BD0C31
:1033F000BC0CBB0CBF0BF6293E08BA003D08B90057
:103400003C08B8003B08B7000130C5070030C63D96
:103410004608803ABB0080303B02031D112AFF3072
:103420004502031C202AFF302000C5000030C600E2
:103430000030BA000030B9000030B8000030B700EA
:1034400020004608803ABB0080303B02031D2A2A38
:10345000013045020318382A2000C501C60100309A
:10346000BA000030B9000030B8000030B700C40125
:1034700020004508BB003B08CB004B1C412AB91774
:10348000452A7F30BB003B08B9054B36BB003B08E3
:10349000BA002B2923088039A8002808B00023355A
:1034A000A8002808B200A21B321432080319662AA9
:1034B000320A031D632A0030A3000030A20000304E
:1034C000A1000030A000A217A3016E2A0030A300C3
:1034D0000030A2000030A1000030A0002708803991
:1034E000A8002808B10031083006031D3017273521
:1034F000A8002808B100A61B3114310803198E2A30
:10350000310A031D8B2A0030A7000030A6000030CE
:10351000A5000030A400A617A701962A0030A70036
:103520000030A6000030A5000030A40032083102AF
:103530000318DC2A301FA02A8030A8002808B00613
:103540003208A8002808B3003108A8002808B200F3
:103550003308A8002808B1002008A8002808B300F4
:103560002408A8002808A0003308A8002808A40000
:103570002108A8002808B3002508A8002808A100F1
:103580003308A8002808A5002208A8002808B300CE
:103590002608A8002808A2003308A8002808A600CA
:1035A0002308A8002808B3002708A8002808A300BB
:1035B0003308A8002808A700B3013108A800A90112
:1035C0002908AB0032082802AA00031CAB032B0811
:1035D000803AAC0080302C02031DF02A1A302A02F7
:1035E000031C242B20002308220421042004031997
:1035F000FB2A0130FC2A0030A8002808B300003064
:10360000A3000030A2000030A1000030A00031086B
:10361000A8002808B200292B331C142B333601389C
:10362000A8002808B300162B0310B30C2018B317FA
:103630000130A800A337A20CA10CA00CA80B1A2BD8
:103640000130A8002808B207200031083202031C0C
:103650000C2B301B5A2B3208031D372B0030A300D4
:103660000030A2000030A1000030A00008002408B3
:10367000A0072508A13D2608A23D2708A33D231C3D
:10368000D42B331C492B33360138A8002808B3004B
:103690004B2B0310B30C2018B3170130A800A3372D
:1036A000A20CA10CA00CA80B4F2B0130A8002808DD
:1036B000B207D42B2308803AA8002708803A2802B2
:1036C000031D6C2B26082202031D6C2B25082102EA
:1036D000031D6C2B240820020318A42BFF30A80024
:1036E000FF30A900FF30AA00FF30AB002008240201
:1036F000AC002108253BAD002208263BAE00230884
:10370000273BAF002C08A8072D08A93D2E08AA3D8D
:103710002F08AB3D2B08A3002A08A2002908A1000E
:103720002808A0008030A8002808B006B309B30A12
:103730003308031DAC2B0130A0070030A13D003041
:10374000A23D0030A33DAC2B2408A0022508A13BDC
:103750002608A23B2708A33B2308220421042004B7
:10376000031DD22B3308031DD22B0030A3000030E1
:10377000A2000030A1000030A00008000130A035F8
:10378000A10DA20DA30D890BBF2BB31B2014331C5D
:10379000CB2B0314CC2B0310B30D32080319D22BFF
:1037A0000130B202A21FBE2BB101B31FDF2B3308C1
:1037B0007F3903192018DD2BDF2BB101B10A310845
:1037C00003190B2C0130A0070030A13D0030A23DB1
:1037D0000030A33D231C0B2C2008A8002108A900C1
:1037E0002208AA002308AB000130AC00AB37AA0CBA
:1037F000A90CA80CAC0BF62B2B08A3002A08A200DE
:103800002908A1002808A000320A03190B2C013056
:10381000A8002808B207320A031D3208031D1B2C1A
:103820000030A3000030A2000030A1000030A00052
:1038300032080319B001321C1F2CA217232C7F3031
:10384000A8002808A2053236A8002808A300B01F47
:103850000800A3170800AB3181239C318B170B178D
:1038600005302100B1000F30B000F130890B362C4B
:10387000B00B362CB10B362C2000A201A301A30AF9
:10388000E030AD3191259C31A201A20AA301A30A27
:10389000EE30AD3191259C3102302100B00030086E
:1038A0002000A200A301A30AED30AD3191259C3187
:1038B000653021006E02031C782C3230B0003008D5
:1038C000EE00EE30B00030082000A600A701A70AE5
:1038D0000130A03144209C31EE302100B00030088E
:1038E0002000A600A701A70A0330A03144209C3184
:1038F000653021006D02031C8C2C6430B000300850
:10390000ED00ED30B00030082000A600A701A70AA6
:103910000230A03144209C31A33113239C31053067
:103920002100B1000F30B000F130890B952CB00BA5
:10393000952CB10B952CAA31E3229C3120008D1AD5
:10394000FE2D02302100B00030082000A200A301AB
:10395000A30AED30AD3191259C315630AC31412474
:103960009C316D302100A300B030A4005630AD3141
:1039700067259C31E030AC3141249C31D030AC31F2
:1039800041249C31C030AC3141249C314E30210067
:10399000A300B030A4000A30B00030082000A0001E
:1039A00021006D08AC31F9249C312100B100B20135
:1039B0003108A5003208A6000A30B3003308200001
:1039C000A00021006D08AC31B9249C312100B40065
:1039D000B5013408A7003508A800C030AD3167250F
:1039E0009C3121006D08B000B101B201B301330870
:1039F0002000A800210032082000A7002100310883
:103A00002000A600210030082000A5000130A331CD
:103A1000A5239C312808BA002708B9002608B80059
:103A20002508B7004130B6000230B500F130B400CF
:103A3000AA30B3008D31E8259C313608D000350816
:103A4000CF003408CE003308CD00A1314B219C318A
:103A50004E08D9004D08D800AB312E239C313F30A1
:103A60002000D000EC30CF00CC30CE00CD30CD00E7
:103A70004130B6002030B5000030B4000030B30053
:103A800021006D08B000B101B201B301330820007C
:103A9000A800210032082000A700210031082000E2
:103AA000A600210030082000A5000030A331A52386
:103AB0009C312808BA002708B9002608B800250854
:103AC000B7009831D1209C313608D4003508D30096
:103AD0003408D2003308D100A23198229C31031857
:103AE000742D22000C14762D22000C100A302100B7
:103AF000B00030082000A00021006D08AC31F9248E
:103B00009C312100B100B201B301B401340820009E
:103B1000A800210033082000A7002100320820005F
:103B2000A600210031082000A5000130A331A52303
:103B30009C312808D0002708CF002608CE00250891
:103B4000CD004030D4000030D3000030D20000302F
:103B5000D100A23198229C31031CB12D22008C147B
:103B6000B32D22008C10A4313A249C310130210065
:103B7000C0000030C1004108803AB00080303002FF
:103B8000031DC42D053040020318D12D210040082B
:103B9000A23120229C3101302100C0070030C13DFC
:103BA000BB2D2100BE01BF0120008D1AFE2D21007A
:103BB0003E083F040319E12D0130BE020030BF3B37
:103BC000E52DE830BE000330BF0001303F02F53084
:103BD00003193E02031CEF2D22000C13F12D2200CD
:103BE0000C170B302100B0006230890BF52DB00BA3
:103BF000F52D0000AA31E3229C31D42D22000C17B0
:103C00005630AC3141249C31E030AC3141249C3100
:103C1000D030AC3141249C31C030AC31412496319C
:103C2000262ED701D801D901DA01C901CA01220023
:103C300040080739031D292F3F082000C100C20199
:103C40004108A0004208A100220040082000C30053
:103C50000330C336890B292E4308C400C50144082C
:103C6000A2004508A300AC3126249E312108CE00D5
:103C70002008CD002200410820004002A000A10140
:103C8000031CA1034E08A3004D08A200AC3126245A
:103C90009E312008043ED1000030213DD200D701E2
:103CA000D801220040082000C1000330C136890B32
:103CB000562E4108C200C30143085802031D622E5C
:103CC00042085702031808000230D9000030DA0019
:103CD00022003F08FE3E2000C100FF3003180030E4
:103CE000C20042085A02031D772E410859020318E8
:103CF000242F22003F082000C100C2014108A0007B
:103D00004208A1005808A3005708A200AC3126249D
:103D10009E31200822003D072000C3002108220018
:103D20003E3D2000C40051084307C5005208443DF1
:103D3000C60045085907840046085A3D850000081A
:103D4000C700C8014708C9004808CA00DB010130A4
:103D5000C1000030C2005B0AAF2EC135C20D890B15
:103D6000AD2E49084105C3004A084205C400430876
:103D700044040319E82E22004308031DEC2E200002
:103D800059083C07C1005A083D3DC2004108FE3EAB
:103D9000AF00FF30423DB0005B08C300C4015808CB
:103DA000C6005708C500C535C60DC535C60DC53595
:103DB000C60D43084507C7004408463DC8003E08F5
:103DC0004707B1003F08483DB200B301B30A132FC3
:103DD00022004308031DBF2E200059083C07C100E4
:103DE0005A083D3DC2004108FE3EAF00FF30423D53
:103DF000B0005B08C300C4015808C6005708C500DE
:103E0000C535C60DC535C60DC535C60D43084507B4
:103E1000C7004408463DC8003E084707B1003F08B8
:103E2000483DB200B301A53105259E310130200087
:103E3000C1004108DB0708305B02031CA72E0130DC
:103E4000D9070030DA3D682E0130D7070030D83D61
:103E5000512E08302000A6000030A70022003F08A5
:103E60002000C100C2014108A0004208A1002200B8
:103E700040082000C300C4014308A2004408A30076
:103E8000AC3126249E312108A9002008A800AF31BA
:103E90005B279E312708CE002608CD00220041086E
:103EA00020004002A000A101031CA1034E08A300B2
:103EB0004D08A200AC3126249E312008043ED100DA
:103EC0000030213DD20022003D082000510784002F
:103ED00022003E082000523D85000008C100C201BA
:103EE0004108CB004208CC000730CF000030D000A2
:103EF000D301D4015408803AC10080304102031D2F
:103F0000852F22003F0820005302031808002000DC
:103F1000D501D6015608803AC10080304102031D08
:103F2000952F22004008200055020318FA2F013077
:103F30002000C1000030C2004F0AA02FC135C20DC1
:103F4000890B9E2F4B084105C3004C084205C40055
:103F5000430844040319C02F22004308031DC42F43
:103F6000200053083C07AF0054083D3DB000550801
:103F70003E07B10056083F3DB200B301B30AD22F4D
:103F800022004308031DB02F200053083C07AF0058
:103F900054083D3DB00055083E07B10056083F3D6E
:103FA000B200B301A53105259E31FF302000CF07B7
:103FB000FF30D03DD01FF52F0730CF000030D000AC
:103FC0000130D1070030D23D22003D0820005107CA
:103FD000840022003E082000523D85000008C100F8
:103FE000C2014108CB004208CC000130D5070030A7
:103FF000D63D8A2F01302000D3070030D43D7A2FE0
:10400000403008005B085A045904580403193B283F
:10401000E101E10ADB1B18280130D835D90DDA0D92
:10402000DB0D890B0D280130E0006008E1070A284C
:104030005B085F02031D26285A085E02031D26281E
:1040400059085D02031D262858085C02031C30280D
:104050005808DC025908DD3B5A08DE3B5B08DF3BB1
:104060000130DB36DA0CD90CD80C890B3128013041
:10407000E102031D18285F08DB005E08DA005D0816
:10408000D9005C08D8000800AA002A08A800A901E5
:104090000530A835A90D890B49282808803EAB00BA
:1040A0003F30293DAC0021302702031808000430BE
:1040B0002A02031808002C08A1002B08A000AC312C
:1040C0000C24A03102302702031C84282C08A100F4
:1040D0002B08A0002608860087010108A800A90176
:1040E0002808A2002908A300A401A40AAD31402594
:1040F000A0310130A8002808A6070130AB07003026
:10410000AC3D0130A70262282C08A1002B08A000BA
:104110002608860087010108A800A9012808A20036
:104120002908A300A401AD3140252300150808008B
:104130002000A4012130AB316C23A0310030AB3121
:104140006C23A0317F30AB316C23A0312230AB31F6
:104150006C23A0310030AB316C23A0310730AB3180
:104160006C23A031AA31DE22A03178308C31E824D2
:10417000A03140308C31E824A0312000A501A601F7
:10418000A4012830A2002630A300250822078600BB
:104190002608233D870001088C31E824A031013036
:1041A0002000A5070030A63D0130A2002208A40788
:1041B00010302402031CC1280130A5020030A63BA8
:1041C0000130A5070030A63D043026020030031957
:1041D0002502031CC028AA31D9220800A4002435D6
:1041E000FE3EA2002208A5002130AB316C23A03195
:1041F0000030AB316C23A0317F30AB316C23A03168
:104200002230AB316C23A03120002508AB316C2368
:10421000A03120002508013EAB316C23A031AA312A
:10422000DE22A03178308C31E824A03140308C314E
:10423000E824A0312000A701A801A6012830A2008F
:104240002630A3002708220786002808233D870080
:1042500001088C31E824A03101302000A70700308C
:10426000A83D0130A2002208A60710302602031C38
:104270001E290130A7020030A83B0130A7070030FB
:10428000A83D01302802003003192702031C1D2914
:10429000AA31D922080003104F0D500DD10051084A
:1042A000D7005708031D5D290030D0000030CF0033
:1042B0000030CE000030CD0008004D08D1004E087F
:1042C000D2004F08D3005008D4001F30D436D30C8E
:1042D000D20CD10C890B66295108D5005508D6009F
:1042E000CF17FF30CD05FF30CE05FF30CF050030B2
:1042F000D0059630D702D71F90295708803A973EAD
:10430000031C54290130D036CF0CCE0CCD0C890BB8
:1043100083290130D1005108D7070319A129822927
:10432000203057020318542957080319A1290130D6
:10433000CD35CE0DCF0DD00D890B98290130D70288
:104340009429560803190800CD09CE09CF09D009D0
:10435000CD0A0319CE0A0319CF0A0319D00A08009F
:10436000AE30AB316C23A131D530AB316C23A131F0
:10437000F030AB316C23A131A830AB316C23A131CB
:104380003F30AB316C23A131D330AB316C23A13141
:104390000030AB316C23A1314030AB316C23A13103
:1043A0008D30AB316C23A1311430AB316C23A13192
:1043B0002030AB316C23A1310030AB316C23A13103
:1043C000A130AB316C23A131C830AB316C23A131AA
:1043D000DA30AB316C23A1311230AB316C23A13117
:1043E0008130AB316C23A131FF30AB316C23A13173
:1043F000D930AB316C23A131F130AB316C23A13119
:10440000DB30AB316C23A1314030AB316C23A131B7
:10441000A430AB316C23A131A630AB316C23A13178
:104420002E30AB316C23A131AF30AB316C23A131D5
:1044300004302000A0008130A100AE3130260800F9
:104440002000EB00812A6F08031908000030DC000F
:10445000DD000030DE00DF005630E9006908E000D2
:1044600090311420A2316B08A031EE202000EF0122
:10447000080021005F080319080000302000DC005C
:10448000DD000030DE00DF00E030E9006908E00018
:1044900090311420A2316B08A031EE202100DF0101
:1044A000080021005E080319080000302000DC002D
:1044B000DD000030DE00DF00D030E9006908E000F8
:1044C00090311420A2316B08A031EE202100DE01D2
:1044D000080021005D080319080000302000DC00FE
:1044E000DD000030DE00DF00C030E9006908E000D8
:1044F00090311420A2316B08A031EE202100DD01A3
:1045000008006B08E900EA016A08003A0319892AE1
:10451000972A6908013A0319232A033A0319392A09
:10452000013A0319512A073A0319692A972A080000
:1045300000304D05D50000304E05D60080304F05C7
:10454000D7007F305005D80058085704560455044A
:10455000031DB22A0030D0000030CF000030CE0062
:104560000030CD0000305105D50000305205D60096
:1045700080305305D7007F305405D80058085704C1
:1045800056045504031DCC2A0030D4000030D3005B
:104590000030D2000030D100D01FE62A0030D50014
:1045A0000030D6000030D7008030D8004D08D5024A
:1045B0004E08D63B4F08D73B5008D83B5808D00090
:1045C0005708CF005608CE005508CD00D41F002B49
:1045D0000030D5000030D6000030D7008030D80041
:1045E0005108D5025208D63B5308D73B5408D83B54
:1045F0005808D4005708D3005608D2005508D100F7
:104600008030D0068030D40654085002031D0800C4
:1046100053084F02031D080052084E02031D0800F4
:1046200051084D0208000130AC317C24A331AA317D
:10463000D922A33105302000A8000F30A700F130A7
:10464000890B202BA70B202BA80B202BAE30AB31D6
:104650006C23A331D530AB316C23A331F030AB31B7
:104660006C23A331A830AB316C23A3313F30AB3185
:104670006C23A331D330AB316C23A3310030AB3189
:104680006C23A3314030AB316C23A3318D30AB317F
:104690006C23A3311430AB316C23A3312030AB3108
:1046A0006C23A3310030AB316C23A331A130AB318B
:1046B0006C23A331C830AB316C23A331DA30AB317A
:1046C0006C23A3311230AB316C23A3318130AB3179
:1046D0006C23A331FF30AB316C23A331D930AB3124
:1046E0006C23A331F130AB316C23A331DB30AB3120
:1046F0006C23A3314030AB316C23A331A430AB31F8
:104700006C23A331A630AB316C23A3312E30AB31F7
:104710006C23A331AF30AB316C23A33104302000C4
:10472000A0008130A100AE313026A3310530200039
:10473000A8000F30A700F130890B9C2BA70B9C2BF6
:10474000A80B9C2BA03198200800AD002D08031D5C
:10475000A81FBA2B2509AF002609B0002709B10010
:104760002809B200AF0A0319B00A0319B10A0319E4
:10477000B20AC22B2808B2002708B1002608B000F0
:104780002508AF002808270426042504031DD12B83
:104790000030A8000030A7000030A6000030A500BF
:1047A00008009630A9002908AE00FE303205031932
:1047B000F82B0130A9002908AE070130B236B10C40
:1047C000B00CAF0C890BDE2BD52B0130A9002908CA
:1047D000AE070130AF070030B03D0030B13D0030D2
:1047E000B23D0130B236B10CB00CAF0C890BF22BDC
:1047F000FF30320503190A2CE52B02302E02031C70
:104800000C2C0130AE020130AF35B00DB10DB20D40
:10481000890B042CB11FFD2B2E18162CFF30AF0571
:10482000FF30B0057F30B105FF30B2050310AE0C8C
:104830002E08A900AA01AB01AC011830A935AA0DB8
:10484000AB0DAC0D890B1E2C2908AF042A08B0044F
:104850002B08B1042C08B2042D08031DA81F312C0D
:10486000B2173208A8003108A7003008A6002F08A8
:10487000A50008002000A101A20120002108563E49
:104880008600013087002108B03E84000130850099
:104890000008010603195C2C2108563E86000130F1
:1048A00087000108A0002108B03E86000130870083
:1048B00020088100EF01EF0A0130A1070030A23D7E
:1048C0002208803AA00080302002031D692C10309D
:1048D0002102031C3D2C2000A301A4012000230879
:1048E000E03E8600013087002308503E84000230FD
:1048F00085000008010603198E2C2308E03E86007F
:10490000013087000108A0002308503E86000230D5
:104910008700200881002100DF01DF0A013020002C
:10492000A3070030A43D2408803AA0008030200274
:10493000031D9C2C10302302031C6E2C2000A501AB
:10494000A60120002508D03E8600013087002508FA
:10495000403E840002308500000801060319C12C86
:104960002508D03E8600013087000108A0002508F8
:10497000403E860002308700200881002100DE01D1
:10498000DE0A01302000A5070030A63D2608803A47
:10499000A00080302002031DCF2C10302502031C04
:1049A000A12C2000A701A80120002708C03E8600F6
:1049B000013087002708A03E8400013085000008F0
:1049C00001060319F42C2708C03E86000130870039
:1049D0000108A0002708A03E8600013087002008BB
:1049E00081002100DD01DD0A01302000A707003031
:1049F000A83D2808803AA00080302002031D022D27
:104A00001030270203180800D42CB01B0800803196
:104A10000220A531B4003008803AB500803035025C
:104A2000031D142D34082F02031808002000B21BA8
:104A30000800A0310020A531B4003208803AB5004A
:104A400080303502031D262D34083102031808007A
:104A5000C02D0130B40031080739890A302DB43532
:104A6000890B2F2D3408B5000830A6000030A700B0
:104A70003208A9003108A800AF315B27A53126080C
:104A8000B6002708B7000730B635B70D890B442D9F
:104A90002830B8002630B90036083807BA00370881
:104AA000393DBB002F083A07860030083B3D8700A0
:104AB0003508810408000130B40031080739890A3B
:104AC000622DB435890B612D3408FF3AB5000830EA
:104AD000A6000030A7003208A9003108A800AF31B5
:104AE0005B27A5312608B6002708B7000730B63582
:104AF000B70D890B772D2830B8002630B90036085D
:104B00003807BA003708393DBB002F083A0786003E
:104B100030083B3D87003508810508000130B400AE
:104B200031080739890A952DB435890B942D34083D
:104B3000B5000830A6000030A7003208A9003108EF
:104B4000A800AF315B27A5312608B6002708B700BB
:104B50000730B635B70D890BA92D2830B80026309F
:104B6000B90036083807BA003708393DBB002F08AE
:104B70003A07860030083B3D87003508810608006B
:104B800020003308B400B5013508003A0319C92DD7
:104B9000D42D3408003A03195B2D013A0319292D4D
:104BA000033A03198E2DD42D0800B2012830860057
:104BB00000308700473FB000B01F002E2000A8093A
:104BC000A909AA09AB09AC09AD09AE09AF09A80A40
:104BD000031DFD2DA90A031DFD2DAA0A031DFD2D90
:104BE000AB0A031DFD2DAC0A031DFD2DAD0A031DEF
:104BF000FD2DAE0A031DFD2DAF0A2000B201B20A41
:104C00002030860000308700473F2000B000B01FF2
:104C1000282E2000A009A109A209A309A409A50919
:104C2000A609A709A00A031D282EA10A031D282EE4
:104C3000A20A031D282EA30A031D282EA40A031D61
:104C4000282EA50A031D282EA60A031D282EA70A12
:104C5000200020082104220423042404250426041F
:104C600027040319802EB101B10AA71B442EA035D9
:104C7000A10DA20DA30DA40DA50DA60DA70D01302C
:104C8000B0003008B107352E27082F02031D622E11
:104C900026082E02031D622E25082D02031D622EFA
:104CA00024082C02031D622E23082B02031D622EF2
:104CB00022082A02031D622E21082902031D622EEA
:104CC00020082802031C742E2008A8022108A93BF2
:104CD0002208AA3B2308AB3B2408AC3B2508AD3B8C
:104CE0002608AE3B2708AF3BA736A60CA50CA40CA4
:104CF000A30CA20CA10CA00C0130B102031D442E88
:104D000032080319A12EA809A909AA09AB09AC09FF
:104D1000AD09AE09AF09A80A031DA12EA90A031DFA
:104D2000A12EAA0A031DA12EAB0A031DA12EAC0AB7
:104D3000031DA12EAD0A031DA12EAE0A031DA12E37
:104D4000AF0A20002808A0002908A1002A08A20014
:104D50002B08A3002C08A4002D08A5002E08A600EF
:104D60002F08A7000800C8003B08CF003C08D0006F
:104D70003D08D1003E08D2003F08D3004008D400CF
:104D80004108D5004208D6004F3086000030870029
:104D9000473FC300C31FCE2E0130CF2E003020006E
:104DA000C400C5014408CD004508CE004D084E049E
:104DB0000319F82ECF09D009D109D209D309D40992
:104DC000D509D609CF0A031DF82ED00A031DF82EE7
:104DD000D10A031DF82ED20A031DF82ED30A031D93
:104DE000F82ED40A031DF82ED50A031DF82ED60A74
:104DF0002100CC1BFF2EFD30CD05FF30CE054C0829
:104E0000803A2000C30080304302031D0A2F013086
:104E100021004B020318122F01302000C90000307E
:104E2000CA001A2F21004C082000CA0021004B089C
:104E30002000C90022004B082000CC0022004A08B4
:104E40002000CB004D084E04031D292F21004D1DCD
:104E50002E2FFF302000CB07FF30CC3D1F3020002D
:104E6000D7000030D8002400BF01C22F20004F0817
:104E70005004510452045304540455045604031DB1
:104E80005B2F4A08803AC30080304302031D4A2F3B
:104E90000130490203185B2F20004C08803AC30000
:104EA00080304302031D562F01304B02031CCE2FCE
:104EB0002100CD1CCE2FFF302000D707FF30D83D7A
:104EC0000A30A000A101A201A301A401A501A6012D
:104ED000A7014F08A8005008A9005108AA005208CD
:104EE000AB005308AC005408AD005508AE0056089E
:104EF000AF00A531D525A6312108B4002008B300A4
:104F0000AB31C423A63120003308303EC30057081C
:104F1000203E86000230870043088100FF30C90729
:104F2000FF30CA3DFF30CB07FF30CC3D0A30A00038
:104F3000A101A201A301A401A501A601A7014F0897
:104F4000A8005008A9005108AA005208AB00530855
:104F5000AC005408AD005508AE005608AF008C31C7
:104F6000F224A6312008CF002108D0002208D10069
:104F70002308D2002408D3002508D4002608D50031
:104F80002708D60020005808803AC300803043022A
:104F9000031DCC2F013057020318362F20004D0877
:104FA0004E04031DD62F21004D1DEE2FFF30200093
:104FB000D707FF30D83D4D084E04031DE12F2B309D
:104FC000E22F2D30C6000030C7004608C300570846
:104FD000203E8600023087004308810020005708E9
:104FE000203EC3004308B0004C08B2004B08B1009B
:104FF0004808AE31BD263108BC003008BB000800AF
:1055AA00253021009900080024001615161D080050
:1055BA00DB2A24001614161C0800E02A6400253091
:1055CA002100990008001419E82A161F0800AA31B8
:1055DA00D9220800F03021009B0080309C009A01FB
:1055EA009D01080021082200E7002000200822006F
:1055FA00E6000800230055309600AA30960095145C
:10560A00000000000800230055309600AA309600DA
:10561A009514000000000800A0302B008E00033013
:10562A009000FF308F000D14080024009401083008
:10563A009500960127309200951208002000A200DA
:10564A008130AB316C23AB3120002208AB316C23A3
:10565A0008002B000E13200058082B008F00200092
:10566A0059082B0090000D140800CF309E00E0303E
:10567A0029009100023092008E018F01253090009E
:10568A0008006400800101310130FE020030FF3B56
:10569A007F087E0403190034472BFE0012001E0007
:1056AA000130FE020030FF3B7F087E0403190034FC
:1056BA00532BE2340434E2340434713402340134B6
:1056CA0000340134003401340034643432342000AC
:1056DA00A100AA31DE22AB3178308C31E824AB311B
:1056EA0000308C31E824AB31200021088C31E824C9
:1056FA00AB31AA31D9220800AA31D522AB31AB315C
:10570A001A23AB31AD31F825AB31AA31EF22AB31D7
:10571A00AB313A23AB31AB311123AB31AB31AD23D2
:10572A00080000308B1B0130F2008B137108230034
:10573A00920070089100151315161515AA31FF224B
:10574A00AB31230015117208031908008B170800E2
:10575A0021001708C03917389700F9302000970040
:10576A00C730A20022082100EF000B118B1600306F
:10577A002000A0000030A100AA31F7220800340856
:10578A00803AB50080303502031DCD2B013033023B
:10579A000318080020003309B5003409B600B50A19
:1057AA000319B60A3508B3003608B4000800A40085
:1057BA002408A2002208A3002408860002308700D9
:1057CA0001080319ED2B0130A2002208A407E12BDE
:1057DA0023082402A000A101A01BA1030800003491
:1057EA007D3400340034FA340034013400342E3469
:1057FA002E342E342E342E342E342E342E342E348F
:10580A002E342E342E342E342E342E3400340030DE
:10581A008B1B0130A2008B13210823009200200069
:10582A00200823009100151315161515AB3108230E
:10583A00AC312300151120002208031908008B1728
:10584A000800A401A501201C2E2C2208A407230865
:10585A00A53D0130A235A30D890B2F2C0130A136AD
:10586A00A00C890B342C20082104031D282C2508A0
:10587A00A1002408A00008002000A300A101A201A1
:10588A00200021082307A000200886000130870095
:10589A0081010130A1070030A23D2208803AA00010
:1058AA0080302002031D5B2C1030210203180800EF
:1058BA00452C00308B1B0130F5008B137108230037
:1058CA009200700891007308940072089300740C97
:1058DA00031C951203189516151315121515AA31DE
:1058EA00FF22AC317508031908008B170800200045
:1058FA00A1001830A000200821008E0420002103F6
:10590A00031D8A2C240094178F2C7F30A0002008B6
:10591A00240094052830950007309200F7302000C3
:10592A00A0002008240097050800A800A401A501EA
:10593A002008A200A3012208A6002308A700281C09
:10594A00AA2C2608A4072708A53D0130A635A70DCD
:10595A00890BAB2C0310A80C2808031DA42C2508BE
:10596A00A1002408A00008002000A3000830A1001C
:10597A002108A400A5012308A1000730A136890B3C
:10598A00C32C25352104A2002208A5000310A30D6B
:10599A0020082502031CD32C2008A5020130A402EA
:1059AA00031DC02C250808002E342E342E342E3424
:1059BA002E342E342E342E342E342E342E342E34CD
:1059CA002E342E342E3400342E342E342E342E34EB
:1059DA002E342E342E342E342E342E342E342E34AD
:1059EA002E342E342E3400342000A200A4012008C4
:1059FA000319192DA301A30AA01B0A2D0310A00D38
:105A0A000130A1002108A307012D0310A40D2008CD
:105A1A002202031C142D2008A20224140310A00C35
:105A2A000130A302031D0A2D24080800AF00AD01AE
:105A3A00AE012D082F07A900290886000230870029
:105A4A000108AA002A08AC002C08031908002C082F
:105A5A00A900AA012908A0002A08A1002808AB0069
:105A6A002B08A200AE317626AD3101302000AD07F9
:105A7A000030AE3D1E2D00308B1B0130A5008B136C
:105A8A002108230092002000200823009100200012
:105A9A0023082300940020002208230093002000FA
:105AAA00240C2300031C95120318951615131512BE
:105ABA001515AB310823AD3120002508031908005C
:105ACA008B170800AF00A5302000EE006E082100F9
:105ADA00A9002F082000EE006E082100AA00AB01E1
:105AEA00AC01AD01AE0124082000EA002100230820
:105AFA002000E900A930EE006E08EB00AA30AD31B3
:105B0A00C42521002B082F072000EE006E0886000E
:105B1A000130870081010800A8002208A400A5011D
:105B2A000530A435A50D890B962D2408803EA600C4
:105B3A003F30253DA7002130230203180800043016
:105B4A002202031808002308031908002708A100E5
:105B5A002608A00090310020AD312008A4002808B2
:105B6A0086008701240881000130A6070030A73D7E
:105B7A000130A4002408A8070130A302A82D21009F
:105B8A00A00020006A082100A20020006908210064
:105B9A00A1002200C801C9012100210884002208AD
:105BAA00850012000319EF2DA1302000EC006C08CB
:105BBA00D9006B08ED006D08DA0021002008983141
:105BCA000120AD3159082200C80720005A082200D6
:105BDA00C93DD12D220049082000EA0022004808C8
:105BEA002000E900080022008C018D018E01083096
:105BFA0021009000B8308C00FF308D00FF308E00FD
:105C0A0023008E0108308D0004308C00240090019E
:105C1A008D018C018E012100971725008C018D01C1
:105C2A008E01FF3026008C00FF308D00E7308E0099
:105C3A003F3027008C00F0308D00FF308E0014308A
:105C4A003C00BB0021303D00A3002230A4001330E9
:105C5A003C00BA00080021082200BE0020002008EB
:105C6A002200BD00200020088400210885000008C9
:105C7A00A20022082200BF0020002108A300200859
:105C8A00A20001302207840023080318230A850092
:105C9A000008A40024082200C00020002108A30054
:105CAA002008A20002302207840023080318230ACE
:105CBA0085000008A40024082200C1002000210851
:105CCA00A3002008A2000330220784002308031837
:105CDA00230A85000008A40024082200C200C30188
:105CEA0008002208031D2208031D7F2E2008983170
:105CFA00002008002208033E8600870116000104DE
:105D0A000319A22E2208033E86008701403FA30002
:105D1A00413FA400220A86008701403FA500413F77
:105D2A00A6002608803AA7002408803A2702031D05
:105D3A00A02E230825020318080020002008A3002B
:105D4A00220886008701220A8400850100080107CB
:105D5A00A400240886000130870023088100220A53
:105D6A00860087010130810741310318810A080042
:105D7A00B80021004D1CCA2E20003808B300330891
:105D8A00A8003008AD311B25AE312000B21BD22E3F
:105D9A003208B7003108B600D42EB601B701B401F3
:105DAA00B5013508803AB3003708803A3302031D3B
:105DBA00E02E360834020318F42E20302000A0000A
:105DCA000030A1003808B3003308A200AE317626AD
:105DDA00AE3101302000B4070030B53DD62E210087
:105DEA004D18002F20003808B3003308A8003008E7
:105DFA00AD311B25AE3120003008AB31DC2336082B
:105E0A002007B0003708213DB10008002E342E3497
:105E1A002E342E342E342E342E342E342E342E3468
:105E2A002E342E342E342E342E3400342E342E3486
:105E3A002E342E342E342E342E342E342E342E3448
:105E4A002E342E342E342E342E3400342E342E3466
:105E5A002E342E342E342E342E342E342E342E3428
:105E6A002E342E342E342E342E3400342E342E3446
:105E7A002E342E342E342E342E342E342E342E3408
:105E8A002E342E342E342E342E3400342E342E3426
:105E9A002E342E342E342E342E342E342E342E34E8
:105EAA002E342E342E342E342E340034AC01A71F57
:105EBA00652FA609A709A60A0319A70AAC01AC0A05
:105ECA00A91F702FA809A909A80A0319A90A01304C
:105EDA00AA002A08AC06AD01AE0126082704031958
:105EEA009F2FAB01AB0AA71B842F0130A635A70D44
:105EFA00890B7B2F0130AA002A08AB07782F0130C3
:105F0A00AD35AE0D890B852F27082902031D8F2F6A
:105F1A0026082802031C962F2608A8022708A93B50
:105F2A002D140130A736A60C890B972F0130AB022E
:105F3A00031D842F2C080319A72FAD09AE09AD0A3A
:105F4A000319AE0A2E08A7002D08A6000800FA00B9
:105F5A007A08F800F9010530F835F90D890BB12FE7
:105F6A007808803EFB003F30793DFC002130770203
:105F7A000318080004307A02031808007C08F100AC
:105F8A007B08F000AB319623AF3102307702031C55
:105F9A00EC2F7C08F1007B08F00076088600870168
:105FAA000108F800F9017808F2007908F300F40111
:105FBA00F40AAC315E24AF310130F8007808F607F4
:105FCA000130FB070030FC3D0130F702CA2F7C0884
:105FDA00F1007B08F0007608860087010108F800C6
:105FEA00F9017808F2007908F300F401AC315E2473
:105FFA00230015080800003400340034003400344B
:10600A0000340034003400340034003400340034E6
:10601A0000340034003400340034003400340034D6
:10602A0000340034003400340034003400340034C6
:10603A000034003400344134553454344F3420345D
:10604A00523445344D344F34543445340034523488
:10605A004534413444343A34253464342E342534B6
:10606A006434563400344134553454344F34203473
:10607A004C344F34433441344C340034463449347C
