:020000040000FA
:1000000080319E28803008007E1480318B1E0928A4
:100010000A289C280B1D0D280E289C280B112E0049
:1000200038080319142815281F285A085B040319D7
:100030001A281B281F28FF30DA07FF30DB3D5E0837
:100040005F04031924282528572862086304031D28
:100050002A282B28572860086104031D30283128DE
:100060005728580859040319362837285B280130C7
:10007000D8020030D93B58085904031D40284128B4
:100080005B285030DA00C330DB00B801B80A3E30DC
:10009000FD007D08F600F701F70A0030AE3170264A
:1000A00080310430FD007D082E00BE005B2810303A
:1000B000D8002730D900620863040319602861283A
:1000C000782860086104031D6628672878285E0880
:1000D0005F04031D6C286D2878285C085D040319F3
:1000E000722873287C28FF30DC07FF30DD3D7C2838
:1000F000A830DC006130DD00620863040319812848
:100100008228922860086104031987288828922889
:100110005E085F0403198D288E289228AF01B00174
:10012000B101B9012F0830040319972898289C2899
:100130000130AF020030B03B7E1009008031A028B2
:1001400002308400903085005830860007308700E8
:100150000030FF001030AA3133228031AD308400EE
:10016000AB308500C3308600073087000030FF00C9
:100170002030AA31332280318D308400AB308500AD
:1001800050308600083087000030FF002030AA3150
:10019000332280310030840020308500F030FE00B2
:1001A0000330FF00AA31272280312030840007303D
:1001B00085001F30FE000030FF00AA312722803169
:1001C000A0308400073085002330FE000030FF009F
:1001D000AA31272280312030840008308500303059
:1001E000FE000030FF00AA3127228031A0308400B9
:1001F000083085003030FE000030FF00AA31272291
:1002000080317E1020009B31D12B103410342034EB
:100210005F340034003400340034003400340034DF
:10022000003400340034003400340034003400342E
:10023000003400340034003400340034003400341E
:10024000003400340034003400340034003400340E
:1002500000340034003400340034F834FC34FC340E
:10026000FC34F834003400340034003400340034FA
:1002700000340034003400340034003473347334F8
:10028000733400340034003400340034003400345B
:10029000003400340034003400341E343E343E3424
:1002A0000034003400343E343E341E340034003414
:1002B000003400340034003400340034003400349E
:1002C000003400340034003400340034003400348E
:1002D00000340034303430343034FE34FE343034C2
:1002E000303430343034FE34FE3430343034303452
:1002F000003400340C340C340C347F347F340C3430
:100300000C340C340C347F347F340C340C340C3407
:100310000034003400340034F034F8349834FE34BF
:1003200098349834FE3498349834183400340034B7
:1003300000340034003400341834193419347F3454
:10034000193419347F3419341F340F340034003415
:100350000034003400340034003438343834383455
:100360008034C034E0347034383400340034003425
:10037000003400340034003400341C340E340734AC
:10038000033401341C341C341C3400340034003475
:1003900000340034003400343834FC34C434C43401
:1003A000FC343834003400340034803400340034F9
:1003B00000340034003400341E343F3421342134FE
:1003C00033343F341E341E34373423340034003485
:1003D0000034003400340034003420343C343C34E5
:1003E0001C34003400340034003400340034003451
:1003F000003400340034003400340034003400345D
:10040000003400340034003400340034003400344C
:1004100000340034003400340034C034E034F034AC
:1004200038341C340C3404340434003400340034C4
:1004300000340034003400340034033407340F3403
:100440001C34383430342034203400340034003448
:1004500000340034003400340034043404340C34E8
:100460001C343834F034E034C03400340034003408
:10047000003400340034003400342034203430346C
:1004800038341C340F34073403340034003400345F
:10049000003400340034803488349034E034E03464
:1004A000FC34FC34E034E03490348834803400345C
:1004B0000034003400340134113409340734073473
:1004C0003F343F34073407340934113401340034E5
:1004D00000340034003400340034803480348034FC
:1004E000F034F0348034803480340034003400340C
:1004F0000034003400340034003401340134013459
:100500000F340F340134013401340034003400342A
:10051000003400340034003400340034003400343B
:10052000003400340034003400340034003400342B
:1005300000340034003400340034403478347834EB
:1005400038340034003400340034003400340034D3
:1005500000340034003400348034803480348034FB
:1005600080348034803480348034803400340034EB
:1005700000340034003400340134013401340134D7
:1005800001340134013401340134013400340034C5
:1005900000340034003400340034003400340034BB
:1005A00000340034003400340034003400340034AB
:1005B000003400340034003400340034383438342B
:1005C0003834003400340034003400340034003453
:1005D000003400340034003400340034003400347B
:1005E000003400348034C034E034703438341C3487
:1005F00000340034003400342034303438341C34B7
:100600000E34073403340134003400340034003431
:100610000034003400340034F834FC34FC34043446
:100620008434E4347434FC34FC34F834003400345E
:1006300000340034003400341F343F343F342E344F
:100640002734213420343F343F341F340034003405
:100650000034003400340034603460346034F034EA
:10066000FC34FC34003400340034003400340034F2
:1006700000340034003400342034203420343F343B
:100680003F343F34203420342034003400340034EC
:10069000003400340034003418341C341C34043466
:1006A00004348434CC34FC347834303400340034B2
:1006B0000034003400340034303438343C342E34C8
:1006C0002734233421343834383438340034003477
:1006D000003400340034003418341C341C348434A6
:1006E00084348434CC347C34783430340034003472
:1006F00000340034003400341834383438342134B1
:100700002134213433343E341E340C34003400346C
:1007100000340034003400348034C0346034303469
:100720001834FC34FC34FC3400340034003400341D
:1007300000340034003400340334033403342334ED
:1007400023343F343F343F342334233400340034E3
:100750000034003400340034FC34FC34FC34843481
:1007600084348434843484340434043400340034D1
:10077000003400340034003419343934393421342D
:100780002134213433343F341F340E3400340034E8
:100790000034003400340034E034F034F8349C3455
:1007A0008C34843484348434803400340034003411
:1007B00000340034003400341F343F343F342134DB
:1007C0002134213421343F343F341F340034003489
:1007D00000340034003400343C343C343C340434C1
:1007E0000434043404348434FC34FC347C34003465
:1007F0000034003400340034003400340034383421
:100800003C343E34073403340134003400340034C3
:10081000003400340034003478347C34FC34C43484
:10082000C43484348434FC347C347834003400346C
:1008300000340034003400341E343E343F3421345C
:100840002134233423343F343E341E340034003406
:100850000034003400340034F834FC34FC34843484
:10086000843484348434FC34FC34F834003400346C
:100870000034003400340034003401342134213495
:100880002134313439341F340F3407340034003408
:100890000034003400340034003400340034703448
:1008A00070347034003400340034003400340034C8
:1008B00000340034003400340034003400340E348A
:1008C0000E340E340034003400340034003400346C
:1008D0000034003400340034003400340034703408
:1008E0007034703400340034003400340034003488
:1008F00000340034003400340034003410341E342A
:100900001E340E340034003400340034003400341B
:1009100000340034003400348034C034E0347034A7
:1009200038341C340E3406340234003400340034BD
:1009300000340034003400340134033407340E34FE
:100940001C343834703460344034003400340034A3
:100950000034003400346034603460346034603417
:100960006034603460346034603460346034003447
:1009700000340034003406340634063406340634B9
:10098000063406340634063406340634063400349D
:100990000034003400340034023406340E341C3485
:1009A00038347034E034C0348034003400340034DF
:1009B000003400340034003440346034703438344F
:1009C0001C340E3407340334013400340034003452
:1009D000003400340034003418341C340C340E3429
:1009E00006348634CE34FC347C343834003400345D
:1009F0000034003400340034003400340034003457
:100A000073347334733400340034003400340034ED
:100A10000034003400340034FC34FE34FE3402343C
:100A20000234C234C234C234FE34FE34FC340034E6
:100A300000340034003400343F343F347F346034B9
:100A400060346334633463346334433403340034D4
:100A50000034003400340034E034F034F8341C3412
:100A60000C340C341C34F834F034E03400340034EA
:100A700000340034003400343F343F343F34023417
:100A80000234023402343F343F343F340034003403
:100A900000340034003400340434FC34FC34FC34BE
:100AA000843484348434FC34FC34783400340034AA
:100AB000003400340034003420343F343F343F34B9
:100AC0002134213421343F343F341E340034003487
:100AD0000034003400340034F034F834FC340C3486
:100AE0000434043404341C341C341834003400340A
:100AF00000340034003400340F341F343F343034B9
:100B0000203420342034383438341834003400345D
:100B100000340034003400340434FC34FC34FC343D
:100B2000043404340C34FC34F834F034003400342D
:100B3000003400340034003420343F343F343F3438
:100B40002034203430343F341F340F340034003428
:100B500000340034003400340434FC34FC34FC34FD
:100B6000843484348434C434CC341C3400340034AD
:100B7000003400340034003420343F343F343F34F8
:100B800021342134213423343334383400340034D4
:100B900000340034003400340434FC34FC34FC34BD
:100BA000843484348434C434CC341C34003400346D
:100BB000003400340034003420343F343F343F34B8
:100BC000213401340134033403340034003400345C
:100BD0000034003400340034F034F834FC340C3485
:100BE0000434043404343C343C34383400340034A9
:100BF00000340034003400340F341F343F343034B8
:100C00002034223422343E343E343E340034003426
:100C10000034003400340034FC34FC34FC348034C0
:100C200080348034FC34FC34FC3400340034003430
:100C300000340034003400343F343F343F34013456
:100C4000013401343F343F343F3400340034003445
:100C50000034003400340034003404340434FC34F0
:100C6000FC34FC34043404340034003400340034E4
:100C700000340034003400340034203420343F3455
:100C80003F343F3420342034003400340034003406
:100C900000340034003400340034003400340034B4
:100CA00004340434FC34FC34FC34043404340034A0
:100CB0000034003400341E341E343E3420342034DA
:100CC000203420343F343F341F34003400340034A7
:100CD00000340034003400340434FC34FC34FC347C
:100CE000C034E03470343C341C340C3400340034F0
:100CF000003400340034003420343F343F343F3477
:100D0000033407340E343C34383430340034003487
:100D100000340034003400340434FC34FC34FC343B
:100D2000043400340034003400340034003400341F
:100D3000003400340034003420343F343F343F3436
:100D4000203420342034303438343C3400340034FF
:100D50000034003400340034FC34FC34FC34783487
:100D6000F034E034F0347834FC34FC34FC340034B7
:100D700000340034003400343F343F343F34003416
:100D800000340134003400343F343F343F34003405
:100D90000034003400340034FC34FC34FC3470344F
:100DA000E034C03480340034FC34FC34FC3400348F
:100DB00000340034003400343F343F343F340034D6
:100DC00000340134033407343F343F343F340034BB
:100DD0000034003400340034E034F034F8341C348F
:100DE0000C340C340C341C34F834F034E03400345B
:100DF000003400340034003407340F341F343834E6
:100E000030343034303438341F340F340734003445
:100E100000340034003400340434FC34FC34FC343A
:100E2000843484348434FC34FC3478340034003426
:100E3000003400340034003420343F343F343F3435
:100E400021340134013401340134003400340034DD
:100E50000034003400340034E034F834F8341C3406
:100E60000C3404340C341C34F834F834E0340034DA
:100E7000003400340034003407341F341F34183475
:100E800018345C345E347E347F347F34473400342D
:100E900000340034003400340434FC34FC34FC34BA
:100EA000843484348434FC34FC34783400340034A6
:100EB000003400340034003420343F343F343F34B5
:100EC0000134013403343F343F343C3400340034C3
:100ED00000340034003400347834FC34FC3484347E
:100EE000843484348434BC343C34383400340034A6
:100EF00000340034003400341C343C343D3421349C
:100F00002134213421343F343F341E340034003442
:100F100000340034003400341C340C340434043401
:100F2000FC34FC34FC34043404340C341C340034FD
:100F300000340034003400340034003420342034D1
:100F40003F343F343F342034203400340034003404
:100F50000034003400340034FC34FC34FC340034FD
:100F600000340034FC34FC34FC34003400340034ED
:100F700000340034003400341F343F343F34203414
:100F8000203420343F343F341F34003400340034E4
:100F90000034003400340034FC34FC34FC340034BD
:100FA00000340034FC34FC34FC34003400340034AD
:100FB000003400340034003407340F341F34383424
:100FC000303438341F340F340734003400340034E4
:100FD0000034003400340034FC34FC34FC3400347D
:100FE0000034803400340034FC34FC34FC340034ED
:100FF000003400340034003403340F343F343C34C4
:101000003C340F343C343C343F340F34033400342C
:1010100000340034003400341C343C347C34E0347C
:10102000C034E0347C343C341C34003400340034AC
:10103000003400340034003438343C343E34073457
:10104000033407343E343C34383400340034003444
:1010500000340034003400347C34FC34FC348034FC
:1010600000348034FC34FC347C34003400340034EC
:1010700000340034003400340034203421343F3450
:101080003F343F3421342034003400340034003401
:1010900000340034003400343C341C340C34043448
:1010A0008434C434E4347C343C341C3400340034A0
:1010B000003400340034003438343C343E342734B7
:1010C000233421342034303438343C340034003478
:1010D000003400340034003400340034FC34FC3478
:1010E000FC34043404340434043400340034003454
:1010F0000034003400340034003400343F343F34D2
:101100003F34203420342034203400340034003480
:1011100000340034003400341C3438347034E0348B
:10112000C0348034003400340034003400340034DF
:10113000003400340034003400340034003400340F
:101140000134033407340E341C3418343034203462
:1011500020340034003400340034003404340434C7
:1011600004340434FC34FC34FC34003400340034E3
:10117000003400340034003400340034203420348F
:10118000203420343F343F343F34003400340034C2
:1011900000340034003400342034303438341C340B
:1011A0000E340E341C3438343034203400340034DF
:1011B000003400340034003400340034003400348F
:1011C000003400340034003400340034003400347F
:1011D000003400340034003400340034003400346F
:1011E000003400340034003400340034003400345F
:1011F00000340034C034C034C034C034C034C034CF
:10120000C034C034C034C034C034C034C034C0343E
:10121000C0340034003400340C340C343C343034EA
:1012200030340034003400340034003400340034EE
:10123000003400340034003400340034003400340E
:1012400000340034003400340034003400340034FE
:10125000003400340034003400344034403440342E
:1012600040344034C034C03480340034003400345E
:1012700000340034003400341C343E343E34223414
:10128000223422343F341F343F34203400340034BD
:1012900000340034003400340434FC34FC34FC34B6
:1012A000403440344034C034C034803400340034DE
:1012B000003400340034003420343F341F343F34D1
:1012C0002034203420343F343F341F340034003481
:1012D00000340034003400348034C034C03440342E
:1012E00040344034C034C0348034003400340034DE
:1012F00000340034003400341F343F343F34203491
:101300002034203439343934193400340034003472
:1013100000340034003400348034C034C0344034ED
:1013200040344434FC34FC34FC34043400340034A1
:1013300000340034003400341F343F343F34203450
:10134000203420343F341F343F3420340034003400
:1013500000340034003400348034C034C0344034AD
:1013600040344034C034C03480340034003400345D
:1013700000340034003400341F343F343F3422340E
:10138000223422343B343B341B34003400340034E8
:10139000003400340034003480348034F834FC34B9
:1013A000FC3484349C349C341834003400340034CD
:1013B0000034003400340034213421343F343F34CD
:1013C0003F342134213401340034003400340034FB
:1013D00000340034003400348034C034C03440342D
:1013E00040344034C0348034C0344034003400349D
:1013F00000340034003400344734CF34DF349834C0
:1014000098349834FF34FF347F340034003400348F
:1014100000340034003400340434FC34FC34FC3434
:10142000803440344034C034C0348034003400341C
:10143000003400340034003420343F343F343F342F
:101440000134003400343F343F343F34003400343E
:10145000003400340034003400344034403440342C
:10146000DC34DC34DC340034003400340034003448
:10147000003400340034003400342034203420346C
:101480003F343F343F34203420342034003400349F
:10149000003400340034003400340034003440346C
:1014A00040344034DC34DC34DC3400340034003488
:1014B000003400340034003420346034E0348034AC
:1014C0008034C034FF34FF347F34003400340034BF
:1014D00000340034003400340434FC34FC34FC3474
:1014E000003400348034C034C0344034003400341C
:1014F000003400340034003420343F343F343F346F
:10150000023407340F343D3438343034003400347E
:10151000003400340034003400340434043404341F
:10152000FC34FC34FC340034003400340034003427
:1015300000340034003400340034203420342034AB
:101540003F343F343F3420342034203400340034DE
:101550000034003400340034C034C034C03440346B
:101560004034C03440344034C034C034803400345B
:1015700000340034003400343F343F343F3400340E
:1015800000343F34003400343F343F343F340034BF
:101590000034003400340034C034C034C03440342B
:1015A00040344034C034C03480340034003400341B
:1015B00000340034003400343F343F343F340034CE
:1015C000003400343F343F343F34003400340034BE
:1015D00000340034003400348034C034C03440342B
:1015E00040344034C034C0348034003400340034DB
:1015F00000340034003400341F343F343F3420348E
:10160000203420343F343F341F340034003400345D
:1016100000340034003400344034C0348034C034EA
:10162000403440344034C034C0348034003400345A
:1016300000340034003400348034FF34FF34FF348D
:101640009034103410341F341F340F3400340034FD
:101650000034003400348034C034C034403440346A
:101660004034C0348034C03440340034003400345A
:101670000034003400340F341F341F34103410345D
:101680009034FF34FF34FF348034003400340034AD
:1016900000340034003400344034C034C034C0342A
:1016A0008034C034C034C034C0348034003400349A
:1016B000003400340034003420343F343F343F34AD
:1016C0002134003400340134013401340034003456
:1016D00000340034003400348034C034C03440342A
:1016E000403440344034C03480340034003400345A
:1016F000003400340034003419343B3423342634AD
:10170000263426343C343D3419340034003400345B
:10171000003400340034003440344034E034F034D9
:10172000F834403440344034403400340034003421
:101730000034003400340034003400341F343F34AB
:101740003F34203438343834183400340034003412
:101750000034003400340034C034C034C0340034A9
:1017600000340034C034C034C03400340034003499
:1017700000340034003400341F343F343F3420340C
:10178000203420343F341F343F34203400340034BC
:101790000034003400340034C034C034C034003469
:1017A00000340034C034C034C03400340034003459
:1017B000003400340034003407340F341F3438341C
:1017C000303438341F340F340734003400340034DC
:1017D0000034003400340034C034C034C034003429
:1017E0000034003400340034C034C034C034003419
:1017F000003400340034003407340F343F343834BC
:1018000038340E34383438343F340F34073400342D
:101810000034003400340034C034C034C0340034E8
:101820000034C034C034C0340034003400340034D8
:101830000034003400340034303439343F340F3451
:101840000F343F3439343034003400340034003441
:1018500000340034003400340034C034C034C034A8
:10186000003400340034C034C034C0340034003498
:101870000034003400340034803487348F349F3493
:10188000D834F83478343F340F340734003400341B
:101890000034003400340034C034C03440344034A8
:1018A0004034C034C034C034003400340034003418
:1018B0000034003400340034313438343C342E34B5
:1018C00027342334313438340034003400340034C5
:1018D000003400340034003480348034C034783430
:1018E0007C343C3404340434043404340034003490
:1018F00000340034003400340134013403341E3425
:101900003E343C342034203420342034003400343D
:101910000034003400340034003400340034003427
:10192000FE34FE34FE34003400340034003400341D
:101930000034003400340034003400340034003407
:101940007F347F347F34003400340034003400347A
:1019500000340034003400340434043404340434D7
:101960003C347C347834C0348034803400340034E7
:101970000034003400340034203420342034203447
:101980003C343E341E34033401340134003400341A
:1019900000340034003438343C343C3404340C34E7
:1019A0001C343834303420343C343C341C3400345F
:1019B0000034003400340034003400340034003487
:1019C0000034003400340034003400340034003477
:1019D00000344030080046302D00EE006E082E0026
:1019E000CC004308CE004208CD00CF01D001D10188
:1019F000D20145082D00EA002E0044082D00E90020
:101A00004C30EE006E08EB004D30AC3166248C316A
:101A100002304D3E860007308700403F2E004207CF
:101A20008400413F433D8500800108002F00670886
:101A3000680403191C2D1D2D222D0130E7020030F2
:101A4000E83B262DE830E7000330E800013068026B
:101A5000F53003196702031C2E2D2F2D322D220085
:101A60000C13342D22000C170B302E00D3006230E3
:101A7000890B382DD30B382D000020008D1E412DF1
:101A8000422D162D22000C17D3302D00A000073058
:101A9000A100AB31CD238D3160302D00A000083086
:101AA000A100AB31CD238D3150302D00A000083086
:101AB000A100AB31CD238D31C3302D00A000073004
:101AC000A100AB31CD238D319531E62DD330C2004D
:101AD0000730C3008230C400B030C5008C31EB2425
:101AE0008D3100302E00C600C700AA311B228D3177
:101AF00022000C1022008C109631022E2D00A20123
:101B0000A20AA301A30A6730AC31D5248D31D330AA
:101B10002E00C2000730C3007D30C400B030C500C5
:101B20008C31EB248D31C3302E00C2000730C3004E
:101B30004E30C400B030C5000A302D00A000003087
:101B4000A1002E006708D300D40153082D00A20085
:101B50002E0054082D00A300AE31CE268D312D006D
:101B600021082E00C7002D0020082E00C6000A30D4
:101B70002D00A0000030A1002E006708D500D6017E
:101B800055082D00A2002E0056082D00A300A031FC
:101B900001208D312D0021082E00C9002D002008C4
:101BA0002E00C8008C31EB248D312E006708D30045
:101BB000D401D501D60156082D00AC002E005508E1
:101BC0002D00AB002E0054082D00AA002E00530853
:101BD0002D00A9000030A1316E218D312D002C087F
:101BE000BE002B08BD002A08BC002908BB004130FC
:101BF000BA001930B900D830B8009E30B7009D3116
:101C0000A9258D312D003A08EE003908ED0038087D
:101C1000EC003708EB00A03155208D312D006C0809
:101C20002E00C7002D006B082E00C600AA311B2213
:101C30008D313F302E00C200EC30C100CC30C000EE
:101C4000CD30BF0041302D00D4002030D300003013
:101C5000D2000030D1002E006708D300D401D50196
:101C6000D60156082D00AC002E0055082D00AB0003
:101C70002E0054082D00AA002E0053082D00A900A4
:101C80000030A1316E218D312D002C08D8002B0899
:101C9000D7002A08D6002908D50098314C208D316C
:101CA0002D0054082E00C6002D0053082E00C5003C
:101CB0002D0052082E00C4002D0051082E00C30034
:101CC000A2311B228D310318662E672E6A2E220048
:101CD0000C146C2E22000C102E006708D300D401C7
:101CE00053082D00A2002E0054082D00A3000A3036
:101CF000A0000030A100AE31CE268D312D0020088D
:101D0000A9002108AA00890D893B8909AB00AC0014
:101D10000130A1316E218D312D002C082E00C20022
:101D20002D002B082E00C1002D002A082E00C00017
:101D30002D0029082E00BF004030C6000030C5002D
:101D40000030C4000030C300A2311B228D31031CBF
:101D5000AA2EAB2E7A2D22008C147C2D0330D300BA
:101D600053082D00A200A301A30A6730AC31D5248B
:101D70008D31D3302E00C2000730C3003830C4008C
:101D8000B030C5008C31EB248D31C3302E00C20041
:101D90000730C3004E30C400B030C5000A302D00FB
:101DA000A0000030A1002E006708D300D401530822
:101DB0002D00A2002E0054082D00A300AE31CE2627
:101DC0008D312D0021082E00C7002D0020082E0087
:101DD000C6000A302D00A0000030A1002E006708C8
:101DE000D500D60155082D00A2002E0056082D0062
:101DF000A300A03101208D312D0021082E00C90043
:101E00002D0020082E00C8008C31EB248D312000DD
:101E10000D1E0B2F0C2F102F8C1D0F2F102FF32F9B
:101E200060302E00C2000830C3007530C400B030EE
:101E3000C5008C31EB248D312E006708D300D4010E
:101E4000D501D60156082D00AC002E0055082D00F6
:101E5000AB002E0054082D00AA002E0053082D00C0
:101E6000A9000030A1316E218D312D002C08BE005B
:101E70002B08BD002A08BC002908BB004130BA006D
:101E80001930B900D830B8009E30B7009D31A9256F
:101E90008D312D003A08EE003908ED003808EC00CD
:101EA0003708EB00A03155208D312D006C082E0035
:101EB000C7002D006B082E00C600AA311B228D31F1
:101EC0003F302E00C200EC30C100CC30C000CD301D
:101ED000BF0041302D00D4002030D3000030D200AC
:101EE0000030D1002E006708D300D401D501D601FF
:101EF00056082D00AC002E0055082D00AB002E001A
:101F000054082D00AA002E0053082D00A90000300F
:101F1000A1316E218D312D002C08D8002B08D7005F
:101F20002A08D6002908D50098314C208D312D0083
:101F300054082E00C6002D0053082E00C5002D00A9
:101F400052082E00C4002D0051082E00C300A231FB
:101F50001B228D310318AD2FAE2FB12F22000C1490
:101F6000B32F22000C102E006708D300D4015308B1
:101F70002D00A2002E0054082D00A3000A30A0005E
:101F80000030A100AE31CE268D312D002008A900F1
:101F90002108AA00890D893B8909AB00AC000130FA
:101FA000A1316E218D312D002C082E00C2002D0094
:101FB0002B082E00C1002D002A082E00C0002D0085
:101FC00029082E00BF004030C6000030C500003098
:101FD000C4000030C300A2311B228D31031CF12F3D
:101FE000F22F7A2DAB2E60302E00C2000830C300D5
:101FF0006430C400B030C5008C31EB248D31712DBC
:102002000800103427345034C334A83461341434F3
:10201200003414340034143400341434003464347E
:1020220032342D00D101D201D301D401C301C40144
:102032002E0023080739031D1F2820284E292208B5
:102042002D00BB00BC013B08A9003C08AA000830D7
:10205200A0000030A1002E0023082D00BD00BE010B
:102062003D08A2003E08A300AE31CE2690312D00DD
:102072002108AC002008AB00AB316D2390312D005C
:102082002A08C8002908C7002E0024082D003A0299
:10209200A900AA01031CAA034808AC004708AB0028
:1020A200AB316D2390312D002908043ECB00003066
:1020B2002A3DCC00D101D20132290230D3000030B6
:1020C200D4001B292E0022082D00BB00BC013B08B6
:1020D200A9003C08AA005208AC005108AB00AB3181
:1020E2006D2390312D0029082E0020072D00BD0000
:1020F2002A082E00213D2D00BE004B083D07BF00DF
:102102004C083E3DC0003F08530784004008543D40
:1021120085000008C100C2014108C3004208C40092
:10212200D5010130BB000030BC00550A9A28BB35EE
:10213200BC0D890B982843083B05BD0044083C05AB
:10214200BE003D083E040319A728A82805292E0031
:102152002608031DAD28AE28DA282D0053083607BD
:10216200BB005408373DBC003B08FE3EA900FF30CF
:102172003C3DAA005508BD00BE015208C0005108EE
:10218200BF00BF35C00DBF35C00DBF35C00D3D0806
:102192003F07C1003E08403DC20038084107AB007E
:1021A2003908423DAC00AD01AD0AA231D8229031CE
:1021B2000C292D0053083607BB005408373DBC00DC
:1021C2003B08FE3EA900FF303C3DAA005508BD0079
:1021D200BE015208C0005108BF00BF35C00DBF3557
:1021E200C00DBF35C00D3D083F07C1003E08403D50
:1021F200C20038084107AB003908423DAC00AD01CE
:10220200A231D82290310C292E002608031D0A295A
:102212000B29AE28DA2801302D00BB003B08D50778
:1022220008305502031C1629172992280130D307BA
:102232000030D43D2E002208FE3E2D00BB00FF30B0
:1022420003180030BC003C085402031D2A293B0835
:102252005302031C2D292E2963280130D107003097
:10226200D23D0830A0000030A1002E0023082D002E
:10227200BB00BC013B08A2003C08A300AE31CE2645
:1022820090312D0021085202031D492920085102D4
:10229200031C4C294D295E28392A08302D00A00044
:1022A2000030A1002E0022082D00BB00BC013B081B
:1022B200A9003C08AA002E0023082D00BD00BE0183
:1022C2003D08AB003E08AC00AB316D2390312D00D0
:1022D2002A08A3002908A200AE31CE2690312D0093
:1022E2002108C8002008C7002E0024082D003A0249
:1022F200A900AA01031CAA034808AC004708AB00C6
:10230200AB316D2390312D002908043ECB00003003
:102312002A3DCC002E0020082D004B0784002E0001
:1023220021082D004C3D85000008BB00BC013B0884
:10233200C5003C08C6000730C9000030CA00CD0104
:10234200CE012A2A2D00CF01D001162A01302D00FC
:10235200BB000030BC00490AB029BB35BC0D890B5B
:10236200AE2945083B05BD0046083C05BE003D08B8
:102372003E040319BD29BE29E9292E002608031DA2
:10238200C329C429D7292D004D083607A9004E08B4
:10239200373DAA004F083807AB005008393DAC0062
:1023A200AD01AD0AA231D8229031F0292D004D089D
:1023B2003607A9004E08373DAA004F083807AB0080
:1023C2005008393DAC00AD01A231D8229031F0293C
:1023D2002E002608031DEE29EF29C429D729FF3034
:1023E2002D00C907FF30CA3DCA1FF829F929122A50
:1023F2000730C9000030CA000130CB070030CC3DA5
:102402002E0020082D004B0784002E0021082D00ED
:102412004C3D85000008BB00BC013B08C5003C08E0
:10242200C6000130CF070030D03D5008803ABB00D3
:1024320080303B02031D212A2E0023082D004F026B
:10244200031C242A252AA72901302D00CD0700309C
:10245200CE3D4E08803ABB0080303B02031D352A38
:102462002E0022082D004D02031C382A392AA329E6
:10247200080029000E082E00D300D40129000F08FD
:102482002E00D500D6015508D600D50153085507B0
:102492002D00A9002E005408563D2D00AA00AB01C4
:1024A200AA1BAB032B08AC000130A1316E21923183
:1024B2002D002C082E00AA002D002B082E00A900AA
:1024C2002D002A082E00A8002D0029082E00A700A2
:1024D2002A082D00BE002E0029082D00BD002E0066
:1024E20028082D00BC002E0027082D00BB0041301B
:1024F200BA002030B9000030B8000030B7009D317A
:10250200A92592312D003A08D8003908D700380899
:10251200D6003708D5004430D4007A30D3000030DA
:10252200D2000030D10098314C2092312D00540855
:10253200EE005308ED005208EC005108EB00A03108
:10254200552092312D006C082F00E4002D006B08FD
:102552002F00E30000302E00C9000030C800003018
:10256200C7000A30C6002A082D00BE002E00290826
:102572002D00BD002E0028082D00BC002E002708CB
:102582002D00BB004230BA00C830B9000030B8009C
:102592000030B7009D31A92592312D003A08D800AC
:1025A2003908D7003808D6003708D5004430D4009F
:1025B2007A30D3000030D2000030D10098314C2064
:1025C20092312D005408EE005308ED005208EC0041
:1025D2005108EB00A031552092312D006E082E00DB
:1025E200CD002D006D082E00CC002D006C082E00B1
:1025F200CB002D006B082E00CA00AD31122592319E
:102602002E0047082F00E6002E0046082F00E500A6
:10261200D3302E00C2000730C3002030C400B030D7
:10262200C5008C31EB24923150302E00C2000830AC
:10263200C3008630C400B030C5008C31EB24923127
:102642002E003208031D262B272B472B1430D300D4
:102652005308B200C330C2000730C3002C30C4009C
:10266200B030C5002F0064082E00C7002F00630899
:102672002E00C6002F0066082E00C9002F00650834
:102682002E00C8008C31EB249231722B2F00E9010D
:10269200EA016A08803A2E00D30080305302031DFB
:1026A200552B10302F006902031C582B592B5A2B23
:1026B200722B2F006908203E86000830870001082F
:1026C2002E00D3002F006908C33E86000730870022
:1026D2002E005308810001302F00E9070030EA3D47
:1026E2004A2B20000D1E762B772B7B2B8C1D7A2BF1
:1026F2007B2B9C2C60302E00C2000830C30075304A
:10270200C400B030C5008C31EB2492312E002A086F
:102712002D00EE002E0029082D00ED002E002808C5
:102722002D00EC002E0027082D00EB00A0315520D3
:1027320092312D006C082E00C7002D006B082E0070
:10274200C600AA311B2292313F302E00C200F33064
:10275200C1003330C0003330BF0042302D00D400FE
:10276200C830D3000030D2000030D1002E002A0839
:102772002D00D8002E0029082D00D7002E00280891
:102782002D00D6002E0027082D00D50098314C20B0
:1027920092312D0054082E00C6002D0053082E0041
:1027A200C5002D0052082E00C4002D0051082E0035
:1027B200C300A2311B2292310318E02BE12BE42B40
:1027C20022000C14212C42302D00D400C830D3003A
:1027D2000030D2000030D1002E002A082D00D8008F
:1027E2002E0029082D00D7002E0028082D00D60023
:1027F2002E0027082D00D50098314C2092312D0053
:1028020054082E00C2002D0053082E00C1002D00D6
:1028120052082E00C0002D0051082E00BF003F308C
:10282200C600E630C5006630C4006630C300A2317F
:102832001B22923103181E2C1F2C212C22000C105B
:1028420040302E00C2000330C1003330C0003330AC
:10285200BF0042302D00D400C830D3000030D20077
:102862000030D1002E002A082D00D8002E002908A1
:102872002D00D7002E0028082D00D6002E00270894
:102882002D00D50098314C2092312D0054082E0095
:10289200C6002D0053082E00C5002D0052082E0040
:1028A200C4002D0051082E00C300A2311B22923118
:1028B20003185C2C5D2C5F2C8E31AB2E42302D0028
:1028C200D400C830D3000030D2000030D1002E0036
:1028D2002A082D00D8002E0029082D00D7002E002E
:1028E20028082D00D6002E0027082D00D50098318B
:1028F2004C2092312D0054082E00C2002D005308A6
:102902002E00C1002D0052082E00C0002D005108DB
:102912002E00BF003F30C600F930C5009930C40018
:102922009A30C300A2311B2292310318992C9A2C9F
:10293200022E8D317A2D60302E00C2000830C30085
:102942006430C400B030C5008C31EB2492318D313B
:10295200712D0230D30053082D00A200A301A30A57
:102962006630AC31D5249231D3302E00C20007300C
:10297200C3004330C400B030C5008C31EB24923127
:10298200C3302E00C2000730C3004E30C400B03046
:10299200C5000A302D00A0000030A1002E006608FC
:1029A200D300D40153082D00A2002E0054082D009C
:1029B200A300AE31CE2692312D0021082E00C70091
:1029C2002D0020082E00C6000A302D00A000003085
:1029D200A1002E006608D500D60155082D00A200E0
:1029E2002E0056082D00A300A031012092312D00A7
:1029F20021082E00C9002D0020082E00C8008C31AD
:102A0200EB2492312E006608D300D401D501D60101
:102A120056082D00AC002E0055082D00AB002E00EC
:102A220054082D00AA002E0053082D00A9000030E2
:102A3200A1316E2192312D002C08BE002B08BD0061
:102A42002A08BC002908BB004130BA001930B9007D
:102A5200D830B8009E30B7009D31A92592312D00A3
:102A62003A08EE003908ED003808EC003708EB00B0
:102A7200A031552092312D006C082E00C7002D0088
:102A82006B082E00C600AA311B2292313F302E0065
:102A9200C200EC30C100CC30C000CD30BF004130AC
:102AA2002D00D4002030D3000030D2000030D100FD
:102AB2002E006608D300D401D501D60156082D0098
:102AC200AC002E0055082D00AB002E0054082D003E
:102AD200AA002E0053082D00A9000030A1316E215A
:102AE20092312D002C08D8002B08D7002A08D600D6
:102AF2002908D50098314C2092312D0054082E001F
:102B0200C6002D0053082E00C5002D0052082E00CD
:102B1200C4002D0051082E00C300A2311B229231A5
:102B22000318942D952D982D22000C149A2D220015
:102B32000C102E006608D300D40153082D00A20009
:102B42002E0054082D00A3000A30A0000030A1007E
:102B5200AE31CE2692312D002008A9002108AA000C
:102B6200890D893B8909AB00AC000130A1316E218E
:102B720092312D002C082E00C2002D002B082E00B1
:102B8200C1002D002A082E00C0002D0029082E00A9
:102B9200BF004030C6000030C5000030C400003025
:102BA200C300A2311B229231031CD82DD92D9A2C9D
:102BB2005D2CD330C2000730C3005930C400B0309E
:102BC200C5008C31EB249231A82C2E003E08D30094
:102BD200D4015408003A0319EF2DDA2D5308003AB4
:102BE2008D3103197E2D013A0319662D9231033A74
:102BF2000319FE2F013A03193A2A073A0319AA2C9C
:102C0200DA2D9A31002292312E00B30120008D1864
:102C12000B2E0C2E1C2E01302E00D3005308B307AE
:102C2200620863040319162E172E212EFF30E207C5
:102C3200FF30E33D212E14302E00E2000030E3008D
:102C420020000D19252E262E362E01302E00D300FF
:102C52005308B307600861040319302E312E3B2E4E
:102C6200FF30E007FF30E13D3B2E14302E00E00044
:102C72000030E10020000D183F2E402E502E013072
:102C82002E00D3005308B3075E085F0403194A2ECF
:102C92004B2E552EFF30DE07FF30DF3D552E143010
:102CA2002E00DE000030DF003303031D592E5A2EA2
:102CB200912F6408650403195F2E602E652EFF3084
:102CC200E407FF30E53D952F62086304031D6A2E79
:102CD2006B2ED52E20008D1E6F2E702ED52E0D1D23
:102CE200732E742ED52E2E002F083004031D7A2E3B
:102CF2007B2ED52E043031020318802E812E892E90
:102D02000130D3005308B107D030AF000730B00014
:102D1200380803198D2E8E2EA42E643066020318F5
:102D2200932E942ED52E0130D3005308E607663039
:102D3200D30053082D00A600A701A70A0230AF3125
:102D42002E279231D52E643067020318A92EAA2E9F
:102D5200D52E3E08031DAE2EAF2EBF2E0130D3005E
:102D62005308E7076730D30053082D00A600A701D8
:102D7200A70A0130AF312E279231D52E02303E06FE
:102D8200031DC42EC52ED52E0130D3005308E707EC
:102D92006730D30053082D00A600A701A70A03300D
:102DA200AF312E279231D52E2E0060086104031D0B
:102DB200DB2EDC2E3E2F20008D1EE02EE12E3E2F3C
:102DC2008D1CE42EE52E3E2F2E002F083004031D0D
:102DD200EB2EEC2E3E2F043031020318F12EF22E90
:102DE200FA2E0130D3005308B107D030AF000730BC
:102DF200B00038080319FE2EFF2E122F66080319A1
:102E0200032F042F3E2F0130E6026630D300530811
:102E12002D00A600A701A70A0230AF312E2792315A
:102E22003E2F67080319162F172F3E2F3E08031D4A
:102E32001B2F1C2F2A2F0130E7026730D3005308C3
:102E42002D00A600A701A70A0130AF312E2792312B
:102E52003E2F02303E06031D2F2F302F3E2F013012
:102E6200E7026730D30053082D00A600A701A70A86
:102E72000330AF312E2792313E2F2E005E085F04C1
:102E8200031D442F452F952F3908031D492F4A2F23
:102E9200952FB901B90A38080319502F512F542F11
:102EA200DA01DB01952F20008D1C582F592F952F09
:102EB2000D1D5C2F5D2F952F04302E003E06031D45
:102EC200632F642F6D2FB8012D00A201A301A30A65
:102ED2003E30AC31D524923103302E003E0203182D
:102EE200732F742F842F0130D3005308BE073E3056
:102EF200D30053082D00A600A701A70A0030AF3166
:102F02002E279231952FBE013E30D30053082D005B
:102F1200A600A701A70A0030AF312E279231952FC4
:102F22001430E4000030E5002E00320803199A2F15
:102F32009B2F9D2F0130B2025A085B04031DA22F62
:102F4200A32FAC2FB8012D00A201A301A30A3E308A
:102F5200AC31D52492312E005C085D04031DB22FE2
:102F6200B42F9C31462CB801DA01DB01B6010530E1
:102F7200D3005308BE003230D3005308E700643058
:102F8200D3005308E6000030AA000030A900003048
:102F9200A8000030A7003E30D30053082D00A60041
:102FA200A701A70A0030AF312E27923167302E00D9
:102FB200D30053082D00A600A701A70A0130AF31A4
:102FC2002E27923167302E00D30053082D00A60021
:102FD200A701A70A0330AF312E27923166302E00A7
:102FE200D30053082D00A600A701A70A0230AF3173
:0E2FF2002E279231B22F80319E288E31AE2EC6
:1030020016302100990008002D0021082E00A10091
:103012002D0020082E00A0002D0020088400210889
:1030220085000008A20022082E00A2002D0021081F
:10303200A3002008A20001302207840023080318FD
:10304200230A85000008A40024082E00A3002D00F6
:103052002108A3002008A2000230220784002308CE
:103062000318230A85000008A40024082E00A400E7
:103072002D002108A3002008A200033022078400AB
:1030820023080318230A85000008A40024082E0040
:10309200A500A60108002D0058088039D90059085A
:1030A200E2005835D9005908E900D71F59285A2893
:1030B2005B286914690803195F2860287028690A67
:1030C200031D642865286D280030D8000030D70021
:1030D2000030D6000030D500D717D801782800304C
:1030E200D8000030D7000030D6000030D500540898
:1030F2008039D9005908E2065435D9005908EA0046
:10310200D31F8428852886286A146A0803198A2806
:103112008B289B286A0A031D8F2890289828003044
:10312200D4000030D3000030D2000030D100D317D9
:10313200D401A3280030D4000030D3000030D200E4
:103142000030D1005408530452045104031DAA282C
:10315200AB28C4280030D8000030D7000030D60099
:103162000030D5008030D7047F30D8046208D900FF
:103172005908D8045808D4005708D3005608D2007A
:103182005508D100FF296908031DC828C928D2287B
:103192000030D4000030D3000030D2000030D10023
:1031A200FF296908D900DA015A08DC006A085902C5
:1031B200DB00031CDC035B087F3EE30000305C3D68
:1031C200E4005808E1005708E0005608DF005508FF
:1031D200DE000030D8000030D7000030D6000030CA
:1031E200D5000030E8000030E7000030E600003093
:1031F200E500EA013A296A080319002901291B2975
:103202000130DE35DF0DE00DE10D890B02290130C1
:10321200D535D60DD70DD80D890B0929E81F1229EE
:103222001329142955140130E535E60DE70DE80D93
:10323200890B152954086102031D292953086002CC
:10324200031D292952085F02031D292951085E0224
:10325200031C2C292D29362968175108DE02520831
:10326200DF3B5308E03B5408E13B0130D9005908E9
:10327200EA071A306A02031C3F294029FC28610828
:1032820060045F045E040319472948296129651413
:1032920061290130D535D60DD70DD80D890B4B29B3
:1032A200E81F54295529562955140130E535E60DF4
:1032B200E70DE80D890B5729FF30E307FF30E43DA6
:1032C200D71F642965294A29EA01E81F69296A2961
:1032D2008629FF306505D900FF306605DA00FF3028
:1032E2006705DB007F306805DC005C085B045A047C
:1032F200590403197D297E298129EA01EA0A8629CE
:10330200551C8429852986297E296A0803198A2958
:103312008B29B3290130D5070030D63D0030D73D87
:103322000030D83D581C96299729B3295508D90051
:103332005608DA005708DB005808DC000130DD00CF
:10334200DC37DB0CDA0CD90CDD0BA1295C08D800C8
:103352005B08D7005A08D6005908D5000130E307A8
:103362000030E43D6408803AD90080305902031DE0
:10337200BC29FF306302031CBF29C029CD29FF30BD
:103382002D00E3000030E4000030D8000030D70008
:103392000030D6000030D5002D006408803AD900F4
:1033A20080305902031DD729013063020318DA293C
:1033B200DB29E7292D00E301E4010030D8000030C9
:1033C200D7000030D6000030D500E2012D0063089E
:1033D200D9005908E900691CEF29F029F229D71709
:1033E200F6297F30D9005908D7056936D90059081E
:1033F200D8006208D9005908D804BB2808002D005B
:10340200D801E101E2012D006108D33E86000730B8
:1034120087006108403E84000830850000080106EC
:10342200031D142A152A1B2A2E003D0803191A2AE5
:103432001B2A5F2A2D005808D600D701D635D70D92
:10344200D635D70D2E002208FC3E2D00A900FF30F4
:1034520003180030AA006208AC006108AB00AB316F
:103462006D239A312D0056082902D90057082A3BAC
:10347200DA005A08B7005908B6000030B800B9009F
:103482006108D33E8600073087000108D60056083F
:10349200BA00903112209A312D006108D33E860085
:1034A200073087000108D6006108403E86000830D8
:1034B2008700560881002E00BD01BD0A2D0061085B
:1034C200D33E86000730870020300106031D6A2A9A
:1034D2006B2A6F2A0130D6005608D8070130E1075F
:1034E2000030E23D6208803AD60080305602031D69
:1034F2007C2A10306102031C7F2A802A042A2D00B4
:10350200DB01DC012D005B08603E8600083087008D
:103512005B08303E8400083085000008010603196C
:10352200932A942ACF2A2E002208FC3E2D00A900BD
:10353200FF3003180030AA005C08AC005B08AB0047
:10354200AB316D239A312D002A08DA002908D900FF
:103552005A08B7005908B6001030B8000030B90058
:103562005B08603E8600083087000108D6005608D6
:10357200BA00903112209A312D005B08603E86001D
:10358200083087000108D6005B08303E860008300C
:103592008700560881002E00BC01BC0A01302D00B4
:1035A200DB070030DC3D5C08803AD60080305602F2
:1035B200031DDD2A10305B02031CE02AE12A832A64
:1035C2002D00DD01DE012D005D08503E8600083031
:1035D20087005D08A03E84000830850000080106CF
:1035E2000319F42AF52A302B2E002208FC3E2D0066
:1035F200A900FF3003180030AA005E08AC005D0885
:10360200AB00AB316D239A312D002A08DA0029086C
:10361200D9005A08B7005908B6002030B800003067
:10362200B9005D08503E8600083087000108D600C8
:103632005608BA00903112209A312D005D08503E92
:103642008600083087000108D6005D08A03E86008B
:1036520008308700560881002E00BB01BB0A0130EA
:103662002D00DD070030DE3D5E08803AD600803056
:103672005602031D3E2B10305D02031C412B422BD0
:10368200E42A2D00DF01E0012D005F08C33E860021
:10369200073087005F08203E84000830850000085C
:1036A20001060319552B562B912B2E002208FC3EA6
:1036B2002D00A900FF3003180030AA006008AC00FA
:1036C2005F08AB00AB316D239A312D002A08DA0076
:1036D2002908D9005A08B7005908B6003030B80096
:1036E2000030B9005F08C33E86000730870001083A
:1036F200D6005608BA00903112209A312D005F0888
:10370200C33E8600073087000108D6005F08203ECE
:10371200860008308700560881002E00BA01BA0AD6
:1037220001302D00DF070030E03D6008803AD6000E
:1037320080305602031D9F2B10305F02031CA22B08
:10374200A32B452B2E003D080319A82BA92BAF2B29
:103752000030AF318F279A312E00BD013C0803198A
:10376200B32BB42BBA2B0230AF318F279A312E00F4
:10377200BC013B080319BE2BBF2BC52B0430AF3154
:103782008F279A312E00BB013A080319C92BCA2B85
:10379200D02B0630AF318F279A312E00BA010800A4
:1037A200AA3191229B318B170B1705302E00D400C2
:1037B2000F30D300F130890BDC2BD30BDC2BD40B75
:1037C200DC2B2D00A201A301A30A3E30AC31D5248B
:1037D2009B312D00A201A20AA301A30A6730AC31DA
:1037E200D5249B3102302E00D30053082D00A200B5
:1037F200A301A30A6630AC31D5249B3165302E007B
:103802006702031C052C062C212C3230D3005308EE
:10381200E7006730D30053082D00A600A701A70ACE
:103822000130AF312E279B3167302E00D300530871
:103832002D00A600A701A70A0330AF312E279B3126
:1038420065302E006602031C272C282C372C64308E
:10385200D3005308E6006630D30053082D00A600BB
:10386200A701A70A0230AF312E279B31A031DB20FE
:103872009B3105302E00D4000F30D300F130890B7C
:10388200402CD30B402CD40B402C20008D1A4A2CF8
:103892004C2C8D31422D02302E00D30053082D00C6
:1038A200A200A301A30A6630AC31D5249B31D330E8
:1038B2002D00A0000730A100AB31CD239B31D330C6
:1038C2002E00C2000730C3006D30C400B030C50006
:1038D2008C31EB249B3160302D00A0000830A10018
:1038E200AB31CD239B3150302D00A0000830A10018
:1038F200AB31CD239B31C3302D00A0000730A10096
:10390200AB31CD239B31C3302E00C2000730C30040
:103912004E30C400B030C5000A302D00A000003087
:10392200A1002E006608D300D40153082D00A20086
:103932002E0054082D00A300AE31CE269B312D005F
:1039420021082E00C7002D0020082E00C6000A30D4
:103952002D00A0000030A1002E006608D500D6017F
:1039620055082D00A2002E0056082D00A300A031FC
:1039720001209B312D0021082E00C9002D002008B6
:103982002E00C8008C31EB249B312E006608D30038
:10399200D401D501D60156082D00AC002E005508E1
:1039A2002D00AB002E0054082D00AA002E00530853
:1039B2002D00A9000030A1316E219B312D002C0871
:1039C200BE002B08BD002A08BC002908BB004130FC
:1039D200BA001930B900D830B8009E30B7009D3116
:1039E200A9259B312D003A08EE003908ED00380870
:1039F200EC003708EB00A03155209B312D006C08FC
:103A02002E00C7002D006B082E00C600AA311B2213
:103A12009B313F302E00C200EC30C100CC30C000E0
:103A2200CD30BF0041302D00D4002030D300003013
:103A3200D2000030D1002E006608D300D401D50197
:103A4200D60156082D00AC002E0055082D00AB0003
:103A52002E0054082D00AA002E0053082D00A900A4
:103A62000030A1316E219B312D002C08D8002B088B
:103A7200D7002A08D6002908D50098314C209B315E
:103A82002D0054082E00C6002D0053082E00C5003C
:103A92002D0052082E00C4002D0051082E00C30034
:103AA200A2311B229B310318572D582D5B2D22006A
:103AB2000C145D2D22000C102E006608D300D401D8
:103AC20053082D00A2002E0054082D00A3000A3036
:103AD200A0000030A100AE31CE269B312D0020087F
:103AE200A9002108AA00890D893B8909AB00AC0015
:103AF2000130A1316E219B312D002C082E00C20015
:103B02002D002B082E00C1002D002A082E00C00017
:103B12002D0029082E00BF004030C6000030C5002D
:103B22000030C4000030C300A2311B229B31031CB1
:103B32009B2D9C2D9F2D22008C14A12D22008C10D8
:103B42009A3100229B312F00E701E8018D313D2D92
:103B52002D003A088039BF003F08C4003A35BF0043
:103B62003F08CA00B91FB62DB72DB82D4A144A080E
:103B72000319BC2DBD2DCC2D4A0A031DC12DC22D0A
:103B8200CA2D0030BA000030B9000030B800003051
:103B9200B700B917D42D0030BA000030B900003098
:103BA200B8000030B7003E088039BF003F08C406A5
:103BB2003E35BF003F08C500BD1FE02DE12DE22DBF
:103BC200451445080319E62DE72DF62D450A031D78
:103BD200EB2DEC2DF42D0030BE000030BD00003086
:103BE200BC000030BB00BD17FE2D0030BE0000300F
:103BF200BD000030BC000030BB0045080319022E96
:103C0200032E082E4A08031D072E082E112E0030FF
:103C1200BA000030B9000030B8000030B700FF2F02
:103C22003708BF003F08A0003D08AB31EF239D31AC
:103C32002D002108D0002008CF004F08BF00C0018E
:103C4200C101C2014208C9004108C8004008C700BA
:103C52003F08C6005008BF00C001C101C2014208AE
:103C6200CE004108CD004008CC003F08CB00380808
:103C7200BF003F08A0003C08AB31EF239D312D006F
:103C82002108D0002008CF004F08BF00C001C101A9
:103C9200C2013F08C6074008C73D4108C83D420867
:103CA200C93D5008BF00C001C101C2013F08CB0796
:103CB2004008CC3D4108CD3D4208CE3D3908BF0009
:103CC2003F08A0003B08AB31EF239D312D002108B6
:103CD200D0002008CF004F08BF00C001C101C201BF
:103CE2003F08C6074008C73D4108C83D4208C93DD4
:103CF2005008BF00C001C101C2013F08CB07400804
:103D0200CC3D4108CD3D4208CE3D0830C635C70DF9
:103D1200C80DC90D890B872E3808BF003F08A000C7
:103D22003B08AB31EF239D312D002108D000200844
:103D3200CF004F08C6075008C73D0030C83DC93DF7
:103D42003708BF003F08A0003C08AB31EF239D318C
:103D52002D002108D0002008CF004F08C6075008C8
:103D6200C73D0030C83DC93D0830C635C70DC80D36
:103D7200C90D890BB62E3708BF003F08A0003B08CB
:103D8200AB31EF239D312D002108D0002008CF0058
:103D92004F08C6075008C73D0030C83DC93D380826
:103DA200BF003F08A0003D08AB31EF239D312D003D
:103DB2002108D0002008CF004F08CB075008CC3D87
:103DC2000030CD3DCE3D3908BF003F08A0003C0881
:103DD200AB31EF239D312D002108D0002008CF0008
:103DE2004F08CB075008CC3D0030CD3DCE3D3908C1
:103DF200BF003F08A0003D08AB31EF239D312D00ED
:103E02002108D0002008CF004F08BF005008C00092
:103E1200C101C2010830BF35C00DC10DC20D890BF1
:103E22000C2F3F08CB074008CC3D4108CD3D42084E
:103E3200CE3D4608BF004708C0004808C1004908F7
:103E4200C2001830C236C10CC00CBF0C890B232F24
:103E52003F08CB074008CC3D4108CD3D4208CE3D4E
:103E62000830C635C70DC80DC90D890B322F4A0857
:103E72004507BF00C001C00D3F08823ECF00FF30A2
:103E8200403DD0005B2F0130CB35CC0DCD0DCE0D9A
:103E9200890B452FC91F4E2F4F2F502F4B14013026
:103EA200C635C70DC80DC90D890B512FFF30CF077D
:103EB200FF30D03DCD1F5E2F5F2F442FC501C91F9C
:103EC200632F642F802FFF304605BF00FF30470568
:103ED200C000FF304805C1007F304905C2004208DA
:103EE200410440043F040319772F782F7B2FC5012B
:103EF200C50A802F4B1C7E2F7F2F802F782F4508DD
:103F02000319842F852FAD2F0130CB070030CC3D14
:103F12000030CD3D0030CE3D4E1C902F912FAD2F65
:103F22004B08BF004C08C0004D08C1004E08C2003B
:103F32000130C300C237C10CC00CBF0CC30B9B2F96
:103F42004208CE004108CD004008CC003F08CB001B
:103F52000130CF070030D03D5008803ABF0080309A
:103F62003F02031DB62FFF304F02031CB92FBA2F99
:103F7200C42F7F302D00CE008030CD000030CC0029
:103F82000030CB00F32F2D005008803ABF00803064
:103F92003F02031DCE2F01304F020318D12FD22F23
:103FA200DD2F00302D00CE000030CD000030CC00DF
:103FB2000030CB00C401F32F2D004F08BF003F0893
:103FC200CA00FF30CB05FF30CC057F30CD05003075
:103FD200CE054A1CED2FEE2FEF2FCD174A36BF002C
:103FE2003F08CE004408BF003F08CE044E08BA0086
:0E3FF2004D08B9004C08B8004B08B700080095
:104002002D00A601A31F062807280E28A209A3092E
:10401200A20A0319A30AA601A60AA11F112812289F
:104022001728A009A109A00A0319A10A200821043E
:1040320003191C281D284628A501A50A2928013094
:10404200A035A10D890B21280130A4002408A50761
:10405200A11F2C282D28202821082302031D3328E4
:1040620020082202031C362837283B282008A202F7
:104072002108A33B0130A136A00C890B3C2801305A
:10408200A502031D452846282D28260803194A287B
:104092004B285028A209A309A20A0319A30A23083C
:1040A200A1002208A000080003102D006D0D6E0D66
:1040B2002E00BF003F08C5004508031D6128622885
:1040C2006C2800302D00EE000030ED000030EC00D6
:1040D2000030EB00DA282D006B082E00BF002D0007
:1040E2006C082E00C0002D006D082E00C1002D00AE
:1040F2006E082E00C2001F30C236C10CC00CBF0CAD
:10410200890B7D283F08C3004308C4002D00ED172A
:10411200FF30EB05FF30EC05FF30ED050030EE051A
:1041220096302E00C502C51F97289828B228450848
:10413200803A973E03189E289F28A02862280130C3
:104142002D00EE36ED0CEC0CEB0C890BA1280130A6
:104152002E00BF003F08C507031DB028B128A028C4
:10416200C92820304502031CB728B828C428622871
:1041720001302D00EB35EC0DED0DEE0D890BBA285B
:1041820001302E00C5024508031DC828C928B928D8
:1041920044080319CD28CE28DA282D00EB09EC09B2
:1041A200ED09EE09EB0A0319EC0A0319ED0A0319EA
:1041B200EE0A08000130AB314D23A031A931D821DC
:1041C200A03105302D00A9000F30A800F130890B75
:1041D200E828A80BE828A90BE828AE30AA317B22F0
:1041E200A031D530AA317B22A031F030AA317B2216
:1041F200A031A830AA317B22A0313F30AA317B22E4
:10420200A031D330AA317B22A0310030AA317B22E7
:10421200A0314030AA317B22A0318D30AA317B22DD
:10422200A0311430AA317B22A0312030AA317B2266
:10423200A0310030AA317B22A031A130AA317B22E9
:10424200A031C830AA317B22A031DA30AA317B22D8
:10425200A0311230AA317B22A0318130AA317B22D7
:10426200A031CF30AA317B22A031D930AA317B22B2
:10427200A031F130AA317B22A031DB30AA317B227E
:10428200A0314030AA317B22A031A430AA317B2256
:10429200A031A630AA317B22A0312E30AA317B2256
:1042A200A031AF30AA317B22A03105302D00A00011
:1042B2008130A10098310520A03105302D00A900E0
:1042C2000F30A800F130890B6429A80B6429A90BCF
:1042D2006429AD31B825A03108002D00B1003108A4
:1042E2000319742975298929AC1F78297929892903
:1042F2002909B3002A09B4002B09B5002C09B6001C
:10430200B30A0319B40A0319B50A0319B60A9129A3
:104312002C08B6002B08B5002A08B4002908B300FF
:104322002C082B042A042904031D98299929A2295F
:104332000030AC000030AB000030AA000030A90011
:104342001A2A9630AD002D08B200B2290130AD0014
:104352002D08B2070130B636B50CB40CB30C890B7C
:10436200AC29FE303605031DB729B829A729CC2967
:104372000130AD002D08B2070130B3070030B43D63
:104382000030B53D0030B63D0130B636B50CB40C48
:10439200B30C890BC629FF303605031DD129D2295A
:1043A200B929DC290130B2020130B335B40DB50DA3
:1043B200B60D890BD629B51BDF29E029E629023083
:1043C20032020318E529E629D3293218E929EA2914
:1043D200F229FF30B305FF30B4057F30B505FF3059
:1043E200B6050310B20C3208AD00AE01AF01B00148
:1043F2001830AD35AE0DAF0DB00D890BFA292D0871
:10440200B3042E08B4042F08B5043008B6043108EA
:1044120003190C2A0D2A122AAC1F102A112A122A59
:10442200B6173608AC003508AB003408AA003308CA
:10443200A900080000302E003F052D00EB000030DF
:104442002E0040052D00EC0080302E0041052D008D
:10445200ED007F302E0042052D00EE006E086D0447
:104462006C046B04031D362A372A402A00302E00C2
:10447200C2000030C1000030C0000030BF00003078
:104482002E0043052D00EB0000302E0044052D00C8
:10449200EC0080302E0045052D00ED007F302E000F
:1044A20046052D00EE006E086D046C046B04031DBE
:1044B2005B2A5C2A652A00302E00C6000030C50047
:1044C2000030C4000030C3002E00C21F692A6A2ACD
:1044D200922A00302D00EB000030EC000030ED009D
:1044E2008030EE002E003F082D00EB022E00400827
:1044F2002D00EC3B2E0041082D00ED3B2E00420822
:104502002D00EE3B6E082E00C2002D006D082E001D
:10451200C1002D006C082E00C0002D006B082E007B
:10452200BF00C61F952A962ABE2A00302D00EB0036
:104532000030EC000030ED008030EE002E00430829
:104542002D00EB022E0044082D00EC3B2E00450806
:104552002D00ED3B2E0046082D00EE3B6E082E008E
:10456200C6002D006D082E00C5002D006C082E001F
:10457200C4002D006B082E00C3008030C2068030BC
:10458200C60646084202031DD02A45084102031D01
:10459200D02A44084002031DD02A43083F020318D0
:1045A200D32AD42AD62A0310D72A031408002D00AE
:1045B200AA1BDC2ADD2AB52B80310220A2312D0074
:1045C200AE002A08803AAF0080302F02031DEB2A8A
:1045D2002E0829020318EE2AEF2AB52B2D00AC1B58
:1045E200F32AF42AB52B8C31E924A2312D00AE0036
:1045F2002C08803AAF0080302F02031D022B2E08B8
:104602002B02031C052B062BA12BB52B0130AE0070
:104612002B080739890A0E2BAE35890B0D2B2E0874
:10462200AF000830A0000030A1002C08A3002B0826
:10463200A200AE31CE26A2312D002008B000210802
:10464200B1000730B035B10D890B232B0030B20019
:104652002030B30030083207B4003108333DB500D2
:104662002908340786002A08353D87002F0881046F
:10467200B52B0130AE002B080739890A412BAE3524
:10468200890B402B2E08FF3AAF000830A000003003
:10469200A1002C08A3002B08A200AE31CE26A23125
:1046A2002D002008B0002108B1000730B035B10D4F
:1046B200890B572B0030B2002030B300300832078C
:1046C200B4003108333DB5002908340786002A08B2
:1046D200353D87002F088105B52B0130AE002B0830
:1046E2000739890A752BAE35890B742B2E08AF005A
:1046F2000830A0000030A1002C08A3002B08A20063
:10470200AE31CE26A2312D002008B0002108B10022
:104712000730B035B10D890B8A2B0030B200203042
:10472200B30030083207B4003108333DB500290820
:10473200340786002A08353D87002F088106B52BED
:104742002D002D08AE00AF012F08003A0319AA2B45
:10475200B52B2E08003A03193A2B013A0319072BFD
:10476200033A03196E2BB52B08002D00E8005908F7
:10477200860007308700403FDB00413FDC005B08DA
:1047820084005C0885001200253A031DC92BCA2B40
:10479200782C5908860007308700013081074131A3
:1047A2000318810A2F00BF01C0012E00AD01AE0126
:1047B200FF30AB00FF30AC002D00590886000730F7
:1047C2008700403FDB00413FDC005B0884005C085F
:1047D20085001200643A0319EF2BF02B022C5908C2
:1047E200860007308700403FDB00413FDC005B086A
:1047F20084005C0885001200693A031D012C022C1A
:10480200402C59088600073087000130810741316A
:104812000318810A5A0886000730870001088400BD
:104822000730850002308107003FDB00013FDC00DA
:104832005B08E0005C08E100890D893B8909E20020
:10484200E300E400E500E600E7006008BB00610861
:10485200BC006208BD006308BE006408BF006508B2
:10486200C0006608C1006708C2006808A631902629
:10487200A3312D003C08DA003B08D9009D2C5908D1
:10488200860007308700403FDB00413FDC005B08C9
:1048920084005C0885001200253A031D512C522C1D
:1048A2006C2C59088600073087000130810741319E
:1048B2000318810A2530A0000030A1006808DB003F
:1048C2005B08A200AE311326A33101302D00D900BE
:1048D2000030DA009D2C590886000730870001302D
:1048E200810741310318810AD901DA019D2C590847
:1048F200860007308700403FDB00413FDC005B0859
:1049020084005C0885000008DD00DE015D08A0006F
:104912005E08A1006808DF005F08A200AE3113261E
:10492200A3312D0059088600073087000130810726
:1049320041310318810A662C08002D00B201A8300B
:10494200860006308700473FB000B01FA92CAA2C72
:10495200CC2C2D00A809A909AA09AB09AC09AD09FB
:10496200AE09AF09A80A031DC92CA90A031DC92C47
:10497200AA0A031DC92CAB0A031DC92CAC0A031DCC
:10498200C92CAD0A031DC92CAE0A031DC92CAF0ADE
:104992002D00B201B20AA030860006308700473FE0
:1049A2002D00B000B01FD62CD72CF62C2D00A0095C
:1049B200A109A209A309A409A509A609A709A00A90
:1049C200031DF62CA10A031DF62CA20A031DF62CC8
:1049D200A30A031DF62CA40A031DF62CA50A031D27
:1049E200F62CA60A031DF62CA70A2D002008210486
:1049F2002204230424042504260427040319022D77
:104A0200032D562DB101B10A122DA035A10DA20D13
:104A1200A30DA40DA50DA60DA70D0130B000300801
:104A2200B107A71F152D162D062D27082F02031DCE
:104A3200342D26082E02031D342D25082D02031DB8
:104A4200342D24082C02031D342D23082B02031DB0
:104A5200342D22082A02031D342D21082902031DA8
:104A6200342D20082802031C372D382D482D20080C
:104A7200A8022108A93B2208AA3B2308AB3B240831
:104A8200AC3B2508AD3B2608AE3B2708AF3BA7361B
:104A9200A60CA50CA40CA30CA20CA10CA00C01301A
:104AA200B102031D552D562D162D320803195A2D0C
:104AB2005B2D792DA809A909AA09AB09AC09AD0991
:104AC200AE09AF09A80A031D792DA90A031D792D84
:104AD200AA0A031D792DAB0A031D792DAC0A031D09
:104AE200792DAD0A031D792DAE0A031D792DAF0A6A
:104AF2002D002808A0002908A1002A08A2002B08DE
:104B0200A3002C08A4002D08A5002E08A6002F083B
:104B1200A70008002D00B201A030860006308700F1
:104B2200473FB000B01F962D972DB92D2D00A0093B
:104B3200A109A209A309A409A509A609A709A00A0E
:104B4200031DB62DA10A031DB62DA20A031DB62D03
:104B5200A30A031DB62DA40A031DB62DA50A031D23
:104B6200B62DA60A031DB62DA70A2D00B201B20A60
:104B7200A830860006308700473F2D00B000B01FE6
:104B8200C32DC42DE82D2D00A809A909AA09AB0936
:104B9200AC09AD09AE09AF09A80A031DE32DA90AA4
:104BA200031DE32DAA0A031DE32DAB0A031DE32D0A
:104BB200AC0A031DE32DAD0A031DE32DAE0A031D4E
:104BC200E32DAF0A01302D00B0003008B206B33039
:104BD20086000630870008302D00B00000301E002D
:104BE200B00BF02D20082104220423042404250400
:104BF200260427040319FE2DFF2D5B2EB101B10AF5
:104C02000E2EA035A10DA20DA30DA40DA50DA60D6E
:104C1200A70D0130B0003008B107A71F112E122EC8
:104C2200022EB335B40DB50DB60DB70DB80DB90DD5
:104C3200BA0D27082F02031D382E26082E02031D47
:104C4200382E25082D02031D382E24082C02031DA0
:104C5200382E23082B02031D382E22082A02031D98
:104C6200382E21082902031D382E20082802031C91
:104C72003B2E3C2E4D2E2008A8022108A93B2208DB
:104C8200AA3B2308AB3B2408AC3B2508AD3B2608D6
:104C9200AE3B2708AF3B3314A736A60CA50CA40CD9
:104CA200A30CA20CA10CA00C0130B102031D5A2EC0
:104CB2005B2E122E320803195F2E602E7E2EB30950
:104CC200B409B509B609B709B809B909BA09B30AE5
:104CD200031D7E2EB40A031D7E2EB50A031D7E2EF1
:104CE200B60A031D7E2EB70A031D7E2EB80A031DC7
:104CF2007E2EB90A031D7E2EBA0A2D003308A000AB
:104D02003408A1003508A2003608A3003708A40021
:104D12003808A5003908A6003A08A70008002D00A7
:104D2200C6003B08CF003C08D0003D08D1003E0839
:104D3200D2003F08D3004008D4004108D500420801
:104D4200D600CF30860006308700473FC300C31B22
:104D5200AB2EAD2E0130AE2E00302D00C400C501A9
:104D62004408CD004508CE004D084E040319BA2E62
:104D7200BB2ED92ECF09D009D109D209D309D40922
:104D8200D509D609CF0A031DD92ED00A031DD92E63
:104D9200D10A031DD92ED20A031DD92ED30A031D0F
:104DA200D92ED40A031DD92ED50A031DD92ED60A0F
:104DB2002E00AC1BDD2EDE2EE22EFD30AD05FF30C7
:104DC200AE052C08803A2D00C30080304302031D3B
:104DD200ED2E01302E002B020318F02EF12EF72EAD
:104DE20001302D00C9000030CA00FF2E2E002C0811
:104DF2002D00CA002E002B082D00C9002F004008EC
:104E02002D00CC002F003F082D00CB004D084E0492
:104E1200031D0C2F0D2F122F2E002D1D112F122FBF
:104E2200172FFF302D00CB07FF30CC3D1F302D0058
:104E3200D7000030D8003100CF01882FFF302D007D
:104E4200D707FF30D83D0A30A000A101A201A3017B
:104E5200A401A501A601A7014F08A8005008A900B6
:104E62005108AA005208AB005308AC005408AD0028
:104E72005508AE005608AF00A4319E24A6312D007D
:104E82002108B4002008B300AA31F422A6312D0073
:104E92003308303EC3005708B03E86000830870012
:104EA20043088100FF30C907FF30CA3DFF30CB07FE
:104EB200FF30CC3D0A30A000A101A201A301A40150
:104EC200A501A601A7014F08A8005008A900510892
:104ED200AA005208AB005308AC005408AD005508B4
:104EE200AE005608AF00A5318B25A6312D00200853
:104EF200CF002108D0002208D1002308D2002408C4
:104F0200D3002508D4002608D5002708D6002D0096
:104F12005808803AC30080304302031D922F0130AB
:104F22005702031C952F962FC32F2D004F085004B4
:104F3200510452045304540455045604031DA22F71
:104F4200A32F1F2F4A08803AC30080304302031D5B
:104F5200AC2F013049020318AF2FB02F1F2F2D00A5
:104F62004C08803AC30080304302031DBA2F01303F
:104F72004B02031CBD2FBE2FC32F2E00AD18C22F14
:104F8200C32F1F2F2D004D084E04031DC92FCA2FFA
:104F9200CF2F2E002D1DCE2FCF2FEC2FFF302D0027
:104FA200D707FF30D83D4D084E04031DD92FDA2F05
:104FB200DF2F2B30C7000030C800E32F2D30C70091
:104FC2000030C8004708C3005708B03E86000830CA
:104FD2008700430881002D005708B03EC3004308F4
:104FE200B0004C08B2004B08B1004608AD315F2555
:0E4FF200A6312D003108BC003008BB000800BD
:1053B000240016151619DD29DE29DA290800240033
:1053C00016141618E429E529E1290800F030210017
:1053D0009B0080309C009A019D01080023005530FD
:1053E0009600AA30960095140000000008002300E3
:1053F00055309600AA309600951400000000080071
:10540000A8302B008E0003309000FF308F000D1469
:10541000080024009401083095009601273092007E
:10542000951208002D0021082F00EC002D00200807
:105430002F00EB0008002B000E132E0046082B0057
:105440008F002E0047082B0090000D140800640008
:10545000800101310130FE020030FF3B7F087E04F5
:10546000031D282A0034FE0012001E000130FE0237
:105470000030FF3B7F087E04031D342A00342400E3
:105480001419432A442A3F2A161F472A482A4B2A1E
:10549000A931D821AA3108002D00A000200824003D
:1054A00091001418542A552A512AAA313F22AA31B0
:1054B0000800CF3021009E00D33029009100023037
:1054C00092008E018F012530900008002D002108E8
:1054D000230092002D0020082300910015131514BD
:1054E00000000000230014082D00A1002300130871
:1054F0002D00A00008002D00A100A931DF21AA3154
:105500007830AA314C22AA310030AA314C22AA317B
:105510002D002108AA314C22AA31A931D821AA3163
:105520000800AA310922AA31AC319D24AA31A9313F
:10553000E621AA3198310120AA31AA315922AA3193
:10554000AA310022AA31AA31C022AA3108000030B3
:105550008B1B0130F2008B1371082300920070083E
:105560009100151315161515A931EE21AA31230046
:10557000151172080319BD2ABE2ABF2A8B1708000D
:1055800021001708C03912389700C7302000970053
:10559000C7302D00A20022082E00E8000B118B1648
:1055A00000302D00A0000030A100AA311222AA3143
:1055B00008002D00A4002408A2002208A300E42A69
:1055C0000130A2002208A4072408860008308700C2
:1055D0000108031DEC2AED2AE02A23082402A0007A
:1055E000A101A01BA10308002D003408803AB500DA
:1055F00080303502031DFE2A013033020318012BCF
:10560000022B0F2B2D003309B5003409B600B50A63
:105610000319B60A3508B3003608B4000F2B08008A
:1056200000308B1B01302D00A2008B1321082300BA
:1056300092002D0020082300910015131516151552
:10564000A931F721AB31230015112D0022080319D0
:105650002A2B2B2B2C2B8B17080000308B1B013097
:10566000F5008B13710823009200700891007308F5
:10567000940072089300740C031C9512031895167D
:10568000151315121515A931EE21AB317508031943
:105690004A2B4B2B4C2B8B1708002D00A1001830E8
:1056A000A000200821008E042D002103031D592B8A
:1056B0005A2B5D2B24009417622B7F30A00020080A
:1056C000240094052830950007309200F7302D0013
:1056D000A00020082400970508002D00AD01AE01B0
:1056E000291C732B742B782B2B08AD072C08AE3D8F
:1056F0000130AB35AC0D890B792B0130AA36A90CE2
:10570000890B7E2B29082A04031D872B882B702BDD
:105710002E08AA002D08A90008002E3400340034F9
:1057200000340034003400340034003400340034D9
:10573000003400340034003400342E34003400349B
:1057400000340034003400340034003400340034B9
:10575000003400340034003400342E34003400347B
:105760000034003400340034003400340034003499
:10577000003400340034003400342E34003400345B
:105780000034003400340034003400340034003479
:10579000003400340034003400342D00A401A5018D
:1057A0002D0024082007A2002508213DA30022087F
:1057B000860023088700203081000130A4070030D4
:1057C000A53D2508803AA20080302202031DEA2B65
:1057D00010302402031CED2BEE2BD02B08002D00E3
:1057E000A800A401A5012008A200A3012208A60088
:1057F0002308A700281CFD2BFE2B022C2608A4073B
:105800002708A53D0130A635A70D890B032C0310F1
:10581000A80C2808031D0D2C0E2CFA2B2508A1001E
:105820002408A00008002D00AF00AD01AE012B2C14
:105830002C08A900AA012908A0002A08A10028080C
:10584000AB002B08A200AE311326AC3101302D0085
:10585000AD070030AE3D2D082F07A90029088600AE
:10586000083087000108AA002A08AC002C08031D94
:105870003A2C3B2C182C080000308B1B01302D00DB
:10588000A5008B132108230092002D00200823007F
:1058900091002D002308230094002D0022082300EE
:1058A00093002D00240C2300031C95120318951659
:1058B000151315121515A931F721AC312D00250846
:1058C0000319632C642C652C8B1708002E00BF0075
:1058D0002D006A082E00C1002D0069082E00C000AE
:1058E0002F00BD01BE018A2C40302D00EC006C0859
:1058F000D9006B08ED006D08DA002E003F08A331D7
:10590000B623AC312D0059082F00BD072D005A08D1
:105910002F00BE3D2E004008840041088500120083
:10592000031D932C942C742C2F003E082D00EA00AC
:105930002F003D082D00E900080022008C018D0198
:105940008E01083021009000B8308C00FF308D00AF
:10595000FF308E0023008E0108308D0004308C0053
:10596000240090018D018C018E01210097172500E4
:105970008C018D018E01FF3026008C00FF308D00E0
:10598000E7308E003F3027008C00F0308D00FF3074
:105990008E0014303C00BB0021303D00A3002230BB
:1059A000A40013303C00BA0008002D00A800220813
:1059B000A400A5010530A435A50D890BDB2C240816
:1059C000803EA6003F30253DA7002130230203186A
:1059D000EA2CEB2C112D04302202031CF02CF12CAC
:1059E0000C2D112D2708A1002608A000AA3166223F
:1059F000AC312D002008A40028088600073087005D
:105A0000240881000130A6070030A73D0130A40022
:105A10002408A8070130A3022308031D102D112D0F
:105A2000F22C08002E0049084804470446040319D4
:105A30001A2D1B2D562DCE01CE0A2B2D0130C63529
:105A4000C70DC80DC90D890B1F2D01302D00EF00AA
:105A50006F082E00CE07C91F2E2D2F2D1E2D490891
:105A60004D02031D3D2D48084C02031D3D2D4708E6
:105A70004B02031D3D2D46084A02031C402D412DBB
:105A8000492D4608CA024708CB3B4808CC3B490889
:105A9000CD3B0130C936C80CC70CC60C890B4A2D4A
:105AA0000130CE02031D552D562D2F2D4D08C90056
:105AB0004C08C8004B08C7004A08C60008002D0063
:105AC000B8002E002D1C652D662D6F2D2D00380879
:105AD000B3003308A8003008AC311324AD312D00D9
:105AE000B21B732D742D792D3208B7003108B60022
:105AF0007B2DB601B701B401B5018F2D20302D00EB
:105B0000A0000030A1003808B3003308A200AE3175
:105B10001326AD3101302D00B4070030B53D3508F6
:105B2000803AB3003708803A3302031D992D3608B6
:105B30003402031C9C2D9D2D7E2D2E002D18A12D91
:105B4000A22DAB2D2D003808B3003308A800300873
:105B5000AC311324AD312D003008AA31D922AD313A
:105B60002D0036082007B0003708213DB10008009D
:105B70002D00A5012130AA317B22AD310030AA31A0
:105B80007B22AD317F30AA317B22AD312230AA3168
:105B90007B22AD310030AA317B22AD310730AA31F2
:105BA0007B22AD31A931DF21AD317830AA314C22D1
:105BB000AD314030AA314C22AD312D00A601A701F4
:105BC000A5010030A3002030A4002608230786008A
:105BD0002708243D87000108AA314C22AD3101304D
:105BE0002D00A6070030A73D0130A3002308A5071C
:105BF00010302502031CFD2DFE2DE12D0130A602E3
:105C00000030A73B0130A6070030A73D0430270233
:105C1000003003192602031C0E2E0F2EE02DA93191
:105C2000D821AD3108002D0022080319182E192E95
:105C30001E2E2208031D1D2E1E2E232E20089031FD
:105C40000120AE316F2E2208043E86000730870007
:105C50001600010403192D2E2E2E4E2E2208043E6E
:105C6000860007308700403FA300413FA400220880
:105C7000023E860007308700403FA500413FA60056
:105C80002608803AA7002408803A2702031D4A2EDE
:105C90002308250203184D2E4E2E6F2E2D002208AC
:105CA000023E860007308700220884000730850006
:105CB000403F0007A3000131413F003DA4002308FD
:105CC000860024088700200881002208023E860002
:105CD000073087000130810741310318810A08002D
:105CE000FA007A08F800F9010530F835F90D890B4A
:105CF000752E7808803EFB003F30793DFC00213056
:105D000077020318842E852ECD2E04307A02031CD0
:105D10008A2E8B2E8C2ECD2E7C08F1007B08F00075
:105D2000AA31A722AE31B22E7C08F1007B08F00028
:105D300076088600073087000108F800F901780826
:105D4000F2007908F300F401F40AAB312D23AE31EF
:105D50000130F8007808F6070130FB070030FC3D01
:105D60000130F702023077020318B72EB82E942EB6
:105D70007C08F1007B08F000760886000730870079
:105D80000108F800F9017808F2007908F300F4013D
:105D9000AB312D23AE312300150808002D00A601DC
:105DA000A11FD32ED42EDB2EA009A109A00A03190E
:105DB000A10AA601A60AA31FDE2EDF2EE82EA20945
:105DC000A309A20A0319A30A0130A4002408A60605
:105DD000A701A801200821040319EF2EF02E1F2F80
:105DE000A501A50AFC2E0130A035A10D890BF42ECA
:105DF0000130A4002408A507A11FFF2E002FF32EB9
:105E00000130A735A80D890B012F21082302031D9E
:105E10000B2F20082202031C0E2F0F2F142F2008F7
:105E2000A2022108A33B27140130A136A00C890B44
:105E3000152F0130A502031D1E2F1F2F002F26082E
:105E40000319232F242F292FA709A809A70A03190B
:105E5000A80A2808A1002708A00008002D00AA0011
:105E60002A08A800A9010530A835A90D890B342FEF
:105E70002808803EAB003F30293DAC00213027028E
:105E80000318432F442F8E2F04302A02031C492F5E
