:020000040000FA
:100000008031A428803008007E1480318B1E09289E
:100010000A28A2280B1D0D280E28A2280B1121004A
:100020005A080319142815281F28610862040319A7
:100030001A281B281F28FF30E107FF30E23D650822
:1000400066040319242825283C2869086A04031D2E
:100050002A282B283C2867086804031D30283128EB
:100060003C285D085E0403193628372840280130F3
:10007000DD020030DE3B4028FA30DD000030DE00DB
:1000800069086A040319452846285D28670868043A
:10009000031D4B284C285D2865086604031D512864
:1000A00052285D28630864040319572858286128DA
:1000B000FF30E307FF30E43D61287130E300023098
:1000C000E40069086A040319662867287728670826
:1000D000680403196C286D287728650866040319DD
:1000E000722873287728D201D301D401DB0152088A
:1000F000530403197C287D2881280130D202003066
:10010000D33B5F0860040319862887288B28FF30BB
:10011000DF07FF30E03D22002A08290428042704D5
:100120000319932894289D28FF30A707FF30A83D86
:10013000FF30A93DFF30AA3DA2280130F000700831
:100140002100D8007E1009008031A628E03084000C
:10015000B6308500DD308600003087000030FF00BB
:100160001230B631B826803138308400A83085008E
:1001700020308600013087000030FF002C30B6317F
:10018000B826803185308400A9308500A0308600F3
:10019000013087000030FF004230B631B826803190
:1001A000F0308400263085000030FE000130FF0072
:1001B000B631AC268031BF308400003085001E305F
:1001C000FE000030FF00B631AC2680314C30840098
:1001D000013085002130FE000030FF00B631AC2632
:1001E000803120308400023085004830FE0000302D
:1001F000FF00B631AC2680317E102000A331B52B34
:100200001034103420345F340034003400340034AF
:10021000003400340034003400340034003400343E
:10022000003400340034003400340034003400342E
:10023000003400340034003400340034003400341E
:10024000003400340034003400340034003400340E
:10025000F834FC34FC34FC34F8340034003400341A
:1002600000340034003400340034003400340034EE
:100270000034733473347334003400340034003485
:1002800000340034003400340034003400340034CE
:100290001E343E343E340034003400343E343E34A8
:1002A0001E34003400340034003400340034003490
:1002B000003400340034003400340034003400349E
:1002C00000340034003400340034303430343034FE
:1002D000FE34FE343034303430343034FE34FE34C6
:1002E000303430343034003400340C340C340C34BA
:1002F0007F347F340C340C340C340C347F347F3432
:100300000C340C340C340034003400340034F03439
:10031000F8349834FE3498349834FE349834983451
:1003200018340034003400340034003400341834FD
:10033000193419347F34193419347F3419341F3483
:100340000F340034003400340034003400340034FE
:100350003834383438348034C034E034703438348D
:1003600000340034003400340034003400340034ED
:100370001C340E340734033401341C341C341C3454
:100380000034003400340034003400340034383495
:10039000FC34C434C434FC34383400340034003405
:1003A00080340034003400340034003400341E340F
:1003B0003F342134213433343F341E341E34373437
:1003C000233400340034003400340034003400346A
:1003D00020343C343C341C340034003400340034C9
:1003E000003400340034003400340034003400346D
:1003F000003400340034003400340034003400345D
:10040000003400340034003400340034003400344C
:10041000C034E034F03438341C340C340434043444
:10042000003400340034003400340034003400342C
:10043000033407340F341C3438343034203420343F
:10044000003400340034003400340034003400340C
:10045000043404340C341C343834F034E034C03404
:1004600000340034003400340034003400340034EC
:1004700020342034303438341C340F3407340334FF
:1004800000340034003400340034003480348834C4
:100490009034E034E034FC34FC34E034E034903424
:1004A0008834803400340034003400340134113492
:1004B0000934073407343F343F34073407340934F0
:1004C000113401340034003400340034003400347A
:1004D000803480348034F034F0348034803480349C
:1004E000003400340034003400340034003400346C
:1004F0000134013401340F340F3401340134013438
:10050000003400340034003400340034003400344B
:10051000003400340034003400340034003400343B
:10052000003400340034003400340034003400342B
:1005300040347834783438340034003400340034B3
:10054000003400340034003400340034003480348B
:1005500080348034803480348034803480348034FB
:10056000803400340034003400340034003401346A
:1005700001340134013401340134013401340134D3
:1005800001340034003400340034003400340034CA
:1005900000340034003400340034003400340034BB
:1005A00000340034003400340034003400340034AB
:1005B00000343834383438340034003400340034F3
:1005C000003400340034003400340034003400348B
:1005D000003400340034003400348034C034E0345B
:1005E000703438341C340034003400340034203487
:1005F000303438341C340E340734033401340034BE
:100600000034003400340034003400340034F83452
:10061000FC34FC3404348434E4347434FC34FC346A
:10062000F8340034003400340034003400341F3413
:100630003F343F342E342734213420343F343F3488
:100640001F3400340034003400340034003460348B
:1006500060346034F034FC34FC3400340034003452
:1006600000340034003400340034003400342034CA
:10067000203420343F343F343F342034203420347D
:1006800000340034003400340034003400341834B2
:100690001C341C34043404348434CC34FC347834B6
:1006A000303400340034003400340034003430344A
:1006B00038343C342E34273423342134383438341D
:1006C000383400340034003400340034003418343A
:1006D0001C341C34843484348434CC347C347834F6
:1006E0003034003400340034003400340034183422
:1006F0003834383421342134213433343E341E34F8
:100700000C340034003400340034003400348034BD
:10071000C034603430341834FC34FC34FC340034DD
:100720000034003400340034003400340034033426
:1007300003340334233423343F343F343F342334ED
:100740002334003400340034003400340034FC34EA
:10075000FC34FC3484348434843484348434043469
:1007600004340034003400340034003400341934CC
:100770003934393421342134213433343F341F3473
:100780000E34003400340034003400340034E034DB
:10079000F034F8349C348C3484348434843480349D
:1007A00000340034003400340034003400341F348A
:1007B0003F343F3421342134213421343F343F3419
:1007C0001F340034003400340034003400343C342E
:1007D0003C343C3404340434043404348434FC3471
:1007E000FC347C34003400340034003400340034F1
:1007F0000034003438343C343E340734033401349C
:1008000000340034003400340034003400347834D0
:100810007C34FC34C434C43484348434FC347C34B8
:1008200078340034003400340034003400341E3492
:100830003E343F3421342134233423343F343E3496
:100840001E34003400340034003400340034F834F2
:10085000FC34FC348434843484348434FC34FC34F8
:10086000F8340034003400340034003400340034F0
:100870000134213421342134313439341F340F34DC
:1008800007340034003400340034003400340034C1
:100890000034003470347034703400340034003468
:1008A00000340034003400340034003400340034A8
:1008B000003400340E340E340E340034003400346E
:1008C0000034003400340034003400340034003488
:1008D0000034003470347034703400340034003428
:1008E0000034003400340034003400340034003468
:1008F000003410341E341E340E34003400340034FE
:1009000000340034003400340034003400348034C7
:10091000C034E034703438341C340E3406340234BD
:100920000034003400340034003400340034013426
:10093000033407340E341C3438347034603440349B
:100940000034003400340034003400346034603447
:1009500060346034603460346034603460346034F7
:10096000603460340034003400340034063406341B
:1009700006340634063406340634063406340634A7
:1009800006340634003400340034003400340234B9
:1009900006340E341C3438347034E034C0348034BF
:1009A0000034003400340034003400340034403467
:1009B0006034703438341C340E340734033401345A
:1009C000003400340034003400340034003418346F
:1009D0001C340C340E3406348634CE34FC347C346F
:1009E000383400340034003400340034003400342F
:1009F00000340034003473347334733400340034FE
:100A00000034003400340034003400340034FC344A
:100A1000FE34FE3402340234C234C234C234FE34F2
:100A2000FE34FC34003400340034003400343F34ED
:100A30003F347F346034603463346334633463340C
:100A40004334033400340034003400340034E034E0
:100A5000F034F8341C340C340C341C34F834F034D6
:100A6000E0340034003400340034003400343F34C7
:100A70003F343F3402340234023402343F343F34D2
:100A80003F34003400340034003400340034043483
:100A9000FC34FC34FC34843484348434FC34FC343E
:100AA000783400340034003400340034003420340E
:100AB0003F343F343F342134213421343F343F34F8
:100AC0001E34003400340034003400340034F03478
:100AD000F834FC340C340434043404341C341C3432
:100AE00018340034003400340034003400340F343F
:100AF0001F343F34303420342034203438343834F8
:100B00001834003400340034003400340034043429
:100B1000FC34FC34FC34043404340C34FC34F83439
:100B2000F034003400340034003400340034203415
:100B30003F343F343F342034203430343F341F348A
:100B40000F340034003400340034003400340434F2
:100B5000FC34FC34FC34843484348434C434CC34E5
:100B60001C340034003400340034003400342034A9
:100B70003F343F343F34213421342134233433345F
:100B80003834003400340034003400340034043489
:100B9000FC34FC34FC34843484348434C434CC34A5
:100BA0001C34003400340034003400340034203469
:100BB0003F343F343F3421340134013403340334AF
:100BC0000034003400340034003400340034F03495
:100BD000F834FC340C340434043404343C343C34F1
:100BE00038340034003400340034003400340F341E
:100BF0001F343F3430342034223422343E343E34E7
:100C00003E34003400340034003400340034FC340A
:100C1000FC34FC34803480348034FC34FC34FC34C8
:100C200000340034003400340034003400343F34E5
:100C30003F343F340134013401343F343F343F34D6
:100C40000034003400340034003400340034003404
:100C500004340434FC34FC34FC34043404340034F0
:100C600000340034003400340034003400340034E4
:100C7000203420343F343F343F3420342034003497
:100C800000340034003400340034003400340034C4
:100C900000340034003404340434FC34FC34FC34B8
:100CA0000434043400340034003400341E341E3460
:100CB0003E3420342034203420343F343F341F3439
:100CC0000034003400340034003400340034043480
:100CD000FC34FC34FC34C034E03470343C341C3418
:100CE0000C34003400340034003400340034203438
:100CF0003F343F343F34033407340E343C3438340B
:100D0000303400340034003400340034003404340F
:100D1000FC34FC34FC34043400340034003400343B
:100D20000034003400340034003400340034203403
:100D30003F343F343F34203420342034303438348E
:100D40003C34003400340034003400340034FC34CB
:100D5000FC34FC347834F034E034F0347834FC344F
:100D6000FC34FC34003400340034003400343F34AC
:100D70003F343F34003400340134003400343F3415
:100D80003F343F3400340034003400340034FC3449
:100D9000FC34FC347034E034C03480340034FC342F
:100DA000FC34FC34003400340034003400343F346C
:100DB0003F343F34003400340134033407343F34CB
:100DC0003F343F3400340034003400340034E03425
:100DD000F034F8341C340C340C340C341C34F83437
:100DE000F034E0340034003400340034003407348C
:100DF0000F341F34383430343034303438341F3406
:100E00000F34073400340034003400340034043428
:100E1000FC34FC34FC34843484348434FC34FC34BA
:100E2000783400340034003400340034003420348A
:100E30003F343F343F342134013401340134013430
:100E40000034003400340034003400340034E03422
:100E5000F834F8341C340C3404340C341C34F834B6
:100E6000F834E03400340034003400340034073403
:100E70001F341F34183418345C345E347E347F34AD
:100E80007F344734003400340034003400340434F8
:100E9000FC34FC34FC34843484348434FC34FC343A
:100EA000783400340034003400340034003420340A
:100EB0003F343F343F340134013403343F343F3452
:100EC0003C340034003400340034003400347834CE
:100ED000FC34FC348434843484348434BC343C3472
:100EE00038340034003400340034003400341C340E
:100EF0003C343D3421342134213421343F343F34D7
:100F00001E340034003400340034003400341C3407
:100F10000C3404340434FC34FC34FC340434043421
:100F20000C341C34003400340034003400340034F9
:100F30000034203420343F343F343F3420342034D4
:100F40000034003400340034003400340034FC3405
:100F5000FC34FC34003400340034FC34FC34FC3405
:100F600000340034003400340034003400341F34C2
:100F70003F343F342034203420343F343F341F3456
:100F80000034003400340034003400340034FC34C5
:100F9000FC34FC34003400340034FC34FC34FC34C5
:100FA000003400340034003400340034003407349A
:100FB0000F341F343834303438341F340F3407348E
:100FC0000034003400340034003400340034FC3485
:100FD000FC34FC3400340034803400340034FC34FD
:100FE000FC34FC3400340034003400340034033466
:100FF0000F343F343C343C340F343C343C343F34C5
:101000000F340334003400340034003400341C3412
:101010003C347C34E034C034E0347C343C341C3424
:1010200000340034003400340034003400343834E8
:101030003C343E340734033407343E343C343834D3
:1010400000340034003400340034003400347C3484
:10105000FC34FC34803400348034FC34FC347C3484
:1010600000340034003400340034003400340034E0
:10107000203421343F343F343F3421342034003491
:1010800000340034003400340034003400343C3484
:101090001C340C3404348434C434E4347C343C34A0
:1010A0001C3400340034003400340034003438344C
:1010B0003C343E3427342334213420343034383423
:1010C0003C34003400340034003400340034003444
:1010D0000034FC34FC34FC3404340434043404346C
:1010E0000034003400340034003400340034003460
:1010F00000343F343F343F34203420342034203413
:1011000000340034003400340034003400341C3423
:1011100038347034E034C034803400340034003467
:10112000003400340034003400340034003400341F
:101130000034003400340134033407340E341C34DA
:101140001834303420342034003400340034003477
:1011500000340434043404340434FC34FC34FC34EB
:1011600000340034003400340034003400340034DF
:10117000003420342034203420343F343F343F3492
:10118000003400340034003400340034003420349F
:10119000303438341C340E340E341C34383430348B
:1011A000203400340034003400340034003400347F
:1011B000003400340034003400340034003400348F
:1011C000003400340034003400340034003400347F
:1011D000003400340034003400340034003400346F
:1011E00000340034003400340034C034C034C0341F
:1011F000C034C034C034C034C034C034C034C0344F
:10120000C034C034C034C0340034003400340C3432
:101210000C343C3430343034003400340034003486
:10122000003400340034003400340034003400341E
:10123000003400340034003400340034003400340E
:1012400000340034003400340034003400340034FE
:1012500040344034403440344034C034C0348034AE
:1012600000340034003400340034003400341C34C2
:101270003E343E342234223422343F341F343F344F
:10128000203400340034003400340034003404349A
:10129000FC34FC34FC34403440344034C034C0347A
:1012A00080340034003400340034003400342034FE
:1012B0003F341F343F342034203420343F343F3413
:1012C0001F340034003400340034003400348034DF
:1012D000C034C034403440344034C034C03480342E
:1012E00000340034003400340034003400341F343F
:1012F0003F343F34203420342034393439341934E5
:1013000000340034003400340034003400348034BD
:10131000C034C034403440344434FC34FC34FC34F5
:1013200004340034003400340034003400341F34FA
:101330003F343F342034203420343F341F343F3492
:10134000203400340034003400340034003480345D
:10135000C034C034403440344034C034C0348034AD
:1013600000340034003400340034003400341F34BE
:101370003F343F342234223422343B343B341B3458
:10138000003400340034003400340034003480343D
:101390008034F834FC34FC3484349C349C34183469
:1013A000003400340034003400340034003421347C
:1013B00021343F343F343F3421342134013400346C
:1013C00000340034003400340034003400348034FD
:1013D000C034C034403440344034C0348034C0342D
:1013E00040340034003400340034003400344734D6
:1013F000CF34DF34983498349834FF34FF347F345A
:101400000034003400340034003400340034043438
:10141000FC34FC34FC34803440344034C034C034B8
:10142000803400340034003400340034003420347C
:101430003F343F343F340134003400343F343F34D0
:101440003F340034003400340034003400340034BD
:10145000403440344034DC34DC34DC340034003498
:1014600000340034003400340034003400340034DC
:101470002034203420343F343F343F34203420346F
:10148000203400340034003400340034003400349C
:1014900000340034403440344034DC34DC34DC3458
:1014A000003400340034003400340034003420347C
:1014B0006034E03480348034C034FF34FF347F340F
:1014C0000034003400340034003400340034043478
:1014D000FC34FC34FC34003400348034C034C03478
:1014E00040340034003400340034003400342034FC
:1014F0003F343F343F34023407340F343D34383402
:10150000303400340034003400340034003400340B
:10151000043404340434FC34FC34FC34003400342B
:10152000003400340034003400340034003400341B
:101530002034203420343F343F343F3420342034AE
:101540002034003400340034003400340034C0341B
:10155000C034C03440344034C03440344034C034EB
:10156000C0348034003400340034003400343F345C
:101570003F343F34003400343F34003400343F34CF
:101580003F343F3400340034003400340034C0347D
:10159000C034C034403440344034C034C03480346B
:1015A00000340034003400340034003400343F345C
:1015B0003F343F340034003400343F343F343F3450
:1015C00000340034003400340034003400348034FB
:1015D000C034C034403440344034C034C03480342B
:1015E00000340034003400340034003400341F343C
:1015F0003F343F342034203420343F343F341F34D0
:1016000000340034003400340034003400344034FA
:10161000C0348034C034403440344034C034C034EA
:10162000803400340034003400340034003480341A
:10163000FF34FF34FF349034103410341F341F341F
:101640000F34003400340034003400348034C034AB
:10165000C034403440344034C0348034C03440342A
:101660000034003400340034003400340F341F34AC
:101670001F34103410349034FF34FF34FF3480347E
:10168000003400340034003400340034003440347A
:10169000C034C034C0348034C034C034C034C034EA
:1016A00080340034003400340034003400342034FA
:1016B0003F343F343F3421340034003401340134AA
:1016C00001340034003400340034003400348034F9
:1016D000C034C0344034403440344034C0348034AA
:1016E0000034003400340034003400340034193441
:1016F0003B3423342634263426343C343D341934E8
:1017000000340034003400340034003400344034F9
:101710004034E034F034F834403440344034403421
:101720000034003400340034003400340034003419
:1017300000341F343F343F342034383438341834C4
:101740000034003400340034003400340034C03439
:10175000C034C034003400340034C034C034C03429
:1017600000340034003400340034003400341F34BA
:101770003F343F342034203420343F341F343F344E
:101780002034003400340034003400340034C034D9
:10179000C034C034003400340034C034C034C034E9
:1017A0000034003400340034003400340034073492
:1017B0000F341F343834303438341F340F34073486
:1017C0000034003400340034003400340034C034B9
:1017D000C034C03400340034003400340034C03429
:1017E000C034C034003400340034003400340734D2
:1017F0000F343F34383438340E34383438343F34CE
:101800000F34073400340034003400340034C03462
:10181000C034C03400340034C034C034C034003468
:1018200000340034003400340034003400343034E8
:1018300039343F340F340F343F34393430340034CA
:1018400000340034003400340034003400340034F8
:10185000C034C034C034003400340034C034C03428
:10186000C034003400340034003400340034803498
:1018700087348F349F34D834F83478343F340F347D
:101880000734003400340034003400340034C034F1
:10189000C034403440344034C034C034C0340034E8
:1018A0000034003400340034003400340034313467
:1018B00038343C342E342734233431343834003433
:1018C00000340034003400340034003400348034F8
:1018D0008034C03478347C343C34043404340434EC
:1018E0000434003400340034003400340034013453
:1018F000013403341E343E343C342034203420344C
:101900002034003400340034003400340034003417
:10191000003400340034FE34FE34FE34003400342D
:101920000034003400340034003400340034003417
:101930000034003400347F347F347F34003400348A
:1019400000340034003400340034003400340434F3
:101950000434043404343C347C347834C03480346B
:101960008034003400340034003400340034203437
:101970002034203420343C343E341E3403340134CB
:1019800001340034003400340034003438343C3442
:101990003C3404340C341C343834303420343C347B
:1019A0003C341C340034003400340034003400343F
:1019B0000034003400340034003400340034003487
:1019C0000034003400340034403008002400940116
:1019D00008309500960127309200951208000130DA
:1019E000B7317E278C31B63174268C310530F90041
:1019F0000F30F800F130890BFB2CF80BFB2CF90BA6
:101A0000FB2C0000AE30B631F2268C31D530B63129
:101A1000F2268C31F030B631F2268C31A830B63156
:101A2000F2268C313F30B631F2268C31D330B631CC
:101A3000F2268C310030B631F2268C314030B6318E
:101A4000F2268C318D30B631F2268C311430B6311D
:101A5000F2268C312030B631F2268C310030B6318E
:101A6000F2268C31A130B631F2268C31C830B63135
:101A7000F2268C31DA30B631F2268C311230B631A2
:101A8000F2268C318130B631F2268C31FF30B631FE
:101A9000F2268C31D930B631F2268C31F130B631A4
:101AA000F2268C31DB30B631F2268C314030B63143
:101AB000F2268C31A430B631F2268C31A630B63104
:101AC000F2268C312E30B631F2268C31AF30B63161
:101AD000F2268C310030F1008130F200A93107216B
:101AE0008C310530F9000F30F800F130890B762D7C
:101AF000F80B762DF90B762D0000A03102208C31E9
:101B000008002100340835040319872D882D8D2DF8
:101B10000130B4020030B53B912DE830B400033001
:101B2000B50001303502F53003193402031C992D3C
:101B30009A2D9D2D22000C139F2D22000C170B3087
:101B40002100A7006230890BA32DA70BA32D000055
:101B5000B63169268D3120008D1EAF2DB02D812D1F
:101B600022000C174130B7319A278D313630B7310A
:101B70009A278D31AB30B7319A278D312B30B73161
:101B80009A278D319531A32D91302000E800B8308F
:101B9000E9004130A8310E208D3100302000D10005
:101BA000D200B63194268D3122000C1022008C1008
:101BB0009531BF2DF301F30AF401F40AEE30A83198
:101BC000CD208D318C302000E800B830E900413064
:101BD000A8310E208D314E302000E800B830E900E9
:101BE0000A30F1000030F20021006E08A700A801C1
:101BF0002708F3002808F400AB316F238D317208F9
:101C00002000EB007108EA000A30F1000030F20019
:101C100021006E08A900AA012908F3002A08F4008F
:101C2000AA3162228D3172082000ED007108EC00AB
:101C30002B30A8310E208D3121006E08A700A8019D
:101C4000A901AA012A082000A300210029082000D8
:101C5000A200210028082000A10021002708200060
:101C6000A0000130AD319E258D3120002308B50044
:101C70002208B4002108B3002008B2004130B100AE
:101C80000230B000F130AF00AA30AE009D31A9257E
:101C90008D3120003108CB003008CA002F08C90060
:101CA0002E08C800AC319E248D3120004908D20096
:101CB0004808D100B63194268D313F302000CB004A
:101CC000EC30CA00CC30C900CD30C8004130B10082
:101CD0002030B0000030AF000030AE0021006E08B0
:101CE000A700A801A901AA012A082000A300210039
:101CF00029082000A200210028082000A1002100BE
:101D000027082000A0000030AD319E258D31200035
:101D10002308B5002208B4002108B3002008B2004F
:101D2000903125208D3120003108CF003008CE00C1
:101D30002F08CD002E08CC00AD3113258D310318AE
:101D4000A22EA32EA62E22000C14A82E22000C10C8
:101D500021006E08A700A8012708F3002808F40056
:101D60000A30F1000030F200AB316F238D31710881
:101D70002000A0007208A100890D893B8909A200FA
:101D8000A3000130AD319E258D3120002308CB000A
:101D90002208CA002108C9002008C8004030CF002E
:101DA0000030CE000030CD000030CC00AD31132526
:101DB0008D31031CDC2EDD2ED62D22008C14D82D67
:101DC0000330A7002708F300F401F40AEE30A8312D
:101DD000CD208D3138302000E800B830E9004130A6
:101DE000A8310E208D314E302000E800B830E900D7
:101DF0000A30F1000030F20021006E08A700A801AF
:101E00002708F3002808F400AB316F238D317208E6
:101E10002000EB007108EA000A30F1000030F20007
:101E200021006E08A900AA012908F3002A08F4007D
:101E3000AA3162228D3172082000ED007108EC0099
:101E40002B30A8310E208D3120000D1E282F292F78
:101E50002D2F8C1D2C2F2D2FF72F7E30E800B83022
:101E6000E9003630A8310E208D3121006E08A70020
:101E7000A801A901AA012A082000A300210029081D
:101E80002000A200210028082000A100210027082E
:101E90002000A0000130AD319E258D3120002308A7
:101EA000B5002208B4002108B3002008B200413078
:101EB000B1000230B000F130AF00AA30AE009D3169
:101EC000A9258D3120003108CB003008CA002F0829
:101ED000C9002E08C800AC319E248D31200049086D
:101EE000D2004808D100B63194268D313F30200011
:101EF000CB00EC30CA00CC30C900CD30C800413036
:101F0000B1002030B0000030AF000030AE00210042
:101F10006E08A700A801A901AA012A082000A300B1
:101F2000210029082000A200210028082000A1008B
:101F3000210027082000A0000030AD319E258D3102
:101F400020002308B5002208B4002108B3002008AF
:101F5000B200903125208D3120003108CF003008AB
:101F6000CE002F08CD002E08CC00AD3113258D31C9
:101F70000318BB2FBC2FBF2F22000C14C12F22002F
:101F80000C1021006E08A700A8012708F3002808FC
:101F9000F4000A30F1000030F200AB316F238D31D4
:101FA00071082000A0007208A100890D893B8909F1
:101FB000A200A3000130AD319E258D312000230801
:101FC000CB002208CA002108C9002008C800403000
:101FD000CF000030CE000030CD000030CC00AD315D
:101FE00013258D31031CF52FF62FD62DDD2E6D30E8
:101FF000E800B830E9003630A8310E208D31CD2D03
:102002000800F900F501F6017108F300F401730804
:10201200F7007408F800791C0F2810281428770894
:10202200F5077808F63D0130F735F80D890B1528CC
:102032000310F90C7908031D1F2820280C287608A4
:10204200F2007508F1000800200035088039B6005A
:102052003608BF003535B6003608C600B41F322830
:1020620033283428461446080319382839284928C1
:10207200460A031D3D283E2846280030B5000030A0
:10208200B4000030B3000030B200B417B5015128DB
:102092000030B5000030B4000030B3000030B200B0
:1020A20031088039B6003608BF063135B600360829
:1020B200C700B01F5D285E285F2847144708031930
:1020C200632864287428470A031D68286928712830
:1020D2000030B1000030B0000030AF000030AE0080
:1020E200B017B1017C280030B1000030B0000030E0
:1020F200AF000030AE00310830042F042E04031D5F
:10210200832884289D280030B5000030B4000030B8
:10211200B3000030B2008030B4047F30B5043F0811
:10212200B6003608B5043508B1003408B0003308EB
:10213200AF003208AE00D8294608031DA128A22804
:10214200AB280030B1000030B0000030AF000030EA
:10215200AE00D8294608B600B7013708B9004708CB
:102162003602B800031CB90338087F3EC0000030B5
:10217200393DC1003508BE003408BD003308BC003B
:102182003208BB000030B5000030B4000030B300AC
:102192000030B2000030C5000030C4000030C3007F
:1021A2000030C200C701132947080319D928DA28C9
:1021B200F4280130BB35BC0DBD0DBE0D890BDB28EB
:1021C2000130B235B30DB40DB50D890BE228C51F30
:1021D200EB28EC28ED2832140130C235C30DC40DB2
:1021E200C50D890BEE2831083E02031D0229300875
:1021F2003D02031D02292F083C02031D02292E085D
:102202003B02031C052906290F2945172E08BB028C
:102212002F08BC3B3008BD3B3108BE3B0130B60045
:102222003608C7071A304702031C18291929D5286E
:102232003E083D043C043B040319202921293A2984
:1022420042143A290130B235B30DB40DB50D890BE4
:102252002429C51F2D292E292F2932140130C235D8
:10226200C30DC40DC50D890B3029FF30C007FF30E7
:10227200C13DB41F3D293E292329C701C51F42295B
:1022820043295F29FF304205B600FF304305B700FE
:10229200FF304405B8007F304505B90039083804DD
:1022A200370436040319562957295A29C701C70A80
:1022B2005F29321C5D295E295F29572947080319C6
:1022C200632964298C290130B2070030B33D003004
:1022D200B43D0030B53D351C6F2970298C29320878
:1022E200B6003308B7003408B8003508B900013029
:1022F200BA00B937B80CB70CB60CBA0B7A29390840
:10230200B5003808B4003708B3003608B20001300F
:10231200C0070030C13D4108803AB6008030360225
:10232200031D9529FF304002031C98299929A629EB
:10233200FF302000C0000030C1000030B500003086
:10234200B4000030B3000030B20020004108803AEF
:10235200B60080303602031DB02901304002031856
:10236200B329B429C0292000C001C1010030B50041
:102372000030B4000030B3000030B200BF012000D2
:102382004008B6003608C600461CC829C929CB2910
:10239200B417CF297F30B6003608B4054636B600EA
:1023A2003608B5003F08B6003608B5049428080080
:1023B20029000E082100A700A80129000F0821000A
:1023C200A900AA012908AA00A901270829072000B3
:1023D200A000210028082A3D2000A100A201A3019B
:1023E2000030AD319E259131200023082100C90023
:1023F200200022082100C800200021082100C70077
:10240200200020082100C6000030510209300319C3
:10241200500203180D2A0E2A272A5008A70001305D
:10242200A735FF3E031D112A2735203E86000230C4
:1024320087004608C03F4708C13F4808C23F4908D5
:10244200C33F0130D0070030D13D3D2A5008A700DC
:102452000130A735FF3E031D2A2A2735203E86007C
:10246200023087004608C03F4708C13F4808C23FC4
:102472004908C33FD001D1010030BE000030BD0089
:102482000030BC000030BB00B901BA0100303A0292
:102492000A3003193902031C4F2A502A512AB12A41
:1024A2003908A7000130A735FF3E031D542A2735FE
:1024B200203E860002308700403FF100413FF2009B
:1024C200423FF300433FF4003E08F8003D08F700A6
:1024D2003C08F6003B08F500993136219131740829
:1024E2002100BE007308BD007208BC007108BB0069
:1024F200093039063A04031D7F2A802AAC2A41306A
:102502002000B1002030B0000030AF000030AE003B
:1025120021003E082000B50021003D082000B40043
:1025220021003C082000B30021003B082000B2003B
:10253200903125209131200031082100BE00200079
:1025420030082100BD0020002F082100BC0020001F
:102552002E082100BB000130B9070030BA3D472ADE
:102562003E082000B50021003D082000B4002100F3
:102572003C082000B30021003B082000B2003C30A0
:10258200B1004830B0000030AF000030AE009D31E5
:10259200A925913120003108CB003008CA002F084C
:1025A200C9002E08C800AC319E2491312000490890
:1025B2002100B100200048082100B0003E082000A0
:1025C200B50021003D082000B40021003C08200095
:1025D200B30021003B082000B2003C30B10048307B
:1025E200B0000030AF000030AE009D31A92591311E
:1025F200200031082100AF00200030082100AE0089
:1026020020002F082100AD0020002E082100AC0080
:1026120000302000D4000030D3000030D2000A3055
:10262200D10021002F082000B50021002E08200033
:10263200B40021002D082000B30021002C08200046
:10264200B2004130B1002030B0000030AF000030A5
:10265200AE009D31A925913120003108CB00300810
:10266200CA002F08C9002E08C800AC319E2491313F
:1026720020004B08D8004A08D7004908D60048086D
:10268200D500A931C7219131200052082100B300A1
:10269200200051082100B20020302000E800B830AC
:1026A200E9004130A8310E20913121005508031D67
:1026B2005B2B5C2B772BD501D50A2C302000E80050
:1026C200B830E900210031082000EB002100300879
:1026D2002000EA00210033082000ED00210032082A
:1026E2002000EC002B30A8310E20913120000D1E6D
:1026F2007B2B7C2B802B8C1D7F2B802B7C2C7E308C
:10270200E800B830E9003630A8310E2091312100BE
:1027120049082000CB00210048082000CA002100FF
:1027220047082000C900210046082000C800AC313B
:102732009E24913120004908D2004808D100B631C8
:10274200942691313F302000CB00F330CA00333061
:10275200C9003330C8003C30B1004830B00000300E
:10276200AF000030AE0021003E082000B50021007D
:102772003D082000B40021003C082000B3002100E5
:102782003B082000B2009D31A9259131200031087B
:10279200CF003008CE002F08CD002E08CC00AD317E
:1027A200132591310318D62BD72BDA2B22000C14C8
:1027B200102C3C302000B1004830B0000030AF0097
:1027C2000030AE0021003E082000B50021003D0887
:1027D2002000B40021003C082000B30021003B0887
:1027E2002000B2009D31A925913120003108CB0093
:1027F2003008CA002F08C9002E08C8003F30CF0099
:10280200E630CE006630CD006630CC00AD31132507
:10281200913103180D2C0E2C102C22000C1040307C
:102822002000CB000330CA003330C9003330C80067
:102832003C30B1004830B0000030AF000030AE0094
:1028420021003E082000B50021003D082000B40010
:1028520021003C082000B30021003B082000B20008
:102862009D31A925913120003108CF003008CE00DA
:102872002F08CD002E08CC00AD311325913103185D
:10288200432C442C462C8E31DD2E3C302000B100EE
:102892004830B0000030AF000030AE0021003E08EA
:1028A2002000B50021003D082000B40021003C08B2
:1028B2002000B30021003B082000B2009D31A92571
:1028C200913120003108CB003008CA002F08C9001E
:1028D2002E08C8003F30CF00F930CE009930CD002D
:1028E2009A30CC00AD31132591310318792C7A2C12
:1028F200BF2D8D31D62D6D30E800B830E90036306D
:10290200A8310E2091318D31CD2D0230A70027083C
:10291200F300F401F40AED30A831CD2091314330B7
:102922002000E800B830E9004130A8310E20913192
:102932004E302000E800B830E9000A30F1000030E3
:10294200F20021006D08A700A8012708F30028085B
:10295200F400AB316F23913172082000EB00710853
:10296200EA000A30F1000030F20021006D08A900EF
:10297200AA012908F3002A08F400AA31622291313F
:1029820072082000ED007108EC002B30A8310E20F7
:10299200913121006D08A700A801A901AA012A0806
:1029A2002000A300210029082000A20021002808FD
:1029B2002000A100210027082000A0000130AD3135
:1029C2009E25913120002308B5002208B400210879
:1029D200B3002008B2004130B1000230B000F13043
:1029E200AF00AA30AE009D31A925913120003108F7
:1029F200CB003008CA002F08C9002E08C800AC312D
:102A02009E24913120004908D2004808D100B631F5
:102A1200942691313F302000CB00EC30CA00CC30FC
:102A2200C900CD30C8004130B1002030B0000030C4
:102A3200AF000030AE0021006D08A700A801A90177
:102A4200AA012A082000A300210029082000A200D0
:102A5200210028082000A100210027082000A00052
:102A62000030AD319E25913120002308B5002208A7
:102A7200B4002108B3002008B20090312520913122
:102A820020003108CF003008CE002F08CD002E08DC
:102A9200CC00AD31132591310318502D512D542DF9
:102AA20022000C14562D22000C1021006D08A700E4
:102AB200A8012708F3002808F4000A30F1000030CA
:102AC200F200AB316F23913171082000A00072082F
:102AD200A100890D893B8909A200A3000130AD3113
:102AE2009E25913120002308CB002208CA0021082C
:102AF200C9002008C8004030CF000030CE000030AE
:102B0200CD000030CC00AD3113259131031C8A2D4C
:102B12008B2D7A2C442C59302000E800B830E90083
:102B22004130A8310E20913195302000E800B830B4
:102B3200E9008630EA00B830EB003630A8310E20CA
:102B42009131842C21005C08A700A8012808003AD2
:102B52000319AC2D8C2D2708003A8D310319DA2D7B
:102B6200013A0319C42D9131033A0319FE2F013A98
:102B72000319D929073A0319862C8C2D21005708ED
:102B82000319C42DC52DD22DAE30B631F2269131A6
:102B92000B302100A7006230890BCD2DA70BCD2D64
:102BA20000002100B801B80A05303802031CDA2DF2
:102BB200DB2DDC2DE62D38089B316E23913101305F
:102BC2002100A7002708B807D52D57080319EA2DB9
:102BD200EB2DF12DAF30B631F22691312100D70124
:102BE200D60120008D18F62DF72D072E0130210079
:102BF200A7002708D60769086A040319012E022EC6
:102C02000C2EFF30E907FF30EA3D0C2E0130210087
:102C1200E9000030EA0020000D19102E112E212E9D
:102C220001302100A7002708D607670868040319A6
:102C32001B2E1C2E262EFF30E707FF30E83D262EE6
:102C420001302100E7000030E80020000D182A2E94
:102C52002B2E3B2E01302100A7002708D60765083E
:102C620066040319352E362E402EFF30E507FF305D
:102C7200E63D402E01302100E5000030E60056031B
:102C8200031D442E452E752F6B086C0403194A2E22
:102C92004B2E502EFF30EB07FF30EC3D792FE23008
:102CA200DF000430E00069086A04031D592E5A2E21
:102CB200C12E20008D1E5E2E5F2EC12E0D1D622E96
:102CC200632EC12E210052085304031D692E6A2E61
:102CD200C12E0430540203186F2E702E782E01304C
:102CE200A7002708D4073230D2000030D3005A0898
:102CF20003197C2E7D2E922E64306D020318822ED3
:102D0200832EC12E0130A7002708ED07ED30A70062
:102D12002708F700F801F80A0230AB31CE239131CF
:102D2200C12E64306E020318972E982EC12E5C08B5
:102D3200031D9C2E9D2EAC2E0130A7002708EE0706
:102D4200EE30A7002708F700F801F80A0130AB318E
:102D5200CE239131C12E02305C06031DB12EB22E5C
:102D6200C12E0130A7002708EE07EE30A700270882
:102D7200F700F801F80A0330AB31CE239131C12EAE
:102D8200210067086804031DC72EC82E272F2000C4
:102D92008D1ECC2ECD2E272F8D1CD02ED12E272F3F
:102DA200210052085304031DD72ED82E272F04309A
:102DB20054020318DD2EDE2EE62E0130A70027086E
:102DC200D4073230D2000030D3005A080319EA2E59
:102DD200EB2EFD2E6D080319EF2EF02E272F01305A
:102DE200ED02ED30A7002708F700F801F80A0230DB
:102DF200AB31CE239131272F6E080319012F022FF9
:102E0200272F5C08031D062F072F142F0130EE0217
:102E1200EE30A7002708F700F801F80A0130AB31BD
:102E2200CE239131272F02305C06031D192F1A2F52
:102E3200272F0130EE02EE30A7002708F700F80135
:102E4200F80A0330AB31CE239131272F21006508D8
:102E52006604031D2D2F2E2F792F5B08031D322FA1
:102E6200332F792F0130A7002708DB0020008D1CAB
:102E72003B2F3C2F792F0D1D3F2F402F792F0130F3
:102E82002100A7002708D70004305C06031D4A2F43
:102E92004B2F542FDA01F301F401F40ADC30A8318C
:102EA200CD209131792F03305C020318592F5A2F0C
:102EB200692F0130A7002708DC07DC30A7002708AC
:102EC200F700F801F80A0030AB31CE239131792FA7
:102ED200DC01DC30A7002708F700F801F80A00300F
:102EE200AB31CE239131792F0130EB000030EC0071
:102EF2002100550803197E2F7F2F812F0130D50223
:102F02005D085E04031D862F872FA22FE230E100A9
:102F12000430E2000130A7002708DA00DC30A70005
:102F22002708F700F801F80A0030AB31CE239131BF
:102F320004302100A7002708DC00FA30DD00003051
:102F4200DE0061086204031DA72FA82FB02FDA014B
:102F5200F301F401F40ADC30A831CD2091312100D3
:102F620063086404031DB62FB82FA431242CDA01A0
:102F7200E101E201D9010530A7002708DC00323067
:102F8200A7002708EE006430A7002708ED000030F4
:102F9200C9000030C8000030C7000030C600DC3075
:102FA200A7002708F700F801F80A0030AB31CE235A
:102FB2009131EE302100A7002708F700F801F80A46
:102FC2000130AB31CE239131EE302100A70027082A
:102FD200F700F801F80A0330AB31CE239131ED301E
:102FE2002100A7002708F700F801F80A0230AB31E8
:102FF200CE239131B62F8031A4288E31E02EF030CD
:1030020021009B0080309C009A019D010800FA017A
:10301200FB012000201C0E280F2813282208FA0783
:103022002308FB3D0130A235A30D890B1428013082
:10303200A136A00C890B192820082104031D22287F
:1030420023280A287B08A1007A08A0000800200093
:10305200DF004E0886008701403FD000413FD1008B
:1030620050088400510885001200253A031D3A28B1
:103072003B2812294E088600870101308107413121
:103082000318810A2100CA01CB01CE01CF01FF3012
:10309200CC00FF30CD0020004E0886008701403F63
:1030A200D000413FD1005008840051088500120031
:1030B200643A03195D285E286F284E08860087014E
:1030C200403FD000413FD1005008840051088500A4
:1030D2001200693A031D6E286F28AA284E0886003E
:1030E20087010130810741310318810A4F088600A8
:1030F200870101088400850102308107003FD0006A
:10310200013FD1005008D5005108D600890D893BF6
:103112008909D700D800D900DA00DB00DC005508A5
:10312200B0005608B1005708B2005808B300590859
:10313200B4005A08B5005B08B6005C08B7005F0827
:10314200A2314522983120003108CF003008CE004C
:1031520035294E0886008701403FD000413FD1000B
:1031620050088400510885001200733A031DBA28E2
:10317200BB28DD284E0886008701013081074131D6
:103182000318810A4F08860087010108840085011F
:1031920002308107003FDD00013FDE005E08FA00D9
:1031A2005D08F9005F08AE314B2698317A0820009D
:1031B200CF007908CE0035294E0886008701403FAE
:1031C200D000413FD1005008840051088500120010
:1031D200253A031DED28EE2807294E0886008701AF
:1031E2000130810741310318810A2530F100003096
:1031F200F2005F08D0005008F300AA311222983181
:1032020001302000CE000030CF0035294E08860064
:1032120087010130810741310318810ACE01CF01B4
:1032220035294E0886008701403FD000413FD1003A
:1032320050088400510885000008D200D3015208CA
:10324200F1005308F2005F08D4005408F300AA31D9
:103252001222983120004E08860087010130810732
:1032620041310318810A01290800740880392000BD
:10327200A0002008A8007435A0002008AA00F31FAF
:103282004329442945292A142A08031949294A2984
:103292005A292A0A031D4E294F2957290030F400C2
:1032A2000030F3000030F2000030F100F317F401B7
:1032B20062290030F4000030F3000030F2000030E8
:1032C200F10078088039A0002008A9002908280602
:1032D20003196C296D296E2928177835A00020085A
:1032E200A900F71F752976297729291429080319B6
:1032F2007B297C298C29290A031D80298129892976
:103302000030F8000030F7000030F6000030F50021
:10331200F717F80194290030F8000030F700003068
:10332200F6000030F5002A082902031899299A2983
:10333200DE29281F9D299E29A2298030A00020086D
:10334200A8062A08A0002008AB002908A00020082F
:10335200AA002B08A0002008A9007108A0002008DC
:10336200AB007508A0002008F1002B08A00020087F
:10337200F5007208A0002008AB007608A000200823
:10338200F2002B08A0002008F6007308A000200815
:10339200AB007708A0002008F3002B08A00020084B
:1033A200F7007408A0002008AB007808A0002008ED
:1033B200F4002B08A0002008F800AB012908A000A7
:1033C200A1012108A3002A082002A200031CA303D2
:1033D2002308803AA40080302402031DF2291A3007
:1033E2002202031CF529F6292E2A7408730472049A
:1033F2007104031DFD29FF290130002A003020003D
:10340200A0002008AB000030F4000030F3000030D0
:10341200F2000030F1002908A0002008AA00352A95
:103422002B1C142A152A1B2A2B360138A00020082F
:10343200AB001D2A0310AB0C711C202A212A222A60
:10344200AB170130A000F437F30CF20CF10CA00B17
:10345200242A0130A0002008AA07200029082A02F5
:10346200031C342A352A112A281B382A392A712AA0
:103472002A08031D3D2A3E2A472A0030F400003064
:10348200F3000030F2000030F1006D2B7508F107F7
:103492007608F23D7708F33D7808F43D741C522A11
:1034A200532AFD2A2B1C562A572A5D2A2B3601380D
:1034B200A0002008AB005F2A0310AB0C711C622A2B
:1034C200632A642AAB170130A000F437F30CF20C24
:1034D200F10CA00B662A0130A0002008AA07FD2AE1
:1034E2007408803AA0007808803A2002031D832ADB
:1034F20077087302031D832A76087202031D832A4A
:10350200750871020318862A872ABF2AFF30A00095
:10351200FF30A100FF30A200FF30A3007108750246
:10352200A4007208763BA5007308773BA6007408D6
:10353200783BA7002408A0072508A13D2608A23D44
:103542002708A33D2308F4002208F3002108F20013
:103552002008F1008030A0002008A806AB09AB0AC1
:103562002B08031DB52AB62AC72A0130F1070030FD
:10357200F23D0030F33D0030F43DC72A7508F102F8
:103582007608F23B7708F33B7808F43B740873043F
:1035920072047104031DCE2ACF2AF92A2B08031DB7
:1035A200D32AD42AF92A0030F4000030F300003084
:1035B200F2000030F1006D2B0130F135F20DF30D08
:1035C200F40D890BDE2AAB1FE72AE82AE92A7114D7
:1035D2002B1CEC2AED2AF02A0314AB0DF22A03105D
:1035E200AB0D2A080319F62AF72AF92A0130AA0292
:1035F200F31FFC2AFD2ADD2AA901AB1F012B022B96
:10360200102B2B087F390319072B082B0B2BA90131
:10361200A90A102B711C0E2B0F2B102B082B29081B
:103622000319142B152B422B0130F1070030F23D08
:103632000030F33D0030F43D741C202B212B422B33
:103642007108A0007208A1007308A2007408A30008
:103652000130A400A337A20CA10CA00CA40B2B2BAD
:103662002308F4002208F3002108F2002008F100E8
:103672002A0A03193D2B3E2B422B0130A0002008C1
:10368200AA072A0A0319462B472B4C2B2A08031D8B
:103692004B2B4C2B5A2B0030F4000030F30000303F
:1036A200F2000030F1002A08031D582B592B5A2B27
:1036B200A8012A1C5D2B5E2B602BF317642B7F3035
:1036C200A0002008F3052A36A0002008F400A81F55
:1036D2006B2B6C2B6D2BF41708002000D200CF014E
:1036E200922D4130CD004D08F1000B30F200003038
:1036F200F300D730A93143219B31710872040319B9
:10370200832B842BA82D2000D901DA01200059082F
:10371200413E8600013087000108CD005908D73E9E
:103722008600013087004D0881005908413E86001D
:10373200013087005908A03E84000130850000084E
:1037420001060319A52BA62BE62B4F08CD00CE01AF
:10375200CD35CE0DCD35CE0D21004108FC3E2000E9
:10376200A000FF3003180030A1005A08A300590836
:10377200A200983108209B3120004D082002D00081
:103782004E08213BD1005108AE005008AD00003078
:10379200AF00B0005908413E8600013087000108A1
:1037A200CD004D08B100A531DA259B312000590822
:1037B200413E8600013087000108CD005908A03E35
:1037C2008600013087004D0881005908413E86007D
:1037D2000130870020300106031DF02BF12BF52B61
:1037E2000130CD004D08CF070130D9070030DA3D56
:1037F2005A08803ACD0080304D02031D022C0B3056
:103802005902031C052C062C872B20005208AB31D1
:1038120011239B31A82D3630CD004D08F1000B301D
:10382200F2000030F300CC30A93143219B31710802
:10383200720403191D2C1E2CA82D2000D301D401C3
:1038420020005308363E8600013087000108CD0073
:103852005308CC3E8600013087004D088100530892
:10386200363E8600013087005308A03E84000130B6
:1038720085000008010603193F2C402C772C2100FB
:103882004108FC3E2000A000FF3003180030A100D8
:103892005408A3005308A200983108209B3120004D
:1038A2002108D1002008D0005108AE005008AD0018
:1038B2000030AF00B0005308363E8600013087006A
:1038C2000108CD004D08B100A531DA259B31200059
:1038D2005308363E8600013087000108CD005308A8
:1038E200A03E8600013087004D0881000130D307D9
:1038F2000030D43D5408803ACD0080304D02031D83
:10390200842C0B305302031C872C882C212C200082
:103912005208AB3111239B31A82DAB30CD004D089D
:10392200F1000B30F2000030F300C130A931432125
:103932009B317108720403199F2CA02CA82D200022
:10394200D501D60120005508AB3E86000130870024
:103952000108CD005508C13E8600013087004D08A0
:1039620081005508AB3E8600013087005508A03E15
:10397200840001308500000801060319C12CC22C05
:10398200F92C21004108FC3E2000A000FF30031862
:103992000030A1005608A3005508A2009831082063
:1039A2009B3120002108D1002008D0005108AE0030
:1039B2005008AD000030AF00B0005508AB3E8600A5
:1039C200013087000108CD004D08B100A531DA258C
:1039D2009B3120005508AB3E86000130870001086C
:1039E200CD005508A03E8600013087004D088100B9
:1039F2000130D5070030D63D5608803ACD008030E0
:103A02004D02031D062D0B305502031C092D0A2DF4
:103A1200A32C20005208AB3111239B31A82D2B304F
:103A2200CD004D08F1000B30F2000030F300B6304B
:103A3200A93143219B31710872040319212D222DD2
:103A4200A82D2000D701D801200057082B3E860060
:103A5200013087000108CD005708B63E86000130CC
:103A620087004D08810057082B3E860001308700F1
:103A72005708A03E840001308500000801060319A2
:103A8200432D442D7B2D21004108FC3E2000A00047
:103A9200FF3003180030A1005808A3005708A20005
:103AA200983108209B3120002108D1002008D00045
:103AB2005108AE005008AD000030AF00B00057080A
:103AC2002B3E8600013087000108CD004D08B10071
:103AD200A531DA259B31200057082B3E86000130A4
:103AE20087000108CD005708A03E860001308700FC
:103AF2004D0881000130D7070030D83D5808803A80
:103B0200CD0080304D02031D882D0B305702031C5F
:103B12008B2D8C2D252D20005208AB3111239B318A
:103B2200A82D5208CD00CE014E08003A03199A2D55
:103B3200A82D4D08013A0319722B033A03190C2CD4
:103B4200013A03198E2C073A0319102DA82D0800EB
:103B5200200031088039B6003608BB003135B60086
:103B62003608C100B01FB62DB72DB82D411441083B
:103B72000319BC2DBD2DCC2D410A031DC12DC22D13
:103B8200CA2D0030B1000030B0000030AF0000306C
:103B9200AE00B017D42D0030B1000030B0000030BC
:103BA200AF000030AE0035088039B6003608BB06DB
:103BB2003535B6003608C000B41FE02DE12DE22DE8
:103BC200401440080319E62DE72DF62D400A031D87
:103BD200EB2DEC2DF42D0030B5000030B400003098
:103BE200B3000030B200B417FE2D0030B500003033
:103BF200B4000030B3000030B20040080319022EB6
:103C0200032E082E4108031D072E082E112E003008
:103C1200B1000030B0000030AF000030AE00FF2F26
:103C22002E08B6003608F1003408903102209D318A
:103C320072082000C7007108C6004608B600B70126
:103C4200B801B9013908BF003808BE003708BD0005
:103C52003608BC004708B600B701B801B9013908F7
:103C6200C5003808C4003708C3003608C2002F0850
:103C7200B6003608F1003308903102209D317208F7
:103C82002000C7007108C6004608B600B701B80197
:103C9200B9013608BC073708BD3D3808BE3D3908B2
:103CA200BF3D4708B600B701B801B9013608C207DF
:103CB2003708C33D3808C43D3908C53D3008B60051
:103CC2003608F1003208903102209D31720820003E
:103CD200C7007108C6004608B600B701B801B901AD
:103CE2003608BC073708BD3D3808BE3D3908BF3D20
:103CF2004708B600B701B801B9013608C20737084C
:103D0200C33D3808C43D3908C53D0830BC35BD0D3A
:103D1200BE0DBF0D890B872E2F08B6003608F100A5
:103D22003208903102209D3172082000C7007108CC
:103D3200C6004608BC074708BD3D0030BE3DBF3D3A
:103D42002E08B6003608F1003308903102209D316A
:103D520072082000C7007108C6004608BC07470861
:103D6200BD3D0030BE3DBF3D0830BC35BD0DBE0D72
:103D7200BF0D890BB62E2E08B6003608F1003208A8
:103D8200903102209D3172082000C7007108C600E0
:103D92004608BC074708BD3D0030BE3DBF3D2F0869
:103DA200B6003608F1003408903102209D317208C5
:103DB2002000C7007108C6004608C2074708C33D75
:103DC2000030C43DC53D3008B6003608F100330866
:103DD200903102209D3172082000C7007108C60090
:103DE2004608C2074708C33D0030C43DC53D300800
:103DF200B6003608F1003408903102209D31720875
:103E02002000C7007108C6004608B6004708B70080
:103E1200B801B9010830B635B70DB80DB90D890B27
:103E22000C2F3608C2073708C33D3808C43D39088D
:103E3200C53D3C08B6003D08B7003E08B8003F0843
:103E4200B9001830B936B80CB70CB60C890B232F51
:103E52003608C2073708C33D3808C43D3908C53D96
:103E62000830BC35BD0DBE0DBF0D890B322F410888
:103E72004007B600B701B70D3608823EC600FF30D4
:103E8200373DC7005B2F0130C235C30DC40DC50DD0
:103E9200890B452FBF1F4E2F4F2F502F4214013039
:103EA200BC35BD0DBE0DBF0D890B512FFF30C607AE
:103EB200FF30C73DC41F5E2F5F2F442FC001BF1FBD
:103EC200632F642F802FFF303C05B600FF303D0585
:103ED200B700FF303E05B8007F303F05B900390812
:103EE2003804370436040319772F782F7B2FC0014B
:103EF200C00A802F421C7E2F7F2F802F782F4008F0
:103F02000319842F852FAD2F0130C2070030C33D26
:103F12000030C43D0030C53D451C902F912FAD2F80
:103F22004208B6004308B7004408B8004508B90083
:103F32000130BA00B937B80CB70CB60CBA0B9B2FCC
:103F42003908C5003808C4003708C3003608C20063
:103F52000130C6070030C73D4708803AB6008030BE
:103F62003602031DB62FFF304602031CB92FBA2FAB
:103F7200C42F7F302000C5008030C4000030C30051
:103F82000030C200F32F20004708803AB60080308C
:103F92003602031DCE2F013046020318D12FD22F35
:103FA200DD2F00302000C5000030C4000030C30007
:103FB2000030C200BB01F32F20004608B6003608CD
:103FC200C100FF30C205FF30C3057F30C405003099
:103FD200C505411CED2FEE2FEF2FC4174136B60059
:103FE2003608C5003B08B6003608C5044508B100CE
:0E3FF2004408B0004308AF004208AE000800CB
:10400400F5012130B631F226A0310030B631F22666
:10401400A0317F30B631F226A0312230B631F226FB
:10402400A0310030B631F226A0310730B631F22685
:10403400A031B6317B26A0317830B631A026A0312C
:104044004030B631A026A031F601F701F501F03079
:10405400F3002630F4007608730786007708743D71
:1040640087000108B631A026A0310130F6070030E0
:10407400F73D0130F3007308F50710307502031C97
:104084004428452829280130F6020030F73B013046
:10409400F6070030F73D043077020030031976024A
:1040A400031C552856282828B6317426A031080048
:1040B400F3012830860000308700473FF100F11FEC
:1040C4006428652886282000A809A909AA09AB093B
:1040D400AC09AD09AE09AF09A80A031D8428A90AD1
:1040E400031D8428AA0A031D8428AB0A031D8428FF
:1040F400AC0A031D8428AD0A031D8428AE0A031DDF
:104104008428AF0AF301F30A2030860000308700C8
:10411400473FF100F11F8F289028AF282000A00905
:10412400A109A209A309A409A509A609A709A00A26
:10413400031DAF28A10A031DAF28A20A031DAF283F
:10414400A30A031DAF28A40A031DAF28A50A031D53
:10415400AF28A60A031DAF28A70A200020082104BF
:104164002204230424042504260427040319BB2859
:10417400BC280F29F201F20ACB28A035A10DA20D0B
:10418400A30DA40DA50DA60DA70D0130F100710816
:10419400F207A71FCE28CF28BF2827082F02031D08
:1041A400ED2826082E02031DED2825082D02031DE7
:1041B400ED2824082C02031DED2823082B02031DDF
:1041C400ED2822082A02031DED2821082902031DD7
:1041D400ED2820082802031CF028F12801292008D2
:1041E400A8022108A93B2208AA3B2308AB3B2408C8
:1041F400AC3B2508AD3B2608AE3B2708AF3BA736B2
:10420400A60CA50CA40CA30CA20CA10CA00C0130B0
:10421400F202031D0E290F29CF287308031913294D
:1042240014293229A809A909AA09AB09AC09AD09BD
:10423400AE09AF09A80A031D3229A90A031D3229B0
:10424400AA0A031D3229AB0A031D3229AC0A031D35
:104254003229AD0A031D3229AE0A031D3229AF0AE1
:1042640020002808A0002908A1002A08A2002B0881
:10427400A3002C08A4002D08A5002E08A6002F08D2
:10428400A7000800F3012030860000308700473F74
:10429400F100F11F4E294F2970292000A009A1091E
:1042A400A209A309A409A509A609A709A00A031D2F
:1042B4006E29A10A031D6E29A20A031D6E29A30AF1
:1042C400031D6E29A40A031D6E29A50A031D6E2968
:1042D400A60A031D6E29A70AF301F30A28308600F3
:1042E40000308700473FF100F11F79297A299D2981
:1042F4002000A809A909AA09AB09AC09AD09AE09AE
:10430400AF09A80A031D9929A90A031D9929AA0A14
:10431400031D9929AB0A031D9929AC0A031D992988
:10432400AD0A031D9929AE0A031D9929AF0A01306C
:10433400F1007108F30674308600003087000830FD
:10434400F10000301E00F10BA429200020082104F4
:104354002204230424042504260427040319B3296E
:10436400B429102AF201F20AC329A035A10DA20D25
:10437400A30DA40DA50DA60DA70D0130F100710824
:10438400F207A71FC629C729B729F435F50DF60D7D
:10439400F70DF80DF90DFA0DFB0D27082F02031D7B
:1043A400ED2926082E02031DED2925082D02031DE3
:1043B400ED2924082C02031DED2923082B02031DDB
:1043C400ED2922082A02031DED2921082902031DD3
:1043D400ED2920082802031CF029F129022A2008CB
:1043E400A8022108A93B2208AA3B2308AB3B2408C6
:1043F400AC3B2508AD3B2608AE3B2708AF3B741405
:10440400A736A60CA50CA40CA30CA20CA10CA00C02
:104414000130F202031D0F2A102AC7297308031959
:10442400142A152A332AF409F509F609F709F809B3
:10443400F909FA09FB09F40A031D332AF50A031DD5
:10444400332AF60A031D332AF70A031D332AF80A0E
:10445400031D332AF90A031D332AFA0A031D332ADA
:10446400FB0A74082000A0007508A1007608A200C9
:104474007708A3007808A4007908A5007A08A600A4
:104484007B08A70008002000BB003008C4003108E6
:10449400C5003208C6003308C7003408C800350810
:1044A400C9003608CA003708CB0044308600003003
:1044B4008700473FB800B81B602A622A0130632A8C
:1044C40000302000B900BA013908C2003A08C3001C
:1044D4004208430403196F2A702A8E2AC409C509A5
:1044E400C609C709C809C909CA09CB09C40A031DF1
:1044F4008E2AC50A031D8E2AC60A031D8E2AC70AE0
:10450400031D8E2AC80A031D8E2AC90A031D8E2A7A
:10451400CA0A031D8E2ACB0A2100CD1B922A932A94
:10452400972AFD30CE05FF30CF054D08803A200094
:10453400B80080303802031DA22A013021004C0249
:104544000318A52AA62AAC2A01302000BE00003098
:10455400BF00B42A21004D082000BF0021004C08F0
:104564002000BE0021004B082000C10021004A08A1
:104574002000C00042084304031DC12AC22AC72ADE
:1045840021004E1DC62AC72ACC2AFF302000C007AE
:10459400FF30C13D1F302000CC000030CD0024008E
:1045A400E7013D2BFF302000CC07FF30CD3D0A3022
:1045B400A000A101A201A301A401A501A601A701D4
:1045C4004408A8004508A9004608AA004708AB000B
:1045D4004808AC004908AD004A08AE004B08AF00DB
:1045E400A0315A20A23120002108F5002008F4004F
:1045F400B7316427A2317408303E2000B8004C085B
:10460400483E86000230870038088100FF30BE072C
:10461400FF30BF3DFF30C007FF30C13D0A30A0006E
:10462400A101A201A301A401A501A601A7014408B7
:10463400A8004508A9004608AA004708AB00480896
:10464400AC004908AD004A08AE004B08AF00A131E8
:104654004421A23120002008C4002108C5002208FA
:10466400C6002308C7002408C8002508C900260876
:10467400CA002708CB0020004D08803AB8008030DB
:104684003802031D472B01304C02031C4A2B4B2BD1
:10469400782B200044084504460447044804490490
:1046A4004A044B04031D572B582BD42A3F08803A45
:1046B400B80080303802031D612B01303E0203181C
:1046C400642B652BD42A20004108803AB80080303E
:1046D4003802031D6F2B01304002031C722B732B15
:1046E400782B2100CE18772B782BD42A200042086F
:1046F4004304031D7E2B7F2B842B21004E1D832B13
:10470400842BA12BFF302000CC07FF30CD3D420885
:104714004304031D8E2B8F2B942B2B30BC000030B5
:10472400BD00982B2D30BC000030BD003C08B80003
:104734004C08483E8600023087003808810020007B
:104744004C08483EB8003808A7004108A9004008B2
:10475400A8003B08AA31B522A23120002808B100E4
:104764002708B0000800B7311C27A3318B170B179B
:1047740005302100A8000F30A700F130890BC02BB1
:10478400A70BC02BA80BC02BF301F401F40ADC30F7
:10479400A831CD20A331F301F30AF401F40AEE3079
:1047A400A831CD20A33102302100A7002708F3004F
:1047B400F401F40AED30A831CD20A3316530210095
:1047C4006E02031CE62BE72B002C3230A7002708CF
:1047D400EE00EE30A7002708F700F801F80A0130D0
:1047E400AB31CE23A331EE302100A7002708F70018
:1047F400F801F80A0330AB31CE23A3316530210030
:104804006D02031C062C072C152C6430A700270806
:10481400ED00ED30A7002708F700F801F80A023090
:10482400AB31CE23A3318C31EF24A33105302100E9
:10483400A8000F30A700F130890B1E2CA70B1E2CEB
:10484400A80B1E2CB6316926A33120008D182B2C01
:104854002C2C8C2C0D182F2C302C8C2C4130B73157
:104864009A27A3313630B7319A27A3316430200018
:10487400E800B830E9008630EA00B830EB003630A2
:10488400A8310E20A331AB30B7319A27A3312B3096
:10489400B7319A27A33101302100A7002708D70098
:1048A40057080319562C572C5B2CAE30B631F22620
:1048B400A3312100B601B60A05303602031C632C6D
:1048C400642C652C6F2C36089B316E23A331013088
:1048D4002100A7002708B6075E2C57080319732C7C
:1048E400742C7A2CAF30B631F226A3312100D701D3
:1048F4007A302100A800C130A7008130890B802CB8
:10490400A70B802CA80B802C003201302100A700BB
:104914002708D70020008D1A902C922C8D31B02DB1
:1049240002302100A7002708F300F401F40AED3057
:10493400A831CD20A3314130B7319A27A331763045
:104944002000E800B830E9004130A8310E20A3313E
:104954003630B7319A27A331AB30B7319A27A33118
:104964002B30B7319A27A3314E302000E800B830FD
:10497400E9000A30F1000030F20021006D08A700C0
:10498400A8012708F3002808F400AB316F23A331F2
:1049940072082000EB007108EA000A30F1000030D0
:1049A400F20021006D08A900AA012908F3002A08D1
:1049B400F400AA316222A33172082000ED007108CC
:1049C400EC002B30A8310E20A33121006D08A70084
:1049D400A801A901AA012A082000A300210029088E
:1049E4002000A200210028082000A100210027089F
:1049F4002000A0000130AD319E25A3312000230802
:104A0400B5002208B4002108B3002008B2004130E8
:104A1400B1000230B000F130AF00AA30AE009D31D9
:104A2400A925A33120003108CB003008CA002F0883
:104A3400C9002E08C800AC319E24A33120004908C7
:104A4400D2004808D100B6319426A3313F3020006B
:104A5400CB00EC30CA00CC30C900CD30C8004130A6
:104A6400B1002030B0000030AF000030AE002100B3
:104A74006D08A700A801A901AA012A082000A30023
:104A8400210029082000A200210028082000A100FC
:104A9400210027082000A0000030AD319E25A3315D
:104AA40020002308B5002208B4002108B300200820
:104AB400B20090312520A33120003108CF00300806
:104AC400CE002F08CD002E08CC00AD311325A33124
:104AD40003186D2D6E2D712D22000C14732D2200E0
:104AE4000C1021006D08A700A8012708F30028086E
:104AF400F4000A30F1000030F200AB316F23A3312F
:104B040071082000A0007208A100890D893B890961
:104B1400A200A3000130AD319E25A331200023085B
:104B2400CB002208CA002108C9002008C800403070
:104B3400CF000030CE000030CD000030CC00AD31CD
:104B44001325A331031CA72DA82DAB2D22008C14F3
:104B5400AD2D22008C10210057080319B22DB32D5E
:104B6400B72DAE30B631F226A3312100B701B70A12
:104B740005303702031CBF2DC02DC12DCB2D3708A6
:104B84009B316E23A33101302100A7002708B7070A
:104B9400BA2D57080319CF2DD02DD62DAF30B631ED
:104BA400F226A3312100D701B401B5018D31AB2D1B
:104BB4002000C801C901CA01CB01BA01BB0121000F
:104BC40042080739031DE72DE82D162F4108200060
:104BD400B200B3013208A0003308A1000830F1008C
:104BE4000030F200210042082000B400B50134086E
:104BF400F3003508F400AB316F23A53172082000AF
:104C0400A3007108A20098310820A53120002108D2
:104C1400BF002008BE002100430820003102A0008C
:104C2400A101031CA1033F08A3003E08A200983180
:104C34000820A53120002008043EC2000030213D98
:104C4400C300C801C901FA2E0230CA000030CB00EB
:104C5400E32E210041082000B200B3013208A00075
:104C64003308A1004908A3004808A200983108208D
:104C7400A5312000200821003F072000B4002108AE
:104C84002100403D2000B50042083407B600430827
:104C9400353DB70036084A07840037084B3D850088
:104CA4000008B800B9013808BA003908BB00CC01C3
:104CB4000130B2000030B3004C0A622EB235B30D9D
:104CC400890B602E3A083205B4003B083305B50061
:104CD4003408350403196F2E702ECD2E210045089B
:104CE400031D752E762EA22E20004A082D07B20031
:104CF4004B082E3DB3003208FE3EA000FF30333D8A
:104D0400A1004C08B400B5014908B7004808B60032
:104D1400B635B70DB635B70DB635B70D3408360709
:104D2400B8003508373DB9002F083807A20030080D
:104D3400393DA300A401A40AAF312227A531D42E02
:104D440020004A082D07B2004B082E3DB30032085C
:104D5400FE3EA000FF30333DA1004C08B400B50175
:104D64004908B7004808B600B635B70DB635B70DD3
:104D7400B635B70D34083607B8003508373DB900E5
:104D84002F083807A2003008393DA300A401AF3131
:104D94002227A531D42E21004508031DD22ED32E5F
:104DA400762EA22E01302000B2003208CC07083043
:104DB4004C02031CDE2EDF2E5A2E0130CA070030AF
:104DC400CB3D21004108FE3E2000B200FF30031815
:104DD4000030B30033084B02031DF22E32084A029E
:104DE400031CF52EF62E2B2E0130C8070030C93DCA
:104DF4000830F1000030F200210042082000B20027
:104E0400B3013208F3003308F400AB316F23A5314A
:104E1400720820004902031D112F71084802031C67
:104E2400142F152F262EFF2F0830F1000030F2002A
:104E340041082000B200B3013208A0003308A100E9
:104E4400210042082000B400B5013408A20035084E
:104E5400A30098310820A53120002108F40020087F
:104E6400F300AB316F23A53172082000BF00710835
:104E7400BE002100430820003102A000A101031C50
:104E8400A1033F08A3003E08A20098310820A531E1
:104E940020002008043EC2000030213DC300210050
:104EA4003F08200042078400210040082000433DC1
:104EB40085000008B200B3013208BC003308BD000D
:104EC4000730C0000030C100C401C501F02F20002C
:104ED400C601C701DC2F01302000B2000030B3004E
:104EE400400A762FB235B30D890B742F3C08320576
:104EF400B4003D083305B500340835040319832F85
:104F0400842FAF2F21004508031D892F8A2F9D2F41
:104F1400200044082D07A00045082E3DA1004608A6
:104F24002F07A2004708303DA300A401A40AAF3113
:104F34002227A531B62F200044082D07A0004508DC
:104F44002E3DA10046082F07A2004708303DA300CC
:104F5400A401AF312227A531B62F21004508031D36
:104F6400B42FB52F8A2F9D2FFF302000C007FF30AC
:104F7400C13DC11FBE2FBF2FD82F0730C000003046
:104F8400C1000130C2070030C33D21003F082000AA
:104F940042078400210040082000433D85000008AA
:104FA400B200B3013208BC003308BD000130C607AB
:104FB4000030C73D4708803AB20080303202031DFA
:104FC400E72F2100420820004602031CEA2FEB2FA2
:104FD4006D2F01302000C4070030C53D4508803ADC
:104FE400B20080303202031DFB2F21004108200053
:0C4FF4004402031CFE2FFF2F692F080051
:10500200CF3021009E00E030290091000230920052
:105012008E018F012530900008002100A6006A3021
:105022002000EE006E082100A00026082000EE00FD
:105032006E082100A100A201A301A401A501200084
:105042006908E1006808E000A030EE006E08E200A6
:10505200A130A8316420A8312100220826072000AF
:10506200EE006E08860001308700810108002834B6
:105072006E3475346C346C342934003400347D342D
:10508200003400342E342E342E342E342E342E346A
:105092002E342E342E342E3400342E342E342E342C
:1050A2002E342E342E342E342E342E342E3400341C
:1050B2002E342E342E342E342E342E342E342E34DE
:1050C2002E342E3400342000E5006108E700600829
:1050D200E6002200E901EA0182286630E300630863
:1050E200CE006208E4006408CF00650898312820E9
:1050F200A83120004E082200E90720004F082200B4
:10510200EA3D200066088400670885001200031D3E
:105112008B288C286E2822006A082000E1002200D9
:1051220069082000E000080022008C018D018E0138
:10513200083021009000B8308C00FF308D00FF3025
:105142008E0023008E0108308D0004308C00240074
:1051520090018D018C018E012100971725008C0191
:105162008D018E01FF3026008C00FF308D00E7306C
:105172008E003F3027008C00F0308D00FF308E0013
:1051820014303C00BB0021303D00A3002230A400BB
:1051920013303C00BA000800F9007308F500F6016C
:1051A2000530F535F60D890BD2287508803EF700DB
:1051B2003F30763DF800213074020318E128E228DE
:1051C200062904307302031CE728E828012906296E
:1051D2007808F2007708F100B631D126A8317108BB
:1051E200F500790886008701750881000130F7070C
:1051F2000030F83D0130F5007508F9070130F4027E
:105202007408031D05290629E928080072082100EF
:10521200C0007108BF007108840072088500000890
:10522200F3007308C1007208F4007108F300013042
:105232007307840074080318740A85000008F500D7
:105242007508C2007208F4007108F3000230730797
:10525200840074080318740A85000008F5007508B4
:10526200C3007208F4007108F3000330730784006E
:1052720074080318740A85000008F5007508C40054
:10528200C5010800F5007508F4007408F6007108FD
:10529200F4007408F70059290130F2020030F33BA0
:1052A2000130F4007408F6070130F4007408F707BF
:1052B2007208730403195E295F296D297708860035
:1052C200013087007608840001308500000801065D
:1052D20003196C296D294D2972087304031D722963
:1052E20073297629F101F2018429760886000130BA
:1052F2008700770884000130850000080102F10070
:10530200F201031CF20308002E342E342E342E3404
:105312002E342E342E342E342E342E3400342E34A9
:105322002E342E342E342E342E342E342E342E346B
:105332002E3400342E342E342E342E342E342E3489
:105342002E342E342E342E3400342E342E342E3479
:105352002E342E342E342E342E342E342E34003469
:105362002E342E342E342E342E342E342E342E342B
:105372002E342E3400342E342E342E342E342E3449
:105382002E342E342E342E342E3400342000540881
:105392005304520451040319CF29D029092ADA01EE
:1053A200DA0ADE290130D135D20DD30DD40D890BA5
:1053B200D4290130D9005908DA07D41FE129E2299A
:1053C200D32954085802031DF02953085702031D1C
:1053D200F02952085602031DF02951085502031CF8
:1053E200F329F429FC295108D5025208D63B530867
:1053F200D73B5408D83B0130D436D30CD20CD10C55
:10540200890BFD290130DA02031D082A092AE22943
:105412005808D4005708D3005608D2005508D100C6
:10542200080073080319162A172A1C2A7308031D79
:105432001B2A1C2A212A710890310120AA31612AD3
:105442007308033E860087011600010403192A2A05
:105452002B2A482A7308033E86008701403FF40046
:10546200413FF500730A86008701403FF600413F45
:10547200F7007708803AF8007508803A7802031D31
:10548200442A740876020318472A482A612A7108B6
:10549200F400730886008701730A840085010008FE
:1054A2000107F50075088600013087007408810045
:1054B200730A860087010130810741310318810A8E
:1054C2000800F701F41F662A672A6E2AF309F40915
:1054D200F30A0319F40AF701F70AF21F712A722A72
:1054E200772AF109F209F10A0319F20A7108720422
:1054F20003197C2A7D2AA62AF601F60A892A013096
:10550200F135F20D890B812A0130F5007508F60795
:10551200F21F8C2A8D2A802A72087402031D932A94
:1055220071087302031C962A972A9B2A7108F302B8
:105532007208F43B0130F236F10C890B9C2A0130DF
:10554200F602031DA52AA62A8D2A77080319AA2A7C
:10555200AB2AB02AF309F409F30A0319F40A74080E
:10556200F2007308F10008002000AE0021004E1C7A
:10557200BB2ABC2AC52A20002E08FA007A08F900A4
:105582002708B731D727AA312000A91BC92ACA2A5E
:10559200CF2A2908AD002808AC00D12AAC01AD0100
:1055A200AA01AB01E52A2030F1000030F200200010
:1055B2002E08FA007A08F300AA311222AA31013029
:1055C2002000AA070030AB3D2B08803AFA002D08D4
:1055D200803A7A02031DEF2A2C082A02031CF22ABF
:1055E200F32AD42A21004E18F72AF82A012B200088
:1055F2002E08FA007A08F9002708B731D727AA310E
:1056020020002708F1000230F200B7314B27AA31FF
:1056120020002C087107A7002D08723DA800080081
:10562200F5007535FE3EF3007308F6002130B63101
:10563200F226AB310030B631F226AB317F30B631D3
:10564200F226AB312230B631F226AB317608B631D2
:10565200F226AB317608013EB631F226AB31B631D5
:105662007B26AB317830B631A026AB314030B63133
:10567200A026AB31F801F901F701F030F300263032
:10568200F4007808730786007908743D87000108E2
:10569200B631A026AB310130F8070030F93D0130B8
:1056A200F3007308F70710307702031C592B5A2BAB
:1056B2003E2B0130F8020030F93B0130F807003090
:1056C200F93D01307902003003197802031C6A2B7C
:1056D2006B2B3D2BB6317426AB310800F701F21F5C
:1056E200732B742B7B2BF109F209F10A0319F20ACD
:1056F200F701F70AF41F7E2B7F2B882BF309F4099D
:10570200F30A0319F40A0130F5007508F706F801E7
:10571200F9017108720403198F2B902BBF2BF6012C
:10572200F60A9C2B0130F135F20D890B942B0130D6
:10573200F5007508F607F21F9F2BA02B932B013063
:10574200F835F90D890BA12B72087402031DAB2BDE
:1057520071087302031CAE2BAF2BB42B7108F3023A
:105762007208F43B78140130F236F10C890BB52B38
:105772000130F602031DBE2BBF2BA02B77080319A5
:10578200C32BC42BC92BF809F909F80A0319F90A22
:105792007908F2007808F10008002000A000200833
:1057A200F900FA010530F935FA0D890BD42B790885
:1057B200803EA1003F307A3DA200213078020318DA
:1057C200E32BE42B2D2C04302002031CE92BEA2BC3
:1057D200EB2B2D2C2208F2002108F100B7313227E1
:1057E200AB31122C20002208F2002108F1007708C8
:1057F200860087010108F900FA017908F3007A08A6
:10580200F400F501F50AB731B727AB310130F900E1
:105812007908F70701302000A1070030A23D0130CE
:10582200F802023078020318172C182CF32B2000F0
:105832002208F2002108F10077088600870101089A
:10584200F900FA017908F3007A08F400F501B7319A
:10585200B727AB31230015080800AE30B631F22667
:10586200AC31D530B631F226AC31F030B631F22659
:10587200AC31A830B631F226AC313F30B631F22627
:10588200AC31D330B631F226AC310030B631F2262B
:10589200AC314030B631F226AC318D30B631F22621
:1058A200AC311430B631F226AC312030B631F226AA
:1058B200AC310030B631F226AC31A130B631F2262D
:1058C200AC31C830B631F226AC31DA30B631F2261C
:1058D200AC311230B631F226AC318130B631F2261B
:1058E200AC31FF30B631F226AC31D930B631F226C6
:1058F200AC31F130B631F226AC31DB30B631F226C2
:10590200AC314030B631F226AC31A430B631F22699
:10591200AC31A630B631F226AC312E30B631F22699
:10592200AC31AF30B631F226AC310030F10081300B
:10593200F200A9310721AC310800031020004A0D02
:105942004B0DCC004C08FB007B08031DA92CAA2C94
:10595200B32C0030CB000030CA000030C900003048
:10596200C800122D4808CC004908CD004A08CE00D4
:105972004B08CF001F30CF36CE0CCD0CCC0C890B90
:10598200BC2C4C08D0005008FA00CA17FF30C805DA
:10599200FF30C905FF30CA050030CB059630FB0247
:1059A200FB1FD42CD52CED2C7B08803A973E031894
:1059B200DB2CDC2CDD2CAA2C0130CB36CA0CC90C1A
:1059C200C80C890BDE2C0130CC004C08FB07031DF0
:1059D200EB2CEC2CDD2C022D20307B02031CF22C54
:1059E200F32CFD2CAA2C0130C835C90DCA0DCB0DE4
:1059F200890BF52C0130FB027B08031D012D022DC2
:105A0200F42C7A080319062D072D122DC809C9098D
:105A1200CA09CB09C80A0319C90A0319CA0A031910
:105A2200CB0A0800003020004805D00000304905AC
:105A3200D10080304A05D2007F304B05D300530895
:105A4200520451045004031D272D282D302D0030FF
:105A5200CB000030CA000030C9000030C80000305E
:105A62004C05D00000304D05D10080304E05D200EB
:105A72007F304F05D3005308520451045004031DD4
:105A8200432D442D4C2D0030CF000030CE0000308D
:105A9200CD000030CC00CB1F4F2D502D682D003093
:105AA200D0000030D1000030D2008030D30048084E
:105AB200D0024908D13B4A08D23B4B08D33B53089A
:105AC200CB005208CA005108C9005008C800CF1FB5
:105AD2006B2D6C2D842D0030D0000030D1000030B1
