:020000040000FA
:100000008031C128803008007E1480318B1E092881
:100010000A28BF280B1D0D280E28BF280B11003001
:1000200020000D1A01302E003706031D182819284C
:100030002328003020008C1901302E0038060319C7
:100040002228232827280130FD007D08B900003030
:1000500020008C1901302E00B800003020000D1A4D
:1000600001302E00B7003B080319372838284228F2
:100070005B085C0403193D283E284228FF30DB075B
:10008000FF30DC3D5F0860040319472848287A28C0
:1000900063086404031D4D284E287A286108620411
:1000A000031D532854287A2859085A04031959283B
:1000B0005A287E280130D9020030DA3B59085A0408
:1000C000031D632864287E283030DB007530DC0097
:1000D000BB01BB0A4030FD007D08F600F701F70ABE
:1000E0000030AF31422780310430FD007D082E0002
:1000F000C0007E28B830D9000B30DA0063086404F1
:100100000319832884289B2861086204031D892819
:100110008A289B285F086004031D8F2890289B284D
:100120005D085E040319952896289F28FF30DD0797
:10013000FF30DE3D9F28B830DD000B30DE00630865
:1001400064040319A428A528B528610862040319CA
:10015000AA28AB28B5285F0860040319B028B12885
:10016000B528AB01AC01AF01BC012B082C0403196D
:10017000BA28BB28BF280130AB020030AC3B7E1050
:1001800009008031C32832308400AA3085005930FC
:100190008600073087000030FF001030A931FF21B2
:1001A000803173308400AB308500C3308600073067
:1001B00087000030FF002030A931FF21803153300B
:1001C0008400AB3085005030860008308700003056
:1001D000FF002030A931FF21803100308400203021
:1001E0008500F030FE000330FF00A931F32180319B
:1001F0002D00EF0120308400073085002130FE0003
:100200000030FF00A931F3218031A0308400073095
:1002100085002330FE000030FF00A931F32180313A
:1002200020308400083085003030FE000030FF00B0
:10023000A931F3218031A0308400083085003030AE
:10024000FE000030FF00A931F32180317E10200034
:100250009C31102C1034103420345F3400340034BE
:1002600000340034003400340034003400340034EE
:1002700000340034003400340034003400340034DE
:1002800000340034003400340034003400340034CE
:1002900000340034003400340034003400340034BE
:1002A00000340034F834FC34FC34FC34F8340034CA
:1002B000003400340034003400340034003400349E
:1002C0000034003400347334733473340034003435
:1002D000003400340034003400340034003400347E
:1002E000003400341E343E343E34003400340034D4
:1002F0003E343E341E3400340034003400340034C4
:10030000003400340034003400340034003400344D
:10031000003400340034003400340034003430340D
:1003200030343034FE34FE34303430343034303411
:10033000FE34FE34303430343034003400340C3485
:100340000C340C347F347F340C340C340C340C34C7
:100350007F347F340C340C340C34003400340034DB
:100360000034F034F8349834FE3498349834FE3441
:100370009834983418340034003400340034003495
:1003800000341834193419347F34193419347F3453
:1003900019341F340F340034003400340034003476
:1003A000003400343834383438348034C034E034E5
:1003B00070343834003400340034003400340034F5
:1003C000003400341C340E340734033401341C343C
:1003D0001C341C3400340034003400340034003445
:1003E00000343834FC34C434C434FC34383400347D
:1003F00000340034803400340034003400340034DD
:1004000000341E343F342134213433343F341E341D
:100410001E343734233400340034003400340034C4
:100420000034003420343C343C341C340034003478
:10043000003400340034003400340034003400341C
:10044000003400340034003400340034003400340C
:1004500000340034003400340034003400340034FC
:1004600000340034C034E034F03438341C340C34FC
:1004700004340434003400340034003400340034D4
:1004800000340034033407340F341C34383430342F
:10049000203420340034003400340034003400347C
:1004A00000340034043404340C341C343834F03454
:1004B000E034C034003400340034003400340034FC
:1004C0000034003420342034303438341C340F34B9
:1004D0000734033400340034003400340034003472
:1004E000803488349034E034E034FC34FC34E0343C
:1004F000E0349034883480340034003400340034E4
:10050000013411340934073407343F343F3407349D
:100510000734093411340134003400340034003419
:1005200000340034803480348034F034F03480344B
:10053000803480340034003400340034003400341B
:10054000003400340134013401340F340F340134E9
:1005500001340134003400340034003400340034F9
:1005600000340034003400340034003400340034EB
:1005700000340034003400340034003400340034DB
:100580000034003440347834783438340034003463
:1005900000340034003400340034003400340034BB
:1005A000003480348034803480348034803480342B
:1005B000803480348034003400340034003400341B
:1005C0000034013401340134013401340134013484
:1005D0000134013401340034003400340034003478
:1005E000003400340034003400340034003400346B
:1005F000003400340034003400340034003400345B
:1006000000340034003438343834383400340034A2
:10061000003400340034003400340034003400343A
:1006200000340034003400340034003400348034AA
:10063000C034E034703438341C34003400340034B6
:1006400000342034303438341C340E34073403344E
:1006500001340034003400340034003400340034F9
:100660000034F834FC34FC3404348434E43474341A
:10067000FC34FC34F83400340034003400340034EA
:1006800000341F343F343F342E3427342134203497
:100690003F343F341F34003400340034003400341D
:1006A0000034603460346034F034FC34FC340034A2
:1006B000003400340034003400340034003400349A
:1006C00000342034203420343F343F343F3420344D
:1006D000203420340034003400340034003400343A
:1006E000003418341C341C34043404348434CC34C2
:1006F000FC347834303400340034003400340034B6
:100700000034303438343C342E342734233421340C
:100710003834383438340034003400340034003491
:10072000003418341C341C34843484348434CC3481
:100730007C347834303400340034003400340034F5
:1007400000341834383438342134213421343334EB
:100750003E341E340C340034003400340034003491
:1007600000348034C034603430341834FC34FC3409
:10077000FC340034003400340034003400340034DD
:100780000034033403340334233423343F343F34FC
:100790003F34233423340034003400340034003434
:1007A0000034FC34FC34FC348434843484348434A5
:1007B000843404340434003400340034003400340D
:1007C0000034193439343934213421342134333468
:1007D0003F341F340E34003400340034003400340D
:1007E0000034E034F034F8349C348C348434843471
:1007F0008434803400340034003400340034003455
:1008000000341F343F343F34213421342134213427
:100810003F343F341F34003400340034003400349B
:1008200000343C343C343C34043404340434043464
:100830008434FC34FC347C34003400340034003420
:10084000003400340034003438343C343E3407344F
:1008500003340134003400340034003400340034F4
:10086000003478347C34FC34C434C4348434843468
:10087000FC347C34783400340034003400340034E8
:1008800000341E343E343F342134213423342334A5
:100890003F343E341E34003400340034003400341D
:1008A0000034F834FC34FC348434843484348434A8
:1008B000FC34FC34F83400340034003400340034A8
:1008C00000340034013421342134213431343934BA
:1008D0001F340F3407340034003400340034003443
:1008E0000034003400340034703470347034003418
:1008F0000034003400340034003400340034003458
:1009000000340034003400340E340E340E3400341D
:100910000034003400340034003400340034003437
:1009200000340034003400347034703470340034D7
:100930000034003400340034003400340034003417
:1009400000340034003410341E341E340E340034AD
:1009500000340034003400340034003400340034F7
:1009600000348034C034E034703438341C340E34F5
:1009700006340234003400340034003400340034CF
:1009800000340134033407340E341C3438347034EA
:100990006034403400340034003400340034003417
:1009A00060346034603460346034603460346034A7
:1009B0006034603460346034003400340034003417
:1009C0000634063406340634063406340634063457
:1009D000063406340634063400340034003400345F
:1009E0000034023406340E341C3438347034E034AD
:1009F000C034803400340034003400340034003417
:100A0000003440346034703438341C340E340734CD
:100A10000334013400340034003400340034003432
:100A2000003418341C340C340E3406348634CE347E
:100A3000FC347C3438340034003400340034003466
:100A400000340034003400340034733473347334AD
:100A500000340034003400340034003400340034F6
:100A60000034FC34FE34FE3402340234C234C23466
:100A7000C234FE34FE34FC3400340034003400341C
:100A800000343F343F347F34603460346334633443
:100A900063346334433403340034003400340034AA
:100AA0000034E034F034F8341C340C340C341C348E
:100AB000F834F034E03400340034003400340034CE
:100AC00000343F343F343F340234023402340234C1
:100AD0003F343F343F3400340034003400340034B9
:100AE00000340434FC34FC34FC34843484348434E2
:100AF000FC34FC34783400340034003400340034E6
:100B0000003420343F343F343F3421342134213405
:100B10003F343F341E340034003400340034003499
:100B20000034F034F834FC340C3404340434043429
:100B30001C341C34183400340034003400340034C5
:100B400000340F341F343F34303420342034203408
:100B5000383438341834003400340034003400346D
:100B600000340434FC34FC34FC34043404340C34D9
:100B7000FC34F834F03400340034003400340034F1
:100B8000003420343F343F343F3420342034303478
:100B90003F341F340F340034003400340034003448
:100BA00000340434FC34FC34FC3484348434843421
:100BB000C434CC341C3400340034003400340034E9
:100BC000003420343F343F343F3421342134213445
:100BD00023343334383400340034003400340034E7
:100BE00000340434FC34FC34FC34843484348434E1
:100BF000C434CC341C3400340034003400340034A9
:100C0000003420343F343F343F3421340134013444
:100C1000033403340034003400340034003400342E
:100C20000034F034F834FC340C3404340434043428
:100C30003C343C3438340034003400340034003464
:100C400000340F341F343F34303420342234223403
:100C50003E343E343E34003400340034003400343A
:100C60000034FC34FC34FC34803480348034FC3474
:100C7000FC34FC34003400340034003400340034DC
:100C800000343F343F343F340134013401343F34C5
:100C90003F343F3400340034003400340034003436
:100CA0000034003404340434FC34FC34FC340434A4
:100CB0000434003400340034003400340034003490
:100CC00000340034203420343F343F343F34203467
:100CD0002034003400340034003400340034003454
:100CE0000034003400340034003404340434FC3460
:100CF000FC34FC3404340434003400340034003454
:100D00001E341E343E3420342034203420343F340A
:100D10003F341F34003400340034003400340034D5
:100D200000340434FC34FC34FC34C034E03470341B
:100D30003C341C340C3400340034003400340034AF
:100D4000003420343F343F343F34033407340E340E
:100D50003C3438343034003400340034003400344F
:100D600000340434FC34FC34FC34043400340034E7
:100D700000340034003400340034003400340034D3
:100D8000003420343F343F343F3420342034203486
:100D9000303438343C34003400340034003400340F
:100DA0000034FC34FC34FC347834F034E034F03477
:100DB0007834FC34FC34FC34003400340034003427
:100DC00000343F343F343F340034003401340034C5
:100DD00000343F343F343F340034003400340034B6
:100DE0000034FC34FC34FC347034E034C0348034DF
:100DF0000034FC34FC34FC3400340034003400345F
:100E000000343F343F343F34003400340134033481
:100E100007343F343F343F3400340034003400346E
:100E20000034E034F034F8341C340C340C340C341A
:100E30001C34F834F034E03400340034003400342E
:100E4000003407340F341F34383430343034303405
:100E500038341F340F340734003400340034003485
:100E600000340434FC34FC34FC348434843484345E
:100E7000FC34FC3478340034003400340034003462
:100E8000003420343F343F343F34213401340134C2
:100E900001340134003400340034003400340034B0
:100EA0000034E034F834F8341C340C3404340C349A
:100EB0001C34F834F834E0340034003400340034A6
:100EC000003407341F341F34183418345C345E3453
:100ED0007E347F347F3447340034003400340034AF
:100EE00000340434FC34FC34FC34843484348434DE
:100EF000FC34FC34783400340034003400340034E2
:100F0000003420343F343F343F340134013403345F
:100F10003F343F343C340034003400340034003477
:100F200000347834FC34FC348434843484348434A1
:100F3000BC343C34383400340034003400340034E1
:100F400000341C343C343D342134213421342134E8
:100F50003F343F341E340034003400340034003455
:100F600000341C340C3404340434FC34FC34FC34BD
:100F7000043404340C341C340034003400340034A1
:100F8000003400340034203420343F343F343F34C4
:100F90002034203400340034003400340034003471
:100FA0000034FC34FC34FC34003400340034FC34B1
:100FB000FC34FC3400340034003400340034003499
:100FC00000341F343F343F342034203420343F3445
:100FD0003F341F3400340034003400340034003413
:100FE0000034FC34FC34FC34003400340034FC3471
:100FF000FC34FC3400340034003400340034003459
:10100000003407340F341F343834303438341F344C
:101010000F3407340034003400340034003400341A
:101020000034FC34FC34FC340034003480340034AC
:101030000034FC34FC34FC3400340034003400341C
:10104000003403340F343F343C343C340F343C34EC
:101050003C343F340F340334003400340034003463
:1010600000341C343C347C34E034C034E0347C3410
:101070003C341C3400340034003400340034003478
:10108000003438343C343E340734033407343E34BF
:101090003C3438340034003400340034003400343C
:1010A00000347C34FC34FC34803400348034FC3430
:1010B000FC347C3400340034003400340034003418
:1010C00000340034203421343F343F343F34213461
:1010D0002034003400340034003400340034003450
:1010E00000343C341C340C3404348434C434E434CC
:1010F0007C343C341C34003400340034003400347C
:10110000003438343C343E34273423342134203402
:10111000303438343C34003400340034003400348B
:10112000003400340034FC34FC34FC340434043423
:101130000434043400340034003400340034003407
:101140000034003400343F343F343F342034203402
:1011500020342034003400340034003400340034AF
:1011600000341C3438347034E034C03480340034FB
:1011700000340034003400340034003400340034CF
:1011800000340034003400340034013403340734B4
:101190000E341C34183430342034203400340034FD
:1011A0000034003400340434043404340434FC3493
:1011B000FC34FC3400340034003400340034003497
:1011C00000340034003420342034203420343F34C0
:1011D0003F343F34003400340034003400340034F1
:1011E00000342034303438341C340E340E341C3483
:1011F00038343034203400340034003400340034C7
:10120000003400340034003400340034003400343E
:10121000003400340034003400340034003400342E
:10122000003400340034003400340034003400341E
:101230000034003400340034003400340034C0344E
:10124000C034C034C034C034C034C034C034C034FE
:10125000C034C034C034C034C034C034003400346E
:1012600000340C340C343C3430343034003400342A
:1012700000340034003400340034003400340034CE
:1012800000340034003400340034003400340034BE
:1012900000340034003400340034003400340034AE
:1012A0000034003440344034403440344034C0349E
:1012B000C03480340034003400340034003400344E
:1012C00000341C343E343E342234223422343F3441
:1012D0001F343F34203400340034003400340034F0
:1012E00000340434FC34FC34FC34403440344034A6
:1012F000C034C0348034003400340034003400344E
:10130000003420343F341F343F3420342034203420
:101310003F343F341F340034003400340034003490
:1013200000348034C034C034403440344034C0349D
:10133000C0348034003400340034003400340034CD
:1013400000341F343F343F342034203420343934C7
:10135000393419340034003400340034003400349B
:1013600000348034C034C034403440344434FC341D
:10137000FC34FC34043400340034003400340034D1
:1013800000341F343F343F342034203420343F3481
:101390001F343F342034003400340034003400342F
:1013A00000348034C034C034403440344034C0341D
:1013B000C03480340034003400340034003400344D
:1013C00000341F343F343F342234223422343B343F
:1013D0003B341B3400340034003400340034003417
:1013E000003480348034F834FC34FC3484349C344D
:1013F0009C34183400340034003400340034003499
:101400000034213421343F343F343F3421342134FB
:10141000013400340034003400340034003400342B
:1014200000348034C034C034403440344034C0349C
:101430008034C0344034003400340034003400348C
:1014400000344734CF34DF34983498349834FF3440
:10145000FF347F340034003400340034003400346E
:1014600000340434FC34FC34FC34803440344034E4
:10147000C034C034803400340034003400340034CC
:10148000003420343F343F343F34013400340034DE
:101490003F343F343F3400340034003400340034EF
:1014A00000340034403440344034DC34DC34DC3448
:1014B000003400340034003400340034003400348C
:1014C000003400342034203420343F343F343F345F
:1014D000203420342034003400340034003400340C
:1014E0000034003400340034403440344034DC34C0
:1014F000DC34DC3400340034003400340034003494
:10150000003420346034E03480348034C034FF341C
:10151000FF347F34003400340034003400340034AD
:1015200000340434FC34FC34FC34003400348034A3
:10153000C034C0344034003400340034003400344B
:10154000003420343F343F343F34023407340F3406
:101550003D34383430340034003400340034003446
:1015600000340034043404340434FC34FC34FC34DB
:1015700000340034003400340034003400340034CB
:10158000003400342034203420343F343F343F349E
:10159000203420342034003400340034003400344B
:1015A0000034C034C034C03440344034C0344034DB
:1015B0004034C034C034803400340034003400344B
:1015C00000343F343F343F34003400343F3400347F
:1015D00000343F343F343F340034003400340034AE
:1015E0000034C034C034C034403440344034C0349B
:1015F000C03480340034003400340034003400340B
:1016000000343F343F343F340034003400343F343E
:101610003F343F34003400340034003400340034AC
:1016200000348034C034C034403440344034C0349A
:10163000C0348034003400340034003400340034CA
:1016400000341F343F343F342034203420343F34BE
:101650003F341F340034003400340034003400348C
:1016600000344034C0348034C034403440344034DA
:10167000C034C034803400340034003400340034CA
:1016800000348034FF34FF34FF349034103410348D
:101690001F341F340F34003400340034003400345D
:1016A0008034C034C034403440344034C03480349A
:1016B000C03440340034003400340034003400348A
:1016C0000F341F341F34103410349034FF34FF347F
:1016D000FF348034003400340034003400340034EB
:1016E00000344034C034C034C0348034C034C034DA
:1016F000C034C0348034003400340034003400344A
:10170000003420343F343F343F342134003400343B
:101710000134013401340034003400340034003426
:1017200000348034C034C034403440344034403419
:10173000C0348034003400340034003400340034C9
:10174000003419343B3423342634263426343C34D4
:101750003D34193400340034003400340034003493
:10176000003440344034E034F034F8344034403411
:101770004034403400340034003400340034003449
:101780000034003400341F343F343F3420343834C4
:101790003834183400340034003400340034003459
:1017A0000034C034C034C034003400340034C03499
:1017B000C034C03400340034003400340034003409
:1017C00000341F343F343F342034203420343F343D
:1017D0001F343F34203400340034003400340034EB
:1017E0000034C034C034C034003400340034C03459
:1017F000C034C034003400340034003400340034C9
:10180000003407340F341F343834303438341F3444
:101810000F34073400340034003400340034003412
:101820000034C034C034C0340034003400340034D8
:101830000034C034C034C0340034003400340034C8
:10184000003407340F343F34383438340E343834ED
:1018500038343F340F34073400340034003400345B
:101860000034C034C034C03400340034C034C03418
:10187000C034003400340034003400340034003408
:101880000034303439343F340F340F343F3439347A
:101890003034003400340034003400340034003478
:1018A00000340034C034C034C03400340034003458
:1018B000C034C034C0340034003400340034003448
:1018C0000034803487348F349F34D834F8347834FB
:1018D0003F340F3407340034003400340034003413
:1018E0000034C034C034403440344034C034C03498
:1018F000C034003400340034003400340034003488
:101900000034313438343C342E34273423343134E9
:1019100038340034003400340034003400340034EF
:10192000003480348034C03478347C343C34043423
:1019300004340434043400340034003400340034FB
:1019400000340134013403341E343E343C3420343A
:101950002034203420340034003400340034003487
:1019600000340034003400340034FE34FE34FE34DD
:1019700000340034003400340034003400340034C7
:10198000003400340034003400347F347F347F343A
:1019900000340034003400340034003400340034A7
:1019A000003404340434043404343C347C34783457
:1019B000C0348034803400340034003400340034C7
:1019C000003420342034203420343C343E341E345F
:1019D0000334013401340034003400340034003462
:1019E00038343C343C3404340C341C343834303413
:1019F00020343C343C341C34003400340034003493
:101A00000034003400340034003400340034003436
:101A100000340034003400340034003448302D00E9
:101A2000EE006E082E00CE004508D0004408CF001E
:101A3000D101D201D301D40147082D00EA002E00C4
:101A400046082D00E9004E30EE006E08EB004F30E6
:101A5000AC3160248D3102304F3E86000730870064
:101A6000403F2E0044078400413F453D85008001F2
:101A700008002F006708680403193F2D402D452DED
:101A80000130E7020030E83B492DE830E700033041
:101A9000E80001306802F53003196702031C512D7C
:101AA000522D552D20000C13572D20000C170630F9
:101AB0002E00D5003030890B5B2DD50B5B2D00003F
:101AC00020008D1E642D652D392D0C172E00BA01B6
:101AD000D3302D00A0000730A100AB3193238D310E
:101AE00060302D00A0000830A100AB3193238D3170
:101AF00050302D00A0000830A100AB3193238D3170
:101B0000C3302D00A0000730A100AB3193238D31ED
:101B10009531E92DD330C4000730C5008230C600AE
:101B2000B030C7008D310E258D3100302D00DC0026
:101B3000DD00A931E7218D3120000C1020008C1030
:101B40009631052E2D00A201A20AA301A30A683036
:101B5000AC31CF248D31D3302E00C4000730C50006
:101B60007D30C600B030C7008D310E258D31C330B9
:101B70002E00C4000730C5004E30C600B030C7008C
:101B80000A302D00A0000030A1002E006808D5000A
:101B9000D60155082D00A2002E0056082D00A300E6
:101BA000AF31A0278D312D0021082E00C9002D0056
:101BB00020082E00C8000A302D00A0000030A1002F
:101BC0002E006808D700D80157082D00A2002E006B
:101BD00058082D00A300AD31DB258D312D002108E3
:101BE0002E00CB002D0020082E00CA008D310E25BE
:101BF0008D312E006808D500D601D701D8015808CC
:101C00002D00AC002E0057082D00AB002E0056080A
:101C10002D00AA002E0055082D00A9000030A23189
:101C20002B228D312D002C08BE002B08BD002A0868
:101C3000BC002908BB004130BA001930B900D830C7
:101C4000B8009E30B70090310A208D312D003A083F
:101C5000D4003908D3003808D2003708D100A131A8
:101C60002B218D312D005208DD005108DC00A931F7
:101C7000E7218D313F302D00D400EC30D300CC3043
:101C8000D200CD30D1004130BA002030B900003050
:101C9000B8000030B7002E006808D500D601D70183
:101CA000D80158082D00AC002E0057082D00AB00BD
:101CB0002E0056082D00AA002E0055082D00A90060
:101CC0000030A2312B228D312D002C08BE002B08B4
:101CD000BD002A08BC002908BB009A315C228D3166
:101CE0002D003A08D8003908D7003808D600370840
:101CF000D500A131A0218D3103187F2E802E832E97
:101D000020000C14852E20000C102E006808D50031
:101D1000D60155082D00A2002E0056082D00A30064
:101D20000A30A0000030A100AF31A0278D312D0076
:101D30002008A9002108AA00890D893B8909AB0068
:101D4000AC000130A2312B228D312D002C08D400A3
:101D50002B08D3002A08D2002908D1004030D8002F
:101D60000030D7000030D6000030D500A131A021CE
:101D70008D31031CBC2EBD2E9E2D20008C14A02D59
:101D80000330D50055082D00A200A301A30A683036
:101D9000AC31CF248D31D3302E00C4000730C500C4
:101DA0003830C600B030C7008D310E258D31C330BC
:101DB0002E00C4000730C5004E30C600B030C7004A
:101DC0000A302D00A0000030A1002E006808D500C8
:101DD000D60155082D00A2002E0056082D00A300A4
:101DE000AF31A0278D312D0021082E00C9002D0014
:101DF00020082E00C8000A302D00A0000030A100ED
:101E00002E006808D700D80157082D00A2002E0028
:101E100058082D00A300AD31DB258D312D002108A0
:101E20002E00CB002D0020082E00CA008D310E257B
:101E30008D3120000D1E1D2F1E2F222F8C1D212FB6
:101E4000222FF32F60302E00C4000830C5007530FB
:101E5000C600B030C7008D310E258D312E006808C8
:101E6000D500D601D701D80158082D00AC002E00AE
:101E700057082D00AB002E0056082D00AA002E009A
:101E800055082D00A9000030A2312B228D312D00E4
:101E90002C08BE002B08BD002A08BC002908BB0086
:101EA0004130BA001930B900D830B8009E30B700C0
:101EB00090310A208D312D003A08D4003908D30022
:101EC0003808D2003708D100A1312B218D312D00E7
:101ED0005208DD005108DC00A931E7218D313F3087
:101EE0002D00D400EC30D300CC30D200CD30D10066
:101EF0004130BA002030B9000030B8000030B700DF
:101F00002E006808D500D601D701D80158082D0049
:101F1000AC002E0057082D00AB002E0056082D00F7
:101F2000AA002E0055082D00A9000030A2312B2256
:101F30008D312D002C08BE002B08BD002A08BC00E6
:101F40002908BB009A315C228D312D003A08D80057
:101F50003908D7003808D6003708D500A131A021AC
:101F60008D310318B42FB52FB82F20000C14BA2FC1
:101F700020000C102E006808D500D60155082D0051
:101F8000A2002E0056082D00A3000A30A000003049
:101F9000A100AF31A0278D312D002008A900210814
:101FA000AA00890D893B8909AB00AC000130A23140
:101FB0002B228D312D002C08D4002B08D3002A08A9
:101FC000D2002908D1004030D8000030D7000030BE
:101FD000D6000030D500A131A0218D31031CF12F96
:101FE000F22F9E2DBD2E60302E00C4000830C5009B
:101FF0006430C600B030C7008D310E258D31952D6F
:1020000008002D0021082F00EC002D0020082F00D3
:10201000EB0008002D003A088039BF003F08C400DB
:102020003A35BF003F08CA00B91F172818281928D9
:102030004A144A0803191D281E282D284A0A031D80
:10204000222823282B280030BA000030B9000030A5
:10205000B8000030B700B91735280030BA0000309A
:10206000B9000030B8000030B7003E088039BF002A
:102070003F08C4063E35BF003F08C500BD1F4128CC
:10208000422843284514450803194728482857285B
:10209000450A031D4C284D2855280030BE0000304D
:1020A000BD000030BC000030BB00BD175F28003011
:1020B000BE000030BD000030BC000030BB00450851
:1020C00003196328642869284A08031D68286928B9
:1020D00072280030BA000030B9000030B80000307B
:1020E000B700602A3708BF003F08A0003D08AB31A9
:1020F000B52390312D002108D0002008CF004F08D3
:10210000BF00C001C101C2014208C9004108C800A6
:102110004008C7003F08C6005008BF00C001C10109
:10212000C2014208CE004108CD004008CC003F0863
:10213000CB003808BF003F08A0003C08AB31B523F6
:1021400090312D002108D0002008CF004F08BF009B
:10215000C001C101C2013F08C6074008C73D410890
:10216000C83D4208C93D5008BF00C001C101C201BD
:102170003F08CB074008CC3D4108CD3D4208CE3D4D
:102180003908BF003F08A0003B08AB31B5239031B0
:102190002D002108D0002008CF004F08BF00C0014B
:1021A000C101C2013F08C6074008C73D4108C83DFC
:1021B0004208C93D5008BF00C001C101C2013F082B
:1021C000CB074008CC3D4108CD3D4208CE3D08300C
:1021D000C635C70DC80DC90D890BE8283808BF00E2
:1021E0003F08A0003B08AB31B52390312D002108FA
:1021F000D0002008CF004F08C6075008C73D003068
:10220000C83DC93D3708BF003F08A0003C08AB31BE
:10221000B52390312D002108D0002008CF004F08B1
:10222000C6075008C73D0030C83DC93D0830C63517
:10223000C70DC80DC90D890B17293708BF003F0806
:10224000A0003B08AB31B52390312D002108D00010
:102250002008CF004F08C6075008C73D0030C83DD2
:10226000C93D3808BF003F08A0003D08AB31B52389
:1022700090312D002108D0002008CF004F08CB0757
:102280005008CC3D0030CD3DCE3D3908BF003F0861
:10229000A0003C08AB31B52390312D002108D000BF
:1022A0002008CF004F08CB075008CC3D0030CD3D73
:1022B000CE3D3908BF003F08A0003D08AB31B52333
:1022C00090312D002108D0002008CF004F08BF001A
:1022D0005008C000C101C2010830BF35C00DC10D9A
:1022E000C20D890B6D293F08CB074008CC3D410842
:1022F000CD3D4208CE3D4608BF004708C000480813
:10230000C1004908C2001830C236C10CC00CBF0C55
:10231000890B84293F08CB074008CC3D4108CD3DBF
:102320004208CE3D0830C635C70DC80DC90D890B12
:1023300093294A084507BF00C001C00D3F08823EEF
:10234000CF00FF30403DD000BC290130CB35CC0D53
:10235000CD0DCE0D890BA629C91FAF29B029B129F2
:102360004B140130C635C70DC80DC90D890BB229F4
:10237000FF30CF07FF30D03DCD1FBF29C029A52991
:10238000C501C91FC429C529E129FF304605BF0081
:10239000FF304705C000FF304805C1007F304905C8
:1023A000C2004208410440043F040319D829D92936
:1023B000DC29C501C50AE1294B1CDF29E029E129F7
:1023C000D92945080319E529E6290E2A0130CB074A
:1023D0000030CC3D0030CD3D0030CE3D4E1CF129CB
:1023E000F2290E2A4B08BF004C08C0004D08C1005E
:1023F0004E08C2000130C300C237C10CC00CBF0C74
:10240000C30BFC294208CE004108CD004008CC0097
:102410003F08CB000130CF070030D03D5008803A54
:10242000BF0080303F02031D172AFF304F02031CFC
:102430001A2A1B2A252A7F302D00CE008030CD009D
:102440000030CC000030CB00542A2D005008803AD8
:10245000BF0080303F02031D2F2A01304F020318B6
:10246000322A332A3E2A00302D00CE000030CD0023
:102470000030CC000030CB00C401542A2D004F089E
:10248000BF003F08CA00FF30CB05FF30CC057F30CE
:10249000CD050030CE054A1C4E2A4F2A502ACD17B2
:1024A0004A36BF003F08CE004408BF003F08CE04B4
:1024B0004E08BA004D08B9004C08B8004B08B700E8
:1024C000080029000F082E00AE0029000E082E007B
:1024D000AD002D082D00A9002E002E082D00AA0009
:1024E000AB01AC010030A2312B2292312D002C081F
:1024F000BE002B08BD002A08BC002908BB003F30E5
:10250000BA008630B9006630B8006630B700903146
:102510000A2092312D003A08D4003908D300380837
:10252000D2003708D100A1312B2192312D00520861
:102530002E00AE002D0051082E00AD00E8302D0019
:10254000AF000330B0002E002E082D00AA002E0090
:102550002D082D00A9000A30AB000030AC00AB31D3
:10256000332392312D002A08B2002908B100AD3181
:102570000C2592312D0030082F00E4002D002F088B
:102580002F00E30000302D00BD000030BC00003003
:10259000BB000A30BA000030AF000030AE0003309C
:1025A000AD00E830AC002E002D082D00A0002E005C
:1025B0002E082D00A100A201A3010030A7000030C9
:1025C000A6000030A5006430A400AC312C24923168
:1025D0002D002308B3002208B2002108B100200812
:1025E000B000AE318A2692312D002F08C1002E088E
:1025F000C0002D08BF002C08BE00AD3190259231DF
:102600002D003B082F00E6002D003A082F00E500C2
:10261000D3302E00C4000730C5002030C600B030D3
:10262000C7008D310E25923150302E00C400083085
:10263000C5008630C600B030C7008D310E259231FE
:102640002E003008031D252B262B462B1430D500D9
:102650005508B000C330C4000730C5002C30C60098
:10266000B030C7002F0064082E00C9002F00630897
:102670002E00C8002F0066082E00CB002F00650832
:102680002E00CA008D310E259231712B2F00E901E9
:10269000EA016A08803A2E00D50080305502031DF9
:1026A000542B10302F006902031C572B582B592B29
:1026B000712B2F006908203E860008308700010832
:1026C0002E00D5002F006908C33E86000730870022
:1026D0002E005508810001302F00E9070030EA3D47
:1026E000492B20000D1E752B762B7A2B8C1D792BF8
:1026F0007A2BB12C60302E00C4000830C500753034
:10270000C600B030C7008D310E2592312E002D0845
:102710002D00A9002E002E082D00AA00AB01AC014F
:102720000030A2312B2292312D002C08BE002B0844
:10273000BD002A08BC002908BB003F30BA00863023
:10274000B9006630B8006630B7009A315C22923129
:102750002D003A08D4003908D3003808D2003708D1
:10276000D100A1312B2192312D005208DD005108FA
:10277000DC00A931E72192313F302D00D400F33045
:10278000D3003330D2003330D1004230BA00C830E9
:10279000B9000030B8000030B7002E002D082D0021
:1027A000A9002E002E082D00AA00AB01AC010030BC
:1027B000A2312B2292312D002C08BE002B08BD0027
:1027C0002A08BC002908BB009A315C2292312D00F6
:1027D0003A08D8003908D7003808D6003708D5009D
:1027E000A131A02192310318F62BF72BFA2B2000F0
:1027F0000C14372C42302D00BA00C830B90000301C
:10280000B8000030B7002E002D082D00A9002E00C2
:102810002E082D00AA00AB01AC010030A2312B2202
:1028200092312D002C08BE002B08BD002A08BC00E8
:102830002908BB009A315C2292312D003A08D4005D
:102840003908D3003808D2003708D1003F30D8000B
:10285000E630D7006630D6006630D500A131A02121
:1028600092310318342C352C372C20000C104030BA
:102870002D00D4000330D3003330D2003330D100E8
:102880004230BA00C830B9000030B8000030B7009C
:102890002E002D082D00A9002E002E082D00AA00C4
:1028A000AB01AC010030A2312B2292312D002C085B
:1028B000BE002B08BD002A08BC002908BB009A31C5
:1028C0005C2292312D003A08D8003908D700380828
:1028D000D6003708D500A131A02192310318712C00
:1028E000722C742C8E31BD2E42302D00BA00C830AF
:1028F000B9000030B8000030B7002E002D082D00C0
:10290000A9002E002E082D00AA00AB01AC0100305A
:10291000A2312B2292312D002C08BE002B08BD00C5
:102920002A08BC002908BB009A315C2292312D0094
:102930003A08D4003908D3003808D2003708D1004B
:102940003F30D800F930D7009930D6009A30D50002
:10295000A131A02192310318AE2CAF2C052E8D3160
:102960009E2D60302E00C4000830C5006430C600C3
:10297000B030C7008D310E2592318D31952D02304A
:10298000D50055082D00A200A301A30A6730AC3181
:10299000CF249231D3302E00C4000730C50043301D
:1029A000C600B030C7008D310E259231C3302E00E5
:1029B000C4000730C5004E30C600B030C7000A3032
:1029C0002D00A0000030A1002E006708D500D60120
:1029D00055082D00A2002E0056082D00A300AF318F
:1029E000A02792312D0021082E00C9002D002008BB
:1029F0002E00C8000A302D00A0000030A1002E00DB
:102A00006708D700D80157082D00A2002E005808EB
:102A10002D00A300AD31DB2592312D0021082E00C1
:102A2000CB002D0020082E00CA008D310E259231DA
:102A30002E006708D500D601D701D80158082D000F
:102A4000AC002E0057082D00AB002E0056082D00BC
:102A5000AA002E0055082D00A9000030A2312B221B
:102A600092312D002C08BE002B08BD002A08BC00A6
:102A70002908BB004130BA001930B900D830B8007D
:102A80009E30B70090310A2092312D003A08D400D0
:102A90003908D3003808D2003708D100A1312B21E2
:102AA00092312D005208DD005108DC00A931E721E8
:102AB00092313F302D00D400EC30D300CC30D20026
:102AC000CD30D1004130BA002030B9000030B8001C
:102AD0000030B7002E006708D500D601D701D80115
:102AE00058082D00AC002E0057082D00AB002E001A
:102AF00056082D00AA002E0055082D00A900003010
:102B0000A2312B2292312D002C08BE002B08BD00D3
:102B10002A08BC002908BB009A315C2292312D00A2
:102B20003A08D8003908D7003808D6003708D50049
:102B3000A131A021923103189E2D9F2DA22D20009E
:102B40000C14A42D20000C102E006708D500D6010F
:102B500055082D00A2002E0056082D00A3000A30B3
:102B6000A0000030A100AF31A02792312D00200835
:102B7000A9002108AA00890D893B8909AB00AC0096
:102B80000130A2312B2292312D002C08D4002B08C9
:102B9000D3002A08D2002908D1004030D8000030E4
:102BA000D7000030D6000030D500A131A0219231ED
:102BB000031CDB2DDC2DAF2C722CD330C40007306E
:102BC000C5005930C600B030C7008D310E25923196
:102BD000BD2C2E004008D500D6015608003A031936
:102BE000F22DDD2D5508003A8D310319A22D013A41
:102BF00003198A2D9231033A0319FE2F013A031962
:102C0000612A073A0319BF2CDD2D9831AB20923190
:102C10002E00B10120008D180E2E0F2E1F2E013018
:102C20002E00D5005508B107630864040319192E56
:102C30001A2E242EFF30E307FF30E43D242E1430FB
:102C40002E00E3000030E40020000D19282E292E6C
:102C5000392E01302E00D5005508B10761086204F5
:102C60000319332E342E3E2EFF30E107FF30E23DB4
:102C70003E2E14302E00E1000030E20020000D183E
:102C8000422E432E532E01302E00D5005508B10799
:102C90005F08600403194D2E4E2E582EFF30DF07BB
:102CA000FF30E03D582E14302E00DF000030E000F1
:102CB0003103031D5C2E5D2E942F650866040319F5
:102CC000622E632E682EFF30E507FF30E63D982F19
:102CD00063086404031D6D2E6E2ED82E20008D1EF9
:102CE000722E732ED82E0D1D762E772ED82E2E00F6
:102CF0002B082C04031D7D2E7E2ED82E04302F028F
:102D00000318832E842E8C2E0130D5005508AF0772
:102D10002C30AB000130AC003B080319902E912EF3
:102D2000A72E643067020318962E972ED82E0130F6
:102D3000D5005508E7076730D50055082D00A600D7
:102D4000A701A70A0230A03159209231D82E643051
:102D500068020318AC2EAD2ED82E4008031DB12EEC
:102D6000B22EC22E0130D5005508E8076830D500D4
:102D700055082D00A600A701A70A0130A03159204F
:102D80009231D82E02304006031DC72EC82ED82EF1
:102D90000130D5005508E8076830D50055082D00EA
:102DA000A600A701A70A0330A03159209231D82EDE
:102DB0002E0061086204031DDE2EDF2E412F20004D
:102DC0008D1EE32EE42E412F8D1CE72EE82E412F81
:102DD0002E002B082C04031DEE2EEF2E412F043065
:102DE0002F020318F42EF52EFD2E0130D5005508C4
:102DF000AF072C30AB000130AC003B080319012FAA
:102E0000022F152F67080319062F072F412F0130B6
:102E1000E7026730D50055082D00A600A701A70AD4
:102E20000230A03159209231412F68080319192F1F
:102E30001A2F412F4008031D1E2F1F2F2D2F013049
:102E4000E8026830D50055082D00A600A701A70AA2
:102E50000130A03159209231412F02304006031D2C
:102E6000322F332F412F0130E8026830D50055084A
:102E70002D00A600A701A70A0330A03159209231E6
:102E8000412F2E005F086004031D472F482F982F05
:102E90003C08031D4C2F4D2F982FBC01BC0A3B084A
:102EA0000319532F542F572FDB01DC01982F2000DB
:102EB0008D1C5B2F5C2F982F0D1D5F2F602F982F7F
:102EC00004302E004006031D662F672F702FBB01B4
:102ED0002D00A201A301A30A4030AC31CF249231CE
:102EE00003302E0040020318762F772F872F0130F2
:102EF000D5005508C0074030D50055082D00A60064
:102F0000A701A70A0030A03159209231982FC001A3
:102F10004030D50055082D00A600A701A70A0030B3
:102F2000A03159209231982F1430E5000030E6008E
:102F30002E00300803199D2F9E2FA02F0130B002C4
:102F40005B085C04031DA52FA62FAF2FBB012D002E
:102F5000A201A301A30A4030AC31CF2492312E004C
:102F60005D085E04031DB52FB72F9C31852CBB0176
:102F7000DB01DC01B901B801B701B4010530D500AE
:102F80005508C0003230D5005508E8006430D5003F
:102F90005508E700AD01AE014030D50055082D00C1
:102FA000A600A701A70A0030A0315920923168304D
:102FB0002E00D50055082D00A600A701A70A013054
:102FC000A0315920923168302E00D50055082D00CF
:102FD000A600A701A70A0330A0315920923167301B
:102FE0002E00D50055082D00A600A701A70A023023
:102FF000A03159209231B52F8031C1288E31C02E99
:1030000040300800A931DE219831AC319724983145
:10301000A931BB219831A931A9219831AA312522A2
:103020009831A931D5219831AA31862298310800EA
:103030000130AB3113239831A931AD2198310330E0
:103040002D00A9000830A8007730890B2528A80B8F
:103050002528A90B2528AE30AA3157229831D53022
:10306000AA31572298318030AA3157229831A8309E
:10307000AA31572298313F30AA3157229831D330A4
:10308000AA31572298310030AA3157229831403066
:10309000AA31572298318D30AA31572298311430F5
:1030A000AA31572298312030AA3157229831003066
:1030B000AA3157229831A130AA3157229831C8300D
:1030C000AA3157229831DA30AA315722983112307A
:1030D000AA31572298318130AA3157229831CF3006
:1030E000AA3157229831D930AA3157229831F1307C
:1030F000AA3157229831DB30AA315722983140301B
:10310000AA3157229831A430AA3157229831A630DB
:10311000AA31572298312E30AA3157229831AF3038
:10312000AA31572298312A302D00A0008130A10009
:10313000AD314925983103302D00A9000830A80091
:103140007730890BA128A80BA128A90BA128AE31A3
:103150002F26983108002D00D901DA012D005908D9
:10316000D33E8600073087005908403E840008306F
:103170008500000801060319BE28BF28F8282E0084
:103180002208FC3E2D00A900FF3003180030AA00E1
:103190005A08AC005908AB00AB31332398312D00ED
:1031A0002A08D8002908D7005808B7005708B600E1
:1031B0000030B800B9005908D33E860007308700B8
:1031C0000108D6005608BA009D31D82598312D0047
:1031D0005908D33E8600073087000108D6005908F9
:1031E000403E86000830870056088100EF01EF0A54
:1031F0000130D9070030DA3D5A08803AD6008030D5
:103200005602031D052910305902031C08290929FB
:10321000AE282D006F0803190E290F29152900303B
:10322000A031BA2098312D00EF01DB01DC012D0027
:103230005B08603E8600083087005B08303E8400F3
:103240000830850000080106031927292829632969
:103250002E002208FC3E2D00A900FF30031800308C
:10326000AA005C08AC005B08AB00AB31332398319B
:103270002D002A08D8002908D7005808B700570899
:10328000B6001030B8000030B9005B08603E860020
:10329000083087000108D6005608BA009D31D825AD
:1032A00098312D005B08603E8600083087000108D9
:1032B000D6005B08303E8600083087005608810043
:1032C0002E00BF01BF0A01302D00DB070030DC3DBE
:1032D0005C08803AD60080305602031D71291030F8
:1032E0005B02031C7429752917292E003F08031956
:1032F0007A297B2981290230A031BA2098312E0009
:10330000BF012D00DD01DE012D005D08503E86006D
:10331000083087005D08A03E840008308500000862
:103320000106031994299529D0292E002208FC3E74
:103330002D00A900FF3003180030AA005E08AC0081
:103340005D08AB00AB31332398312D002A08D8003B
:103350002908D7005808B7005708B6002030B80031
:103360000030B9005D08503E860008308700010833
:10337000D6005608BA009D31D82598312D005D0839
:10338000503E8600083087000108D6005D08A03E48
:10339000860008308700560881002E00BE01BE0A54
:1033A00001302D00DD070030DE3D5E08803AD6009A
:1033B00080305602031DDE2910305D02031CE12916
:1033C000E22984292E003E080319E729E829EE297D
:1033D0000430A031BA2098312E00BE012D00DF014B
:1033E000E0012D005F08C33E8600073087005F08BC
:1033F000203E840008308500000801060319012AD8
:10340000022A3D2A2E002208FC3E2D00A900FF3092
:1034100003180030AA006008AC005F08AB00AB31B5
:10342000332398312D002A08D8002908D7005808DE
:10343000B7005708B6003030B8000030B9005F0858
:10344000C33E8600073087000108D6005608BA0040
:103450009D31D82598312D005F08C33E8600073086
:1034600087000108D6005F08203E860008308700EC
:10347000560881002E00BD01BD0A01302D00DF0776
:103480000030E03D6008803AD60080305602031DCF
:103490004B2A10305F02031C4E2A4F2AF1292E00BE
:1034A0003D080319542A552A5B2A0630A031BA2058
:1034B00098312E00BD0108002D003E088039BF0064
:1034C0003F08C8003E35BF003F08CF00BD1F692A36
:1034D0006A2A6B2A4F144F0803196F2A702A802A10
:1034E0004F0A031D742A752A7D2A0030BE00003061
:1034F000BD000030BC000030BB00BD17BE01882AF3
:103500000030BE000030BD000030BC000030BB0009
:103510003A088039BF003F08C8063A35BF003F0867
:10352000D000B91F942A952A962A501450080319DE
:103530009A2A9B2AAB2A500A031D9F2AA02AA82A4E
:103540000030BA000030B9000030B8000030B700D9
:10355000B917BA01B32A0030BA000030B900003000
:10356000B8000030B7003A08390438043704031DA6
:10357000BA2ABB2AD42A0030BE000030BD00003079
:10358000BC000030BB008030BD047F30BE04480862
:10359000BF003F08BE043E08BA003D08B9003C0821
:1035A000B8003B08B7000F2C4F08031DD82AD92AB2
:1035B000E22A0030BA000030B9000030B800003014
:1035C000B7000F2C4F08BF00C0014008C2005008D0
:1035D0003F02C100031CC20341087F3EC900003006
:1035E000423DCA003E08C7003D08C6003C08C50071
:1035F0003B08C4000030BE000030BD000030BC00FD
:103600000030BB000030CE000030CD000030CC00D8
:103610000030CB00D0014A2B50080319102B112B7E
:103620002B2B0130C435C50DC60DC70D890B122BD0
:103630000130BB35BC0DBD0DBE0D890B192BCE1F46
:10364000222B232B242B3B140130CB35CC0DCD0D5D
:10365000CE0D890B252B3A084702031D392B39085B
:103660004602031D392B38084502031D392B370844
:103670004402031C3C2B3D2B462B4E173708C4023B
:103680003808C53B3908C63B3A08C73B0130BF0084
:103690003F08D0071A305002031C4F2B502B0C2B25
:1036A00047084604450444040319572B582B712B33
:1036B0004B14712B0130BB35BC0DBD0DBE0D890BFC
:1036C0005B2BCE1F642B652B662B3B140130CB3557
:1036D000CC0DCD0DCE0D890B672BFF30C907FF3008
:1036E000CA3DBD1F742B752B5A2BD001CE1F792BD1
:1036F0007A2B962BFF304B05BF00FF304C05C000E6
:10370000FF304D05C1007F304E05C2004208410424
:1037100040043F0403198D2B8E2B912BD001D00A2E
:10372000962B3B1C942B952B962B8E2B5008031914
:103730009A2B9B2BC32B0130BB070030BC3D0030C4
:10374000BD3D0030BE3D3E1CA62BA72BC32B3B0826
:10375000BF003C08C0003D08C1003E08C200013067
:10376000C300C237C10CC00CBF0CC30BB12B420845
:10377000BE004108BD004008BC003F08BB0001304E
:10378000C9070030CA3D4A08803ABF0080303F0276
:10379000031DCC2BFF304902031CCF2BD02BDD2B7C
:1037A000FF302D00C9000030CA000030BE000030DC
:1037B000BD000030BC000030BB002D004A08803A3C
:1037C000BF0080303F02031DE72B01304902031880
:1037D000EA2BEB2BF72B2D00C901CA010030BE00EC
:1037E0000030BD000030BC000030BB00C8012D001F
:1037F0004908BF003F08CF004F1CFF2B002C022CB4
:10380000BD17062C7F30BF003F08BD054F36BF00F7
:103810003F08BE004808BF003F08BE04CB2A08008E
:10382000983102209C318B170B1703302E00D600E5
:103830000830D5007730890B1B2CD50B1B2CD60BF1
:103840001B2C2D00A201A301A30A4030AC31CF24D0
:103850009C312D00A201A20AA301A30A6830AC3159
:10386000CF249C3102302E00D50055082D00A20037
:10387000A301A30A6730AC31CF249C3165302E0000
:103880006802031C442C452C602C3230D5005508AE
:10389000E8006830D50055082D00A600A701A70A4A
:1038A0000130A03159209C3168302E00D5005508D8
:1038B0002D00A600A701A70A0330A03159209C3192
:1038C00065302E006702031C662C672C762C643052
:1038D000D5005508E7006730D50055082D00A60033
:1038E000A701A70A0230A03159209C319831182035
:1038F0009C3103302E00D6000830D5007730890B7C
:103900007F2CD50B7F2CD60B7F2C20008D1A892C79
:103910008B2C8D31652D2E00BA01BA0A0230D500EC
:1039200055082D00A200A301A30A6730AC31CF24B3
:103930009C31D3302D00A0000730A100AB31932380
:103940009C31D3302E00C4000730C5006D30C60056
:10395000B030C7008D310E259C3160302D00A000A5
:103960000830A100AB3193239C3150302D00A000D2
:103970000830A100AB3193239C31C3302D00A0004F
:103980000730A100AB3193239C31C3302E00C4001B
:103990000730C5004E30C600B030C7000A302D00D9
:1039A000A0000030A1002E006708D500D601550800
:1039B0002D00A2002E0056082D00A300AF31A02735
:1039C0009C312D0021082E00C9002D0020082E005A
:1039D000C8000A302D00A0000030A1002E006708AA
:1039E000D700D80157082D00A2002E0058082D003E
:1039F000A300AD31DB259C312D0021082E00CB002A
:103A00002D0020082E00CA008D310E259C312E007D
:103A10006708D500D601D701D80158082D00AC00A1
:103A20002E0057082D00AB002E0056082D00AA00CE
:103A30002E0055082D00A9000030A2312B229C3108
:103A40002D002C08BE002B08BD002A08BC00290848
:103A5000BB004130BA001930B900D830B8009E30F0
:103A6000B70090310A209C312D003A08D400390863
:103A7000D3003808D2003708D100A1312B219C3166
:103A80002D005208DD005108DC00A931E7219C31EE
:103A90003F302D00D400EC30D300CC30D200CD30FC
:103AA000D1004130BA002030B9000030B8000030F9
:103AB000B7002E006708D500D601D701D8015808F5
:103AC0002D00AC002E0057082D00AB002E0056082C
:103AD0002D00AA002E0055082D00A9000030A231AB
:103AE0002B229C312D002C08BE002B08BD002A087B
:103AF000BC002908BB009A315C229C312D003A0899
:103B0000D8003908D7003808D6003708D500A131C9
:103B1000A0219C3103188D2D8E2D912D20000C1489
:103B2000932D20000C102E006708D500D6015508F3
:103B30002D00A2002E0056082D00A3000A30A00080
:103B40000030A100AF31A0279C312D002008A90032
:103B50002108AA00890D893B8909AB00AC0001301E
:103B6000A2312B229C312D002C08D4002B08D3002D
:103B70002A08D2002908D1004030D8000030D700F0
:103B80000030D6000030D500A131A0219C31031CAB
:103B9000CA2DCB2DCE2D20008C14D02D20008C10C2
:103BA0009831AB209C312F00E701E8018D31602D69
:103BB0002D00D101D201D301D401C301C4012E00D3
:103BC00023080739031DE52DE62D142F22082D00AB
:103BD000BB00BC013B08A9003C08AA000830A000BB
:103BE0000030A1002E0023082D00BD00BE013D08BD
:103BF000A2003E08A300AF31A0279D312D0021086F
:103C0000AC002008AB00AB3133239D312D002A08D6
:103C1000C8002908C7002E0024082D003A02A90078
:103C2000AA01031CAA034808AC004708AB00AB314B
:103C300033239D312D002908043ECB0000302A3D5E
:103C4000CC00D101D201F82E0230D3000030D400D4
:103C5000E12E2E0022082D00BB00BC013B08A9006C
:103C60003C08AA005208AC005108AB00AB3133232A
:103C70009D312D0029082E0020072D00BD002A08A7
:103C80002E00213D2D00BE004B083D07BF004C0813
:103C90003E3DC0003F08530784004008543D850066
:103CA0000008C100C2014108C3004208C400D50198
:103CB0000130BB000030BC00550A602EBB35BC0D86
:103CC000890B5E2E43083B05BD0044083C05BE0041
:103CD0003D083E0403196D2E6E2ECB2E2E002608B5
:103CE000031D732E742EA02E2D0053083607BB0023
:103CF0005408373DBC003B08FE3EA900FF303C3D68
:103D0000AA005508BD00BE015208C0005108BF00FE
:103D1000BF35C00DBF35C00DBF35C00D3D083F07D5
:103D2000C1003E08403DC20038084107AB003908D9
:103D3000423DAC00AD01AD0AA231D8229D31D22E58
:103D40002D0053083607BB005408373DBC003B0824
:103D5000FE3EA900FF303C3DAA005508BD00BE0153
:103D60005208C0005108BF00BF35C00DBF35C00D9F
:103D7000BF35C00D3D083F07C1003E08403DC200B1
:103D800038084107AB003908423DAC00AD01A23113
:103D9000D8229D31D22E2E002608031DD02ED12EE2
:103DA000742EA02E01302D00BB003B08D507083033
:103DB0005502031CDC2EDD2E582E0130D3070030B7
:103DC000D43D2E002208FE3E2D00BB00FF3003181C
:103DD0000030BC003C085402031DF02E3B08530287
:103DE000031CF32EF42E292E0130D1070030D23DD2
:103DF0000830A0000030A1002E0023082D00BB00D9
:103E0000BC013B08A2003C08A300AF31A0279D31B4
:103E10002D0021085202031D0F2F20085102031C00
:103E2000122F132F242EFF2F08302D00A00000305A
:103E3000A1002E0022082D00BB00BC013B08A900F8
:103E40003C08AA002E0023082D00BD00BE013D083D
:103E5000AB003E08AC00AB3133239D312D002A0866
:103E6000A3002908A200AF31A0279D312D00210811
:103E7000C8002008C7002E0024082D003A02A9001F
:103E8000AA01031CAA034808AC004708AB00AB31E9
:103E900033239D312D002908043ECB0000302A3DFC
:103EA000CC002E0020082D004B0784002E00210896
:103EB0002D004C3D85000008BB00BC013B08C5003F
:103EC0003C08C6000730C9000030CA00CD01CE0151
:103ED000F02F2D00CF01D001DC2F01302D00BB00D1
:103EE0000030BC00490A762FBB35BC0D890B742FFE
:103EF00045083B05BD0046083C05BE003D083E04A4
:103F00000319832F842FAF2F2E002608031D892F1E
:103F10008A2F9D2F2D004D083607A9004E08373DEA
:103F2000AA004F083807AB005008393DAC00AD017E
:103F3000AD0AA231D8229D31B62F2D004D0836078B
:103F4000A9004E08373DAA004F083807AB005008BB
:103F5000393DAC00AD01A231D8229D31B62F2E00E3
:103F60002608031DB42FB52F8A2F9D2FFF302D005B
:103F7000C907FF30CA3DCA1FBE2FBF2FD82F073039
:103F8000C9000030CA000130CB070030CC3D2E0004
:103F900020082D004B0784002E0021082D004C3DE9
:103FA00085000008BB00BC013B08C5003C08C600FA
:103FB0000130CF070030D03D5008803ABB00803040
:103FC0003B02031DE72F2E0023082D004F02031C88
:103FD000EA2FEB2F6D2F01302D00CD070030CE3DA5
:103FE0004E08803ABB0080303B02031DFB2F2E00A1
:103FF00022082D004D02031CFE2FFF2F692F080001
:104000002D00B8002E00291C0628072810282D0096
:104010003808B3003308A8003008AB31D923A031E9
:104020002D00B21B142815281A283208B7003108B1
:10403000B6001C28B601B701B401B5013028203004
:104040002D00A0000030A1003808B3003308A20002
:10405000AE31E526A03101302D00B4070030B53D6A
:104060003508803AB3003708803A3302031D3A28F6
:1040700036083402031C3D283E281F282E0029182C
:10408000422843284C282D003808B3003308A800E4
:104090003008AB31D923A0312D003008AA319F223E
:1040A000A0312D0036082007B0003708213DB100AF
:1040B00008002D00AA002A08A800A9010530A8358B
:1040C000A90D890B5F282808803EAB003F30293DB1
:1040D000AC002130270203186E286F28B92804305D
:1040E0002A02031C742875287628B9282C08A100F8
:1040F0002B08A000AA31D622A0319D282C08A100AF
:104100002B08A00026088600073087000108A800B9
:10411000A9012808A2002908A300A401A40AAC311F
:104120000224A03101302D00A8002808A607013084
:10413000AB070030AC3D0130A70202302D00270252
:104140000318A328A4287E282C08A1002B08A0006F
:1041500026088600073087000108A800A901280862
:10416000A2002908A300A401AC310224A03123003D
:10417000150808002D00AA00A9012130AA315722F4
:10418000A0310030AA315722A0317F30AA31572206
:10419000A0312230AA315722A0312D002A08AA319D
:1041A0005722A0312D002A08013EAA315722A03102
:1041B000A931B421A0317830AA311822A031403081
:1041C000AA311822A0312D002A08A300A40107302B
:1041D000A335A40D890BE8282308A7002408A8000C
:1041E0000F29A9010030A3002030A40027082307CD
:1041F00086002808243D87000108AA311822A03132
:1042000001302D00A7070030A83D0130A30023088E
:10421000A90710302902031C0E290F29F2282A08A9
:10422000A300A4010730A335A40D890B132923088B
:10423000003EA5000130243DA60026082802031DEB
:10424000232925082702031C26292729F128A9311B
:10425000AD21A031080003102D00530D540DD500E1
:104260005508DB005B08031D36293729402900303B
:10427000D4000030D3000030D2000030D1009F299C
:104280005108D5005208D6005308D7005408D8006A
:104290001F30D836D70CD60CD50C890B49295508B8
:1042A000D9005908DA00D317FF30D105FF30D20505
:1042B000FF30D3050030D4059630DB02DB1F6129C7
:1042C00062297A295B08803A973E03186829692990
:1042D0006A2937290130D436D30CD20CD10C890B82
:1042E0006B290130D5005508DB07031D7829792992
:1042F0006A298F2920305B02031C7F2980298A29A3
:1043000037290130D135D20DD30DD40D890B822937
:104310000130DB025B08031D8E298F2981295A0891
:104320000319932994299F29D109D209D309D409C2
:10433000D10A0319D20A0319D30A0319D40A0800AF
:1043400000302D005105D90000305205DA008030D0
:104350005305DB007F305405DC005C085B045A0425
:104360005904031DB429B529BD290030D4000030FB
:10437000D3000030D2000030D10000305505D90004
:1043800000305605DA0080305705DB007F305805D5
:10439000DC005C085B045A045904031DD029D129B0
:1043A000D9290030D8000030D7000030D6000030C6
:1043B000D500D41FDC29DD29F5290030D9000030D3
:1043C000DA000030DB008030DC005108D9025208EE
:1043D000DA3B5308DB3B5408DC3B5C08D4005B0849
:1043E000D3005A08D2005908D100D81FF829F9295A
:1043F000112A0030D9000030DA000030DB008030B4
:10440000DC005508D9025608DA3B5708DB3B580850
:10441000DC3B5C08D8005B08D7005A08D600590876
:10442000D5008030D4068030D80658085402031DC9
:10443000232A57085302031D232A56085202031D3C
:10444000232A550851020318262A272A292A03104D
:104450002A2A031408002D00B10031080319312A5B
:10446000322A462AAC1F352A362A462A2909B300A1
:104470002A09B4002B09B5002C09B600B30A0319A8
:10448000B40A0319B50A0319B60A4E2A2C08B60055
:104490002B08B5002A08B4002908B3002C082B0407
:1044A0002A042904031D552A562A5F2A0030AC002D
:1044B0000030AB000030AA000030A900D72A9630A7
:1044C000AD002D08B2006F2A0130AD002D08B207F3
:1044D0000130B636B50CB40CB30C890B692AFE302A
:1044E0003605031D742A752A642A892A0130AD0015
:1044F0002D08B2070130B3070030B43D0030B53DA0
:104500000030B63D0130B636B50CB40CB30C890B97
:10451000832AFF303605031D8E2A8F2A762A992A90
:104520000130B2020130B335B40DB50DB60D890BB3
:10453000932AB51B9C2A9D2AA32A02303202031813
:10454000A22AA32A902A3218A62AA72AAF2AFF3025
:10455000B305FF30B4057F30B505FF30B605031055
:10456000B20C3208AD00AE01AF01B0011830AD356C
:10457000AE0DAF0DB00D890BB72A2D08B3042E0870
:10458000B4042F08B5043008B60431080319C92A49
:10459000CA2ACF2AAC1FCD2ACE2ACF2AB617360870
:1045A000AC003508AB003408AA003308A9000800A5
:1045B0002D00AA1BDC2ADD2AB52B80310220A23176
:1045C0002D00AE002A08803AAF0080302F02031D74
:1045D000EB2A2E0829020318EE2AEF2AB52B2D000C
:1045E000AC1BF32AF42AB52B98310020A2312D0000
:1045F000AE002C08803AAF0080302F02031D022B42
:104600002E082B02031C052B062BA12BB52B0130EA
:10461000AE002B080739890A0E2BAE35890B0D2BFE
:104620002E08AF000830A0000030A1002C08A30025
:104630002B08A200AF31A027A2312D002008B00026
:104640002108B1000730B035B10D890B232B0030A4
:10465000B2002030B30030083207B4003108333DD7
:10466000B5002908340786002A08353D87002F0841
:104670008104B52B0130AE002B080739890A412B84
:10468000AE35890B402B2E08FF3AAF000830A00052
:104690000030A1002C08A3002B08A200AF31A027F6
:1046A000A2312D002008B0002108B1000730B0353C
:1046B000B10D890B572B0030B2002030B300300809
:1046C0003207B4003108333DB500290834078600AD
:1046D0002A08353D87002F088105B52B0130AE0033
:1046E0002B080739890A752BAE35890B742B2E08D8
:1046F000AF000830A0000030A1002C08A3002B0858
:10470000A200AF31A027A2312D002008B00021085F
:10471000B1000730B035B10D890B8A2B0030B200E3
:104720002030B30030083207B4003108333DB50003
:104730002908340786002A08353D87002F0881069E
:10474000B52B2D002D08AE00AF012F08003A03193C
:10475000AA2BB52B2E08003A03193A2B013A03195C
:10476000072B033A03196E2BB52B08002D00E80028
:104770005908860007308700403FDB00413FDC00DE
:104780005B0884005C0885001200253A031DC92BD4
:10479000CA2B782C59088600073087000130810722
:1047A00041310318810A2F00BF01C0012E00A90169
:1047B000AA01FF30A700FF30A8002D00590886008D
:1047C00007308700403FDB00413FDC005B0884008E
:1047D0005C0885001200643A0319EF2BF02B022CC1
:1047E0005908860007308700403FDB00413FDC006E
:1047F0005B0884005C0885001200693A031D012CE7
:10480000022C402C590886000730870001308107B0
:1048100041310318810A5A088600073087000108D1
:1048200084000730850002308107003FDB00013F34
:10483000DC005B08E0005C08E100890D893B890928
:10484000E200E300E400E500E600E7006008BB00EA
:104850006108BC006208BD006308BE006408BF00B8
:104860006508C0006608C1006708C2006808A63174
:104870009026A3312D003C08DA003B08D9009D2C7E
:104880005908860007308700403FDB00413FDC00CD
:104890005B0884005C0885001200253A031D512C3A
:1048A000522C6C2C59088600073087000130810794
:1048B00041310318810A2530A0000030A1006808AA
:1048C000DB005B08A200AE31E526A33101302D00EC
:1048D000D9000030DA009D2C590886000730870087
:1048E0000130810741310318810AD901DA019D2C79
:1048F0005908860007308700403FDB00413FDC005D
:104900005B0884005C0885000008DD00DE015D08AE
:10491000A0005E08A1006808DF005F08A200AE31B9
:10492000E526A3312D0059088600073087000130A5
:10493000810741310318810A662C08002D00B2015D
:10494000A830860006308700473FB000B01FA92C72
:10495000AA2CCC2C2D00A809A909AA09AB09AC09DD
:10496000AD09AE09AF09A80A031DC92CA90A031D88
:10497000C92CAA0A031DC92CAB0A031DC92CAC0AF9
:10498000031DC92CAD0A031DC92CAE0A031DC92C79
:10499000AF0A2D00B201B20AA030860006308700AF
:1049A000473F2D00B000B01FD62CD72CF62C2D0081
:1049B000A009A109A209A309A409A509A609A70993
:1049C000A00A031DF62CA10A031DF62CA20A031D42
:1049D000F62CA30A031DF62CA40A031DF62CA50A27
:1049E000031DF62CA60A031DF62CA70A2D0020088D
:1049F0002104220423042404250426042704031983
:104A0000022D032D562DB101B10A122DA035A10D95
:104A1000A20DA30DA40DA50DA60DA70D0130B0008C
:104A20003008B107A71F152D162D062D27082F02B8
:104A3000031D342D26082E02031D342D25082D02BA
:104A4000031D342D24082C02031D342D23082B02B2
:104A5000031D342D22082A02031D342D21082902AA
:104A6000031D342D20082802031C372D382D482D16
:104A70002008A8022108A93B2208AA3B2308AB3B37
:104A80002408AC3B2508AD3B2608AE3B2708AF3BCE
:104A9000A736A60CA50CA40CA30CA20CA10CA00C70
:104AA0000130B102031D552D562D162D3208031964
:104AB0005A2D5B2D792DA809A909AA09AB09AC09C2
:104AC000AD09AE09AF09A80A031D792DA90A031D76
:104AD000792DAA0A031D792DAB0A031D792DAC0A85
:104AE000031D792DAD0A031D792DAE0A031D792D05
:104AF000AF0A2D002808A0002908A1002A08A2005A
:104B00002B08A3002C08A4002D08A5002E08A60041
:104B10002F08A70008002D00B201A0308600063043
:104B20008700473FB000B01F962D972DB92D2D005F
:104B3000A009A109A209A309A409A509A609A70911
:104B4000A00A031DB62DA10A031DB62DA20A031D3E
:104B5000B62DA30A031DB62DA40A031DB62DA50A62
:104B6000031DB62DA60A031DB62DA70A2D00B201FE
:104B7000B20AA830860006308700473F2D00B000FB
:104B8000B01FC32DC42DE82D2D00A809A909AA091D
:104B9000AB09AC09AD09AE09AF09A80A031DE32DA5
:104BA000A90A031DE32DAA0A031DE32DAB0A031D69
:104BB000E32DAC0A031DE32DAD0A031DE32DAE0A60
:104BC000031DE32DAF0A01302D00B0003008B206FE
:104BD000B33086000630870008302D00B00000306A
:104BE0001E00B00BF02D200821042204230424040D
:104BF0002504260427040319FE2DFF2D5B2EB10189
:104C0000B10A0E2EA035A10DA20DA30DA40DA50D68
:104C1000A60DA70D0130B0003008B107A71F112E57
:104C2000122E022EB335B40DB50DB60DB70DB80D5D
:104C3000B90DBA0D27082F02031D382E26082E02A3
:104C4000031D382E25082D02031D382E24082C02A2
:104C5000031D382E23082B02031D382E22082A029A
:104C6000031D382E21082902031D382E2008280292
:104C7000031C3B2E3C2E4D2E2008A8022108A93BE8
:104C80002208AA3B2308AB3B2408AC3B2508AD3BDC
:104C90002608AE3B2708AF3B3314A736A60CA50C5D
:104CA000A40CA30CA20CA10CA00C0130B102031D9A
:104CB0005A2E5B2E122E320803195F2E602E7E2E86
:104CC000B309B409B509B609B709B809B909BA09E8
:104CD000B30A031D7E2EB40A031D7E2EB50A031DE2
:104CE0007E2EB60A031D7E2EB70A031D7E2EB80A3D
:104CF000031D7E2EB90A031D7E2EBA0A2D0033082D
:104D0000A0003408A1003508A2003608A300370827
:104D1000A4003808A5003908A6003A08A700080032
:104D20002D00C6003B08CF003C08D0003D08D10054
:104D30003E08D2003F08D3004008D4004108D50007
:104D40004208D600CF30860006308700473FC300B8
:104D5000C31BAB2EAD2E0130AE2E00302D00C40093
:104D6000C5014408CD004508CE004D084E04031986
:104D7000BA2EBB2ED92ECF09D009D109D209D30919
:104D8000D409D509D609CF0A031DD92ED00A031D8F
:104D9000D92ED10A031DD92ED20A031DD92ED30A2A
:104DA000031DD92ED40A031DD92ED50A031DD92ED1
:104DB000D60A2E00A81BDD2EDE2EE22EFD30A90520
:104DC000FF30AA052808803A2D00C3008030430236
:104DD000031DED2E01302E0027020318F02EF12EB8
:104DE000F72E01302D00C9000030CA00FF2E2E0022
:104DF00028082D00CA002E0027082D00C9002F000A
:104E000040082D00CC002F003F082D00CB004D089E
:104E10004E04031D0C2F0D2F122F2E00291D112FB4
:104E2000122F172FFF302D00CB07FF30CC3D1F3046
:104E30002D00D7000030D8003100CF01882FFF307F
:104E40002D00D707FF30D83D0A30A000A101A201F4
:104E5000A301A401A501A601A7014F08A8005008BD
:104E6000A9005108AA005208AB005308AC0054082E
:104E7000AD005508AE005608AF00A4319E24A631FF
:104E80002D002108B4002008B300AA31BA22A631AF
:104E90002D003308303EC3005708B03E860008306E
:104EA000870043088100FF30C907FF30CA3DFF304B
:104EB000CB07FF30CC3D0A30A000A101A201A30125
:104EC000A401A501A601A7014F08A8005008A90048
:104ED0005108AA005208AB005308AC005408AD00BA
:104EE0005508AE005608AF00A5318B25A6312D0020
:104EF0002008CF002108D0002208D1002308D200CA
:104F00002408D3002508D4002608D5002708D60099
:104F10002D005808803AC30080304302031D922FB1
:104F200001305702031C952F962FC32F2D004F08D9
:104F30005004510452045304540455045604031DF0
:104F4000A22FA32F1F2F4A08803AC30080304302AC
:104F5000031DAC2F013049020318AF2FB02F1F2FB4
:104F60002D004C08803AC30080304302031DBA2F45
:104F700001304B02031CBD2FBE2FC32F2E00A918DA
:104F8000C22FC32F1F2F2D004D084E04031DC92F04
:104F9000CA2FCF2F2E00291DCE2FCF2FEC2FFF3061
:104FA0002D00D707FF30D83D4D084E04031DD92FE3
:104FB000DA2FDF2F2B30C7000030C800E32F2D3051
:104FC000C7000030C8004708C3005708B03E86003D
:104FD00008308700430881002D005708B03EC30009
:104FE0004308B0004C08B2004B08B1004608A0319D
:104FF0000020A6312D003108BC003008BB0008009D
:105352001630210099000800240016151619B229EA
:10536200B329AF290800240016141618B929BA293E
:10537200B62908007A3021009B0080309C009A01F7
:105382009D010800230055309600AA30960095141E
:10539200000000000800230055309600AA30960055
:1053A2009514000000000800A8302B008E00033086
:1053B2009000FF308F000D14080024009401083083
:1053C2009500960127309200951208002B000E13CB
:1053D2002D005C082B008F002D005D082B00900033
:1053E2000D1408006400800101310130FE0200301A
:1053F200FF3B7F087E04031DF4290034FE001200E7
:105402001E000130FE020030FF3B7F087E04031DB8
:10541200002A0034240014190F2A102A0B2A161FFE
:10542200132A142A172AA931AD21AA3108002D0006
:10543200A0002008240091001418202A212A1D2AE5
:10544200AA310B22AA310800CF3021009E00D330AE
:1054520029009100023092008E018F0125309000C8
:105462000800B8340B3430347534B8340B34143487
:1054720000341434003414340034143400346434EA
:1054820032342D002108230092002D002008230031
:1054920091001513151400000000230014082D00BC
:1054A200A100230013082D00A00008002D00A10078
:1054B200A931B421AA317830AA311822AA31003098
:1054C200AA311822AA312D002108AA311822AA31A4
:1054D200A931AD21AA31080000308B1B0130F20046
:1054E2008B13710823009200700891001513151692
:1054F2001515A931C321AA31230015117208031908
:10550200832A842A852A8B17080021001708C039AC
:1055120013389700C73020009700C7302D00A20033
:1055220022082E00E9000B118B1600302D00A0007E
:105532000030A10090310120AA3108002D00A40002
:105542002408A2002208A300AA2A0130A2002208ED
:10555200A40724088600083087000108031DB22A28
:10556200B32AA62A23082402A000A101A01BA1039A
:1055720008002D003408803AB50080303502031D42
:10558200C42A013033020318C72AC82AD52A2D009B
:105592003309B5003409B600B50A0319B60A35084D
:1055A200B3003608B400D52A080000308B1B013046
:1055B2002D00A2008B132108230092002D00200849
:1055C20023009100151315161515A931CC21AA3106
:1055D200230015112D0022080319F02AF12AF22ABC
:1055E2008B17080000308B1B0130F5008B137108FC
:1055F20023009200700891007308940072089300CF
:10560200740C031C95120318951615131512151513
:10561200A931C321AA3175080319102B112B122BA2
:105622008B1708002D00A1001830A00020082100CF
:105632008E042D002103031D1F2B202B232B24005E
:105642009417282B7F30A0002008240094052830CE
:10565200950013309200F7302D00A000200824009E
:10566200970508002D00AD01AE01291C392B3A2BFC
:105672003E2B2B08AD072C08AE3D0130AB35AC0DEF
:10568200890B3F2B0130AA36A90C890B442B290820
:105692002A04031D4D2B4E2B362B2E08AA002D0853
:1056A200A90008002E3400340034003400340034E1
:1056B2000034003400340034003400340034003448
:1056C200003400342E34003400340034003400340A
:1056D2000034003400340034003400340034003428
:1056E200003400342E3400340034003400340034EA
:1056F2000034003400340034003400340034003408
:10570200003400342E3400340034003400340034C9
:1057120000340034003400340034003400340034E7
:10572200003400342D00A401A5012D002408200717
:10573200A2002508213DA300220886002308870035
:10574200203081000130A4070030A53D2508803AB1
:10575200A20080302202031DB02B10302402031C51
:10576200B32BB42B962B08002D00A800A401A50191
:105772002008A200A3012208A6002308A700281CD3
:10578200C32BC42BC82B2608A4072708A53D01302C
:10579200A635A70D890BC92B0310A80C2808031DD9
:1057A200D32BD42BC02B2508A1002408A00008006D
:1057B2002D00AF00AD01AE01F12B2C08A900AA010A
:1057C2002908A0002A08A1002808AB002B08A20083
:1057D200AE31E526AB3101302D00AD070030AE3DD4
:1057E2002D082F07A9002908860008308700010824
:1057F200AA002A08AC002C08031D002C012CDE2B69
:10580200080000308B1B01302D00A5008B132108EE
:10581200230092002D002008230091002D00230870
:10582200230094002D002208230093002D00240C55
:105832002300031C9512031895161513151215153E
:10584200A931CC21AC312D0025080319292C2A2C91
:105852002B2C8B17080000302D00AB000030AA0063
:105862000030A9000030A800201C382C392C412C13
:105872002408A8072508A93D2608AA3D2708AB3D0C
:105882000130A435A50DA60DA70D890B422C0130C0
:10589200A336A20CA10CA00C890B492C23082204CC
:1058A20021042004031D562C572C352C2B08A30051
:1058B2002A08A2002908A1002808A00008002E003A
:1058C200C1002D006A082E00C3002D0069082E00B9
:1058D200C2002F00BD01BE01842C42302D00EC001D
:1058E2006C08D9006B08ED006D08DA002E00410843
:1058F200A331B623AC312D0059082F00BD072D006E
:105902005A082F00BE3D2E0042088400430885003D
:105912001200031D8D2C8E2C6E2C2F003E082D00A4
:10592200EA002F003D082D00E900080022008C014A
:105932008D018E01083021009000B8308C00FF30BC
:105942008D00FF308E0023008E0108308D00043060
:105952008C00240090018D018C018E01210097178B
:1059620025008C018D018E01FF3026008C00FF3056
:105972008D00FF308E003F3027008C00F0308D000C
:10598200FF308E0014303C00BB0021303D00A300EC
:105992002230A40013303C00BA0008002D00A800F9
:1059A2002208A400A5010530A435A50D890BD52C2C
:1059B2002408803EA6003F30253DA7002130230267
:1059C2000318E42CE52C0B2D04302202031CEA2CD4
:1059D200EB2C062D0B2D2708A1002608A000AA31CA
:1059E2004222AC312D002008A4002808860007308E
:1059F2008700240881000130A6070030A73D01304E
:105A0200A4002408A8070130A3022308031D0A2DBD
:105A12000B2DEC2C08002D00B501B6012F08300427
:105A22000319142D152D442DB401B40A212D013072
:105A3200AF35B00D890B192D0130B3003308B4070F
:105A4200B01F242D252D182D0130B535B60D890B2B
:105A5200262D30083202031D302D2F083102031C7F
:105A6200332D342D392D2F08B1023008B23B3514B5
:105A72000130B036AF0C890B3A2D0130B402031D50
:105A8200432D442D252D3608B0003508AF000800FF
:105A92002D0021082E00A1002D0020082E00A000BC
:105AA2002D0020088400210885000008A200220899
:105AB2002E00A2002D002108A3002008A200013020
:105AC2002207840023080318230A85000008A40083
:105AD20024082E00A3002D002108A3002008A20004
:105AE20002302207840023080318230A85000008D5
:105AF200A40024082E00A4002D002108A3002008E1
:105B0200A20003302207840023080318230A850019
:105B12000008A40024082E00A500A60108002D00FC
:105B22003D083C043B043A040319982D992DD22DCB
:105B3200C301C30AA72D0130BA35BB0DBC0DBD0D83
:105B4200890B9D2D0130C2004208C307BD1FAA2D3B
:105B5200AB2D9C2D3D084102031DB92D3C0840028E
:105B6200031DB92D3B083F02031DB92D3A083E0221
:105B7200031CBC2DBD2DC52D3A08BE023B08BF3B00
:105B82003C08C03B3D08C13B0130BD36BC0CBB0CE0
:105B9200BA0C890BC62D0130C302031DD12DD22DA3
:105BA200AB2D4108BD004008BC003F08BB003E08C9
:105BB200BA0008002D00A601A31FE02DE12DE82D5B
:105BC200A209A309A20A0319A30AA601A60AA11FF0
:105BD200EB2DEC2DF12DA009A109A00A0319A10AB0
:105BE200200821040319F62DF72D202EA501A50A60
:105BF200032E0130A035A10D890BFB2D0130A4002D
:105C02002408A507A11F062E072EFA2D210823021C
:105C1200031D0D2E20082202031C102E112E152EFC
:105C22002008A2022108A33B0130A136A00C890B57
:105C3200162E0130A502031D1F2E202E072E260828
:105C42000319242E252E2A2EA209A309A20A03191A
:105C5200A30A2308A1002208A00008002D00A50124
:105C62002130AA315722AE310030AA315722AE314B
:105C72007F30AA315722AE312230AA315722AE31BB
:105C82000030AA315722AE310730AA315722AE3145
:105C9200A931B421AE317830AA311822AE31403068
:105CA200AA311822AE312D00A601A701A5010030AC
:105CB200A3002030A4002608230786002708243DDD
:105CC20087000108AA311822AE3101302D00A60743
:105CD2000030A73D0130A3002308A507103025029C
:105CE200031C742E752E582E0130A6020030A73BDD
:105CF2000130A6070030A73D043027020030031907
:105D02002602031C852E862E572EA931AD21AE31D7
:105D1200080000302D00B8000030B7000030B60097
:105D22000030B5002F082E042D042C0403199A2EDE
:105D32009B2EDC2EB901B90AA92E0130AC35AD0D6E
:105D4200AE0DAF0D890B9F2E0130B4003408B90798
:105D5200AF1FAC2EAD2E9E2E0130B535B60DB70D50
:105D6200B80D890BAE2E2F083302031DC22E2E084A
:105D72003202031DC22E2D083102031DC22E2C0831
:105D82003002031CC52EC62ECF2E2C08B0022D08C1
:105D9200B13B2E08B23B2F08B33B35140130AF366E
:105DA200AE0CAD0CAC0C890BD02E0130B902031D28
:105DB200DB2EDC2EAD2E3808AF003708AE003608D9
:105DC200AD003508AC0008002D0022080319EA2EA8
:105DD200EB2EF02E2208031DEF2EF02EF52E2008BA
:105DE20090310020AE31412F2208043E8600073058
:105DF2008700160001040319FF2E002F202F22080E
:105E0200043E860007308700403FA300413FA400C4
:105E12002208023E860007308700403FA500413F2E
:105E2200A6002608803AA7002408803A2702031D0C
