:020000040000FA
:100000008031A228803008007E1480318B1E0928A0
:100010000A28A0280B1D0D280E28A0280B112E0041
:1000200038080319142815281F28580859040319DB
:100030001A281B281F28FF30D807FF30D93D5C083D
:100040005D04031924282528592860086104031D2C
:100050002A282B2859285E085F04031D30283128E0
:1000600059282F00450846040319372838285E28E8
:100070000130C5020030C63B45084604031D412837
:1000800042285E2850302E00D800C330D900B80175
:10009000B80A3E30FD007D08F600F701F70A00308F
:1000A0009031012080310430FD007D082E00BE001B
:1000B0005E2810302F00C5002730C6002E006008D3
:1000C00061040319642865287C285E085F04031D09
:1000D0006A286B287C285C085D04031D7028712841
:1000E0007C285A085B040319762877288028FF307B
:1000F000DA07FF30DB3D8028A830DA006130DB0012
:100100006008610403198528862896285E085F0424
:1001100003198B288C2896285C085D040319912804
:1001200092289628B101B201B301B9013108320415
:1001300003199B289C28A0280130B1020030B23B53
:100140007E1009008031A42823308400B730850058
:1001500058308600073087000030FF000C30B73180
:1001600017278031C8308400A8308500C53086004C
:10017000073087000030FF002430B7311727803167
:1001800062308400A8308500503086000830870037
:100190000030FF002030B73117278031283084002D
:1001A00027308500C830FE000030FF00B7310B2734
:1001B00080310030840020308500F030FE000330B4
:1001C000FF00B7310B2780312030840007308500D5
:1001D0001F30FE000030FF00B7310B278031A03008
:1001E0008400073085002530FE000030FF00B73165
:1001F0000B27803120308400083085003030FE002D
:100200000030FF00B7310B278031A0308400083068
:1002100085003030FE000030FF00B7310B27803101
:100220007E102000A631282E1034103420345F3484
:10023000003400340034003400340034003400341E
:10024000003400340034003400340034003400340E
:1002500000340034003400340034003400340034FE
:1002600000340034003400340034003400340034EE
:100270000034003400340034F834FC34FC34FC34F2
:10028000F8340034003400340034003400340034D6
:100290000034003400340034003473347334733465
:1002A00000340034003400340034003400340034AE
:1002B00000340034003400341E343E343E34003404
:1002C000003400343E343E341E34003400340034F4
:1002D000003400340034003400340034003400347E
:1002E000003400340034003400340034003400346E
:1002F0000034303430343034FE34FE343034303472
:1003000030343034FE34FE34303430343034003461
:1003100000340C340C340C347F347F340C340C3403
:100320000C340C347F347F340C340C340C340034F3
:10033000003400340034F034F8349834FE34983407
:100340009834FE349834983418340034003400342F
:100350000034003400341834193419347F3419341B
:1003600019347F3419341F340F340034003400340E
:1003700000340034003400343834383438348034B5
:10038000C034E03470343834003400340034003485
:1003900000340034003400341C340E340734033489
:1003A00001341C341C341C34003400340034003458
:1003B0000034003400343834FC34C434C434FC34E5
:1003C00038340034003400348034003400340034D5
:1003D0000034003400341E343F34213421343334AB
:1003E0003F341E341E343734233400340034003498
:1003F000003400340034003420343C343C341C34A9
:10040000003400340034003400340034003400344C
:10041000003400340034003400340034003400343C
:10042000003400340034003400340034003400342C
:100430000034003400340034C034E034F034383454
:100440001C340C34043404340034003400340034DC
:100450000034003400340034033407340F341C34C7
:100460003834303420342034003400340034003444
:100470000034003400340034043404340C341C34AC
:100480003834F034E034C034003400340034003404
:100490000034003400340034203420343034383414
:1004A0001C340F3407340334003400340034003477
:1004B00000340034803488349034E034E034FC3448
:1004C000FC34E034E0349034883480340034003438
:1004D00000340034013411340934073407343F3414
:1004E0003F34073407340934113401340034003404
:1004F0000034003400340034803480348034F034EC
:10050000F0348034803480340034003400340034DB
:1005100000340034003400340134013401340F3429
:100520000F34013401340134003400340034003419
:10053000003400340034003400340034003400341B
:10054000003400340034003400340034003400340B
:100550000034003400340034403478347834383493
:1005600000340034003400340034003400340034EB
:10057000003400340034803480348034803480345B
:10058000803480348034803480340034003400344B
:1005900000340034003401340134013401340134B6
:1005A00001340134013401340134003400340034A6
:1005B000003400340034003400340034003400349B
:1005C000003400340034003400340034003400348B
:1005D00000340034003400340034383438343834D3
:1005E000003400340034003400340034003400346B
:1005F000003400340034003400340034003400345B
:1006000000348034C034E034703438341C34003466
:100610000034003400342034303438341C340E3488
:10062000073403340134003400340034003400341F
:10063000003400340034F834FC34FC3404348434A2
:10064000E4347434FC34FC34F834003400340034C2
:100650000034003400341F343F343F342E34273408
:10066000213420343F343F341F340034003400340C
:10067000003400340034603460346034F034FC34CE
:10068000FC340034003400340034003400340034CE
:100690000034003400342034203420343F343F34DC
:1006A0003F3420342034203400340034003400340B
:1006B00000340034003418341C341C340434043442
:1006C0008434CC34FC347834303400340034003496
:1006D000003400340034303438343C342E34273481
:1006E000233421343834383438340034003400347E
:1006F00000340034003418341C341C348434843402
:100700008434CC347C3478343034003400340034D5
:10071000003400340034183438343834213421346F
:10072000213433343E341E340C340034003400346D
:100730000034003400348034C03460343034183431
:10074000FC34FC34FC340034003400340034003415
:1007500000340034003403340334033423342334AA
:100760003F343F343F3423342334003400340034E6
:10077000003400340034FC34FC34FC3484348434DD
:100780008434843484340434043400340034003435
:1007900000340034003419343934393421342134EC
:1007A000213433343F341F340E34003400340034E9
:1007B000003400340034E034F034F8349C348C34A9
:1007C000843484348434803400340034003400347D
:1007D0000034003400341F343F343F34213421349A
:1007E000213421343F343F341F340034003400348A
:1007F0000034003400343C343C343C34043404349D
:10080000043404348434FC34FC347C340034003448
:1008100000340034003400340034003438343C34C4
:100820003E340734033401340034003400340034DF
:1008300000340034003478347C34FC34C434C434A0
:1008400084348434FC347C34783400340034003410
:100850000034003400341E343E343F34213421341B
:10086000233423343F343E341E3400340034003407
:10087000003400340034F834FC34FC3484348434E0
:1008800084348434FC34FC34F834003400340034D0
:100890000034003400340034013421342134213454
:1008A000313439341F340F34073400340034003409
:1008B00000340034003400340034003470347034B8
:1008C0007034003400340034003400340034003418
:1008D0000034003400340034003400340E340E345C
:1008E0000E3400340034003400340034003400345A
:1008F0000034003400340034003400347034703478
:1009000070340034003400340034003400340034D7
:100910000034003400340034003410341E341E34EB
:100920000E34003400340034003400340034003419
:100930000034003400348034C034E034703438344F
:100940001C340E34063402340034003400340034D5
:100950000034003400340134033407340E341C34C2
:10096000383470346034403400340034003400349F
:100970000034003460346034603460346034603497
:100980006034603460346034603460340034003487
:100990000034003406340634063406340634063493
:1009A0000634063406340634063406340034003483
:1009B000003400340034023406340E341C3438342D
:1009C0007034E034C03480340034003400340034F7
:1009D00000340034003440346034703438341C3413
:1009E0000E3407340334013400340034003400344E
:1009F00000340034003418341C340C340E34063403
:100A00008634CE34FC347C34383400340034003442
:100A100000340034003400340034003400347334C3
:100A20007334733400340034003400340034003440
:100A3000003400340034FC34FE34FE34023402341A
:100A4000C234C234C234FE34FE34FC3400340034C8
:100A50000034003400343F343F347F346034603439
:100A60006334633463346334433403340034003414
:100A7000003400340034E034F034F8341C340C34E6
:100A80000C341C34F834F034E034003400340034D6
:100A90000034003400343F343F343F3402340234F5
:100AA000023402343F343F343F34003400340034E5
:100AB0000034003400340434FC34FC34FC3484341A
:100AC00084348434FC34FC3478340034003400340E
:100AD00000340034003420343F343F343F34213478
:100AE000213421343F343F341E3400340034003488
:100AF000003400340034F034F834FC340C34043462
:100B0000043404341C341C341834003400340034ED
:100B10000034003400340F341F343F343034203478
:100B2000203420343834383418340034003400345D
:100B30000034003400340434FC34FC34FC34043419
:100B400004340C34FC34F834F03400340034003411
:100B500000340034003420343F343F343F342034F8
:100B6000203430343F341F340F3400340034003428
:100B70000034003400340434FC34FC34FC34843459
:100B800084348434C434CC341C3400340034003411
:100B900000340034003420343F343F343F342134B7
:100BA00021342134233433343834003400340034D5
:100BB0000034003400340434FC34FC34FC34843419
:100BC00084348434C434CC341C34003400340034D1
:100BD00000340034003420343F343F343F34213477
:100BE000013401340334033400340034003400345D
:100BF000003400340034F034F834FC340C34043461
:100C0000043404343C343C3438340034003400348C
:100C10000034003400340F341F343F343034203477
:100C2000223422343E343E343E3400340034003426
:100C3000003400340034FC34FC34FC348034803420
:100C40008034FC34FC34FC34003400340034003490
:100C50000034003400343F343F343F340134013435
:100C600001343F343F343F34003400340034003426
:100C7000003400340034003404340434FC34FC34D4
:100C8000FC340434043400340034003400340034C0
:100C90000034003400340034203420343F343F34F6
:100CA0003F34203420340034003400340034003425
:100CB0000034003400340034003400340034043490
:100CC0000434FC34FC34FC34043404340034003484
:100CD000003400341E341E343E342034203420349A
:100CE00020343F343F341F340034003400340034A7
:100CF0000034003400340434FC34FC34FC34C0349C
:100D0000E03470343C341C340C340034003400348F
:100D100000340034003420343F343F343F34033453
:100D200007340E343C34383430340034003400346A
:100D30000034003400340434FC34FC34FC34043417
:100D40000034003400340034003400340034003403
:100D500000340034003420343F343F343F342034F6
:100D600020342034303438343C34003400340034FF
:100D7000003400340034FC34FC34FC347834F03477
:100D8000E034F0347834FC34FC34FC340034003487
:100D90000034003400343F343F343F3400340034F6
:100DA0000134003400343F343F343F3400340034E5
:100DB000003400340034FC34FC34FC347034E0344F
:100DC000C03480340034FC34FC34FC34003400344F
:100DD0000034003400343F343F343F3400340034B6
:100DE0000134033407343F343F343F34003400349B
:100DF000003400340034E034F034F8341C340C3463
:100E00000C340C341C34F834F034E0340034003446
:100E100000340034003407340F341F343834303495
:100E20003034303438341F340F3407340034003455
:100E30000034003400340434FC34FC34FC34843496
:100E400084348434FC34FC3478340034003400348A
:100E500000340034003420343F343F343F342134F4
:100E600001340134013401340034003400340034DE
:100E7000003400340034E034F834F8341C340C34DA
:100E800004340C341C34F834F834E03400340034C6
:100E900000340034003407341F341F34183418343D
:100EA0005C345E347E347F347F3447340034003425
:100EB0000034003400340434FC34FC34FC34843416
:100EC00084348434FC34FC3478340034003400340A
:100ED00000340034003420343F343F343F34013494
:100EE000013403343F343F343C34003400340034A4
:100EF0000034003400347834FC34FC3484348434DA
:100F000084348434BC343C34383400340034003409
:100F10000034003400341C343C343D34213421345A
:100F2000213421343F343F341E3400340034003443
:100F30000034003400341C340C3404340434FC34E5
:100F4000FC34FC34043404340C341C3400340034D9
:100F500000340034003400340034203420343F3472
:100F60003F343F3420342034003400340034003423
:100F7000003400340034FC34FC34FC3400340034DD
:100F80000034FC34FC34FC340034003400340034CD
:100F90000034003400341F343F343F3420342034D4
:100FA00020343F343F341F340034003400340034E4
:100FB000003400340034FC34FC34FC34003400349D
:100FC0000034FC34FC34FC3400340034003400348D
:100FD00000340034003407340F341F3438343034D4
:100FE00038341F340F3407340034003400340034F4
:100FF000003400340034FC34FC34FC34003400345D
:10100000803400340034FC34FC34FC3400340034CC
:1010100000340034003403340F343F343C343C3467
:101020000F343C343C343F340F3403340034003448
:101030000034003400341C343C347C34E034C0349C
:10104000E0347C343C341C3400340034003400344C
:1010500000340034003438343C343E340734033434
:1010600007343E343C343834003400340034003427
:101070000034003400347C34FC34FC3480340034DC
:101080008034FC34FC347C340034003400340034CC
:101090000034003400340034203421343F343F34F1
:1010A0003F34213420340034003400340034003420
:1010B0000034003400343C341C340C3404348434A4
:1010C000C434E4347C343C341C3400340034003404
:1010D00000340034003438343C343E342734233474
:1010E00021342034303438343C340034003400347B
:1010F00000340034003400340034FC34FC34FC345C
:10110000043404340434043400340034003400342F
:10111000003400340034003400343F343F343F3472
:10112000203420342034203400340034003400349F
:101130000034003400341C3438347034E034C034AB
:10114000803400340034003400340034003400347F
:1011500000340034003400340034003400340134EE
:10116000033407340E341C34183430342034203423
:1011700000340034003400340034043404340434C3
:101180000434FC34FC34FC340034003400340034C7
:10119000003400340034003400342034203420344F
:1011A00020343F343F343F340034003400340034C2
:1011B0000034003400342034303438341C340E34DD
:1011C0000E341C34383430342034003400340034CD
:1011D000003400340034003400340034003400346F
:1011E000003400340034003400340034003400345F
:1011F000003400340034003400340034003400344F
:10120000003400340034003400340034003400343E
:101210000034C034C034C034C034C034C034C034EE
:10122000C034C034C034C034C034C034C034C0341E
:101230000034003400340C340C343C34303430345A
:1012400000340034003400340034003400340034FE
:1012500000340034003400340034003400340034EE
:1012600000340034003400340034003400340034DE
:1012700000340034003400344034403440344034CE
:101280004034C034C034803400340034003400347E
:101290000034003400341C343E343E3422342234D2
:1012A00022343F341F343F342034003400340034BF
:1012B0000034003400340434FC34FC34FC34403456
:1012C00040344034C034C0348034003400340034FE
:1012D00000340034003420343F341F343F34203491
:1012E000203420343F343F341F3400340034003481
:1012F0000034003400348034C034C03440344034CE
:101300004034C034C03480340034003400340034FD
:101310000034003400341F343F343F342034203450
:101320002034393439341934003400340034003472
:101330000034003400348034C034C034403440348D
:101340004434FC34FC34FC340434003400340034C1
:101350000034003400341F343F343F342034203410
:1013600020343F341F343F34203400340034003400
:101370000034003400348034C034C034403440344D
:101380004034C034C034803400340034003400347D
:101390000034003400341F343F343F3422342234CC
:1013A00022343B343B341B340034003400340034EA
:1013B00000340034003480348034F834FC34FC349D
:1013C00084349C349C3418340034003400340034A9
:1013D000003400340034213421343F343F343F346E
:1013E000213421340134003400340034003400341A
:1013F0000034003400348034C034C03440344034CD
:101400004034C0348034C0344034003400340034BC
:101410000034003400344734CF34DF349834983407
:101420009834FF34FF347F34003400340034003407
:101430000034003400340434FC34FC34FC34803494
:1014400040344034C034C03480340034003400347C
:1014500000340034003420343F343F343F3401340E
:10146000003400343F343F343F340034003400341F
:101470000034003400340034403440344034DC3430
:10148000DC34DC3400340034003400340034003404
:1014900000340034003400342034203420343F340D
:1014A0003F343F34203420342034003400340034BE
:1014B000003400340034003400340034403440340C
:1014C0004034DC34DC34DC340034003400340034A8
:1014D00000340034003420346034E034803480340C
:1014E000C034FF34FF347F3400340034003400341F
:1014F0000034003400340434FC34FC34FC34003454
:1015000000348034C034C0344034003400340034FB
:1015100000340034003420343F343F343F3402344C
:1015200007340F343D343834303400340034003460
:101530000034003400340034043404340434FC3403
:10154000FC34FC3400340034003400340034003403
:1015500000340034003400342034203420343F344C
:101560003F343F34203420342034003400340034FD
:10157000003400340034C034C034C034403440340B
:10158000C03440344034C034C0348034003400347B
:101590000034003400343F343F343F3400340034EE
:1015A0003F34003400343F343F343F34003400349F
:1015B000003400340034C034C034C03440344034CB
:1015C0004034C034C034803400340034003400343B
:1015D0000034003400343F343F343F3400340034AE
:1015E00000343F343F343F3400340034003400349E
:1015F0000034003400348034C034C03440344034CB
:101600004034C034C03480340034003400340034FA
:101610000034003400341F343F343F34203420344D
:1016200020343F343F341F3400340034003400345D
:101630000034003400344034C0348034C03440348A
:1016400040344034C034C03480340034003400347A
:101650000034003400348034FF34FF34FF349034DD
:10166000103410341F341F340F340034003400346D
:10167000003400348034C034C0344034403440340A
:10168000C0348034C034403400340034003400347A
:10169000003400340F341F341F34103410349034AD
:1016A000FF34FF34FF34803400340034003400341D
:1016B0000034003400344034C034C034C03480348A
:1016C000C034C034C034C0348034003400340034FA
:1016D00000340034003420343F343F343F3421346C
:1016E0000034003401340134013400340034003457
:1016F0000034003400348034C034C03440344034CA
:1017000040344034C0348034003400340034003479
:1017100000340034003419343B3423342634263466
:1017200026343C343D341934003400340034003461
:1017300000340034003440344034E034F034F834C1
:1017400040344034403440340034003400340034F9
:10175000003400340034003400341F343F343F344C
:101760002034383438341834003400340034003431
:10177000003400340034C034C034C0340034003489
:101780000034C034C034C034003400340034003479
:101790000034003400341F343F343F3420342034CC
:1017A00020343F341F343F342034003400340034BC
:1017B000003400340034C034C034C0340034003449
:1017C0000034C034C034C034003400340034003439
:1017D00000340034003407340F341F3438343034CC
:1017E00038341F340F3407340034003400340034EC
:1017F000003400340034C034C034C0340034003409
:10180000003400340034C034C034C03400340034F8
:1018100000340034003407340F343F343834383463
:101820000E34383438343F340F3407340034003445
:10183000003400340034C034C034C03400340034C8
:10184000C034C034C03400340034003400340034B8
:10185000003400340034303439343F340F340F3422
:101860003F34393430340034003400340034003430
:101870000034003400340034C034C034C034003488
:1018800000340034C034C034C03400340034003478
:10189000003400340034803487348F349F34D8349B
:1018A000F83478343F340F340734003400340034D3
:1018B000003400340034C034C03440344034403448
:1018C000C034C034C0340034003400340034003438
:1018D000003400340034313438343C342E3427346E
:1018E00023343134383400340034003400340034CC
:1018F00000340034003480348034C03478347C3494
:101900003C340434043404340434003400340034EB
:101910000034003400340134013403341E343E34C6
:101920003C3420342034203420340034003400345B
:101930000034003400340034003400340034FE3409
:10194000FE34FE34003400340034003400340034FB
:1019500000340034003400340034003400347F3468
:101960007F347F34003400340034003400340034D9
:1019700000340034003404340434043404343C347B
:101980007C347834C0348034803400340034003403
:1019900000340034003420342034203420343C34EB
:1019A0003E341E3403340134013400340034003436
:1019B0000034003438343C343C3404340C341C34AB
:1019C0003834303420343C343C341C34003400345B
:1019D0000034003400340034003400340034003467
:1019E0000034003400340034003400340034003457
:1019F000080000308B1B01302D00A2008B13210842
:101A0000230092002D0020082300910015131516C5
:101A10001515B631DB268C31230015112D00220857
:101A20000319132D142D152D8B17080031005408A0
:101A3000550403191C2D1D2D222D0130D402003018
:101A4000D53B262DE830D4000330D50001305502B7
:101A5000F53003195402031C2E2D2F2D322D220098
:101A60000C13342D22000C170B302E00D3006230E3
:101A7000890B382DD30B382D000020008D1E412DF1
:101A8000422D162D22000C17D9302D00A000073052
:101A9000A100A83182208D3160302D00A0000830D7
:101AA000A100A83182208D3150302D00A0000830D7
:101AB000A100A83182208D31C9302D00A00007304F
:101AC000A100A83182208D319531E32DD930C2009B
:101AD0000730C3006230C400B830C500A9313F21CF
:101AE0008D3100302E00C600C700B631FF268D3183
:101AF00022000C1022008C109531FF2D2D00A20128
:101B0000A20AA301A30A6330A931D9218D31D930AA
:101B10002E00C2000730C3005D30C400B830C500DD
:101B2000A9313F218D31C9302E00C2000730C300DA
:101B30002E30C400B830C5000A302D00A00000309F
:101B4000A1002E006308D300D40153082D00A20089
:101B50002E0054082D00A300AB316D238D312D00D4
:101B600021082E00C7002D0020082E00C6000A30D4
:101B70002D00A0000030A1002E006308D500D60182
:101B800055082D00A2002E0056082D00A300AA31F2
:101B900063228D312D0021082E00C9002D00200860
:101BA0002E00C800A9313F218D312E006308D300DB
:101BB000D401D501D60156082D00AC002E005508E1
:101BC0002D00AB002E0054082D00AA002E00530853
:101BD0002D00A9000030AD31B8258D312D002C0825
:101BE000BE002B08BD002A08BC002908BB004130FC
:101BF000BA001930B900D830B8009E30B7009D3116
:101C0000A9258D312D003A08EE003908ED0038087D
:101C1000EC003708EB00AC319F248D312D006C08AF
:101C20002E00C7002D006B082E00C600B631FF261F
:101C30008D313F302E00C200EC30C100CC30C000EE
:101C4000CD30BF0041302D00D4002030D300003013
:101C5000D2000030D1002E006308D300D401D5019A
:101C6000D60156082D00AC002E0055082D00AB0003
:101C70002E0054082D00AA002E0053082D00A900A4
:101C80000030AD31B8258D312D002C08D8002B083F
:101C9000D7002A08D6002908D500A231A3228D3109
:101CA0002D0054082E00C6002D0053082E00C5003C
:101CB0002D0052082E00C4002D0051082E00C30034
:101CC000AE3165268D310318662E672E6A2E2200EE
:101CD0000C146C2E22000C102E006308D300D401CB
:101CE00053082D00A2002E0054082D00A3000A3036
:101CF000A0000030A100AB316D238D312D002008F4
:101D0000A9002108AA00890D893B8909AB00AC0014
:101D10000130AD31B8258D312D002C082E00C200C8
:101D20002D002B082E00C1002D002A082E00C00017
:101D30002D0029082E00BF004030C6000030C5002D
:101D40000030C4000030C300AE3165268D31031C65
:101D5000AA2EAB2E7A2D22008C147C2D0330D300BA
:101D600053082D00A200A301A30A6330A931D92191
:101D70008D31D9302E00C2000730C3001830C400A6
:101D8000B830C500A9313F218D31C9302E00C200C5
:101D90000730C3002E30C400B830C5000A302D0013
:101DA000A0000030A1002E006308D300D401530826
:101DB0002D00A2002E0054082D00A300AB316D238E
:101DC0008D312D0021082E00C7002D0020082E0087
:101DD000C6000A302D00A0000030A1002E006308CC
:101DE000D500D60155082D00A2002E0056082D0062
:101DF000A300AA3163228D312D0021082E00C900D5
:101E00002D0020082E00C800A9313F218D3120006F
:101E10000D1E0B2F0C2F102F8C1D0F2F102FF32F9B
:101E200060302E00C2000830C3005530C400B83006
:101E3000C500A9313F218D312E006308D300D401A4
:101E4000D501D60156082D00AC002E0055082D00F6
:101E5000AB002E0054082D00AA002E0053082D00C0
:101E6000A9000030AD31B8258D312D002C08BE0001
:101E70002B08BD002A08BC002908BB004130BA006D
:101E80001930B900D830B8009E30B7009D31A9256F
:101E90008D312D003A08EE003908ED003808EC00CD
:101EA0003708EB00AC319F248D312D006C082E00DB
:101EB000C7002D006B082E00C600B631FF268D31FD
:101EC0003F302E00C200EC30C100CC30C000CD301D
:101ED000BF0041302D00D4002030D3000030D200AC
:101EE0000030D1002E006308D300D401D501D60103
:101EF00056082D00AC002E0055082D00AB002E001A
:101F000054082D00AA002E0053082D00A90000300F
:101F1000AD31B8258D312D002C08D8002B08D70005
:101F20002A08D6002908D500A231A3228D312D0020
:101F300054082E00C6002D0053082E00C5002D00A9
:101F400052082E00C4002D0051082E00C300AE31EF
:101F500065268D310318AD2FAE2FB12F22000C1442
:101F6000B32F22000C102E006308D300D4015308B5
:101F70002D00A2002E0054082D00A3000A30A0005E
:101F80000030A100AB316D238D312D002008A90058
:101F90002108AA00890D893B8909AB00AC000130FA
:101FA000AD31B8258D312D002C082E00C2002D003A
:101FB0002B082E00C1002D002A082E00C0002D0085
:101FC00029082E00BF004030C6000030C500003098
:101FD000C4000030C300AE3165268D31031CF12FE3
:101FE000F22F7A2DAB2E60302E00C2000830C300D5
:101FF0004430C400B830C500A9313F218D31712D66
:10200200FA007A08F800F9010530F835F90D890B64
:1020120006287808803EFB003F30793DFC002130E5
:1020220077020318152816285E2804307A02031C4A
:102032001B281C281D285E287C08F1007B08F00064
:10204200B7319727903143287C08F1007B08F000D4
:1020520076088600073087000108F800F901780841
:10206200F2007908F300F401F40AA8310220903159
:102072000130F8007808F6070130FB070030FC3D1C
:102082000130F70202307702031848284928252830
:102092007C08F1007B08F000760886000730870094
:1020A2000108F800F9017808F2007908F300F40158
:1020B200A831022090312300150808002D00B2013A
:1020C200A030860006308700473FB000B01F6A2864
:1020D2006B288D282D00A009A109A209A309A40932
:1020E200A509A609A709A00A031D8A28A10A031D9A
:1020F2008A28A20A031D8A28A30A031D8A28A40A81
:10210200031D8A28A50A031D8A28A60A031D8A28F8
:10211200A70A2D00B201B20AA83086000630870055
:10212200473F2D00B000B01F97289828BC282D00EB
:10213200A809A909AA09AB09AC09AD09AE09AF09F9
:10214200A80A031DB728A90A031DB728AA0A031D56
:10215200B728AB0A031DB728AC0A031DB728AD0A7E
:10216200031DB728AE0A031DB728AF0A01302D00A0
:10217200B0003008B206B33086000630870008305F
:102182002D00B00000301E00B00BC428200821042E
:102192002204230424042504260427040319D22834
:1021A200D3282F29B101B10AE228A035A10DA20D31
:1021B200A30DA40DA50DA60DA70D0130B00030088A
:1021C200B107A71FE528E628D628B335B40DB50D0B
:1021D200B60DB70DB80DB90DBA0D27082F02031DA4
:1021E2000C2926082E02031D0C2925082D02031D89
:1021F2000C2924082C02031D0C2923082B02031D81
:102202000C2922082A02031D0C2921082902031D78
:102212000C2920082802031C0F2910292129200833
:10222200A8022108A93B2208AA3B2308AB3B2408A9
:10223200AC3B2508AD3B2608AE3B2708AF3B331429
:10224200A736A60CA50CA40CA30CA20CA10CA00CE6
:102252000130B102031D2E292F29E6283208031965
:10226200332934295229B309B409B509B609B70982
:10227200B809B909BA09B30A031D5229B40A031DE0
:102282005229B50A031D5229B60A031D5229B70A5B
:10229200031D5229B80A031D5229B90A031D5229E6
:1022A200BA0A2D003308A0003408A1003508A200A4
:1022B2003608A3003708A4003808A5003908A6008C
:1022C2003A08A700080029000E082E00D300D40106
:1022D20029000F082E00D500D6015508D600D501D9
:1022E200530855072D00A9002E005408563D2D0015
:1022F200AA00AB01AA1BAB032B08AC000130AD3125
:10230200B82591312D002C082E00AA002D002B0893
:102312002E00A9002D002A082E00A8002D00290851
:102322002E00A70000303002313003192F020318AB
:102332009B299C29BB293008D4002F08D300D33510
:10234200D40DD335D40D2830D5002730D60053080C
:10235200550786005408563D87002708C03F2808C5
:10236200C13F2908C23F2A08C33F0130AF070030EE
:10237200B03DD7293008D4002F08D300D335D40D6F
:10238200D335D40D2830D5002730D6005308550751
:1023920086005408563D87002708C03F2808C13FE1
:1023A2002908C23F2A08C33FAF01B0010030310003
:1023B200DD000030DC000030DB000030DA00D60146
:1023C200D70100305702323003195602031CEA29A2
:1023D200EB29EC29652A57082E00D4003100560853
:1023E2002E00D300D335D40DD335D40D2830D500EB
:1023F2002730D6005308550786005408563D8700FB
:10240200403F2D00A000413FA100423FA200433FB8
:10241200A30031005D082D00A70031005C082D00EB
:10242200A60031005B082D00A50031005A082D00DE
:10243200A4009B31712391312D0023083100DD006E
:102442002D0022083100DC002D0021083100DB00C4
:102452002D0020083100DA00313056065704031DE2
:10246200332A342A602A42302D00D4004830D30067
:102472000030D2000030D10031005D082D00D800BC
:1024820031005C082D00D70031005B082D00D6001A
:1024920031005A082D00D500A231A32291312D001E
:1024A20054083100DD002D0053083100DC002D00FE
:1024B20052083100DB002D0051083100DA000130F2
:1024C200D6070030D73DE2295D082D00BE0031005D
:1024D2005C082D00BD0031005B082D00BC003100FE
:1024E2005A082D00BB004130BA002030B90000303C
:1024F200B8000030B7009D31A92591312D003A086E
:10250200D8003908D7003808D6003708D50044303B
:10251200D4007A30D3000030D2000030D100A23192
:10252200A32291312D005408EE005308ED00520809
:10253200EC005108EB00AC319F2491312D006C0866
:102542003100D1002D006B083100D00000302E0088
:10255200C9000030C8000030C7000A30C600310090
:102562005D082D00BE0031005C082D00BD00310069
:102572005B082D00BC0031005A082D00BB00423020
:10258200BA00C830B9000030B8000030B7009D3141
:10259200A92591312D003A08D8003908D70038080A
:1025A200D6003708D5004430D4007A30D30000304A
:1025B200D2000030D100A231A32291312D00540863
:1025C200EE005308ED005208EC005108EB00AC316C
:1025D2009F2491312D006E082E00CD002D006D0834
:1025E2002E00CC002D006C082E00CB002D006B08B5
:1025F2002E00CA00AA31162291312E00470831005E
:10260200D3002E0046083100D200D9302E00C2007D
:102612000730C3000030C400B830C500A9313F21E3
:10262200913150302E00C2000830C3006630C40021
:10263200B830C500A9313F2191312E003408031D65
:10264200232B242B442B1430D3005308B400C9305D
:10265200C2000730C3000C30C400B830C5003100DE
:1026620051082E00C700310050082E00C60031006C
:1026720053082E00C900310052082E00C800A931AB
:102682003F2191316F2B3100D801D9015908803A8D
:102692002E00D30080305302031D522B1030310024
:1026A2005802031C552B562B572B6F2B3100580801
:1026B200203E86000830870001082E00D30031003A
:1026C2005808C93E8600073087002E005308810053
:1026D20001303100D8070030D93D472B20000D1EB4
:1026E200732B742B782B8C1D772B782B992C6030C5
:1026F2002E00C2000830C3005530C400B830C500F7
:10270200A9313F2191312E002A082D00EE002E0022
:1027120029082D00ED002E0028082D00EC002E00C7
:1027220027082D00EB00AC319F2491312D006C085D
:102732002E00C7002D006B082E00C600B631FF2602
:1027420091313F302E00C200F330C1003330C0005F
:102752003330BF0042302D00D400C830D3000030E7
:10276200D2000030D1002E002A082D00D8002E0001
:1027720029082D00D7002E0028082D00D6002E0093
:1027820027082D00D500A231A32291312D00540833
:102792002E00C6002D0053082E00C5002D00520841
:1027A2002E00C4002D0051082E00C300AE31652654
:1027B20091310318DD2BDE2BE12B22000C141E2C91
:1027C20042302D00D400C830D3000030D200003097
:1027D200D1002E002A082D00D8002E0029082D0035
:1027E200D7002E0028082D00D6002E0027082D0025
:1027F200D500A231A32291312D0054082E00C2002F
:102802002D0053082E00C1002D0052082E00C000DA
:102812002D0051082E00BF003F30C600E630C50033
:102822006630C4006630C300AE31652691310318AC
:102832001B2C1C2C1E2C22000C1040302E00C2001F
:102842000330C1003330C0003330BF0042302D00AE
:10285200D400C830D3000030D2000030D1002E00A6
:102862002A082D00D8002E0029082D00D7002E009E
:1028720028082D00D6002E0027082D00D500A231F1
:10288200A32291312D0054082E00C6002D005308BA
:102892002E00C5002D0052082E00C4002D00510844
:1028A2002E00C300AE31652691310318592C5A2CE3
:1028B2005C2C8E31AB2E42302D00D400C830D300B8
:1028C2000030D2000030D1002E002A082D00D8009E
:1028D2002E0029082D00D7002E0028082D00D60032
:1028E2002E0027082D00D500A231A32291312D0000
:1028F20054082E00C2002D0053082E00C1002D00E6
:1029020052082E00C0002D0051082E00BF003F309B
:10291200C600F930C5009930C4009A30C300AE3108
:10292200652691310318962C972CFF2D8D317A2D27
:1029320060302E00C2000830C3004430C400B830FA
:10294200C500A9313F2191318D31712D0230D30063
:1029520053082D00A200A301A30A6230A931D92194
:102962009131D9302E00C2000730C3002330C40099
:10297200B830C500A9313F219131C9302E00C200C3
:102982000730C3002E30C400B830C5000A302D0015
:10299200A0000030A1002E006208D300D401530829
:1029A2002D00A2002E0054082D00A300AB316D2390
:1029B20091312D0021082E00C7002D0020082E0085
:1029C200C6000A302D00A0000030A1002E006208CF
:1029D200D500D60155082D00A2002E0056082D0064
:1029E200A300AA31632291312D0021082E00C900D3
:1029F2002D0020082E00C800A9313F2191312E0060
:102A02006208D300D401D501D60156082D00AC00CE
:102A12002E0055082D00AB002E0054082D00AA00F0
:102A22002E0053082D00A9000030AD31B825913198
:102A32002D002C08BE002B08BD002A08BC00290866
:102A4200BB004130BA001930B900D830B8009E300E
:102A5200B7009D31A92591312D003A08EE003908C1
:102A6200ED003808EC003708EB00AC319F249131BF
:102A72002D006C082E00C7002D006B082E00C6002A
:102A8200B631FF2691313F302E00C200EC30C1003A
:102A9200CC30C000CD30BF0041302D00D4002030FA
:102AA200D3000030D2000030D1002E006208D300E3
:102AB200D401D501D60156082D00AC002E005508D0
:102AC2002D00AB002E0054082D00AA002E00530842
:102AD2002D00A9000030AD31B82591312D002C0810
:102AE200D8002B08D7002A08D6002908D500A23121
:102AF200A32291312D0054082E00C6002D00530848
:102B02002E00C5002D0052082E00C4002D005108D1
:102B12002E00C300AE31652691310318912D922DFE
:102B2200952D22000C14972D22000C102E00620805
:102B3200D300D40153082D00A2002E0054082D000A
:102B4200A3000A30A0000030A100AB316D23913107
:102B52002D002008A9002108AA00890D893B8909B6
:102B6200AB00AC000130AD31B82591312D002C08FD
:102B72002E00C2002D002B082E00C1002D002A08B5
:102B82002E00C0002D0029082E00BF004030C600D4
:102B92000030C5000030C4000030C300AE316526ED
:102BA2009131031CD52DD62D972C5A2CD930C20029
:102BB2000730C3003930C400B830C500A9313F2105
:102BC2009131A52C2E003E08D300D4015408003ABE
:102BD2000319EC2DD72D5308003A8D3103197E2DA0
:102BE200013A0319662D9131033A0319FE2F013A76
:102BF20003196429073A0319A72CD72DA4315724A6
:102C020091312E00B50120008D18082E092E192EA3
:102C120001302E00D3005308B50760086104031980
:102C2200132E142E1E2EFF30E007FF30E13D1E2E24
:102C320014302E00E0000030E10020000D19222E99
:102C4200232E332E01302E00D3005308B5075E0821
:102C52005F0403192D2E2E2E382EFF30DE07FF3093
:102C6200DF3D382E14302E00DE000030DF00200061
:102C72000D183C2E3D2E4D2E01302E00D300530850
:102C8200B5075C085D040319472E482E522EFF300B
:102C9200DC07FF30DD3D522E14302E00DC00003008
:102CA200DD003503031D562E572E902F2F004708A7
:102CB200480403195D2E5E2E632EFF30C707FF30D6
:102CC200C83D952F2E0060086104031D692E6A2EEF
:102CD200D42E20008D1E6E2E6F2ED42E0D1D722E20
:102CE200732ED42E2E0031083204031D792E7A2E33
:102CF200D42E0430330203187F2E802E882E01300A
:102D0200D3005308B307D030B1000730B2003808FF
:102D120003198C2E8D2EA32E643062020318922E7C
:102D2200932ED42E0130D3005308E2076230D30031
:102D320053082D00A600A701A70A0230AB31CD230C
:102D42009131D42E643063020318A82EA92ED42EFA
:102D52003E08031DAD2EAE2EBE2E0130D300530809
:102D6200E3076330D30053082D00A600A701A70A8A
:102D72000130AB31CD239131D42E02303E06031DFA
:102D8200C32EC42ED42E0130D3005308E307633080
:102D9200D30053082D00A600A701A70A0330AB31C8
:102DA200CD239131D42E2E005E085F04031DDA2E4E
:102DB200DB2E3D2F20008D1EDF2EE02E3D2F8D1CA1
:102DC200E32EE42E3D2F2E0031083204031DEA2E9D
:102DD200EB2E3D2F043033020318F02EF12EF92E84
:102DE2000130D3005308B307D030B1000730B2002E
:102DF20038080319FD2EFE2E112F62080319022F27
:102E0200032F3D2F0130E2026230D30053082D0020
:102E1200A600A701A70A0230AB31CD2391313D2F85
:102E220063080319152F162F3D2F3E08031D1A2F75
:102E32001B2F292F0130E3026330D30053082D00EA
:102E4200A600A701A70A0130AB31CD2391313D2F56
:102E520002303E06031D2E2F2F2F3D2F0130E3029D
:102E62006330D30053082D00A600A701A70A033040
:102E7200AB31CD2391313D2F2E005C085D04031D43
:102E8200432F442F952F3908031D482F492F952F83
:102E9200B901B90A380803194F2F502F532FD801FF
:102EA200D901952F20008D1C572F582F952F0D1DBE
:102EB2005B2F5C2F952F04302E003E06031D622FE0
:102EC200632F6C2FB8012D00A201A301A30A3E308B
:102ED200A931D921913103302E003E020318722FFD
:102EE200732F832F0130D3005308BE073E30D30027
:102EF20053082D00A600A701A70A0030AB31CD234D
:102F02009131952FBE013E30D30053082D00A6000B
:102F1200A701A70A0030AB31CD239131952F143090
:102F22002F00C7000030C8002E00340803199A2F62
:102F32009B2F9D2F0130B40258085904031DA22F64
:102F4200A32FAC2FB8012D00A201A301A30A3E308A
:102F5200A931D92191312E005A085B04031DB22FE9
:102F6200B42FA6319D2EB801D801D901B601053082
:102F7200D3005308BE003230D3005308E30064305C
:102F8200D3005308E2000030AA000030A90000304C
:102F9200A8000030A7003E30D30053082D00A60041
:102FA200A701A70A0030AB31CD23913163302E0047
:102FB200D30053082D00A600A701A70A0130AB31A8
:102FC200CD23913163302E00D30053082D00A6008B
:102FD200A701A70A0330AB31CD23913162302E0015
:102FE200D30053082D00A600A701A70A0230AB3177
:0E2FF200CD239131B22F8031A2288E31AE2E28
:103002002D00A5012130B7316B2798310030B7313F
:103012006B2798317F30B7316B2798312230B73127
:103022006B2798310030B7316B2798310730B731B1
:103032006B279831B631C32698317830B7313C27A7
:1030420098314030B7313C2798312D00A601A701B5
:10305200A5010030A3002030A40026082307860023
:103062002708243D87000108B7313C2798310130F9
:103072002D00A6070030A73D0130A3002308A507B5
:1030820010302502031C462847282A280130A602B0
:103092000030A73B0130A6070030A73D04302702CD
:1030A200003003192602031C572858282928B63154
:1030B200BC26983108002D00B201A83086000630E7
:1030C2008700473FB000B01F672868288A282D0074
:1030D200A809A909AA09AB09AC09AD09AE09AF094A
:1030E200A80A031D8728A90A031D8728AA0A031D07
:1030F2008728AB0A031D8728AC0A031D8728AD0A5F
:10310200031D8728AE0A031D8728AF0A2D00B201CE
:10311200B20AA030860006308700473F2D00B0007B
:10312200B01F94289528B4282D00A009A109A2094E
:10313200A309A409A509A609A709A00A031DB42881
:10314200A10A031DB428A20A031DB428A30A031D61
:10315200B428A40A031DB428A50A031DB428A60A8C
:10316200031DB428A70A2D002008210422042304E9
:1031720024042504260427040319C028C12814297D
:10318200B101B10AD028A035A10DA20DA30DA40D45
:10319200A50DA60DA70D0130B0003008B107A71F7D
:1031A200D328D428C42827082F02031DF228260872
:1031B2002E02031DF22825082D02031DF2282408E1
:1031C2002C02031DF22823082B02031DF2282208D9
:1031D2002A02031DF22821082902031DF2282008D1
:1031E2002802031CF528F62806292008A80221082F
:1031F200A93B2208AA3B2308AB3B2408AC3B250889
:10320200AD3B2608AE3B2708AF3BA736A60CA50C64
:10321200A40CA30CA20CA10CA00C0130B102031D42
:1032220013291429D42832080319182919293729EE
:10323200A809A909AA09AB09AC09AD09AE09AF09E8
:10324200A80A031D3729A90A031D3729AA0A031D43
:103252003729AB0A031D3729AC0A031D3729AD0AEA
:10326200031D3729AE0A031D3729AF0A2D0028088E
:10327200A0002908A1002A08A2002B08A3002C08FC
:10328200A4002D08A5002E08A6002F08A7000800FC
:103292002D00D101D201D301D401C301C4012E00FA
:1032A20023080739031D56295729852A22082D008C
:1032B200BB00BC013B08A9003C08AA000830A000E2
:1032C2000030A1002E0023082D00BD00BE013D08E4
:1032D200A2003E08A300AB316D2399312D002108D5
:1032E200AC002008AB00A831422099312D002A08F9
:1032F200C8002908C7002E0024082D003A02A900A0
:10330200AA01031CAA034808AC004708AB00A83175
:10331200422099312D002908043ECB0000302A3D7D
:10332200CC00D101D201692A0230D3000030D4008E
:10333200522A2E0022082D00BB00BC013B08A90026
:103342003C08AA005208AC005108AB00A831422048
:1033520099312D0029082E0020072D00BD002A08D2
:103362002E00213D2D00BE004B083D07BF004C083A
:103372003E3DC0003F08530784004008543D85008D
:103382000008C100C2014108C3004208C400D501BF
:103392000130BB000030BC00550AD129BB35BC0D41
:1033A200890BCF2943083B05BD0044083C05BE00FC
:1033B2003D083E040319DE29DF293C2A2E00260897
:1033C200031DE429E529112A2D0053083607BB0005
:1033D2005408373DBC003B08FE3EA900FF303C3D8F
:1033E200AA005508BD00BE015208C0005108BF0026
:1033F200BF35C00DBF35C00DBF35C00D3D083F07FD
:10340200C1003E08403DC20038084107AB00390800
:10341200423DAC00AD01AD0AAF3122279931432ABA
:103422002D0053083607BB005408373DBC003B084B
:10343200FE3EA900FF303C3DAA005508BD00BE017A
:103442005208C0005108BF00BF35C00DBF35C00DC6
:10345200BF35C00D3D083F07C1003E08403DC200D8
:1034620038084107AB003908423DAC00AD01AF312D
:1034720022279931432A2E002608031D412A422A77
:10348200E529112A01302D00BB003B08D507083081
:103492005502031C4D2A4E2AC9290130D307003098
:1034A200D43D2E002208FE3E2D00BB00FF30031843
:1034B2000030BC003C085402031D612A3B08530241
:1034C200031C642A652A9A290130D1070030D23DB3
:1034D2000830A0000030A1002E0023082D00BB0000
:1034E200BC013B08A2003C08A300AB316D2399311B
:1034F2002D0021085202031D802A20085102031CBC
:10350200832A842A9529702B08302D00A0000030D0
:10351200A1002E0022082D00BB00BC013B08A9001F
:103522003C08AA002E0023082D00BD00BE013D0864
:10353200AB003E08AC00A831422099312D002A0888
:10354200A3002908A200AB316D2399312D00210877
:10355200C8002008C7002E0024082D003A02A90046
:10356200AA01031CAA034808AC004708AB00A83113
:10357200422099312D002908043ECB0000302A3D1B
:10358200CC002E0020082D004B0784002E002108BD
:103592002D004C3D85000008BB00BC013B08C50066
:1035A2003C08C6000730C9000030CA00CD01CE0178
:1035B200612B2D00CF01D0014D2B01302D00BB001E
:1035C2000030BC00490AE72ABB35BC0D890BE52A4D
:1035D20045083B05BD0046083C05BE003D083E04CB
:1035E2000319F42AF52A202B2E002608031DFA2A95
:1035F200FB2A0E2B2D004D083607A9004E08373D39
:10360200AA004F083807AB005008393DAC00AD01A5
:10361200AD0AAF3122279931272B2D004D083607ED
:10362200A9004E08373DAA004F083807AB005008E2
:10363200393DAC00AD01AF3122279931272B2E0045
:103642002608031D252B262BFB2A0E2BFF302D00CF
:10365200C907FF30CA3DCA1F2F2B302B492B073019
:10366200C9000030CA000130CB070030CC3D2E002B
:1036720020082D004B0784002E0021082D004C3D10
:1036820085000008BB00BC013B08C5003C08C60021
:103692000130CF070030D03D5008803ABB00803067
:1036A2003B02031D582B2E0023082D004F02031C42
:1036B2005B2B5C2BDE2A01302D00CD070030CE3D86
:1036C2004E08803ABB0080303B02031D6C2B2E005B
:1036D20022082D004D02031C6F2B702BDA2A0800E2
:1036E2002D0023088039A8002808B0002335A8003F
:1036F2002808B200A21F7E2B7F2B802B32143208A7
:103702000319842B852B952B320A031D892B8A2BB7
:10371200922B0030A3000030A2000030A100003044
:10372200A000A217A3019D2B0030A3000030A2002D
:103732000030A1000030A00027088039A800280826
:10374200B100310830060319A72BA82BA92B30177B
:103752002735A8002808B100A61FB02BB12BB22B29
:10376200311431080319B62BB72BC72B310A031DAD
:10377200BB2BBC2BC42B0030A7000030A6000030AE
:10378200A5000030A400A617A701CF2B0030A70088
:103792000030A6000030A5000030A400320831023B
:1037A2000318D42BD52B192C301FD82BD92BDD2B5A
:1037B2008030A8002808B0063208A8002808B30004
:1037C2003108A8002808B2003308A8002808B10070
:1037D2002008A8002808B3002408A8002808A00090
:1037E2003308A8002808A4002108A8002808B3006C
:1037F2002508A8002808A1003308A8002808A50069
:103802002208A8002808B3002608A8002808A20059
:103812003308A8002808A6002308A8002808B30037
:103822002708A8002808A3003308A8002808A70032
:10383200B3013108A800A9012908AB003208280207
:10384200AA00031CAB032B08803AAC0080302C0288
:10385200031D2D2C1A302A02031C302C312C692C0A
:103862002D002308220421042004031D392C3B2CA3
:1038720001303C2C0030A8002808B3000030A3001F
:103882000030A2000030A1000030A0003108A800E2
:103892002808B200702C331C4F2C502C562C333677
:1038A2000138A8002808B300582C0310B30C201CC0
:1038B2005B2C5C2C5D2CB3170130A800A337A20C43
:1038C200A10CA00CA80B5F2C0130A8002808B2079D
:1038D2002D0031083202031C6F2C702C4C2C301B33
:1038E200732C742CAC2C3208031D782C792C822C6E
:1038F2000030A3000030A2000030A1000030A00080
:10390200A82D2408A0072508A13D2608A23D2708C6
:10391200A33D231C8D2C8E2C382D331C912C922CE4
:10392200982C33360138A8002808B3009A2C0310CB
:10393200B30C201C9D2C9E2C9F2CB3170130A80089
:10394200A337A20CA10CA00CA80BA12C0130A8003B
:103952002808B207382D2308803AA8002708803AA1
:103962002802031DBE2C26082202031DBE2C250898
:103972002102031DBE2C240820020318C12CC22CD4
:10398200FA2CFF30A800FF30A900FF30AA00FF3058
:10399200AB0020082402AC002108253BAD00220820
:1039A200263BAE002308273BAF002C08A8072D08B2
:1039B200A93D2E08AA3D2F08AB3D2B08A3002A08DB
:1039C200A2002908A1002808A0008030A800280829
:1039D200B006B309B30A3308031DF02CF12C022DF3
:1039E2000130A0070030A13D0030A23D0030A33DD0
:1039F200022D2408A0022508A13B2608A23B270885
:103A0200A33B2308220421042004031D092D0A2DAF
:103A1200342D3308031D0E2D0F2D342D0030A3003D
:103A22000030A2000030A1000030A000A82D01301B
:103A3200A035A10DA20DA30D890B192DB31F222DA7
:103A4200232D242D2014331C272D282D2B2D031438
:103A5200B30D2D2D0310B30D32080319312D322D64
:103A6200342D0130B202A21F372D382D182DB1018D
:103A7200B31F3C2D3D2D4B2D33087F390319422DA9
:103A8200432D462DB101B10A4B2D201C492D4A2D43
:103A92004B2D432D310803194F2D502D7D2D013013
:103AA200A0070030A13D0030A23D0030A33D231C01
:103AB2005B2D5C2D7D2D2008A8002108A90022087D
:103AC200AA002308AB000130AC00AB37AA0CA90C4A
:103AD200A80CAC0B662D2B08A3002A08A20029080B
:103AE200A1002808A000320A0319782D792D7D2D16
:103AF2000130A8002808B207320A0319812D822D4D
:103B0200872D3208031D862D872D952D0030A300A9
:103B12000030A2000030A1000030A0003208031DD6
:103B2200932D942D952DB001321C982D992D9B2DFE
:103B3200A2179F2D7F30A8002808A2053236A800C0
:103B42002808A300B01FA62DA72DA82DA317080093
:103B52002D003A088039BF003F08C4003A35BF0043
:103B62003F08CA00B91FB62DB72DB82D4A144A080E
:103B72000319BC2DBD2DCC2D4A0A031DC12DC22D0A
:103B8200CA2D0030BA000030B9000030B800003051
:103B9200B700B917D42D0030BA000030B900003098
:103BA200B8000030B7003E088039BF003F08C406A5
:103BB2003E35BF003F08C500BD1FE02DE12DE22DBF
:103BC200451445080319E62DE72DF62D450A031D78
:103BD200EB2DEC2DF42D0030BE000030BD00003086
:103BE200BC000030BB00BD17FE2D0030BE0000300F
:103BF200BD000030BC000030BB0045080319022E96
:103C0200032E082E4A08031D072E082E112E0030FF
:103C1200BA000030B9000030B8000030B700FF2F02
:103C22003708BF003F08A0003D08A831A4209D31FD
:103C32002D002108D0002008CF004F08BF00C0018E
:103C4200C101C2014208C9004108C8004008C700BA
:103C52003F08C6005008BF00C001C101C2014208AE
:103C6200CE004108CD004008CC003F08CB00380808
:103C7200BF003F08A0003C08A831A4209D312D00C0
:103C82002108D0002008CF004F08BF00C001C101A9
:103C9200C2013F08C6074008C73D4108C83D420867
:103CA200C93D5008BF00C001C101C2013F08CB0796
:103CB2004008CC3D4108CD3D4208CE3D3908BF0009
:103CC2003F08A0003B08A831A4209D312D00210807
:103CD200D0002008CF004F08BF00C001C101C201BF
:103CE2003F08C6074008C73D4108C83D4208C93DD4
:103CF2005008BF00C001C101C2013F08CB07400804
:103D0200CC3D4108CD3D4208CE3D0830C635C70DF9
:103D1200C80DC90D890B872E3808BF003F08A000C7
:103D22003B08A831A4209D312D002108D000200895
:103D3200CF004F08C6075008C73D0030C83DC93DF7
:103D42003708BF003F08A0003C08A831A4209D31DD
:103D52002D002108D0002008CF004F08C6075008C8
:103D6200C73D0030C83DC93D0830C635C70DC80D36
:103D7200C90D890BB62E3708BF003F08A0003B08CB
:103D8200A831A4209D312D002108D0002008CF00A9
:103D92004F08C6075008C73D0030C83DC93D380826
:103DA200BF003F08A0003D08A831A4209D312D008E
:103DB2002108D0002008CF004F08CB075008CC3D87
:103DC2000030CD3DCE3D3908BF003F08A0003C0881
:103DD200A831A4209D312D002108D0002008CF0059
:103DE2004F08CB075008CC3D0030CD3DCE3D3908C1
:103DF200BF003F08A0003D08A831A4209D312D003E
:103E02002108D0002008CF004F08BF005008C00092
:103E1200C101C2010830BF35C00DC10DC20D890BF1
:103E22000C2F3F08CB074008CC3D4108CD3D42084E
:103E3200CE3D4608BF004708C0004808C1004908F7
:103E4200C2001830C236C10CC00CBF0C890B232F24
:103E52003F08CB074008CC3D4108CD3D4208CE3D4E
:103E62000830C635C70DC80DC90D890B322F4A0857
:103E72004507BF00C001C00D3F08823ECF00FF30A2
:103E8200403DD0005B2F0130CB35CC0DCD0DCE0D9A
:103E9200890B452FC91F4E2F4F2F502F4B14013026
:103EA200C635C70DC80DC90D890B512FFF30CF077D
:103EB200FF30D03DCD1F5E2F5F2F442FC501C91F9C
:103EC200632F642F802FFF304605BF00FF30470568
:103ED200C000FF304805C1007F304905C2004208DA
:103EE200410440043F040319772F782F7B2FC5012B
:103EF200C50A802F4B1C7E2F7F2F802F782F4508DD
:103F02000319842F852FAD2F0130CB070030CC3D14
:103F12000030CD3D0030CE3D4E1C902F912FAD2F65
:103F22004B08BF004C08C0004D08C1004E08C2003B
:103F32000130C300C237C10CC00CBF0CC30B9B2F96
:103F42004208CE004108CD004008CC003F08CB001B
:103F52000130CF070030D03D5008803ABF0080309A
:103F62003F02031DB62FFF304F02031CB92FBA2F99
:103F7200C42F7F302D00CE008030CD000030CC0029
:103F82000030CB00F32F2D005008803ABF00803064
:103F92003F02031DCE2F01304F020318D12FD22F23
:103FA200DD2F00302D00CE000030CD000030CC00DF
:103FB2000030CB00C401F32F2D004F08BF003F0893
:103FC200CA00FF30CB05FF30CC057F30CD05003075
:103FD200CE054A1CED2FEE2FEF2FCD174A36BF002C
:103FE2003F08CE004408BF003F08CE044E08BA0086
:103FF2004D08B9004C08B8004B08B700080016304D
:104002002100990008002D0021082E00A1002D009A
:1040120020082E00A0002D00200884002108850021
:104022000008A20022082E00A2002D002108A300F1
:104032002008A20001302207840023080318230A63
:1040420085000008A40024082E00A3002D002108EA
:10405200A3002008A20002302207840023080318CC
:10406200230A85000008A40024082E00A4002D00C5
:104072002108A3002008A20003302207840023089D
:104082000318230A85000008A40024082E00A500B6
:10409200A60108002D00E8005908860007308700B5
:1040A200403FDB00413FDC005B0884005C08850088
:1040B2001200253A031D5E285F280D295908860043
:1040C200073087000130810741310318810A2F0030
:1040D200BF01C0012E00AD01AE01FF30AB00FF30C9
:1040E200AC002D005908860007308700403FDB00F6
:1040F200413FDC005B0884005C0885001200643AE2
:1041020003198428852897285908860007308700D4
:10411200403FDB00413FDC005B0884005C08850017
:104122001200693A031D96289728D5285908860057
:10413200073087000130810741310318810A5A088C
:1041420086000730870001088400073085000230AE
:104152008107003FDB00013FDC005B08E0005C08F8
:10416200E100890D893B8909E200E300E400E500F2
:10417200E600E7006008BB006108BC006208BD0001
:104182006308BE006408BF006508C0006608C1007D
:104192006708C2006808A1313321A0312D003C0814
:1041A200DA003B08D9003229590886000730870017
:1041B200403FDB00413FDC005B0884005C08850077
:1041C2001200253A031DE628E7280129590886002E
:1041D200073087000130810741310318810A2530F9
:1041E200A0000030A1006808DB005B08A200AB3130
:1041F2001023A03101302D00D9000030DA0032291D
:1042020059088600073087000130810741310318C1
:10421200810AD901DA01322959088600073087005C
:10422200403FDB00413FDC005B0884005C08850006
:104232000008DD00DE015D08A0005E08A10068083C
:10424200DF005F08A200AB311023A0312D00590816
:104252008600073087000130810741310318810A47
:10426200FB2808002D00C6003B08CF003C08D00008
:104272003D08D1003E08D2003F08D3004008D400D8
:104282004108D5004208D600CF30860006308700AC
:10429200473FC300C31B4E2950290130512900302A
:1042A2002D00C400C5014408CD004508CE004D08CC
:1042B2004E0403195D295E297C29CF09D009D10951
:1042C200D209D309D409D509D609CF0A031D7C29FD
:1042D200D00A031D7C29D10A031D7C29D20A031DA1
:1042E2007C29D30A031D7C29D40A031D7C29D50A03
:1042F200031D7C29D60A2E00AC1B80298129852921
:10430200FD30AD05FF30AE052C08803A2D00C3000C
:1043120080304302031D902901302E002B02031826
:10432200932994299A2901302D00C9000030CA002E
:10433200A2292E002C082D00CA002E002B082D00C9
:10434200C9002F0040082D00CC002F003F082D008F
:10435200CB004D084E04031DAF29B029B5292E000C
:104362002D1DB429B529BA29FF302D00CB07FF3006
:10437200CC3D1F302D00D7000030D8003100CF01D6
:104382002B2AFF302D00D707FF30D83D0A30A0007E
:10439200A101A201A301A401A501A601A7014F0841
:1043A200A8005008A9005108AA005208AB005308FF
:1043B200AC005408AD005508AE005608AF00983165
:1043C2005C20A1312D002108B4002008B300B731D0
:1043D200E427A1312D003308303EC3005708B03E18
:1043E20086000830870043088100FF30C907FF308C
:1043F200CA3DFF30CB07FF30CC3D0A30A000A101FF
:10440200A201A301A401A501A601A7014F08A800CA
:104412005008A9005108AA005208AB005308AC008A
:104422005408AD005508AE005608AF0090315F2029
:10443200A1312D002008CF002108D0002208D10090
:104442002308D2002408D3002508D4002608D5006A
:104452002708D6002D005808803AC3008030430256
:10446200031D352A01305702031C382A392A662ACD
:104472002D004F08500451045204530454045504AF
:104482005604031D452A462AC2294A08803AC30017
:1044920080304302031D4F2A013049020318522A79
:1044A200532AC2292D004C08803AC30080304302AF
:1044B200031D5D2A01304B02031C602A612A662A11
:1044C2002E00AD18652A662AC2292D004D084E0419
:1044D200031D6C2A6D2A722A2E002D1D712A722A42
:1044E2008F2AFF302D00D707FF30D83D4D084E04EC
:1044F200031D7C2A7D2A822A2B30C7000030C80087
:10450200862A2D30C7000030C8004708C30057086C
:10451200B03E860008308700430881002D0057080E
:10452200B03EC3004308B0004C08B2004B08B100D3
:104532004608AA31B722A1312D003108BC0030084B
:10454200BB0008002D0058088039D9005908E20044
:104552005835D9005908E900D71FB02AB12AB22A22
:10456200691469080319B62AB72AC72A690A031DFA
:10457200BB2ABC2AC42A0030D8000030D700003041
:10458200D6000030D500D717D801CF2A0030D80086
:104592000030D7000030D6000030D50054088039F2
:1045A200D9005908E2065435D9005908EA00D31F48
:1045B200DB2ADC2ADD2A6A146A080319E12AE22AC4
:1045C200F22A6A0A031DE62AE72AEF2A0030D400FB
:1045D2000030D3000030D2000030D100D317D40114
:1045E200FA2A0030D4000030D3000030D20000306C
:1045F200D1005408530452045104031D012B022B11
:104602001B2B0030D8000030D7000030D60000301D
:10461200D5008030D7047F30D8046208D900590809
:10462200D8045808D4005708D3005608D2005508B9
:10463200D100562C6908031D1F2B202B292B00307B
:10464200D4000030D3000030D2000030D100562C0C
:104652006908D900DA015A08DC006A085902DB004D
:10466200031CDC035B087F3EE30000305C3DE4009A
:104672005808E1005708E0005608DF005508DE0040
:104682000030D8000030D7000030D6000030D5000E
:104692000030E8000030E7000030E6000030E500BE
:1046A200EA01912B6A080319572B582B722B013000
:1046B200DE35DF0DE00DE10D890B592B0130D535CB
:1046C200D60DD70DD80D890B602BE81F692B6A2BED
:1046D2006B2B55140130E535E60DE70DE80D890B1E
:1046E2006C2B54086102031D802B53086002031DCA
:1046F200802B52085F02031D802B51085E02031CAF
:10470200832B842B8D2B68175108DE025208DF3B66
:104712005308E03B5408E13B0130D9005908EA074D
:104722001A306A02031C962B972B532B61086004E4
:104732005F045E0403199E2B9F2BB82B6514B82BC4
:104742000130D535D60DD70DD80D890BA22BE81F18
:10475200AB2BAC2BAD2B55140130E535E60DE70D37
:10476200E80D890BAE2BFF30E307FF30E43DD71F86
:10477200BB2BBC2BA12BEA01E81FC02BC12BDD2BCD
:10478200FF306505D900FF306605DA00FF306705A6
:10479200DB007F306805DC005C085B045A045904C6
:1047A2000319D42BD52BD82BEA01EA0ADD2B551C91
:1047B200DB2BDC2BDD2BD52B6A080319E12BE22B3B
:1047C2000A2C0130D5070030D63D0030D73D0030ED
:1047D200D83D581CED2BEE2B0A2C5508D900560853
:1047E200DA005708DB005808DC000130DD00DC3756
:1047F200DB0CDA0CD90CDD0BF82B5C08D8005B085B
:10480200D7005A08D6005908D5000130E307003016
:10481200E43D6408803AD90080305902031D132C0C
:10482200FF306302031C162C172C242CFF302D00A2
:10483200E3000030E4000030D8000030D700003040
:10484200D6000030D5002D006408803AD9008030AF
:104852005902031D2E2C013063020318312C322C15
:104862003E2C2D00E301E4010030D8000030D700D7
:104872000030D6000030D500E2012D006308D900D7
:104882005908E900691C462C472C492CD7174D2C96
:104892007F30D9005908D7056936D9005908D800A0
:1048A2006208D9005908D804122B08002D00D8013B
:1048B200E101E2012D006108D93E86000730870040
:1048C2006108403E84000830850000080106031D8F
:1048D2006B2C6C2C722C2E003D080319712C722C3F
:1048E200B62C2D005808D600D701D635D70DD635AF
:1048F200D70D2E002208FC3E2D00A900FF30031820
:104902000030AA006208AC006108AB00A831422066
:10491200A4312D0056082902D90057082A3BDA0093
:104922005A08B7005908B6000030B800B90061084B
:10493200D93E8600073087000108D6005608BA0023
:1049420099314921A4312D006108D93E86000730F2
:1049520087000108D6006108403E860008308700C3
:10496200560881002E00BD01BD0A2D006108D93E06
:1049720086000730870020300106031DC12CC22C9F
:10498200C62C0130D6005608D8070130E1070030A6
:10499200E23D6208803AD60080305602031DD32CD5
:1049A20010306102031CD62CD72C5B2C2D00DB01AE
:1049B200DC012D005B08603E8600083087005B0842
:1049C200303E840008308500000801060319EA2CF5
:1049D200EB2C262D2E002208FC3E2D00A900FF30D4
:1049E20003180030AA005C08AC005B08AB00A831D9
:1049F2004220A4312D002A08DA002908D9005A08D9
:104A0200B7005908B6001030B8000030B9005B0892
:104A1200603E8600083087000108D6005608BA00BA
:104A220099314921A4312D005B08603E860008308F
:104A320087000108D6005B08303E860008308700F8
:104A4200560881002E00BC01BC0A01302D00DB0794
:104A52000030DC3D5C08803AD60080305602031DEF
:104A6200342D10305B02031C372D382DDA2C2D002B
:104A7200DD01DE012D005D08503E86000830870012
:104A82005D08A03E84000830850000080106031975
:104A92004B2D4C2D872D2E002208FC3E2D00A90007
:104AA200FF3003180030AA005E08AC005D08AB00BE
:104AB200A8314220A4312D002A08DA002908D900A1
:104AC2005A08B7005908B6002030B8000030B900C3
:104AD2005D08503E8600083087000108D60056085F
:104AE200BA0099314921A4312D005D08503E86005B
:104AF200083087000108D6005D08A03E8600083015
:104B02008700560881002E00BB01BB0A01302D0030
:104B1200DD070030DE3D5E08803AD6008030560266
:104B2200031D952D10305D02031C982D992D3B2DF0
:104B32002D00DF01E0012D005F08C93E860007302D
:104B420087005F08203E84000830850000080106C7
:104B52000319AC2DAD2DE82D2E002208FC3E2D00B0
:104B6200A900FF3003180030AA006008AC005F08FB
:104B7200AB00A8314220A4312D002A08DA0029080E
:104B8200D9005A08B7005908B6003030B8000030D2
:104B9200B9005F08C93E8600073087000108D600C9
:104BA2005608BA0099314921A4312D005F08C93E47
:104BB2008600073087000108D6005F08203E860085
:104BC20008308700560881002E00BA01BA0A013067
:104BD2002D00DF070030E03D6008803AD6008030CB
:104BE2005602031DF62D10305F02031CF92DFA2D1B
:104BF2009C2D2E003D080319FF2D002E062E00309D
:104C0200AC312E24A4312E00BD013C0803190A2E1A
:104C12000B2E112E0230AC312E24A4312E00BC01F9
:104C22003B080319152E162E1C2E0430AC312E24EF
:104C3200A4312E00BB013A080319202E212E272E63
:104C42000630AC312E24A4312E00BA010800B7314F
:104C52008127A6318B170B1705302E00D4000F3099
:104C6200D300F130890B332ED30B332ED40B332EDA
:104C72002D00A201A301A30A3E30A931D921A631F8
:104C82002D00A201A20AA301A30A6330A931D921EE
:104C9200A63102302E00D30053082D00A200A3013A
:104CA200A30A6230A931D921A63165302E006302F0
:104CB200031C5C2E5D2E782E3230D3005308E300A5
:104CC2006330D30053082D00A600A701A70A0130C4
:104CD200AB31CD23A63163302E00D30053082D0013
:104CE200A600A701A70A0330AB31CD23A631653058
:104CF2002E006202031C7E2E7F2E8E2E6430D30085
:104D02005308E2006230D30053082D00A600A70129
:104D1200A70A0230AB31CD23A631AD312525A6310C
:104D220005302E00D4000F30D300F130890B972EBE
:104D3200D30B972ED40B972E20008D1AA12EA32EC3
:104D42008D31422D02302E00D30053082D00A200D7
:104D5200A301A30A6230A931D921A631D9302D008D
:104D6200A0000730A100A8318220A631D9302E0040
:104D7200C2000730C3004D30C400B830C500A931AD
:104D82003F21A63160302D00A0000830A100A831DB
:104D92008220A63150302D00A0000830A100A83199
:104DA2008220A631C9302D00A0000730A100A83111
:104DB2008220A631C9302E00C2000730C3002E3037
:104DC200C400B830C5000A302D00A0000030A10098
:104DD2002E006208D300D40153082D00A2002E0039
:104DE20054082D00A300AB316D23A6312D002108FC
:104DF2002E00C7002D0020082E00C6000A302D000C
:104E0200A0000030A1002E006208D500D60155088E
:104E12002D00A2002E0056082D00A300AA31632205
:104E2200A6312D0021082E00C9002D0020082E00D9
:104E3200C800A9313F21A6312E006208D300D40157
:104E4200D501D60156082D00AC002E0055082D00C4
:104E5200AB002E0054082D00AA002E0053082D008E
:104E6200A9000030AD31B825A6312D002C08BE00B6
:104E72002B08BD002A08BC002908BB004130BA003B
:104E82001930B900D830B8009E30B7009D31A9253D
:104E9200A6312D003A08EE003908ED003808EC0082
:104EA2003708EB00AC319F24A6312D006C082E0090
:104EB200C7002D006B082E00C600B631FF26A631B2
:104EC2003F302E00C200EC30C100CC30C000CD30EB
:104ED200BF0041302D00D4002030D3000030D2007A
:104EE2000030D1002E006208D300D401D501D601D2
:104EF20056082D00AC002E0055082D00AB002E00E8
:104F020054082D00AA002E0053082D00A9000030DD
:104F1200AD31B825A6312D002C08D8002B08D700BA
:104F22002A08D6002908D500A231A322A6312D00D5
:104F320054082E00C6002D0053082E00C5002D0077
:104F420052082E00C4002D0051082E00C300AE31BD
:104F52006526A6310318AE2FAF2FB22F22000C14F4
:104F6200B42F22000C102E006208D300D401530883
:104F72002D00A2002E0054082D00A3000A30A0002C
:104F82000030A100AB316D23A6312D002008A9000D
:104F92002108AA00890D893B8909AB00AC000130C8
:104FA200AD31B825A6312D002C082E00C2002D00EF
:104FB2002B082E00C1002D002A082E00C0002D0053
:104FC20029082E00BF004030C6000030C500003066
:104FD200C4000030C300AE316526A631031CF22F97
:104FE200F32FF62F22008C14F82F22008C10A431FC
:104FF2005724A6313100D401D5018D313D2D4030E9
:10500200080000308B1B0130F5008B137108230060
:105012009200700891007308940072089300740C57
:10502200031C951203189516151315121515B63192
:10503200D226A831750803191F28202821288B178A
:1050420008002D00A1001830A000200821008E04C5
:105052002D002103031D2E282F2832282400941707
:1050620037287F30A00020082400940528309500BE
:1050720007309200F7302D00A00020082400970589
:1050820008002D00AD01AE01291C482849284D28F1
:105092002B08AD072C08AE3D0130AB35AC0D890BAA
:1050A2004E280130AA36A90C890B532829082A0454
:1050B200031D5C285D2845282E08AA002D08A9009A
:1050C20008002E340034003400340034003400343C
:1050D200003400340034003400340034003400342E
:1050E20000342E34003400340034003400340034F0
:1050F200003400340034003400340034003400340E
:1051020000342D00A401A5012D0024082007A200CF
:105112002508213DA30022088600230887002030AD
:1051220081000130A4070030A53D2508803AA20085
:1051320080302202031D9F2810302402031CA22863
:10514200A328852808002D00A800A401A501200895
:10515200A200A3012208A6002308A700281CB22847
:10516200B328B7282608A4072708A53D0130A6358D
:10517200A70D890BB8280310A80C2808031DC22804
:10518200C328AF282508A1002408A0000800103475
:105192002734143400342E34003400340034003404
:1051A200003400340034003400340034003400345D
:1051B2000034003400342E3400340034003400341F
:1051C200003400340034003400340034003400343D
:1051D2000034003400342D00AF00AD01AE010429CB
:1051E2002C08A900AA012908A0002A08A100280861
:1051F200AB002B08A200AB311023A83101302D00E7
:10520200AD070030AE3D2D082F07A9002908860002
:10521200083087000108AA002A08AC002C08031DE8
:1052220013291429F128080000308B1B01302D00AE
:10523200A5008B132108230092002D0020082300D3
:1052420091002D002308230094002D002208230042
:1052520093002D00240C2300031C951203189516AD
:10526200151315121515B631DB26A9312D002508A7
:1052720003193C293D293E298B17080046302D0091
:10528200EE006E082E00CC004308CE004208CD008E
:10529200CF01D001D101D20145082D00EA002E0034
:1052A20044082D00E9004C30EE006E08EB004D3052
:1052B200A9316A21A93102304D3E860007308700AC
:1052C200403F2E0042078400413F433D850080015C
:1052D20008002E00BF002D006A082E00C1002D001C
:1052E20069082E00C0002F00BD01BE018E2940308A
:1052F2002D00EC006C08D9006B08ED006D08DA0097
:105302002E003F08A0314B20A9312D0059082F0053
:10531200BD072D005A082F00BE3D2E004008840014
:10532200410885001200031D9729982978292F002A
:105332003E082D00EA002F003D082D00E90008007C
:1053420022008C018D018E01083021009000B830BE
:105352008C00FF308D00FF308E0023008E0108305C
:105362008D0004308C00240090018D018C018E018F
:105372002100971725008C018D018E01FF30260038
:105382008C00FF308D00E7308E003F3027008C000C
:10539200F0308D00FF308E0014303C00BB00213015
:1053A2003D00A3002230A40013303C00BA000800E4
:1053B2002D00A8002208A400A5010530A435A50DE2
:1053C200890BDF292408803EA6003F30253DA70037
:1053D200213023020318EE29EF29152A0430220274
:1053E200031CF429F529102A152A2708A1002608EA
:1053F200A000B7315627A9312D002008A4002808A3
:10540200860007308700240881000130A60700309B
:10541200A73D0130A4002408A8070130A3022308F5
:10542200031D142A152AF62908002E0049084804EB
:105432004704460403191E2A1F2A5A2ACE01CE0AFD
:105442002F2A0130C635C70DC80DC90D890B232A75
:1054520001302D00EF006F082E00CE07C91F322A3F
:10546200332A222A49084D02031D412A48084C02C8
:10547200031D412A47084B02031D412A46084A02DE
:10548200031C442A452A4D2A4608CA024708CB3B38
:105492004808CC3B4908CD3B0130C936C80CC70C83
:1054A200C60C890B4E2A0130CE02031D592A5A2AF4
:1054B200332A4D08C9004C08C8004B08C7004A08E7
:1054C200C60008002D00A601A31F682A692A702AB7
:1054D200A209A309A20A0319A30AA601A60AA11FE7
:1054E200732A742A792AA009A109A00A0319A10A18
:1054F2002008210403197E2A7F2AA82AA501A50AC9
:105502008B2A0130A035A10D890B832A0130A4001A
:105512002408A507A11F8E2A8F2A822A2108230286
:10552200031D952A20082202031C982A992A9D2AE3
:105532002008A2022108A33B0130A136A00C890B4E
:105542009E2A0130A502031DA72AA82A8F2A26080F
:105552000319AC2AAD2AB22AA209A309A20A031985
:10556200A30A2308A1002208A00008002D00B80009
:105572002E002D1CBD2ABE2AC72A2D003808B300D2
:105582003308A8003008A831EC20AA312D00B21B44
:10559200CB2ACC2AD12A3208B7003108B600D32A46
:1055A200B601B701B401B501E72A20302D00A000F1
:1055B2000030A1003808B3003308A200AB31102339
:1055C200AA3101302D00B4070030B53D3508803ACC
:1055D200B3003708803A3302031DF12A3608340239
:1055E200031CF42AF52AD62A2E002D18F92AFA2AA3
:1055F200032B2D003808B3003308A8003008A83167
:10560200EC20AA312D003008B731C927AA312D006C
:1056120036082007B0003708213DB10008002D00F0
:1056220022080319152B162B1B2B2208031D1A2BDC
:105632001B2B202B20088C31F824AB316C2B220839
:10564200043E8600073087001600010403192A2B46
:105652002B2B4B2B2208043E860007308700403F4D
:10566200A300413FA4002208023E860007308700C3
:10567200403FA500413FA6002608803AA700240823
:10568200803A2702031D472B2308250203184A2BC1
:105692004B2B6C2B2D002208023E86000730870020
:1056A2002208840007308500403F0007A300013133
:1056B200413F003DA40023088600240887002008FB
:1056C20081002208023E86000730870001308107F0
:1056D20041310318810A08002D00A601A11F722B77
:1056E200732B7A2BA009A109A00A0319A10AA6010A
:1056F200A60AA31F7D2B7E2B872BA209A309A20A30
:105702000319A30A0130A4002408A606A701A801D0
:105712002008210403198E2B8F2BBE2BA501A50A6D
:105722009B2B0130A035A10D890B932B0130A400D6
:105732002408A507A11F9E2B9F2B922B0130A73572
:10574200A80D890BA02B21082302031DAA2B2008D8
:105752002202031CAD2BAE2BB32B2008A202210880
:10576200A33B27140130A136A00C890BB42B0130C6
:10577200A502031DBD2BBE2B9F2B26080319C22B8E
:10578200C32BC82BA709A809A70A0319A80A280826
:10579200A1002708A00008002D00AA002A08A800DE
:1057A200A9010530A835A90D890BD32B2808803E05
:1057B200AB003F30293DAC00213027020318E22B19
:1057C200E32B2D2C04302A02031CE82BE92BEA2BB5
:1057D2002D2C2C08A1002B08A0008C31F924AB3110
:1057E200112C2C08A1002B08A000260886000730E7
:1057F20087000108A800A9012808A2002908A3001F
:10580200A401A40AA9311521AB3101302D00A80051
:105812002808A6070130AB070030AC3D0130A702D3
:1058220002302D0027020318172C182CF22B2C08FB
:10583200A1002B08A0002608860007308700010877
:10584200A800A9012808A2002908A300A401A931DF
:105852001521AB312300150808002D00AA00A9016B
:105862002130B7316B27AC310030B7316B27AC3107
:105872007F30B7316B27AC312230B7316B27AC3177
:105882002D002A08B7316B27AC312D002A08013EC2
:10589200B7316B27AC31B631C326AC317830B73172
:1058A2003C27AC314030B7313C27AC312D002A08BF
:1058B200A300A4010730A335A40D890B5C2C230897
:1058C200A7002408A800832CA9010030A3002030DF
:1058D200A4002708230786002808243D8700010822
:1058E200B7313C27AC3101302D00A7070030A83D6D
:1058F2000130A3002308A90710302902031C822CBF
:10590200832C662C2A08A300A4010730A335A40D1A
:10591200890B872C2308003EA5000130243DA600F8
:1059220026082802031D972C25082702031C9A2CFF
:105932009B2C652CB631BC26AC31080003102D001F
:105942006D0D6E0D2E00BF003F08C5004508031DFA
:10595200AB2CAC2CB62C00302D00EE000030ED004C
:105962000030EC000030EB00242D2D006B082E00DF
:10597200BF002D006C082E00C0002D006D082E0007
:10598200C1002D006E082E00C2001F30C236C10CAD
:10599200C00CBF0C890BC72C3F08C3004308C400CE
:1059A2002D00ED17FF30EB05FF30EC05FF30ED0564
:1059B2000030EE0596302E00C502C51FE12CE22C08
:1059C200FC2C4508803A973E0318E82CE92CEA2C77
:1059D200AC2C01302D00EE36ED0CEC0CEB0C890BEF
:1059E200EB2C01302E00BF003F08C507031DFA2C27
:1059F200FB2CEA2C132D20304502031C012D022D15
:105A02000E2DAC2C01302D00EB35EC0DED0DEE0D15
:105A1200890B042D01302E00C5024508031D122DED
:105A2200132D032D44080319172D182D242D2D0095
:105A3200EB09EC09ED09EE09EB0A0319EC0A03196B
:105A4200ED0A0319EE0A08000130A8312220AD3117
:105A5200B631BC26AD3105302D00A9000F30A800AB
:105A6200F130890B322DA80B322DA90B322DAE301D
:105A7200B7316B27AD31D530B7316B27AD31F0304F
:105A8200B7316B27AD31A830B7316B27AD313F301D
:105A9200B7316B27AD31D330B7316B27AD31003021
:105AA200B7316B27AD314030B7316B27AD318D3017
:105AB200B7316B27AD311430B7316B27AD312030A0
:105AC200B7316B27AD310030B7316B27AD31A13023
:105AD200B7316B27AD31C830B7316B27AD31DA3012
