:020000040000FA
:100000008031C128803008007E1480318B1E092881
:100010000A28BF280B1D0D280E28BF280B112E0003
:1000200035080319142815281F28540855040319E6
:100030001A281B281F28FF30D407FF30D53D580849
:10004000590403192428252859285C085D04031D38
:100050002A282B2859285A085B04031D30283128E8
:1000600059282F004D084E040319372838285E28D8
:100070000130CD020030CE3B4D084E04031D412817
:1000800042285E2850302E00D400C330D500B50180
:10009000B50A3A30FD007D08F600F701F70A003096
:1000A000AB31BF2380310430FD007D082E00BA0043
:1000B0005E2810302F00CD002730CE002E005C08C7
:1000C0005D040319642865287C285A085B04031D15
:1000D0006A286B287C2858085904031D7028712849
:1000E0007C28560857040319762877288028FF3083
:1000F000D607FF30D73D8028A830D6006130D70022
:100100005C085D0403198528862896285A085B0434
:1001100003198B288C28962858085904031991280C
:1001200092289628AD01AE01AF01B6012D082E042C
:1001300003199B289C28A0280130AD020030AE3B5B
:10014000520853040319A528A628AA28FF30D2076D
:10015000FF30D33D2F004C084B044A0449040319D7
:10016000B228B328BC28FF30C907FF30CA3DFF3092
:10017000CB3DFF30CC3DBF282E00B201B20A7E102D
:1001800009008031C3280630840090308500523049
:100190008600073087000030FF000E30B7310B2794
:1001A00080317F308400B7308500C9308600073049
:1001B00087000030FF001830B7310B27803129301D
:1001C0008400A93085002030860008308700003088
:1001D000FF003030B7310B278031283084002730C2
:1001E0008500C830FE000030FF00B631FF268031A8
:1001F0000030840020308500F030FE000330FF0026
:10020000B631FF2680312D00EF0120308400073009
:1002100085001B30FE000030FF00B631FF26803124
:10022000A0308400073085002930FE000030FF0038
:10023000B631FF26803150308400083085002030F0
:10024000FE000030FF00B631FF268031A030840070
:10025000083085004030FE000030FF00B631FF2638
:1002600080317E102000A431692C103410342034E9
:100270005F3400340034003400340034003400347F
:1002800000340034003400340034003400340034CE
:1002900000340034003400340034003400340034BE
:1002A00000340034003400340034003400340034AE
:1002B00000340034003400340034F834FC34FC34AE
:1002C000FC34F8340034003400340034003400349A
:1002D0000034003400340034003400347334733498
:1002E00073340034003400340034003400340034FB
:1002F000003400340034003400341E343E343E34C4
:100300000034003400343E343E341E3400340034B3
:10031000003400340034003400340034003400343D
:10032000003400340034003400340034003400342D
:1003300000340034303430343034FE34FE34303461
:10034000303430343034FE34FE34303430343034F1
:10035000003400340C340C340C347F347F340C34CF
:100360000C340C340C347F347F340C340C340C34A7
:100370000034003400340034F034F8349834FE345F
:1003800098349834FE349834983418340034003457
:1003900000340034003400341834193419347F34F4
:1003A000193419347F3419341F340F3400340034B5
:1003B00000340034003400340034383438343834F5
:1003C0008034C034E03470343834003400340034C5
:1003D000003400340034003400341C340E3407344C
:1003E000033401341C341C341C3400340034003415
:1003F00000340034003400343834FC34C434C434A1
:10040000FC34383400340034003480340034003498
:1004100000340034003400341E343F34213421349D
:1004200033343F341E341E34373423340034003424
:100430000034003400340034003420343C343C3484
:100440001C340034003400340034003400340034F0
:1004500000340034003400340034003400340034FC
:1004600000340034003400340034003400340034EC
:1004700000340034003400340034C034E034F0344C
:1004800038341C340C340434043400340034003464
:1004900000340034003400340034033407340F34A3
:1004A0001C343834303420342034003400340034E8
:1004B00000340034003400340034043404340C3488
:1004C0001C343834F034E034C034003400340034A8
:1004D000003400340034003400342034203430340C
:1004E00038341C340F3407340334003400340034FF
:1004F000003400340034803488349034E034E03404
:10050000FC34FC34E034E0349034883480340034FB
:100510000034003400340134113409340734073412
:100520003F343F3407340734093411340134003484
:10053000003400340034003400348034803480349B
:10054000F034F034803480348034003400340034AB
:1005500000340034003400340034013401340134F8
:100560000F340F34013401340134003400340034CA
:1005700000340034003400340034003400340034DB
:1005800000340034003400340034003400340034CB
:10059000003400340034003400344034783478348B
:1005A0003834003400340034003400340034003473
:1005B000003400340034003480348034803480349B
:1005C000803480348034803480348034003400348B
:1005D0000034003400340034013401340134013477
:1005E0000134013401340134013401340034003465
:1005F000003400340034003400340034003400345B
:10060000003400340034003400340034003400344A
:1006100000340034003400340034003438343834CA
:1006200038340034003400340034003400340034F2
:10063000003400340034003400340034003400341A
:10064000003400348034C034E034703438341C3426
:1006500000340034003400342034303438341C3456
:100660000E340734033401340034003400340034D1
:100670000034003400340034F834FC34FC340434E6
:100680008434E4347434FC34FC34F83400340034FE
:1006900000340034003400341F343F343F342E34EF
:1006A0002734213420343F343F341F3400340034A5
:1006B0000034003400340034603460346034F0348A
:1006C000FC34FC3400340034003400340034003492
:1006D00000340034003400342034203420343F34DB
:1006E0003F343F342034203420340034003400348C
:1006F000003400340034003418341C341C34043406
:1007000004348434CC34FC34783430340034003451
:100710000034003400340034303438343C342E3467
:100720002734233421343834383438340034003416
:10073000003400340034003418341C341C34843445
:1007400084348434CC347C34783430340034003411
:100750000034003400340034183438343834213450
:100760002134213433343E341E340C34003400340C
:1007700000340034003400348034C0346034303409
:100780001834FC34FC34FC340034003400340034BD
:10079000003400340034003403340334033423348D
:1007A00023343F343F343F34233423340034003483
:1007B0000034003400340034FC34FC34FC34843421
:1007C0008434843484348434043404340034003471
:1007D00000340034003400341934393439342134CD
:1007E0002134213433343F341F340E340034003488
:1007F0000034003400340034E034F034F8349C34F5
:100800008C348434843484348034003400340034B0
:1008100000340034003400341F343F343F3421347A
:100820002134213421343F343F341F340034003428
:1008300000340034003400343C343C343C34043460
:100840000434043404348434FC34FC347C34003404
:1008500000340034003400340034003400343834C0
:100860003C343E3407340334013400340034003463
:10087000003400340034003478347C34FC34C43424
:10088000C43484348434FC347C347834003400340C
:1008900000340034003400341E343E343F342134FC
:1008A0002134233423343F343E341E3400340034A6
:1008B0000034003400340034F834FC34FC34843424
:1008C000843484348434FC34FC34F834003400340C
:1008D0000034003400340034003401342134213435
:1008E0002134313439341F340F34073400340034A8
:1008F00000340034003400340034003400347034E8
:100900007034703400340034003400340034003467
:1009100000340034003400340034003400340E3429
:100920000E340E340034003400340034003400340B
:1009300000340034003400340034003400347034A7
:100940007034703400340034003400340034003427
:1009500000340034003400340034003410341E34C9
:100960001E340E34003400340034003400340034BB
:1009700000340034003400348034C034E034703447
:1009800038341C340E34063402340034003400345D
:1009900000340034003400340134033407340E349E
:1009A0001C34383470346034403400340034003443
:1009B00000340034003460346034603460346034B7
:1009C00060346034603460346034603460340034E7
:1009D0000034003400340634063406340634063459
:1009E000063406340634063406340634063400343D
:1009F0000034003400340034023406340E341C3425
:100A000038347034E034C03480340034003400347E
:100A100000340034003400344034603470343834EE
:100A20001C340E34073403340134003400340034F1
:100A3000003400340034003418341C340C340E34C8
:100A400006348634CE34FC347C34383400340034FC
:100A500000340034003400340034003400340034F6
:100A6000733473347334003400340034003400348D
:100A70000034003400340034FC34FE34FE340234DC
:100A80000234C234C234C234FE34FE34FC34003486
:100A900000340034003400343F343F347F34603459
:100AA0006034633463346334633443340334003474
:100AB0000034003400340034E034F034F8341C34B2
:100AC0000C340C341C34F834F034E034003400348A
:100AD00000340034003400343F343F343F340234B7
:100AE0000234023402343F343F343F3400340034A3
:100AF00000340034003400340434FC34FC34FC345E
:100B0000843484348434FC34FC3478340034003449
:100B1000003400340034003420343F343F343F3458
:100B20002134213421343F343F341E340034003426
:100B30000034003400340034F034F834FC340C3425
:100B40000434043404341C341C34183400340034A9
:100B500000340034003400340F341F343F34303458
:100B600020342034203438343834183400340034FD
:100B700000340034003400340434FC34FC34FC34DD
:100B8000043404340C34FC34F834F03400340034CD
:100B9000003400340034003420343F343F343F34D8
:100BA0002034203430343F341F340F3400340034C8
:100BB00000340034003400340434FC34FC34FC349D
:100BC000843484348434C434CC341C34003400344D
:100BD000003400340034003420343F343F343F3498
:100BE0002134213421342334333438340034003474
:100BF00000340034003400340434FC34FC34FC345D
:100C0000843484348434C434CC341C34003400340C
:100C1000003400340034003420343F343F343F3457
:100C200021340134013403340334003400340034FB
:100C30000034003400340034F034F834FC340C3424
:100C40000434043404343C343C3438340034003448
:100C500000340034003400340F341F343F34303457
:100C60002034223422343E343E343E3400340034C6
:100C70000034003400340034FC34FC34FC34803460
:100C800080348034FC34FC34FC34003400340034D0
:100C900000340034003400343F343F343F340134F6
:100CA000013401343F343F343F34003400340034E5
:100CB0000034003400340034003404340434FC3490
:100CC000FC34FC3404340434003400340034003484
:100CD00000340034003400340034203420343F34F5
:100CE0003F343F34203420340034003400340034A6
:100CF0000034003400340034003400340034003454
:100D000004340434FC34FC34FC340434043400343F
:100D10000034003400341E341E343E342034203479
:100D2000203420343F343F341F3400340034003446
:100D300000340034003400340434FC34FC34FC341B
:100D4000C034E03470343C341C340C34003400348F
:100D5000003400340034003420343F343F343F3416
:100D6000033407340E343C34383430340034003427
:100D700000340034003400340434FC34FC34FC34DB
:100D800004340034003400340034003400340034BF
:100D9000003400340034003420343F343F343F34D6
:100DA000203420342034303438343C34003400349F
:100DB0000034003400340034FC34FC34FC34783427
:100DC000F034E034F0347834FC34FC34FC34003457
:100DD00000340034003400343F343F343F340034B6
:100DE00000340134003400343F343F343F340034A5
:100DF0000034003400340034FC34FC34FC347034EF
:100E0000E034C03480340034FC34FC34FC3400342E
:100E100000340034003400343F343F343F34003475
:100E200000340134033407343F343F343F3400345A
:100E30000034003400340034E034F034F8341C342E
:100E40000C340C340C341C34F834F034E0340034FA
:100E5000003400340034003407340F341F34383485
:100E600030343034303438341F340F3407340034E5
:100E700000340034003400340434FC34FC34FC34DA
:100E8000843484348434FC34FC34783400340034C6
:100E9000003400340034003420343F343F343F34D5
:100EA000213401340134013401340034003400347D
:100EB0000034003400340034E034F834F8341C34A6
:100EC0000C3404340C341C34F834F834E03400347A
:100ED000003400340034003407341F341F34183415
:100EE00018345C345E347E347F347F3447340034CD
:100EF00000340034003400340434FC34FC34FC345A
:100F0000843484348434FC34FC3478340034003445
:100F1000003400340034003420343F343F343F3454
:100F20000134013403343F343F343C340034003462
:100F300000340034003400347834FC34FC3484341D
:100F4000843484348434BC343C3438340034003445
:100F500000340034003400341C343C343D3421343B
:100F60002134213421343F343F341E3400340034E2
:100F700000340034003400341C340C3404340434A1
:100F8000FC34FC34FC34043404340C341C3400349D
:100F90000034003400340034003400342034203471
:100FA0003F343F343F3420342034003400340034A4
:100FB0000034003400340034FC34FC34FC3400349D
:100FC00000340034FC34FC34FC340034003400348D
:100FD00000340034003400341F343F343F342034B4
:100FE000203420343F343F341F3400340034003484
:100FF0000034003400340034FC34FC34FC3400345D
:1010000000340034FC34FC34FC340034003400344C
:10101000003400340034003407340F341F343834C3
:10102000303438341F340F34073400340034003483
:101030000034003400340034FC34FC34FC3400341C
:101040000034803400340034FC34FC34FC3400348C
:10105000003400340034003403340F343F343C3463
:101060003C340F343C343C343F340F3403340034CC
:1010700000340034003400341C343C347C34E0341C
:10108000C034E0347C343C341C340034003400344C
:10109000003400340034003438343C343E340734F7
:1010A000033407343E343C343834003400340034E4
:1010B00000340034003400347C34FC34FC3480349C
:1010C00000348034FC34FC347C340034003400348C
:1010D00000340034003400340034203421343F34F0
:1010E0003F343F34213420340034003400340034A1
:1010F00000340034003400343C341C340C340434E8
:101100008434C434E4347C343C341C34003400343F
:10111000003400340034003438343C343E34273456
:10112000233421342034303438343C340034003417
:10113000003400340034003400340034FC34FC3417
:10114000FC340434043404340434003400340034F3
:101150000034003400340034003400343F343F3471
:101160003F34203420342034203400340034003420
:1011700000340034003400341C3438347034E0342B
:10118000C03480340034003400340034003400347F
:1011900000340034003400340034003400340034AF
:1011A0000134033407340E341C3418343034203402
:1011B0002034003400340034003400340434043467
:1011C00004340434FC34FC34FC3400340034003483
:1011D000003400340034003400340034203420342F
:1011E000203420343F343F343F3400340034003462
:1011F00000340034003400342034303438341C34AB
:101200000E340E341C34383430342034003400347E
:10121000003400340034003400340034003400342E
:10122000003400340034003400340034003400341E
:10123000003400340034003400340034003400340E
:1012400000340034003400340034003400340034FE
:1012500000340034C034C034C034C034C034C0346E
:10126000C034C034C034C034C034C034C034C034DE
:10127000C0340034003400340C340C343C3430348A
:10128000303400340034003400340034003400348E
:1012900000340034003400340034003400340034AE
:1012A000003400340034003400340034003400349E
:1012B00000340034003400340034403440344034CE
:1012C00040344034C034C0348034003400340034FE
:1012D00000340034003400341C343E343E342234B4
:1012E000223422343F341F343F342034003400345D
:1012F00000340034003400340434FC34FC34FC3456
:10130000403440344034C034C0348034003400347D
:10131000003400340034003420343F341F343F3470
:101320002034203420343F343F341F340034003420
:1013300000340034003400348034C034C0344034CD
:1013400040344034C034C03480340034003400347D
:1013500000340034003400341F343F343F34203430
:101360002034203439343934193400340034003412
:1013700000340034003400348034C034C03440348D
:1013800040344434FC34FC34FC3404340034003441
:1013900000340034003400341F343F343F342034F0
:1013A000203420343F341F343F34203400340034A0
:1013B00000340034003400348034C034C03440344D
:1013C00040344034C034C0348034003400340034FD
:1013D00000340034003400341F343F343F342234AE
:1013E000223422343B343B341B3400340034003488
:1013F000003400340034003480348034F834FC3459
:10140000FC3484349C349C3418340034003400346C
:101410000034003400340034213421343F343F346C
:101420003F3421342134013400340034003400349A
:1014300000340034003400348034C034C0344034CC
:1014400040344034C0348034C0344034003400343C
:1014500000340034003400344734CF34DF3498345F
:1014600098349834FF34FF347F340034003400342F
:1014700000340034003400340434FC34FC34FC34D4
:10148000803440344034C034C034803400340034BC
:10149000003400340034003420343F343F343F34CF
:1014A0000134003400343F343F343F3400340034DE
:1014B00000340034003400340034403440344034CC
:1014C000DC34DC34DC3400340034003400340034E8
:1014D000003400340034003400342034203420340C
:1014E0003F343F343F34203420342034003400343F
:1014F000003400340034003400340034003440340C
:1015000040344034DC34DC34DC3400340034003427
:10151000003400340034003420346034E03480344B
:101520008034C034FF34FF347F340034003400345E
:1015300000340034003400340434FC34FC34FC3413
:10154000003400348034C034C034403400340034BB
:10155000003400340034003420343F343F343F340E
:10156000023407340F343D3438343034003400341E
:1015700000340034003400340034043404340434BF
:10158000FC34FC34FC3400340034003400340034C7
:10159000003400340034003400342034203420344B
:1015A0003F343F343F34203420342034003400347E
:1015B0000034003400340034C034C034C03440340B
:1015C0004034C03440344034C034C03480340034FB
:1015D00000340034003400343F343F343F340034AE
:1015E00000343F34003400343F343F343F3400345F
:1015F0000034003400340034C034C034C0344034CB
:1016000040344034C034C0348034003400340034BA
:1016100000340034003400343F343F343F3400346D
:10162000003400343F343F343F340034003400345D
:1016300000340034003400348034C034C0344034CA
:1016400040344034C034C03480340034003400347A
:1016500000340034003400341F343F343F3420342D
:10166000203420343F343F341F34003400340034FD
:1016700000340034003400344034C0348034C0348A
:10168000403440344034C034C034803400340034FA
:1016900000340034003400348034FF34FF34FF342D
:1016A0009034103410341F341F340F34003400349D
:1016B0000034003400348034C034C034403440340A
:1016C0004034C0348034C0344034003400340034FA
:1016D0000034003400340F341F341F3410341034FD
:1016E0009034FF34FF34FF3480340034003400344D
:1016F00000340034003400344034C034C034C034CA
:101700008034C034C034C034C03480340034003439
:10171000003400340034003420343F343F343F344C
:1017200021340034003401340134013400340034F5
:1017300000340034003400348034C034C0344034C9
:10174000403440344034C0348034003400340034F9
:10175000003400340034003419343B34233426344C
:10176000263426343C343D341934003400340034FB
:10177000003400340034003440344034E034F03479
:10178000F8344034403440344034003400340034C1
:101790000034003400340034003400341F343F344B
:1017A0003F342034383438341834003400340034B2
:1017B0000034003400340034C034C034C034003449
:1017C00000340034C034C034C03400340034003439
:1017D00000340034003400341F343F343F342034AC
:1017E000203420343F341F343F342034003400345C
:1017F0000034003400340034C034C034C034003409
:1018000000340034C034C034C034003400340034F8
:10181000003400340034003407340F341F343834BB
:10182000303438341F340F3407340034003400347B
:101830000034003400340034C034C034C0340034C8
:101840000034003400340034C034C034C0340034B8
:10185000003400340034003407340F343F3438345B
:1018600038340E34383438343F340F3407340034CD
:101870000034003400340034C034C034C034003488
:101880000034C034C034C034003400340034003478
:101890000034003400340034303439343F340F34F1
:1018A0000F343F34393430340034003400340034E1
:1018B00000340034003400340034C034C034C03448
:1018C000003400340034C034C034C0340034003438
:1018D0000034003400340034803487348F349F3433
:1018E000D834F83478343F340F34073400340034BB
:1018F0000034003400340034C034C0344034403448
:101900004034C034C034C0340034003400340034B7
:101910000034003400340034313438343C342E3454
:101920002734233431343834003400340034003464
:10193000003400340034003480348034C0347834CF
:101940007C343C340434043404340434003400342F
:1019500000340034003400340134013403341E34C4
:101960003E343C34203420342034203400340034DD
:1019700000340034003400340034003400340034C7
:10198000FE34FE34FE3400340034003400340034BD
:1019900000340034003400340034003400340034A7
:1019A0007F347F347F34003400340034003400341A
:1019B0000034003400340034043404340434043477
:1019C0003C347C347834C034803480340034003487
:1019D00000340034003400342034203420342034E7
:1019E0003C343E341E3403340134013400340034BA
:1019F00000340034003438343C343C3404340C3487
:101A00001C343834303420343C343C341C340034FE
:101A10000034003400340034003400340034003426
:101A20000034003400340034003400340034003416
:101A30000034080000308B1B01302D00A2008B13F6
:101A40002108230092002D00200823009100151387
:101A500015161515B631C3268D31230015112D002D
:101A600022080319342D352D362D8B17080032002E
:101A70002808290403193D2D3E2D432D0130A802CD
:101A80000030A93B472DE830A8000330A900013001
:101A90002902F53003192802031C4F2D502D532D18
:101AA00022000C13552D22000C170B302E00CD00F8
:101AB0006230890B592DCD0B592D0000903101203A
:101AC0008D3120008D1E652D662D372D22000C17BF
:101AD000D1302D00A0000730A100A83165208D3144
:101AE00040302D00A0000830A100A83165208D31C4
:101AF00030302D00A0000830A100A83165208D31C4
:101B000020302D00A0000830A100A83165208D31C3
:101B10009531CD2DD130BE000730BF006230C000FE
:101B2000B830C100A831FE208D3100302D00DC001E
:101B3000DD00B631E7268D3122000C1022008C101A
:101B40009531E92D2D00A201A20AA301A30A5F305D
:101B5000983107208D31D1302E00BE000730BF00F4
:101B60005D30C000B830C100A831FE208D3120307A
:101B70002E00BE000830BF002E30C000B830C100BB
:101B80000A302D00A0000030A1002E005F08CD001B
:101B9000CE014D082D00A2002E004E082D00A300FE
:101BA000AC311D248D312D0021082E00C3002D00E5
:101BB00020082E00C2000A302D00A0000030A10035
:101BC0002E005F08CF00D0014F082D00A2002E008C
:101BD00050082D00A300AA315A228D312D00210872
:101BE0002E00C5002D0020082E00C400A831FE20C4
:101BF0008D312E005F08CD00CE01CF01D0015008FD
:101C00002D00AC002E004F082D00AB002E004E081A
:101C10002D00AA002E004D082D00A9000130AF3183
:101C200053278D312D002C08BE002B08BD002A083B
:101C3000BC002908BB004130BA000230B900F130C5
:101C4000B800AA30B7009D31A9258D312D003A0882
:101C5000D4003908D3003808D2003708D100AD319C
:101C6000C0258D312D005208DD005108DC00B63151
:101C7000E7268D313F302D00D400EC30D300CC303E
:101C8000D200CD30D1004130BA002030B900003050
:101C9000B8000030B7002E005F08CD00CE01CF01A4
:101CA000D00150082D00AC002E004F082D00AB00D5
:101CB0002E004E082D00AA002E004D082D00A90070
:101CC0000030AF3153278D312D002C08BE002B087A
:101CD000BD002A08BC002908BB00A231B5228D3105
:101CE0002D003A08D8003908D7003808D600370840
:101CF000D500AE3135268D3103187F2E802E832EF0
:101D000022000C14852E22000C102E005F08CD003E
:101D1000CE014D082D00A2002E004E082D00A3007C
:101D20000A30A0000030A100AC311D248D312D00FF
:101D30002008A9002108AA00890D893B8909AB0068
:101D4000AC000130AF3153278D312D002C08D40069
:101D50002B08D3002A08D2002908D1004030D8002F
:101D60000030D7000030D6000030D500AE31352627
:101D70008D31031CBC2EBD2E9E2D22008C14A02D57
:101D80000330CD004D082D00A200A301A30A5F304F
:101D9000983107208D31D1302E00BE000730BF00B2
:101DA0001830C000B830C100A831FE208D3120307D
:101DB0002E00BE000830BF002E30C000B830C10079
:101DC0000A302D00A0000030A1002E005F08CD00D9
:101DD000CE014D082D00A2002E004E082D00A300BC
:101DE000AC311D248D312D0021082E00C3002D00A3
:101DF00020082E00C2000A302D00A0000030A100F3
:101E00002E005F08CF00D0014F082D00A2002E0049
:101E100050082D00A300AA315A228D312D0021082F
:101E20002E00C5002D0020082E00C400A831FE2081
:101E30008D3120000D1E1D2F1E2F222F8C1D212FB6
:101E4000222FF32F40302E00BE000830BF00553047
:101E5000C000B830C100A831FE208D312E005F08CF
:101E6000CD00CE01CF01D00150082D00AC002E00D6
:101E70004F082D00AB002E004E082D00AA002E00AA
:101E80004D082D00A9000130AF3153278D312D00B1
:101E90002C08BE002B08BD002A08BC002908BB0086
:101EA0004130BA000230B900F130B800AA30B700B2
:101EB0009D31A9258D312D003A08D4003908D30071
:101EC0003808D2003708D100AD31C0258D312D0042
:101ED0005208DD005108DC00B631E7268D313F3075
:101EE0002D00D400EC30D300CC30D200CD30D10066
:101EF0004130BA002030B9000030B8000030B700DF
:101F00002E005F08CD00CE01CF01D00150082D007A
:101F1000AC002E004F082D00AB002E004E082D0007
:101F2000AA002E004D082D00A9000030AF31532724
:101F30008D312D002C08BE002B08BD002A08BC00E6
:101F40002908BB00A231B5228D312D003A08D800F6
:101F50003908D7003808D6003708D500AE31352605
:101F60008D310318B42FB52FB82F22000C14BA2FBF
:101F700022000C102E005F08CD00CE014D082D0070
:101F8000A2002E004E082D00A3000A30A000003051
:101F9000A100AC311D248D312D002008A90021089D
:101FA000AA00890D893B8909AB00AC000130AF3133
:101FB00053278D312D002C08D4002B08D3002A087C
:101FC000D2002908D1004030D8000030D7000030BE
:101FD000D6000030D500AE3135268D31031CF12FEF
:101FE000F22F9E2DBD2E40302E00BE000830BF00C7
:101FF0004430C000B830C100A831FE208D31952D8D
:10200200640025302100990008005034C334503454
:10201200C334A83461341434003414340034143416
:102022000034643432342D00C6003B08CF003C0833
:10203200D0003D08D1003E08D2003F08D30040083E
:10204200D4004108D5004208D600CF3086000630C1
:102052008700473FC300C31B2F2831280130322895
:1020620000302D00C400C5014408CD004508CE0053
:102072004D084E0403193E283F285D28CF09D00998
:10208200D109D209D309D409D509D609CF0A031D2A
:102092005D28D00A031D5D28D10A031D5D28D20ADE
:1020A200031D5D28D30A031D5D28D40A031D5D2884
:1020B200D50A031D5D28D60A2E00A81B61286228B6
:1020C2006628FD30A905FF30AA052808803A2D00B0
:1020D200C30080304302031D712801302E00270205
:1020E2000318742875287B2801302D00C9000030A0
:1020F200CA0083282E0028082D00CA002E002708B7
:102102002D00C9002F0044082D00CC002F004308E9
:102112002D00CB004D084E04031D902891289628CF
:102122002E00291D952896289B28FF302D00CB07CD
:10213200FF30CC3D1F302D00D7000030D8003100D9
:10214200DF010C29FF302D00D707FF30D83D0A30C0
:10215200A000A101A201A301A401A501A601A7015A
:102162004F08A8005008A9005108AA005208AB0065
:102172005308AC005408AD005508AE005608AF0035
:10218200A131C82190312D002108B4002008B300EC
:10219200B731E42790312D003308303EC300570891
:1021A200C03E86000830870043088100FF30C9071F
:1021B200FF30CA3DFF30CB07FF30CC3D0A30A000D4
:1021C200A101A201A301A401A501A601A7014F0833
:1021D200A8005008A9005108AA005208AB005308F1
:1021E200AC005408AD005508AE005608AF00983157
:1021F200442090312D002008CF002108D000220871
:10220200D1002308D2002408D3002508D4002608D0
:10221200D5002708D6002D005808803AC300803028
:102222004302031D162901305702031C19291A29DA
:1022320047292D004F0850045104520453045404FA
:1022420055045604031D26292729A3284A08803A43
:10225200C30080304302031D3029013049020318B4
:1022620033293429A3282D004C08803AC30080303A
:102272004302031D3E2901304B02031C412942291E
:1022820047292E00A91846294729A3282D004D08C1
:102292004E04031D4D294E2953292E00291D522972
:1022A20053297029FF302D00D707FF30D83D4D0844
:1022B2004E04031D5D295E2963292B30C7000030BF
:1022C200C80067292D30C7000030C8004708C30086
:1022D2005708C03E860008308700430881002D0061
:1022E2005708C03EC3004308B0004C08B2004B0878
:1022F200B1004608AA31AE2290312D003108BC004F
:102302003008BB00080029000E082E00CD00CE01C7
:1023120029000F082E00CF00D0014F08D000CF01B6
:102322004D084F072D00A9002E004E08503D2D00EC
:10233200AA00AB01AC010030AF31532791312D001F
:102342002C082F00C0002D002B082F00BF002D00ED
:102352002A082F00BE002D0029082F00BD000030E2
:102362002E002C02313003192B020318B929BA2985
:10237200DB292C08CE002B08CD00CD35CE0DCD3576
:10238200CE0D2830CF002730D0004D084F078600F1
:102392004E08503D87002F003D08C03F3E08C13F18
:1023A2003F08C23F4008C33F01302E00AB07003058
:1023B200AC3DF9292C08CE002B08CD00CD35CE0D31
:1023C200CD35CE0D2830CF002730D0004D084F0735
:1023D20086004E08503D87002F003D08C03F3E0852
:1023E200C13F3F08C23F4008C33F2E00AB01AC01D2
:1023F20000303200B1000030B0000030AF000030D9
:10240200AE00AA01AB0100302B02323003192A02BE
:10241200031C0C2A0D2A0E2A872A2B082E00CE0016
:1024220032002A082E00CD00CD35CE0DCD35CE0D91
:102432002830CF002730D0004D084F0786004E08C5
:10244200503D8700403F2D00A000413FA100423F88
:10245200A200433FA300320031082D00A700320042
:1024620030082D00A60032002F082D00A5003200F2
:102472002E082D00A4009B31712391312D002308D9
:102482003200B1002D0022083200B0002D002108D8
:102492003200AF002D0020083200AE0031302A0693
:1024A2002B04031D552A562A822A42302D00BA00D7
:1024B2004830B9000030B8000030B70032003108AF
:1024C2002D00BE00320030082D00BD0032002F0862
:1024D2002D00BC0032002E082D00BB00A231B52217
:1024E20091312D003A083200B1002D003908320036
:1024F200B0002D0038083200AF002D00370832003E
:10250200AE000130AA070030AB3D042A31082D008D
:10251200BE00320030082D00BD0032002F082D0011
:10252200BC0032002E082D00BB003C30BA004830FF
:10253200B9000030B8000030B7009D31A9259131B3
:102542002D003A08D4003908D3003808D2003708E1
:10255200D100AD31C02591312D0052083200A500C5
:102562002D0051083200A40031082D00BE003200B7
:1025720030082D00BD0032002F082D00BC003200B3
:102582002E082D00BB003C30BA004830B9000030A4
:10259200B8000030B7009D31A92591312D003A08CD
:1025A2003200A3002D0039083200A2002D003808A5
:1025B2003200A1002D0037083200A00000302D00AB
:1025C200DF000030DE000030DD000A30DC003200C7
:1025D20023082D00BE00320022082D00BD0032006B
:1025E20021082D00BC00320020082D00BB00413024
:1025F200BA002030B9000030B8000030B7009D3179
:10260200A92591312D003A08D4003908D3003808A1
:10261200D2003708D100AD31C02591312D005408C8
:10262200E3005308E2005208E1005108E000AA3139
:102632000F2291312D005D083200A7002D005C08A9
:102642003200A600D1302E00BE000730BF0000309D
:10265200C000B830C100A831FE20913130302E00C8
:10266200BE000830BF006630C000B830C100A831DB
:10267200FE2091312E003008031D402B412B612B8F
:102682001430CD004D08B0002030BE000830BF002D
:102692000C30C000B830C100320025082E00C30043
:1026A200320024082E00C200320027082E00C50086
:1026B200320026082E00C400A831FE2091318C2B56
:1026C2003200AC01AD012D08803A2E00CD008030E1
:1026D2004D02031D6F2B103032002C02031C722B93
:1026E200732B742B8C2B32002C08503E8600083042
:1026F200870001082E00CD0032002C08203E860003
:10270200083087002E004D08810001303200AC07EE
:102712000030AD3D642B20000D1E902B912B952B8C
:102722008C1D942B952B952C40302E00BE0008302A
:10273200BF005530C000B830C100A831FE20913131
:102742002F0040082D00D4002F003F082D00D30099
:102752002F003E082D00D2002F003D082D00D10091
:10276200AD31C02591312D005208DD005108DC0049
:10277200B631E72691313F302D00D400F330D3003B
:102782003330D2003330D1003C30BA004830B90087
:102792000030B8000030B700320031082D00BE0012
:1027A200320030082D00BD0032002F082D00BC0081
:1027B20032002E082D00BB009D31A92591312D003C
:1027C2003A08D8003908D7003808D6003708D500AB
:1027D200AE31352691310318EF2BF02BF32B22006B
:1027E2000C14292C3C302D00BA004830B9000030BE
:1027F200B8000030B700320031082D00BE003200B0
:1028020030082D00BD0032002F082D00BC00320020
:102812002E082D00BB009D31A92591312D003A08CB
:10282200D4003908D3003808D2003708D1003F302D
:10283200D800E630D7006630D6006630D500AE311B
:10284200352691310318262C272C292C22000C1016
:1028520040302D00D4000330D3003330D200333067
:10286200D1003C30BA004830B9000030B800003026
:10287200B700320031082D00BE00320030082D00B2
:10288200BD0032002F082D00BC0032002E082D00A2
:10289200BB009D31A92591312D003A08D800390895
:1028A200D7003808D6003708D500AE313526913129
:1028B20003185C2C5D2C5F2C8E31BD2E3C302D001C
:1028C200BA004830B9000030B8000030B70032001A
:1028D20031082D00BE00320030082D00BD0032004C
:1028E2002F082D00BC0032002E082D00BB009D31A8
:1028F200A92591312D003A08D4003908D3003808AF
:10290200D2003708D1003F30D800F930D7009930D3
:10291200D6009A30D500AE31352691310318922C6B
:10292200932CE92D8D319E2D40302E00BE000830B3
:10293200BF004430C000B830C100A831FE20913140
:102942008D31952D0230CD004D082D00A200A3013E
:10295200A30A5E30983107209131D1302E00BE009B
:102962000730BF002330C000B830C100A831FE20BC
:10297200913120302E00BE000830BF002E30C00042
:10298200B830C1000A302D00A0000030A1002E0096
:102992005E08CD00CE014D082D00A2002E004E088B
:1029A2002D00A300AC311D2491312D0021082E00F1
:1029B200C3002D0020082E00C2000A302D00A00006
:1029C2000030A1002E005E08CF00D0014F082D007C
:1029D200A2002E0050082D00A300AA315A229131E4
:1029E2002D0021082E00C5002D0020082E00C40055
:1029F200A831FE2091312E005E08CD00CE01CF011C
:102A0200D00150082D00AC002E004F082D00AB0065
:102A12002E004E082D00AA002E004D082D00A90000
:102A22000130AF31532791312D002C08BE002B0805
:102A3200BD002A08BC002908BB004130BA000230A0
:102A4200B900F130B800AA30B7009D31A925913103
:102A52002D003A08D4003908D3003808D2003708CC
:102A6200D100AD31C02591312D005208DD00510851
:102A7200DC00B631E72691313F302D00D400EC3036
:102A8200D300CC30D200CD30D1004130BA0020305A
:102A9200B9000030B8000030B7002E005E08CD004B
:102AA200CE01CF01D00150082D00AC002E004F08FE
:102AB2002D00AB002E004E082D00AA002E004D085E
:102AC2002D00A9000030AF31532791312D002C0881
:102AD200BE002B08BD002A08BC002908BB00A23199
:102AE200B52291312D003A08D8003908D7003808AC
:102AF200D6003708D500AE31352691310318822D24
:102B0200832D862D22000C14882D22000C102E00FD
:102B12005E08CD00CE014D082D00A2002E004E0809
:102B22002D00A3000A30A0000030A100AC311D240A
:102B320091312D002008A9002108AA00890D893BA6
:102B42008909AB00AC000130AF31532791312D0020
:102B52002C08D4002B08D3002A08D2002908D1005F
:102B62004030D8000030D7000030D6000030D50009
:102B7200AE3135269131031CBF2DC02D932C5D2C17
:102B8200D130BE000730BF003930C000B830C100BC
:102B9200A831FE209131A12C2E003A08CD00CE01A1
:102BA2004E08003A0319D62DC12D4D08003A8D3139
:102BB2000319A22D013A03198A2D9131033A0319FF
:102BC200FE2F013A03198429073A0319A32CC12DB8
:102BD2002E00520853040319EF2DF02DF52DFF306E
:102BE200B631F3269131F92D0030B631F326913109
:102BF200A631322691312E00B10120008D18022E0D
:102C0200032E132E01302E00CD004D08B1075C08B3
:102C12005D0403190D2E0E2E182EFF30DC07FF3037
:102C2200DD3D182E14302E00DC000030DD002000C7
:102C32000D191C2E1D2E2D2E01302E00CD004D08FB
:102C4200B1075A085B040319272E282E322EFF30B3
:102C5200DA07FF30DB3D322E14302E00DA0000306E
:102C6200DB0020000D18362E372E472E01302E00A5
:102C7200CD004D08B107580859040319412E422EC0
:102C82004C2EFF30D807FF30D93D4C2E14302E0089
:102C9200D8000030D9003103031D502E512E8E2F43
:102CA2002F004F0850040319572E582E5D2EFF3067
:102CB200CF07FF30D03D932F50302E00D200C330CB
:102CC200D3005C085D04031D672E682ED22E2000FF
:102CD2008D1E6C2E6D2ED22E0D1D702E712ED22EAB
:102CE2002E002D082E04031D772E782ED22E0430AE
:102CF2002F0203187D2E7E2E862E0130CD004D0828
:102D0200AF07D030AD000730AE00350803198A2E68
:102D12008B2EA12E64305E020318902E912ED22E9D
:102D22000130CD004D08DE075E30CD004D082D008C
:102D3200A600A701A70A0230AC317D249131D22E20
:102D420064305F020318A62EA72ED22E3A08031D66
:102D5200AB2EAC2EBC2E0130CD004D08DF075F300C
:102D6200CD004D082D00A600A701A70A0130AC3105
:102D72007D249131D22E02303A06031DC12EC22E7D
:102D8200D22E0130CD004D08DF075F30CD004D0857
:102D92002D00A600A701A70A0330AC317D24913192
:102DA200D22E2E005A085B04031DD82ED92E3B2F9B
:102DB20020008D1EDD2EDE2E3B2F8D1CE12EE22EFD
:102DC2003B2F2E002D082E04031DE82EE92E3B2F4B
:102DD20004302F020318EE2EEF2EF72E0130CD0015
:102DE2004D08AF07D030AD000730AE0035080319EB
:102DF200FB2EFC2E0F2F5E080319002F012F3B2FF5
:102E02000130DE025E30CD004D082D00A600A70184
:102E1200A70A0230AC317D2491313B2F5F080319A0
:102E2200132F142F3B2F3A08031D182F192F272F6A
:102E32000130DF025F30CD004D082D00A600A70152
:102E4200A70A0130AC317D2491313B2F02303A0682
:102E5200031D2C2F2D2F3B2F0130DF025F30CD00C1
:102E62004D082D00A600A701A70A0330AC317D242E
:102E720091313B2F2E0058085904031D412F422F38
:102E8200932F3608031D462F472F932FB601B60AFC
:102E9200350803194D2F4E2F512FD401D501932FF1
:102EA20020008D1C552F562F932F0D1D592F5A2F51
:102EB200932F04302E003A06031D602F612F6A2FD4
:102EC200B5012D00A201A301A30A3A3098310720CF
:102ED200913103302E003A020318702F712F812F87
:102EE2000130CD004D08BA073A30CD004D082D0013
:102EF200A600A701A70A0030AC317D249131932F9F
:102F0200BA013A30CD004D082D00A600A701A70A4C
:102F12000030AC317D249131932F14302F00CF003B
:102F22000030D0002E0030080319982F992F9B2FC4
:102F32000130B00254085504031DA02FA12FAA2F5F
:102F4200B5012D00A201A301A30A3A30983107204E
:102F520091312E0056085704031DB02FB22FA43111
:102F6200DE2CB501D401D501B3010530CD004D08E9
:102F7200BA003230CD004D08DF006430CD004D087C
:102F8200DE0000302F00C0000030BF000030BE0065
:102F92000030BD003A302E00CD004D082D00A600B5
:102FA200A701A70A0030AC317D2491315F302E0099
:102FB200CD004D082D00A600A701A70A0130AC31B3
:102FC2007D2491315F302E00CD004D082D00A600EA
:102FD200A701A70A0330AC317D2491315E302E0067
:102FE200CD004D082D00A600A701A70A0230AC3182
:102FF2007D249131B02F8031C1288E31C02E240022
:103002001614161805280628022808002D00A80004
:103012002208A400A5010530A435A50D890B0D28B1
:103022002408803EA6003F30253DA7002130230220
:1030320003181C281D28432804302202031C2228BE
:1030420023283E2843282708A1002608A000B731DC
:103052003E2798312D002008A4002808860007305A
:103062008700240881000130A6070030A73D013007
:10307200A4002408A8070130A3022308031D422844
:103082004328242808002D00B201A0308600063013
:103092008700473FB000B01F4F28502872282D00EC
:1030A200A009A109A209A309A409A509A609A709BA
:1030B200A00A031D6F28A10A031D6F28A20A031D7F
:1030C2006F28A30A031D6F28A40A031D6F28A50AEF
:1030D200031D6F28A60A031D6F28A70A2D00B2013F
:1030E200B20AA830860006308700473F2D00B000A4
:1030F200B01F7C287D28A1282D00A809A909AA09AA
:10310200AB09AC09AD09AE09AF09A80A031D9C2899
:10311200A90A031D9C28AA0A031D9C28AB0A031DA9
:103122009C28AC0A031D9C28AD0A031D9C28AE0AEC
:10313200031D9C28AF0A01302D00B0003008B206F2
:10314200B33086000630870008302D00B000003012
:103152001E00B00BA9282008210422042304240401
:103162002504260427040319B728B8281429B10115
:10317200B10AC728A035A10DA20DA30DA40DA50D5E
:10318200A60DA70D0130B0003008B107A71FCA284D
:10319200CB28BB28B335B40DB50DB60DB70DB80DA0
:1031A200B90DBA0D27082F02031DF12826082E0299
:1031B200031DF12825082D02031DF12824082C02E5
:1031C200031DF12823082B02031DF12822082A02DD
:1031D200031DF12821082902031DF12820082802D5
:1031E200031CF428F52806292008A8022108A93B77
:1031F2002208AA3B2308AB3B2408AC3B2508AD3B85
:103202002608AE3B2708AF3B3314A736A60CA50C05
:10321200A40CA30CA20CA10CA00C0130B102031D42
:1032220013291429CB2832080319182919293729F7
:10323200B309B409B509B609B709B809B909BA0990
:10324200B30A031D3729B40A031D3729B50A031D22
:103252003729B60A031D3729B70A031D3729B80AC9
:10326200031D3729B90A031D3729BA0A2D0033086D
:10327200A0003408A1003508A2003608A3003708D0
:10328200A4003808A5003908A6003A08A7000800DB
:103292002D00D101D201D301D401C301C4012E00FA
:1032A20023080739031D56295729852A22082D008C
:1032B200BB00BC013B08A9003C08AA000830A000E2
:1032C2000030A1002E0023082D00BD00BE013D08E4
:1032D200A2003E08A300AC311D2499312D00210823
:1032E200AC002008AB00A831452099312D002A08F6
:1032F200C8002908C7002E0024082D003A02A900A0
:10330200AA01031CAA034808AC004708AB00A83175
:10331200452099312D002908043ECB0000302A3D7A
:10332200CC00D101D201692A0230D3000030D4008E
:10333200522A2E0022082D00BB00BC013B08A90026
:103342003C08AA005208AC005108AB00A831452045
:1033520099312D0029082E0020072D00BD002A08D2
:103362002E00213D2D00BE004B083D07BF004C083A
:103372003E3DC0003F08530784004008543D85008D
:103382000008C100C2014108C3004208C400D501BF
:103392000130BB000030BC00550AD129BB35BC0D41
:1033A200890BCF2943083B05BD0044083C05BE00FC
:1033B2003D083E040319DE29DF293C2A2E00260897
:1033C200031DE429E529112A2D0053083607BB0005
:1033D2005408373DBC003B08FE3EA900FF303C3D8F
:1033E200AA005508BD00BE015208C0005108BF0026
:1033F200BF35C00DBF35C00DBF35C00D3D083F07FD
:10340200C1003E08403DC20038084107AB00390800
:10341200423DAC00AD01AD0AA03102209931432AF0
:103422002D0053083607BB005408373DBC003B084B
:10343200FE3EA900FF303C3DAA005508BD00BE017A
:103442005208C0005108BF00BF35C00DBF35C00DC6
:10345200BF35C00D3D083F07C1003E08403DC200D8
:1034620038084107AB003908423DAC00AD01A0313C
:1034720002209931432A2E002608031D412A422A9E
:10348200E529112A01302D00BB003B08D507083081
:103492005502031C4D2A4E2AC9290130D307003098
:1034A200D43D2E002208FE3E2D00BB00FF30031843
:1034B2000030BC003C085402031D612A3B08530241
:1034C200031C642A652A9A290130D1070030D23DB3
:1034D2000830A0000030A1002E0023082D00BB0000
:1034E200BC013B08A2003C08A300AC311D24993169
:1034F2002D0021085202031D802A20085102031CBC
:10350200832A842A9529702B08302D00A0000030D0
:10351200A1002E0022082D00BB00BC013B08A9001F
:103522003C08AA002E0023082D00BD00BE013D0864
:10353200AB003E08AC00A831452099312D002A0885
:10354200A3002908A200AC311D2499312D002108C5
:10355200C8002008C7002E0024082D003A02A90046
:10356200AA01031CAA034808AC004708AB00A83113
:10357200452099312D002908043ECB0000302A3D18
:10358200CC002E0020082D004B0784002E002108BD
:103592002D004C3D85000008BB00BC013B08C50066
:1035A2003C08C6000730C9000030CA00CD01CE0178
:1035B200612B2D00CF01D0014D2B01302D00BB001E
:1035C2000030BC00490AE72ABB35BC0D890BE52A4D
:1035D20045083B05BD0046083C05BE003D083E04CB
:1035E2000319F42AF52A202B2E002608031DFA2A95
:1035F200FB2A0E2B2D004D083607A9004E08373D39
:10360200AA004F083807AB005008393DAC00AD01A5
:10361200AD0AA03102209931272B2D004D08360723
:10362200A9004E08373DAA004F083807AB005008E2
:10363200393DAC00AD01A03102209931272B2E007B
:103642002608031D252B262BFB2A0E2BFF302D00CF
:10365200C907FF30CA3DCA1F2F2B302B492B073019
:10366200C9000030CA000130CB070030CC3D2E002B
:1036720020082D004B0784002E0021082D004C3D10
:1036820085000008BB00BC013B08C5003C08C60021
:103692000130CF070030D03D5008803ABB00803067
:1036A2003B02031D582B2E0023082D004F02031C42
:1036B2005B2B5C2BDE2A01302D00CD070030CE3D86
:1036C2004E08803ABB0080303B02031D6C2B2E005B
:1036D20022082D004D02031C6F2B702BDA2A0800E2
:1036E2002D0023088039A8002808B0002335A8003F
:1036F2002808B200A21F7E2B7F2B802B32143208A7
:103702000319842B852B952B320A031D892B8A2BB7
:10371200922B0030A3000030A2000030A100003044
:10372200A000A217A3019D2B0030A3000030A2002D
:103732000030A1000030A00027088039A800280826
:10374200B100310830060319A72BA82BA92B30177B
:103752002735A8002808B100A61FB02BB12BB22B29
:10376200311431080319B62BB72BC72B310A031DAD
:10377200BB2BBC2BC42B0030A7000030A6000030AE
:10378200A5000030A400A617A701CF2B0030A70088
:103792000030A6000030A5000030A400320831023B
:1037A2000318D42BD52B192C301FD82BD92BDD2B5A
:1037B2008030A8002808B0063208A8002808B30004
:1037C2003108A8002808B2003308A8002808B10070
:1037D2002008A8002808B3002408A8002808A00090
:1037E2003308A8002808A4002108A8002808B3006C
:1037F2002508A8002808A1003308A8002808A50069
:103802002208A8002808B3002608A8002808A20059
:103812003308A8002808A6002308A8002808B30037
:103822002708A8002808A3003308A8002808A70032
:10383200B3013108A800A9012908AB003208280207
:10384200AA00031CAB032B08803AAC0080302C0288
:10385200031D2D2C1A302A02031C302C312C692C0A
:103862002D002308220421042004031D392C3B2CA3
:1038720001303C2C0030A8002808B3000030A3001F
:103882000030A2000030A1000030A0003108A800E2
:103892002808B200702C331C4F2C502C562C333677
:1038A2000138A8002808B300582C0310B30C201CC0
:1038B2005B2C5C2C5D2CB3170130A800A337A20C43
:1038C200A10CA00CA80B5F2C0130A8002808B2079D
:1038D2002D0031083202031C6F2C702C4C2C301B33
:1038E200732C742CAC2C3208031D782C792C822C6E
:1038F2000030A3000030A2000030A1000030A00080
:10390200A82D2408A0072508A13D2608A23D2708C6
:10391200A33D231C8D2C8E2C382D331C912C922CE4
:10392200982C33360138A8002808B3009A2C0310CB
:10393200B30C201C9D2C9E2C9F2CB3170130A80089
:10394200A337A20CA10CA00CA80BA12C0130A8003B
:103952002808B207382D2308803AA8002708803AA1
:103962002802031DBE2C26082202031DBE2C250898
:103972002102031DBE2C240820020318C12CC22CD4
:10398200FA2CFF30A800FF30A900FF30AA00FF3058
:10399200AB0020082402AC002108253BAD00220820
:1039A200263BAE002308273BAF002C08A8072D08B2
:1039B200A93D2E08AA3D2F08AB3D2B08A3002A08DB
:1039C200A2002908A1002808A0008030A800280829
:1039D200B006B309B30A3308031DF02CF12C022DF3
:1039E2000130A0070030A13D0030A23D0030A33DD0
:1039F200022D2408A0022508A13B2608A23B270885
:103A0200A33B2308220421042004031D092D0A2DAF
:103A1200342D3308031D0E2D0F2D342D0030A3003D
:103A22000030A2000030A1000030A000A82D01301B
:103A3200A035A10DA20DA30D890B192DB31F222DA7
:103A4200232D242D2014331C272D282D2B2D031438
:103A5200B30D2D2D0310B30D32080319312D322D64
:103A6200342D0130B202A21F372D382D182DB1018D
:103A7200B31F3C2D3D2D4B2D33087F390319422DA9
:103A8200432D462DB101B10A4B2D201C492D4A2D43
:103A92004B2D432D310803194F2D502D7D2D013013
:103AA200A0070030A13D0030A23D0030A33D231C01
:103AB2005B2D5C2D7D2D2008A8002108A90022087D
:103AC200AA002308AB000130AC00AB37AA0CA90C4A
:103AD200A80CAC0B662D2B08A3002A08A20029080B
:103AE200A1002808A000320A0319782D792D7D2D16
:103AF2000130A8002808B207320A0319812D822D4D
:103B0200872D3208031D862D872D952D0030A300A9
:103B12000030A2000030A1000030A0003208031DD6
:103B2200932D942D952DB001321C982D992D9B2DFE
:103B3200A2179F2D7F30A8002808A2053236A800C0
:103B42002808A300B01FA62DA72DA82DA317080093
:103B52002D003A088039BF003F08C4003A35BF0043
:103B62003F08CA00B91FB62DB72DB82D4A144A080E
:103B72000319BC2DBD2DCC2D4A0A031DC12DC22D0A
:103B8200CA2D0030BA000030B9000030B800003051
:103B9200B700B917D42D0030BA000030B900003098
:103BA200B8000030B7003E088039BF003F08C406A5
:103BB2003E35BF003F08C500BD1FE02DE12DE22DBF
:103BC200451445080319E62DE72DF62D450A031D78
:103BD200EB2DEC2DF42D0030BE000030BD00003086
:103BE200BC000030BB00BD17FE2D0030BE0000300F
:103BF200BD000030BC000030BB0045080319022E96
:103C0200032E082E4A08031D072E082E112E0030FF
:103C1200BA000030B9000030B8000030B700FF2F02
:103C22003708BF003F08A0003D08A83187209D311A
:103C32002D002108D0002008CF004F08BF00C0018E
:103C4200C101C2014208C9004108C8004008C700BA
:103C52003F08C6005008BF00C001C101C2014208AE
:103C6200CE004108CD004008CC003F08CB00380808
:103C7200BF003F08A0003C08A83187209D312D00DD
:103C82002108D0002008CF004F08BF00C001C101A9
:103C9200C2013F08C6074008C73D4108C83D420867
:103CA200C93D5008BF00C001C101C2013F08CB0796
:103CB2004008CC3D4108CD3D4208CE3D3908BF0009
:103CC2003F08A0003B08A83187209D312D00210824
:103CD200D0002008CF004F08BF00C001C101C201BF
:103CE2003F08C6074008C73D4108C83D4208C93DD4
:103CF2005008BF00C001C101C2013F08CB07400804
:103D0200CC3D4108CD3D4208CE3D0830C635C70DF9
:103D1200C80DC90D890B872E3808BF003F08A000C7
:103D22003B08A83187209D312D002108D0002008B2
:103D3200CF004F08C6075008C73D0030C83DC93DF7
:103D42003708BF003F08A0003C08A83187209D31FA
:103D52002D002108D0002008CF004F08C6075008C8
:103D6200C73D0030C83DC93D0830C635C70DC80D36
:103D7200C90D890BB62E3708BF003F08A0003B08CB
:103D8200A83187209D312D002108D0002008CF00C6
:103D92004F08C6075008C73D0030C83DC93D380826
:103DA200BF003F08A0003D08A83187209D312D00AB
:103DB2002108D0002008CF004F08CB075008CC3D87
:103DC2000030CD3DCE3D3908BF003F08A0003C0881
:103DD200A83187209D312D002108D0002008CF0076
:103DE2004F08CB075008CC3D0030CD3DCE3D3908C1
:103DF200BF003F08A0003D08A83187209D312D005B
:103E02002108D0002008CF004F08BF005008C00092
:103E1200C101C2010830BF35C00DC10DC20D890BF1
:103E22000C2F3F08CB074008CC3D4108CD3D42084E
:103E3200CE3D4608BF004708C0004808C1004908F7
:103E4200C2001830C236C10CC00CBF0C890B232F24
:103E52003F08CB074008CC3D4108CD3D4208CE3D4E
:103E62000830C635C70DC80DC90D890B322F4A0857
:103E72004507BF00C001C00D3F08823ECF00FF30A2
:103E8200403DD0005B2F0130CB35CC0DCD0DCE0D9A
:103E9200890B452FC91F4E2F4F2F502F4B14013026
:103EA200C635C70DC80DC90D890B512FFF30CF077D
:103EB200FF30D03DCD1F5E2F5F2F442FC501C91F9C
:103EC200632F642F802FFF304605BF00FF30470568
:103ED200C000FF304805C1007F304905C2004208DA
:103EE200410440043F040319772F782F7B2FC5012B
:103EF200C50A802F4B1C7E2F7F2F802F782F4508DD
:103F02000319842F852FAD2F0130CB070030CC3D14
:103F12000030CD3D0030CE3D4E1C902F912FAD2F65
:103F22004B08BF004C08C0004D08C1004E08C2003B
:103F32000130C300C237C10CC00CBF0CC30B9B2F96
:103F42004208CE004108CD004008CC003F08CB001B
:103F52000130CF070030D03D5008803ABF0080309A
:103F62003F02031DB62FFF304F02031CB92FBA2F99
:103F7200C42F7F302D00CE008030CD000030CC0029
:103F82000030CB00F32F2D005008803ABF00803064
:103F92003F02031DCE2F01304F020318D12FD22F23
:103FA200DD2F00302D00CE000030CD000030CC00DF
:103FB2000030CB00C401F32F2D004F08BF003F0893
:103FC200CA00FF30CB05FF30CC057F30CD05003075
:103FD200CE054A1CED2FEE2FEF2FCD174A36BF002C
:103FE2003F08CE004408BF003F08CE044E08BA0086
:103FF2004D08B9004C08B8004B08B7000800403023
:1040020008002D00AA1B06280728DF28803102207D
:10401200A0312D00AE002A08803AAF0080302F0276
:10402200031D15282E082902031818281928DF282D
:104032002D00AC1B1D281E28DF28A0310020A03136
:104042002D00AE002C08803AAF0080302F02031DF5
:104052002C282E082B02031C2F283028CB28DF28DF
:104062000130AE002B080739890A3828AE35890B92
:1040720037282E08AF000830A0000030A1002C081D
:10408200A3002B08A200AC311D24A0312D00200872
:10409200B0002108B1000730B035B10D890B4D28B1
:1040A2000030B2002030B30030083207B4003108CB
:1040B200333DB5002908340786002A08353D8700BC
:1040C2002F088104DF280130AE002B080739890A46
:1040D2006B28AE35890B6A282E08FF3AAF000830EC
:1040E200A0000030A1002C08A3002B08A200AC31D4
:1040F2001D24A0312D002008B0002108B100073096
:10410200B035B10D890B81280030B2002030B300E8
:1041120030083207B4003108333DB50029083407AE
:1041220086002A08353D87002F088105DF280130E7
:10413200AE002B080739890A9F28AE35890B9E28C5
:104142002E08AF000830A0000030A1002C08A30008
:104152002B08A200AC311D24A0312D002008B00094
:104162002108B1000730B035B10D890BB4280030F9
:10417200B2002030B30030083207B4003108333DBA
:10418200B5002908340786002A08353D87002F0824
:104192008106DF282D002D08AE00AF012F08003A5E
:1041A2000319D428DF282E08003A03196428013A9B
:1041B20003193128033A03199828DF2808002D0033
:1041C200E8005908860007308700403FDB00413F86
:1041D200DC005B0884005C0885001200253A031DA0
:1041E200F328F428A22959088600073087000130F5
:1041F200810741310318810A2F00C301C4012E0037
:10420200A901AA01FF30A700FF30A8002D0059081C
:10421200860007308700403FDB00413FDC005B083F
:1042220084005C0885001200643A031919291A29CE
:104232002C295908860007308700403FDB00413FA8
:10424200DC005B0884005C0885001200693A031DEB
:104252002B292C296A29590886000730870001304A
:10426200810741310318810A5A0886000730870006
:10427200010884000730850002308107003FDB001F
:10428200013FDC005B08E0005C08E100890D893B2E
:104292008909E200E300E400E500E600E7006008C7
:1042A200BB006108BC006208BD006308BE00640870
:1042B200BF006508C0006608C1006708C200680840
:1042C20090311420A0312D003C08DA003B08D900BF
:1042D200C7295908860007308700403FDB00413F6D
:1042E200DC005B0884005C0885001200253A031D8F
:1042F2007B297C29962959088600073087000130DE
:10430200810741310318810A2530A0000030A10045
:104312006808DB005B08A200AB316223A0310130E8
:104322002D00D9000030DA00C7295908860007306D
:1043320087000130810741310318810AD901DA016E
:10434200C7295908860007308700403FDB00413FFC
:10435200DC005B0884005C0885000008DD00DE01EB
:104362005D08A0005E08A1006808DF005F08A200E7
:10437200AB316223A0312D00590886000730870037
:104382000130810741310318810A902908002D006C
:10439200B201A830860006308700473FB000B01F48
:1043A200D329D429F6292D00A809A909AA09AB09FC
:1043B200AC09AD09AE09AF09A80A031DF329A90A80
:1043C200031DF329AA0A031DF329AB0A031DF329CE
:1043D200AC0A031DF329AD0A031DF329AE0A031D1E
:1043E200F329AF0A2D00B201B20AA03086000630CE
:1043F2008700473F2D00B000B01F002A012A202A63
:104402002D00A009A109A209A309A409A509A609C9
:10441200A709A00A031D202AA10A031D202AA20A15
:10442200031D202AA30A031D202AA40A031D202AF1
:10443200A50A031D202AA60A031D202AA70A2D0069
:10444200200821042204230424042504260427042A
:1044520003192C2A2D2A802AB101B10A3C2AA0353F
:10446200A10DA20DA30DA40DA50DA60DA70D013042
:10447200B0003008B107A71F3F2A402A302A270878
:104482002F02031D5E2A26082E02031D5E2A25081E
:104492002D02031D5E2A24082C02031D5E2A230816
:1044A2002B02031D5E2A22082A02031D5E2A21080E
:1044B2002902031D5E2A20082802031C612A622A9F
:1044C200722A2008A8022108A93B2208AA3B230835
:1044D200AB3B2408AC3B2508AD3B2608AE3B270886
:1044E200AF3BA736A60CA50CA40CA30CA20CA10CE6
:1044F200A00C0130B102031D7F2A802A402A320813
:104502000319842A852AA32AA809A909AA09AB0999
:10451200AC09AD09AE09AF09A80A031DA32AA90A6D
:10452200031DA32AAA0A031DA32AAB0A031DA32A59
:10453200AC0A031DA32AAD0A031DA32AAE0A031D5A
:10454200A32AAF0A2D002808A0002908A1002A08E2
:10455200A2002B08A3002C08A4002D08A5002E08F9
:10456200A6002F08A70008002D003E088039BF00D2
:104572003F08C8003E35BF003F08CF00BD1FC22A1A
:10458200C32AC42A4F144F080319C82AC92AD92A90
:104592004F0A031DCD2ACE2AD62A0030BE00003093
:1045A200BD000030BC000030BB00BD17BE01E12AD7
:1045B2000030BE000030BD000030BC000030BB0047
:1045C2003A088039BF003F08C8063A35BF003F08A5
:1045D200D000B91FED2AEE2AEF2A50145008031911
:1045E200F32AF42A042B500A031DF82AF92A012B74
:1045F2000030BA000030B9000030B8000030B70017
:10460200B917BA010C2B0030BA000030B9000030E3
:10461200B8000030B7003A08390438043704031DE3
:10462200132B142B2D2B0030BE000030BD000030A8
:10463200BC000030BB008030BD047F30BE0448089F
:10464200BF003F08BE043E08BA003D08B9003C085E
:10465200B8003B08B700682C4F08031D312B322BE2
:104662003B2B0030BA000030B9000030B8000030F7
:10467200B700682C4F08BF00C0014008C2005008B4
:104682003F02C100031CC20341087F3EC900003043
:10469200423DCA003E08C7003D08C6003C08C500AE
:1046A2003B08C4000030BE000030BD000030BC003A
:1046B2000030BB000030CE000030CD000030CC0016
:1046C2000030CB00D001A32B50080319692B6A2BB1
:1046D200842B0130C435C50DC60DC70D890B6B2B5C
:1046E2000130BB35BC0DBD0DBE0D890B722BCE1F2B
:1046F2007B2B7C2B7D2B3B140130CB35CC0DCD0D90
:10470200CE0D890B7E2B3A084702031D922B3908E6
:104712004602031D922B38084502031D922B3708CF
:104722004402031C952B962B9F2B4E173708C4026D
:104732003808C53B3908C63B3A08C73B0130BF00C1
:104742003F08D0071A305002031CA82BA92B652B57
:1047520047084604450444040319B02BB12BCA2B65
:104762004B14CA2B0130BB35BC0DBD0DBE0D890BE0
:10477200B42BCE1FBD2BBE2BBF2B3B140130CB3530
:10478200CC0DCD0DCE0D890BC02BFF30C907FF30EC
:10479200CA3DBD1FCD2BCE2BB32BD001CE1FD22BAA
:1047A200D32BEF2BFF304B05BF00FF304C05C00071
:1047B200FF304D05C1007F304E05C2004208410462
:1047C20040043F040319E62BE72BEA2BD001D00A61
:1047D200EF2B3B1CED2BEE2BEF2BE72B5008031995
:1047E200F32BF42B1C2C0130BB070030BC3D0030F6
:1047F200BD3D0030BE3D3E1CFF2B002C1C2C3B0857
:10480200BF003C08C0003D08C1003E08C2000130A4
:10481200C300C237C10CC00CBF0CC30B0A2C420828
:10482200BE004108BD004008BC003F08BB0001308B
:10483200C9070030CA3D4A08803ABF0080303F02B3
:10484200031D252CFF304902031C282C292C362C51
:10485200FF302D00C9000030CA000030BE00003019
:10486200BD000030BC000030BB002D004A08803A79
:10487200BF0080303F02031D402C01304902031863
:10488200432C442C502C2D00C901CA010030BE001B
:104892000030BD000030BC000030BB00C8012D005C
:1048A2004908BF003F08CF004F1C582C592C5B2CE5
:1048B200BD175F2C7F30BF003F08BD054F36BF00DC
:1048C2003F08BE004808BF003F08BE04242B080072
:1048D200B7316927A4318B170B1705302E00CE0094
:1048E2000F30CD00F130890B742CCD0B742CCE0B14
:1048F200742C2D00A201A301A30A3A30983107209B
:10490200A4312D00A201A20AA301A30A5F309831AB
:104912000720A43102302E00CD004D082D00A20048
:10492200A301A30A5E3098310720A43165302E001E
:104932005F02031C9D2C9E2CB92C3230CD004D08F9
:10494200DF005F30CD004D082D00A600A701A70AA9
:104952000130AC317D24A4315F302E00CD004D08F2
:104962002D00A600A701A70A0330AC317D24A43193
:1049720065302E005E02031CBF2CC02CCF2C64308D
:10498200CD004D08DE005E30CD004D082D00A600A2
:10499200A701A70A0230AC317D24A431AE31C02672
:1049A200A43105302E00CE000F30CD00F130890B3E
:1049B200D82CCD0BD82CCE0BD82C90310120A43181
:1049C20020008D1AE52CE72C8D31662D02302E0049
:1049D200CD004D082D00A200A301A30A5E3098313C
:1049E2000720A431D1302D00A0000730A100A8314A
:1049F2006520A431D1302E00BE000730BF004D30FB
:104A0200C000B830C100A831FE20A43140302D00D2
:104A1200A0000830A100A8316520A43130302D005B
:104A2200A0000830A100A8316520A43120302D005B
:104A3200A0000830A100A8316520A43120302E004A
:104A4200BE000830BF002E30C000B830C1000A30AE
:104A52002D00A0000030A1002E005E08CD00CE0186
:104A62004D082D00A2002E004E082D00A300AC31EF
:104A72001D24A4312D0021082E00C3002D00200882
:104A82002E00C2000A302D00A0000030A1002E002E
:104A92005E08CF00D0014F082D00A2002E00500862
:104AA2002D00A300AA315A22A4312D0021082E0084
:104AB200C5002D0020082E00C400A831FE20A4311C
:104AC2002E005E08CD00CE01CF01D00150082D008E
:104AD200AC002E004F082D00AB002E004E082D001A
:104AE200AA002E004D082D00A9000130AF31532736
:104AF200A4312D002C08BE002B08BD002A08BC00E2
:104B02002908BB004130BA000230B900F130B800C8
:104B1200AA30B7009D31A925A4312D003A08D4004E
:104B22003908D3003808D2003708D100AD31C0258A
:104B3200A4312D005208DD005108DC00B631E72611
:104B4200A4313F302D00D400EC30D300CC30D20061
:104B5200CD30D1004130BA002030B9000030B80069
:104B62000030B7002E005E08CD00CE01CF01D0018B
:104B720050082D00AC002E004F082D00AB002E0077
:104B82004E082D00AA002E004D082D00A90000306D
:104B9200AF315327A4312D002C08BE002B08BD00D5
:104BA2002A08BC002908BB00A231B522A4312D007D
:104BB2003A08D8003908D7003808D6003708D50097
:104BC200AE313526A4310318E72DE82DEB2D220056
:104BD2000C14ED2D22000C102E005E08CD00CE012B
:104BE2004D082D00A2002E004E082D00A3000A3011
:104BF200A0000030A100AC311D24A4312D002008FA
:104C0200A9002108AA00890D893B8909AB00AC00E3
:104C12000130AF315327A4312D002C08D4002B08CA
:104C2200D3002A08D2002908D1004030D800003031
:104C3200D7000030D6000030D500AE313526A43181
:104C4200031C242E252E282E22008C142A2E22000C
:104C52008C10A6313226A4313200A801A9018D316F
:104C6200612D2D00D801E101E2012D006108D13E44
:104C72008600073087006108603E840008308500A6
:104C820000080106031D462E472E4C2E6F080319FD
:104C92004B2E4C2E8E2E5808D600D701D635D70D66
:104CA200D635D70D2E002208FC3E2D00A900FF307C
:104CB20003180030AA006208AC006108AB00A831FA
:104CC2004520A6312D0056082902D90057082A3B53
:104CD200DA005A08B7005908B6000030B800B90027
:104CE2006108D13E8600073087000108D6005608C9
:104CF200BA0099314921A6312D006108D13E8600C2
:104D0200073087000108D6006108603E860008303F
:104D1200870056088100EF01EF0A6108D13E860044
:104D22000730870020300106031D982E992E9D2EF4
:104D32000130D6005608D8070130E1070030E23DC5
:104D42006208803AD60080305602031DAA2E103027
:104D52006102031CAD2EAE2E362E2D00DB01DC01CE
:104D62002D005B08403E8600083087005B08B03E9D
:104D7200840008308500000801060319C12EC22EE6
:104D8200FD2E2E002208FC3E2D00A900FF30031844
:104D92000030AA005C08AC005B08AB00A8314520DB
:104DA200A6312D002A08DA002908D9005A08B700CE
:104DB2005908B6001030B8000030B9005B08403E18
:104DC2008600083087000108D6005608BA009931DB
:104DD2004921A6312D005B08403E8600083087003D
:104DE2000108D6005B08B03E8600083087005608EE
:104DF20081002E00B901B90A01302D00DB07003015
:104E0200DC3D5C08803AD60080305602031D0B2F31
:104E120010305B02031C0E2F0F2FB12E2D00DD016F
:104E2200DE012D005D08303E8600083087005D08F7
:104E3200A03E840008308500000801060319222FD5
:104E4200232F5E2F2E002208FC3E2D00A900FF30EA
:104E520003180030AA005E08AC005D08AB00A83160
:104E62004520A6312D002A08DA002908D9005A085F
:104E7200B7005908B6002030B8000030B9005D080C
:104E8200303E8600083087000108D6005608BA0076
:104E920099314921A6312D005D08303E8600083047
:104EA20087000108D6005D08A03E86000830870012
:104EB200560881002E00B801B80A01302D00DD0726
:104EC2000030DE3D5E08803AD60080305602031D77
:104ED2006C2F10305D02031C6F2F702F122F2D00CC
:104EE200DF01E0012D005F08203E860008308700C8
:104EF2005F08503E8400083085000008010603194F
:104F0200832F842FBF2F2E002208FC3E2D00A900E4
:104F1200FF3003180030AA006008AC005F08AB0045
:104F2200A8314520A6312D002A08DA002908D90027
:104F32005A08B7005908B6003030B8000030B9003E
:104F42005F08203E8600083087000108D600560818
:104F5200BA0099314921A6312D005F08203E860012
:104F6200083087000108D6005F08503E86000830EE
:104F72008700560881002E00B701B70A01302D00C4
:104F8200DF070030E03D6008803AD60080305602EC
:104F9200031DCD2F10305F02031CD02FD12F732F92
:104FA2002D006F080319D62FD72FDD2F0030AD311A
:104FB2004F25A6312D00EF012E0039080319E22FEB
:104FC200E32FE92F0230AD314F25A6312E00B90172
:104FD20038080319ED2FEE2FF42F0430AD314F2591
:104FE200A6312E00B80137080319F82FF92FFF2F29
:0E4FF2000630AD314F25A6312E00B701080064
:10500200253021009900080000308B1B0130F5008B
:105012008B137108230092007008910073089400AA
:1050220072089300740C031C95120318951615133D
:1050320015121515B631BA26A8317508031922289A
:10504200232824288B1708002D00A1001830A00067
:10505200200821008E042D002103031D312832284F
:105062003528240094173A287F30A0002008240015
:1050720094052830950007309200F7302D00A000EB
:1050820020082400970508002D00AD01AE01291C5F
:105092004B284C2850282B08AD072C08AE3D013078
:1050A200AB35AC0D890B51280130AA36A90C890BFE
:1050B200562829082A04031D5F28602848282E083C
:1050C200AA002D08A90008002D00A401A5012D00A9
:1050D20024082007A2002508213DA30022088600FB
:1050E20023088700203081000130A4070030A53D4D
:1050F2002508803AA20080302202031D8228103047
:105102002402031C85288628682808002D00A80090
:10511200A401A5012008A200A3012208A6002308D9
:10512200A700281C952896289A282608A40727084D
:10513200A53D0130A635A70D890B9B280310A80CAD
:105142002808031DA528A62892282508A1002408BE
:10515200A00008002D00AF00AD01AE01C3282C084D
:10516200A900AA012908A0002A08A1002808AB006A
:105172002B08A200AB316223A83101302D00AD070C
:105182000030AE3D2D082F07A900290886000830FF
:1051920087000108AA002A08AC002C08031DD228A7
:1051A200D328B028080000308B1B01302D00A50049
:1051B2008B132108230092002D0020082300910068
:1051C2002D002308230094002D00220823009300C1
:1051D2002D00240C2300031C951203189516151399
:1051E20015121515B631C326A8312D00250803194D
:1051F200FB28FC28FD288B17080042302D00EE000A
:105202006E082E00C6003F08C8003E08C700C9014C
:10521200CA01CB01CC0141082D00EA002E00400852
:105222002D00E9004630EE006E08EB004730A93150
:105232005921A8310230473E860007308700403F9F
:105242002E003E078400413F3F3D8500800108005B
:105252002E3400340034003400340034003400347E
:10526200003400340034003400340034003400349C
:105272002E3400340034003400340034003400345E
:10528200003400340034003400340034003400347C
:105292002E3400340034003400340034003400343E
:1052A200003400340034003400340034003400345C
:1052B2002E00BB002D006A082E00BD002D006908DB
:1052C2002E00BC002F00C101C2017D293C302D00FF
:1052D200EC006C08D9006B08ED006D08DA002E00B6
:1052E2003B08A031E020A9312D0059082F00C10749
:1052F2002D005A082F00C23D2E003C0884003D08B4
:1053020085001200031D8629872967292F0042087C
:105312002D00EA002F0041082D00E90008002200BC
:105322008C018D018E01083021009000B8308C0074
:10533200FF308D00FF308E0023008E0108308D007B
:1053420004308C00240090018D018C018E0121001B
:10535200971725008C018D018E01FF3026008C00ED
:10536200FF308D00E7308E003F3027008C00F03098
:105372008D00FF308E0014303C00BB0021303D0018
:10538200A3002230A40013303C00BA0008002D0014
:1053920021082E00A1002D0020082E00A0002D00C3
:1053A20020088400210885000008A20022082E009F
:1053B200A2002D002108A3002008A200013022072C
:1053C200840023080318230A85000008A400240887
:1053D2002E00A3002D002108A3002008A200023005
:1053E2002207840023080318230A85000008A4006A
:1053F20024082E00A4002D002108A3002008A200EA
:1054020003302207840023080318230A85000008BA
:10541200A40024082E00A500A60108002D005F08A4
:105422005E045D045C040319172A182A512AE50157
:10543200E50A262A0130DC35DD0DDE0DDF0D890B94
:105442001C2A0130E4006408E507DF1F292A2A2A02
:105452001B2A5F086302031D382A5E086202031DCD
:10546200382A5D086102031D382A5C086002031CA9
:105472003B2A3C2A442A5C08E0025D08E13B5E08C4
:10548200E23B5F08E33B0130DF36DE0CDD0CDC0C77
:10549200890B452A0130E502031D502A512A2A2A86
:1054A2006308DF006208DE006108DD006008DC00DE
:1054B20008002D00A601A31F5F2A602A672AA209FD
:1054C200A309A20A0319A30AA601A60AA11F6A2A0E
:1054D2006B2A702AA009A109A00A0319A10A2008AF
:1054E20021040319752A762A9F2AA501A50A822A70
:1054F2000130A035A10D890B7A2A0130A4002408BD
:10550200A507A11F852A862A792A21082302031DBD
:105512008C2A20082202031C8F2A902A942A20080F
:10552200A2022108A33B0130A136A00C890B952AC7
:105532000130A502031D9E2A9F2A862A26080319E6
:10554200A32AA42AA92AA209A309A20A0319A30A1F
:105552002308A1002208A00008002D00B8002E0098
:10556200291CB42AB52ABE2A2D003808B3003308F4
:10557200A8003008A831AB20AA312D00B21BC22AE4
:10558200C32AC82A3208B7003108B600CA2AB601AF
:10559200B701B401B501DE2A20302D00A000003091
:1055A200A1003808B3003308A200AB316223AA314C
:1055B20001302D00B4070030B53D3508803AB30004
:1055C2003708803A3302031DE82A36083402031CE6
:1055D200EB2AEC2ACD2A2E002918F02AF12AFA2ADF
:1055E2002D003808B3003308A8003008A831AB20DA
:1055F200AA312D003008B731C927AA312D0036084B
:105602002007B0003708213DB10008002D00A40199
:105612002130B7315327AB310030B7315327AB318B
:105622007F30B7315327AB312230B7315327AB31FB
:105632000030B7315327AB310730B7315327AB3185
:1056420098310020AB317830B7312427AB3140306C
:10565200B7312427AB312D00A501A601A4010030EA
:10566200A2002030A3002508220786002608233D39
:1056720087000108B7312427AB3101302D00A5077F
:105682000030A63D0130A2002208A40710302402F7
:10569200031C4C2B4D2B302B0130A5020030A63BB6
:1056A2000130A5070030A63D043026020030031960
:1056B2002502031C5D2B5E2B2F2BB631AB26AB31A3
:1056C20008002D0022080319672B682B6D2B220876
:1056D200031D6C2B6D2B722B20088D311925AB31DC
:1056E200BE2B2208043E8600073087001600010404
:1056F20003197C2B7D2B9D2B2208043E860007304C
:105702008700403FA300413FA4002208023E8600DA
:1057120007308700403FA500413FA6002608803A97
:10572200A7002408803A2702031D992B230825028B
:1057320003189C2B9D2BBE2B2D002208023E8600B7
:10574200073087002208840007308500403F0007A9
:10575200A3000131413F003DA40023088600240834
:105762008700200881002208023E86000730870059
:105772000130810741310318810A0800FA007A08D2
:10578200F800F9010530F835F90D890BC42B7808BA
:10579200803EFB003F30793DFC0021307702031848
:1057A200D32BD42B1C2C04307A02031CD92BDA2BDA
:1057B200DB2B1C2C7C08F1007B08F000B73197270B
:1057C200AB31012C7C08F1007B08F00076088600E2
:1057D200073087000108F800F9017808F20079081B
:1057E200F300F401F40AA8310520AB310130F800CE
:1057F2007808F6070130FB070030FC3D0130F70264
:10580200023077020318062C072CE32B7C08F100E8
:105812007B08F00076088600073087000108F80050
:10582200F9017808F2007908F300F401A8310520A3
:10583200AB312300150808002D00A601A11F222C60
:10584200232C2A2CA009A109A00A0319A10AA60146
:10585200A60AA31F2D2C2E2C372CA209A309A20ABB
:105862000319A30A0130A4002408A606A701A8016F
:105872002008210403193E2C3F2C6E2CA501A50AF9
:105882004B2C0130A035A10D890B432C0130A40013
:105892002408A507A11F4E2C4F2C422C0130A735FE
:1058A200A80D890B502C21082302031D5A2C200815
:1058B2002202031C5D2C5E2C632C2008A20221080C
:1058C200A33B27140130A136A00C890B642C0130B4
:1058D200A502031D6D2C6E2C4F2C26080319722C69
:1058E200732C782CA709A809A70A0319A80A280863
:1058F200A1002708A00008002D00AA002A08A8007D
:10590200A9010530A835A90D890B832C2808803EF2
:10591200AB003F30293DAC00213027020318922C06
:10592200932CDD2C04302A02031C982C992C9A2CDF
:10593200DD2C2C08A1002B08A0008D311A25AC31DA
:10594200C12C2C08A1002B08A000260886000730D5
:1059520087000108A800A9012808A2002908A300BD
:10596200A401A40AA831D420AC3101302D00A80032
:105972002808A6070130AB070030AC3D0130A70272
:1059820002302D0027020318C72CC82CA22C2C0889
:10599200A1002B08A0002608860007308700010816
:1059A200A800A9012808A2002908A300A401A8317F
:1059B200D420AC31230015080800AE30B73153278C
:1059C200AC31D530B7315327AC31F030B731532732
:1059D200AC31A830B7315327AC313F30B731532700
:1059E200AC31D330B7315327AC310030B731532704
:1059F200AC314030B7315327AC318D30B7315327FA
:105A0200AC311430B7315327AC312030B731532782
:105A1200AC310030B7315327AC31A130B731532705
:105A2200AC31C830B7315327AC31DA30B7315327F4
:105A3200AC311230B7315327AC318130B7315327F3
:105A4200AC31FF30B7315327AC31D930B73153279E
:105A5200AC31F130B7315327AC31DB30B73153279A
:105A6200AC314030B7315327AC31A430B731532772
:105A7200AC31A630B7315327AC312E30B731532772
:105A8200AC31AF30B7315327AC3135302D00A000E7
:105A92008130A100A931C821AC3108002D00A90034
:105AA200A8012130B7315327AD310030B731532728
:105AB200AD317F30B7315327AD312230B731532763
:105AC200AD312D002908B7315327AD312D002908FA
:105AD200013EB7315327AD3198310020AD317830D6
