:020000040000FA
:100000008031C128803008007E1480318B1E092881
:100010000A28BF280B1D0D280E28BF280B11210010
:100020005B080319142815281F28640865040319A0
:100030001A281B281F28FF30E407FF30E53D680819
:10004000690403192428252859286C086D04031D08
:100050002A282B2859286A086B04031D30283128C8
:10006000592822004E084F040319372838285E28E3
:100070000130CE020030CF3B4E084F04031D412813
:1000800042285E2850302100E400C330E500DB0147
:10009000DB0AE130FD007D08F600F701F70A0030C9
:1000A000AB31802380310430FD007D082100E10068
:1000B0005E2810302200CE002730CF0021006C08CF
:1000C0006D040319642865287C286A086B04031DE5
:1000D0006A286B287C2868086904031D7028712829
:1000E0007C28660867040319762877288028FF3063
:1000F000E607FF30E73D8028A830E6006130E700E2
:100100006C086D0403198528862896286A086B04F4
:1001100003198B288C2896286808690403199128EC
:1001200092289628D501D601D701DC01550856043E
:1001300003199B289C28A0280130D5020030D63B0B
:10014000620863040319A528A628AA28FF30E2073D
:10015000FF30E33D22004D084C044B044A040319D0
:10016000B228B328BC28FF30CA07FF30CB3DFF3090
:10017000CC3DFF30CD3DBF282100DA01DA0A7E10E8
:1001800009008031C32800308400A0308500E230AF
:100190008600003087000030FF000E30A8310020BC
:1001A00080311B308400B73085004A308600013032
:1001B00087000030FF001830A831002080317B30EC
:1001C0008400A9308500A03086000130870000300F
:1001D000FF005030A831002080310C308400A8305E
:1001E000850040308600023087000030FF0020305C
:1001F000A831002080312830840026308500C830A6
:10020000FE000130FF00B6318F268031EF01C8308B
:100210008400003085001A30FE000030FF00B63147
:100220008F26803120308400013085002A30FE0086
:100230000030FF00B6318F2680312030840002303C
:1002400085002030FE000030FF00B6318F2680315F
:100250007E102000A431692C1034103420345F3417
:1002600000340034003400340034003400340034EE
:1002700000340034003400340034003400340034DE
:1002800000340034003400340034003400340034CE
:1002900000340034003400340034003400340034BE
:1002A0000034003400340034F834FC34FC34FC34C2
:1002B000F8340034003400340034003400340034A6
:1002C0000034003400340034003473347334733435
:1002D000003400340034003400340034003400347E
:1002E00000340034003400341E343E343E340034D4
:1002F000003400343E343E341E34003400340034C4
:10030000003400340034003400340034003400344D
:10031000003400340034003400340034003400343D
:100320000034303430343034FE34FE343034303441
:1003300030343034FE34FE34303430343034003431
:1003400000340C340C340C347F347F340C340C34D3
:100350000C340C347F347F340C340C340C340034C3
:10036000003400340034F034F8349834FE349834D7
:100370009834FE34983498341834003400340034FF
:100380000034003400341834193419347F341934EB
:1003900019347F3419341F340F34003400340034DE
:1003A0000034003400340034383438343834803485
:1003B000C034E03470343834003400340034003455
:1003C00000340034003400341C340E340734033459
:1003D00001341C341C341C34003400340034003428
:1003E0000034003400343834FC34C434C434FC34B5
:1003F00038340034003400348034003400340034A5
:100400000034003400341E343F342134213433347A
:100410003F341E341E343734233400340034003467
:10042000003400340034003420343C343C341C3478
:10043000003400340034003400340034003400341C
:10044000003400340034003400340034003400340C
:1004500000340034003400340034003400340034FC
:100460000034003400340034C034E034F034383424
:100470001C340C34043404340034003400340034AC
:100480000034003400340034033407340F341C3497
:100490003834303420342034003400340034003414
:1004A0000034003400340034043404340C341C347C
:1004B0003834F034E034C0340034003400340034D4
:1004C00000340034003400342034203430343834E4
:1004D0001C340F3407340334003400340034003447
:1004E00000340034803488349034E034E034FC3418
:1004F000FC34E034E0349034883480340034003408
:1005000000340034013411340934073407343F34E3
:100510003F340734073409341134013400340034D3
:100520000034003400340034803480348034F034BB
:10053000F0348034803480340034003400340034AB
:1005400000340034003400340134013401340F34F9
:100550000F340134013401340034003400340034E9
:1005600000340034003400340034003400340034EB
:1005700000340034003400340034003400340034DB
:100580000034003400340034403478347834383463
:1005900000340034003400340034003400340034BB
:1005A000003400340034803480348034803480342B
:1005B000803480348034803480340034003400341B
:1005C0000034003400340134013401340134013486
:1005D0000134013401340134013400340034003476
:1005E000003400340034003400340034003400346B
:1005F000003400340034003400340034003400345B
:1006000000340034003400340034383438343834A2
:10061000003400340034003400340034003400343A
:10062000003400340034003400340034003400342A
:1006300000348034C034E034703438341C34003436
:100640000034003400342034303438341C340E3458
:1006500007340334013400340034003400340034EF
:10066000003400340034F834FC34FC340434843472
:10067000E4347434FC34FC34F83400340034003492
:100680000034003400341F343F343F342E342734D8
:10069000213420343F343F341F34003400340034DC
:1006A000003400340034603460346034F034FC349E
:1006B000FC3400340034003400340034003400349E
:1006C0000034003400342034203420343F343F34AC
:1006D0003F342034203420340034003400340034DB
:1006E00000340034003418341C341C340434043412
:1006F0008434CC34FC347834303400340034003466
:10070000003400340034303438343C342E34273450
:10071000233421343834383438340034003400344D
:1007200000340034003418341C341C3484348434D1
:100730008434CC347C3478343034003400340034A5
:10074000003400340034183438343834213421343F
:10075000213433343E341E340C340034003400343D
:100760000034003400348034C03460343034183401
:10077000FC34FC34FC3400340034003400340034E5
:10078000003400340034033403340334233423347A
:100790003F343F343F3423342334003400340034B6
:1007A000003400340034FC34FC34FC3484348434AD
:1007B0008434843484340434043400340034003405
:1007C00000340034003419343934393421342134BC
:1007D000213433343F341F340E34003400340034B9
:1007E000003400340034E034F034F8349C348C3479
:1007F000843484348434803400340034003400344D
:100800000034003400341F343F343F342134213469
:10081000213421343F343F341F3400340034003459
:100820000034003400343C343C343C34043404346C
:10083000043404348434FC34FC347C340034003418
:1008400000340034003400340034003438343C3494
:100850003E340734033401340034003400340034AF
:1008600000340034003478347C34FC34C434C43470
:1008700084348434FC347C347834003400340034E0
:100880000034003400341E343E343F3421342134EB
:10089000233423343F343E341E34003400340034D7
:1008A000003400340034F834FC34FC3484348434B0
:1008B00084348434FC34FC34F834003400340034A0
:1008C0000034003400340034013421342134213424
:1008D000313439341F340F340734003400340034D9
:1008E0000034003400340034003400347034703488
:1008F00070340034003400340034003400340034E8
:100900000034003400340034003400340E340E342B
:100910000E34003400340034003400340034003429
:100920000034003400340034003400347034703447
:1009300070340034003400340034003400340034A7
:100940000034003400340034003410341E341E34BB
:100950000E340034003400340034003400340034E9
:100960000034003400348034C034E034703438341F
:100970001C340E34063402340034003400340034A5
:100980000034003400340134033407340E341C3492
:10099000383470346034403400340034003400346F
:1009A0000034003460346034603460346034603467
:1009B0006034603460346034603460340034003457
:1009C0000034003406340634063406340634063463
:1009D0000634063406340634063406340034003453
:1009E000003400340034023406340E341C343834FD
:1009F0007034E034C03480340034003400340034C7
:100A000000340034003440346034703438341C34E2
:100A10000E3407340334013400340034003400341D
:100A200000340034003418341C340C340E340634D2
:100A30008634CE34FC347C34383400340034003412
:100A40000034003400340034003400340034733493
:100A50007334733400340034003400340034003410
:100A6000003400340034FC34FE34FE3402340234EA
:100A7000C234C234C234FE34FE34FC340034003498
:100A80000034003400343F343F347F346034603409
:100A900063346334633463344334033400340034E4
:100AA000003400340034E034F034F8341C340C34B6
:100AB0000C341C34F834F034E034003400340034A6
:100AC0000034003400343F343F343F3402340234C5
:100AD000023402343F343F343F34003400340034B5
:100AE0000034003400340434FC34FC34FC348434EA
:100AF00084348434FC34FC347834003400340034DE
:100B000000340034003420343F343F343F34213447
:100B1000213421343F343F341E3400340034003457
:100B2000003400340034F034F834FC340C34043431
:100B3000043404341C341C341834003400340034BD
:100B40000034003400340F341F343F343034203448
:100B5000203420343834383418340034003400342D
:100B60000034003400340434FC34FC34FC340434E9
:100B700004340C34FC34F834F034003400340034E1
:100B800000340034003420343F343F343F342034C8
:100B9000203430343F341F340F34003400340034F8
:100BA0000034003400340434FC34FC34FC34843429
:100BB00084348434C434CC341C34003400340034E1
:100BC00000340034003420343F343F343F34213487
:100BD00021342134233433343834003400340034A5
:100BE0000034003400340434FC34FC34FC348434E9
:100BF00084348434C434CC341C34003400340034A1
:100C000000340034003420343F343F343F34213446
:100C1000013401340334033400340034003400342C
:100C2000003400340034F034F834FC340C34043430
:100C3000043404343C343C3438340034003400345C
:100C40000034003400340F341F343F343034203447
:100C5000223422343E343E343E34003400340034F6
:100C6000003400340034FC34FC34FC3480348034F0
:100C70008034FC34FC34FC34003400340034003460
:100C80000034003400343F343F343F340134013405
:100C900001343F343F343F340034003400340034F6
:100CA000003400340034003404340434FC34FC34A4
:100CB000FC34043404340034003400340034003490
:100CC0000034003400340034203420343F343F34C6
:100CD0003F342034203400340034003400340034F5
:100CE0000034003400340034003400340034043460
:100CF0000434FC34FC34FC34043404340034003454
:100D0000003400341E341E343E3420342034203469
:100D100020343F343F341F34003400340034003476
:100D20000034003400340434FC34FC34FC34C0346B
:100D3000E03470343C341C340C340034003400345F
:100D400000340034003420343F343F343F34033423
:100D500007340E343C34383430340034003400343A
:100D60000034003400340434FC34FC34FC340434E7
:100D700000340034003400340034003400340034D3
:100D800000340034003420343F343F343F342034C6
:100D900020342034303438343C34003400340034CF
:100DA000003400340034FC34FC34FC347834F03447
:100DB000E034F0347834FC34FC34FC340034003457
:100DC0000034003400343F343F343F3400340034C6
:100DD0000134003400343F343F343F3400340034B5
:100DE000003400340034FC34FC34FC347034E0341F
:100DF000C03480340034FC34FC34FC34003400341F
:100E00000034003400343F343F343F340034003485
:100E10000134033407343F343F343F34003400346A
:100E2000003400340034E034F034F8341C340C3432
:100E30000C340C341C34F834F034E0340034003416
:100E400000340034003407340F341F343834303465
:100E50003034303438341F340F3407340034003425
:100E60000034003400340434FC34FC34FC34843466
:100E700084348434FC34FC3478340034003400345A
:100E800000340034003420343F343F343F342134C4
:100E900001340134013401340034003400340034AE
:100EA000003400340034E034F834F8341C340C34AA
:100EB00004340C341C34F834F834E0340034003496
:100EC00000340034003407341F341F34183418340D
:100ED0005C345E347E347F347F34473400340034F5
:100EE0000034003400340434FC34FC34FC348434E6
:100EF00084348434FC34FC347834003400340034DA
:100F000000340034003420343F343F343F34013463
:100F1000013403343F343F343C3400340034003473
:100F20000034003400347834FC34FC3484348434A9
:100F300084348434BC343C343834003400340034D9
:100F40000034003400341C343C343D34213421342A
:100F5000213421343F343F341E3400340034003413
:100F60000034003400341C340C3404340434FC34B5
:100F7000FC34FC34043404340C341C3400340034A9
:100F800000340034003400340034203420343F3442
:100F90003F343F34203420340034003400340034F3
:100FA000003400340034FC34FC34FC3400340034AD
:100FB0000034FC34FC34FC3400340034003400349D
:100FC0000034003400341F343F343F3420342034A4
:100FD00020343F343F341F340034003400340034B4
:100FE000003400340034FC34FC34FC34003400346D
:100FF0000034FC34FC34FC3400340034003400345D
:1010000000340034003407340F341F3438343034A3
:1010100038341F340F3407340034003400340034C3
:10102000003400340034FC34FC34FC34003400342C
:10103000803400340034FC34FC34FC34003400349C
:1010400000340034003403340F343F343C343C3437
:101050000F343C343C343F340F3403340034003418
:101060000034003400341C343C347C34E034C0346C
:10107000E0347C343C341C3400340034003400341C
:1010800000340034003438343C343E340734033404
:1010900007343E343C3438340034003400340034F7
:1010A0000034003400347C34FC34FC3480340034AC
:1010B0008034FC34FC347C3400340034003400349C
:1010C0000034003400340034203421343F343F34C1
:1010D0003F342134203400340034003400340034F0
:1010E0000034003400343C341C340C340434843474
:1010F000C434E4347C343C341C34003400340034D4
:1011000000340034003438343C343E342734233443
:1011100021342034303438343C340034003400344A
:1011200000340034003400340034FC34FC34FC342B
:1011300004340434043404340034003400340034FF
:10114000003400340034003400343F343F343F3442
:10115000203420342034203400340034003400346F
:101160000034003400341C3438347034E034C0347B
:10117000803400340034003400340034003400344F
:1011800000340034003400340034003400340134BE
:10119000033407340E341C341834303420342034F3
:1011A0000034003400340034003404340434043493
:1011B0000434FC34FC34FC34003400340034003497
:1011C000003400340034003400342034203420341F
:1011D00020343F343F343F34003400340034003492
:1011E0000034003400342034303438341C340E34AD
:1011F0000E341C343834303420340034003400349D
:10120000003400340034003400340034003400343E
:10121000003400340034003400340034003400342E
:10122000003400340034003400340034003400341E
:10123000003400340034003400340034003400340E
:101240000034C034C034C034C034C034C034C034BE
:10125000C034C034C034C034C034C034C034C034EE
:101260000034003400340C340C343C34303430342A
:1012700000340034003400340034003400340034CE
:1012800000340034003400340034003400340034BE
:1012900000340034003400340034003400340034AE
:1012A000003400340034003440344034403440349E
:1012B0004034C034C034803400340034003400344E
:1012C0000034003400341C343E343E3422342234A2
:1012D00022343F341F343F3420340034003400348F
:1012E0000034003400340434FC34FC34FC34403426
:1012F00040344034C034C0348034003400340034CE
:1013000000340034003420343F341F343F34203460
:10131000203420343F343F341F3400340034003450
:101320000034003400348034C034C034403440349D
:101330004034C034C03480340034003400340034CD
:101340000034003400341F343F343F342034203420
:101350002034393439341934003400340034003442
:101360000034003400348034C034C034403440345D
:101370004434FC34FC34FC34043400340034003491
:101380000034003400341F343F343F3420342034E0
:1013900020343F341F343F342034003400340034D0
:1013A0000034003400348034C034C034403440341D
:1013B0004034C034C034803400340034003400344D
:1013C0000034003400341F343F343F34223422349C
:1013D00022343B343B341B340034003400340034BA
:1013E00000340034003480348034F834FC34FC346D
:1013F00084349C349C341834003400340034003479
:10140000003400340034213421343F343F343F343D
:1014100021342134013400340034003400340034E9
:101420000034003400348034C034C034403440349C
:101430004034C0348034C03440340034003400348C
:101440000034003400344734CF34DF3498349834D7
:101450009834FF34FF347F340034003400340034D7
:101460000034003400340434FC34FC34FC34803464
:1014700040344034C034C03480340034003400344C
:1014800000340034003420343F343F343F340134DE
:10149000003400343F343F343F34003400340034EF
:1014A0000034003400340034403440344034DC3400
:1014B000DC34DC34003400340034003400340034D4
:1014C00000340034003400342034203420343F34DD
:1014D0003F343F342034203420340034003400348E
:1014E00000340034003400340034003440344034DC
:1014F0004034DC34DC34DC34003400340034003478
:1015000000340034003420346034E03480348034DB
:10151000C034FF34FF347F340034003400340034EE
:101520000034003400340434FC34FC34FC34003423
:1015300000348034C034C0344034003400340034CB
:1015400000340034003420343F343F343F3402341C
:1015500007340F343D343834303400340034003430
:101560000034003400340034043404340434FC34D3
:10157000FC34FC34003400340034003400340034D3
:1015800000340034003400342034203420343F341C
:101590003F343F34203420342034003400340034CD
:1015A000003400340034C034C034C03440344034DB
:1015B000C03440344034C034C0348034003400344B
:1015C0000034003400343F343F343F3400340034BE
:1015D0003F34003400343F343F343F34003400346F
:1015E000003400340034C034C034C034403440349B
:1015F0004034C034C034803400340034003400340B
:101600000034003400343F343F343F34003400347D
:1016100000343F343F343F3400340034003400346D
:101620000034003400348034C034C034403440349A
:101630004034C034C03480340034003400340034CA
:101640000034003400341F343F343F34203420341D
:1016500020343F343F341F3400340034003400342D
:101660000034003400344034C0348034C03440345A
:1016700040344034C034C03480340034003400344A
:101680000034003400348034FF34FF34FF349034AD
:10169000103410341F341F340F340034003400343D
:1016A000003400348034C034C034403440344034DA
:1016B000C0348034C034403400340034003400344A
:1016C000003400340F341F341F341034103490347D
:1016D000FF34FF34FF3480340034003400340034ED
:1016E0000034003400344034C034C034C03480345A
:1016F000C034C034C034C0348034003400340034CA
:1017000000340034003420343F343F343F3421343B
:101710000034003401340134013400340034003426
:101720000034003400348034C034C0344034403499
:1017300040344034C0348034003400340034003449
:1017400000340034003419343B3423342634263436
:1017500026343C343D341934003400340034003431
:1017600000340034003440344034E034F034F83491
:1017700040344034403440340034003400340034C9
:10178000003400340034003400341F343F343F341C
:101790002034383438341834003400340034003401
:1017A000003400340034C034C034C0340034003459
:1017B0000034C034C034C034003400340034003449
:1017C0000034003400341F343F343F34203420349C
:1017D00020343F341F343F3420340034003400348C
:1017E000003400340034C034C034C0340034003419
:1017F0000034C034C034C034003400340034003409
:1018000000340034003407340F341F34383430349B
:1018100038341F340F3407340034003400340034BB
:10182000003400340034C034C034C03400340034D8
:10183000003400340034C034C034C03400340034C8
:1018400000340034003407340F343F343834383433
:101850000E34383438343F340F3407340034003415
:10186000003400340034C034C034C0340034003498
:10187000C034C034C0340034003400340034003488
:10188000003400340034303439343F340F340F34F2
:101890003F34393430340034003400340034003400
:1018A0000034003400340034C034C034C034003458
:1018B00000340034C034C034C03400340034003448
:1018C000003400340034803487348F349F34D8346B
:1018D000F83478343F340F340734003400340034A3
:1018E000003400340034C034C03440344034403418
:1018F000C034C034C0340034003400340034003408
:10190000003400340034313438343C342E3427343D
:10191000233431343834003400340034003400349B
:1019200000340034003480348034C03478347C3463
:101930003C340434043404340434003400340034BB
:101940000034003400340134013403341E343E3496
:101950003C3420342034203420340034003400342B
:101960000034003400340034003400340034FE34D9
:10197000FE34FE34003400340034003400340034CB
:1019800000340034003400340034003400347F3438
:101990007F347F34003400340034003400340034A9
:1019A00000340034003404340434043404343C344B
:1019B0007C347834C03480348034003400340034D3
:1019C00000340034003420342034203420343C34BB
:1019D0003E341E3403340134013400340034003406
:1019E0000034003438343C343C3404340C341C347B
:1019F0003834303420343C343C341C34003400342B
:101A00000034003400340034003400340034003436
:101A10000034003400340034003400340034003426
:101A20000800200065086404630462040319192D8A
:101A30001A2D532DEB01EB0A282D0130E235E30D71
:101A4000E40DE50D890B1E2D0130EA006A08EB0755
:101A5000E51F2B2D2C2D1D2D65086902031D3A2D28
:101A600064086802031D3A2D63086702031D3A2DBE
:101A700062086602031C3D2D3E2D462D6208E602DB
:101A80006308E73B6408E83B6508E93B0130E5365D
:101A9000E40CE30CE20C890B472D0130EB02031D33
:101AA000522D532D2C2D6908E5006808E4006708C5
:101AB000E3006608E200080021003E083F04031925
:101AC000622D632D682D0130BE020030BF3B6C2DAE
:101AD000E830BE000330BF0001303F02F53003198B
:101AE0003E02031C742D752D782D22000C137A2DC7
:101AF00022000C170B302100B1006230890B7E2DC3
:101B0000B10B7E2D0000903100208D3120008D1E04
:101B10008A2D8B2D5C2D22000C175230A8312C20E1
:101B20008D31E030A8312C208D31D030A8312C20DF
:101B30008D31C030A8312C208D319531BE2D6230D1
:101B4000A300B830A4005230903105208D31003010
:101B50002000E200E300B63177268D3122000C1020
:101B600022008C109531DA2D2000A201A20AA301D7
:101B7000A30AEF30983108208D315D302100A30099
:101B8000B830A4005230903105208D312E30210024
:101B9000A300B830A4000A302000A6000030A7003F
:101BA00021006F08B100B20131082000A800210017
:101BB00032082000A900AC313B248D3120002708D9
:101BC0002100A600200026082100A5000A302000E0
:101BD000A0000030A10021006F08B300B401330859
:101BE0002000A200210034082000A300AA311D22F9
:101BF0008D31200021082100A800200020082100AC
:101C0000A700C030903105208D3121006F08B10050
:101C1000B201B301B40134082000B200210033083E
:101C20002000B100210032082000B000210031085E
:101C30002000AF000130AE319F268D3120003208E8
:101C4000C4003108C3003008C2002F08C100413071
:101C5000C0000230BF00F130BE00AA30BD009D318F
:101C6000A9258D3120004008DA003F08D9003E0840
:101C7000D8003D08D700AD310C258D312000580823
:101C8000E3005708E200B63177268D313F3020005F
:101C9000DA00EC30D900CC30D800CD30D70041305C
:101CA000C0002030BF000030BE000030BD00210069
:101CB0006F08B100B201B301B40134082000B200D2
:101CC000210033082000B100210032082000B000BC
:101CD000210031082000AF000030AE319F268D3149
:101CE00020003208C4003108C3003008C2002F08A9
:101CF000C100A231B5228D3120004008DE003F082E
:101D0000DD003E08DC003D08DB00AD3181258D3172
:101D100003188B2E8C2E8F2E22000C14912E220055
:101D20000C1021006F08B100B20131082000A8009A
:101D3000210032082000A9000A30A6000030A700C8
:101D4000AC313B248D3120002608AF002708B000BD
:101D5000890D893B8909B100B2000130AE319F265F
:101D60008D3120003208DA003108D9003008D8005F
:101D70002F08D7004030DE000030DD000030DC00EE
:101D80000030DB00AD3181258D31031CC82EC92EFA
:101D9000B02D22008C14B22D0330B1003108200088
:101DA000A200A301A30AEF30983108208D3118302A
:101DB0002100A300B830A4005230903105208D31AD
:101DC0002E302100A300B830A4000A302000A60065
:101DD0000030A70021006F08B100B20131082000D7
:101DE000A800210032082000A900AC313B248D312D
:101DF000200027082100A600200026082100A500B9
:101E00000A302000A0000030A10021006F08B300BC
:101E1000B40133082000A200210034082000A300F0
:101E2000AA311D228D31200021082100A8002000A8
:101E300020082100A700C030903105208D312000FE
:101E40000D1E232F242F282F8C1D272F282FF62FF0
:101E500055302100A300B830A400E03090310520B7
:101E60008D3121006F08B100B201B301B401340813
:101E70002000B200210033082000B1002100320808
:101E80002000B000210031082000AF000130AE3149
:101E90009F268D3120003208C4003108C30030086D
:101EA000C2002F08C1004130C0000230BF00F13035
:101EB000BE00AA30BD009D31A9258D31200040080B
:101EC000DA003F08D9003E08D8003D08D700AD3100
:101ED0000C258D3120005808E3005708E200B63188
:101EE00077268D313F302000DA00EC30D900CC303D
:101EF000D800CD30D7004130C0002030BF000030C6
:101F0000BE000030BD0021006F08B100B201B30176
:101F1000B40134082000B200210033082000B100D1
:101F2000210032082000B000210031082000AF005D
:101F30000030AE319F268D3120003208C4003108B8
:101F4000C3003008C2002F08C100A231B5228D3174
:101F500020004008DE003F08DD003E08DC003D08B0
:101F6000DB00AD3181258D310318B72FB82FBB2F82
:101F700022000C14BD2F22000C1021006F08B100AC
:101F8000B20131082000A800210032082000A90079
:101F90000A30A6000030A700AC313B248D31200070
:101FA0002608AF002708B000890D893B8909B100D8
:101FB000B2000130AE319F268D3120003208DA00A8
:101FC0003108D9003008D8002F08D7004030DE0093
:101FD0000030DD000030DC000030DB00AD31812559
:101FE0008D31031CF42FF52FB02DC92E4430210064
:101FF000A300B830A400E030903105208D31A72D2A
:10200000640025302100990008002100AF00A530B0
:102010002000EE006E082100A9002F082000EE002D
:102020006E082100AA00AB01AC01AD01AE0124088D
:102030002000EA00210023082000E900A930EE007A
:102040006E08EB00AA30A831C520903121002B0882
:102050002F072000EE006E08860001308700810106
:1020600008002000C8003B08CF003C08D0003D0815
:10207000D1003E08D2003F08D3004008D4004108F8
:10208000D5004208D6004F30860000308700473F19
:10209000C300C31B4C284E2801304F2800302000BD
:1020A000C400C5014408CD004508CE004D084E04CB
:1020B00003195B285C287A28CF09D009D109D209F5
:1020C000D309D409D509D609CF0A031D7A28D00A25
:1020D000031D7A28D10A031D7A28D20A031D7A2803
:1020E000D30A031D7A28D40A031D7A28D50A031DB2
:1020F0007A28D60A2100D01B7E287F288328FD302D
:10210000D105FF30D2055008803A2000C30080304E
:102110004302031D8E28013021004F02031891282D
:102120009228982801302000C9000030CA00A02859
:10213000210050082000CA0021004F082000C900DB
:10214000220044082000CC00220043082000CB00DD
:102150004D084E04031DAD28AE28B3282100511DA3
:10216000B228B328B828FF302000CB07FF30CC3D81
:102170001F302000D7000030D8002400BF012929DB
:10218000FF302000D707FF30D83D0A30A000A10162
:10219000A201A301A401A501A601A7014F08A8005F
:1021A0005008A9005108AA005208AB005308AC001F
:1021B0005408AD005508AE005608AF00A131C82143
:1021C000903120002108B4002008B300B731672700
:1021D000903120003308303EC3005708203E86006F
:1021E0000230870043088100FF30C907FF30CA3D35
:1021F000FF30CB07FF30CC3D0A30A000A101A20187
:10220000A301A401A501A601A7014F08A800500839
:10221000A9005108AA005208AB005308AC005408AA
:10222000AD005508AE005608AF00983144209031FB
:1022300020002008CF002108D0002208D100230868
:10224000D2002408D3002508D4002608D50027088A
:10225000D60020005808803AC30080304302031D96
:10226000332901305702031C3629372964292000FD
:102270004F085004510452045304540455045604A6
:10228000031D43294429C0284A08803AC3008030EE
:102290004302031D4D2901304902031850295129D9
:1022A000C02820004C08803AC30080304302031D40
:1022B0005B2901304B02031C5E295F296429210040
:1022C000D11863296429C02820004D084E04031D3D
:1022D0006A296B2970292100511D6F2970298D29C8
:1022E000FF302000D707FF30D83D4D084E04031DB6
:1022F0007A297B2980292B30C6000030C700842929
:102300002D30C6000030C7004608C3005708203EE5
:102310008600023087004308810020005708203ED5
:10232000C3004308B0004C08B2004B08B100480895
:10233000AA317122903120003108BC003008BB0066
:10234000080029000E082100B100B20129000F0881
:102350002100B300B4013308B400B30131083307DE
:102360002000AF0021003208343D2000B000B10150
:10237000B2010030AE319F26913120003208220098
:10238000C000200031082200BF00200030082200D9
:10239000BE0020002F082200BD00003021005402A2
:1023A0003130031953020318D629D729F8295408C4
:1023B000B2005308B100B135B20DB135B20D2830BD
:1023C000B3002730B4003108330786003208343DAB
:1023D000870022003D08C03F3E08C13F3F08C23F82
:1023E0004008C33F01302100D3070030D43D162AF6
:1023F0005408B2005308B100B135B20DB135B20D79
:102400002830B3002730B400310833078600320883
:10241000343D870022003D08C03F3E08C13F3F08D1
:10242000C23F4008C33F2100D301D4010030C700A0
:102430000030C6000030C5000030C400C001C1013A
:1024400000304102323003194002031C282A292A95
:102450002A2AA02A4108B2004008B100B135B20DC5
:10246000B135B20D2830B3002730B400310833073E
:1024700086003208343D8700403F2000A000413FE5
:10248000A100423FA200433FA300210047082000D3
:10249000A700210046082000A600210045082000D2
:1024A000A500210044082000A4009B317123913134
:1024B000200023082100C700200022082100C600B8
:1024C000200021082100C500200020082100C400B0
:1024D000313040064104031D6E2A6F2A9B2A423088
:1024E0002000C0004830BF000030BE000030BD00FA
:1024F000210047082000C400210046082000C30036
:10250000210045082000C200210044082000C1002D
:10251000A231B5229131200040082100C7002000DF
:102520003F082100C60020003E082100C500200011
:102530003D082100C4000130C0070030C13D202A01
:1025400047082000C400210046082000C3002100E5
:1025500045082000C200210044082000C1003C3092
:10256000C0004830BF000030BE000030BD009D31CB
:10257000A925913120004008DA003F08D9003E0823
:10258000D8003D08D700AD310C2591312000580806
:102590002100BB00200057082100BA004708200096
:1025A000C400210046082000C30021004508200087
:1025B000C200210044082000C1003C30C000483067
:1025C000BF000030BE000030BD009D31A925913113
:1025D000200040082100B90020003F082100B80079
:1025E00020003E082100B70020003D082100B60071
:1025F00000302000E5000030E4000030E3000A3045
:10260000E200210039082000C40021003808200021
:10261000C300210037082000C20021003608200036
:10262000C1004130C0002030BF000030BE0000308B
:10263000BD009D31A925913120004008DA003F08F6
:10264000D9003E08D8003D08D700AD310C259131A6
:1026500020005A08E9005908E8005808E700570820
:10266000E6008D3111259131200063082100BD0065
:10267000200062082100BC000030A300B830A40094
:10268000523090310520913166302100A300B830DE
:10269000A400D03090310520913121005808031D4D
:1026A000522B532B682B1430B1003108D8000C305A
:1026B000A300B830A4003B08A6003A08A5003D08D6
:1026C000A8003C08A700C0309031052091318C2B28
:1026D000C201C3014308803AB10080303102031DBA
:1026E000732B10304202031C762B772B782B8C2B0C
:1026F00021004208A03E8600013087000108B10099
:102700004208C03E86000130870031088100013058
:10271000C2070030C33D6A2B20000D1E902B912B69
:10272000952B8C1D942B952B922C55302100A300BA
:10273000B830A400E03090310520913122004008EB
:102740002000DA0022003F082000D90022003E08C5
:102750002000D80022003D082000D700AD310C2514
:10276000913120005808E3005708E200B63177267F
:1027700091313F302000DA00F330D9003330D800F7
:102780003330D7003C30C0004830BF000030BE00BE
:102790000030BD00210047082000C4002100460889
:1027A0002000C300210045082000C2002100440889
:1027B0002000C1009D31A925913120004008DE0094
:1027C0003F08DD003E08DC003D08DB00AD3181251F
:1027D00091310318EC2BED2BF02B22000C14262C3E
:1027E0003C302000C0004830BF000030BE00003048
:1027F000BD00210047082000C40021004608200039
:10280000C300210045082000C20021004408200028
:10281000C1009D31A925913120004008DA003F0810
:10282000D9003E08D8003D08D7003F30DE00E63032
:10283000DD006630DC006630DB00AD318125913192
:102840000318232C242C262C22000C1040302000AE
:10285000DA000330D9003330D8003330D7003C30B1
:10286000C0004830BF000030BE000030BD00210075
:1028700047082000C400210046082000C3002100B2
:1028800045082000C200210044082000C1009D31FD
:10289000A925913120004008DE003F08DD003E08F8
:1028A000DC003D08DB00AD31812591310318592C46
:1028B0005A2C5C2C8E31C92E3C302000C000483090
:1028C000BF000030BE000030BD00210047082000DE
:1028D000C400210046082000C30021004508200054
:1028E000C200210044082000C1009D31A92591317A
:1028F00020004008DA003F08D9003E08D8003D0813
:10290000D7003F30DE00F930DD009930DC009A302E
:10291000DB00AD318125913103188F2C902CDA2DFD
:102920008D31B02D44302100A300B830A400E03038
:102930009031052091318D31A72D0230B100310841
:102940002000A200A301A30AEE30983108209131A3
:1029500023302100A300B830A4005230903105206C
:1029600091312E302100A300B830A4000A3020009D
:10297000A6000030A70021006E08B100B2013108A6
:102980002000A800210032082000A900AC313B241F
:102990009131200027082100A600200026082100F0
:1029A000A5000A302000A0000030A10021006E0820
:1029B000B300B40133082000A20021003408200035
:1029C000A300AA311D229131200021082100A80076
:1029D000200020082100A700C0309031052091314F
:1029E00021006E08B100B201B301B4013408200027
:1029F000B200210033082000B1002100320820007D
:102A0000B000210031082000AF000130AE319F2618
:102A1000913120003208C4003108C3003008C200E0
:102A20002F08C1004130C0000230BF00F130BE00AD
:102A3000AA30BD009D31A925913120004008DA005F
:102A40003F08D9003E08D8003D08D700AD310C251D
:102A5000913120005808E3005708E200B63177268C
:102A600091313F302000DA00EC30D900CC30D80072
:102A7000CD30D7004130C0002030BF000030BE0054
:102A80000030BD0021006E08B100B201B301B401F5
:102A900034082000B200210033082000B1002100DA
:102AA00032082000B000210031082000AF000030C3
:102AB000AE319F26913120003208C4003108C30096
:102AC0003008C2002F08C100A231B5229131200088
:102AD0004008DE003F08DD003E08DC003D08DB006A
:102AE000AD31812591310318762D772D7A2D220075
:102AF0000C147C2D22000C1021006E08B100B201D4
:102B000031082000A800210032082000A9000A3066
:102B1000A6000030A700AC313B24913120002608EC
:102B2000AF002708B000890D893B8909B100B200C8
:102B30000130AE319F26913120003208DA00310891
:102B4000D9003008D8002F08D7004030DE00003010
:102B5000DD000030DC000030DB00AD31812591313B
:102B6000031CB32DB42D902C5A2C3930A300B8304F
:102B7000A40052309031052091319B2C2100610836
:102B8000B100B2013208003A0319C72DB52D310842
:102B9000003A8D310319B42D013A03199F2D91315B
:102BA000033A0319FE2F013A0319A129073A031921
:102BB0009D2CB52D2100620863040319E02DE12D41
:102BC000E62DFF30B63183269131EA2D0030B63143
:102BD000832691310130A631292691310230A63168
:102BE000292691310330A631292691310430A631AE
:102BF000292691312100D90120008D18002E012EA7
:102C0000112E01302100B1003108D9076C086D0484
:102C100003190B2E0C2E162EFF30EC07FF30ED3D66
:102C2000162E14302100EC000030ED0020000D19AC
:102C30001A2E1B2E2B2E01302100B1003108D9078E
:102C40006A086B040319252E262E302EFF30EA0762
:102C5000FF30EB3D302E14302100EA000030EB0055
:102C600020000D18342E352E452E01302100B100E4
:102C70003108D9076808690403193F2E402E4A2EEF
:102C8000FF30E807FF30E93D4A2E14302100E8000C
:102C90000030E9005903031D4E2E4F2E8C2F2200C9
:102CA000500851040319552E562E5B2EFF30D007C5
:102CB000FF30D13D912F50302100E200C330E300BE
:102CC0006C086D04031D652E662ED02E20008D1E0F
:102CD0006A2E6B2ED02E0D1D6E2E6F2ED02E210043
:102CE00055085604031D752E762ED02E043057023B
:102CF00003187B2E7C2E842E0130B1003108D707BB
:102D0000D030D5000730D6005B080319882E892EF5
:102D10009F2E64306E0203188E2E8F2ED02E01301F
:102D2000B1003108EE07EE30B10031082000A600F6
:102D3000A701A70A0230AB31DC239131D02E6430D9
:102D40006F020318A42EA52ED02E6108031DA92EF4
:102D5000AA2EBA2E0130B1003108EF07EF30B100D2
:102D600031082000A600A701A70A0130AB31DC23FF
:102D70009131D02E02306106031DBF2EC02ED02E01
:102D80000130B1003108EF07EF30B1003108200009
:102D9000A600A701A70A0330AB31DC239131D02E66
:102DA00021006A086B04031DD62ED72E392F200070
:102DB0008D1EDB2EDC2E392F8D1CDF2EE02E392FC1
:102DC000210055085604031DE62EE72E392F043046
:102DD00057020318EC2EED2EF52E0130B10031080C
:102DE000D707D030D5000730D6005B080319F92E7D
:102DF000FA2E0D2F6E080319FE2EFF2E392F0130EB
:102E0000EE02EE30B10031082000A600A701A70AAB
:102E10000230AB31DC239131392F6F080319112FA8
:102E2000122F392F6108031D162F172F252F013060
:102E3000EF02EF30B10031082000A600A701A70A79
:102E40000130AB31DC239131392F02306106031D93
:102E50002A2F2B2F392F0130EF02EF30B10031082C
:102E60002000A600A701A70A0330AB31DC23913173
:102E7000392F210068086904031D3F2F402F912F2F
:102E80005C08031D442F452F912FDC01DC0A5B08F1
:102E900003194B2F4C2F4F2FE401E501912F2000F8
:102EA0008D1C532F542F912F0D1D572F582F912FBD
:102EB000043021006106031D5E2F5F2F682FDB01A8
:102EC0002000A201A301A30AE1309831082091312A
:102ED00003302100610203186E2F6F2F7F2F013006
:102EE000B1003108E107E130B10031082000A6004F
:102EF000A701A70A0030AB31DC239131912FE1010A
:102F0000E130B10031082000A600A701A70A003077
:102F1000AB31DC239131912F14302200D0000030EE
:102F2000D100210058080319962F972F992F0130AF
:102F3000D80264086504031D9E2F9F2FA82FDB0174
:102F40002000A201A301A30AE130983108209131A9
:102F5000210066086704031DAE2FB02FA431DE2CBC
:102F6000DB01E401E5012200C90105302100B100C7
:102F70003108E1003230B1003108EF006430B100B7
:102F80003108EE0000302200C0000030BF000030E9
:102F9000BE000030BD00E1302100B100310820004A
:102FA000A600A701A70A0030AB31DC239131EF3036
:102FB0002100B10031082000A600A701A70A0130B6
:102FC000AB31DC239131EF302100B100310820001A
:102FD000A600A701A70A0330AB31DC239131EE3004
:102FE0002100B10031082000A600A701A70A023085
:102FF000AB31DC239131AE2F8031C1288E31CC2E04
:10300000F03021009B0080309C009A019D01080057
:103010002000A8002208A400A5010530A435A50DB4
:10302000890B0E282408803EA6003F30253DA700CE
:103030002130230203181D281E28432804302202B1
:10304000031C232824283E2843282708A1002608FB
:10305000A000B631C226983120002008A40028081C
:1030600086008701240881000130A6070030A73DB3
:103070000130A4002408A8070130A3022308031D7F
:1030800042284328252808002000B201203086006D
:1030900000308700473FB000B01F4F2850287228EB
:1030A0002000A009A109A209A309A409A509A6094C
:1030B000A709A00A031D6F28A10A031D6F28A20AF1
:1030C000031D6F28A30A031D6F28A40A031D6F2880
:1030D000A50A031D6F28A60A031D6F28A70A200052
:1030E000B201B20A2830860000308700473F200036
:1030F000B000B01F7C287D28A1282000A809A909BC
:10310000AA09AB09AC09AD09AE09AF09A80A031DAC
:103110009C28A90A031D9C28AA0A031D9C28AB0A07
:10312000031D9C28AC0A031D9C28AD0A031D9C2886
:10313000AE0A031D9C28AF0A01302000B000300801
:10314000B206333086000030870008302000B0001F
:1031500000301E00B00BA9282008210422042304FB
:1031600024042504260427040319B728B8281429A1
:10317000B101B10AC728A035A10DA20DA30DA40D60
:10318000A50DA60DA70D0130B0003008B107A71F8F
:10319000CA28CB28BB28B335B40DB50DB60DB70D75
:1031A000B80DB90DBA0D27082F02031DF128260806
:1031B0002E02031DF12825082D02031DF1282408E5
:1031C0002C02031DF12823082B02031DF1282208DD
:1031D0002A02031DF12821082902031DF1282008D5
:1031E0002802031CF428F52806292008A802210833
:1031F000A93B2208AA3B2308AB3B2408AC3B25088B
:10320000AD3B2608AE3B2708AF3B3314A736A60CD0
:10321000A50CA40CA30CA20CA10CA00C0130B102B3
:10322000031D13291429CB28320803191829192939
:103230003729B309B409B509B609B709B809B909F5
:10324000BA09B30A031D3729B40A031D3729B50A81
:10325000031D3729B60A031D3729B70A031D37296D
:10326000B80A031D3729B90A031D3729BA0A2000F5
:103270003308A0003408A1003508A2003608A300D6
:103280003708A4003808A5003908A6003A08A700A6
:1032900008002000D701D801D901DA01C901CA010B
:1032A00021004B080739031D56295729852A4A084A
:1032B0002000C100C2014108A0004208A10008305E
:1032C000A6000030A70021004B082000C300C40165
:1032D0004308A8004408A900AC313B2499312000E0
:1032E0002708A3002608A200B731E0279931200063
:1032F0002108CE002008CD0021004C08200040020B
:10330000A000A101031CA1034E08A3004D08A200C8
:10331000B731E027993120002008043ED100003069
:10332000213DD200D701D801692A0230D9000030EE
:10333000DA00522A21004A082000C100C2014108D7
:10334000A0004208A1005808A3005708A200B73106
:10335000E027993120002008210048072000C30001
:1033600021082100493D2000C40051084307C50041
:103370005208443DC60045085907840046085A3D96
:1033800085000008C700C8014708C9004808CA00EE
:10339000DB010130C1000030C2005B0AD129C13518
:1033A000C20D890BCF2949084105C3004A084205CF
:1033B000C400430844040319DE29DF293C2A210004
:1033C0004E08031DE429E529112A200059083C076D
:1033D000C1005A083D3DC2004108FE3EAF00FF302B
:1033E000423DB0005B08C300C4015808C60057083E
:1033F000C500C535C60DC535C60DC535C60D430856
:103400004507C7004408463DC8003E084707B100CD
:103410003F08483DB200B301B30AA031EA20993118
:10342000432A200059083C07C1005A083D3DC2000C
:103430004108FE3EAF00FF30423DB0005B08C300D4
:10344000C4015808C6005708C500C535C60DC535A6
:10345000C60DC535C60D43084507C7004408463D9F
:10346000C8003E084707B1003F08483DB200B3011D
:10347000A031EA209931432A21004E08031D412A38
:10348000422AE529112A01302000C1004108DB074A
:1034900008305B02031C4D2A4E2AC9290130D90786
:1034A0000030DA3D21004A08FE3E2000C100FF3016
:1034B00003180030C20042085A02031D612A410865
:1034C0005902031C642A652A9A290130D707003063
:1034D000D83D0830A6000030A70021004B0820008E
:1034E000C100C2014108A8004208A900AC313B2438
:1034F0009931200027085802031D802A2608570208
:10350000031C832A842A9529702B08302000A600EA
:103510000030A70021004A082000C100C201410874
:10352000A0004208A10021004B082000C300C401F4
:103530004308A2004408A300B731E02799312000D6
:103540002108A9002008A800AC313B2499312000B3
:103550002708CE002608CD0021004C08200040029C
:10356000A000A101031CA1034E08A3004D08A20066
:10357000B731E027993120002008043ED100003007
:10358000213DD2002100480820005107840021007D
:1035900049082000523D85000008C100C2014108D1
:1035A000CB004208CC000730CF000030D000D30160
:1035B000D401612B2000D501D6014D2B0130200014
:1035C000C1000030C2004F0AE72AC135C20D890B85
:1035D000E52A4B084105C3004C084205C4004308D6
:1035E00044040319F42AF52A202B21004E08031D58
:1035F000FA2AFB2A0E2B200053083C07AF00540880
:103600003D3DB00055083E07B10056083F3DB200B1
:10361000B301B30AA031EA209931272B20005308C7
:103620003C07AF0054083D3DB00055083E07B100CF
:1036300056083F3DB200B301A031EA209931272B53
:1036400021004E08031D252B262BFB2A0E2BFF30B5
:103650002000CF07FF30D03DD01F2F2B302B492B20
:103660000730CF000030D0000130D1070030D23D0C
:10367000210048082000510784002100490820004B
:10368000523D85000008C100C2014108CB0042083C
:10369000CC000130D5070030D63D5608803AC10035
:1036A00080304102031D582B21004B082000550299
:1036B000031C5B2B5C2BDE2A01302000D30700307B
:1036C000D43D5408803AC10080304102031D6C2B68
:1036D00021004A0820005302031C6F2B702BDA2AAA
:1036E0000800200023088039A8002808B0002335EE
:1036F000A8002808B200A21F7E2B7F2B802B32143B
:1037000032080319842B852B952B320A031D892B34
:103710008A2B922B0030A3000030A2000030A100C1
:103720000030A000A217A3019D2B0030A3000030A1
:10373000A2000030A1000030A00027088039A800B6
:103740002808B100310830060319A72BA82BA92B94
:1037500030172735A8002808B100A61FB02BB12BC1
:10376000B22B311431080319B62BB72BC72B310AF2
:10377000031DBB2BBC2BC42B0030A7000030A600C0
:103780000030A5000030A400A617A701CF2B003001
:10379000A7000030A6000030A5000030A4003208C9
:1037A00031020318D42BD52B192C301FD82BD92B31
:1037B000DD2B8030A8002808B0063208A8002808B1
:1037C000B3003108A8002808B2003308A800280870
:1037D000B1002008A8002808B3002408A800280881
:1037E000A0003308A8002808A4002108A800280881
:1037F000B3002508A8002808A1003308A80028085D
:10380000A5002208A8002808B3002608A800280858
:10381000A2003308A8002808A6002308A80028084A
:10382000B3002708A8002808A3003308A800280828
:10383000A700B3013108A800A9012908AB0032088C
:103840002802AA00031CAB032B08803AAC0080308E
:103850002C02031D2D2C1A302A02031C302C312C73
:10386000692C20002308220421042004031D392C84
:103870003B2C01303C2C0030A8002808B30000305D
:10388000A3000030A2000030A1000030A0003108E9
:10389000A8002808B200702C331C4F2C502C562C3A
:1038A00033360138A8002808B300582C0310B30C95
:1038B000201C5B2C5C2C5D2CB3170130A800A337B7
:1038C000A20CA10CA00CA80B5F2C0130A8002808AA
:1038D000B207200031083202031C6F2C702C4C2CD4
:1038E000301B732C742CAC2C3208031D782C792CD3
:1038F000822C0030A3000030A2000030A100003074
:10390000A000A82D2408A0072508A13D2608A23D57
:103910002708A33D231C8D2C8E2C382D331C912C75
:10392000922C982C33360138A8002808B3009A2C22
:103930000310B30C201C9D2C9E2C9F2CB317013020
:10394000A800A337A20CA10CA00CA80BA12C01303D
:10395000A8002808B207382D2308803AA8002708B5
:10396000803A2802031DBE2C26082202031DBE2C0D
:1039700025082102031DBE2C240820020318C12C97
:10398000C22CFA2CFF30A800FF30A900FF30AA009B
:10399000FF30AB0020082402AC002108253BAD001D
:1039A0002208263BAE002308273BAF002C08A807BF
:1039B0002D08A93D2E08AA3D2F08AB3D2B08A300DA
:1039C0002A08A2002908A1002808A0008030A80029
:1039D0002808B006B309B30A3308031DF02CF12CF4
:1039E000022D0130A0070030A13D0030A23D003083
:1039F000A33D022D2408A0022508A13B2608A23BD6
:103A00002708A33B2308220421042004031D092DB9
:103A10000A2D342D3308031D0E2D0F2D342D0030AB
:103A2000A3000030A2000030A1000030A000A82DAB
:103A30000130A035A10DA20DA30D890B192DB31FC7
:103A4000222D232D242D2014331C272D282D2B2D02
:103A50000314B30D2D2D0310B30D32080319312DAE
:103A6000322D342D0130B202A21F372D382D182DE2
:103A7000B101B31F3C2D3D2D4B2D33087F39031968
:103A8000422D432D462DB101B10A4B2D201C492D4D
:103A90004A2D4B2D432D310803194F2D502D7D2DCF
:103AA0000130A0070030A13D0030A23D0030A33D11
:103AB000231C5B2D5C2D7D2D2008A8002108A9006A
:103AC0002208AA002308AB000130AC00AB37AA0CD7
:103AD000A90CA80CAC0B662D2B08A3002A08A20089
:103AE0002908A1002808A000320A0319782D792D91
:103AF0007D2D0130A8002808B207320A0319812D54
:103B0000822D872D3208031D862D872D952D00309F
:103B1000A3000030A2000030A1000030A000320855
:103B2000031D932D942D952DB001321C982D992DA8
:103B30009B2DA2179F2D7F30A8002808A2053236A2
:103B4000A8002808A300B01FA62DA72DA82DA317F5
:103B50000800200040088039C5004508CA004035EB
:103B6000C5004508D000BF1FB62DB72DB82D501485
:103B700050080319BC2DBD2DCC2D500A031DC12D9D
:103B8000C22DCA2D0030C0000030BF000030BE0082
:103B90000030BD00BF17D42D0030C0000030BF0082
:103BA0000030BE000030BD0044088039C500450823
:103BB000CA064435C5004508CF00C31FE02DE12DDE
:103BC000E22D4F144F080319E62DE72DF62D4F0A6D
:103BD000031DEB2DEC2DF42D0030C4000030C3008C
:103BE0000030C2000030C100C317FE2D0030C400F9
:103BF0000030C3000030C2000030C1004F0803197C
:103C0000022E032E082E5008031D072E082E112EFB
:103C10000030C0000030BF000030BE000030BD00EA
:103C2000FF2F3D08C5004508A0004308A8314E20DD
:103C30009D3120002108D6002008D5005508C50078
:103C4000C601C701C8014808CE004708CD00460894
:103C5000CC004508CB005608C500C601C701C80105
:103C60004808D4004708D3004608D2004508D100D0
:103C70003E08C5004508A0004208A8314E209D31ED
:103C800020002108D6002008D5005508C500C6012F
:103C9000C701C8014508CB074608CC3D4708CD3DC4
:103CA0004808CE3D5608C500C601C701C8014508F1
:103CB000D1074608D23D4708D33D4808D43D3F08C8
:103CC000C5004508A0004108A8314E209D312000C4
:103CD0002108D6002008D5005508C500C601C70137
:103CE000C8014508CB074608CC3D4708CD3D4808EC
:103CF000CE3D5608C500C601C701C8014508D10719
:103D00004608D23D4708D33D4808D43D0830CB355E
:103D1000CC0DCD0DCE0D890B872E3E08C500450874
:103D2000A0004108A8314E209D3120002108D60076
:103D30002008D5005508CB075608CC3D0030CD3DB6
:103D4000CE3D3D08C5004508A0004208A8314E20E0
:103D50009D3120002108D6002008D5005508CB074A
:103D60005608CC3D0030CD3DCE3D0830CB35CC0D96
:103D7000CD0DCE0D890BB62E3D08C5004508A0001F
:103D80004108A8314E209D3120002108D60020088E
:103D9000D5005508CB075608CC3D0030CD3DCE3D73
:103DA0003E08C5004508A0004308A8314E209D31BB
:103DB00020002108D6002008D5005508D107560854
:103DC000D23D0030D33DD43D3F08C5004508A0009A
:103DD0004208A8314E209D3120002108D60020083D
:103DE000D5005508D1075608D23D0030D33DD43D0B
:103DF0003F08C5004508A0004308A8314E209D316A
:103E000020002108D6002008D5005508C500560816
:103E1000C600C701C8010830C535C60DC70DC80D9D
:103E2000890B0C2F4508D1074608D23D4708D33DE2
:103E30004808D43D4B08C5004C08C6004D08C700D3
:103E40004E08C8001830C836C70CC60CC50C890B04
:103E5000232F4508D1074608D23D4708D33D4808DF
:103E6000D43D0830CB35CC0DCD0DCE0D890B322F86
:103E700050084F07C500C601C60D4508823ED50053
:103E8000FF30463DD6005B2F0130D135D20DD30D2A
:103E9000D40D890B452FCE1F4E2F4F2F502F51146D
:103EA0000130CB35CC0DCD0DCE0D890B512FFF3010
:103EB000D507FF30D63DD31F5E2F5F2F442FCF0194
:103EC000CE1F632F642F802FFF304B05C500FF30BE
:103ED0004C05C600FF304D05C7007F304E05C800B9
:103EE00048084704460445040319772F782F7B2F91
:103EF000CF01CF0A802F511C7E2F7F2F802F782F4C
:103F00004F080319842F852FAD2F0130D1070030C2
:103F1000D23D0030D33D0030D43D541C902F912F22
:103F2000AD2F5108C5005208C6005308C7005408F9
:103F3000C8000130C900C837C70CC60CC50CC90B76
:103F40009B2F4808D4004708D3004608D2004508F4
:103F5000D1000130D5070030D63D5608803AC50063
:103F600080304502031DB62FFF305502031CB92FC8
:103F7000BA2FC42F7F302000D4008030D30000300F
:103F8000D2000030D100F32F20005608803AC5003F
:103F900080304502031DCE2F013055020318D12F6A
:103FA000D22FDD2F00302000D4000030D3000030AD
:103FB000D2000030D100CA01F32F20005508C500FF
:103FC0004508D000FF30D105FF30D2057F30D30542
:103FD0000030D405501CED2FEE2FEF2FD3175036A5
:103FE000C5004508D4004A08C5004508D404540853
:103FF000C0005308BF005208BE005108BD000800B1
:104000005034C3345034C334A834613414340034CD
:104010001434003414340034643432342000E800A2
:10402000590886008701403FDB00413FDC005B0808
:1040300084005C0885001200253A031D20282128F1
:10404000C6285908860087010130810741310318CD
:10405000810A2200C301C4012100D101D201FF3035
:10406000CF00FF30D0002000590886008701403F74
:10407000DB00413FDC005B0884005C088500120027
:10408000643A0319442845285628590886008701B0
:10409000403FDB00413FDC005B0884005C0885009A
:1040A0001200693A031D55285628912859088600A0
:1040B00087010130810741310318810A5A088600BF
:1040C000870101088400850102308107003FDB0081
:1040D000013FDC005B08E0005C08E100890D893BE2
:1040E0008909E200E300E400E500E600E70060087B
:1040F000BB006108BC006208BD006308BE00640824
:10410000BF006508C0006608C1006708C2006808F3
:1041100090313120A03120003C08DA003B08D90062
:10412000E928590886008701403FDB00413FDC0059
:104130005B0884005C0885001200253A031DA12855
:10414000A228BB2859088600870101308107413128
:104150000318810A2530A0000030A1006808DB00A8
:104160005B08A200A931CB21A03101302000D90089
:104170000030DA00E92859088600870101308107FC
:1041800041310318810AD901DA01E928590886006A
:104190008701403FDB00413FDC005B0884005C0896
:1041A00085000008DD00DE015D08A0005E08A100BA
:1041B0006808DF005F08A200A931CB21A0312000F0
:1041C0005908860087010130810741310318810AAF
:1041D000B52808002000B01BEE28EF28C729803141
:1041E0000220A0312000B4003008803AB5008030B1
:1041F0003502031DFD2834082F0203180029012968
:10420000C7292000B21B05290629C729B631362641
:10421000A0312000B4003208803AB5008030350269
:10422000031D142934083102031C17291829B32946
:10423000C7290130B40031080739890A2029B4356B
:10424000890B1F293408B5000830A6000030A700EC
:104250003208A9003108A800AC313B24A03120006D
:104260002608B6002708B7000730B635B70D890B0A
:1042700035292830B8002630B90036083807BA008A
:104280003708393DBB002F083A07860030083B3D10
:10429000870035088104C7290130B4003108073987
:1042A000890A5329B435890B52293408FF3AB500DD
:1042B0000830A6000030A7003208A9003108A80085
:1042C000AC313B24A03120002608B6002708B700F7
:1042D0000730B635B70D890B69292830B80026306C
:1042E000B90036083807BA003708393DBB002F0837
:1042F0003A07860030083B3D870035088105C7290D
:104300000130B40031080739890A8729B435890B8F
:1043100086293408B5000830A6000030A70032080E
:10432000A9003108A800AC313B24A03120002608A8
:10433000B6002708B7000730B635B70D890B9C29A2
:104340002830B8002630B90036083807BA003708D8
:10435000393DBB002F083A07860030083B3D8700F7
:1043600035088106C72920003308B400B501350897
:10437000003A0319BC29C7293408003A03194C290B
:10438000013A03191929033A03198029C72908009A
:104390002000B2012830860000308700473FB0007F
:1043A000B01FD329D429F6292000A809A909AA09F0
:1043B000AB09AC09AD09AE09AF09A80A031DF32981
:1043C000A90A031DF329AA0A031DF329AB0A031D39
:1043D000F329AC0A031DF329AD0A031DF329AE0A24
:1043E000031DF329AF0A2000B201B20A2030860073
:1043F00000308700473F2000B000B01F002A012A8C
:10440000202A2000A009A109A209A309A409A5093D
:10441000A609A709A00A031D202AA10A031D202A14
:10442000A20A031D202AA30A031D202AA40A031D91
:10443000202AA50A031D202AA60A031D202AA70A4E
:104440002000200821042204230424042504260437
:10445000270403192C2A2D2A802AB101B10A3C2AEB
:10446000A035A10DA20DA30DA40DA50DA60DA70DA0
:104470000130B0003008B107A71F3F2A402A302A78
:1044800027082F02031D5E2A26082E02031D5E2A1E
:1044900025082D02031D5E2A24082C02031D5E2A16
:1044A00023082B02031D5E2A22082A02031D5E2A0E
:1044B00021082902031D5E2A20082802031C612A04
:1044C000622A722A2008A8022108A93B2208AA3BD6
:1044D0002308AB3B2408AC3B2508AD3B2608AE3B8C
:1044E0002708AF3BA736A60CA50CA40CA30CA20C66
:1044F000A10CA00C0130B102031D7F2A802A402AA2
:1045000032080319842A852AA32AA809A909AA0915
:10451000AB09AC09AD09AE09AF09A80A031DA32A6E
:10452000A90A031DA32AAA0A031DA32AAB0A031D75
:10453000A32AAC0A031DA32AAD0A031DA32AAE0AAF
:10454000031DA32AAF0A20002808A0002908A10003
:104550002A08A2002B08A3002C08A4002D08A500FF
:104560002E08A6002F08A700080020004408803964
:10457000C5004508CE004435C5004508D500C31F19
:10458000C22AC32AC42A551455080319C82AC92A9D
:10459000D92A550A031DCD2ACE2AD62A0030C400B6
:1045A0000030C3000030C2000030C100C317C40196
:1045B000E12A0030C4000030C3000030C2000030E7
:1045C000C10040088039C5004508CE064035C50009
:1045D0004508D600BF1FED2AEE2AEF2A56145608CA
:1045E0000319F32AF42A042B560A031DF82AF92A80
:1045F000012B0030C0000030BF000030BE00003092
:10460000BD00BF17C0010C2B0030C0000030BF0040
:104610000030BE000030BD0040083F043E043D04B1
:10462000031D132B142B2D2B0030C4000030C300AE
:104630000030C2000030C1008030C3047F30C404A9
:104640004E08C5004508C4044408C0004308BF0024
:104650004208BE004108BD00682C5508031D312BDF
:10466000322B3B2B0030C0000030BF000030BE00BA
:104670000030BD00682C5508C500C6014608C800BA
:1046800056084502C700031CC80347087F3ECF00F9
:104690000030483DD0004408CD004308CC0042081B
:1046A000CB004108CA000030C4000030C300003015
:1046B000C2000030C1000030D4000030D300003010
:1046C000D2000030D100D601A32B56080319692B64
:1046D0006A2B842B0130CA35CB0DCC0DCD0D890B47
:1046E0006B2B0130C135C20DC30DC40D890B722B6C
:1046F000D41F7B2B7C2B7D2B41140130D135D20D67
:10470000D30DD40D890B7E2B40084D02031D922B37
:104710003F084C02031D922B3E084B02031D922BB7
:104720003D084A02031C952B962B9F2B54173D08DE
:10473000CA023E08CB3B3F08CC3B4008CD3B013092
:10474000C5004508D6071A305602031CA82BA92B12
:10475000652B4D084C044B044A040319B02BB12BB4
:10476000CA2B5114CA2B0130C135C20DC30DC40D63
:10477000890BB42BD41FBD2BBE2BBF2B4114013092
:10478000D135D20DD30DD40D890BC02BFF30CF07FF
:10479000FF30D03DC31FCD2BCE2BB32BD601D41F62
:1047A000D22BD32BEF2BFF305105C500FF30520524
:1047B000C600FF305305C7007F305405C8004808C5
:1047C0004704460445040319E62BE72BEA2BD601E0
:1047D000D60AEF2B411CED2BEE2BEF2BE72B5608C7
:1047E0000319F32BF42B1C2C0130C1070030C23D00
:1047F0000030C33D0030C43D441CFF2B002C1C2C5A
:104800004108C5004208C6004308C7004408C80064
:104810000130C900C837C70CC60CC50CC90B0A2C1F
:104820004808C4004708C3004608C2004508C10044
:104830000130CF070030D03D5008803AC5008030AD
:104840004502031D252CFF304F02031C282C292C68
:10485000362CFF302000CF000030D0000030C400E4
:104860000030C3000030C2000030C10020005008FA
:10487000803AC50080304502031D402C01304F02B4
:104880000318432C442C502C2000CF01D0010030C1
:10489000C4000030C3000030C2000030C100CE01AF
:1048A00020004F08C5004508D500551C582C592C30
:1048B0005B2CC3175F2C7F30C5004508C3055536F8
:1048C000C5004508C4004E08C5004508C404242B93
:1048D0000800B631ED26A4318B170B1705302100E7
:1048E000B2000F30B100F130890B742CB10B742C75
:1048F000B20B742C2000A201A301A30AE13098316D
:104900000820A4312000A201A20AA301A30AEF30CB
:1049100098310820A43102302100B1003108200074
:10492000A200A301A30AEE3098310820A43165301B
:1049300021006F02031C9D2C9E2CB92C3230B1003B
:104940003108EF00EF30B10031082000A600A701C8
:10495000A70A0130AB31DC23A431EF302100B100D4
:1049600031082000A600A701A70A0330AB31DC23E1
:10497000A431653021006E02031CBF2CC02CCF2C4B
:104980006430B1003108EE00EE30B1003108200093
:10499000A600A701A70A0230AB31DC23A431AE3157
:1049A0000C26A43105302100B2000F30B100F130E7
:1049B000890BD82CB10BD82CB20BD82C90310020FD
:1049C000A43120008D1AE52CE72C8D318B2D02307F
:1049D0002100B10031082000A200A301A30AEE309B
:1049E00098310820A4315230A8312C20A4314D3008
:1049F0002100A300B830A400523090310520A4312A
:104A0000E030A8312C20A431D030A8312C20A431A2
:104A1000C030A8312C20A4312E302100A300B830A2
:104A2000A4000A302000A6000030A70021006E0874
:104A3000B100B20131082000A80021003208200096
:104A4000A900AC313B24A431200027082100A60096
:104A5000200026082100A5000A302000A000003018
:104A6000A10021006E08B300B40133082000A200A9
:104A7000210034082000A300AA311D22A431200007
:104A800021082100A800200020082100A700C03034
:104A900090310520A43121006E08B100B201B301AC
:104AA000B40134082000B200210033082000B10016
:104AB000210032082000B000210031082000AF00A2
:104AC0000130AE319F26A43120003208C4003108E5
:104AD000C3003008C2002F08C1004130C0000230BE
:104AE000BF00F130BE00AA30BD009D31A925A43120
:104AF00020004008DA003F08D9003E08D8003D08F1
:104B0000D700AD310C25A43120005808E300570828
:104B1000E200B6317726A4313F302000DA00EC30D5
:104B2000D900CC30D800CD30D7004130C000203083
:104B3000BF000030BE000030BD0021006E08B10093
:104B4000B201B301B40134082000B20021003308DF
:104B50002000B100210032082000B00021003108FF
:104B60002000AF000030AE319F26A4312000320873
:104B7000C4003108C3003008C2002F08C100A231B0
:104B8000B522A43120004008DE003F08DD003E08C9
:104B9000DC003D08DB00AD318125A4310318D12DA7
:104BA000D22DD52D22000C14D72D22000C1021005F
:104BB0006E08B100B20131082000A80021003208BF
:104BC0002000A9000A30A6000030A700AC313B2429
:104BD000A43120002608AF002708B000890D893BCA
:104BE0008909B100B2000130AE319F26A431200006
:104BF0003208DA003108D9003008D8002F08D70071
:104C00004030DE000030DD000030DC000030DB0032
:104C1000AD318125A431031C0E2E0F2E122E220041
:104C20008C14142E22008C100130A6312926A431B8
:104C30000230A6312926A4310330A6312926A43119
:104C40000430A6312926A4312100BE01BF018D31D7
:104C5000862D2100B000E82F2100A001A101210034
:104C60002008523E8600013087002008B03E8400B4
:104C7000013085000008010603193F2E402E432E07
:104C8000E001E00A562E0130A0070030A13D2108C6
:104C9000803A2000EB0080306B02031D522E103052
:104CA00021002002031C552E562E2F2E21006008B5
:104CB00003195B2E5C2EFF2F00302000DC00DD008E
:104CC0000030DE00DF005230EB006B08E000AF3157
:104CD0004C27A6312100A201A30121002208523E47
:104CE00086000130870001082000EB002100220827
:104CF000B03E86000130870020006B088100013043
:104D00002100A2070030A33D2308803A2000EB00D9
:104D100080306B02031D8F2E103021002202031CF5
:104D2000922E932E6D2E21003008AB312523A63113
:104D30002100E001FF2F2100A401A501210024088A
:104D4000E03E8600013087002408503E8400023097
:104D50008500000801060319AE2EAF2EB22EDF012A
:104D6000DF0AC52E0130A4070030A53D2508803A92
:104D70002000EB0080306B02031DC12E103021009B
:104D80002402031CC42EC52E9E2E21005F08031989
:104D9000CA2ECB2EFF2F00302000DC00DD000030BB
:104DA000DE00DF00E030EB006B08E000AF314C27A5
:104DB000A6312100A601A70121002608E03E8600B9
:104DC0000130870001082000EB0021002608503E3A
:104DD00086000230870020006B088100013021002E
:104DE000A6070030A73D2708803A2000EB0080305E
:104DF0006B02031DFE2E103021002602031C012F22
:104E0000022FDC2E21003008AB312523A6312100F2
:104E1000DF01FF2F2100A801A90121002808D03EB1
:104E20008600013087002808403E8400023085005B
:104E30000008010603191D2F1E2F212FDE01DE0A97
:104E4000342F0130A8070030A93D2908803A2000FE
:104E5000EB0080306B02031D302F10302100280240
:104E6000031C332F342F0D2F21005E080319392F17
:104E70003A2FFF2F00302000DC00DD000030DE0084
:104E8000DF00D030EB006B08E000AF314C27A631DB
:104E90002100AA01AB0121002A08D03E8600013082
:104EA000870001082000EB0021002A08403E860010
:104EB0000230870020006B08810001302100AA0722
:104EC0000030AB3D2B08803A2000EB0080306B02B5
:104ED000031D6D2F103021002A02031C702F712F2B
:104EE0004B2F21003008AB312523A6312100DE01F4
:104EF000FF2F2100AC01AD0121002C08C03E86002F
:104F0000013087002C08A03E840001308500000895
:104F1000010603198C2F8D2F902FDD01DD0AA32FA1
:104F20000130AC070030AD3D2D08803A2000EB0089
:104F300080306B02031D9F2F103021002C02031CB8
:104F4000A22FA32F7C2F21005D080319A82FA92FC2
:104F5000FF2F00302000DC00DD000030DE00DF002D
:104F6000C030EB006B08E000AF314C27A6312100C8
:104F7000AE01AF0121002E08C03E8600013087003F
:104F800001082000EB0021002E08A03E8600013021
:104F9000870020006B08810001302100AE0700303F
:104FA000AF3D2F08803A2000EB0080306B02031DDC
:104FB000DC2F103021002E02031CDF2FE02FBA2F30
:104FC00021003008AB312523A6312100DD01FF2F60
:104FD00030082000EB00EC016C08003A0319F12FB7
:104FE000FF2F6B08013A03192C2E033A03199B2E4D
:104FF000013A03190A2F073A0319792FFF2F0800E6
:10500000FE0012001E000130FE020030FF3B7F0850
:105010007E04031D012800342E342E342E342E3409
:105020002E342E342E342E342E342E342E342E3470
:105030002E342E342E3400342E342E342E342E348E
:105040002E342E342E342E342E342E342E342E3450
:105050002E342E342E3400342000A400A201A301EB
:1050600020302000A00022082407A100210886008B
:1050700001308700200881000130A2070030A33DE5
:105080002308803AA00080302002031D49281030F8
:105090002202031C4C284D28302808002000A800BC
:1050A000A401A5012008A200A3012208A60023084C
:1050B000A700281C5C285D2861282608A40727086B
:1050C000A53D0130A635A70D890B62280310A80C59
:1050D0002808031D6C286D2859282508A1002408DC
:1050E000A00008002000AF00AD01AE018A282C0806
:1050F000A900AA012908A0002A08A1002808AB00DD
:105100002B08A200A931CB21A83101302000AD0726
:105110000030AE3D2D082F07A90029088600023077
:1051200087000108AA002A08AC002C08031D992852
:105130009A287728080000308B1B01302000A5003A
:105140008B132108230092002000200823009100E7
:10515000200023082300940020002208230093004D
:105160002000240C2300031C951203189516151318
:1051700015121515B6315326A8312000250803193C
:10518000C228C328C4288B1708002100A0002000D3
:105190006A082100A200200069082100A100220065
:1051A000C101C201E928A1302000EC006C08D9003F
:1051B0006B08ED006D08DA0021002008A0310E20F8
:1051C000A831200059082200C10720005A082200F7
:1051D000C23D210021088400220885001200031D21
:1051E000F228F328D328220042082000EA002200F7
:1051F00041082000E900080022008C018D018E0189
:10520000083021009000B8308C00FF308D00FF3056
:105210008E0023008E0108308D0004308C002400A5
:1052200090018D018C018E012100971725008C01C2
:105230008D018E01FF3026008C00FF308D00E7309D
:105240008E003F3027008C00F0308D00FF308E0044
:1052500014303C00BB0021303D00A3002230A400EC
:1052600013303C00BA000800200021082100C900CA
:10527000200020082100C800200020088400210808
:1052800085000008A20022082100CA002000210891
:10529000A3002008A200013022078400230803187D
:1052A000230A85000008A40024082100CB00200068
:1052B0002108A3002008A20002302207840023084E
:1052C0000318230A85000008A40024082100CC004C
:1052D00020002108A3002008A20003302207840038
:1052E00023080318230A85000008A40024082100CD
:1052F000CD00CE0108002E342E342E342E342E3420
:105300002E342E342E342E342E342E342E342E348D
:105310002E342E3400342E342E342E342E342E34AB
:105320002E342E342E342E342E342E342E342E346D
:105330002E342E3400342E342E342E342E342E348B
:105340002E342E342E342E342E342E342E342E344D
:105350002E342E3400342E342E342E342E342E346B
:105360002E342E342E342E342E342E342E342E342D
:105370002E342E3400342E342E342E342E342E344B
:105380002E342E342E342E342E342E342E342E340D
:105390002E342E340034200022080319D029D129BC
:1053A000D6292208031DD529D629DB2920088D31CD
:1053B0001025A9311C2A2208033E86008701160009
:1053C00001040319E429E529022A2208033E860084
:1053D0008701403FA300413FA400220A86008701C5
:1053E000403FA500413FA6002608803AA7002408B8
:1053F000803A2702031DFE29230825020318012AEB
:10540000022A1C2A20002008A30022088600870107
:10541000220A8400850100080107A40024088600F0
:105420000130870023088100220A860087010130AD
:10543000810741310318810A08002000A601A31F3B
:10544000222A232A2A2AA209A309A20A0319A30AA3
:10545000A601A60AA11F2D2A2E2A332AA009A109D6
:10546000A00A0319A10A200821040319382A392A9D
:10547000622AA501A50A452A0130A035A10D890B94
:105480003D2A0130A4002408A507A11F482A492A63
:105490003C2A21082302031D4F2A20082202031C54
:1054A000522A532A572A2008A2022108A33B01307E
:1054B000A136A00C890B582A0130A502031D612AD0
:1054C000622A492A26080319662A672A6C2AA20931
:1054D000A309A20A0319A30A2308A1002208A00015
:1054E00008002000B8002100511C772A782A812A60
:1054F00020003808B3003308A8003008A831722013
:10550000AA312000B21B852A862A8B2A3208B700CE
:105510003108B6008D2AB601B701B401B501A12A40
:1055200020302000A0000030A1003808B30033086C
:10553000A200A931CB21AA3101302000B4070030EC
:10554000B53D3508803AB3003708803A3302031D71
:10555000AB2A36083402031CAE2AAF2A902A210057
:105560005118B32AB42ABD2A20003808B3003308E2
:10557000A8003008A8317220AA3120003008B731C5
:105580004C27AA31200036082007B0003708213DFB
:10559000B10008002000A4012130B631D726AA317D
:1055A0000030B631D726AA317F30B631D726AA319E
:1055B0002230B631D726AA310030B631D726AA31EB
:1055C0000730B631D726AA31B6314326AA31783012
:1055D000B631A826AA314030B631A826AA3120001B
:1055E000A501A601A4012830A2002630A3002508A9
:1055F000220786002608233D87000108B631A82629
:10560000AA3101302000A5070030A63D0130A200DC
:105610002208A40710302402031C0F2B102BF32A9E
:105620000130A5020030A63B0130A5070030A63DA1
:1056300004302602003003192502031C202B212BE5
:10564000F22AB6313C26AA3108002000A5002535F3
:10565000FE3EA2002208A5002130B631D726AB318C
:105660000030B631D726AB317F30B631D726AB31DB
:105670002230B631D726AB3120002508B631D726E7
:10568000AB3120002508013EB631D726AB31B6310B
:105690004326AB317830B631A826AB314030B63135
:1056A000A826AB312000A601A701A4012830A20042
:1056B0002630A3002608220786002708233D8700FE
:1056C0000108B631A826AB3101302000A607003012
:1056D000A73D0130A2002208A40710302402031CB9
:1056E000722B732B562B0130270200300319260230
:1056F000031C7B2B7C2B552BB6313C26AB31080091
:10570000FA007A08F800F9010530F835F90D890B2F
:10571000852B7808803EFB003F30793DFC0021302E
:1057200077020318942B952BDB2B04307A02031C91
:105730009A2B9B2B9C2BDB2B7C08F1007B08F00029
:10574000B7313327AB31C12B7C08F1007B08F00067
:105750007608860087010108F800F9017808F20050
:105760007908F300F401F40AB731A027AB31013016
:10577000F8007808F6070130FB070030FC3D0130E7
:10578000F702023077020318C62BC72BA42B7C0824
:10579000F1007B08F0007608860087010108F80018
:1057A000F9017808F2007908F300F401B731A02775
:1057B000AB312300150808002000AA002A08A80021
:1057C000A9010530A835A90D890BE22B2808803ED8
:1057D000AB003F30293DAC00213027020318F12BEC
:1057E000F22B3A2C04302A02031CF72BF82BF92B4E
:1057F0003A2C2C08A1002B08A000B7318327AB312D
:105800001F2C2C08A1002B08A00026088600870169
:105810000108A800A9012808A2002908A300A401E2
:10582000A40AA8319B20AB3101302000A800280831
:10583000A6070130AB070030AC3D0130A7020230B3
:10584000200027020318252C262C012C2C08A1004F
:105850002B08A0002608860087010108A800A901DE
:105860002808A2002908A300A401A8319B20AB317D
:105870002300150808002000AC01A71F402C412C74
:10588000482CA609A709A60A0319A70AAC01AC0A65
:10589000A91F4B2C4C2C552CA809A909A80A03199F
:1058A000A90A0130AA002A08AC06AD01AE012608FB
:1058B000270403195C2C5D2C8C2CAB01AB0A692CE2
:1058C0000130A635A70D890B612C0130AA002A08EA
:1058D000AB07A71F6C2C6D2C602C0130AD35AE0DC5
:1058E000890B6E2C27082902031D782C2608280214
:1058F000031C7B2C7C2C812C2608A8022708A93BA2
:105900002D140130A736A60C890B822C0130AB0276
:10591000031D8B2C8C2C6D2C2C080319902C912C96
:10592000962CAD09AE09AD0A0319AE0A2E08A700E0
:105930002D08A6000800AE30B631D726AC31D530E0
:10594000B631D726AC31F030B631D726AC31A830DD
:10595000B631D726AC313F30B631D726AC31D33053
:10596000B631D726AC310030B631D726AC31403015
:10597000B631D726AC318D30B631D726AC311430A4
:10598000B631D726AC312030B631D726AC31003015
:10599000B631D726AC31A130B631D726AC31C830BC
:1059A000B631D726AC31DA30B631D726AC31123029
:1059B000B631D726AC318130B631D726AC31FF3085
:1059C000B631D726AC31D930B631D726AC31F1302B
:1059D000B631D726AC31DB30B631D726AC314030CA
:1059E000B631D726AC31A430B631D726AC31A6308B
:1059F000B631D726AC312E30B631D726AC31AF30E8
:105A0000B631D726AC312C302000A0008130A10067
:105A1000A9313421AC31080003102000590D5A0D72
:105A2000DB005B08E1006108031D172D182D212DF7
:105A30000030DA000030D9000030D8000030D70044
:105A4000802D5708DB005808DC005908DD005A0893
:105A5000DE001F30DE36DD0CDC0CDB0C890B2A2D62
:105A60005B08DF005F08E000D917FF30D705FF3083
:105A7000D805FF30D9050030DA059630E102E11F84
:105A8000422D432D5B2D6108803A973E0318492D26
:105A90004A2D4B2D182D0130DA36D90CD80CD70CE5
:105AA000890B4C2D0130DB005B08E107031D592DEC
:105AB0005A2D4B2D702D20306102031C602D612D5D
:105AC0006B2D182D0130D735D80DD90DDA0D890B76
:105AD000632D0130E1026108031D6F2D702D622DD1
