:020000040000FA
:1000000080319E28803008007E1480318B1E0928A4
:100010000A289C280B1D0D280E289C280B112E0049
:100020003A080319142815281F285A085B040319D5
:100030001A281B281F28FF30DA07FF30DB3D5E0837
:100040005F04031924282528572862086304031D28
:100050002A282B28572860086104031D30283128DE
:100060005728580859040319362837285B280130C7
:10007000D8020030D93B58085904031D40284128B4
:100080005B285030DA00C330DB00BA01BA0A3F30D7
:10009000FD007D08F600F701F70A0030AF31A22716
:1000A00080310430FD007D082E00BF005B28103039
:1000B000D8002730D900620863040319602861283A
:1000C000782860086104031D6628672878285E0880
:1000D0005F04031D6C286D2878285C085D040319F3
:1000E000722873287C28FF30DC07FF30DD3D7C2838
:1000F000A830DC006130DD00620863040319812848
:100100008228922860086104031987288828922889
:100110005E085F0403198D288E289228AF01B00174
:10012000B301BB012F0830040319972898289C2895
:100130000130AF020030B03B7E1009008031A028B2
:1001400004308400A03085005830860007308700D6
:100150000030FF001030AA31302280319D30840001
:10016000AB308500A0308600073087000030FF00EC
:100170002030AA31302280317D308400AB308500C0
:1001800050308600083087000030FF002030AA3150
:10019000302280310030840020308500F030FE00B5
:1001A0000330FF00AA31242280312D00EF012030DE
:1001B0008400073085002030FE000030FF00AA31A7
:1001C00024228031C0308400073085001F30FE00BB
:1001D0000030FF00AA312422803120308400083012
:1001E00085003030FE000030FF00AA31242280312B
:1001F000A0308400083085003030FE000030FF0061
:10020000AA31242280317E1020009C31122C10341F
:10021000103420345F3400340034003400340034AF
:10022000003400340034003400340034003400342E
:10023000003400340034003400340034003400341E
:10024000003400340034003400340034003400340E
:100250000034003400340034003400340034F83406
:10026000FC34FC34FC34F834003400340034003402
:1002700000340034003400340034003400340034DE
:100280007334733473340034003400340034003475
:1002900000340034003400340034003400341E34A0
:1002A0003E343E340034003400343E343E341E3498
:1002B000003400340034003400340034003400349E
:1002C000003400340034003400340034003400348E
:1002D0000034003400340034303430343034FE34F0
:1002E000FE343034303430343034FE34FE34303484
:1002F00030343034003400340C340C340C347F345B
:100300007F340C340C340C340C347F347F340C3494
:100310000C340C340034003400340034F034F8343D
:100320009834FE3498349834FE3498349834183421
:1003300000340034003400340034003418341934EC
:1003400019347F34193419347F3419341F340F347D
:1003500000340034003400340034003400343834C5
:10036000383438348034C034E034703438340034B5
:1003700000340034003400340034003400341C34C1
:100380000E340734033401341C341C341C34003460
:100390000034003400340034003400343834FC3489
:1003A000C434C434FC343834003400340034803471
:1003B0000034003400340034003400341E343F3440
:1003C0002134213433343F341E341E343734233443
:1003D000003400340034003400340034003420345D
:1003E0003C343C341C3400340034003400340034D9
:1003F000003400340034003400340034003400345D
:10040000003400340034003400340034003400344C
:100410000034003400340034003400340034C0347C
:10042000E034F03438341C340C34043404340034F4
:100430000034003400340034003400340034033419
:1004400007340F341C343834303420342034003432
:1004500000340034003400340034003400340434F8
:1004600004340C341C343834F034E034C0340034F8
:1004700000340034003400340034003400342034BC
:100480002034303438341C340F340734033400340F
:100490000034003400340034003480348834903424
:1004A000E034E034FC34FC34E034E034903488341C
:1004B0008034003400340034003401341134093401
:1004C000073407343F343F340734073409341134D8
:1004D00001340034003400340034003400348034FB
:1004E00080348034F034F03480348034803400340C
:1004F000003400340034003400340034003401345B
:10050000013401340F340F34013401340134003428
:10051000003400340034003400340034003400343B
:10052000003400340034003400340034003400342B
:1005300000340034003400340034003400344034DB
:1005400078347834383400340034003400340034E3
:1005500000340034003400340034003480348034FB
:1005600080348034803480348034803480348034EB
:1005700000340034003400340034003401340134D9
:1005800001340134013401340134013401340134C3
:1005900000340034003400340034003400340034BB
:1005A00000340034003400340034003400340034AB
:1005B000003400340034003400340034003400349B
:1005C00038343834383400340034003400340034E3
:1005D000003400340034003400340034003400347B
:1005E00000340034003400348034C034E0347034DB
:1005F00038341C34003400340034003420343034B7
:1006000038341C340E3407340334013400340034DD
:10061000003400340034003400340034F834FC3446
:10062000FC3404348434E4347434FC34FC34F8345E
:100630000034003400340034003400341F343F34BC
:100640003F342E342734213420343F343F341F3498
:10065000003400340034003400340034603460343A
:100660006034F034FC34FC340034003400340034A2
:10067000003400340034003400340034203420349A
:1006800020343F343F343F3420342034203400348D
:1006900000340034003400340034003418341C3486
:1006A0001C34043404348434CC34FC347834303492
:1006B0000034003400340034003400343034383432
:1006C0003C342E342734233421343834383438340D
:1006D00000340034003400340034003418341C3446
:1006E0001C34843484348434CC347C3478343034D2
:1006F000003400340034003400340034183438340A
:10070000383421342134213433343E341E340C3413
:100710000034003400340034003400348034C034F9
:10072000603430341834FC34FC34FC34003400348D
:100730000034003400340034003400340334033413
:100740000334233423343F343F343F3423342334BD
:10075000003400340034003400340034FC34FC3401
:10076000FC34843484348434843484340434043451
:100770000034003400340034003400341934393487
:10078000393421342134213433343F341F340E348E
:10079000003400340034003400340034E034F034E9
:1007A000F8349C348C34843484348434803400347D
:1007B0000034003400340034003400341F343F343B
:1007C0003F3421342134213421343F343F341F3429
:1007D0000034003400340034003400343C343C3401
:1007E0003C3404340434043404348434FC34FC34A1
:1007F0007C340034003400340034003400340034DD
:10080000003438343C343E3407340334013400348B
:1008100000340034003400340034003478347C3444
:10082000FC34C434C43484348434FC347C347834AC
:100830000034003400340034003400341E343E34BC
:100840003F3421342134233423343F343E341E34A6
:10085000003400340034003400340034F834FC3404
:10086000FC348434843484348434FC34FC34F834EC
:1008700000340034003400340034003400340134D7
:10088000213421342134313439341F340F340734C6
:1008900000340034003400340034003400340034B8
:1008A0000034703470347034003400340034003458
:1008B0000034003400340034003400340034003498
:1008C00000340E340E340E3400340034003400345E
:1008D0000034003400340034003400340034003478
:1008E0000034703470347034003400340034003418
:1008F0000034003400340034003400340034003458
:1009000010341E341E340E340034003400340034ED
:100910000034003400340034003400348034C034F7
:10092000E034703438341C340E340634023400346D
:100930000034003400340034003400340134033413
:1009400007340E341C34383470346034403400348E
:1009500000340034003400340034603460346034D7
:1009600060346034603460346034603460346034E7
:100970006034003400340034003406340634063465
:100980000634063406340634063406340634063497
:1009900006340034003400340034003402340634A9
:1009A0000E341C3438347034E034C03480340034B5
:1009B00000340034003400340034003440346034F7
:1009C000703438341C340E340734033401340034AA
:1009D00000340034003400340034003418341C3443
:1009E0000C340E3406348634CE34FC347C34383443
:1009F0000034003400340034003400340034003457
:100A000000340034733473347334003400340034ED
:100A1000003400340034003400340034FC34FE343C
:100A2000FE3402340234C234C234C234FE34FE34E2
:100A3000FC34003400340034003400343F343F349C
:100A40007F346034603463346334633463344334F8
:100A5000033400340034003400340034E034F03423
:100A6000F8341C340C340C341C34F834F034E034D6
:100A70000034003400340034003400343F343F3458
:100A80003F3402340234023402343F343F343F34C2
:100A90000034003400340034003400340434FC34B6
:100AA000FC34FC34843484348434FC34FC347834B2
:100AB00000340034003400340034003420343F3437
:100AC0003F343F342134213421343F343F341E3409
:100AD000003400340034003400340034F034F8348E
:100AE000FC340C340434043404341C341C34183402
:100AF0000034003400340034003400340F341F3428
:100B00003F343034203420342034383438341834EE
:100B10000034003400340034003400340434FC3435
:100B2000FC34FC34043404340C34FC34F834F03435
:100B300000340034003400340034003420343F34B6
:100B40003F343F342034203430343F341F340F34AA
:100B50000034003400340034003400340434FC34F5
:100B6000FC34FC34843484348434C434CC341C34B5
:100B700000340034003400340034003420343F3476
:100B80003F343F3421342134213423343334383456
:100B90000034003400340034003400340434FC34B5
:100BA000FC34FC34843484348434C434CC341C3475
:100BB00000340034003400340034003420343F3436
:100BC0003F343F34213401340134033403340034DE
:100BD000003400340034003400340034F034F8348D
:100BE000FC340C340434043404343C343C343834A1
:100BF0000034003400340034003400340F341F3427
:100C00003F3430342034223422343E343E343E34B7
:100C1000003400340034003400340034FC34FC343C
:100C2000FC34803480348034FC34FC34FC340034B4
:100C30000034003400340034003400343F343F3496
:100C40003F340134013401343F343F343F34003405
:100C500000340034003400340034003400340434F0
:100C60000434FC34FC34FC340434043400340034E4
:100C700000340034003400340034003400342034B4
:100C800020343F343F343F342034203400340034A7
:100C900000340034003400340034003400340034B4
:100CA0000034003404340434FC34FC34FC340434A4
:100CB000043400340034003400341E341E343E3416
:100CC00020342034203420343F343F341F34003467
:100CD0000034003400340034003400340434FC3474
:100CE000FC34FC34C034E03470343C341C340C34F8
:100CF00000340034003400340034003420343F34F5
:100D00003F343F34033407340E343C343834303409
:100D10000034003400340034003400340434FC3433
:100D2000FC34FC3404340034003400340034003427
:100D300000340034003400340034003420343F34B4
:100D40003F343F34203420342034303438343C3481
:100D5000003400340034003400340034FC34FC34FB
:100D6000FC347834F034E034F0347834FC34FC343F
:100D7000FC34003400340034003400343F343F3459
:100D80003F34003400340134003400343F343F3405
:100D90003F3400340034003400340034FC34FC347C
:100DA000FC347034E034C03480340034FC34FC341F
:100DB000FC34003400340034003400343F343F3419
:100DC0003F34003400340134033407343F343F34BB
:100DD0003F3400340034003400340034E034F03464
:100DE000F8341C340C340C340C341C34F834F03427
:100DF000E0340034003400340034003407340F345D
:100E00001F34383430343034303438341F340F34F5
:100E10000734003400340034003400340434FC342B
:100E2000FC34FC34843484348434FC34FC3478342E
:100E300000340034003400340034003420343F34B3
:100E40003F343F342134013401340134013400345F
:100E5000003400340034003400340034E034F8341A
:100E6000F8341C340C3404340C341C34F834F834A6
:100E7000E0340034003400340034003407341F34CC
:100E80001F34183418345C345E347E347F347F343D
:100E90004734003400340034003400340434FC346B
:100EA000FC34FC34843484348434FC34FC347834AE
:100EB00000340034003400340034003420343F3433
:100EC0003F343F340134013403343F343F343C3445
:100ED0000034003400340034003400347834FC34FE
:100EE000FC348434843484348434BC343C34383426
:100EF0000034003400340034003400341C343C34FA
:100F00003D3421342134213421343F343F341E34E4
:100F10000034003400340034003400341C340C3409
:100F200004340434FC34FC34FC34043404340C3411
:100F30001C340034003400340034003400340034F5
:100F4000203420343F343F343F34203420340034C4
:100F5000003400340034003400340034FC34FC34F9
:100F6000FC34003400340034FC34FC34FC340034F1
:100F70000034003400340034003400341F343F3473
:100F80003F342034203420343F343F341F34003485
:100F9000003400340034003400340034FC34FC34B9
:100FA000FC34003400340034FC34FC34FC340034B1
:100FB00000340034003400340034003407340F347B
:100FC0001F343834303438341F340F34073400348D
:100FD000003400340034003400340034FC34FC3479
:100FE000FC3400340034803400340034FC34FC34ED
:100FF000FC340034003400340034003403340F3443
:101000003F343C343C340F343C343C343F340F34B4
:101010000334003400340034003400341C343C34D5
:101020007C34E034C034E0347C343C341C34003450
:1010300000340034003400340034003438343C349C
:101040003E340734033407343E343C3438340034FF
:101050000034003400340034003400347C34FC3478
:10106000FC34803400348034FC34FC347C34003470
:1010700000340034003400340034003400342034B0
:1010800021343F343F343F342134203400340034A1
:101090000034003400340034003400343C341C3458
:1010A0000C3404348434C434E4347C343C341C3490
:1010B00000340034003400340034003438343C341C
:1010C0003E342734233421342034303438343C3413
:1010D0000034003400340034003400340034003470
:1010E000FC34FC34FC34043404340434043400345C
:1010F0000034003400340034003400340034003450
:101100003F343F343F342034203420342034003402
:101110000034003400340034003400341C343834DB
:101120007034E034C034803400340034003400348F
:10113000003400340034003400340034003400340F
:10114000003400340134033407340E341C341834B2
:10115000303420342034003400340034003400347F
:101160000434043404340434FC34FC34FC340034DB
:1011700000340034003400340034003400340034CF
:1011800020342034203420343F343F343F34003482
:10119000003400340034003400340034203430345F
:1011A00038341C340E340E341C343834303420348B
:1011B000003400340034003400340034003400348F
:1011C000003400340034003400340034003400347F
:1011D000003400340034003400340034003400346F
:1011E000003400340034003400340034003400345F
:1011F0000034003400340034C034C034C034C0344F
:10120000C034C034C034C034C034C034C034C0343E
:10121000C034C034C0340034003400340C340C34D6
:101220003C34303430340034003400340034003482
:10123000003400340034003400340034003400340E
:1012400000340034003400340034003400340034FE
:1012500000340034003400340034003400344034AE
:101260004034403440344034C034C03480340034DE
:101270000034003400340034003400341C343E3474
:101280003E342234223422343F341F343F3420345D
:101290000034003400340034003400340434FC34AE
:1012A000FC34FC34403440344034C034C0348034E6
:1012B00000340034003400340034003420343F342F
:1012C0001F343F342034203420343F343F341F3423
:1012D0000034003400340034003400348034C0342E
:1012E000C034403440344034C034C03480340034DE
:1012F0000034003400340034003400341F343F34F0
:101300003F34203420342034393439341934003413
:101310000034003400340034003400348034C034ED
:10132000C034403440344434FC34FC34FC340434A1
:101330000034003400340034003400341F343F34AF
:101340003F342034203420343F341F343F342034A1
:101350000034003400340034003400348034C034AD
:10136000C034403440344034C034C034803400345D
:101370000034003400340034003400341F343F346F
:101380003F342234223422343B343B341B34003487
:1013900000340034003400340034003480348034AD
:1013A000F834FC34FC3484349C349C3418340034D9
:1013B000003400340034003400340034213421344B
:1013C0003F343F343F34213421340134003400347D
:1013D0000034003400340034003400348034C0342D
:1013E000C034403440344034C0348034C03440349D
:1013F0000034003400340034003400344734CF3437
:10140000DF34983498349834FF34FF347F34003418
:101410000034003400340034003400340434FC342C
:10142000FC34FC34803440344034C034C034803424
:1014300000340034003400340034003420343F34AD
:101440003F343F340134003400343F343F343F34C0
:1014500000340034003400340034003400344034AC
:1014600040344034DC34DC34DC34003400340034C8
:1014700000340034003400340034003400342034AC
:10148000203420343F343F343F342034203420345F
:1014900000340034003400340034003400340034AC
:1014A0000034403440344034DC34DC34DC34003448
:1014B000003400340034003400340034203460340C
:1014C000E03480348034C034FF34FF347F3400345F
:1014D0000034003400340034003400340434FC346C
:1014E000FC34FC34003400348034C034C034403424
:1014F00000340034003400340034003420343F34ED
:101500003F343F34023407340F343D343834303400
:101510000034003400340034003400340034043427
:1015200004340434FC34FC34FC340034003400341F
:1015300000340034003400340034003400342034EB
:10154000203420343F343F343F342034203420349E
:10155000003400340034003400340034C034C0346B
:10156000C03440344034C03440344034C034C034DB
:101570008034003400340034003400343F343F34CD
:101580003F34003400343F34003400343F343F34BF
:101590003F3400340034003400340034C034C034EC
:1015A000C034403440344034C034C034803400341B
:1015B0000034003400340034003400343F343F340D
:1015C0003F340034003400343F343F343F3400347F
:1015D0000034003400340034003400348034C0342B
:1015E000C034403440344034C034C03480340034DB
:1015F0000034003400340034003400341F343F34ED
:101600003F342034203420343F343F341F340034FE
:101610000034003400340034003400344034C0342A
:101620008034C034403440344034C034C03480341A
:101630000034003400340034003400348034FF348B
:10164000FF34FF349034103410341F341F340F34FF
:10165000003400340034003400348034C034C034EA
:10166000403440344034C0348034C03440340034DA
:10167000003400340034003400340F341F341F347D
:10168000103410349034FF34FF34FF34803400348D
:101690000034003400340034003400344034C034AA
:1016A000C034C0348034C034C034C034C03480341A
:1016B00000340034003400340034003420343F342B
:1016C0003F343F34213400340034013401340134D8
:1016D0000034003400340034003400348034C0342A
:1016E000C0344034403440344034C034803400345A
:1016F00000340034003400340034003419343B34F6
:1017000023342634263426343C343D341934003412
:1017100000340034003400340034003440344034A9
:10172000E034F034F8344034403440344034003451
:101730000034003400340034003400340034003409
:101740001F343F343F3420343834383418340034B4
:10175000003400340034003400340034C034C03469
:10176000C034003400340034C034C034C0340034D9
:101770000034003400340034003400341F343F346B
:101780003F342034203420343F341F343F3420345D
:10179000003400340034003400340034C034C03429
:1017A000C034003400340034C034C034C034003499
:1017B00000340034003400340034003407340F3473
:1017C0001F343834303438341F340F340734003485
:1017D000003400340034003400340034C034C034E9
:1017E000C03400340034003400340034C034C03419
:1017F000C0340034003400340034003407340F3473
:101800003F34383438340E34383438343F340F34BD
:10181000073400340034003400340034C034C034A1
:10182000C03400340034C034C034C0340034003418
:10183000003400340034003400340034303439349F
:101840003F340F340F343F343934303400340034F3
:101850000034003400340034003400340034C03428
:10186000C034C034003400340034C034C034C03418
:1018700000340034003400340034003480348734C1
:101880008F349F34D834F83478343F340F340734ED
:10189000003400340034003400340034C034C03428
:1018A000403440344034C034C034C0340034003498
:1018B000003400340034003400340034313438341F
:1018C0003C342E342734233431343834003400345B
:1018D0000034003400340034003400348034803468
:1018E000C03478347C343C34043404340434043458
:1018F0000034003400340034003400340134013446
:1019000003341E343E343C3420342034203420341C
:101910000034003400340034003400340034003427
:1019200000340034FE34FE34FE340034003400341D
:101930000034003400340034003400340034003407
:10194000003400347F347F347F340034003400347A
:1019500000340034003400340034003404340434DF
:10196000043404343C347C347834C03480348034DF
:101970000034003400340034003400342034203487
:10198000203420343C343E341E34033401340134DA
:101990000034003400340034003438343C343C34F7
:1019A00004340C341C343834303420343C343C346B
:1019B0001C3400340034003400340034003400346B
:1019C0000034003400340034003400340034003477
:1019D00000340034003416302100990008002D0036
:1019E0003D083C043B043A040319F72CF82C312D34
:1019F000C301C30A062D0130BA35BB0DBC0DBD0DA8
:101A0000890BFC2C0130C2004208C307BD1F092D01
:101A10000A2DFB2C3D084102031D182D3C084002F5
:101A2000031D182D3B083F02031D182D3A083E02E6
:101A3000031C1B2D1C2D242D3A08BE023B08BF3B66
:101A40003C08C03B3D08C13B0130BD36BC0CBB0C63
:101A5000BA0C890B252D0130C302031D302D312D09
:101A60000A2D4108BD004008BC003F08BB003E08ED
:101A7000BA0008002F00630864040319402D412DAB
:101A8000462D0130E3020030E43B4A2DE830E3000C
:101A90000330E40001306402F53003196302031CD3
:101AA000522D532D562D22000C13582D22000C17A9
:101AB0000B302E00D4006230890B5C2DD40B5C2DD2
:101AC000000020008D1E652D662D3A2D22000C177A
:101AD000B0302D00A0000730A100AB31BD238D3107
:101AE00060302D00A0000830A100AB31BD238D3146
:101AF00050302D00A0000830A100AB31BD238D3146
:101B0000A0302D00A0000730A100AB31BD238D31E6
:101B10009531EC2DB030C3000730C4008230C500D1
:101B2000B030C600AC3156248D3100302D00DC00C1
:101B3000DD00AA3118228D3122000C1022008C10F9
:101B40009631082E2D00A201A20AA301A30A673034
:101B5000AD3121258D31B0302E00C3000730C400D7
:101B60007D30C500B030C600AC3156248D31A03078
:101B70002E00C3000730C4004E30C500B030C60090
:101B80000A302D00A0000030A1002E006708D4000C
:101B9000D50154082D00A2002E0055082D00A300E9
:101BA000A03114208D312D0021082E00C8002D00F9
:101BB00020082E00C7000A302D00A0000030A10030
:101BC0002E006708D600D70156082D00A2002E006F
:101BD00057082D00A300AD31E2258D312D002108DD
:101BE0002E00CA002D0020082E00C900AC3156245A
:101BF0008D312E006708D400D501D601D7015708D2
:101C00002D00AC002E0056082D00AB002E0055080C
:101C10002D00AA002E0054082D00A9000030983194
:101C200001208D312D002C08BE002B08BD002A0894
:101C3000BC002908BB004130BA001930B900D830C7
:101C4000B8009E30B70090310D208D312D003A083C
:101C5000D4003908D3003808D2003708D100A131A8
:101C600046218D312D005208DD005108DC00AA31DB
:101C700018228D313F302D00D400EC30D300CC3011
:101C8000D200CD30D1004130BA002030B900003050
:101C9000B8000030B7002E006708D400D501D60187
:101CA000D70157082D00AC002E0056082D00AB00C0
:101CB0002E0055082D00AA002E0054082D00A90062
:101CC0000030983101208D312D002C08BE002B08EA
:101CD000BD002A08BC002908BB009A315E228D3164
:101CE0002D003A08D8003908D7003808D600370840
:101CF000D500A131BB218D3103187F2E802E832E7C
:101D000022000C14852E22000C102E006708D4002F
:101D1000D50154082D00A2002E0055082D00A30067
:101D20000A30A0000030A100A03114208D312D0018
:101D30002008A9002108AA00890D893B8909AB0068
:101D4000AC000130983101208D312D002C08D400D9
:101D50002B08D3002A08D2002908D1004030D8002F
:101D60000030D7000030D6000030D500A131BB21B3
:101D70008D31031CBC2EBD2E9E2D22008C14A02D57
:101D80000330D40054082D00A200A301A30A673039
:101D9000AD3121258D31B0302E00C3000730C40095
:101DA0003830C500B030C600AC3156248D31A0307B
:101DB0002E00C3000730C4004E30C500B030C6004E
:101DC0000A302D00A0000030A1002E006708D400CA
:101DD000D50154082D00A2002E0055082D00A300A7
:101DE000A03114208D312D0021082E00C8002D00B7
:101DF00020082E00C7000A302D00A0000030A100EE
:101E00002E006708D600D70156082D00A2002E002C
:101E100057082D00A300AD31E2258D312D0021089A
:101E20002E00CA002D0020082E00C900AC31562417
:101E30008D3120000D1E1D2F1E2F222F8C1D212FB6
:101E4000222FF32F60302E00C3000830C4007530FD
:101E5000C500B030C600AC3156248D312E00670865
:101E6000D400D501D601D70157082D00AC002E00B3
:101E700056082D00AB002E0055082D00AA002E009C
:101E800054082D00A9000030983101208D312D001B
:101E90002C08BE002B08BD002A08BC002908BB0086
:101EA0004130BA001930B900D830B8009E30B700C0
:101EB00090310D208D312D003A08D4003908D3001F
:101EC0003808D2003708D100A13146218D312D00CC
:101ED0005208DD005108DC00AA3118228D313F3054
:101EE0002D00D400EC30D300CC30D200CD30D10066
:101EF0004130BA002030B9000030B8000030B700DF
:101F00002E006708D400D501D601D70157082D004F
:101F1000AC002E0056082D00AB002E0055082D00F9
:101F2000AA002E0054082D00A9000030983101208D
:101F30008D312D002C08BE002B08BD002A08BC00E6
:101F40002908BB009A315E228D312D003A08D80055
:101F50003908D7003808D6003708D500A131BB2191
:101F60008D310318B42FB52FB82F22000C14BA2FBF
:101F700022000C102E006708D400D50154082D0053
:101F8000A2002E0055082D00A3000A30A00000304A
:101F9000A100A03114208D312D002008A9002108B6
:101FA000AA00890D893B8909AB00AC00013098314A
:101FB00001208D312D002C08D4002B08D3002A08D5
:101FC000D2002908D1004030D8000030D7000030BE
:101FD000D6000030D500A131BB218D31031CF12F7B
:101FE000F22F9E2DBD2E60302E00C3000830C4009D
:101FF0006430C500B030C600AC3156248D31952D0B
:10200000CF3021009E00D330290091000230920091
:102010008E018F012530900008002D003A0880398C
:10202000BF003F08C4003A35BF003F08CA00B91FCF
:102030001A281B281C284A144A080319202821287A
:1020400030284A0A031D252826282E280030BA00E9
:102050000030B9000030B8000030B700B917382898
:102060000030BA000030B9000030B8000030B700CE
:102070003E088039BF003F08C4063E35BF003F0818
:10208000C500BD1F442845284628451445080319A6
:102090004A284B285A28450A031D4F2850285828FB
:1020A0000030BE000030BD000030BC000030BB007E
:1020B000BD1762280030BE000030BD000030BC00FB
:1020C0000030BB0045080319662867286C284A08B9
:1020D000031D6B286C2875280030BA000030B90049
:1020E0000030B8000030B700632A3708BF003F084F
:1020F000A0003D08AB31DF2390312D002108D00036
:102100002008CF004F08BF00C001C101C201420832
:10211000C9004108C8004008C7003F08C600500871
:10212000BF00C001C101C2014208CE004108CD007C
:102130004008CC003F08CB003808BF003F08A00093
:102140003C08AB31DF2390312D002108D00020085E
:10215000CF004F08BF00C001C101C2013F08C60740
:102160004008C73D4108C83D4208C93D5008BF006E
:10217000C001C101C2013F08CB074008CC3D410866
:10218000CD3D4208CE3D3908BF003F08A0003B08C6
:10219000AB31DF2390312D002108D0002008CF0083
:1021A0004F08BF00C001C101C2013F08C607400877
:1021B000C73D4108C83D4208C93D5008BF00C001A5
:1021C000C101C2013F08CB074008CC3D4108CD3DCD
:1021D0004208CE3D0830C635C70DC80DC90D890B64
:1021E000EB283808BF003F08A0003B08AB31DF23D5
:1021F00090312D002108D0002008CF004F08C607DD
:102200005008C73D0030C83DC93D3708BF003F08F2
:10221000A0003C08AB31DF2390312D002108D00015
:102220002008CF004F08C6075008C73D0030C83D02
:10223000C93D0830C635C70DC80DC90D890B1A290F
:102240003708BF003F08A0003B08AB31DF239031C7
:102250002D002108D0002008CF004F08C6075008E5
:10226000C73D0030C83DC93D3808BF003F08A00049
:102270003D08AB31DF2390312D002108D00020082C
:10228000CF004F08CB075008CC3D0030CD3DCE3DB0
:102290003908BF003F08A0003C08AB31DF23903174
:1022A0002D002108D0002008CF004F08CB07500890
:1022B000CC3D0030CD3DCE3D3908BF003F08A000E9
:1022C0003D08AB31DF2390312D002108D0002008DC
:1022D000CF004F08BF005008C000C101C201083044
:1022E000BF35C00DC10DC20D890B70293F08CB074A
:1022F0004008CC3D4108CD3D4208CE3D4608BF00D8
:102300004708C0004808C1004908C2001830C2365A
:10231000C10CC00CBF0C890B87293F08CB074008B4
:10232000CC3D4108CD3D4208CE3D0830C635C70DF5
:10233000C80DC90D890B96294A084507BF00C00181
:10234000C00D3F08823ECF00FF30403DD000BF2986
:102350000130CB35CC0DCD0DCE0D890BA929C91F70
:10236000B229B329B4294B140130C635C70DC80DA5
:10237000C90D890BB529FF30CF07FF30D03DCD1FE8
:10238000C229C329A829C501C91FC729C829E42909
:10239000FF304605BF00FF304705C000FF3048054D
:1023A000C1007F304905C2004208410440043F0497
:1023B0000319DB29DC29DF29C501C50AE4294B1CE7
:1023C000E229E329E429DC2945080319E829E92958
:1023D000112A0130CB070030CC3D0030CD3D00301C
:1023E000CE3D4E1CF429F529112A4B08BF004C089C
:1023F000C0004D08C1004E08C2000130C300C23702
:10240000C10CC00CBF0CC30BFF294208CE00410811
:10241000CD004008CC003F08CB000130CF07003092
:10242000D03D5008803ABF0080303F02031D1A2A79
:10243000FF304F02031C1D2A1E2A282A7F302D0040
:10244000CE008030CD000030CC000030CB00572AC9
:102450002D005008803ABF0080303F02031D322A11
:1024600001304F020318352A362A412A00302D0048
:10247000CE000030CD000030CC000030CB00C401D5
:10248000572A2D004F08BF003F08CA00FF30CB0578
:10249000FF30CC057F30CD050030CE054A1C512AD7
:1024A000522A532ACD174A36BF003F08CE004408AF
:1024B000BF003F08CE044E08BA004D08B9004C08D2
:1024C000B8004B08B700080029000F082E00B20022
:1024D00029000E082E00B10031082D00A9002E00A1
:1024E00032082D00AA00AB01AC0100309831012068
:1024F00092312D002C08BE002B08BD002A08BC001C
:102500002908BB003F30BA008630B9006630B800F9
:102510006630B70090310D2092312D003A08D4007A
:102520003908D3003808D2003708D100A13146213C
:1025300092312D0052082E00B2002D0051082E00BD
:10254000B100E8302D00AF000330B0002E0032089B
:102550002D00AA002E0031082D00A9000A30AB0082
:102560000030AC00AB315D2392312D002A08B2005F
:102570002908B100AD315E2592312D0030082F00C1
:10258000E0002D002F082F00DF0000302D00BD00DF
:102590000030BC000030BB000A30BA000030AF0091
:1025A0000030AE000330AD00E830AC002E00310842
:1025B0002D00A0002E0032082D00A100A201A301D1
:1025C0000030A7000030A6000030A5006430A40051
:1025D000AC31812492312D002308B3002208B200CF
:1025E0002108B1002008B000AE31EA2692312D005A
:1025F0002F08C1002E08C0002D08BF002C08BE0007
:102600008C31EF2492312D003B082F00E2002D0089
:102610003A082F00E100B0302E00C3000730C4009C
:102620002030C500B030C600AC3156249231503055
:102630002E00C3000830C4008630C500B030C6008C
:10264000AC31562492312E003408031D282B292B3F
:10265000492B1430D4005408B400A030C300073014
:10266000C4002C30C500B030C6002F0060082E001A
:10267000C8002F005F082E00C7002F0062082E0040
:10268000CA002F0061082E00C900AC3156249231D7
:10269000742B2F00E501E6016608803A2E00D40075
:1026A00080305402031D572B10302F006502031C8D
:1026B0005A2B5B2B5C2B742B2F006508203E860069
:1026C0000830870001082E00D4002F006508A03EC6
:1026D0008600073087002E005408810001302F004B
:1026E000E5070030E63D4C2B20000D1E782B792BA2
:1026F0007D2B8C1D7C2B7D2BB42C60302E00C300D9
:102700000830C4007530C500B030C600AC31562466
:1027100092312E0031082D00A9002E0032082D0024
:10272000AA00AB01AC0100309831012092312D009C
:102730002C08BE002B08BD002A08BC002908BB00DD
:102740003F30BA008630B9006630B8006630B70056
:102750009A315E2292312D003A08D4003908D30014
:102760003808D2003708D100A131462192312D001E
:102770005208DD005108DC00AA31182292313F30A6
:102780002D00D400F330D3003330D2003330D100E9
:102790004230BA00C830B9000030B8000030B7008D
:1027A0002E0031082D00A9002E0032082D00AA00AD
:1027B000AB01AC0100309831012092312D002C0882
:1027C000BE002B08BD002A08BC002908BB009A31B6
:1027D0005E2292312D003A08D8003908D700380817
:1027E000D6003708D500A131BB2192310318F92B4F
:1027F000FA2BFD2B22000C143A2C42302D00BA008B
:10280000C830B9000030B8000030B7002E003108E1
:102810002D00A9002E0032082D00AA00AB01AC014A
:1028200000309831012092312D002C08BE002B0879
:10283000BD002A08BC002908BB009A315E229231F3
:102840002D003A08D4003908D3003808D2003708E0
:10285000D1003F30D800E630D7006630D600663071
:10286000D500A131BB2192310318372C382C3A2CDA
:1028700022000C1040302D00D4000330D300333040
:10288000D2003330D1004230BA00C830B900003035
:10289000B8000030B7002E0031082D00A9002E002E
:1028A00032082D00AA00AB01AC01003098310120A4
:1028B00092312D002C08BE002B08BD002A08BC0058
:1028C0002908BB009A315E2292312D003A08D800C7
:1028D0003908D7003808D6003708D500A131BB2108
:1028E00092310318742C752C772C8E31BD2E42300A
:1028F0002D00BA00C830B9000030B8000030B70071
:102900002E0031082D00A9002E0032082D00AA004B
:10291000AB01AC0100309831012092312D002C0820
:10292000BE002B08BD002A08BC002908BB009A3154
:102930005E2292312D003A08D4003908D3003808BD
:10294000D2003708D1003F30D800F930D700993095
:10295000D6009A30D500A131BB2192310318B12C99
:10296000B22C082E8D319E2D60302E00C300083011
:10297000C4006430C500B030C600AC31562492317A
:102980008D31952D0230D40054082D00A200A301F2
:10299000A30A6630AD3121259231B0302E00C3003C
:1029A0000730C4004330C500B030C600AC315624F7
:1029B0009231A0302E00C3000730C4004E30C50055
:1029C000B030C6000A302D00A0000030A1002E005B
:1029D0006608D400D50154082D00A2002E00550829
:1029E0002D00A300A031142092312D0021082E00CB
:1029F000C8002D0020082E00C7000A302D00A000BE
:102A00000030A1002E006608D600D70156082D0020
:102A1000A2002E0057082D00A300AD31E22592310F
:102A20002D0021082E00CA002D0020082E00C9000C
:102A3000AC31562492312E006608D400D501D6015F
:102A4000D70157082D00AC002E0056082D00AB0012
:102A50002E0055082D00AA002E0054082D00A900B4
:102A600000309831012092312D002C08BE002B0837
:102A7000BD002A08BC002908BB004130BA0019304B
:102A8000B900D830B8009E30B70090310D20923197
:102A90002D003A08D4003908D3003808D20037088E
:102AA000D100A131462192312D005208DD0051089C
:102AB000DC00AA31182292313F302D00D400EC30D6
:102AC000D300CC30D200CD30D1004130BA0020301C
:102AD000B9000030B8000030B7002E006608D400FE
:102AE000D501D601D70157082D00AC002E0056089D
:102AF0002D00AB002E0055082D00AA002E00540812
:102B00002D00A90000309831012092312D002C08B1
:102B1000BE002B08BD002A08BC002908BB009A3162
:102B20005E2292312D003A08D8003908D7003808C3
:102B3000D6003708D500A131BB2192310318A12D51
:102B4000A22DA52D22000C14A72D22000C102E0062
:102B50006608D400D50154082D00A2002E005508A7
:102B60002D00A3000A30A0000030A100A0311420E5
:102B700092312D002008A9002108AA00890D893B67
:102B80008909AB00AC0001309831012092312D0051
:102B90002C08D4002B08D3002A08D2002908D10021
:102BA0004030D8000030D7000030D6000030D500CB
:102BB000A131BB219231031CDE2DDF2DB22C752CEF
:102BC000B030C3000730C4005930C500B030C60073
:102BD000AC3156249231C02C2E003F08D400D501D0
:102BE0005508003A0319F52DE02D5408003A8D31AF
:102BF0000319A22D013A03198A2D9231033A0319C0
:102C0000FE2F013A0319642A073A0319C22CE02D5A
:102C10009831AE2092312E00B50120008D18112E72
:102C2000122E222E01302E00D4005408B50762085F
:102C3000630403191C2E1D2E272EFF30E207FF30E0
:102C4000E33D272E14302E00E2000030E300200088
:102C50000D192B2E2C2E3C2E01302E00D4005408A2
:102C6000B507600861040319362E372E412EFF3058
:102C7000E007FF30E13D412E14302E00E00000302F
:102C8000E10020000D18452E462E562E01302E0054
:102C9000D4005408B5075E085F040319502E512E66
:102CA0005B2EFF30DE07FF30DF3D5B2E14302E0041
:102CB000DE000030DF003503031D5F2E602E972FEE
:102CC000640865040319652E662E6B2EFF30E40739
:102CD000FF30E53D9B2F62086304031D702E712EAB
:102CE000DB2E20008D1E752E762EDB2E0D1D792EEF
:102CF0007A2EDB2E2E002F083004031D802E812E0D
:102D0000DB2E043033020318862E872E8F2E0130DF
:102D1000D4005408B307D030AF000730B0003A08F1
:102D20000319932E942EAA2E643066020318992E4E
:102D30009A2EDB2E0130D4005408E6076630D4000A
:102D400054082D00A600A701A70A0230A031742064
:102D50009231DB2E643067020318AF2EB02EDB2ECB
:102D60003F08031DB42EB52EC52E0130D4005408E3
:102D7000E7076730D40054082D00A600A701A70A72
:102D80000130A03174209231DB2E02303F06031D4A
:102D9000CA2ECB2EDB2E0130D4005408E707673053
:102DA000D40054082D00A600A701A70A0330A031C3
:102DB00074209231DB2E2E0060086104031DE12E89
:102DC000E22E442F20008D1EE62EE72E442F8D1C70
:102DD000EA2EEB2E442F2E002F083004031DF12E77
:102DE000F22E442F043033020318F72EF82E002F52
:102DF0000130D4005408B307D030AF000730B00022
:102E00003A080319042F052F182F66080319092FF4
:102E10000A2F442F0130E6026630D40054082D00FA
:102E2000A600A701A70A0230A03174209231442FD6
:102E3000670803191C2F1D2F442F3F08031D212F46
:102E4000222F302F0130E7026730D40054082D00C4
:102E5000A600A701A70A0130A03174209231442FA7
:102E600002303F06031D352F362F442F0130E70275
:102E70006730D40054082D00A600A701A70A03302C
:102E8000A03174209231442F2E005E085F04031D90
:102E90004A2F4B2F9B2F3B08031D4F2F502F9B2F4B
:102EA000BB01BB0A3A080319562F572F5A2FDA01D4
:102EB000DB019B2F20008D1C5E2F5F2F9B2F0D1D94
:102EC000622F632F9B2F04302E003F06031D692FB6
:102ED0006A2F732FBA012D00A201A301A30A3F306C
:102EE000AD312125923103302E003F020318792F96
:102EF0007A2F8A2F0130D4005408BF073F30D40006
:102F000054082D00A600A701A70A0030A0317420A4
:102F100092319B2FBF013F30D40054082D00A600F2
:102F2000A701A70A0030A031742092319B2F1430E2
:102F3000E4000030E5002E0034080319A02FA12F73
:102F4000A32F0130B4025A085B04031DA82FA92F38
:102F5000B22FBA012D00A201A301A30A3F30AD3167
:102F6000212592312E005C085D04031DB82FBA2F75
:102F70009C31872CBA01DA01DB01B8010530D4009D
:102F80005408BF003230D4005408E7006430D40045
:102F90005408E600B101B2013F30D40054082D00BE
:102FA000A600A701A70A0030A03174209231673033
:102FB0002E00D40054082D00A600A701A70A013056
:102FC000A0317420923167302E00D40054082D00B7
:102FD000A600A701A70A0330A03174209231663001
:102FE0002E00D40054082D00A600A701A70A023025
:102FF000A03174209231B82F80319E288E31C02E9E
:1030000008002D00B10031080319072808281C28E2
:10301000AC1F0B280C281C282909B3002A09B4006E
:103020002B09B5002C09B600B30A0319B40A031919
:10303000B50A0319B60A24282C08B6002B08B500D7
:103040002A08B4002908B3002C082B042A042904F8
:10305000031D2B282C2835280030AC000030AB0095
:103060000030AA000030A900AD289630AD002D0830
:10307000B20045280130AD002D08B2070130B63648
:10308000B50CB40CB30C890B3F28FE303605031D7C
:103090004A284B283A285F280130AD002D08B20796
:1030A0000130B3070030B43D0030B53D0030B63DCF
:1030B0000130B636B50CB40CB30C890B5928FF306F
:1030C0003605031D642865284C286F280130B2029C
:1030D0000130B335B40DB50DB60D890B6928B51B9C
:1030E0007228732879280230320203187828792848
:1030F000662832187C287D288528FF30B305FF30EC
:10310000B4057F30B505FF30B6050310B20C3208A8
:10311000AD00AE01AF01B0011830AD35AE0DAF0D51
:10312000B00D890B8D282D08B3042E08B4042F0888
:10313000B5043008B604310803199F28A028A52833
:10314000AC1FA328A428A528B6173608AC0035085C
:10315000AB003408AA003308A90008002D00D901EB
:10316000DA012D005908B03E860007308700590863
:10317000403E840008308500000801060319C1287C
:10318000C228FB282E002208FC3E2D00A900FF309B
:1031900003180030AA005A08AC005908AB00AB3144
:1031A0005D2398312D002A08D8002908D700580837
:1031B000B7005708B6000030B800B9005908B03E53
:1031C0008600073087000108D6005608BA009D31F6
:1031D000D82598312D005908B03E86000730870069
:1031E0000108D6005908403E86000830870056087E
:1031F0008100EF01EF0A0130D9070030DA3D5A08AB
:10320000803AD60080305602031D0829103059023A
:10321000031C0B290C29B1282D00DB01DC012D003A
:103220005B08603E8600083087005B08303E840003
:10323000083085000008010603191F2920295B2991
:103240002E002208FC3E2D00A900FF30031800309C
:10325000AA005C08AC005B08AB00AB315D23983181
:103260002D002A08D8002908D7005808B7005708A9
:10327000B6001030B8000030B9005B08603E860030
:10328000083087000108D6005608BA009D31D825BD
:1032900098312D005B08603E8600083087000108E9
:1032A000D6005B08303E8600083087005608810053
:1032B0002E00BE01BE0A01302D00DB070030DC3DD0
:1032C0005C08803AD60080305602031D6929103010
:1032D0005B02031C6C296D290F292D00DD01DE0125
:1032E0002D005D08503E8600083087005D08A03E36
:1032F000840008308500000801060319802981290F
:10330000BC292E002208FC3E2D00A900FF30031826
:103310000030AA005E08AC005D08AB00AB315D2355
:1033200098312D002A08D8002908D7005808B7007E
:103330005708B6002030B8000030B9005D08503E94
:103340008600083087000108D6005608BA009D3173
:10335000D82598312D005D08503E86000830870042
:103360000108D6005D08A03E860008308700560898
:1033700081002E00BD01BD0A01302D00DD070030A7
:10338000DE3D5E08803AD60080305602031DCA2911
:1033900010305D02031CCD29CE2970292D00DF01DC
:1033A000E0012D005F08A03E8600073087005F081F
:1033B000203E840008308500000801060319E12939
:1033C000E2291D2A2E002208FC3E2D00A900FF3014
:1033D00003180030AA006008AC005F08AB00AB31F6
:1033E0005D2398312D002A08D8002908D7005808F5
:1033F000B7005708B6003030B8000030B9005F0899
:10340000A03E8600073087000108D6005608BA00A3
:103410009D31D82598312D005F08A03E86000730E9
:1034200087000108D6005F08203E8600083087002C
:10343000560881002E00BC01BC0A01302D00DF07B8
:103440000030E03D6008803AD60080305602031D0F
:103450002B2A10305F02031C2E2A2F2AD1292D007F
:103460006F080319342A352A3B2A0030A031D520B1
:1034700098312D00EF012E003E080319402A412A01
:10348000472A0230A031D52098312E00BE013D08D8
:1034900003194B2A4C2A522A0430A031D5209831E6
:1034A0002E00BD013C080319562A572A5D2A063012
:1034B000A031D52098312E00BC0108002D003E0817
:1034C0008039BF003F08C8003E35BF003F08CF002D
:1034D000BD1F6B2A6C2A6D2A4F144F080319712ADD
:1034E000722A822A4F0A031D762A772A7F2A003001
:1034F000BE000030BD000030BC000030BB00BD1776
:10350000BE018A2A0030BE000030BD000030BC0081
:103510000030BB003A088039BF003F08C8063A3582
:10352000BF003F08D000B91F962A972A982A501446
:10353000500803199C2A9D2AAD2A500A031DA12A6E
:10354000A22AAA2A0030BA000030B9000030B80020
:103550000030B700B917BA01B52A0030BA00003000
:10356000B9000030B8000030B7003A083904380418
:103570003704031DBC2ABD2AD62A0030BE00003005
:10358000BD000030BC000030BB008030BD047F3087
:10359000BE044808BF003F08BE043E08BA003D080C
:1035A000B9003C08B8003B08B700112C4F08031DB8
:1035B000DA2ADB2AE42A0030BA000030B9000030F1
:1035C000B8000030B700112C4F08BF00C001400800
:1035D000C20050083F02C100031CC20341087F3EE5
:1035E000C9000030423DCA003E08C7003D08C60081
:1035F0003C08C5003B08C4000030BE000030BD00E0
:103600000030BC000030BB000030CE000030CD00E8
:103610000030CC000030CB00D0014C2B50080319F7
:10362000122B132B2D2B0130C435C50DC60DC70D24
:10363000890B142B0130BB35BC0DBD0DBE0D890BA4
:103640001B2BCE1F242B252B262B3B140130CB35D7
:10365000CC0DCD0DCE0D890B272B3A084702031D4B
:103660003B2B39084602031D3B2B38084502031D3E
:103670003B2B37084402031C3E2B3F2B482B4E1795
:103680003708C4023808C53B3908C63B3A08C73B6F
:103690000130BF003F08D0071A305002031C512BE5
:1036A000522B0E2B47084604450444040319592B9A
:1036B0005A2B732B4B14732B0130BB35BC0DBD0D36
:1036C000BE0D890B5D2BCE1F662B672B682B3B1421
:1036D0000130CB35CC0DCD0DCE0D890B692BFF30D4
:1036E000C907FF30CA3DBD1F762B772B5C2BD0015D
:1036F000CE1F7B2B7C2B982BFF304B05BF00FF3060
:103700004C05C000FF304D05C1007F304E05C200A2
:103710004208410440043F0403198F2B902B932B44
:10372000D001D00A982B3B1C962B972B982B902BD3
:10373000500803199C2B9D2BC52B0130BB07003073
:10374000BC3D0030BD3D0030BE3D3E1CA82BA92B2A
:10375000C52B3B08BF003C08C0003D08C1003E0827
:10376000C2000130C300C237C10CC00CBF0CC30B78
:10377000B32B4208BE004108BD004008BC003F0812
:10378000BB000130C9070030CA3D4A08803ABF007B
:1037900080303F02031DCE2BFF304902031CD12B8A
:1037A000D22BDF2BFF302D00C9000030CA000030C3
:1037B000BE000030BD000030BC000030BB002D005A
:1037C0004A08803ABF0080303F02031DE92B0130D8
:1037D00049020318EC2BED2BF92B2D00C901CA016E
:1037E0000030BE000030BD000030BC000030BB0027
:1037F000C8012D004908BF003F08CF004F1C012C15
:10380000022C042CBD17082C7F30BF003F08BD05DB
:103810004F36BF003F08BE004808BF003F08BE0447
:10382000CD2A0800AA3181229C318B170B17053055
:103830002E00D5000F30D400F130890B1D2CD40B95
:103840001D2CD50B1D2C2D00A201A301A30A3F3076
:10385000AD3121259C312D00A201A20AA301A30AAA
:103860006730AD3121259C3102302E00D400540840
:103870002D00A200A301A30A6630AD3121259C31A1
:1038800065302E006702031C462C472C622C323018
:10389000D4005408E7006730D40054082D00A60077
:1038A000A701A70A0130A03174209C3167302E0097
:1038B000D40054082D00A600A701A70A0330A031A8
:1038C00074209C3165302E006602031C682C692C24
:1038D000782C6430D4005408E6006630D4005408D4
:1038E0002D00A600A701A70A0230A03174209C3148
:1038F000A23146229C3105302E00D5000F30D40075
:10390000F130890B812CD40B812CD50B812C20001C
:103910008D1A8B2C8D2C8D31662D02302E00D4000B
:1039200054082D00A200A301A30A6630AD31212561
:103930009C31B0302D00A0000730A100AB31BD2379
:103940009C31B0302E00C3000730C4006D30C5007C
:10395000B030C600AC3156249C3160302D00A00040
:103960000830A100AB31BD239C3150302D00A000A8
:103970000830A100AB31BD239C31A0302D00A00048
:103980000730A100AB31BD239C31A0302E00C30015
:103990000730C4004E30C500B030C6000A302D00DC
:1039A000A0000030A1002E006608D400D501540804
:1039B0002D00A2002E0055082D00A300A0311420D8
:1039C0009C312D0021082E00C8002D0020082E005B
:1039D000C7000A302D00A0000030A1002E006608AC
:1039E000D600D70156082D00A2002E0057082D0042
:1039F000A300AD31E2259C312D0021082E00CA0024
:103A00002D0020082E00C900AC3156249C312E0018
:103A10006608D400D501D601D70157082D00AC00A7
:103A20002E0056082D00AB002E0055082D00AA00D0
:103A30002E0054082D00A9000030983101209C313F
:103A40002D002C08BE002B08BD002A08BC00290848
:103A5000BB004130BA001930B900D830B8009E30F0
:103A6000B70090310D209C312D003A08D400390860
:103A7000D3003808D2003708D100A13146219C314B
:103A80002D005208DD005108DC00AA3118229C31BB
:103A90003F302D00D400EC30D300CC30D200CD30FC
:103AA000D1004130BA002030B9000030B8000030F9
:103AB000B7002E006608D400D501D601D7015708FB
:103AC0002D00AC002E0056082D00AB002E0055082E
:103AD0002D00AA002E0054082D00A90000309831B6
:103AE00001209C312D002C08BE002B08BD002A08A7
:103AF000BC002908BB009A315E229C312D003A0897
:103B0000D8003908D7003808D6003708D500A131C9
:103B1000BB219C3103188D2D8E2D912D22000C146C
:103B2000932D22000C102E006608D400D5015408F5
:103B30002D00A2002E0055082D00A3000A30A00081
:103B40000030A100A03114209C312D002008A900D4
:103B50002108AA00890D893B8909AB00AC0001301E
:103B6000983101209C312D002C08D4002B08D30063
:103B70002A08D2002908D1004030D8000030D700F0
:103B80000030D6000030D500A131BB219C31031C90
:103B9000CA2DCB2DCE2D22008C14D02D22008C10BE
:103BA0009831AE209C312F00E301E4018D31612D6D
:103BB0002D00D101D201D301D401C301C4012E00D3
:103BC00023080739031DE52DE62D142F22082D00AB
:103BD000BB00BC013B08A9003C08AA000830A000BB
:103BE0000030A1002E0023082D00BD00BE013D08BD
:103BF000A2003E08A300A03114209D312D00210811
:103C0000AC002008AB00AB315D239D312D002A08AC
:103C1000C8002908C7002E0024082D003A02A90078
:103C2000AA01031CAA034808AC004708AB00AB314B
:103C30005D239D312D002908043ECB0000302A3D34
:103C4000CC00D101D201F82E0230D3000030D400D4
:103C5000E12E2E0022082D00BB00BC013B08A9006C
:103C60003C08AA005208AC005108AB00AB315D2300
:103C70009D312D0029082E0020072D00BD002A08A7
:103C80002E00213D2D00BE004B083D07BF004C0813
:103C90003E3DC0003F08530784004008543D850066
:103CA0000008C100C2014108C3004208C400D50198
:103CB0000130BB000030BC00550A602EBB35BC0D86
:103CC000890B5E2E43083B05BD0044083C05BE0041
:103CD0003D083E0403196D2E6E2ECB2E2E002608B5
:103CE000031D732E742EA02E2D0053083607BB0023
:103CF0005408373DBC003B08FE3EA900FF303C3D68
:103D0000AA005508BD00BE015208C0005108BF00FE
:103D1000BF35C00DBF35C00DBF35C00D3D083F07D5
:103D2000C1003E08403DC20038084107AB003908D9
:103D3000423DAC00AD01AD0AA231D9229D31D22E57
:103D40002D0053083607BB005408373DBC003B0824
:103D5000FE3EA900FF303C3DAA005508BD00BE0153
:103D60005208C0005108BF00BF35C00DBF35C00D9F
:103D7000BF35C00D3D083F07C1003E08403DC200B1
:103D800038084107AB003908423DAC00AD01A23113
:103D9000D9229D31D22E2E002608031DD02ED12EE1
:103DA000742EA02E01302D00BB003B08D507083033
:103DB0005502031CDC2EDD2E582E0130D3070030B7
:103DC000D43D2E002208FE3E2D00BB00FF3003181C
:103DD0000030BC003C085402031DF02E3B08530287
:103DE000031CF32EF42E292E0130D1070030D23DD2
:103DF0000830A0000030A1002E0023082D00BB00D9
:103E0000BC013B08A2003C08A300A03114209D3156
:103E10002D0021085202031D0F2F20085102031C00
:103E2000122F132F242EFF2F08302D00A00000305A
:103E3000A1002E0022082D00BB00BC013B08A900F8
:103E40003C08AA002E0023082D00BD00BE013D083D
:103E5000AB003E08AC00AB315D239D312D002A083C
:103E6000A3002908A200A03114209D312D002108B3
:103E7000C8002008C7002E0024082D003A02A9001F
:103E8000AA01031CAA034808AC004708AB00AB31E9
:103E90005D239D312D002908043ECB0000302A3DD2
:103EA000CC002E0020082D004B0784002E00210896
:103EB0002D004C3D85000008BB00BC013B08C5003F
:103EC0003C08C6000730C9000030CA00CD01CE0151
:103ED000F02F2D00CF01D001DC2F01302D00BB00D1
:103EE0000030BC00490A762FBB35BC0D890B742FFE
:103EF00045083B05BD0046083C05BE003D083E04A4
:103F00000319832F842FAF2F2E002608031D892F1E
:103F10008A2F9D2F2D004D083607A9004E08373DEA
:103F2000AA004F083807AB005008393DAC00AD017E
:103F3000AD0AA231D9229D31B62F2D004D0836078A
:103F4000A9004E08373DAA004F083807AB005008BB
:103F5000393DAC00AD01A231D9229D31B62F2E00E2
:103F60002608031DB42FB52F8A2F9D2FFF302D005B
:103F7000C907FF30CA3DCA1FBE2FBF2FD82F073039
:103F8000C9000030CA000130CB070030CC3D2E0004
:103F900020082D004B0784002E0021082D004C3DE9
:103FA00085000008BB00BC013B08C5003C08C600FA
:103FB0000130CF070030D03D5008803ABB00803040
:103FC0003B02031DE72F2E0023082D004F02031C88
:103FD000EA2FEB2F6D2F01302D00CD070030CE3DA5
:103FE0004E08803ABB0080303B02031DFB2F2E00A1
:103FF00022082D004D02031CFE2FFF2F692F080001
:1040040040300800103427345034C334A8346134A9
:1040140014340034143400341434003414340034AC
:10402400643432342D00A601A11F19281A2821282E
:10403400A009A109A00A0319A10AA601A60AA31F9F
:10404400242825282E28A209A309A20A0319A30AB1
:104054000130A4002408A606A701A8012008210411
:104064000319352836286528A501A50A42280130F8
:10407400A035A10D890B3A280130A4002408A50716
:10408400A11F4528462839280130A735A80D890BDA
:10409400472821082302031D512820082202031C5B
:1040A400542855285A282008A2022108A33B271483
:1040B4000130A136A00C890B5B280130A502031D39
:1040C4006428652846282608031969286A286F2861
:1040D400A709A809A70A0319A80A2808A1002708FC
:1040E400A00008002D00AA002A08A800A901053094
:1040F400A835A90D890B7A282808803EAB003F30EB
:10410400293DAC0021302702031889288A28D428A5
:1041140004302A02031C8F2890289128D4282C08C4
:10412400A1002B08A000AB310023A031B8282C0833
:10413400A1002B08A000260886000730870001088C
:10414400A800A9012808A2002908A300A401A40A20
:10415400AC312C24A03101302D00A8002808A6077A
:104164000130AB070030AC3D0130A70202302D0016
:1041740027020318BE28BF2899282C08A1002B0861
:10418400A00026088600073087000108A800A901BE
:104194002808A2002908A300A401AC312C24A031D2
:1041A4002300150808002D00AA00A9012130AA3116
:1041B4006B22A0310030AA316B22A0317F30AA31AA
:1041C4006B22A0312230AA316B22A0312D002A08A3
:1041D400AA316B22A0312D002A08013EAA316B229C
:1041E400A031A931DC21A0317830AA314922A03193
:1041F4004030AA314922A0312D002A08A300A4018D
:104204000730A335A40D890B03292308A70024082C
:10421400A8002A29A9010030A3002030A4002708FF
:10422400230786002808243D87000108AA31492273
:10423400A03101302D00A7070030A83D0130A300B4
:104244002308A90710302902031C29292A290D292A
:104254002A08A300A4010730A335A40D890B2E2935
:104264002308003EA5000130243DA60026082802AC
:10427400031D3E2925082702031C412942290C2934
:10428400A931D521A031080003102D00530D540D80
:10429400D5005508DB005B08031D512952295B2911
:1042A4000030D4000030D3000030D2000030D10000
:1042B400BA295108D5005208D6005308D70054082B
:1042C400D8001F30D836D70CD60CD50C890B6429EE
:1042D4005508D9005908DA00D317FF30D105FF304B
:1042E400D205FF30D3050030D4059630DB02DB1F46
:1042F4007C297D2995295B08803A973E03188329F8
:104304008429852952290130D436D30CD20CD10CFE
:10431400890B86290130D5005508DB07031D932935
:1043240094298529AA2920305B02031C9A299B29F8
:10433400A52952290130D135D20DD30DD40D890BC5
:104344009D290130DB025B08031DA929AA299C29A8
:104354005A080319AE29AF29BA29D109D209D309B8
:10436400D409D10A0319D20A0319D30A0319D40AA6
:10437400080000302D005105D90000305205DA0044
:1043840080305305DB007F305405DC005C085B049F
:104394005A045904031DCF29D029D8290030D40048
:1043A4000030D3000030D2000030D1000030550579
:1043B400D90000305605DA0080305705DB007F3025
:1043C4005805DC005C085B045A045904031DEB29FE
:1043D400EC29F4290030D8000030D7000030D60092
:1043E4000030D500D41FF729F829102A0030D9004D
:1043F4000030DA000030DB008030DC005108D902E4
:104404005208DA3B5308DB3B5408DC3B5C08D4001D
:104414005B08D3005A08D2005908D100D81F132AC8
:10442400142A2C2A0030D9000030DA000030DB00D6
:104434008030DC005508D9025608DA3B5708DB3BCC
:104444005808DC3B5C08D8005B08D7005A08D60043
:104454005908D5008030D4068030D8065808540254
:10446400031D3E2A57085302031D3E2A56085202D2
:10447400031D3E2A550851020318412A422A442AA0
:104484000310452A031408000130AB313D23A23147
:10449400A931D521A23105302D00A9000F30A80083
:1044A400F130890B532AA80B532AA90B532AAE3097
:1044B400AA316B22A231D530AA316B22A231F0305D
:1044C400AA316B22A231A830AA316B22A2313F302B
:1044D400AA316B22A231D330AA316B22A23100302F
:1044E400AA316B22A2314030AA316B22A2318D3025
:1044F400AA316B22A2311430AA316B22A2312030AE
:10450400AA316B22A2310030AA316B22A231A13030
:10451400AA316B22A231C830AA316B22A231DA301F
:10452400AA316B22A2311230AA316B22A23181301E
:10453400AA316B22A231CF30AA316B22A231D930F9
:10454400AA316B22A231F130AA316B22A231DB30C5
:10455400AA316B22A2314030AA316B22A231A4309D
:10456400AA316B22A231A630AA316B22A2312E309D
:10457400AA316B22A231AF30AA316B22A2310730AB
:104584002D00A0008130A100AD319B25A231053062
:104594002D00A9000F30A800F130890BCF2AA80BF9
:1045A400CF2AA90BCF2AAE318F26A23108002D00C5
:1045B400AA1BDD2ADE2AB62B80310220A2312D006F
:1045C400AE002A08803AAF0080302F02031DEC2A87
:1045D4002E0829020318EF2AF02AB62B2D00AC1B53
:1045E400F42AF52AB62BA0310220A2312D00AE0008
:1045F4002C08803AAF0080302F02031D032B2E08B5
:104604002B02031C062B072BA22BB62B0130AE006A
:104614002B080739890A0F2BAE35890B0E2B2E0870
:10462400AF000830A0000030A1002C08A3002B0824
:10463400A200A0311420A2312D002008B0002108CE
:10464400B1000730B035B10D890B242B0030B20016
:104654002030B30030083207B4003108333DB500D0
:104664002908340786002A08353D87002F0881046D
:10467400B62B0130AE002B080739890A422BAE3520
:10468400890B412B2E08FF3AAF000830A000003000
:10469400A1002C08A3002B08A200A0311420A231F1
:1046A4002D002008B0002108B1000730B035B10D4D
:1046B400890B582B0030B2002030B3003008320789
:1046C400B4003108333DB5002908340786002A08B0
:1046D400353D87002F088105B62B0130AE002B082D
:1046E4000739890A762BAE35890B752B2E08AF0056
:1046F4000830A0000030A1002C08A3002B08A20061
:10470400A0311420A2312D002008B0002108B100EE
:104714000730B035B10D890B8B2B0030B20020303F
:10472400B30030083207B4003108333DB50029081E
:10473400340786002A08353D87002F088106B62BEA
:104744002D002D08AE00AF012F08003A0319AB2B42
:10475400B62B2E08003A03193B2B013A0319082BF8
:10476400033A03196F2BB62B08002D00E8005908F3
:10477400860007308700403FDB00413FDC005B08D8
:1047840084005C0885001200253A031DCA2BCB2B3C
:10479400782C5908860007308700013081074131A1
:1047A4000318810A2E00A901AA01AD01AE01FF3050
:1047B400AB00FF30AC002D0059088600073087009D
:1047C400403FDB00413FDC005B0884005C0885005F
:1047D4001200643A0319EF2BF02B022C59088600BF
:1047E40007308700403FDB00413FDC005B0884006A
:1047F4005C0885001200693A031D012C022C402C30
:1048040059088600073087000130810741310318B9
:10481400810A5A088600073087000108840007309F
:10482400850002308107003FDB00013FDC005B08AC
:10483400E0005C08E100890D893B8909E200E3009E
:10484400E400E500E600E7006008BB006108BC0086
:104854006208BD006308BE006408BF006508C000AC
:104864006608C1006708C2006808A6319026A33113
:104874002D003C08DA003B08D9009D2C590886001D
:1048840007308700403FDB00413FDC005B088400C9
:104894005C0885001200253A031D512C522C6C2C07
:1048A4005908860007308700013081074131031819
:1048B400810A2530A0000030A1006808DB005B08F5
:1048C400A200AF314527A33101302D00D9000030BB
:1048D400DA009D2C590886000730870001308107D3
:1048E40041310318810AD901DA019D2C5908860047
:1048F40007308700403FDB00413FDC005B08840059
:104904005C0885000008DD00DE015D08A0005E088B
:10491400A1006808DF005F08A200AF314527A3317A
:104924002D00590886000730870001308107413186
:104934000318810A662C08002D00B201A8308600F5
:1049440006308700473FB000B01FA92CAA2CCC2CFE
:104954002D00A809A909AA09AB09AC09AD09AE093A
:10496400AF09A80A031DC92CA90A031DC92CAA0A48
:10497400031DC92CAB0A031DC92CAC0A031DC92C89
:10498400AD0A031DC92CAE0A031DC92CAF0A2D00A4
:10499400B201B20AA030860006308700473F2D00DE
:1049A400B000B01FD62CD72CF62C2D00A009A109DD
:1049B400A209A309A409A509A609A709A00A031D18
:1049C400F62CA10A031DF62CA20A031DF62CA30A39
:1049D400031DF62CA40A031DF62CA50A031DF62CB0
:1049E400A60A031DF62CA70A2D0020082104220480
:1049F400230424042504260427040319022D032D6B
:104A0400562DB101B10A122DA035A10DA20DA30D91
:104A1400A40DA50DA60DA70D0130B0003008B107F7
:104A2400A71F152D162D062D27082F02031D342D23
:104A340026082E02031D342D25082D02031D342DB6
:104A440024082C02031D342D23082B02031D342DAE
:104A540022082A02031D342D21082902031D342DA6
:104A640020082802031C372D382D482D2008A802C1
:104A74002108A93B2208AA3B2308AB3B2408AC3BF2
:104A84002508AD3B2608AE3B2708AF3BA736A60C4E
:104A9400A50CA40CA30CA20CA10CA00C0130B10217
:104AA400031D552D562D162D320803195A2D5B2D35
:104AB400792DA809A909AA09AB09AC09AD09AE0960
:104AC400AF09A80A031D792DA90A031D792DAA0A85
:104AD400031D792DAB0A031D792DAC0A031D792D15
:104AE400AD0A031D792DAE0A031D792DAF0A2D00E1
:104AF4002808A0002908A1002A08A2002B08A30066
:104B04002C08A4002D08A5002E08A6002F08A70035
:104B140008002D00B201A030860006308700473F10
:104B2400B000B01F962D972DB92D2D00A009A10915
:104B3400A209A309A409A509A609A709A00A031D96
:104B4400B62DA10A031DB62DA20A031DB62DA30A74
:104B5400031DB62DA40A031DB62DA50A031DB62DEB
:104B6400A60A031DB62DA70A2D00B201B20AA83069
:104B7400860006308700473F2D00B000B01FC32DCC
:104B8400C42DE82D2D00A809A909AA09AB09AC096F
:104B9400AD09AE09AF09A80A031DE32DA90A031D37
:104BA400E32DAA0A031DE32DAB0A031DE32DAC0A72
:104BB400031DE32DAD0A031DE32DAE0A031DE32DF2
:104BC400AF0A01302D00B0003008B206B3308600C1
:104BD4000630870008302D00B00000301E00B00BF6
:104BE400F02D20082104220423042404250426048F
:104BF40027040319FE2DFF2D5B2EB101B10A0E2EE1
:104C0400A035A10DA20DA30DA40DA50DA60DA70DF4
:104C14000130B0003008B107A71F112E122E022E4A
:104C2400B335B40DB50DB60DB70DB80DB90DBA0D3C
:104C340027082F02031D382E26082E02031D382EA6
:104C440025082D02031D382E24082C02031D382E9E
:104C540023082B02031D382E22082A02031D382E96
:104C640021082902031D382E20082802031C3B2E8C
:104C74003C2E4D2E2008A8022108A93B2208AA3B5D
:104C84002308AB3B2408AC3B2508AD3B2608AE3BD0
:104C94002708AF3B3314A736A60CA50CA40CA30C11
:104CA400A20CA10CA00C0130B102031D5A2E5B2EE4
:104CB400122E320803195F2E602E7E2EB309B4091A
:104CC400B509B609B709B809B909BA09B30A031D80
:104CD4007E2EB40A031D7E2EB50A031D7E2EB60A4F
:104CE400031D7E2EB70A031D7E2EB80A031D7E2ED9
:104CF400B90A031D7E2EBA0A2D003308A000340819
:104D0400A1003508A2003608A3003708A40038081B
:104D1400A5003908A6003A08A70008002D00C6001F
:104D24003B08CF003C08D0003D08D1003E08D2002B
:104D34003F08D3004008D4004108D5004208D600FB
:104D4400CF30860006308700473FC300C31BAB2E1D
:104D5400AD2E0130AE2E00302D00C400C501440834
:104D6400CD004508CE004D084E040319BA2EBB2EC3
:104D7400D92ECF09D009D109D209D309D409D5092B
:104D8400D609CF0A031DD92ED00A031DD92ED10A64
:104D9400031DD92ED20A031DD92ED30A031DD92EE1
:104DA400D40A031DD92ED50A031DD92ED60A2E00E6
:104DB400AC1BDD2EDE2EE22EFD30AD05FF30AE0540
:104DC4002C08803A2D00C30080304302031DED2ED1
:104DD40001302E002B020318F02EF12EF72E013095
:104DE4002D00C9000030CA00FF2E2E002C082D0013
:104DF400CA002E002B082D00C9002E002A082D0001
:104E0400CC002E0029082D00CB004D084E04031DB4
:104E14000C2F0D2F122F2E002D1D112F122F172F97
:104E2400FF302D00CB07FF30CC3D1F302D00D700C5
:104E34000030D8003100CF01882FFF302D00D70774
:104E4400FF30D83D0A30A000A101A201A301A401B2
:104E5400A501A601A7014F08A8005008A900510800
:104E6400AA005208AB005308AC005408AD00550822
:104E7400AE005608AF00A4319E24A6312D002108AF
:104E8400B4002008B300AA31E422A6312D0033086F
:104E9400303EC3005708B03E860008308700430800
:104EA4008100FF30C907FF30CA3DFF30CB07FF3018
:104EB400CC3D0A30A000A101A201A301A401A501D7
:104EC400A601A7014F08A8005008A9005108AA008C
:104ED4005208AB005308AC005408AD005508AE00AE
:104EE4005608AF00A5318B25A6312D002008CF0030
:104EF4002108D0002208D1002308D2002408D300BE
:104F04002508D4002608D5002708D6002D00580807
:104F1400803AC30080304302031D922F01305702B0
:104F2400031C952F962FC32F2D004F0850045104B6
:104F340052045304540455045604031DA22FA32FF2
:104F44001F2F4A08803AC30080304302031DAC2F50
:104F5400013049020318AF2FB02F1F2F2D004C082A
:104F6400803AC30080304302031DBA2F01304B0244
:104F7400031CBD2FBE2FC32F2E00AD18C22FC32F6D
:104F84001F2F2D004D084E04031DC92FCA2FCF2FEC
:104F94002E002D1DCE2FCF2FEC2FFF302D00D70745
:104FA400FF30D83D4D084E04031DD92FDA2FDF2FD3
:104FB4002B30C7000030C800E32F2D30C70000306D
:104FC400C8004708C3005708B03E86000830870071
:104FD400430881002D005708B03EC3004308B000C9
:104FE4004C08B2004B08B1004608AE313626A63153
:0C4FF4002D003108BC003008BB00080094
:1053AA00240016151619DA29DB29D7290800240042
:1053BA0016141618E129E229DE290800F030210026
:1053CA009B0080309C009A019D0108002300553003
:1053DA009600AA30960095140000000008002300E9
:1053EA0055309600AA309600951400000000080077
:1053FA00A8302B008E0003309000FF308F000D1470
:10540A000800240094010830950096012730920084
:10541A00951208002D0021082F00E8002D00200811
:10542A002F00E70008002B000E132D005C082B004C
:10543A008F002D005D082B0090000D1408006400F9
:10544A00800101310130FE020030FF3B7F087E04FB
:10545A00031D252A0034FE0012001E000130FE0240
:10546A000030FF3B7F087E04031D312A00342400EC
:10547A001419402A412A3C2A161F442A452A482A36
:10548A00A931D521AA3108002D00A0002008240046
:10549A0091001418512A522A4E2AAA313C22AA31C2
:1054AA0008002D002108230092002D002008230067
:1054BA0091001513151400000000230014082D0094
:1054CA00A100230013082D00A00008002D00A10050
:1054DA00A931DC21AA317830AA314922AA31003017
:1054EA00AA314922AA312D002108AA314922AA311A
:1054FA00A931D521AA310800AA310622AA31AC3134
:10550A00E924AA31A931E321AA318C31EB24AA3149
:10551A0090310020AA31A931FD21AA31AA31B02245
:10552A00AA31080000308B1B0130F2008B1371087E
:10553A002300920070089100151315161515A9314C
:10554A00EB21AA312300151172080319AD2AAE2ADC
:10555A00AF2A8B17080021001708C03912389700A4
:10556A00C73020009700C7302D00A20022082E0065
:10557A00E8000B118B1600302D00A0000030A100AE
:10558A00AA310F22AA3108002D00A4002408A20083
:10559A002208A300D42A0130A2002208A407240862
:1055AA008600083087000108031DDC2ADD2AD02A7C
:1055BA0023082402A000A101A01BA10308002D00BA
:1055CA003408803AB50080303502031DEE2A0130D6
:1055DA0033020318F12AF22AFF2A2D003309B500F3
:1055EA003409B600B50A0319B60A3508B3003608F5
:1055FA00B400FF2A080000308B1B01302D00A200E6
:10560A008B132108230092002D002008230091000B
:10561A00151315161515A931F421AB3123001511EF
:10562A002D00220803191A2B1B2B1C2B8B17080081
:10563A0000308B1B0130F5008B1371082300920098
:10564A00700891007308940072089300740C031C8C
:10565A00951203189516151315121515A931EB2174
:10566A00AB31750803193A2B3B2B3C2B8B170800DF
:10567A002D00A1001830A000200821008E042D0062
:10568A002103031D492B4A2B4D2B24009417522B1F
:10569A007F30A000200824009405283095000730A8
:1056AA009200F7302D00A00020082400970508007A
:1056BA002D00AD01AE01291C632B642B682B2B082E
:1056CA00AD072C08AE3D0130AB35AC0D890B692B0B
:1056DA000130AA36A90C890B6E2B29082A04031D4E
:1056EA00772B782B602B2E08AA002D08A90008001A
:1056FA002E340034003400340034003400340034D2
:10570A0000340034003400340034003400340034EF
:10571A002E340034003400340034003400340034B1
:10572A0000340034003400340034003400340034CF
:10573A002E34003400340034003400340034003491
:10574A0000340034003400340034003400340034AF
:10575A002E34003400340034003400340034003471
:10576A00003400340034003400340034003400348F
:10577A002D00A401A5012D0024082007A200250858
:10578A00213DA300220886002308870020308100DB
:10579A000130A4070030A53D2508803AA2008030D8
:1057AA002202031DDA2B10302402031CDD2BDE2B10
:1057BA00C02B08002D00A800A401A5012008A20002
:1057CA00A3012208A6002308A700281CED2BEE2B14
:1057DA00F22B2608A4072708A53D0130A635A70DF8
:1057EA00890BF32B0310A80C2808031DFD2BFE2B95
:1057FA00EA2B2508A1002408A00008002D00AF000C
:10580A00AD01AE011B2C2C08A900AA012908A00091
:10581A002A08A1002808AB002B08A200AF314527AF
:10582A00AC3101302D00AD070030AE3D2D082F07F9
:10583A00A90029088600083087000108AA002A085A
:10584A00AC002C08031D2A2C2B2C082C0800003035
:10585A008B1B01302D00A5008B1321082300920019
:10586A002D002008230091002D0023082300940016
:10587A002D002208230093002D00240C2300031C72
:10588A00951203189516151315121515A931F42139
:10589A00AC312D0025080319532C542C552C8B1789
:1058AA00080047302D00EE006E082E00CD00440897
:1058BA00CF004308CE00D001D101D201D30146085E
:1058CA002D00EA002E0045082D00E9004D30EE00BB
:1058DA006E08EB004E30AC31B524AC3102304E3E8E
:1058EA00860007308700403F2E0043078400413F6F
:1058FA00443D85008001080000302D00AB000030D7
:10590A00AA000030A9000030A800201C8D2C8E2C83
:10591A00962C2408A8072508A93D2608AA3D270889
:10592A00AB3D0130A435A50DA60DA70D890B972C0B
:10593A000130A336A20CA10CA00C890B9E2C2308C3
:10594A00220421042004031DAB2CAC2C8A2C2B0826
:10595A00A3002A08A2002908A1002808A00008001C
:10596A002E00C0002D006A082E00C2002D00690812
:10597A002E00C100A701A801D82C41302D00EC004F
:10598A006C08D9006B08ED006D08DA002E0040089B
:10599A00A331B723AC312D0059082E00A7072D00DB
:1059AA005A082E00A83D41088400420885001200CA
:1059BA00031DE02CE12CC22C28082D00EA002E0041
:1059CA0027082D00E900080022008C018D018E01B4
:1059DA00083021009000B8308C00FF308D00FF3075
:1059EA008E0023008E0108308D0004308C002400C4
:1059FA0090018D018C018E012100971725008C01E1
:105A0A008D018E01FF3026008C00FF308D00E730BB
:105A1A008E003F3027008C00F0308D00FF308E0062
:105A2A0014303C00BB0021303D00A3002230A4000A
:105A3A0013303C00BA0008002D00A8002208A40078
:105A4A00A5010530A435A50D890B272D2408803E14
:105A5A00A6003F30253DA700213023020318362D2A
:105A6A00372D5D2D04302202031C3C2D3D2D582D6F
:105A7A005D2D2708A1002608A000AA315622AD31C3
:105A8A002D002008A4002808860007308700240873
:105A9A0081000130A6070030A73D0130A400240888
:105AAA00A8070130A3022308031D5C2D5D2D3E2D9E
:105ABA0008002D00B501B6012F0830040319662D20
:105ACA00672D962DB401B40A732D0130AF35B00D90
:105ADA00890B6B2D0130B3003308B407B01F762D44
:105AEA00772D6A2D0130B535B60D890B782D300822
:105AFA003202031D822D2F083102031C852D862DAB
:105B0A008B2D2F08B1023008B23B35140130B03664
:105B1A00AF0C890B8C2D0130B402031D952D962DE7
:105B2A00772D3608B0003508AF0008002D0021088F
:105B3A002E00A1002D0020082E00A0002D00200814
:105B4A008400210885000008A20022082E00A20075
:105B5A002D002108A3002008A2000130220784009A
:105B6A0023080318230A85000008A40024082E002D
:105B7A00A3002D002108A3002008A200023022075A
:105B8A00840023080318230A85000008A4002408B7
:105B9A002E00A4002D002108A3002008A200033033
:105BAA002207840023080318230A85000008A4009A
:105BBA0024082E00A500A60108002D00A601A31F97
:105BCA00E72DE82DEF2DA209A309A20A0319A30ABA
:105BDA00A601A60AA11FF22DF32DF82DA009A109ED
:105BEA00A00A0319A10A200821040319FD2DFE2D7C
:105BFA00272EA501A50A0A2E0130A035A10D890B71
:105C0A00022E0130A4002408A507A11F0D2E0E2E76
:105C1A00012E21082302031D142E20082202031C30
:105C2A00172E182E1C2E2008A2022108A33B013091
:105C3A00A136A00C890B1D2E0130A502031D262EAC
:105C4A00272E0E2E260803192B2E2C2E312EA209B2
:105C5A00A309A20A0319A30A2308A1002208A00083
:105C6A0008002D00B8002E002D1C3C2E3D2E462E7D
:105C7A002D003808B3003308A8003008AC310324DB
:105C8A00AE312D00B21B4A2E4B2E502E3208B700D1
:105C9A003108B600522EB601B701B401B501662E1D
:105CAA0020302D00A0000030A1003808B3003308CE
:105CBA00A200AF314527AE3101302D00B4070030C4
:105CCA00B53D3508803AB3003708803A3302031DE0
:105CDA00702E36083402031C732E742E552E2E0095
:105CEA002D18782E792E822E2D003808B30033080D
:105CFA00A8003008AC310324AE312D003008AA3197
:105D0A00C922AE312D0036082007B0003708213DE0
:105D1A00B10008002D00A5012130AA316B22AE3155
:105D2A000030AA316B22AE317F30AA316B22AE31FC
:105D3A002230AA316B22AE310030AA316B22AE3149
:105D4A000730AA316B22AE31A931DC21AE3178306D
:105D5A00AA314922AE314030AA314922AE312D0052
:105D6A00A601A701A5010030A3002030A40026083F
:105D7A00230786002708243D87000108AA31492203
:105D8A00AE3101302D00A6070030A73D0130A30037
:105D9A002308A50710302502031CD42ED52EB82EB1
:105DAA000130A6020030A73B0130A6070030A73D0C
:105DBA0004302702003003192602031CE52EE62EC2
:105DCA00B72EA931D521AE31080000302D00B80018
:105DDA000030B7000030B6000030B5002F082E049E
:105DEA002D042C040319FA2EFB2E3C2FB901B90AF3
:105DFA00092F0130AC35AD0DAE0DAF0D890BFF2E5D
:105E0A000130B4003408B907AF1F0C2F0D2FFE2E36
:105E1A000130B535B60DB70DB80D890B0E2F2F0809
:105E2A003302031D222F2E083202031D222F2D08B2
:105E3A003102031D222F2C083002031C252F262F86
:105E4A002F2F2C08B0022D08B13B2E08B23B2F0889
:105E5A00B33B35140130AF36AE0CAD0CAC0C890B2C
:105E6A00302F0130B902031D3B2F3C2F0D2F38086C
:105E7A00AF003708AE003608AD003508AC000800A0
