:020000040000FA
:100000008031A728803008007E1480318B1E09289B
:100010000A28A5280B1D0D280E28A5280B117C08E1
:100020000319132814281F282100600861040319EC
:100030001A281B281F28FF30E007FF30E13D210070
:10004000640865040319252826283D2868086904E2
:10005000031D2B282C283D2866086704031D312822
:1000600032283D285C085D040319372838284128C8
:100070000130DC020030DD3B4128FA30DC0000308A
:10008000DD00680869040319462847285E286608C9
:100090006704031D4C284D285E2864086504031D71
:1000A000522853285E2862086304031958285928E7
:1000B0006228FF30E207FF30E33D62287130E20042
:1000C0000230E300680869040319672868287A2861
:1000D0006608670403196D286E287A286408650489
:1000E0000319732874287A28D301D4012000EF0162
:1000F0002100DA015308540403197F28802884283A
:100100000130D3020030D43B5E085F040319892814
:100110008A288E28FF30DE07FF30DF3D22004808A6
:10012000470446044504031996289728A028FF3061
:10013000C507FF30C63DFF30C73DFF30C83DA5288D
:100140000130F00070082100D8007E1009008031D5
:10015000A92872308400B6308500DC30860000307B
:1001600087000030FF001230B6313D2680317A30F2
:100170008400B730850045308600013087000030AC
:10018000FF002530B6313D268031E2308400A830B2
:100190008500A0308600013087000030FF00493024
:1001A000B6313D268031F0308400263085000030A5
:1001B000FE000130FF00B63131268031FC01EF0135
:1001C000C4308400003085001830FE000030FF008D
:1001D000B631312680312030840001308500253051
:1001E000FE000030FF00B63131268031203084001F
:1001F000023085004830FE000030FF00B631312665
:1002000080317E1020009C31C62C103410342034F4
:100210005F340034003400340034003400340034DF
:10022000003400340034003400340034003400342E
:10023000003400340034003400340034003400341E
:10024000003400340034003400340034003400340E
:1002500000340034003400340034F834FC34FC340E
:10026000FC34F834003400340034003400340034FA
:1002700000340034003400340034003473347334F8
:10028000733400340034003400340034003400345B
:10029000003400340034003400341E343E343E3424
:1002A0000034003400343E343E341E340034003414
:1002B000003400340034003400340034003400349E
:1002C000003400340034003400340034003400348E
:1002D00000340034303430343034FE34FE343034C2
:1002E000303430343034FE34FE3430343034303452
:1002F000003400340C340C340C347F347F340C3430
:100300000C340C340C347F347F340C340C340C3407
:100310000034003400340034F034F8349834FE34BF
:1003200098349834FE3498349834183400340034B7
:1003300000340034003400341834193419347F3454
:10034000193419347F3419341F340F340034003415
:100350000034003400340034003438343834383455
:100360008034C034E0347034383400340034003425
:10037000003400340034003400341C340E340734AC
:10038000033401341C341C341C3400340034003475
:1003900000340034003400343834FC34C434C43401
:1003A000FC343834003400340034803400340034F9
:1003B00000340034003400341E343F3421342134FE
:1003C00033343F341E341E34373423340034003485
:1003D0000034003400340034003420343C343C34E5
:1003E0001C34003400340034003400340034003451
:1003F000003400340034003400340034003400345D
:10040000003400340034003400340034003400344C
:1004100000340034003400340034C034E034F034AC
:1004200038341C340C3404340434003400340034C4
:1004300000340034003400340034033407340F3403
:100440001C34383430342034203400340034003448
:1004500000340034003400340034043404340C34E8
:100460001C343834F034E034C03400340034003408
:10047000003400340034003400342034203430346C
:1004800038341C340F34073403340034003400345F
:10049000003400340034803488349034E034E03464
:1004A000FC34FC34E034E03490348834803400345C
:1004B0000034003400340134113409340734073473
:1004C0003F343F34073407340934113401340034E5
:1004D00000340034003400340034803480348034FC
:1004E000F034F0348034803480340034003400340C
:1004F0000034003400340034003401340134013459
:100500000F340F340134013401340034003400342A
:10051000003400340034003400340034003400343B
:10052000003400340034003400340034003400342B
:1005300000340034003400340034403478347834EB
:1005400038340034003400340034003400340034D3
:1005500000340034003400348034803480348034FB
:1005600080348034803480348034803400340034EB
:1005700000340034003400340134013401340134D7
:1005800001340134013401340134013400340034C5
:1005900000340034003400340034003400340034BB
:1005A00000340034003400340034003400340034AB
:1005B000003400340034003400340034383438342B
:1005C0003834003400340034003400340034003453
:1005D000003400340034003400340034003400347B
:1005E000003400348034C034E034703438341C3487
:1005F00000340034003400342034303438341C34B7
:100600000E34073403340134003400340034003431
:100610000034003400340034F834FC34FC34043446
:100620008434E4347434FC34FC34F834003400345E
:1006300000340034003400341F343F343F342E344F
:100640002734213420343F343F341F340034003405
:100650000034003400340034603460346034F034EA
:10066000FC34FC34003400340034003400340034F2
:1006700000340034003400342034203420343F343B
:100680003F343F34203420342034003400340034EC
:10069000003400340034003418341C341C34043466
:1006A00004348434CC34FC347834303400340034B2
:1006B0000034003400340034303438343C342E34C8
:1006C0002734233421343834383438340034003477
:1006D000003400340034003418341C341C348434A6
:1006E00084348434CC347C34783430340034003472
:1006F00000340034003400341834383438342134B1
:100700002134213433343E341E340C34003400346C
:1007100000340034003400348034C0346034303469
:100720001834FC34FC34FC3400340034003400341D
:1007300000340034003400340334033403342334ED
:1007400023343F343F343F342334233400340034E3
:100750000034003400340034FC34FC34FC34843481
:1007600084348434843484340434043400340034D1
:10077000003400340034003419343934393421342D
:100780002134213433343F341F340E3400340034E8
:100790000034003400340034E034F034F8349C3455
:1007A0008C34843484348434803400340034003411
:1007B00000340034003400341F343F343F342134DB
:1007C0002134213421343F343F341F340034003489
:1007D00000340034003400343C343C343C340434C1
:1007E0000434043404348434FC34FC347C34003465
:1007F0000034003400340034003400340034383421
:100800003C343E34073403340134003400340034C3
:10081000003400340034003478347C34FC34C43484
:10082000C43484348434FC347C347834003400346C
:1008300000340034003400341E343E343F3421345C
:100840002134233423343F343E341E340034003406
:100850000034003400340034F834FC34FC34843484
:10086000843484348434FC34FC34F834003400346C
:100870000034003400340034003401342134213495
:100880002134313439341F340F3407340034003408
:100890000034003400340034003400340034703448
:1008A00070347034003400340034003400340034C8
:1008B00000340034003400340034003400340E348A
:1008C0000E340E340034003400340034003400346C
:1008D0000034003400340034003400340034703408
:1008E0007034703400340034003400340034003488
:1008F00000340034003400340034003410341E342A
:100900001E340E340034003400340034003400341B
:1009100000340034003400348034C034E0347034A7
:1009200038341C340E3406340234003400340034BD
:1009300000340034003400340134033407340E34FE
:100940001C343834703460344034003400340034A3
:100950000034003400346034603460346034603417
:100960006034603460346034603460346034003447
:1009700000340034003406340634063406340634B9
:10098000063406340634063406340634063400349D
:100990000034003400340034023406340E341C3485
:1009A00038347034E034C0348034003400340034DF
:1009B000003400340034003440346034703438344F
:1009C0001C340E3407340334013400340034003452
:1009D000003400340034003418341C340C340E3429
:1009E00006348634CE34FC347C343834003400345D
:1009F0000034003400340034003400340034003457
:100A000073347334733400340034003400340034ED
:100A10000034003400340034FC34FE34FE3402343C
:100A20000234C234C234C234FE34FE34FC340034E6
:100A300000340034003400343F343F347F346034B9
:100A400060346334633463346334433403340034D4
:100A50000034003400340034E034F034F8341C3412
:100A60000C340C341C34F834F034E03400340034EA
:100A700000340034003400343F343F343F34023417
:100A80000234023402343F343F343F340034003403
:100A900000340034003400340434FC34FC34FC34BE
:100AA000843484348434FC34FC34783400340034AA
:100AB000003400340034003420343F343F343F34B9
:100AC0002134213421343F343F341E340034003487
:100AD0000034003400340034F034F834FC340C3486
:100AE0000434043404341C341C341834003400340A
:100AF00000340034003400340F341F343F343034B9
:100B0000203420342034383438341834003400345D
:100B100000340034003400340434FC34FC34FC343D
:100B2000043404340C34FC34F834F034003400342D
:100B3000003400340034003420343F343F343F3438
:100B40002034203430343F341F340F340034003428
:100B500000340034003400340434FC34FC34FC34FD
:100B6000843484348434C434CC341C3400340034AD
:100B7000003400340034003420343F343F343F34F8
:100B800021342134213423343334383400340034D4
:100B900000340034003400340434FC34FC34FC34BD
:100BA000843484348434C434CC341C34003400346D
:100BB000003400340034003420343F343F343F34B8
:100BC000213401340134033403340034003400345C
:100BD0000034003400340034F034F834FC340C3485
:100BE0000434043404343C343C34383400340034A9
:100BF00000340034003400340F341F343F343034B8
:100C00002034223422343E343E343E340034003426
:100C10000034003400340034FC34FC34FC348034C0
:100C200080348034FC34FC34FC3400340034003430
:100C300000340034003400343F343F343F34013456
:100C4000013401343F343F343F3400340034003445
:100C50000034003400340034003404340434FC34F0
:100C6000FC34FC34043404340034003400340034E4
:100C700000340034003400340034203420343F3455
:100C80003F343F3420342034003400340034003406
:100C900000340034003400340034003400340034B4
:100CA00004340434FC34FC34FC34043404340034A0
:100CB0000034003400341E341E343E3420342034DA
:100CC000203420343F343F341F34003400340034A7
:100CD00000340034003400340434FC34FC34FC347C
:100CE000C034E03470343C341C340C3400340034F0
:100CF000003400340034003420343F343F343F3477
:100D0000033407340E343C34383430340034003487
:100D100000340034003400340434FC34FC34FC343B
:100D2000043400340034003400340034003400341F
:100D3000003400340034003420343F343F343F3436
:100D4000203420342034303438343C3400340034FF
:100D50000034003400340034FC34FC34FC34783487
:100D6000F034E034F0347834FC34FC34FC340034B7
:100D700000340034003400343F343F343F34003416
:100D800000340134003400343F343F343F34003405
:100D90000034003400340034FC34FC34FC3470344F
:100DA000E034C03480340034FC34FC34FC3400348F
:100DB00000340034003400343F343F343F340034D6
:100DC00000340134033407343F343F343F340034BB
:100DD0000034003400340034E034F034F8341C348F
:100DE0000C340C340C341C34F834F034E03400345B
:100DF000003400340034003407340F341F343834E6
:100E000030343034303438341F340F340734003445
:100E100000340034003400340434FC34FC34FC343A
:100E2000843484348434FC34FC3478340034003426
:100E3000003400340034003420343F343F343F3435
:100E400021340134013401340134003400340034DD
:100E50000034003400340034E034F834F8341C3406
:100E60000C3404340C341C34F834F834E0340034DA
:100E7000003400340034003407341F341F34183475
:100E800018345C345E347E347F347F34473400342D
:100E900000340034003400340434FC34FC34FC34BA
:100EA000843484348434FC34FC34783400340034A6
:100EB000003400340034003420343F343F343F34B5
:100EC0000134013403343F343F343C3400340034C3
:100ED00000340034003400347834FC34FC3484347E
:100EE000843484348434BC343C34383400340034A6
:100EF00000340034003400341C343C343D3421349C
:100F00002134213421343F343F341E340034003442
:100F100000340034003400341C340C340434043401
:100F2000FC34FC34FC34043404340C341C340034FD
:100F300000340034003400340034003420342034D1
:100F40003F343F343F342034203400340034003404
:100F50000034003400340034FC34FC34FC340034FD
:100F600000340034FC34FC34FC34003400340034ED
:100F700000340034003400341F343F343F34203414
:100F8000203420343F343F341F34003400340034E4
:100F90000034003400340034FC34FC34FC340034BD
:100FA00000340034FC34FC34FC34003400340034AD
:100FB000003400340034003407340F341F34383424
:100FC000303438341F340F340734003400340034E4
:100FD0000034003400340034FC34FC34FC3400347D
:100FE0000034803400340034FC34FC34FC340034ED
:100FF000003400340034003403340F343F343C34C4
:101000003C340F343C343C343F340F34033400342C
:1010100000340034003400341C343C347C34E0347C
:10102000C034E0347C343C341C34003400340034AC
:10103000003400340034003438343C343E34073457
:10104000033407343E343C34383400340034003444
:1010500000340034003400347C34FC34FC348034FC
:1010600000348034FC34FC347C34003400340034EC
:1010700000340034003400340034203421343F3450
:101080003F343F3421342034003400340034003401
:1010900000340034003400343C341C340C34043448
:1010A0008434C434E4347C343C341C3400340034A0
:1010B000003400340034003438343C343E342734B7
:1010C000233421342034303438343C340034003478
:1010D000003400340034003400340034FC34FC3478
:1010E000FC34043404340434043400340034003454
:1010F0000034003400340034003400343F343F34D2
:101100003F34203420342034203400340034003480
:1011100000340034003400341C3438347034E0348B
:10112000C0348034003400340034003400340034DF
:10113000003400340034003400340034003400340F
:101140000134033407340E341C3418343034203462
:1011500020340034003400340034003404340434C7
:1011600004340434FC34FC34FC34003400340034E3
:10117000003400340034003400340034203420348F
:10118000203420343F343F343F34003400340034C2
:1011900000340034003400342034303438341C340B
:1011A0000E340E341C3438343034203400340034DF
:1011B000003400340034003400340034003400348F
:1011C000003400340034003400340034003400347F
:1011D000003400340034003400340034003400346F
:1011E000003400340034003400340034003400345F
:1011F00000340034C034C034C034C034C034C034CF
:10120000C034C034C034C034C034C034C034C0343E
:10121000C0340034003400340C340C343C343034EA
:1012200030340034003400340034003400340034EE
:10123000003400340034003400340034003400340E
:1012400000340034003400340034003400340034FE
:10125000003400340034003400344034403440342E
:1012600040344034C034C03480340034003400345E
:1012700000340034003400341C343E343E34223414
:10128000223422343F341F343F34203400340034BD
:1012900000340034003400340434FC34FC34FC34B6
:1012A000403440344034C034C034803400340034DE
:1012B000003400340034003420343F341F343F34D1
:1012C0002034203420343F343F341F340034003481
:1012D00000340034003400348034C034C03440342E
:1012E00040344034C034C0348034003400340034DE
:1012F00000340034003400341F343F343F34203491
:101300002034203439343934193400340034003472
:1013100000340034003400348034C034C0344034ED
:1013200040344434FC34FC34FC34043400340034A1
:1013300000340034003400341F343F343F34203450
:10134000203420343F341F343F3420340034003400
:1013500000340034003400348034C034C0344034AD
:1013600040344034C034C03480340034003400345D
:1013700000340034003400341F343F343F3422340E
:10138000223422343B343B341B34003400340034E8
:10139000003400340034003480348034F834FC34B9
:1013A000FC3484349C349C341834003400340034CD
:1013B0000034003400340034213421343F343F34CD
:1013C0003F342134213401340034003400340034FB
:1013D00000340034003400348034C034C03440342D
:1013E00040344034C0348034C0344034003400349D
:1013F00000340034003400344734CF34DF349834C0
:1014000098349834FF34FF347F340034003400348F
:1014100000340034003400340434FC34FC34FC3434
:10142000803440344034C034C0348034003400341C
:10143000003400340034003420343F343F343F342F
:101440000134003400343F343F343F34003400343E
:10145000003400340034003400344034403440342C
:10146000DC34DC34DC340034003400340034003448
:10147000003400340034003400342034203420346C
:101480003F343F343F34203420342034003400349F
:10149000003400340034003400340034003440346C
:1014A00040344034DC34DC34DC3400340034003488
:1014B000003400340034003420346034E0348034AC
:1014C0008034C034FF34FF347F34003400340034BF
:1014D00000340034003400340434FC34FC34FC3474
:1014E000003400348034C034C0344034003400341C
:1014F000003400340034003420343F343F343F346F
:10150000023407340F343D3438343034003400347E
:10151000003400340034003400340434043404341F
:10152000FC34FC34FC340034003400340034003427
:1015300000340034003400340034203420342034AB
:101540003F343F343F3420342034203400340034DE
:101550000034003400340034C034C034C03440346B
:101560004034C03440344034C034C034803400345B
:1015700000340034003400343F343F343F3400340E
:1015800000343F34003400343F343F343F340034BF
:101590000034003400340034C034C034C03440342B
:1015A00040344034C034C03480340034003400341B
:1015B00000340034003400343F343F343F340034CE
:1015C000003400343F343F343F34003400340034BE
:1015D00000340034003400348034C034C03440342B
:1015E00040344034C034C0348034003400340034DB
:1015F00000340034003400341F343F343F3420348E
:10160000203420343F343F341F340034003400345D
:1016100000340034003400344034C0348034C034EA
:10162000403440344034C034C0348034003400345A
:1016300000340034003400348034FF34FF34FF348D
:101640009034103410341F341F340F3400340034FD
:101650000034003400348034C034C034403440346A
:101660004034C0348034C03440340034003400345A
:101670000034003400340F341F341F34103410345D
:101680009034FF34FF34FF348034003400340034AD
:1016900000340034003400344034C034C034C0342A
:1016A0008034C034C034C034C0348034003400349A
:1016B000003400340034003420343F343F343F34AD
:1016C0002134003400340134013401340034003456
:1016D00000340034003400348034C034C03440342A
:1016E000403440344034C03480340034003400345A
:1016F000003400340034003419343B3423342634AD
:10170000263426343C343D3419340034003400345B
:10171000003400340034003440344034E034F034D9
:10172000F834403440344034403400340034003421
:101730000034003400340034003400341F343F34AB
:101740003F34203438343834183400340034003412
:101750000034003400340034C034C034C0340034A9
:1017600000340034C034C034C03400340034003499
:1017700000340034003400341F343F343F3420340C
:10178000203420343F341F343F34203400340034BC
:101790000034003400340034C034C034C034003469
:1017A00000340034C034C034C03400340034003459
:1017B000003400340034003407340F341F3438341C
:1017C000303438341F340F340734003400340034DC
:1017D0000034003400340034C034C034C034003429
:1017E0000034003400340034C034C034C034003419
:1017F000003400340034003407340F343F343834BC
:1018000038340E34383438343F340F34073400342D
:101810000034003400340034C034C034C0340034E8
:101820000034C034C034C0340034003400340034D8
:101830000034003400340034303439343F340F3451
:101840000F343F3439343034003400340034003441
:1018500000340034003400340034C034C034C034A8
:10186000003400340034C034C034C0340034003498
:101870000034003400340034803487348F349F3493
:10188000D834F83478343F340F340734003400341B
:101890000034003400340034C034C03440344034A8
:1018A0004034C034C034C034003400340034003418
:1018B0000034003400340034313438343C342E34B5
:1018C00027342334313438340034003400340034C5
:1018D000003400340034003480348034C034783430
:1018E0007C343C3404340434043404340034003490
:1018F00000340034003400340134013403341E3425
:101900003E343C342034203420342034003400343D
:101910000034003400340034003400340034003427
:10192000FE34FE34FE34003400340034003400341D
:101930000034003400340034003400340034003407
:101940007F347F347F34003400340034003400347A
:1019500000340034003400340434043404340434D7
:101960003C347C347834C0348034803400340034E7
:101970000034003400340034203420342034203447
:101980003C343E341E34033401340134003400341A
:1019900000340034003438343C343C3404340C34E7
:1019A0001C343834303420343C343C341C3400345F
:1019B0000034003400340034003400340034003487
:1019C0000034003400340034003400340034003477
:1019D000003425302100990008000030200048051F
:1019E000D00000304905D10080304A05D2007F3058
:1019F0004B05D3005308520451045004031D012D1C
:101A0000022D0A2D0030CB000030CA000030C90082
:101A10000030C80000304C05D00000304D05D1002A
:101A200080304E05D2007F304F05D300530852045A
:101A300051045004031D1D2D1E2D262D0030CF00F6
:101A40000030CE000030CD000030CC00CB1F292D5F
:101A50002A2D422D0030D0000030D1000030D200BD
:101A60008030D3004808D0024908D13B4A08D23B15
:101A70004B08D33B5308CB005208CA005108C90099
:101A80005008C800CF1F452D462D5E2D0030D000D8
:101A90000030D1000030D2008030D3004C08D0029A
:101AA0004D08D13B4E08D23B4F08D33B5308CF00E3
:101AB0005208CE005108CD005008CC008030CB0633
:101AC0008030CF064F084B02031D702D4E084A028E
:101AD000031D702D4D084902031D702D4C0848024E
:101AE0000318732D742D762D0310772D0314080021
:101AF0002000D100D201E92F5F30CD004D08F10068
:101B00000B30F2000030F300DE30A831A0208D3120
:101B10007108720403198D2D8E2DFF2F2000D30123
:101B2000D401200053085F3E860001308700010881
:101B3000CD005308DE3E8600013087004D0881004D
:101B400053085F3E8600013087005308A03E8400A2
:101B50000130850000080106031DAF2DB02DB52D05
:101B600052080319B42DB52DF52D5208CD00CE0124
:101B7000CD35CE0DCD35CE0D21004608FC3E2000E2
:101B8000A000FF3003180030A1005408A300530840
:101B9000A200B73117278D3120004D082002CF0059
:101BA0004E08213BD0005008AE004F08AD00003079
:101BB000AF00B00053085F3E860001308700010887
:101BC000CD004D08B100A531DA258D312000530834
:101BD0005F3E8600013087000108CD005308A03E1B
:101BE0008600013087004D08810053085F3E860063
:101BF0000130870020300106031DFF2D002E042E2A
:101C00000130CD004D08D2070130D3070030D43D5C
:101C10005408803ACD0080304D02031D112E0B3048
:101C20005302031C142E152E912D20005108AA31A9
:101C3000CD228D31FF2F5430CD004D08F1000B30F7
:101C4000F2000030F300D330A831A0208D317108AC
:101C5000720403192C2E2D2EFF2F2000D501D60142
:101C600020005508543E8600013087000108CD0051
:101C70005508D33E8600013087004D088100550885
:101C8000543E8600013087005508A03E8400013094
:101C900085000008010603194E2E4F2E8F2E520884
:101CA000CD00CE01CD35CE0DCD35CE0D210046086F
:101CB000FC3E2000A000FF3003180030A1005608B1
:101CC000A3005508A200B73117278D3120004D0819
:101CD0002002CF004E08213BD0005008AE004F0834
:101CE000AD000030AF00B0005508543E8600013012
:101CF00087000108CD004D08B100A531DA258D31EE
:101D000020005508543E8600013087000108CD00B0
:101D10005508A03E8600013087004D088100550817
:101D2000543E86000130870020300106031D992EA5
:101D30009A2E9E2E0130CD004D08D2070130D507D6
:101D40000030D63D5608803ACD0080304D02031D4C
:101D5000AB2E0B305502031CAE2EAF2E302E2000C2
:101D60005108AA31CD228D31FF2FB230CD004D0860
:101D7000F1000B30F2000030F300C830A831A02091
:101D80008D31710872040319C62EC72EFF2F200053
:101D9000D701D80120005708B23E860001308700E5
:101DA0000108CD005708C83E8600013087004D0865
:101DB00081005708B23E8600013087005708A03ED8
:101DC000840001308500000801060319E82EE92E81
:101DD000292F5208CD00CE01CD35CE0DCD35CE0DFB
:101DE00021004608FC3E2000A000FF300318003010
:101DF000A1005808A3005708A200B73117278D315A
:101E000020004D082002CF004E08213BD000500892
:101E1000AE004F08AD000030AF00B0005708B23E32
:101E20008600013087000108CD004D08B100A531C2
:101E3000DA258D3120005708B23E86000130870038
:101E40000108CD005708A03E8600013087004D08EC
:101E500081005708B23E860001308700203001061D
:101E6000031D332F342F382F0130CD004D08D207FA
:101E70000130D7070030D83D5808803ACD00803077
:101E80004D02031D452F0B305702031C482F492FCD
:101E9000CA2E20005108AA31CD228D31FF2F4930A2
:101EA000CD004D08F1000B30F2000030F300BD30E2
:101EB000A831A0208D31710872040319602F612FA1
:101EC000FF2F2000D901DA0120005908493E860081
:101ED000013087000108CD005908BD3E8600013061
:101EE00087004D0881005908493E8600013087006F
:101EF0005908A03E8400013085000008010603193E
:101F0000822F832FC32F5208CD00CE01CD35CE0DA9
:101F1000CD35CE0D21004608FC3E2000A000FF304C
:101F200003180030A1005A08A3005908A200B731D5
:101F300017278D3120004D082002CF004E08213B8D
:101F4000D0005008AE004F08AD000030AF00B00028
:101F50005908493E8600013087000108CD004D0830
:101F6000B100A531DA258D3120005908493E86009F
:101F7000013087000108CD005908A03E86000130DD
:101F800087004D0881005908B23E86000130870065
:101F900020300106031DCD2FCE2FD22F0130CD00D2
:101FA0004D08D2070130D9070030DA3D5A08803A8F
:101FB000CD0080304D02031DDF2F0B305902031C72
:101FC000E22FE32F642F20005108AA31CD228D315A
:101FD000FF2F5108CD00CE014E08003A0319F12F12
:101FE000FF2F4D08013A03197C2D033A03191B2ECC
:101FF000013A0319B52E073A03194F2FFF2F080096
:1020000021001708C03917389700F93020009700D1
:10201000C730F30073082100EE000B118B1600305F
:10202000F1000030F20098310020903108002000CB
:1020300035088039B6003608BF003535B600360899
:10204000C600B41F2428252826284614460803194C
:102050002A282B283B28460A031D2F2830283828F9
:102060000030B5000030B4000030B3000030B200E2
:10207000B417B50143280030B5000030B40000307B
:10208000B3000030B20031088039B6003608BF0610
:102090003135B6003608C700B01F4F2850285128E8
:1020A000471447080319552856286628470A031D70
:1020B0005A285B2863280030B1000030B00000309F
:1020C000AF000030AE00B017B1016E280030B10093
:1020D0000030B0000030AF000030AE0031083004F6
:1020E0002F042E04031D752876288F280030B50094
:1020F0000030B4000030B3000030B2008030B404CF
:102100007F30B5043F08B6003608B5043508B10085
:102110003408B0003308AF003208AE00CA294608C0
:10212000031D932894289D280030B1000030B00092
:102130000030AF000030AE00CA294608B600B70133
:102140003708B90047083602B800031CB90338083D
:102150007F3EC0000030393DC1003508BE00340864
:10216000BD003308BC003208BB000030B5000030B1
:10217000B4000030B3000030B2000030C5000030C1
:10218000C4000030C3000030C200C7010529470861
:102190000319CB28CC28E6280130BB35BC0DBD0D7A
:1021A000BE0D890BCD280130B235B30DB40DB50D80
:1021B000890BD428C51FDD28DE28DF283214013022
:1021C000C235C30DC40DC50D890BE02831083E0290
:1021D000031DF42830083D02031DF4282F083C029B
:1021E000031DF4282E083B02031CF728F8280129B8
:1021F00045172E08BB022F08BC3B3008BD3B3108F9
:10220000BE3B0130B6003608C7071A304702031C30
:102210000A290B29C7283E083D043C043B04031946
:10222000122913292C2942142C290130B235B30D5F
:10223000B40DB50D890B1629C51F1F292029212989
:1022400032140130C235C30DC40DC50D890B2229CE
:10225000FF30C007FF30C13DB41F2F293029152999
:10226000C701C51F342935295129FF304205B60061
:10227000FF304305B700FF304405B8007F30450507
:10228000B9003908380437043604031948294929A4
:102290004C29C701C70A5129321C4F2950295129FD
:1022A000492947080319552956297E290130B207C3
:1022B0000030B33D0030B43D0030B53D351C6129E0
:1022C00062297E293208B6003308B7003408B80006
:1022D0003508B9000130BA00B937B80CB70CB60CE4
:1022E000BA0B6C293908B5003808B4003708B300B8
:1022F0003608B2000130C0070030C13D4108803AC5
:10230000B60080303602031D8729FF304002031CCF
:102310008A298B299829FF302000C0000030C10095
:102320000030B5000030B4000030B3000030B2001F
:1023300020004108803AB60080303602031DA229F1
:10234000013040020318A529A629B2292000C001A6
:10235000C1010030B5000030B4000030B3000030DF
:10236000B200BF0120004008B6003608C600461C77
:10237000BA29BB29BD29B417C1297F30B600360858
:10238000B4054636B6003608B5003F08B600360834
:10239000B504862808002100B0005F30B631FA2667
:1023A00091315430B631FA269131B230B631FA2635
:1023B00091314930B631FA269131E52F8F30200026
:1023C000E800B830E9005F30A831002091310030DA
:1023D0002000D100D200B6312526913122000C1008
:1023E00022008C10FF2FF301F30AF401F40AED3000
:1023F000A8312A2091318A302000E800B830E90065
:102400005F30A831002091314E302000E800B83014
:10241000E9000A30F1000030F20021006D08A70049
:10242000A8012708F3002808F400AB312B239131D1
:1024300072082000EB007108EA000A30F100003059
:10244000F20021006D08A900AA012908F3002A085A
:10245000F400A931C621913172082000ED00710805
:10246000EC004930A8310020913121006D08A7000F
:10247000A801A901AA012A082000A3002100290817
:102480002000A200210028082000A1002100270828
:102490002000A0000130A0311C2091312000230831
:1024A000B5002208B4002108B3002008B200413072
:1024B000B1000230B000F130AF00AA30AE009A3166
:1024C0006F22913120003108CB003008CA002F085C
:1024D000C9002E08C800AC315A24913120004908A7
:1024E000D2004808D100B631252691313F30200076
:1024F000CB00EC30CA00CC30C900CD30C800413030
:10250000B1002030B0000030AF000030AE0021003C
:102510006D08A700A801A901AA012A082000A300AC
:10252000210029082000A200210028082000A10085
:10253000210027082000A0000030A0311C2091318C
:1025400020002308B5002208B4002108B3002008A9
:10255000B20090311720913120003108CF003008AF
:10256000CE002F08CD002E08CC008C31ED24913107
:102570000318BB2ABC2ABF2A22000C14C12A22003D
:102580000C1021006D08A700A8012708F3002808F7
:10259000F4000A30F1000030F200AB312B2391310E
:1025A00071082000A0007208A100890D893B8909EB
:1025B000A200A3000130A0311C209131200023088B
:1025C000CB002208CA002108C9002008C8004030FA
:1025D000CF000030CE000030CD000030CC008C3178
:1025E000ED249131031CF52AF62AF02922008C14DF
:1025F000FF2F0330A7002708F300F401F40AED30A1
:10260000A8312A20913138302000E800B830E900A4
:102610005F30A831002091314E302000E800B83002
:10262000E9000A30F1000030F20021006D08A70037
:10263000A8012708F3002808F400AB312B239131BF
:1026400072082000EB007108EA000A30F100003047
:10265000F20021006D08A900AA012908F3002A0848
:10266000F400A931C621913172082000ED007108F3
:10267000EC004930A8310020913120000D1E412B83
:10268000422B462B8C1D452B462B102C7530E80019
:10269000B830E9005430A8310020913121006D0894
:1026A000A700A801A901AA012A082000A30021006F
:1026B00029082000A200210028082000A1002100F4
:1026C00027082000A0000130A0311C2091312000FB
:1026D0002308B5002208B4002108B3002008B20086
:1026E0004130B1000230B000F130AF00AA30AE008E
:1026F0009A316F22913120003108CB003008CA0096
:102700002F08C9002E08C800AC315A24913120008E
:102710004908D2004808D100B631252691313F3012
:102720002000CB00EC30CA00CC30C900CD30C8004E
:102730004130B1002030B0000030AF000030AE00BA
:1027400021006D08A700A801A901AA012A082000FC
:10275000A300210029082000A20021002808200051
:10276000A100210027082000A0000030A0311C207B
:10277000913120002308B5002208B4002108B300DD
:102780002008B20090311720913120003108CF008D
:102790003008CE002F08CD002E08CC008C31ED245F
:1027A00091310318D42BD52BD82B22000C14DA2B03
:1027B00022000C1021006D08A700A8012708F300D3
:1027C0002808F4000A30F1000030F200AB312B236E
:1027D000913171082000A0007208A100890D893B89
:1027E0008909A200A3000130A0311C2091312000F2
:1027F0002308CB002208CA002108C9002008C8000D
:102800004030CF000030CE000030CD000030CC0092
:102810008C31ED249131031C0E2C0F2CF029F62A5B
:102820006430E800B830E9005430A831002091311C
:10283000E72929000E082100A700A80129000F0898
:102840002100A900AA012908AA00A901270829072F
:102850002000A000210028082A3D2000A100A2019C
:10286000A3010030A0311C20913120002308220058
:10287000C000200022082200BF0020002108220002
:10288000BE00200020082200BD00003021005202BE
:1028900009300319510203184E2C4F2C6A2C510891
:1028A000A7000130A735FF3E031D522C2735203EDF
:1028B00086000230870022003D08C03F3E08C13F2D
:1028C0003F08C23F4008C33F01302100D10700301C
:1028D000D23D822C5108A7000130A735FF3E031DD1
:1028E0006D2C2735203E86000230870022003D08EF
:1028F000C03F3E08C13F3F08C23F4008C33F2100E0
:10290000D101D2010030BA000030B9000030B80067
:102910000030B700B501B601003036020A300319A5
:102920003502031C942C952C962CF62C3508A70008
:102930000130A735FF3E031D992C2735203E860028
:1029400002308700403FF100413FF200423FF30078
:10295000433FF4003A08F8003908F7003808F60059
:102960003708F50098313720913174082100BA00FA
:102970007308B9007208B8007108B700093035064D
:102980003604031DC42CC52CF12C41302000B100AD
:102990002030B0000030AF000030AE0021003A0817
:1029A0002000B500210039082000B40021003808BB
:1029B0002000B300210037082000B200903117201A
:1029C0009131200031082100BA0020003008210098
:1029D000B90020002F082100B80020002E08210097
:1029E000B7000130B5070030B63D8C2C3A08200006
:1029F000B500210039082000B4002100380820006B
:102A0000B300210037082000B2003C30B10048304C
:102A1000B0000030AF000030AE009A316F2291312B
:102A200020003108CB003008CA002F08C9002E084A
:102A3000C800AC315A249131200049082100B2006D
:102A4000200048082100B1003A082000B50021000C
:102A500039082000B400210038082000B30021000C
:102A600037082000B2003C30B1004830B0000030E0
:102A7000AF000030AE009A316F2291312000310852
:102A80002100AF00200030082100AE0020002F08F8
:102A90002100AD0020002E082100AC0000302000F5
:102AA000D4000030D3000030D2000A30D100210021
:102AB0002F082000B50021002E082000B4002100BE
:102AC0002D082000B30021002C082000B200413066
:102AD000B1002030B0000030AF000030AE009A31BD
:102AE0006F22913120003108CB003008CA002F0836
:102AF000C9002E08C800AC315A24913120004B087F
:102B0000D8004A08D7004908D6004808D500A9319E
:102B10002B219131200052082100B40020005108DF
:102B20002100B30020302000E800B830E9005F3019
:102B3000A8310020913121005508031DA02DA12DA1
:102B4000BC2DD501D50A2C302000E800B830E900B2
:102B5000210032082000EB00210031082000EA00AB
:102B6000210034082000ED00210033082000EC0093
:102B70004930A8310020913120000D1EC02DC12DFB
:102B8000C52D8C1DC42DC52DBF2E7530E800B83065
:102B9000E9005430A8310020913122004008200083
:102BA000CB0022003F082000CA0022003E0820007F
:102BB000C90022003D082000C800AC315A249131E0
:102BC00020004908D2004808D100B63125269131AD
:102BD0003F302000CB00F330CA003330C90033301F
:102BE000C8003C30B1004830B0000030AF000030C9
:102BF000AE0021003A082000B5002100390820006D
:102C0000B400210038082000B3002100370820005C
:102C1000B2009A316F22913120003108CF00300884
:102C2000CE002F08CD002E08CC008C31ED24913140
:102C300003181B2E1C2E1F2E22000C14552E3C3068
:102C40002000B1004830B0000030AF000030AE00CE
:102C500021003A082000B500210039082000B40006
:102C6000210038082000B300210037082000B200FE
:102C70009A316F22913120003108CB003008CA0010
:102C80002F08C9002E08C8003F30CF00E630CE0024
:102C90006630CD006630CC008C31ED2491310318C4
:102CA000522E532E552E22000C1040302000CB0007
:102CB0000330CA003330C9003330C8003C30B100A3
:102CC0004830B0000030AF000030AE0021003A08BC
:102CD0002000B500210039082000B4002100380888
:102CE0002000B300210037082000B2009A316F2283
:102CF000913120003108CF003008CE002F08CD00E0
:102D00002E08CC008C31ED2491310318882E892EA9
:102D10008A2EF62A3C302000B1004830B000003046
:102D2000AF000030AE0021003A082000B5002100BD
:102D300039082000B400210038082000B300210029
:102D400037082000B2009A316F22913120003108FB
:102D5000CB003008CA002F08C9002E08C8003F3039
:102D6000CF00F930CE009930CD009A30CC008C31B4
:102D7000ED2491310318BD2EBE2EFF2FF0296430B3
:102D8000E800B830E9005430A83100209131E7293B
:102D90000230A7002708F300F401F40AEC30A83150
:102DA0002A20913143302000E800B830E9005F303C
:102DB000A831002091314E302000E800B830E90001
:102DC0000A30F1000030F20021006C08A700A801D1
:102DD0002708F3002808F400AB312B239131720847
:102DE0002000EB007108EA000A30F1000030F20028
:102DF00021006C08A900AA012908F3002A08F400A0
:102E0000A931C621913172082000ED007108EC0053
:102E10004930A8310020913121006C08A700A80199
:102E2000A901AA012A082000A300210029082000E6
:102E3000A200210028082000A1002100270820006E
:102E4000A0000130A0311C20913120002308B500E2
:102E50002208B4002108B3002008B2004130B100BC
:102E60000230B000F130AF00AA30AE009A316F22CC
:102E7000913120003108CB003008CA002F08C9006A
:102E80002E08C800AC315A24913120004908D200E4
:102E90004808D100B631252691313F302000CB00C3
:102EA000EC30CA00CC30C900CD30C8004130B10090
:102EB0002030B0000030AF000030AE0021006C08C0
:102EC000A700A801A901AA012A082000A300210047
:102ED00029082000A200210028082000A1002100CC
:102EE00027082000A0000030A0311C2091312000D4
:102EF0002308B5002208B4002108B3002008B2005E
:102F000090311720913120003108CF003008CE00D9
:102F10002F08CD002E08CC008C31ED249131031800
:102F2000922F932F962F22000C14982F22000C1012
:102F300021006C08A700A8012708F3002808F40066
:102F40000A30F1000030F200AB312B2391317108CF
:102F50002000A0007208A100890D893B8909A20008
:102F6000A3000130A0311C20913120002308CB00A8
:102F70002208CA002108C9002008C8004030CF003C
:102F80000030CE000030CD000030CC008C31ED247C
:102F90009131031CCC2FCD2FF029F62A5930200077
:102FA000E800B830E9005F30A8310020913181306D
:102FB0002000E800B830E9008430EA00B830EB00C7
:102FC0005430A83100209131E72921003008A700B2
:102FD000A8012808003A0319EE2FCE2F2708003A3F
:102FE0000319F329013A0319DE29033A0319F92ACF
:102FF000013A0319192C073A0319C82ECE2F0800DD
:1030000072082200EB007108EA0008002000E500C9
:103010006108E7006008E6002200C101C20124281F
:103020006630E3006308CE006208E4006408CF0065
:103030006508A131CA21983120004E082200C1073D
:1030400020004F082200C23D200066088400670867
:1030500085001200031D2D282E281028220042086A
:103060002000E100220041082000E0000800740870
:1030700080392000A0002008A8007435A000200896
:10308000AA00F31F4428452846282A142A080319B1
:103090004A284B285B282A0A031D4F285028582805
:1030A0000030F4000030F3000030F2000030F10096
:1030B000F317F40163280030F4000030F30000300F
:1030C000F2000030F10078088039A0002008A90043
:1030D0002908280603196D286E286F2828177835C7
:1030E000A0002008A900F71F76287728782829143F
:1030F000290803197C287D288D28290A031D812889
:1031000082288A280030F8000030F7000030F600EE
:103110000030F500F717F80195280030F80000306E
:10312000F7000030F6000030F5002A0829020318E5
:103130009A289B28DF28281F9E289F28A3288030B4
:10314000A0002008A8062A08A0002008AB00290833
:10315000A0002008AA002B08A0002008A9007108E0
:10316000A0002008AB007508A0002008F1002B0883
:10317000A0002008F5007208A0002008AB00760827
:10318000A0002008F2002B08A0002008F600730819
:10319000A0002008AB007708A0002008F3002B084F
:1031A000A0002008F7007408A0002008AB007808F1
:1031B000A0002008F4002B08A0002008F800AB01B4
:1031C0002908A000A1012108A3002A082002A200CA
:1031D000031CA3032308803AA40080302402031DAB
:1031E000F3281A302202031CF628F7282F29740826
:1031F000730472047104031DFE28002901300129A3
:1032000000302000A0002008AB000030F4000030A7
:10321000F3000030F2000030F1002908A00020087F
:10322000AA0036292B1C152916291C292B360138F2
:10323000A0002008AB001E290310AB0C711C212933
:1032400022292329AB170130A000F437F30CF20C2C
:10325000F10CA00B25290130A0002008AA072000AE
:1032600029082A02031C352936291229281B392945
:103270003A2972292A08031D3E293F29482900308E
:10328000F4000030F3000030F2000030F1006E2A4C
:103290007508F1077608F23D7708F33D7808F43DAC
:1032A000741C53295429FE292B1C572958295E299F
:1032B0002B360138A0002008AB0060290310AB0CAE
:1032C000711C632964296529AB170130A000F4370C
:1032D000F30CF20CF10CA00B67290130A0002008C0
:1032E000AA07FE297408803AA0007808803A2002D4
:1032F000031D842977087302031D8429760872024E
:10330000031D842975087102031887298829C0299B
:10331000FF30A000FF30A100FF30A200FF30A3006B
:1033200071087502A4007208763BA5007308773B0C
:10333000A6007408783BA7002408A0072508A13D33
:103340002608A23D2708A33D2308F4002208F30025
:103350002108F2002008F1008030A0002008A80613
:10336000AB09AB0A2B08031DB629B729C8290130C0
:10337000F1070030F23D0030F33D0030F43DC82944
:103380007508F1027608F23B7708F33B7808F43BC6
:103390007408730472047104031DCF29D029FA291B
:1033A0002B08031DD429D529FA290030F400003058
:1033B000F3000030F2000030F1006E2A0130F135E8
:1033C000F20DF30DF40D890BDF29AB1FE829E92974
:1033D000EA2971142B1CED29EE29F1290314AB0DF8
:1033E000F3290310AB0D2A080319F729F829FA2944
:1033F0000130AA02F31FFD29FE29DE29A901AB1F16
:10340000022A032A112A2B087F390319082A092ABC
:103410000C2AA901A90A112A711C0F2A102A112AA3
:10342000092A29080319152A162A432A0130F10707
:103430000030F23D0030F33D0030F43D741C212A91
:10344000222A432A7108A0007208A1007308A20072
:103450007408A3000130A400A337A20CA10CA00C97
:10346000A40B2C2A2308F4002208F3002108F20000
:103470002008F1002A0A03193E2A3F2A432A013074
:10348000A0002008AA072A0A0319472A482A4D2A19
:103490002A08031D4C2A4D2A5B2A0030F400003014
:1034A000F3000030F2000030F1002A08031D592A11
:1034B0005A2A5B2AA8012A1C5E2A5F2A612AF3176E
:1034C000652A7F30A0002008F3052A36A0002008D6
:1034D000F400A81F6C2A6D2A6E2AF4170800200039
:1034E00031088039B6003608BB003135B6003608E1
:1034F000C100B01F7C2A7D2A7E2A4114410803198D
:10350000822A832A922A410A031D872A882A902A1E
:103510000030B1000030B0000030AF000030AE002D
:10352000B0179A2A0030B1000030B0000030AF0070
:103530000030AE0035088039B6003608BB06353598
:10354000B6003608C000B41FA62AA72AA82A40142D
:1035500040080319AC2AAD2ABC2A400A031DB12A2F
:10356000B22ABA2A0030B5000030B4000030B300EF
:103570000030B200B417C42A0030B5000030B400E7
:103580000030B3000030B20040080319C82AC92A2D
:10359000CE2A4108031DCD2ACE2AD72A0030B100F9
:1035A0000030B0000030AF000030AE00C52C2E0857
:1035B000B6003608F1003408B73157279A3172083F
:1035C0002000C7007108C6004608B600B701B80160
:1035D000B9013908BF003808BE003708BD003608F9
:1035E000BC004708B600B701B801B9013908C500E9
:1035F0003808C4003708C3003608C2002F08B600D8
:103600003608F1003308B73157279A317208200085
:10361000C7007108C6004608B600B701B801B90175
:103620003608BC073708BD3D3808BE3D3908BF3DE8
:103630004708B600B701B801B9013608C207370814
:10364000C33D3808C43D3908C53D3008B6003608CA
:10365000F1003208B73157279A3172082000C700AD
:103660007108C6004608B600B701B801B9013608AE
:10367000BC073708BD3D3808BE3D3908BF3D470887
:10368000B600B701B801B9013608C2073708C33D13
:103690003808C43D3908C53D0830BC35BD0DBE0DE8
:1036A000BF0D890B4D2B2F08B6003608F1003208EC
:1036B000B73157279A3172082000C7007108C60039
:1036C0004608BC074708BD3D0030BE3DBF3D2E0843
:1036D000B6003608F1003308B73157279A3172081F
:1036E0002000C7007108C6004608BC074708BD3D5A
:1036F0000030BE3DBF3D0830BC35BD0DBE0DBF0D19
:10370000890B7C2B2E08B6003608F1003208B73141
:1037100057279A3172082000C7007108C600460872
:10372000BC074708BD3D0030BE3DBF3D2F08B60079
:103730003608F1003408B73157279A317208200053
:10374000C7007108C6004608C2074708C33D0030DD
:10375000C43DC53D3008B6003608F1003308B73126
:1037600057279A3172082000C7007108C600460822
:10377000C2074708C33D0030C43DC53D3008B60010
:103780003608F1003408B73157279A317208200003
:10379000C7007108C6004608B6004708B700B80160
:1037A000B9010830B635B70DB80DB90D890BD22B5C
:1037B0003608C2073708C33D3808C43D3908C53D3F
:1037C0003C08B6003D08B7003E08B8003F08B90005
:1037D0001830B936B80CB70CB60C890BE92B360883
:1037E000C2073708C33D3808C43D3908C53D083015
:1037F000BC35BD0DBE0DBF0D890BF82B4108400730
:10380000B600B701B70D3608823EC600FF30373D1F
:10381000C700212C0130C235C30DC40DC50D890B65
:103820000B2CBF1F142C152C162C42140130BC3548
:10383000BD0DBE0DBF0D890B172CFF30C607FF3025
:10384000C73DC41F242C252C0A2CC001BF1F292CC6
:103850002A2C462CFF303C05B600FF303D05B70052
:10386000FF303E05B8007F303F05B9003908380405
:103870003704360403193D2C3E2C412CC001C00AEC
:10388000462C421C442C452C462C3E2C4008031947
:103890004A2C4B2C732C0130C2070030C33D003042
:1038A000C43D0030C53D451C562C572C732C420896
:1038B000B6004308B7004408B8004508B900013015
:1038C000BA00B937B80CB70CB60CBA0B612C390872
:1038D000C5003808C4003708C3003608C2000130EC
:1038E000C6070030C73D4708803AB6008030360230
:1038F000031D7C2CFF304602031C7F2C802C8A2C5D
:103900007F302000C5008030C4000030C30000308C
:10391000C200B92C20004708803AB6008030360239
:10392000031D942C013046020318972C982CA32CCD
:1039300000302000C5000030C4000030C30000305B
:10394000C200BB01B92C20004608B6003608C100F1
:10395000FF30C205FF30C3057F30C4050030C50508
:10396000411CB32CB42CB52CC4174136B600360814
:10397000C5003B08B6003608C5044508B100440838
:10398000B0004308AF004208AE000800B6319826E8
:103990009C318B170B1705302100BC000F30BB008A
:1039A000F130890BD12CBB0BD12CBC0BD12CF301EA
:1039B000F401F40ADB30A8312A209C31F301F30A28
:1039C000F401F40AED30A8312A209C3102302100A4
:1039D000BB003B08F300F401F40AEC30A8312A20C4
:1039E0009C31653021006D02031CF72CF82C112D41
:1039F0003230BB003B08ED00ED30BB003B08F70068
:103A0000F801F80A0130AB318A239C31ED302100F6
:103A1000BB003B08F700F801F80A0330AB318A23FA
:103A20009C31653021006C02031C172D182D262DAA
:103A30006430BB003B08EC00EC30BB003B08F700F7
:103A4000F801F80A0230AB318A239C31AC31CF2423
:103A50009C3101302100BB003B08D700053021001C
:103A6000BC000F30BB00F130890B342DBB0B342D63
:103A7000BC0B342DB531D9259C3122000C17200008
:103A80008D18432D442DA52D0D18472D482DA52DFE
:103A90005F30B631FA269C315430B631FA269C316B
:103AA0007D302000E800B830E9008430EA00B8300A
:103AB000EB005430A83100209C31B230B631FA26E8
:103AC0009C314930B631FA269C3101302100BB00CF
:103AD0003B08D7005703031D6E2D6F2D732DAE309D
:103AE000B63184269C312100C101C10A41088D31C3
:103AF00078259C3101302100BB003B08C10705300F
:103B00004102031C842D852D762D5703031D892D1D
:103B10008A2D902DAF30B63184269C312100D701FB
:103B20007A302100BC00C130BB008130890B962D5A
:103B3000BB0B962DBC0B962D003201302100BB0033
:103B40003B08D700B531D9259C3120008D1AA92D0D
:103B5000AA2D1D2F02302100BB003B08F300F40109
:103B6000F40AEC30A8312A209C315F30B631FA26B5
:103B70009C316D302000E800B830E9005F30A8319A
:103B800000209C315430B631FA269C31B230B63127
:103B9000FA269C314930B631FA269C314E3020004D
:103BA000E800B830E9000A30F1000030F2002100EE
:103BB0006C08BB00BC013B08F3003C08F400AB31CF
:103BC0002B239C3172082000EB007108EA000A30B8
:103BD000F1000030F20021006C08BD00BE013D087C
:103BE000F3003E08F400A931C6219C317208200080
:103BF000ED007108EC004930A83100209C31210013
:103C00006C08BB00BC01BD01BE013E082000A30042
:103C100021003D082000A20021003C082000A10056
:103C200021003B082000A0000130A0311C209C3165
:103C300020002308B5002208B4002108B3002008A2
:103C4000B2004130B1000230B000F130AF00AA3014
:103C5000AE009A316F229C3120003108CB00300831
:103C6000CA002F08C9002E08C800AC315A249C3164
:103C700020004908D2004808D100B63125269C31E1
:103C80003F302000CB00EC30CA00CC30C900CD3032
:103C9000C8004130B1002030B0000030AF0000302B
:103CA000AE0021006C08BB00BC01BD01BE013E0896
:103CB0002000A30021003D082000A20021003C08B4
:103CC0002000A10021003B082000A0000030A0310E
:103CD0001C209C3120002308B5002208B4002108D4
:103CE000B3002008B200903117209C312000310829
:103CF000CF003008CE002F08CD002E08CC008C312C
:103D0000ED249C310318852E862E892E22000C145A
:103D10008B2E22000C1021006C08BB00BC013B085C
:103D2000F3003C08F4000A30F1000030F200AB313F
:103D30002B239C3171082000A0007208A100890D7E
:103D4000893B8909A200A3000130A0311C209C31CD
:103D500020002308CB002208CA002108C90020083F
:103D6000C8004030CF000030CE000030CD00003021
:103D7000CC008C31ED249C31031CBF2EC02EC32EF1
:103D800022008C14C52E22008C10AE30B631842651
:103D90009C312100C201C20A05304202031CD12E0F
:103DA000D22ED32EDD2E42088D3178259C31013064
:103DB0002100BB003B08C207CC2EAF30B6318426B1
:103DC0009C31FF30B6310F269C312100BF01C0016C
:103DD000132F21003F0840040319EF2EF02EF52E7B
:103DE0000130BF020030C03BF92EE830BF00033085
:103DF000C00001304002F53003193F02031C012FBF
:103E0000022F052F22000C13072F22000C170B3056
:103E10002100BB006230890B0B2FBB0B0B2F000066
:103E2000B531D9259C3120008D1E172F182FE92E72
:103E300001302100BB003B08D70021005B08913115
:103E4000CB219C3121005E085F040319282F292F04
:103E50002E2FFF30B6310F269C31322F0030B63175
:103E60000F269C3121005703031D372F382F3C2F7D
:103E7000AE30B63184269C312100C301C30A05301F
:103E80004302031C442F452F462F502F43088D31EA
:103E900078259C3101302100BB003B08C3073F2F30
:103EA0005703031D542F552F5B2FAF30B631842697
:103EB0009C312100D701A43148249C3121005508B0
:103EC0000319632F642F662F0130D5025C085D044F
:103ED000031D6B2F6C2F8B2FE230E0000430E100CC
:103EE0000130BB003B08FC00DB30BB003B08F700A7
:103EF000F801F80A0030AB318A239C3104302100EC
:103F0000BB003B08DB00FA30DC000030DD00013094
:103F1000BB003B08D70060086104031D902F912F60
:103F2000992FFC01F301F401F40ADB30A8312A20B7
:103F30009C31210062086304031D9F2FA02FEA2FEC
:103F4000FC01E001E101D9010530BB003B08DB00C9
:103F50003230BB003B08ED006430BB003B08EC0096
:103F600000302200C0000030BF000030BE00003032
:103F7000BD00DB302100BB003B08F700F801F80A68
:103F80000030AB318A239C31ED302100BB003B086F
:103F9000F700F801F80A0130AB318A239C31ED308B
:103FA0002100BB003B08F700F801F80A0330AB31F1
:103FB0008A239C31EC302100BB003B08F700F8015C
:103FC000F80A0230AB318A239C3101302100BB005A
:103FD0003B08D70058080319EE2FEF2F3A2DAB31CD
:103FE000EA239C312100D80100302200C8000030B3
:103FF000C7007D30C6000030C5003A2D8031A728AB
:10400000F2001830F100710821008E047203031DC4
:104010000A280B280E282400941713287F30F1005B
:104020007108240094052830950007309200F7307D
:10403000F1007108970508002000A800280803195E
:10404000222823283728A31F262827283728200995
:10405000AA002109AB002209AC002309AD00AA0A7D
:104060000319AB0A0319AC0A0319AD0A3F28230848
:10407000AD002208AC002108AB002008AA002308EC
:10408000220421042004031D46284728502800301C
:10409000A3000030A2000030A1000030A000C8281A
:1040A0009630A4002408A90060280130A400240848
:1040B000A9070130AD36AC0CAB0CAA0C890B5A2801
:1040C000FE302D05031D6528662855287A28013005
:1040D000A4002408A9070130AA070030AB3D003036
:1040E000AC3D0030AD3D0130AD36AC0CAB0CAA0C94
:1040F000890B7428FF302D05031D7F288028672831
:104100008A280130A9020130AA35AB0DAC0DAD0DE6
:10411000890B8428AC1B8D288E2894280230290214
:104120000318932894288128291897289828A028CC
:10413000FF30AA05FF30AB057F30AC05FF30AD0581
:104140000310A90C2908A400A501A601A701183095
:10415000A435A50DA60DA70D890BA8282408AA042F
:104160002508AB042608AC042708AD042808031969
:10417000BA28BB28C028A31FBE28BF28C028AD1757
:104180002D08A3002C08A2002B08A1002A08A000DB
:104190000800F3012030860000308700473FF1001F
:1041A000F11FD328D428F5282000A009A109A209CD
:1041B000A309A409A509A609A709A00A031DF328B4
:1041C000A10A031DF328A20A031DF328A30A031D55
:1041D000F328A40A031DF328A50A031DF328A60A41
:1041E000031DF328A70AF301F30A283086000030E4
:1041F0008700473FF100F11FFE28FF2822292000F9
:10420000A809A909AA09AB09AC09AD09AE09AF090A
:10421000A80A031D1E29A90A031D1E29AA0A031D97
:104220001E29AB0A031D1E29AC0A031D1E29AD0A57
:10423000031D1E29AE0A031D1E29AF0A0130F1001D
:104240007108F30674308600003087000830F100F2
:1042500000301E00F10B292920002008210422042F
:1042600023042404250426042704031938293929A2
:104270009529F201F20A4829A035A10DA20DA30D3E
:10428000A40DA50DA60DA70D0130F1007108F207D0
:10429000A71F4B294C293C29F435F50DF60DF70DD8
:1042A000F80DF90DFA0DFB0D27082F02031D7229D9
:1042B00026082E02031D722925082D02031D7229CE
:1042C00024082C02031D722923082B02031D7229C6
:1042D00022082A02031D722921082902031D7229BE
:1042E00020082802031C7529762987292008A8029E
:1042F0002108A93B2208AA3B2308AB3B2408AC3B7E
:104300002508AD3B2608AE3B2708AF3B7414A73603
:10431000A60CA50CA40CA30CA20CA10CA00C0130A3
:10432000F202031D942995294C2973080319992930
:104330009A29B829F409F509F609F709F809F909DC
:10434000FA09FB09F40A031DB829F50A031DB82967
:10435000F60A031DB829F70A031DB829F80A031D38
:10436000B829F90A031DB829FA0A031DB829FB0A5E
:1043700074082000A0007508A1007608A200770844
:10438000A3007808A4007908A5007A08A6007B0895
:10439000A70008002000DF004E0886008701403F8C
:1043A000D000413FD1005008840051088500120020
:1043B000253A031DDC29DD29B42A4E088600870131
:1043C0000130810741310318810A2100CB01CC0162
:1043D000CF01D001FF30CD00FF30CE0020004E08CD
:1043E00086008701403FD000413FD1005008840043
:1043F000510885001200643A0319FF29002A112A86
:104400004E0886008701403FD000413FD100500850
:104410008400510885001200693A031D102A112AF0
:104420004C2A4E088600870101308107413103186C
:10443000810A4F0886008701010884008501023047
:104440008107003FD000013FD1005008D50051083E
:10445000D600890D893B8909D700D800D900DA0038
:10446000DB00DC005508B0005608B1005708B20068
:104470005808B3005908B4005A08B5005B08B600E4
:104480005C08B7005F08A231D822A13120003108B2
:10449000CF003008CE00D72A4E0886008701403F63
:1044A000D000413FD100500884005108850012001F
:1044B000733A031D5C2A5D2A7F2A4E088600870115
:1044C0000130810741310318810A4F0886008701B6
:1044D00001088400850102308107003FDD00013FB3
:1044E000DE005E08FA005D08F9005F08AD31612565
:1044F000A1317A082000CF007908CE00D72A4E08D3
:1045000086008701403FD000413FD1005008840021
:10451000510885001200253A031D8F2A902AA92AE6
:104520004E08860087010130810741310318810A56
:104530002530F1000030F2005F08D0005008F30091
:10454000A9317621A13101302000CE000030CF000A
:10455000D72A4E08860087010130810741310318B0
:10456000810ACE01CF01D72A4E0886008701403F3D
:10457000D000413FD1005008840051088500000858
:10458000D200D3015208F1005308F2005F08D400B2
:104590005408F300A9317621A13120004E0886008D
:1045A00087010130810741310318810AA32A0800DD
:1045B0002000BB003008C4003108C5003208C60026
:1045C0003308C7003408C8003508C9003608CA00D7
:1045D0003708CB004430860000308700473FB800E2
:1045E000B81BF32AF52A0130F62A00302000B90062
:1045F000BA013908C2003A08C3004208430403194B
:10460000022B032B212BC409C509C609C709C809F8
:10461000C909CA09CB09C40A031D212BC50A031DF8
:10462000212BC60A031D212BC70A031D212BC80AF3
:10463000031D212BC90A031D212BCA0A031D212B8F
:10464000CB0A2100CE1B252B262B2A2BFD30CF0594
:10465000FF30D0054E08803A2000B8008030380284
:10466000031D352B013021004D020318382B392B47
:104670003F2B01302000BE000030BF00472B21003F
:104680004E082000BF0021004D082000BE00210080
:104690004C082000C10021004B082000C000420847
:1046A0004304031D542B552B5A2B21004F1D592B0E
:1046B0005A2B5F2BFF302000C007FF30C13D1F3059
:1046C0002000CC000030CD002400E701D02BFF30CB
:1046D0002000CC07FF30CD3D0A30A000A101A2018F
:1046E000A301A401A501A601A7014408A80045084B
:1046F000A9004608AA004708AB004808AC004908D2
:10470000AD004A08AE004B08AF00AF311627A2310A
:1047100020002108F5002008F400B631E026A2317F
:104720007408303E2000B8004C08483E8600023035
:10473000870038088100FF30BE07FF30BF3DFF30E3
:10474000C007FF30C13D0A30A000A101A201A301B2
:10475000A401A501A601A7014408A8004508A900D5
:104760004608AA004708AB004808AC004908AD005D
:104770004A08AE004B08AF00A031C920A23120008A
:104780002008C4002108C5002208C6002308C7006D
:104790002408C8002508C9002608CA002708CB003D
:1047A00020004D08803AB80080303802031DDA2B13
:1047B00001304C02031CDD2BDE2B0B2C20004408A7
:1047C000450446044704480449044A044B04031DB5
:1047D000EA2BEB2B672B3F08803AB8008030380279
:1047E000031DF42B01303E020318F72BF82B672B27
:1047F00020004108803AB80080303802031D022CA6
:1048000001304002031C052C062C0B2C2100CF1874
:104810000A2C0B2C672B200042084304031D112C8B
:10482000122C172C21004F1D162C172C342CFF3066
:104830002000CC07FF30CD3D42084304031D212C4E
:10484000222C272C2B30BC000030BD002B2C2D300F
:10485000BC000030BD003C08B8004C08483E860053
:10486000023087003808810020004C08483EB8001C
:104870003808A7004108A9004008A8003B08AA3151
:104880007122A23120002808B1002708B0000800DA
:104890002100D60120008D184E2C4F2C5F2C0130AA
:1048A000FB007B082100D607680869040319592C0E
:1048B0005A2C642CFF30E807FF30E93D642C0130AE
:1048C0002100E8000030E90020000D19682C692C57
:1048D000792C0130FB007B082100D60766086704AD
:1048E0000319732C742C7E2CFF30E607FF30E73D54
:1048F0007E2C01302100E6000030E70020000D187A
:10490000822C832C932C0130FB007B082100D607DE
:104910006408650403198D2C8E2C982CFF30E40755
:10492000FF30E53D982C01302100E4000030E50027
:104930005603031D9C2C9D2CD52D6A086B0403196E
:10494000A22CA32CA82CFF30EA07FF30EB3DD92D79
:10495000E230DE000430DF0068086904031DB12C7A
:10496000B22C1D2D20008D1EB62CB72C1D2D0D1D1B
:10497000BA2CBB2C1D2D210053085404031DC12C3F
:10498000C22C1D2D043020006F020318C82CC92C26
:10499000D22C0130FB007B08EF0732302100D3001E
:1049A0000030D4007C080319D62CD72CED2C6430B1
:1049B00021006C020318DD2CDE2C1D2D0130FB00C4
:1049C0007B08EC07EC30FB007B08F700F801F80AE5
:1049D0000230AB318A23A4311D2D643021006D02D9
:1049E0000318F32CF42C1D2D5B08031DF82CF92C57
:1049F000082D0130FB007B08ED07ED30FB007B0844
:104A0000F700F801F80A0130AB318A23A4311D2DDB
:104A100002305B06031D0D2D0E2D1D2D0130FB00F8
:104A20007B08ED07ED30FB007B08F700F801F80A82
:104A30000330AB318A23A4311D2D210066086704A1
:104A4000031D232D242D872D20008D1E282D292D7B
:104A5000872D8D1C2C2D2D2D872D210053085404BE
:104A6000031D332D342D872D043020006F020318D1
:104A70003A2D3B2D442D0130FB007B08EF073230EF
:104A80002100D3000030D4007C080319482D492DA3
:104A90005C2D21006C0803194E2D4F2D872D013000
:104AA000EC02EC30FB007B08F700F801F80A02305A
:104AB000AB318A23A431872D21006D080319612DA4
:104AC000622D872D5B08031D662D672D742D013027
:104AD000ED02ED30FB007B08F700F801F80A013029
:104AE000AB318A23A431872D02305B06031D792D5B
:104AF0007A2D872D0130ED02ED30FB007B08F700A9
:104B0000F801F80A0330AB318A23A431872D210044
:104B100064086504031D8D2D8E2DD92D5A08031DA3
:104B2000922D932DD92D0130FB007B08DA00200057
:104B30008D1C9B2D9C2DD92D0D1D9F2DA02DD92D6C
:104B40000130FB007B082100D70004305B06031D09
:104B5000AA2DAB2DB42DFC01F301F401F40ADB30D6
:104B6000A8312A20A431D92D03305B020318B92DB6
:104B7000BA2DC92D0130FB007B08DB07DB30FB00C1
:104B80007B08F700F801F80A0030AB318A23A43122
:104B9000D92DDB01DB30FB007B08F700F801F80AB8
:104BA0000030AB318A23A431D92D0130EA00003026
:104BB000EB0008002000C801C901CA01CB01BA01FD
:104BC000BB01210047080739031DE72DE82D162FEB
:104BD00046082000B200B3013208A0003308A1004B
:104BE0000830F1000030F200210047082000B40036
:104BF000B5013408F3003508F400AB312B23A5319F
:104C000072082000A3007108A200B7311727A53150
:104C100020002108BF002008BE0021004808200015
:104C20003102A000A101031CA1033F08A3003E081C
:104C3000A200B7311727A53120002008043EC2008A
:104C40000030213DC300C801C901FA2E0230CA005C
:104C50000030CB00E32E210046082000B200B30153
:104C60003208A0003308A1004908A3004808A200A8
:104C7000B7311727A5312000200821004407200064
:104C8000B40021082100453D2000B500420834074A
:104C9000B6004308353DB70036084A078400370898
:104CA0004B3D85000008B800B9013808BA00390842
:104CB000BB00CC010130B2000030B3004C0A622EC0
:104CC000B235B30D890B602E3A083205B4003B08AB
:104CD0003305B5003408350403196F2E702ECD2E20
:104CE00021004A08031D752E762EA22E20004A08A8
:104CF0002D07B2004B082E3DB3003208FE3EA00047
:104D0000FF30333DA1004C08B400B5014908B7009D
:104D10004808B600B635B70DB635B70DB635B70D80
:104D200034083607B8003508373DB9002F08380772
:104D3000A2003008393DA300A401A40AAE313826F0
:104D4000A531D42E20004A082D07B2004B082E3D75
:104D5000B3003208FE3EA000FF30333DA1004C08F6
:104D6000B400B5014908B7004808B600B635B70D1C
:104D7000B635B70DB635B70D34083607B800350867
:104D8000373DB9002F083807A2003008393DA3008D
:104D9000A401AE313826A531D42E21004A08031DC6
:104DA000D22ED32E762EA22E01302000B200320851
:104DB000CC0708304C02031CDE2EDF2E5A2E0130A9
:104DC000CA070030CB3D21004608FE3E2000B2005D
:104DD000FF3003180030B30033084B02031DF22EDE
:104DE00032084A02031CF52EF62E2B2E0130C8077E
:104DF0000030C93D0830F1000030F20021004708C2
:104E00002000B200B3013208F3003308F400AB31E4
:104E10002B23A531720820004902031D112F7108B0
:104E20004802031C142F152F262EFF2F0830F100E7
:104E30000030F20046082000B200B3013208A000A2
:104E40003308A100210047082000B400B501340850
:104E5000A2003508A300B7311727A531200021088B
:104E6000F4002008F300AB312B23A5317208200099
:104E7000BF007108BE002100480820003102A000D8
:104E8000A101031CA1033F08A3003E08A200B73103
:104E90001727A53120002008043EC2000030213D24
:104EA000C300210044082000420784002100450877
:104EB0002000433D85000008B200B3013208BC0069
:104EC0003308BD000730C0000030C100C401C50177
:104ED000F02F2000C601C701DC2F01302000B200F6
:104EE0000030B300400A762FB235B30D890B742F12
:104EF0003C083205B4003D083305B50034083504DC
:104F00000319832F842FAF2F21004A08031D892FF7
:104F10008A2F9D2F200044082D07A00045082E3D14
:104F2000A10046082F07A2004708303DA300A401B6
:104F3000A40AAE313826A531B62F200044082D072B
:104F4000A00045082E3DA10046082F07A2004708F3
:104F5000303DA300A401AE313826A531B62F210083
:104F60004A08031DB42FB52F8A2F9D2FFF30200034
:104F7000C007FF30C13DC11FBE2FBF2FD82F073044
:104F8000C0000030C1000130C2070030C33D210025
:104F90004408200042078400210045082000433DCA
:104FA00085000008B200B3013208BC003308BD0020
:104FB0000130C6070030C73D4708803AB200803054
:104FC0003202031DE72F2100470820004602031C80
:104FD000EA2FEB2F6D2F01302000C4070030C53DB4
:104FE0004508803AB20080303202031DFB2F2100B9
:104FF000460820004402031CFE2FFF2F692F0800E3
:105000002100A6006A302000EE006E082100A000FA
:1050100026082000EE006E082100A100A201A301D5
:10502000A401A50120006908E1006808E000A030A3
:10503000EE006E08E200A13098310620A831210070
:10504000220826072000EE006E0886000130870047
:1050500081010800F9007308F500F6010530F53507
:10506000F60D890B2F287508803EF7003F30763DFE
:10507000F8002130740203183E283F2863280430CA
:105080007302031C442845285E2863287808F20030
:105090007708F100B6316326A8317108F500790868
:1050A00086008701750881000130F7070030F83D60
:1050B0000130F5007508F9070130F4027408031D8A
:1050C000622863284628080072082100C50071087C
:1050D000C40071088400720885000008F30073089A
:1050E000C6007208F4007108F300013073078400F1
:1050F00074080318740A85000008F5007508C700D5
:105100007208F4007108F300023073078400740819
:105110000318740A85000008F5007508C8007208B5
:10512000F4007108F3000330730784007408031857
:10513000740A85000008F5007508C900CA01080056
:10514000F5007508F4007408F6007108F40074089E
:10515000F700B6280130F2020030F33B0130F400D2
:105160007408F6070130F4007408F7077208730436
:105170000319BB28BC28CA2877088600013087009D
:105180007608840001308500000801060319C9284B
:10519000CA28AA2872087304031DCF28D028D32850
:1051A000F101F201E12876088600013087007708D6
:1051B00084000130850000080102F100F201031CA7
:1051C000F20308002E342E342E342E342E342E3496
:1051D0002E342E342E342E34003428346E3475346C
:1051E0006C346C34293400342E342E342E342E3466
:1051F0002E342E342E342E342E342E3400342E34CD
:105200002E342E342E342E342E342E342E342E348E
:105210002E3400342E342E342E342E342E342E34AC
:105220002E342E342E342E3400342E342E342E349C
:105230002E342E342E342E342E342E342E3400348C
:105240002E342E342E342E342E342E342E342E344E
:105250002E342E34003420005408530452045104D8
:105260000319332934296D29DA01DA0A4229013078
:10527000D135D20DD30DD40D890B38290130D90089
:105280005908DA07D41F45294629372954085802F6
:10529000031D542953085702031D5429520856026E
:1052A000031D542951085502031C57295829602908
:1052B0005108D5025208D63B5308D73B5408D83B77
:1052C0000130D436D30CD20CD10C890B61290130BA
:1052D000DA02031D6C296D2946295808D4005708A5
:1052E000D3005608D2005508D100080073080319EE
:1052F0007A297B2980297308031D7F298029852924
:105300007108B531D625A931C5297308033E860039
:1053100087011600010403198E298F29AC2973080F
:10532000033E86008701403FF400413FF500730AC9
:1053300086008701403FF600413FF7007708803A3A
:10534000F8007508803A7802031DA82974087602CF
:105350000318AB29AC29C5297108F400730886002D
:105360008701730A8400850100080107F5007508AC
:1053700086000130870074088100730A8600870167
:105380000130810741310318810A0800F701F41F39
:10539000CA29CB29D229F309F409F30A0319F40A1B
:1053A000F701F70AF21FD529D629DB29F109F209FD
:1053B000F10A0319F20A710872040319E029E129BC
:1053C0000A2AF601F60AED290130F135F20D890BB2
:1053D000E5290130F5007508F607F21FF029F129DB
:1053E000E42972087402031DF72971087302031C73
:1053F000FA29FB29FF297108F3027208F43B0130F6
:10540000F236F10C890B002A0130F602031D092A3D
:105410000A2AF129770803190E2A0F2A142AF309F8
:10542000F409F30A0319F40A7408F2007308F1008E
:105430000800F5012130B6318426AA310030B6319A
:105440008426AA317F30B6318426AA312230B63183
:105450008426AA310030B6318426AA310730B6310D
:105460008426AA31B531E525AA317830B63119261E
:10547000AA314030B6311926AA31F601F701F501FB
:10548000F030F3002630F4007608730786007708C2
:10549000743D87000108B6311926AA310130F6079C
:1054A0000030F73D0130F3007308F5071030750246
:1054B000031C5B2A5C2A402A0130F6020030F73BCD
:1054C0000130F6070030F73D043077020030031951
:1054D0007602031C6C2A6D2A3F2AB531DE25AA31DB
:1054E00008002000AE0021004F1C772A782A812A6C
:1054F00020002E08FA007A08F9002708B7319F2704
:10550000AA312000A91B852A862A8B2A2908AD00EA
:105510002808AC008D2AAC01AD01AA01AB01A12A7B
:105520002030F1000030F20020002E08FA007A0846
:10553000F300A9317621AA3101302000AA070030FA
:10554000AB3D2B08803AFA002D08803A7A02031D01
:10555000AB2A2C082A02031CAE2AAF2A902A21006B
:105560004F18B32AB42ABD2A20002E08FA007A0860
:10557000F9002708B7319F27AA3120002708F1003A
:105580000230F200B631C726AA3120002C0871077C
:10559000A7002D08723DA8000800F5007535FE3EF5
:1055A000F3007308F6002130B6318426AA310030AA
:1055B000B6318426AA317F30B6318426AA31223012
:1055C000B6318426AA317608B6318426AA31760807
:1055D000013EB6318426AA31B531E525AA317830AD
:1055E000B6311926AA314030B6311926AA31F80150
:1055F000F901F701F030F3002630F4007808730762
:1056000086007908743D87000108B6311926AA3151
:105610000130F8070030F93D0130F3007308F70757
:1056200010307702031C152B162BFA2A0130F802D2
:105630000030F93B0130F8070030F93D01307902C4
:10564000003003197802031C262B272BF92AB531C9
:10565000DE25AA310800F701F21F2F2B302B372B44
:10566000F109F209F10A0319F20AF701F70AF41F26
:105670003A2B3B2B442BF309F409F30A0319F40AE0
:105680000130F5007508F706F801F9017108720498
:1056900003194B2B4C2B7B2BF601F60A582B0130B0
:1056A000F135F20D890B502B0130F5007508F60726
:1056B000F21F5B2B5C2B4F2B0130F835F90D890B5A
:1056C0005D2B72087402031D672B71087302031CA3
:1056D0006A2B6B2B702B7108F3027208F43B781461
:1056E0000130F236F10C890B712B0130F602031DEB
:1056F0007A2B7B2B5C2B770803197F2B802B852B38
:10570000F809F909F80A0319F90A7908F200780882
:10571000F10008002000A0002008F900FA0105307F
:10572000F935FA0D890B902B7908803EA1003F30A6
:105730007A3DA2002130780203189F2BA02BE92B81
:1057400004302002031CA52BA62BA72BE92B220833
:10575000F2002108F100B631AE26AB31CE2B20008D
:105760002208F2002108F10077088600870101086D
:10577000F900FA017908F3007A08F400F501F50A56
:10578000B7313727AB310130F9007908F70701301D
:105790002000A1070030A23D0130F802023078025B
:1057A0000318D32BD42BAF2B20002208F2002108A2
:1057B000F1007708860087010108F900FA017908ED
:1057C000F3007A08F400F501B7313727AB31230035
:1057D00015080800AE30B6318426AB31D530B6316D
:1057E0008426AB31F030B6318426AB31A830B631E7
:1057F0008426AB313F30B6318426AB31D330B6315D
:105800008426AB310030B6318426AB314030B6311E
:105810008426AB318D30B6318426AB311430B631AD
:105820008426AB312030B6318426AB310030B6311E
:105830008426AB31A130B6318426AB31C830B631C5
:105840008426AB31DA30B6318426AB311230B63132
:105850008426AB318130B6318426AB31FF30B6318E
:105860008426AB31D930B6318426AB31F130B63134
:105870008426AB31DB30B6318426AB314030B631D3
:105880008426AB31A430B6318426AB31A630B63194
:105890008426AB312E30B6318426AB31AF30B631F1
:1058A0008426AB310530F1008130F200A83164204C
:1058B000AB310800031020004A0D4B0DCC004C0802
:1058C000FB007B08031D652C662C6F2C0030CB0081
:1058D0000030CA000030C9000030C800CE2C480893
:1058E000CC004908CD004A08CE004B08CF001F303D
:1058F000CF36CE0CCD0CCC0C890B782C4C08D000BC
:105900005008FA00CA17FF30C805FF30C905FF303C
:10591000CA050030CB059630FB02FB1F902C912C62
:10592000A92C7B08803A973E0318972C982C992C29
:10593000662C0130CB36CA0CC90CC80C890B9A2CCA
:105940000130CC004C08FB07031DA72CA82C992C78
:10595000BE2C20307B02031CAE2CAF2CB92C662C45
:105960000130C835C90DCA0DCB0D890BB12C0130E2
:10597000FB027B08031DBD2CBE2CB02C7A0803193A
:10598000C22CC32CCE2CC809C909CA09CB09C80A24
:105990000319C90A0319CA0A0319CB0A08000130FE
:1059A000A0310020AC31B531DE25AC310530F90035
:1059B0000F30F800F130890BDB2CF80BDB2CF90BE6
:1059C000DB2C0000AE30B6318426AC31D530B63198
:1059D0008426AC31F030B6318426AC31A830B631F3
:1059E0008426AC313F30B6318426AC31D330B63169
:1059F0008426AC310030B6318426AC314030B6312B
:105A00008426AC318D30B6318426AC311430B631B9
:105A10008426AC312030B6318426AC310030B6312A
:105A20008426AC31A130B6318426AC31C830B631D1
:105A30008426AC31DA30B6318426AC311230B6313E
:105A40008426AC318130B6318426AC31FF30B6319A
:105A50008426AC31D930B6318426AC31F130B63140
:105A60008426AC31DB30B6318426AC314030B631DF
:105A70008426AC31A430B6318426AC31A630B631A0
:105A80008426AC312E30B6318426AC31AF30B631FD
:105A90008426AC310530F1008130F200A831642059
:105AA000AC310530F9000F30F800F130890B562D7C
:105AB000F80B562DF90B562D0000AA311922AC31E6
:105AC00008002000AE00AB30860001308700233094
:105AD0008400003085000730A00016001A00A00BDB
