:020000040000FA
:100000008031C128803008007E1480318B1E092881
:100010000A28BF280B1D0D280E28BF280B11210010
:100020005C080319142815281F286408650403199F
:100030001A281B281F28FF30E407FF30E53D680819
:10004000690403192428252859286C086D04031D08
:100050002A282B2859286A086B04031D30283128C8
:10006000592822004D084E040319372838285E28E5
:100070000130CD020030CE3B4D084E04031D412817
:1000800042285E2850302100E400C330E500DC0146
:10009000DC0AE130FD007D08F600F701F70A0030C8
:1000A000AC31342480310430FD007D082100E100B2
:1000B0005E2810302200CD002730CE0021006C08D1
:1000C0006D040319642865287C286A086B04031DE5
:1000D0006A286B287C2868086904031D7028712829
:1000E0007C28660867040319762877288028FF3063
:1000F000E607FF30E73D8028A830E6006130E700E2
:100100006C086D0403198528862896286A086B04F4
:1001100003198B288C2896286808690403199128EC
:1001200092289628D401D501D601DD015408550442
:1001300003199B289C28A0280130D4020030D53B0D
:10014000620863040319A528A628AA28FF30E2073D
:10015000FF30E33D22004C084B044A0449040319D4
:10016000B228B328BC28FF30C907FF30CA3DFF3092
:10017000CB3DFF30CC3DBF282100D901D90A7E10EC
:1001800009008031C328C7308400B7308500E230D1
:100190008600003087000030FF000E30B731942712
:1001A000803138308400A830850049308600013025
:1001B00087000030FF001830B731942780310330BA
:1001C000840090308500A030860001308700003028
:1001D000FF003030B731942780312830840026303A
:1001E0008500C830FE000130FF00B731882780311C
:1001F000EF01C7308400003085001B30FE00003066
:10020000FF00B7318827803120308400013085001D
:100210002930FE000030FF00B73188278031D03010
:100220008400013085002030FE000030FF00B7312F
:100230008827803120308400023085004030FE0065
:100240000030FF00B731882780317E102000A431B4
:10025000752C1034103420345F34003400340034F2
:1002600000340034003400340034003400340034EE
:1002700000340034003400340034003400340034DE
:1002800000340034003400340034003400340034CE
:1002900000340034003400340034003400340034BE
:1002A0000034F834FC34FC34FC34F83400340034CA
:1002B000003400340034003400340034003400349E
:1002C0000034003473347334733400340034003435
:1002D000003400340034003400340034003400347E
:1002E00000341E343E343E340034003400343E3496
:1002F0003E341E3400340034003400340034003402
:10030000003400340034003400340034003400344D
:1003100000340034003400340034003430343034DD
:100320003034FE34FE343034303430343034FE3443
:10033000FE34303430343034003400340C340C3477
:100340000C347F347F340C340C340C340C347F3454
:100350007F340C340C340C3400340034003400345A
:10036000F034F8349834FE3498349834FE349834A9
:10037000983418340034003400340034003400342D
:100380001834193419347F34193419347F3419343A
:100390001F340F340034003400340034003400348F
:1003A00000343834383438348034C034E034703475
:1003B0003834003400340034003400340034003465
:1003C00000341C340E340734033401341C341C3420
:1003D0001C34003400340034003400340034003461
:1003E0003834FC34C434C434FC343834003400347D
:1003F00000348034003400340034003400340034DD
:100400001E343F342134213433343F341E341E34FF
:1004100037342334003400340034003400340034E2
:10042000003420343C343C341C3400340034003478
:10043000003400340034003400340034003400341C
:10044000003400340034003400340034003400340C
:1004500000340034003400340034003400340034FC
:100460000034C034E034F03438341C340C340434F8
:1004700004340034003400340034003400340034D8
:100480000034033407340F341C343834303420340F
:10049000203400340034003400340034003400349C
:1004A0000034043404340C341C343834F034E03474
:1004B000C0340034003400340034003400340034DC
:1004C000003420342034303438341C340F340734B2
:1004D00003340034003400340034003400348034F9
:1004E00088349034E034E034FC34FC34E034E034DC
:1004F00090348834803400340034003400340134C3
:1005000011340934073407343F343F340734073497
:100510000934113401340034003400340034003420
:100520000034803480348034F034F03480348034CB
:10053000803400340034003400340034003400349B
:1005400000340134013401340F340F3401340134E8
:1005500001340034003400340034003400340034FA
:1005600000340034003400340034003400340034EB
:1005700000340034003400340034003400340034DB
:100580000034403478347834383400340034003463
:1005900000340034003400340034003400340034BB
:1005A00080348034803480348034803480348034AB
:1005B000803480340034003400340034003400349B
:1005C0000134013401340134013401340134013483
:1005D0000134013400340034003400340034003479
:1005E000003400340034003400340034003400346B
:1005F000003400340034003400340034003400345B
:1006000000340034383438343834003400340034A2
:10061000003400340034003400340034003400343A
:100620000034003400340034003400348034C034EA
:10063000E034703438341C34003400340034003476
:100640002034303438341C340E340734033401344D
:1006500000340034003400340034003400340034FA
:10066000F834FC34FC3404348434E4347434FC341E
:10067000FC34F834003400340034003400340034E6
:100680001F343F343F342E342734213420343F3458
:100690003F341F340034003400340034003400345C
:1006A000603460346034F034FC34FC3400340034A2
:1006B000003400340034003400340034003400349A
:1006C0002034203420343F343F343F34203420342D
:1006D000203400340034003400340034003400345A
:1006E00018341C341C34043404348434CC34FC34C6
:1006F00078343034003400340034003400340034B2
:10070000303438343C342E342734233421343834D4
:1007100038343834003400340034003400340034C9
:1007200018341C341C34843484348434CC347C3405
:100730007834303400340034003400340034003471
:1007400018343834383421342134213433343E34AD
:100750001E340C34003400340034003400340034CF
:100760008034C034603430341834FC34FC34FC340D
:1007700000340034003400340034003400340034D9
:10078000033403340334233423343F343F343F34BD
:100790002334233400340034003400340034003473
:1007A000FC34FC34FC348434843484348434843421
:1007B0000434043400340034003400340034003491
:1007C00019343934393421342134213433343F3429
:1007D0001F340E340034003400340034003400344C
:1007E000E034F034F8349C348C34843484348434ED
:1007F00080340034003400340034003400340034D9
:100800001F343F343F3421342134213421343F34E8
:100810003F341F34003400340034003400340034DA
:100820003C343C343C3404340434043404348434E0
:10083000FC34FC347C3400340034003400340034A4
:1008400000340034003438343C343E34073403344C
:1008500001340034003400340034003400340034F7
:1008600078347C34FC34C434C43484348434FC346C
:100870007C347834003400340034003400340034E4
:100880001E343E343F3421342134233423343F3466
:100890003E341E340034003400340034003400345C
:1008A000F834FC34FC348434843484348434FC34AC
:1008B000FC34F834003400340034003400340034A4
:1008C00000340134213421342134313439341F349B
:1008D0000F34073400340034003400340034003462
:1008E0000034003400347034703470340034003418
:1008F0000034003400340034003400340034003458
:100900000034003400340E340E340E34003400341D
:100910000034003400340034003400340034003437
:1009200000340034003470347034703400340034D7
:100930000034003400340034003400340034003417
:100940000034003410341E341E340E3400340034AD
:1009500000340034003400340034003400340034F7
:100960008034C034E034703438341C340E340634EF
:1009700002340034003400340034003400340034D5
:100980000134033407340E341C343834703460348A
:100990004034003400340034003400340034603417
:1009A00060346034603460346034603460346034A7
:1009B0006034603460340034003400340034063471
:1009C0000634063406340634063406340634063457
:1009D0000634063406340034003400340034003465
:1009E000023406340E341C3438347034E034C034ED
:1009F00080340034003400340034003400340034D7
:100A000040346034703438341C340E3407340334CA
:100A10000134003400340034003400340034003435
:100A200018341C340C340E3406348634CE34FC3482
:100A30007C34383400340034003400340034003462
:100A400000340034003400347334733473340034AD
:100A500000340034003400340034003400340034F6
:100A6000FC34FE34FE3402340234C234C234C234A4
:100A7000FE34FE34FC3400340034003400340034DE
:100A80003F343F347F3460346034633463346334E0
:100A9000633443340334003400340034003400340D
:100AA000E034F034F8341C340C340C341C34F83496
:100AB000F034E034003400340034003400340034C6
:100AC0003F343F343F3402340234023402343F3482
:100AD0003F343F34003400340034003400340034F8
:100AE0000434FC34FC34FC34843484348434FC34E6
:100AF000FC347834003400340034003400340034E2
:100B000020343F343F343F342134213421343F34C6
:100B10003F341E34003400340034003400340034D8
:100B2000F034F834FC340C340434043404341C340D
:100B30001C341834003400340034003400340034E1
:100B40000F341F343F3430342034203420343834D0
:100B500038341834003400340034003400340034A5
:100B60000434FC34FC34FC34043404340C34FC34DD
:100B7000F834F034003400340034003400340034ED
:100B800020343F343F343F342034203430343F3439
:100B90001F340F3400340034003400340034003487
:100BA0000434FC34FC34FC34843484348434C4345D
:100BB000CC341C34003400340034003400340034AD
:100BC00020343F343F343F34213421342134233422
:100BD000333438340034003400340034003400340A
:100BE0000434FC34FC34FC34843484348434C4341D
:100BF000CC341C340034003400340034003400346D
:100C000020343F343F343F34213401340134033441
:100C10000334003400340034003400340034003431
:100C2000F034F834FC340C340434043404343C34EC
:100C30003C343834003400340034003400340034A0
:100C40000F341F343F3430342034223422343E34C5
:100C50003E343E3400340034003400340034003478
:100C6000FC34FC34FC34803480348034FC34FC3478
:100C7000FC340034003400340034003400340034D8
:100C80003F343F343F340134013401343F343F3486
:100C90003F34003400340034003400340034003475
:100CA000003404340434FC34FC34FC3404340434A0
:100CB0000034003400340034003400340034003494
:100CC0000034203420343F343F343F342034203447
:100CD0000034003400340034003400340034003474
:100CE000003400340034003404340434FC34FC3464
:100CF000FC340434043400340034003400341E3432
:100D00001E343E3420342034203420343F343F34E9
:100D10001F34003400340034003400340034003414
:100D20000434FC34FC34FC34C034E03470343C34DF
:100D30001C340C34003400340034003400340034EB
:100D400020343F343F343F34033407340E343C34D2
:100D5000383430340034003400340034003400348B
:100D60000434FC34FC34FC340434003400340034E7
:100D700000340034003400340034003400340034D3
:100D800020343F343F343F34203420342034303456
:100D900038343C340034003400340034003400343F
:100DA000FC34FC34FC347834F034E034F0347834FF
:100DB000FC34FC34FC34003400340034003400349F
:100DC0003F343F343F3400340034013400340034C5
:100DD0003F343F343F3400340034003400340034B6
:100DE000FC34FC34FC347034E034C03480340034DF
:100DF000FC34FC34FC34003400340034003400345F
:100E00003F343F343F34003400340134033407347A
:100E10003F343F343F340034003400340034003475
:100E2000E034F034F8341C340C340C340C341C34FE
:100E3000F834F034E034003400340034003400344A
:100E400007340F341F3438343034303430343834CD
:100E50001F340F34073400340034003400340034BD
:100E60000434FC34FC34FC34843484348434FC3462
:100E7000FC3478340034003400340034003400345E
:100E800020343F343F343F342134013401340134C1
:100E900001340034003400340034003400340034B1
:100EA000E034F834F8341C340C3404340C341C347E
:100EB000F834F834E03400340034003400340034C2
:100EC00007341F341F34183418345C345E347E34D5
:100ED0007F347F344734003400340034003400342D
:100EE0000434FC34FC34FC34843484348434FC34E2
:100EF000FC347834003400340034003400340034DE
:100F000020343F343F343F340134013403343F3420
:100F10003F343C34003400340034003400340034B6
:100F20007834FC34FC348434843484348434BC34E5
:100F30003C3438340034003400340034003400349D
:100F40001C343C343D3421342134213421343F34A9
:100F50003F341E3400340034003400340034003494
:100F60001C340C3404340434FC34FC34FC340434B9
:100F700004340C341C3400340034003400340034A5
:100F800000340034203420343F343F343F342034A4
:100F90002034003400340034003400340034003491
:100FA000FC34FC34FC34003400340034FC34FC34B5
:100FB000FC34003400340034003400340034003495
:100FC0001F343F343F342034203420343F343F3406
:100FD0001F34003400340034003400340034003452
:100FE000FC34FC34FC34003400340034FC34FC3475
:100FF000FC34003400340034003400340034003455
:1010000007340F341F343834303438341F340F343D
:101010000734003400340034003400340034003429
:10102000FC34FC34FC3400340034803400340034AC
:10103000FC34FC34FC34003400340034003400341C
:1010400003340F343F343C343C340F343C343C34B0
:101050003F340F340334003400340034003400349F
:101060001C343C347C34E034C034E0347C343C34D4
:101070001C340034003400340034003400340034B4
:1010800038343C343E340734033407343E343C3483
:101090003834003400340034003400340034003478
:1010A0007C34FC34FC34803400348034FC34FC3434
:1010B0007C34003400340034003400340034003414
:1010C0000034203421343F343F343F342134203441
:1010D0000034003400340034003400340034003470
:1010E0003C341C340C3404348434C434E4347C3450
:1010F0003C341C34003400340034003400340034F8
:1011000038343C343E3427342334213420343034D2
:1011100038343C34003400340034003400340034BB
:1011200000340034FC34FC34FC340434043404341F
:10113000043400340034003400340034003400340B
:10114000003400343F343F343F34203420342034E2
:1011500020340034003400340034003400340034CF
:101160001C3438347034E034C034803400340034FB
:1011700000340034003400340034003400340034CF
:1011800000340034003400340134033407340E34A6
:101190001C3418343034203420340034003400340B
:1011A000003400340434043404340434FC34FC3497
:1011B000FC34003400340034003400340034003493
:1011C0000034003420342034203420343F343F3481
:1011D0003F34003400340034003400340034003430
:1011E0002034303438341C340E340E341C3438344B
:1011F00030342034003400340034003400340034FF
:10120000003400340034003400340034003400343E
:10121000003400340034003400340034003400342E
:10122000003400340034003400340034003400341E
:10123000003400340034003400340034C034C0348E
:10124000C034C034C034C034C034C034C034C034FE
:10125000C034C034C034C034C0340034003400342E
:101260000C340C343C34303430340034003400342A
:1012700000340034003400340034003400340034CE
:1012800000340034003400340034003400340034BE
:1012900000340034003400340034003400340034AE
:1012A000003440344034403440344034C034C034DE
:1012B000803400340034003400340034003400340E
:1012C0001C343E343E342234223422343F341F3422
:1012D0003F3420340034003400340034003400340F
:1012E0000434FC34FC34FC34403440344034C034E6
:1012F000C03480340034003400340034003400340E
:1013000020343F341F343F342034203420343F34E1
:101310003F341F34003400340034003400340034CF
:101320008034C034C034403440344034C034C034DD
:10133000803400340034003400340034003400348D
:101340001F343F343F34203420342034393439348E
:1013500019340034003400340034003400340034D4
:101360008034C034C034403440344434FC34FC3421
:10137000FC340434003400340034003400340034CD
:101380001F343F343F342034203420343F341F3462
:101390003F3420340034003400340034003400344E
:1013A0008034C034C034403440344034C034C0345D
:1013B000803400340034003400340034003400340D
:1013C0001F343F343F342234223422343B343B3404
:1013D0001B34003400340034003400340034003452
:1013E00080348034F834FC34FC3484349C349C34B1
:1013F0001834003400340034003400340034003435
:10140000213421343F343F343F34213421340134FA
:10141000003400340034003400340034003400342C
:101420008034C034C034403440344034C03480341C
:10143000C03440340034003400340034003400340C
:101440004734CF34DF34983498349834FF34FF3441
:101450007F3400340034003400340034003400346D
:101460000434FC34FC34FC34803440344034C03424
:10147000C03480340034003400340034003400348C
:1014800020343F343F343F340134003400343F349F
:101490003F343F340034003400340034003400342E
:1014A0000034403440344034DC34DC34DC34003448
:1014B000003400340034003400340034003400348C
:1014C00000342034203420343F343F343F3420343F
:1014D000203420340034003400340034003400342C
:1014E000003400340034403440344034DC34DC34E4
:1014F000DC34003400340034003400340034003470
:1015000020346034E03480348034C034FF34FF341D
:101510007F340034003400340034003400340034AC
:101520000434FC34FC34FC34003400348034C034E3
:10153000C03440340034003400340034003400340B
:1015400020343F343F343F34023407340F343D34C9
:101550003834303400340034003400340034003483
:101560000034043404340434FC34FC34FC340034DB
:1015700000340034003400340034003400340034CB
:1015800000342034203420343F343F343F3420347E
:10159000203420340034003400340034003400346B
:1015A000C034C034C03440344034C034403440349B
:1015B000C034C0348034003400340034003400348B
:1015C0003F343F343F34003400343F34003400347F
:1015D0003F343F343F3400340034003400340034AE
:1015E000C034C034C034403440344034C034C034DB
:1015F00080340034003400340034003400340034CB
:101600003F343F343F340034003400343F343F34FF
:101610003F340034003400340034003400340034EB
:101620008034C034C034403440344034C034C034DA
:10163000803400340034003400340034003400348A
:101640001F343F343F342034203420343F343F347F
:101650001F340034003400340034003400340034CB
:101660004034C0348034C034403440344034C0341A
:10167000C03480340034003400340034003400348A
:101680008034FF34FF34FF349034103410341F346E
:101690001F340F34003400340034003400348034FC
:1016A000C034C034403440344034C0348034C0345A
:1016B00040340034003400340034003400340F343B
:1016C0001F341F34103410349034FF34FF34FF348F
:1016D00080340034003400340034003400340034EA
:1016E0004034C034C034C0348034C034C034C0341A
:1016F000C03480340034003400340034003400340A
:1017000020343F343F343F3421340034003401343A
:101710000134013400340034003400340034003427
:101720008034C034C0344034403440344034C03459
:101730008034003400340034003400340034003489
:1017400019343B3423342634263426343C343D3497
:1017500019340034003400340034003400340034D0
:1017600040344034E034F034F834403440344034D1
:101770004034003400340034003400340034003489
:10178000003400341F343F343F342034383438348C
:101790001834003400340034003400340034003491
:1017A000C034C034C034003400340034C034C034D9
:1017B000C0340034003400340034003400340034C9
:1017C0001F343F343F342034203420343F341F341E
:1017D0003F3420340034003400340034003400340A
:1017E000C034C034C034003400340034C034C03499
:1017F000C034003400340034003400340034003489
:1018000007340F341F343834303438341F340F3435
:101810000734003400340034003400340034003421
:10182000C034C034C03400340034003400340034D8
:10183000C034C034C03400340034003400340034C8
:1018400007340F343F34383438340E3438343834B5
:101850003F340F3407340034003400340034003493
:10186000C034C034C03400340034C034C034C03458
:1018700000340034003400340034003400340034C8
:10188000303439343F340F340F343F34393430344A
:1018900000340034003400340034003400340034A8
:1018A0000034C034C034C034003400340034C03498
:1018B000C034C03400340034003400340034003408
:1018C000803487348F349F34D834F83478343F34BC
:1018D0000F34073400340034003400340034003452
:1018E000C034C034403440344034C034C034C034D8
:1018F0000034003400340034003400340034003448
:10190000313438343C342E342734233431343834B1
:101910000034003400340034003400340034003427
:1019200080348034C03478347C343C34043404341F
:1019300004340434003400340034003400340034FF
:101940000134013403341E343E343C34203420341A
:1019500020342034003400340034003400340034A7
:101960000034003400340034FE34FE34FE340034DD
:1019700000340034003400340034003400340034C7
:1019800000340034003400347F347F347F3400343A
:1019900000340034003400340034003400340034A7
:1019A00004340434043404343C347C347834C03497
:1019B0008034803400340034003400340034003487
:1019C00020342034203420343C343E341E3403345C
:1019D000013401340034003400340034003438342D
:1019E0003C343C3404340C341C343834303420342B
:1019F0003C343C341C3400340034003400340034B3
:101A00000034003400340034003400340034003436
:101A100000340034003400340034253021009900B3
:101A2000080020005F085E045D045C040319192DA2
:101A30001A2D532DE501E50A282D0130DC35DD0D89
:101A4000DE0DDF0D890B1E2D0130E4006408E50773
:101A5000DF1F2B2D2C2D1D2D5F086302031D3A2D3A
:101A60005E086202031D3A2D5D086102031D3A2DD6
:101A70005C086002031C3D2D3E2D462D5C08E002F3
:101A80005D08E13B5E08E23B5F08E33B0130DF3687
:101A9000DE0CDD0CDC0C890B472D0130E502031D4B
:101AA000522D532D2C2D6308DF006208DE006108E3
:101AB000DD006008DC00080021003D083E04031939
:101AC000622D632D682D0130BD020030BE3B6C2DB0
:101AD000E830BD000330BE0001303E02F53003198E
:101AE0003D02031C742D752D782D22000C137A2DC8
:101AF00022000C170B302100B0006230890B7E2DC4
:101B0000B00B7E2D0000B73139278D3120008D1E9E
:101B10008A2D8B2D5C2D22000C175130A931042108
:101B20008D31C030A93104218D31B030A93104216B
:101B30008D31A030A93104218D319531C02D623015
:101B4000A300B830A4005130A9319D218D3100305F
:101B50002000DC00DD00B73170278D3122000C1031
:101B600022008C109531DC2D2000A201A20AA301D5
:101B7000A30AEF30983108208D315D302100A30099
:101B8000B830A4005130A9319D218D312E30210073
:101B9000A300B830A4000A302000A0000030A1004B
:101BA00021006F08B000B10130082000A200210020
:101BB00031082000A300AC31EF248D312000210832
:101BC0002100A600200020082100A5000A302000E6
:101BD000A0000030A10021006F08B200B30132085C
:101BE0002000A200210033082000A300AA31D12246
:101BF0008D31200021082100A800200020082100AC
:101C0000A700A030A9319D218D3121006F08B000BF
:101C1000B101B201B30133082000AC002100320849
:101C20002000AB00210031082000AA00210030086C
:101C30002000A9000130AF3153278D3120002C083E
:101C4000BE002B08BD002A08BC002908BB0041309B
:101C5000BA000230B900F130B800AA30B7009D31A7
:101C6000A9258D3120003A08D4003908D30038085E
:101C7000D2003708D100AD31C0258D312000520887
:101C8000DD005108DC00B73170278D313F30200076
:101C9000D400EC30D300CC30D200CD30D100413074
:101CA000BA002030B9000030B8000030B700210081
:101CB0006F08B000B101B201B30133082000AC00DD
:101CC000210032082000AB00210031082000AA00CA
:101CD000210030082000A9000030AF3153278D319A
:101CE00020002C08BE002B08BD002A08BC002908D3
:101CF000BB00A231C1228D3120003A08D80039083A
:101D0000D7003808D6003708D500AE3135268D31DA
:101D100003188B2E8C2E8F2E22000C14912E220055
:101D20000C1021006F08B000B10130082000A200A3
:101D3000210031082000A3000A30A0000030A100DB
:101D4000AC31EF248D3120002008A9002108AA0021
:101D5000890D893B8909AB00AC000130AF315327B5
:101D60008D3120002C08D4002B08D3002A08D20083
:101D70002908D1004030D8000030D7000030D6000C
:101D80000030D500AE3135268D31031CC82EC92E4A
:101D9000B02D22008C14B22D0330B000300820008A
:101DA000A200A301A30AEF30983108208D3118302A
:101DB0002100A300B830A4005130A9319D218D31FC
:101DC0002E302100A300B830A4000A302000A0006B
:101DD0000030A10021006F08B000B10130082000E0
:101DE000A200210031082000A300AC31EF248D3186
:101DF000200021082100A600200020082100A500C5
:101E00000A302000A0000030A10021006F08B200BD
:101E1000B30132082000A200210033082000A300F3
:101E2000AA31D1228D31200021082100A8002000F4
:101E300020082100A700A030A9319D218D3120006C
:101E40000D1E232F242F282F8C1D272F282FF62FF0
:101E500055302100A300B830A400C030A9319D2125
:101E60008D3121006F08B000B101B201B301330818
:101E70002000AC00210032082000AB002100310816
:101E80002000AA00210030082000A9000130AF3155
:101E900053278D3120002C08BE002B08BD002A08D6
:101EA000BC002908BB004130BA000230B900F13053
:101EB000B800AA30B7009D31A9258D3120003A081D
:101EC000D4003908D3003808D2003708D100AD312A
:101ED000C0258D3120005208DD005108DC00B731EB
:101EE00070278D313F302000D400EC30D300CC304F
:101EF000D200CD30D1004130BA002030B9000030DE
:101F0000B8000030B70021006F08B000B101B20185
:101F1000B30133082000AC00210032082000AB00E0
:101F2000210031082000AA00210030082000A9006B
:101F30000030AF3153278D3120002C08BE002B0814
:101F4000BD002A08BC002908BB00A231C1228D3186
:101F500020003A08D8003908D7003808D6003708DA
:101F6000D500AE3135268D310318B72FB82FBB2FD2
:101F700022000C14BD2F22000C1021006F08B000AD
:101F8000B10130082000A200210031082000A30088
:101F90000A30A0000030A100AC31EF248D312000C8
:101FA0002008A9002108AA00890D893B8909AB00F6
:101FB000AC000130AF3153278D3120002C08D40004
:101FC0002B08D3002A08D2002908D1004030D800BD
:101FD0000030D7000030D6000030D500AE313526B5
:101FE0008D31031CF42FF52FB02DC92E4430210064
:101FF000A300B830A400C030A9319D218D31A72D98
:102000000800403008002E3400340034003400341E
:102010000034003400340034003400340034003420
:102020000034003400342E340034003400340034E2
:102030000034003400340034003400340034003400
:102040000034003400342E340034003400340034C2
:1020500000340034003400340034003400340034E0
:102060000034003400342000C8003B08CF003C0896
:10207000D0003D08D1003E08D2003F08D300400800
:10208000D4004108D5004208D6004F308600003009
:102090008700473FC300C31B4E28502801305128FA
:1020A00000302000C400C5014408CD004508CE0022
:1020B0004D084E0403195D285E287C28CF09D009FD
:1020C000D109D209D309D409D509D609CF0A031DEC
:1020D0007C28D00A031D7C28D10A031D7C28D20A43
:1020E000031D7C28D30A031D7C28D40A031D7C28E9
:1020F000D50A031D7C28D60A2100CF1B8028812801
:102100008528FD30D005FF30D1054F08803A2000EA
:10211000C30080304302031D9028013021004E028D
:102120000318932894289A2801302000C900003011
:10213000CA00A22821004F082000CA0021004E0832
:102140002000C900220044082000CC0022004308DF
:102150002000CB004D084E04031DAF28B028B52841
:102160002100501DB428B528BA28FF302000CB0725
:10217000FF30CC3D1F302000D7000030D8002400B5
:10218000DF012B29FF302000D707FF30D83D0A3070
:10219000A000A101A201A301A401A501A601A7011C
:1021A0004F08A8005008A9005108AA005208AB0027
:1021B0005308AC005408AD005508AE005608AF00F7
:1021C000A131D421903120002108B4002008B300AF
:1021D000A8316B20903120003308303EC3005708EF
:1021E000403E86000230870043088100FF30C90767
:1021F000FF30CA3DFF30CB07FF30CC3D0A30A00096
:10220000A101A201A301A401A501A601A7014F08F4
:10221000A8005008A9005108AA005208AB005308B2
:10222000AC005408AD005508AE005608AF00983118
:102230004420903120002008CF002108D00022083F
:10224000D1002308D2002408D3002508D400260892
:10225000D5002708D60020005808803AC3008030F7
:102260004302031D352901305702031C382939293F
:10227000662920004F0850045104520453045404AA
:1022800055045604031D45294629C2284A08803AA8
:10229000C30080304302031D4F2901304902031857
:1022A00052295329C22820004C08803AC3008030AC
:1022B0004302031D5D2901304B02031C6029612983
:1022C00066292100D01865296629C22820004D08FA
:1022D0004E04031D6C296D2972292100501D71299E
:1022E00072298F29FF302000D707FF30D83D4D08D5
:1022F0004E04031D7C297D2982292B30C600003025
:10230000C70086292D30C6000030C7004608C3002C
:102310005708403E860002308700430881002000B5
:102320005708403EC3004308B0004C08B2004B08B9
:10233000B1004808AB312523903120003108BC00A2
:102340003008BB00080029000E082100B000B101D0
:1023500029000F082100B200B3013208B300B20116
:10236000300832072000A90021003108333D200049
:10237000AA00AB01AC010030AF31532791312000EE
:102380002C082200C00020002B082200BF002000E3
:102390002A082200BE00200029082200BD000030CB
:1023A000210053023130031952020318D829D929C8
:1023B000FA295308B1005208B000B035B10DB0355C
:1023C000B10D2830B2002730B30030083207860044
:1023D0003108333D870022003D08C03F3E08C13F21
:1023E0003F08C23F4008C33F01302100D207003000
:1023F000D33D182A5308B1005208B000B035B10DD2
:10240000B035B10D2830B2002730B30030083207A4
:1024100086003108333D870022003D08C03F3E085A
:10242000C13F3F08C23F4008C33F2100D201D30152
:102430000030C6000030C5000030C4000030C300CA
:10244000BF01C00100304002323003193F02031CBB
:102450002A2A2B2A2C2AA22A4008B1003F08B000C1
:10246000B035B10DB035B10D2830B2002730B30012
:102470003008320786003108333D8700403F200096
:10248000A000413FA100423FA200433FA300210022
:1024900046082000A700210045082000A6002100D2
:1024A00044082000A500210043082000A4009B311F
:1024B00071239131200023082100C600200022084A
:1024C0002100C500200021082100C40020002008B0
:1024D0002100C30031303F064004031D702A712AD9
:1024E0009D2A42302000BA004830B9000030B800C0
:1024F0000030B700210046082000BE00210045083A
:102500002000BD00210044082000BC002100430839
:102510002000BB00A231C122913120003A082100E5
:10252000C600200039082100C5002000380821001D
:10253000C400200037082100C3000130BF0700306D
:10254000C03D222A46082000BE0021004508200088
:10255000BD00210044082000BC00210043082000E9
:10256000BB003C30BA004830B9000030B800003041
:10257000B7009D31A925913120003A08D4003908CF
:10258000D3003808D2003708D100AD31C0259131D1
:10259000200052082100BA00200051082100B90093
:1025A00046082000BE00210045082000BD00210093
:1025B00044082000BC00210043082000BB003C3040
:1025C000BA004830B9000030B8000030B7009D3183
:1025D000A925913120003A082100B80020003908CF
:1025E0002100B700200038082100B600200037087D
:1025F0002100B50000302000DF000030DE00003098
:10260000DD000A30DC00210038082000BE00210077
:1026100037082000BD00210036082000BC00210042
:1026200035082000BB004130BA002030B90000302E
:10263000B8000030B7009D31A925913120003A083B
:10264000D4003908D3003808D2003708D100AD31A2
:10265000C025913120005408E3005308E2005208DD
:10266000E1005108E0008D311125913120005D0815
:102670002100BC0020005C082100BB000030A3004A
:10268000B830A4005130A9319D219131663021002C
:10269000A300B830A400B030A9319D2191312100B0
:1026A0005708031D542B552B6A2B1430B0003008EB
:1026B000D7000C30A300B830A4003A08A6003908AF
:1026C000A5003C08A8003B08A700A030A9319D2127
:1026D00091318E2BC101C2014208803AB000803096
:1026E0003002031D752B10304102031C782B792B0F
:1026F0007A2B8E2B21004108D03E860001308700C6
:102700000108B0004108A03E860001308700300873
:1027100081000130C1070030C23D6C2B20000D1E2E
:10272000922B932B972B8C1D962B972B942C5530FB
:102730002100A300B830A400C030A9319D219131FF
:10274000220040082000D40022003F082000D300CF
:1027500022003E082000D20022003D082000D100C7
:10276000AD31C025913120005208DD005108DC0058
:10277000B731702791313F302000D400F330D300BF
:102780003330D2003330D1003C30BA004830B90089
:102790000030B8000030B700210046082000BE001D
:1027A000210045082000BD00210044082000BC0095
:1027B000210043082000BB009D31A9259131200054
:1027C0003A08D8003908D7003808D6003708D500AD
:1027D000AE31352691310318EE2BEF2BF22B220070
:1027E0000C14282C3C302000BA004830B9000030CE
:1027F000B8000030B700210046082000BE002100CC
:1028000045082000BD00210044082000BC00210034
:1028100043082000BB009D31A925913120003A08D2
:10282000D4003908D3003808D2003708D1003F302F
:10283000D800E630D7006630D6006630D500AE311D
:10284000352691310318252C262C282C22000C101B
:1028500040302000D4000330D3003330D200333076
:10286000D1003C30BA004830B9000030B800003028
:10287000B700210046082000BE00210045082000C6
:10288000BD00210044082000BC00210043082000B6
:10289000BB009D31A925913120003A08D8003908A4
:1028A000D7003808D6003708D500AE31352691312B
:1028B00003185B2C5C2C5E2C8E31C92E3C30200022
:1028C000BA004830B9000030B8000030B70021002D
:1028D00046082000BE00210045082000BD00210060
:1028E00044082000BC00210043082000BB009D31AB
:1028F000A925913120003A08D4003908D3003808BE
:10290000D2003708D1003F30D800F930D7009930D5
:10291000D6009A30D500AE31352691310318912C6E
:10292000922CDC2D8D31B02D44302100A300B83025
:10293000A400C030A9319D2191318D31A72D0230E5
:10294000B00030082000A200A301A30AEE309831A5
:102950000820913123302100A300B830A400513069
:10296000A9319D2191312E302100A300B830A4005F
:102970000A302000A0000030A10021006E08B00045
:10298000B10130082000A200210031082000A3007E
:10299000AC31EF249131200021082100A600200055
:1029A00020082100A5000A302000A0000030A1006E
:1029B00021006E08B200B30132082000A2002100FD
:1029C00033082000A300AA31D12291312000210830
:1029D0002100A800200020082100A700A030A93174
:1029E0009D21913121006E08B000B101B201B30107
:1029F00033082000AC00210032082000AB00210089
:102A000031082000AA00210030082000A900013070
:102A1000AF315327913120002C08BE002B08BD0098
:102A20002A08BC002908BB004130BA000230B900B6
:102A3000F130B800AA30B7009D31A92591312000AE
:102A40003A08D4003908D3003808D2003708D1003A
:102A5000AD31C025913120005208DD005108DC0065
:102A6000B731702791313F302000D400EC30D300D3
:102A7000CC30D200CD30D1004130BA002030B90086
:102A80000030B8000030B70021006E08B000B1017E
:102A9000B201B30133082000AC002100320820004D
:102AA000AB00210031082000AA00210030082000DE
:102AB000A9000030AF315327913120002C08BE000F
:102AC0002B08BD002A08BC002908BB00A231C12286
:102AD000913120003A08D8003908D7003808D600CC
:102AE0003708D500AE31352691310318782D792D70
:102AF0007C2D22000C147E2D22000C1021006E086B
:102B0000B000B10130082000A200210031082000EF
:102B1000A3000A30A0000030A100AC31EF249131B5
:102B200020002008A9002108AA00890D893B8909F5
:102B3000AB00AC000130AF315327913120002C089D
:102B4000D4002B08D3002A08D2002908D100403035
:102B5000D8000030D7000030D6000030D500AE31AC
:102B600035269131031CB52DB62D922C5C2C3930B5
:102B7000A300B830A4005130A9319D2191319D2C82
:102B800021006108B000B1013108003A0319C92DD4
:102B9000B72D3008003A8D310319B42D013A0319CD
:102BA0009F2D9131033A0319FE2F013A0319A329EE
:102BB000073A03199F2CB72D2100620863040319FB
:102BC000E22DE32DE82DFF30B7317C279131EC2D3C
:102BD0000030B7317C2791310130A6313526913153
:102BE0000230A631352691310330A6313526913198
:102BF0000430A631352691312100D80120008D18EE
:102C0000022E032E132E01302100B0003008D80709
:102C10006C086D0403190D2E0E2E182EFF30EC07D4
:102C2000FF30ED3D182E14302100EC000030ED0097
:102C300020000D191C2E1D2E2D2E01302100B0005C
:102C40003008D8076A086B040319272E282E322E65
:102C5000FF30EA07FF30EB3D322E14302100EA004E
:102C60000030EB0020000D18362E372E472E013095
:102C70002100B0003008D807680869040319412E04
:102C8000422E4C2EFF30E807FF30E93D4C2E143029
:102C90002100E8000030E9005803031D502E512E9A
:102CA0008E2F22004F0850040319572E582E5D2EE8
:102CB000FF30CF07FF30D03D932F50302100E2008E
:102CC000C330E3006C086D04031D672E682ED22EFE
:102CD00020008D1E6C2E6D2ED22E0D1D702E712E8D
:102CE000D22E210054085504031D772E782ED22EA3
:102CF0000430560203187D2E7E2E862E0130B00041
:102D00003008D607D030D4000730D5005C0803194E
:102D10008A2E8B2EA12E64306E020318902E912ED7
:102D2000D22E0130B0003008EE07EE30B00030088F
:102D30002000A600A701A70A0230AC3190249131EF
:102D4000D22E64306F020318A62EA72ED22E610851
:102D5000031DAB2EAC2EBC2E0130B0003008EF07A7
:102D6000EF30B00030082000A600A701A70A01300C
:102D7000AC3190249131D22E02306106031DC12E58
:102D8000C22ED22E0130B0003008EF07EF30B00075
:102D900030082000A600A701A70A0330AC31902418
:102DA0009131D22E21006A086B04031DD82ED92E32
:102DB0003B2F20008D1EDD2EDE2E3B2F8D1CE12EA5
:102DC000E22E3B2F210054085504031DE82EE92E66
:102DD0003B2F043056020318EE2EEF2EF72E013053
:102DE000B0003008D607D030D4000730D5005C08DA
:102DF0000319FB2EFC2E0F2F6E080319002F012F35
:102E00003B2F0130EE02EE30B00030082000A6006B
:102E1000A701A70A0230AC31902491313B2F6F08F3
:102E20000319132F142F3B2F6108031D182F192F7F
:102E3000272F0130EF02EF30B00030082000A6004D
:102E4000A701A70A0130AC31902491313B2F023009
:102E50006106031D2C2F2D2F3B2F0130EF02EF3089
:102E6000B00030082000A600A701A70A0330AC314B
:102E7000902491313B2F210068086904031D412FE4
:102E8000422F932F5D08031D462F472F932FDD01FF
:102E9000DD0A5C0803194D2F4E2F512FE401E50187
:102EA000932F20008D1C552F562F932F0D1D592F1A
:102EB0005A2F932F043021006106031D602F612FCC
:102EC0006A2FDC012000A201A301A30AE13098319E
:102ED000082091310330210061020318702F712FF7
:102EE000812F0130B0003008E107E130B000300838
:102EF0002000A600A701A70A0030AC319024913130
:102F0000932FE101E130B00030082000A600A701B6
:102F1000A70A0030AC3190249131932F1430220055
:102F2000CF000030D000210057080319982F992FA7
:102F30009B2F0130D70264086504031DA02FA12F29
:102F4000AA2FDC012000A201A301A30AE1309831DD
:102F500008209131210066086704031DB02FB22FAD
:102F6000A431EA2CDC01E401E501DA010530B0000E
:102F70003008E1003230B0003008EF006430B000BB
:102F80003008EE0000302200C0000030BF000030EA
:102F9000BE000030BD00E1302100B000300820004C
:102FA000A600A701A70A0030AC3190249131EF3080
:102FB0002100B00030082000A600A701A70A0130B8
:102FC000AC3190249131EF302100B0003008200066
:102FD000A600A701A70A0330AC3190249131EE304E
:102FE0002100B00030082000A600A701A70A023087
:102FF000AC3190249131B02F8031C1288E31CC2E4C
:10300000F03021009B0080309C009A019D01080057
:103010002000A8002208A400A5010530A435A50DB4
:10302000890B0E282408803EA6003F30253DA700CE
:103030002130230203181D281E28432804302202B1
:10304000031C232824283E2843282708A1002608FB
:10305000A000B731D527983120002008A400280807
:1030600086008701240881000130A6070030A73DB3
:103070000130A4002408A8070130A3022308031D7F
:1030800042284328252808002000B201203086006D
:1030900000308700473FB000B01F4F2850287228EB
:1030A0002000A009A109A209A309A409A509A6094C
:1030B000A709A00A031D6F28A10A031D6F28A20AF1
:1030C000031D6F28A30A031D6F28A40A031D6F2880
:1030D000A50A031D6F28A60A031D6F28A70A200052
:1030E000B201B20A2830860000308700473F200036
:1030F000B000B01F7C287D28A1282000A809A909BC
:10310000AA09AB09AC09AD09AE09AF09A80A031DAC
:103110009C28A90A031D9C28AA0A031D9C28AB0A07
:10312000031D9C28AC0A031D9C28AD0A031D9C2886
:10313000AE0A031D9C28AF0A01302000B000300801
:10314000B206333086000030870008302000B0001F
:1031500000301E00B00BA9282008210422042304FB
:1031600024042504260427040319B728B8281429A1
:10317000B101B10AC728A035A10DA20DA30DA40D60
:10318000A50DA60DA70D0130B0003008B107A71F8F
:10319000CA28CB28BB28B335B40DB50DB60DB70D75
:1031A000B80DB90DBA0D27082F02031DF128260806
:1031B0002E02031DF12825082D02031DF1282408E5
:1031C0002C02031DF12823082B02031DF1282208DD
:1031D0002A02031DF12821082902031DF1282008D5
:1031E0002802031CF428F52806292008A802210833
:1031F000A93B2208AA3B2308AB3B2408AC3B25088B
:10320000AD3B2608AE3B2708AF3B3314A736A60CD0
:10321000A50CA40CA30CA20CA10CA00C0130B102B3
:10322000031D13291429CB28320803191829192939
:103230003729B309B409B509B609B709B809B909F5
:10324000BA09B30A031D3729B40A031D3729B50A81
:10325000031D3729B60A031D3729B70A031D37296D
:10326000B80A031D3729B90A031D3729BA0A2000F5
:103270003308A0003408A1003508A2003608A300D6
:103280003708A4003808A5003908A6003A08A700A6
:1032900008002000D101D201D301D401C301C4012F
:1032A00021004A080739031D56295729852A49084C
:1032B0002000BB00BC013B08A9003C08AA00083064
:1032C000A0000030A10021004A082000BD00BE017E
:1032D0003D08A2003E08A300AC31EF249931200044
:1032E0002108AC002008AB00A831E420993120006F
:1032F0002A08C8002908C70021004B0820003A020C
:10330000A900AA01031CAA034808AC004708AB00A7
:10331000A831E420993120002908043ECB00003078
:103320002A3DCC00D101D201692A0230D3000030FD
:10333000D400522A210049082000BB00BC013B08F0
:10334000A9003C08AA005208AC005108AB00A83103
:10335000E420993120002908210047072000BD0002
:103360002A082100483D2000BE004B083D07BF0051
:103370004C083E3DC0003F08530784004008543DC0
:1033800085000008C100C2014108C3004208C40012
:10339000D5010130BB000030BC00550AD129BB3536
:1033A000BC0D890BCF2943083B05BD0044083C05F3
:1033B000BE003D083E040319DE29DF293C2A210016
:1033C0004D08031DE429E529112A2000530836077A
:1033D000BB005408373DBC003B08FE3EA900FF304F
:1033E0003C3DAA005508BD00BE015208C00051086E
:1033F000BF00BF35C00DBF35C00DBF35C00D3D0886
:103400003F07C1003E08403DC20038084107AB00FD
:103410003908423DAC00AD01AD0AA031F62099312A
:10342000432A200053083607BB005408373DBC0030
:103430003B08FE3EA900FF303C3DAA005508BD00F8
:10344000BE015208C0005108BF00BF35C00DBF35D6
:10345000C00DBF35C00D3D083F07C1003E08403DCF
:10346000C20038084107AB003908423DAC00AD014D
:10347000A031F6209931432A21004D08031D412A2D
:10348000422AE529112A01302000BB003B08D5075C
:1034900008305502031C4D2A4E2AC9290130D30792
:1034A0000030D43D21004908FE3E2000BB00FF3023
:1034B00003180030BC003C085402031D612A3B087D
:1034C0005302031C642A652A9A290130D10700306F
:1034D000D23D0830A0000030A10021004A082000A1
:1034E000BB00BC013B08A2003C08A300AC31EF24A8
:1034F0009931200021085202031D802A2008510220
:10350000031C832A842A9529702B08302000A000F0
:103510000030A100210049082000BB00BC013B088D
:10352000A9003C08AA0021004A082000BD00BE01F5
:103530003D08AB003E08AC00A831E42099312000E2
:103540002A08A3002908A200AC31EF2499312000F9
:103550002108C8002008C70021004B0820003A02BB
:10356000A900AA01031CAA034808AC004708AB0045
:10357000A831E420993120002908043ECB00003016
:103580002A3DCC002100470820004B078400210081
:10359000480820004C3D85000008BB00BC013B08EA
:1035A000C5003C08C6000730C9000030CA00CD0184
:1035B000CE01612B2000CF01D0014D2B0130200026
:1035C000BB000030BC00490AE72ABB35BC0D890BA3
:1035D000E52A45083B05BD0046083C05BE003D0800
:1035E0003E040319F42AF52A202B21004D08031D5F
:1035F000FA2AFB2A0E2B20004D083607A9004E0898
:10360000373DAA004F083807AB005008393DAC00E1
:10361000AD01AD0AA031F6209931272B20004D08CD
:103620003607A9004E08373DAA004F083807AB00FF
:103630005008393DAC00AD01A031F6209931272B5F
:1036400021004D08031D252B262BFB2A0E2BFF30B6
:103650002000C907FF30CA3DCA1F2F2B302B492B32
:103660000730C9000030CA000130CB070030CC3D24
:103670002100470820004B07840021004808200053
:103680004C3D85000008BB00BC013B08C5003C0860
:10369000C6000130CF070030D03D5008803ABB0053
:1036A00080303B02031D582B21004A0820004F02A6
:1036B000031C5B2B5C2BDE2A01302000CD07003081
:1036C000CE3D4E08803ABB0080303B02031D6C2B80
:1036D0002100490820004D02031C6F2B702BDA2AB1
:1036E0000800200023088039A8002808B0002335EE
:1036F000A8002808B200A21F7E2B7F2B802B32143B
:1037000032080319842B852B952B320A031D892B34
:103710008A2B922B0030A3000030A2000030A100C1
:103720000030A000A217A3019D2B0030A3000030A1
:10373000A2000030A1000030A00027088039A800B6
:103740002808B100310830060319A72BA82BA92B94
:1037500030172735A8002808B100A61FB02BB12BC1
:10376000B22B311431080319B62BB72BC72B310AF2
:10377000031DBB2BBC2BC42B0030A7000030A600C0
:103780000030A5000030A400A617A701CF2B003001
:10379000A7000030A6000030A5000030A4003208C9
:1037A00031020318D42BD52B192C301FD82BD92B31
:1037B000DD2B8030A8002808B0063208A8002808B1
:1037C000B3003108A8002808B2003308A800280870
:1037D000B1002008A8002808B3002408A800280881
:1037E000A0003308A8002808A4002108A800280881
:1037F000B3002508A8002808A1003308A80028085D
:10380000A5002208A8002808B3002608A800280858
:10381000A2003308A8002808A6002308A80028084A
:10382000B3002708A8002808A3003308A800280828
:10383000A700B3013108A800A9012908AB0032088C
:103840002802AA00031CAB032B08803AAC0080308E
:103850002C02031D2D2C1A302A02031C302C312C73
:10386000692C20002308220421042004031D392C84
:103870003B2C01303C2C0030A8002808B30000305D
:10388000A3000030A2000030A1000030A0003108E9
:10389000A8002808B200702C331C4F2C502C562C3A
:1038A00033360138A8002808B300582C0310B30C95
:1038B000201C5B2C5C2C5D2CB3170130A800A337B7
:1038C000A20CA10CA00CA80B5F2C0130A8002808AA
:1038D000B207200031083202031C6F2C702C4C2CD4
:1038E000301B732C742CAC2C3208031D782C792CD3
:1038F000822C0030A3000030A2000030A100003074
:10390000A000A82D2408A0072508A13D2608A23D57
:103910002708A33D231C8D2C8E2C382D331C912C75
:10392000922C982C33360138A8002808B3009A2C22
:103930000310B30C201C9D2C9E2C9F2CB317013020
:10394000A800A337A20CA10CA00CA80BA12C01303D
:10395000A8002808B207382D2308803AA8002708B5
:10396000803A2802031DBE2C26082202031DBE2C0D
:1039700025082102031DBE2C240820020318C12C97
:10398000C22CFA2CFF30A800FF30A900FF30AA009B
:10399000FF30AB0020082402AC002108253BAD001D
:1039A0002208263BAE002308273BAF002C08A807BF
:1039B0002D08A93D2E08AA3D2F08AB3D2B08A300DA
:1039C0002A08A2002908A1002808A0008030A80029
:1039D0002808B006B309B30A3308031DF02CF12CF4
:1039E000022D0130A0070030A13D0030A23D003083
:1039F000A33D022D2408A0022508A13B2608A23BD6
:103A00002708A33B2308220421042004031D092DB9
:103A10000A2D342D3308031D0E2D0F2D342D0030AB
:103A2000A3000030A2000030A1000030A000A82DAB
:103A30000130A035A10DA20DA30D890B192DB31FC7
:103A4000222D232D242D2014331C272D282D2B2D02
:103A50000314B30D2D2D0310B30D32080319312DAE
:103A6000322D342D0130B202A21F372D382D182DE2
:103A7000B101B31F3C2D3D2D4B2D33087F39031968
:103A8000422D432D462DB101B10A4B2D201C492D4D
:103A90004A2D4B2D432D310803194F2D502D7D2DCF
:103AA0000130A0070030A13D0030A23D0030A33D11
:103AB000231C5B2D5C2D7D2D2008A8002108A9006A
:103AC0002208AA002308AB000130AC00AB37AA0CD7
:103AD000A90CA80CAC0B662D2B08A3002A08A20089
:103AE0002908A1002808A000320A0319782D792D91
:103AF0007D2D0130A8002808B207320A0319812D54
:103B0000822D872D3208031D862D872D952D00309F
:103B1000A3000030A2000030A1000030A000320855
:103B2000031D932D942D952DB001321C982D992DA8
:103B30009B2DA2179F2D7F30A8002808A2053236A2
:103B4000A8002808A300B01FA62DA72DA82DA317F5
:103B5000080020003A088039BF003F08C4003A3509
:103B6000BF003F08CA00B91FB62DB72DB82D4A14A3
:103B70004A080319BC2DBD2DCC2D4A0A031DC12DA9
:103B8000C22DCA2D0030BA000030B9000030B80094
:103B90000030B700B917D42D0030BA000030B9009A
:103BA0000030B8000030B7003E088039BF003F0841
:103BB000C4063E35BF003F08C900BD1FE02DE12D02
:103BC000E22D491449080319E62DE72DF62D490A7F
:103BD000031DEB2DEC2DF42D0030BE000030BD0098
:103BE0000030BC000030BB00BD17FE2D0030BE0011
:103BF0000030BD000030BC000030BB004908031994
:103C0000022E032E082E4A08031D072E082E112E01
:103C10000030BA000030B9000030B8000030B70002
:103C2000FF2F3708BF003F08A0003D08A93126211B
:103C30009D3120002108D0002008CF004F08BF0090
:103C4000C001C101C2014208C8004108C7004008C4
:103C5000C6003F08C5005008BF00C001C101C20135
:103C60004208CE004108CD004008CC003F08CB0000
:103C70003808BF003F08A0003C08A93126219D312B
:103C800020002108D0002008CF004F08BF00C0014D
:103C9000C101C2013F08C5074008C63D4108C73DF4
:103CA0004208C83D5008BF00C001C101C2013F0821
:103CB000CB074008CC3D4108CD3D4208CE3D3908F8
:103CC000BF003F08A0003B08A93126219D312000FC
:103CD0002108D0002008CF004F08BF00C001C1015B
:103CE000C2013F08C5074008C63D4108C73D42081C
:103CF000C83D5008BF00C001C101C2013F08CB0749
:103D00004008CC3D4108CD3D4208CE3D0830C53588
:103D1000C60DC70DC80D890B872E3808BF003F0898
:103D2000A0003B08A93126219D3120002108D000A8
:103D30002008CF004F08C5075008C63D0030C73DDA
:103D4000C83D3708BF003F08A0003C08A931262124
:103D50009D3120002108D0002008CF004F08C50762
:103D60005008C63D0030C73DC83D0830C535C60DBA
:103D7000C70DC80D890BB62E3708BF003F08A0003D
:103D80003B08A93126219D3120002108D0002008C0
:103D9000CF004F08C5075008C63D0030C73DC83D9D
:103DA0003808BF003F08A0003D08A93126219D31F9
:103DB00020002108D0002008CF004F08CB07500872
:103DC000CC3D0030CD3DCE3D3908BF003F08A000BE
:103DD0003C08A93126219D3120002108D00020086F
:103DE000CF004F08CB075008CC3D0030CD3DCE3D35
:103DF0003908BF003F08A0003D08A93126219D31A8
:103E000020002108D0002008CF004F08BF00500834
:103E1000C000C101C2010830BF35C00DC10DC20DC7
:103E2000890B0C2F3F08CB074008CC3D4108CD3D06
:103E30004208CE3D4508BF004608C0004708C10003
:103E40004808C2001830C236C10CC00CBF0C890B28
:103E5000232F3F08CB074008CC3D4108CD3D420809
:103E6000CE3D0830C535C60DC70DC80D890B322FA4
:103E70004A084907BF00C001C00D3F08823ECF007D
:103E8000FF30403DD0005B2F0130CB35CC0DCD0D48
:103E9000CE0D890B452FC81F4E2F4F2F502F4B147F
:103EA0000130C535C60DC70DC80D890B512FFF3028
:103EB000CF07FF30D03DCD1F5E2F5F2F442FC901AC
:103EC000C81F632F642F802FFF304505BF00FF30D0
:103ED0004605C000FF304705C1007F304805C200DD
:103EE0004208410440043F040319772F782F7B2FA9
:103EF000C901C90A802F4B1C7E2F7F2F802F782F5E
:103F000049080319842F852FAD2F0130CB070030CE
:103F1000CC3D0030CD3D0030CE3D4E1C902F912F3A
:103F2000AD2F4B08BF004C08C0004D08C1004E0823
:103F3000C2000130C300C237C10CC00CBF0CC30BA0
:103F40009B2F4208CE004108CD004008CC003F081E
:103F5000CB000130CF070030D03D5008803ABF0081
:103F600080303F02031DB62FFF304F02031CB92FD4
:103F7000BA2FC42F7F302000CE008030CD0000301B
:103F8000CC000030CB00F32F20005008803ABF0057
:103F900080303F02031DCE2F01304F020318D12F76
:103FA000D22FDD2F00302000CE000030CD000030B9
:103FB000CC000030CB00C401F32F20004F08BF001D
:103FC0003F08CA00FF30CB05FF30CC057F30CD0560
:103FD0000030CE054A1CED2FEE2FEF2FCD174A36BD
:103FE000BF003F08CE004408BF003F08CE044E0883
:103FF000BA004D08B9004C08B8004B08B7000800DB
:1040020000308B1B0130F2008B13710823009200E9
:1040120070089100151315161515B7314C27A031EC
:1040220023001511720803191728182819288B174D
:1040320008002000E800590886008701403FDB00A5
:10404200413FDC005B0884005C0885001200253AD1
:10405200031D2C282D28D2285908860087010130FB
:10406200810741310318810A2200C301C4012100E2
:10407200D001D101FF30CE00FF30CF00200059081F
:1040820086008701403FDB00413FDC005B08840083
:104092005C0885001200643A0319502851286228EE
:1040A200590886008701403FDB00413FDC005B0886
:1040B20084005C0885001200693A031D61286228A9
:1040C2009D28590886008701013081074131031874
:1040D200810A5A088600870101088400850102309E
:1040E2008107003FDB00013FDC005B08E0005C0869
:1040F200E100890D893B8909E200E300E400E50063
:10410200E600E7006008BB006108BC006208BD0071
:104112006308BE006408BF006508C0006608C100ED
:104122006708C200680890313320A03120003C08A3
:10413200DA003B08D900F528590886008701403F7C
:10414200DB00413FDC005B0884005C088500120054
:10415200253A031DAD28AE28C728590886008701D5
:104162000130810741310318810A2530A000003057
:10417200A1006808DB005B08A200AA317F22A031FF
:1041820001302000D9000030DA00F52859088600F5
:1041920087010130810741310318810AD901DA010F
:1041A200F528590886008701403FDB00413FDC00CB
:1041B2005B0884005C0885000008DD00DE015D0804
:1041C200A0005E08A1006808DF005F08A200AA3113
:1041D2007F22A03120005908860087010130810723
:1041E20041310318810AC12808002000AA1BFA28BD
:1041F200FB28D32980310220A0312000AE002A08FA
:10420200803AAF0080302F02031D09292E082902AF
:1042120003180C290D29D3292000AC1B11291229BE
:10422200D32990310120A0312000AE002C08803A21
:10423200AF0080302F02031D20292E082B02031C01
:1042420023292429BF29D3290130AE002B0807399D
:10425200890A2C29AE35890B2B292E08AF0008308C
:10426200A0000030A1002C08A3002B08A200AC3152
:10427200EF24A03120002008B0002108B10007304F
:10428200B035B10D890B41292830B2002630B30078
:1042920030083207B4003108333DB500290834072D
:1042A20086002A08353D87002F088104D329013072
:1042B200AE002B080739890A5F29AE35890B5E29C2
:1042C2002E08FF3AAF000830A0000030A1002C08F1
:1042D200A3002B08A200AC31EF24A031200020085B
:1042E200B0002108B1000730B035B10D890B752936
:1042F2002830B2002630B30030083207B40031084B
:10430200333DB5002908340786002A08353D870069
:104312002F088105D3290130AE002B080739890AFD
:104322009329AE35890B92292E08AF000830A000E0
:104332000030A1002C08A3002B08A200AC31EF240E
:10434200A03120002008B0002108B1000730B035AC
:10435200B10D890BA8292830B2002630B3003008ED
:104362003207B4003108333DB5002908340786000E
:104372002A08353D87002F088106D32920002D0801
:10438200AE00AF012F08003A0319C829D3292E081D
:10439200003A03195829013A03192529033A031946
:1043A2008C29D32908002000B20128308600003071
:1043B2008700473FB000B01FDF29E029022A200012
:1043C200A809A909AA09AB09AC09AD09AE09AF0947
:1043D200A80A031DFF29A90A031DFF29AA0A031D12
:1043E200FF29AB0A031DFF29AC0A031DFF29AD0AF1
:1043F200031DFF29AE0A031DFF29AF0A2000B201E7
:10440200B20A2030860000308700473F2000B0000B
:10441200B01F0C2A0D2A2C2A2000A009A109A209EA
:10442200A309A409A509A609A709A00A031D2C2A04
:10443200A10A031D2C2AA20A031D2C2AA30A031D6A
:104442002C2AA40A031D2C2AA50A031D2C2AA60A1B
:10445200031D2C2AA70A2000200821042204230479
:1044620024042504260427040319382A392A8C2A0D
:10447200B101B10A482AA035A10DA20DA30DA40DC8
:10448200A50DA60DA70D0130B0003008B107A71F7A
:104492004B2A4C2A3C2A27082F02031D6A2A260887
:1044A2002E02031D6A2A25082D02031D6A2A2408EA
:1044B2002C02031D6A2A23082B02031D6A2A2208E2
:1044C2002A02031D6A2A21082902031D6A2A2008DA
:1044D2002802031C6D2A6E2A7E2A2008A8022108BF
:1044E200A93B2208AA3B2308AB3B2408AC3B250886
:1044F200AD3B2608AE3B2708AF3BA736A60CA50C62
:10450200A40CA30CA20CA10CA00C0130B102031D3F
:104512008B2A8C2A4C2A32080319902A912AAF2A14
:10452200A809A909AA09AB09AC09AD09AE09AF09E5
:10453200A80A031DAF2AA90A031DAF2AAA0A031D4E
:10454200AF2AAB0A031DAF2AAC0A031DAF2AAD0A7C
:10455200031DAF2AAE0A031DAF2AAF0A20002808A6
:10456200A0002908A1002A08A2002B08A3002C08F9
:10457200A4002D08A5002E08A6002F08A7000800F9
:1045820020003E088039BF003F08C8003E35BF000A
:104592003F08CF00BD1FCE2ACF2AD02A4F144F0882
:1045A2000319D42AD52AE52A4F0A031DD92ADA2A61
:1045B200E22A0030BE000030BD000030BC000030F6
:1045C200BB00BD17BE01ED2A0030BE000030BD00A9
:1045D2000030BC000030BB003A088039BF003F0801
:1045E200C8063A35BF003F08D000B91FF92AFA2A97
:1045F200FB2A501450080319FF2A002B102B500AD3
:10460200031D042B052B0D2B0030BA000030B9001E
:104612000030B8000030B700B917BA01182B0030CB
:10462200BA000030B9000030B8000030B7003A08D4
:10463200390438043704031D1F2B202B392B00307B
:10464200BE000030BD000030BC000030BB00803036
:10465200BD047F30BE044808BF003F08BE043E08C8
:10466200BA003D08B9003C08B8003B08B700742CFA
:104672004F08031D3D2B3E2B472B0030BA00003064
:10468200B9000030B8000030B700742C4F08BF00EA
:10469200C0014008C20050083F02C100031CC2030F
:1046A20041087F3EC9000030423DCA003E08C700B3
:1046B2003D08C6003C08C5003B08C4000030BE00EF
:1046C2000030BD000030BC000030BB000030CE0026
:1046D2000030CD000030CC000030CB00D001AF2B39
:1046E20050080319752B762B902B0130C435C50D5C
:1046F200C60DC70D890B772B0130BB35BC0DBD0D27
:10470200BE0D890B7E2BCE1F872B882B892B3B144A
:104712000130CB35CC0DCD0DCE0D890B8A2B3A084D
:104722004702031D9E2B39084602031D9E2B3808A3
:104732004502031D9E2B37084402031CA12BA22B0A
:10474200AB2B4E173708C4023808C53B3908C63BA5
:104752003A08C73B0130BF003F08D0071A30500269
:10476200031CB42BB52B712B4708460445044404A3
:104772000319BC2BBD2BD62B4B14D62B0130BB35CA
:10478200BC0DBD0DBE0D890BC02BCE1FC92BCA2B74
:10479200CB2B3B140130CB35CC0DCD0DCE0D890B7F
:1047A200CC2BFF30C907FF30CA3DBD1FD92BDA2BF6
:1047B200BF2BD001CE1FDE2BDF2BFB2BFF304B0597
:1047C200BF00FF304C05C000FF304D05C1007F30F7
:1047D2004E05C2004208410440043F040319F22B73
:1047E200F32BF62BD001D00AFB2B3B1CF92BFA2B17
:1047F200FB2BF32B50080319FF2B002C282C013024
:10480200BB070030BC3D0030BD3D0030BE3D3E1C0C
:104812000B2C0C2C282C3B08BF003C08C0003D0888
:10482200C1003E08C2000130C300C237C10CC00C37
:10483200BF0CC30B162C4208BE004108BD00400845
:10484200BC003F08BB000130C9070030CA3D4A081E
:10485200803ABF0080303F02031D312CFF304902F5
:10486200031C342C352C422CFF302000C9000030B0
:10487200CA000030BE000030BD000030BC00003075
:10488200BB0020004A08803ABF0080303F02031D6F
:104892004C2C0130490203184F2C502C5C2C200068
:1048A200C901CA010030BE000030BD000030BC00AA
:1048B2000030BB00C80120004908BF003F08CF00FC
:1048C2004F1C642C652C672CBD176B2C7F30BF00EE
:1048D2003F08BD054F36BF003F08BE004808BF0075
:1048E2003F08BE04302B0800A8310A20A4318B17E0
:1048F2000B1705302100B1000F30B000F130890BE9
:10490200802CB00B802CB10B802C2000A201A301C3
:10491200A30AE13098310820A4312000A201A20AA2
:10492200A301A30AEF3098310820A43102302100FC
:10493200B00030082000A200A301A30AEE30983193
:104942000820A431653021006F02031CA92CAA2C77
:10495200C52C3230B0003008EF00EF30B000300824
:104962002000A600A701A70A0130AC319024A4318F
:10497200EF302100B00030082000A600A701A70AEE
:104982000330AC319024A431653021006E02031C47
:10499200CB2CCC2CDB2C6430B0003008EE00EE3097
:1049A200B00030082000A600A701A70A0230AC31EF
:1049B2009024A431AE31C026A43105302100B100CB
:1049C2000F30B000F130890BE42CB00BE42CB10BAA
:1049D200E42CB7313927A43120008D1AF12CF32CA5
:1049E2008D318B2D02302100B00030082000A20052
:1049F200A301A30AEE3098310820A4315130A93125
:104A02000421A4314D302100A300B830A40051305C
:104A1200A9319D21A431C030A9310421A431B03083
:104A2200A9310421A431A030A9310421A4312E30AE
:104A32002100A300B830A4000A302000A0000030FA
:104A4200A10021006E08B000B10130082000A200D0
:104A5200210031082000A300AC31EF24A431200052
:104A620021082100A600200020082100A5000A300C
:104A72002000A0000030A10021006E08B200B301A6
:104A820032082000A200210033082000A300AA312E
:104A9200D122A431200021082100A80020002008F2
:104AA2002100A700A030A9319D21A43121006E0868
:104AB200B000B101B201B30133082000AC00210003
:104AC20032082000AB00210031082000AA0021009A
:104AD20030082000A9000130AF315327A431200053
:104AE2002C08BE002B08BD002A08BC002908BB0008
:104AF2004130BA000230B900F130B800AA30B70034
:104B02009D31A925A43120003A08D4003908D300E8
:104B12003808D2003708D100AD31C025A4312000B9
:104B22005208DD005108DC00B7317027A4313F3054
:104B32002000D400EC30D300CC30D200CD30D100F4
:104B42004130BA002030B9000030B8000030B70060
:104B520021006E08B000B101B201B3013308200098
:104B6200AC00210032082000AB00210031082000F7
:104B7200AA00210030082000A9000030AF315327DD
:104B8200A43120002C08BE002B08BD002A08BC005E
:104B92002908BB00A231C122A43120003A08D80062
:104BA2003908D7003808D6003708D500AE31352687
:104BB200A4310318DD2DDE2DE12D22000C14E32D8E
:104BC20022000C1021006E08B000B1013008200054
:104BD200A200210031082000A3000A30A00000300A
:104BE200A100AC31EF24A43120002008A900210843
:104BF200AA00890D893B8909AB00AC000130AF31B5
:104C02005327A43120002C08D4002B08D3002A08F3
:104C1200D2002908D1004030D8000030D70000303F
:104C2200D6000030D500AE313526A431031C1A2E31
:104C32001B2E1E2E22008C14202E22008C100130DE
:104C4200A6313526A4310230A6313526A4310330EF
:104C5200A6313526A4310430A6313526A4312100EF
:104C6200BD01BE018D31862D2000DA00E92FDB0166
:104C7200DC0120005B08513E8600013087005B08A2
:104C8200E03E8400013085000008010603194A2E27
:104C92004B2E842E21004908FC3E2000A900FF3043
:104CA20003180030AA005C08AC005B08AB00A83116
:104CB200E420A63120002A08D9002908D800590882
:104CC200B7005808B6000030B800B9005B08513E82
:104CD2008600013087000108D6005608BA009931D3
:104CE2004921A63120005B08513E86000130870031
:104CF2000108D6005B08E03E8600013087005608B6
:104D02008100EF01EF0A0130DB070030DC3D5C0877
:104D1200803AD60080305602031D912E10305B027D
:104D2200031C942E952E3A2E20006F0803199A2EFA
:104D32009B2EFF2F5A08AB31D923A6312000EF0159
:104D4200FF2FDD01DE0120005D08C03E860001303C
:104D520087005D08303E84000230850000080106AD
:104D62000319B42EB52EEF2E21004908FC3E200077
:104D7200A900FF3003180030AA005E08AC005D08ED
:104D8200AB00A831E420A63120002A08D900290866
:104D9200D8005908B7005808B6000030B800B9006A
:104DA2005D08C03E8600013087000108D600560823
:104DB200BA0099314921A63120005D08C03E860023
:104DC200013087000108D6005D08303E86000230BF
:104DD2008700560881002100E001E00A013020002E
:104DE200DD070030DE3D5E08803AD6008030560294
:104DF200031DFD2E10305D02031C002F012FA42E77
:104E0200210060080319062F072FFF2F20005A08E0
:104E1200AB31D923A6312100E001FF2FDF01E001F0
:104E220020005F08B03E8600013087005F08203E08
:104E3200840002308500000801060319212F222F69
:104E42005C2F21004908FC3E2000A900FF30031816
:104E52000030AA006008AC005F08AB00A831E42073
:104E6200A63120002A08D9002908D8005908B7001D
:104E72005808B6000030B800B9005F08B03E86009E
:104E8200013087000108D6005608BA00993149213D
:104E9200A63120005F08B03E86000130870001087D
:104EA200D6005F08203E8600023087005608810047
:104EB2002100DF01DF0A01302000DF070030E03D82
:104EC2006008803AD60080305602031D6A2F1030E7
:104ED2005F02031C6D2F6E2F112F21005F08031933
:104EE200732F742FFF2F20005A08AB31D923A6311C
:104EF2002100DF01FF2FE101E20120006108A03E55
:104F02008600013087006108D03E840001308500B0
:104F12000008010603198E2F8F2FC92F210049087F
:104F2200FC3E2000A900FF3003180030AA006208EE
:104F3200AC006108AB00A831E420A63120002A08A9
:104F4200D9002908D8005908B7005808B60000301F
:104F5200B800B9006108A03E860001308700010850
:104F6200D6005608BA0099314921A63120006108BD
:104F7200A03E8600013087000108D6006108D03EBD
:104F8200860001308700560881002100DE01DE0A1A
:104F920001302000E1070030E23D6208803AD6008D
:104FA20080305602031DD72F10306102031CDA2F06
:104FB200DB2F7E2F21005E080319E02FE12FFF2F48
:104FC20020005A08AB31D923A6312100DE01FF2F80
:104FD2005A08D600D7015708003A0319F12FFF2FBC
:104FE2005608013A0319382E033A0319A22E013A40
:0E4FF20003190F2F073A03197C2FFF2F080019
:10500200200021082200E200200020082200E10006
:1050120008008D310D25A831B7316727A831AA3193
:105022000022A83198310020A831B731BA27A8311F
:10503200B7315E27A831A8312020A831080021000D
:105042001708C03912389700C73020009700C730C0
:10505200A20022082200E3000B118B160030200070
:10506200A0000030A100A8310120A83108000034BE
:1050720088341334003410342734143400342E347A
:10508200003400340034003400340034003400347E
:105092000034003400340034003400340034200082
:1050A200A4002408A2002208A3005B280130A20069
:1050B2002208A40724088600023087000108031D85
:1050C20063286428572823082402A000A101A01BFA
:1050D200A103080020003408803AB5008030350270
:1050E200031D752801303302031878287928862891
:1050F20020003309B5003409B600B50A0319B60A0F
:105102003508B3003608B4008628080000308B1B2F
:1051120001302000A2008B132108230092002000FE
:10512200200823009100151315161515B7315527C0
:10513200A83123001511200022080319A128A22852
:10514200A3288B17080000308B1B0130F5008B134E
:10515200710823009200700891007308940072088D
:105162009300740C031C951203189516151315124F
:105172001515B7314C27A83175080319C128C22863
:10518200C3288B1708002000A1001830A0002008B7
:1051920021008E0420002103031DD028D128D42809
:1051A20024009417D9287F30A000200824009405F9
:1051B2002830950007309200F7302000A000200828
:1051C2002400970508002000AD01AE01291CEA2841
:1051D200EB28EF282B08AD072C08AE3D0130AB358C
:1051E200AC0D890BF0280130AA36A90C890BF528E1
:1051F20029082A04031DFE28FF28E7282E08AA00F2
:105202002D08A90008002000A400A201A30120305B
:105212002000A00022082407A100210886000130F6
:105222008700200881000130A2070030A33D230837
:10523200803AA00080302002031D21291030220272
:10524200031C24292529082908002000A800A401FC
:10525200A5012008A200A3012208A6002308A70096
:10526200281C3429352939292608A4072708A53DF1
:105272000130A635A70D890B3A290310A80C28087E
:10528200031D4429452931292508A1002408A0002D
:1052920008002000AF00AD01AE0162292C08A90070
:1052A200AA012908A0002A08A1002808AB002B089F
:1052B200A200AA317F22A93101302000AD070030BF
:1052C200AE3D2D082F07A90029088600023087006D
:1052D2000108AA002A08AC002C08031D71297229B2
:1052E2004F29080000308B1B01302000A5008B13D2
:1052F20021082300920020002008230091002000B2
:105302002308230094002000220823009300200099
:10531200240C2300031C951203189516151315125D
:105322001515B7315527A9312000250803199A29E7
:105332009B299C298B1708002100AF00A530200073
:10534200EE006E082100A9002F082000EE006E0872
:105352002100AA00AB01AC01AD01AE01240820007E
:10536200EA00210023082000E900A930EE006E08BF
:10537200EB00AA30A931C921A93121002B082F073E
:105382002000EE006E0886000130870081010800CF
:105392002100A00020006A082100A2002000690864
:1053A2002100A1002200C101C201ED29A13020008B
:1053B200EC006C08D9006B08ED006D08DA002100E2
:1053C2002008A0311A20A931200059082200C10763
:1053D20020005A082200C23D210021088400220830
:1053E20085001200031DF629F729D7292200420859
:1053F2002000EA00220041082000E9000800220003
:105402008C018D018E01083021009000B8308C0093
:10541200FF308D00FF308E0023008E0108308D009A
:1054220004308C00240090018D018C018E0121003A
:10543200971725008C018D018E01FF3026008C000C
:10544200FF308D00E7308E003F3027008C00F030B7
:105452008D00FF308E0014303C00BB0021303D0037
:10546200A3002230A40013303C00BA000800200040
:1054720021082100C800200020082100C7002000C8
:1054820020088400210885000008A20022082100CB
:10549200C90020002108A3002008A2000130220731
:1054A200840023080318230A85000008A4002408A6
:1054B2002100CA0020002108A3002008A200023017
:1054C2002207840023080318230A85000008A40089
:1054D20024082100CB0020002108A3002008A200FC
:1054E20003302207840023080318230A85000008DA
:1054F200A40024082100CC00CD01080020002208CD
:105502000319842A852A8A2A2208031D892A8A2ABB
:105512008F2A200890310020AA31D02A2208033E87
:1055220086008701160001040319982A992AB62ACF
:105532002208033E86008701403FA300413FA400AA
:10554200220A86008701403FA500413FA6002608A7
:10555200803AA7002408803A2702031DB22A2308B2
:1055620025020318B52AB62AD02A20002008A30053
:10557200220886008701220A8400850100080107AB
:10558200A400240886000130870023088100220A33
:10559200860087010130810741310318810A080022
:1055A2002000A601A31FD62AD72ADE2AA209A30910
:1055B200A20A0319A30AA601A60AA11FE12AE22A46
:1055C200E72AA009A109A00A0319A10A20082104B7
:1055D2000319EC2AED2A162BA501A50AF92A013096
:1055E200A035A10D890BF12A0130A4002408A507DA
:1055F200A11FFC2AFD2AF02A21082302031D032BE6
:1056020020082202031C062B072B0B2B2008A202C8
:105612002108A33B0130A136A00C890B0C2B0130D1
:10562200A502031D152B162BFD2A260803191A2B7A
:105632001B2B202BA209A309A20A0319A30A2308E0
:10564200A1002208A00008002000B8002100501C80
:105652002B2B2C2B352B20003808B3003308A80045
:105662003008A9314A21AB312000B21B392B3A2B29
:105672003F2B3208B7003108B600412BB601B70103
:10568200B401B501552B20302000A0000030A1004C
:105692003808B3003308A200AA317F22AB310130AF
:1056A2002000B4070030B53D3508803AB300370812
:1056B200803A3302031D5F2B36083402031C622B2F
:1056C200632B442B21005018672B682B712B200071
:1056D2003808B3003308A8003008A9314A21AB3199
:1056E20020003008A8315020AB31200036082007B6
:1056F200B0003708213DB10008002000A40121308C
:10570200B731EA27AB310030B731EA27AB317F300E
:10571200B731EA27AB312230B731EA27AB3100305B
:10572200B731EA27AB310730B731EA27AB31B731AE
:105732004527AB317830B731AD27AB314030B73187
:10574200AD27AB312000A501A601A4012830A2009B
:105752002630A3002508220786002608233D87005D
:105762000108B731AD27AB3101302000A507003069
:10577200A63D0130A2002208A40710302402031C17
:10578200C32BC42BA72B0130A5020030A63B01304E
:10579200A5070030A63D0430260200300319250279
:1057A200031CD42BD52BA62BB7313E27AB310800D7
:1057B2002000A5002535FE3EA2002208A5002130CA
:1057C200B731EA27AB310030B731EA27AB317F304E
:1057D200B731EA27AB312230B731EA27AB312000AB
:1057E2002508B731EA27AB3120002508013EB73141
:1057F200EA27AB31B7314527AB317830B731AD2726
:10580200AB314030B731AD27AB312000A601A70143
:10581200A4012830A2002630A30026082207860011
:105822002708233D87000108B731AD27AB3101308E
:105832002000A6070030A73D0130A2002208A407DD
:1058420010302402031C262C272C0A2C013027029C
:10585200003003192602031C2F2C302C092CB731DF
:105862003E27AB310800FA007A08F800F90105304A
:10587200F835F90D890B392C7808803EFB003F3052
:10588200793DFC00213077020318482C492C8F2CDB
:1058920004307A02031C4E2C4F2C502C8F2C7C0887
:1058A200F1007B08F000A0310120AC31752C7C089E
:1058B200F1007B08F0007608860087010108F800F5
:1058C200F9017808F2007908F300F401F40AA8312A
:1058D200A420AC310130F8007808F6070130FB074C
:1058E2000030FC3D0130F7020230770203187A2CB7
:1058F2007B2C582C7C08F1007B08F000760886008F
:1059020087010108F800F9017808F2007908F3002C
:10591200F401A831A420AC312300150808002000AE
:10592200AA002A08A800A9010530A835A90D890BEB
:10593200962C2808803EAB003F30293DAC00213038
:1059420027020318A52CA62CEE2C04302A02031CD5
:10595200AB2CAC2CAD2CEE2C2C08A1002B08A000FB
:10596200A8318720AC31D32C2C08A1002B08A00031
:105972002608860087010108A800A9012808A200BC
:105982002908A300A401A40AA9317321AC31013072
:105992002000A8002808A6070130AB070030AC3D64
:1059A2000130A7020230200027020318D92CDA2C7A
:1059B200B52C2C08A1002B08A00026088600870120
:1059C2000108A800A9012808A2002908A300A4012F
:1059D200A9317321AC312300150808002000A6016B
:1059E200A11FF42CF52CFC2CA009A109A00A031973
:1059F200A10AA601A60AA31FFF2C002D092DA209A8
:105A0200A309A20A0319A30A0130A4002408A606C6
:105A1200A701A801200821040319102D112D402DE2
:105A2200A501A50A1D2D0130A035A10D890B152D4B
:105A32000130A4002408A507A11F202D212D142D1B
:105A42000130A735A80D890B222D21082302031D41
:105A52002C2D20082202031C2F2D302D352D20083D
:105A6200A2022108A33B27140130A136A00C890B06
:105A7200362D0130A502031D3F2D402D212D260874
:105A82000319442D452D4A2DA709A809A70A031970
:105A9200A80A2808A1002708A0000800AE30B731E4
:105AA200EA27AD31D530B731EA27AD31F030B73121
:105AB200EA27AD31A830B731EA27AD313F30B731EF
:105AC200EA27AD31D330B731EA27AD310030B731F3
:105AD200EA27AD314030B731EA27AD318D30B731E9
