:020000040000FA
:100000008031C128803008007E1480318B1E092881
:100010000A28BF280B1D0D280E28BF280B112E0003
:1000200033080319142815281F28540855040319E8
:100030001A281B281F28FF30D407FF30D53D580849
:10004000590403192428252859285C085D04031D38
:100050002A282B2859285A085B04031D30283128E8
:1000600059282F00660867040319372838285E28A6
:100070000130E6020030E73B66086704031D4128B3
:1000800042285E2850302E00D400C330D500B30182
:10009000B30A3930FD007D08F600F701F70A003099
:1000A000AA317B2280310430FD007D082E00B9008A
:1000B0005E2810302F00E6002730E7002E005C0895
:1000C0005D040319642865287C285A085B04031D15
:1000D0006A286B287C2858085904031D7028712849
:1000E0007C28560857040319762877288028FF3083
:1000F000D607FF30D73D8028A830D6006130D70022
:100100005C085D0403198528862896285A085B0434
:1001100003198B288C28962858085904031991280C
:1001200092289628AD01AE01AF01B4012D082E042E
:1001300003199B289C28A0280130AD020030AE3B5B
:10014000520853040319A528A628AA28FF30D2076D
:10015000FF30D33D2F006508640463046204031973
:10016000B228B328BC28FF30E207FF30E33DFF3060
:10017000E43DFF30E53DBF282E00B201B20A7E10FB
:1001800009008031C32826308400B6308500523003
:100190008600073087000030FF000E30A8310020B5
:1001A00080310330840090308500DB3086000730DA
:1001B00087000030FF000F30A83100208031283048
:1001C000840027308500C830FE000030FF00B531C4
:1001D000F32580310030840020308500F030FE00AF
:1001E0000330FF00B531F325803120308400073023
:1001F00085001A30FE000030FF00B531F325803154
:10020000A0308400073085003B30FE000030FF0046
:10021000B531F3258031203084000830850050301E
:10022000FE000030FF00B531F3258031A03084009E
:10023000083085004030FE000030FF00B531F32566
:1002400080317E102000A531EB2D10341034203485
:100250005F3400340034003400340034003400349F
:1002600000340034003400340034003400340034EE
:1002700000340034003400340034003400340034DE
:1002800000340034003400340034003400340034CE
:1002900000340034003400340034F834FC34FC34CE
:1002A000FC34F834003400340034003400340034BA
:1002B00000340034003400340034003473347334B8
:1002C000733400340034003400340034003400341B
:1002D000003400340034003400341E343E343E34E4
:1002E0000034003400343E343E341E3400340034D4
:1002F000003400340034003400340034003400345E
:10030000003400340034003400340034003400344D
:1003100000340034303430343034FE34FE34303481
:10032000303430343034FE34FE3430343034303411
:10033000003400340C340C340C347F347F340C34EF
:100340000C340C340C347F347F340C340C340C34C7
:100350000034003400340034F034F8349834FE347F
:1003600098349834FE349834983418340034003477
:1003700000340034003400341834193419347F3414
:10038000193419347F3419341F340F3400340034D5
:100390000034003400340034003438343834383415
:1003A0008034C034E03470343834003400340034E5
:1003B000003400340034003400341C340E3407346C
:1003C000033401341C341C341C3400340034003435
:1003D00000340034003400343834FC34C434C434C1
:1003E000FC343834003400340034803400340034B9
:1003F00000340034003400341E343F3421342134BE
:1004000033343F341E341E34373423340034003444
:100410000034003400340034003420343C343C34A4
:100420001C34003400340034003400340034003410
:10043000003400340034003400340034003400341C
:10044000003400340034003400340034003400340C
:1004500000340034003400340034C034E034F0346C
:1004600038341C340C340434043400340034003484
:1004700000340034003400340034033407340F34C3
:100480001C34383430342034203400340034003408
:1004900000340034003400340034043404340C34A8
:1004A0001C343834F034E034C034003400340034C8
:1004B000003400340034003400342034203430342C
:1004C00038341C340F34073403340034003400341F
:1004D000003400340034803488349034E034E03424
:1004E000FC34FC34E034E03490348834803400341C
:1004F0000034003400340134113409340734073433
:100500003F343F34073407340934113401340034A4
:1005100000340034003400340034803480348034BB
:10052000F034F034803480348034003400340034CB
:100530000034003400340034003401340134013418
:100540000F340F34013401340134003400340034EA
:1005500000340034003400340034003400340034FB
:1005600000340034003400340034003400340034EB
:1005700000340034003400340034403478347834AB
:100580003834003400340034003400340034003493
:1005900000340034003400348034803480348034BB
:1005A00080348034803480348034803400340034AB
:1005B0000034003400340034013401340134013497
:1005C0000134013401340134013401340034003485
:1005D000003400340034003400340034003400347B
:1005E000003400340034003400340034003400346B
:1005F00000340034003400340034003438343834EB
:100600003834003400340034003400340034003412
:10061000003400340034003400340034003400343A
:10062000003400348034C034E034703438341C3446
:1006300000340034003400342034303438341C3476
:100640000E340734033401340034003400340034F1
:100650000034003400340034F834FC34FC34043406
:100660008434E4347434FC34FC34F834003400341E
:1006700000340034003400341F343F343F342E340F
:100680002734213420343F343F341F3400340034C5
:100690000034003400340034603460346034F034AA
:1006A000FC34FC34003400340034003400340034B2
:1006B00000340034003400342034203420343F34FB
:1006C0003F343F34203420342034003400340034AC
:1006D000003400340034003418341C341C34043426
:1006E00004348434CC34FC34783430340034003472
:1006F0000034003400340034303438343C342E3488
:100700002734233421343834383438340034003436
:10071000003400340034003418341C341C34843465
:1007200084348434CC347C34783430340034003431
:100730000034003400340034183438343834213470
:100740002134213433343E341E340C34003400342C
:1007500000340034003400348034C0346034303429
:100760001834FC34FC34FC340034003400340034DD
:1007700000340034003400340334033403342334AD
:1007800023343F343F343F342334233400340034A3
:100790000034003400340034FC34FC34FC34843441
:1007A0008434843484348434043404340034003491
:1007B00000340034003400341934393439342134ED
:1007C0002134213433343F341F340E3400340034A8
:1007D0000034003400340034E034F034F8349C3415
:1007E0008C348434843484348034003400340034D1
:1007F00000340034003400341F343F343F3421349B
:100800002134213421343F343F341F340034003448
:1008100000340034003400343C343C343C34043480
:100820000434043404348434FC34FC347C34003424
:1008300000340034003400340034003400343834E0
:100840003C343E3407340334013400340034003483
:10085000003400340034003478347C34FC34C43444
:10086000C43484348434FC347C347834003400342C
:1008700000340034003400341E343E343F3421341C
:100880002134233423343F343E341E3400340034C6
:100890000034003400340034F834FC34FC34843444
:1008A000843484348434FC34FC34F834003400342C
:1008B0000034003400340034003401342134213455
:1008C0002134313439341F340F34073400340034C8
:1008D0000034003400340034003400340034703408
:1008E0007034703400340034003400340034003488
:1008F00000340034003400340034003400340E344A
:100900000E340E340034003400340034003400342B
:1009100000340034003400340034003400347034C7
:100920007034703400340034003400340034003447
:1009300000340034003400340034003410341E34E9
:100940001E340E34003400340034003400340034DB
:1009500000340034003400348034C034E034703467
:1009600038341C340E34063402340034003400347D
:1009700000340034003400340134033407340E34BE
:100980001C34383470346034403400340034003463
:1009900000340034003460346034603460346034D7
:1009A0006034603460346034603460346034003407
:1009B0000034003400340634063406340634063479
:1009C000063406340634063406340634063400345D
:1009D0000034003400340034023406340E341C3445
:1009E00038347034E034C03480340034003400349F
:1009F000003400340034003440346034703438340F
:100A00001C340E3407340334013400340034003411
:100A1000003400340034003418341C340C340E34E8
:100A200006348634CE34FC347C343834003400341C
:100A30000034003400340034003400340034003416
:100A400073347334733400340034003400340034AD
:100A50000034003400340034FC34FE34FE340234FC
:100A60000234C234C234C234FE34FE34FC340034A6
:100A700000340034003400343F343F347F34603479
:100A80006034633463346334633443340334003494
:100A90000034003400340034E034F034F8341C34D2
:100AA0000C340C341C34F834F034E03400340034AA
:100AB00000340034003400343F343F343F340234D7
:100AC0000234023402343F343F343F3400340034C3
:100AD00000340034003400340434FC34FC34FC347E
:100AE000843484348434FC34FC347834003400346A
:100AF000003400340034003420343F343F343F3479
:100B00002134213421343F343F341E340034003446
:100B10000034003400340034F034F834FC340C3445
:100B20000434043404341C341C34183400340034C9
:100B300000340034003400340F341F343F34303478
:100B4000203420342034383438341834003400341D
:100B500000340034003400340434FC34FC34FC34FD
:100B6000043404340C34FC34F834F03400340034ED
:100B7000003400340034003420343F343F343F34F8
:100B80002034203430343F341F340F3400340034E8
:100B900000340034003400340434FC34FC34FC34BD
:100BA000843484348434C434CC341C34003400346D
:100BB000003400340034003420343F343F343F34B8
:100BC0002134213421342334333438340034003494
:100BD00000340034003400340434FC34FC34FC347D
:100BE000843484348434C434CC341C34003400342D
:100BF000003400340034003420343F343F343F3478
:100C0000213401340134033403340034003400341B
:100C10000034003400340034F034F834FC340C3444
:100C20000434043404343C343C3438340034003468
:100C300000340034003400340F341F343F34303477
:100C40002034223422343E343E343E3400340034E6
:100C50000034003400340034FC34FC34FC34803480
:100C600080348034FC34FC34FC34003400340034F0
:100C700000340034003400343F343F343F34013416
:100C8000013401343F343F343F3400340034003405
:100C90000034003400340034003404340434FC34B0
:100CA000FC34FC34043404340034003400340034A4
:100CB00000340034003400340034203420343F3415
:100CC0003F343F34203420340034003400340034C6
:100CD0000034003400340034003400340034003474
:100CE00004340434FC34FC34FC3404340434003460
:100CF0000034003400341E341E343E34203420349A
:100D0000203420343F343F341F3400340034003466
:100D100000340034003400340434FC34FC34FC343B
:100D2000C034E03470343C341C340C3400340034AF
:100D3000003400340034003420343F343F343F3436
:100D4000033407340E343C34383430340034003447
:100D500000340034003400340434FC34FC34FC34FB
:100D600004340034003400340034003400340034DF
:100D7000003400340034003420343F343F343F34F6
:100D8000203420342034303438343C3400340034BF
:100D90000034003400340034FC34FC34FC34783447
:100DA000F034E034F0347834FC34FC34FC34003477
:100DB00000340034003400343F343F343F340034D6
:100DC00000340134003400343F343F343F340034C5
:100DD0000034003400340034FC34FC34FC3470340F
:100DE000E034C03480340034FC34FC34FC3400344F
:100DF00000340034003400343F343F343F34003496
:100E000000340134033407343F343F343F3400347A
:100E10000034003400340034E034F034F8341C344E
:100E20000C340C340C341C34F834F034E03400341A
:100E3000003400340034003407340F341F343834A5
:100E400030343034303438341F340F340734003405
:100E500000340034003400340434FC34FC34FC34FA
:100E6000843484348434FC34FC34783400340034E6
:100E7000003400340034003420343F343F343F34F5
:100E8000213401340134013401340034003400349D
:100E90000034003400340034E034F834F8341C34C6
:100EA0000C3404340C341C34F834F834E03400349A
:100EB000003400340034003407341F341F34183435
:100EC00018345C345E347E347F347F3447340034ED
:100ED00000340034003400340434FC34FC34FC347A
:100EE000843484348434FC34FC3478340034003466
:100EF000003400340034003420343F343F343F3475
:100F00000134013403343F343F343C340034003482
:100F100000340034003400347834FC34FC3484343D
:100F2000843484348434BC343C3438340034003465
:100F300000340034003400341C343C343D3421345B
:100F40002134213421343F343F341E340034003402
:100F500000340034003400341C340C3404340434C1
:100F6000FC34FC34FC34043404340C341C340034BD
:100F70000034003400340034003400342034203491
:100F80003F343F343F3420342034003400340034C4
:100F90000034003400340034FC34FC34FC340034BD
:100FA00000340034FC34FC34FC34003400340034AD
:100FB00000340034003400341F343F343F342034D4
:100FC000203420343F343F341F34003400340034A4
:100FD0000034003400340034FC34FC34FC3400347D
:100FE00000340034FC34FC34FC340034003400346D
:100FF000003400340034003407340F341F343834E4
:10100000303438341F340F340734003400340034A3
:101010000034003400340034FC34FC34FC3400343C
:101020000034803400340034FC34FC34FC340034AC
:10103000003400340034003403340F343F343C3483
:101040003C340F343C343C343F340F3403340034EC
:1010500000340034003400341C343C347C34E0343C
:10106000C034E0347C343C341C340034003400346C
:10107000003400340034003438343C343E34073417
:10108000033407343E343C34383400340034003404
:1010900000340034003400347C34FC34FC348034BC
:1010A00000348034FC34FC347C34003400340034AC
:1010B00000340034003400340034203421343F3410
:1010C0003F343F34213420340034003400340034C1
:1010D00000340034003400343C341C340C34043408
:1010E0008434C434E4347C343C341C340034003460
:1010F000003400340034003438343C343E34273477
:10110000233421342034303438343C340034003437
:10111000003400340034003400340034FC34FC3437
:10112000FC34043404340434043400340034003413
:101130000034003400340034003400343F343F3491
:101140003F34203420342034203400340034003440
:1011500000340034003400341C3438347034E0344B
:10116000C03480340034003400340034003400349F
:1011700000340034003400340034003400340034CF
:101180000134033407340E341C3418343034203422
:101190002034003400340034003400340434043487
:1011A00004340434FC34FC34FC34003400340034A3
:1011B000003400340034003400340034203420344F
:1011C000203420343F343F343F3400340034003482
:1011D00000340034003400342034303438341C34CB
:1011E0000E340E341C34383430342034003400349F
:1011F000003400340034003400340034003400344F
:10120000003400340034003400340034003400343E
:10121000003400340034003400340034003400342E
:10122000003400340034003400340034003400341E
:1012300000340034C034C034C034C034C034C0348E
:10124000C034C034C034C034C034C034C034C034FE
:10125000C0340034003400340C340C343C343034AA
:1012600030340034003400340034003400340034AE
:1012700000340034003400340034003400340034CE
:1012800000340034003400340034003400340034BE
:1012900000340034003400340034403440344034EE
:1012A00040344034C034C03480340034003400341E
:1012B00000340034003400341C343E343E342234D4
:1012C000223422343F341F343F342034003400347D
:1012D00000340034003400340434FC34FC34FC3476
:1012E000403440344034C034C0348034003400349E
:1012F000003400340034003420343F341F343F3491
:101300002034203420343F343F341F340034003440
:1013100000340034003400348034C034C0344034ED
:1013200040344034C034C03480340034003400349D
:1013300000340034003400341F343F343F34203450
:101340002034203439343934193400340034003432
:1013500000340034003400348034C034C0344034AD
:1013600040344434FC34FC34FC3404340034003461
:1013700000340034003400341F343F343F34203410
:10138000203420343F341F343F34203400340034C0
:1013900000340034003400348034C034C03440346D
:1013A00040344034C034C03480340034003400341D
:1013B00000340034003400341F343F343F342234CE
:1013C000223422343B343B341B34003400340034A8
:1013D000003400340034003480348034F834FC3479
:1013E000FC3484349C349C3418340034003400348D
:1013F0000034003400340034213421343F343F348D
:101400003F342134213401340034003400340034BA
:1014100000340034003400348034C034C0344034EC
:1014200040344034C0348034C0344034003400345C
:1014300000340034003400344734CF34DF3498347F
:1014400098349834FF34FF347F340034003400344F
:1014500000340034003400340434FC34FC34FC34F4
:10146000803440344034C034C034803400340034DC
:10147000003400340034003420343F343F343F34EF
:101480000134003400343F343F343F3400340034FE
:1014900000340034003400340034403440344034EC
:1014A000DC34DC34DC340034003400340034003408
:1014B000003400340034003400342034203420342C
:1014C0003F343F343F34203420342034003400345F
:1014D000003400340034003400340034003440342C
:1014E00040344034DC34DC34DC3400340034003448
:1014F000003400340034003420346034E03480346C
:101500008034C034FF34FF347F340034003400347E
:1015100000340034003400340434FC34FC34FC3433
:10152000003400348034C034C034403400340034DB
:10153000003400340034003420343F343F343F342E
:10154000023407340F343D3438343034003400343E
:1015500000340034003400340034043404340434DF
:10156000FC34FC34FC3400340034003400340034E7
:10157000003400340034003400342034203420346B
:101580003F343F343F34203420342034003400349E
:101590000034003400340034C034C034C03440342B
:1015A0004034C03440344034C034C034803400341B
:1015B00000340034003400343F343F343F340034CE
:1015C00000343F34003400343F343F343F3400347F
:1015D0000034003400340034C034C034C0344034EB
:1015E00040344034C034C0348034003400340034DB
:1015F00000340034003400343F343F343F3400348E
:10160000003400343F343F343F340034003400347D
:1016100000340034003400348034C034C0344034EA
:1016200040344034C034C03480340034003400349A
:1016300000340034003400341F343F343F3420344D
:10164000203420343F343F341F340034003400341D
:1016500000340034003400344034C0348034C034AA
:10166000403440344034C034C0348034003400341A
:1016700000340034003400348034FF34FF34FF344D
:101680009034103410341F341F340F3400340034BD
:101690000034003400348034C034C034403440342A
:1016A0004034C0348034C03440340034003400341A
:1016B0000034003400340F341F341F34103410341D
:1016C0009034FF34FF34FF3480340034003400346D
:1016D00000340034003400344034C034C034C034EA
:1016E0008034C034C034C034C0348034003400345A
:1016F000003400340034003420343F343F343F346D
:101700002134003400340134013401340034003415
:1017100000340034003400348034C034C0344034E9
:10172000403440344034C034803400340034003419
:10173000003400340034003419343B34233426346C
:10174000263426343C343D3419340034003400341B
:10175000003400340034003440344034E034F03499
:10176000F8344034403440344034003400340034E1
:101770000034003400340034003400341F343F346B
:101780003F342034383438341834003400340034D2
:101790000034003400340034C034C034C034003469
:1017A00000340034C034C034C03400340034003459
:1017B00000340034003400341F343F343F342034CC
:1017C000203420343F341F343F342034003400347C
:1017D0000034003400340034C034C034C034003429
:1017E00000340034C034C034C03400340034003419
:1017F000003400340034003407340F341F343834DC
:10180000303438341F340F3407340034003400349B
:101810000034003400340034C034C034C0340034E8
:101820000034003400340034C034C034C0340034D8
:10183000003400340034003407340F343F3438347B
:1018400038340E34383438343F340F3407340034ED
:101850000034003400340034C034C034C0340034A8
:101860000034C034C034C034003400340034003498
:101870000034003400340034303439343F340F3411
:101880000F343F3439343034003400340034003401
:1018900000340034003400340034C034C034C03468
:1018A000003400340034C034C034C0340034003458
:1018B0000034003400340034803487348F349F3453
:1018C000D834F83478343F340F34073400340034DB
:1018D0000034003400340034C034C0344034403468
:1018E0004034C034C034C0340034003400340034D8
:1018F0000034003400340034313438343C342E3475
:101900002734233431343834003400340034003484
:10191000003400340034003480348034C0347834EF
:101920007C343C340434043404340434003400344F
:1019300000340034003400340134013403341E34E4
:101940003E343C34203420342034203400340034FD
:1019500000340034003400340034003400340034E7
:10196000FE34FE34FE3400340034003400340034DD
:1019700000340034003400340034003400340034C7
:101980007F347F347F34003400340034003400343A
:101990000034003400340034043404340434043497
:1019A0003C347C347834C0348034803400340034A7
:1019B0000034003400340034203420342034203407
:1019C0003C343E341E3403340134013400340034DA
:1019D00000340034003438343C343C3404340C34A7
:1019E0001C343834303420343C343C341C3400341F
:1019F0000034003400340034003400340034003447
:101A00000034003400340034003400340034003436
:101A100000344030080041302E00C5004508C600A3
:101A20003E08C8003D08C700C901CA01CB01CC016E
:101A300040082D00EC002E003F082D00EB00463042
:101A40002E00C50045082D00ED004730B731C927ED
:101A50008D310230473E860007308700403F2E0020
:101A60003D078400413F3E3D850080010800320073
:101A70002808290403193D2D3E2D432D0130A802CD
:101A80000030A93B472DE830A8000330A900013001
:101A90002902F53003192802031C4F2D502D532D18
:101AA00022000C13552D22000C170B302E00CD00F8
:101AB0006230890B592DCD0B592D0000B53193257E
:101AC0008D3120008D1E652D662D372D22000C17BF
:101AD000CB302D00A0000730A100B7315A278D313F
:101AE00060302D00A0000830A100B7315A278D3199
:101AF00050302D00A0000830A100B7315A278D3199
:101B000040302D00A0000830A100B7315A278D3198
:101B10009531CB2DCB30BD000730BE009130BF00DA
:101B2000B830C0008D310B258D3100302D00DC0028
:101B3000DD00B531DB258D3122000C1022008C1028
:101B40009531E72D2D00A201A20AA301A30A5F305F
:101B5000A83144208D31CB302E00BD000730BE00AF
:101B60008C30BF00B830C0008D310B258D31403036
:101B70002E00BD000830BE004E30BF00B830C0009F
:101B80000A302D00A0000030A1002E005F08CD001B
:101B9000CE014D082D00A2002E004E082D00A300FE
:101BA000AA31D9228D312D0021082E00C2002D002E
:101BB00020082E00C1000A302D00A0000030A10036
:101BC0002E005F08CF00D0014F082D00A2002E008C
:101BD00050082D00A300A93113218D312D002108BB
:101BE0002E00C4002D0020082E00C3008D310B25CF
:101BF0008D312E005F08CD00CE01CF01D0015008FD
:101C00002D00AC002E004F082D00AB002E004E081A
:101C10002D00AA002E004D082D00A9000130AD3185
:101C20009E258D312D002C08BE002B08BD002A08F2
:101C3000BC002908BB004130BA000230B900F130C5
:101C4000B800AA30B7009D31A9258D312D003A0882
:101C5000D4003908D3003808D2003708D100AC319D
:101C60000B248D312D005208DD005108DC00B53108
:101C7000DB258D313F302D00D400EC30D300CC304B
:101C8000D200CD30D1004130BA002030B900003050
:101C9000B8000030B7002E005F08CD00CE01CF01A4
:101CA000D00150082D00AC002E004F082D00AB00D5
:101CB0002E004E082D00AA002E004D082D00A90070
:101CC0000030AD319E258D312D002C08BE002B0833
:101CD000BD002A08BC002908BB00A23166228D3154
:101CE0002D003A08D8003908D7003808D600370840
:101CF000D500AC3180248D3103187F2E802E832EA9
:101D000022000C14852E22000C102E005F08CD003E
:101D1000CE014D082D00A2002E004E082D00A3007C
:101D20000A30A0000030A100AA31D9228D312D0047
:101D30002008A9002108AA00890D893B8909AB0068
:101D4000AC000130AD319E258D312D002C08D40022
:101D50002B08D3002A08D2002908D1004030D8002F
:101D60000030D7000030D6000030D500AC318024E0
:101D70008D31031CBC2EBD2E9E2D22008C14A02D57
:101D80000330CD004D082D00A200A301A30A5F304F
:101D9000A83144208D31CB302E00BD000730BE006D
:101DA0003830BF00B830C0008D310B258D31403048
:101DB0002E00BD000830BE004E30BF00B830C0005D
:101DC0000A302D00A0000030A1002E005F08CD00D9
:101DD000CE014D082D00A2002E004E082D00A300BC
:101DE000AA31D9228D312D0021082E00C2002D00EC
:101DF00020082E00C1000A302D00A0000030A100F4
:101E00002E005F08CF00D0014F082D00A2002E0049
:101E100050082D00A300A93113218D312D00210878
:101E20002E00C4002D0020082E00C3008D310B258C
:101E30008D3120000D1E1D2F1E2F222F8C1D212FB6
:101E4000222FF32F60302E00BD000830BE007E3000
:101E5000BF00B830C0008D310B258D312E005F08DA
:101E6000CD00CE01CF01D00150082D00AC002E00D6
:101E70004F082D00AB002E004E082D00AA002E00AA
:101E80004D082D00A9000130AD319E258D312D006A
:101E90002C08BE002B08BD002A08BC002908BB0086
:101EA0004130BA000230B900F130B800AA30B700B2
:101EB0009D31A9258D312D003A08D4003908D30071
:101EC0003808D2003708D100AC310B248D312D00F9
:101ED0005208DD005108DC00B531DB258D313F3083
:101EE0002D00D400EC30D300CC30D200CD30D10066
:101EF0004130BA002030B9000030B8000030B700DF
:101F00002E005F08CD00CE01CF01D00150082D007A
:101F1000AC002E004F082D00AB002E004E082D0007
:101F2000AA002E004D082D00A9000030AD319E25DD
:101F30008D312D002C08BE002B08BD002A08BC00E6
:101F40002908BB00A23166228D312D003A08D80045
:101F50003908D7003808D6003708D500AC318024BE
:101F60008D310318B42FB52FB82F22000C14BA2FBF
:101F700022000C102E005F08CD00CE014D082D0070
:101F8000A2002E004E082D00A3000A30A000003051
:101F9000A100AA31D9228D312D002008A9002108E5
:101FA000AA00890D893B8909AB00AC000130AD3135
:101FB0009E258D312D002C08D4002B08D3002A0833
:101FC000D2002908D1004030D8000030D7000030BE
:101FD000D6000030D500AC3180248D31031CF12FA8
:101FE000F22F9E2DBD2E60302E00BD000830BE00A9
:101FF0006D30BF00B830C0008D310B258D31952D6F
:10200400080028346E3475346C346C34293400344C
:102014000034883413340034103427341434003436
:102024002D00C6003B08CF003C08D0003D08D1007D
:102034003E08D2003F08D3004008D4004108D50030
:102044004208D600CF30860006308700473FC300E1
:10205400C31B2D282F280130302800302D00C40048
:10206400C5014408CD004508CE004D084E040319AF
:102074003C283D285B28CF09D009D109D209D309CE
:10208400D409D509D609CF0A031D5B28D00A031D3C
:102094005B28D10A031D5B28D20A031D5B28D30ADF
:1020A400031D5B28D40A031D5B28D50A031D5B2886
:1020B400D60A2E00A81B5F2860286428FD30A905D5
:1020C400FF30AA052808803A2D00C300803043025F
:1020D400031D6F2801302E0027020318722873286D
:1020E400792801302D00C9000030CA0081282E0053
:1020F40028082D00CA002E0027082D00C9002F0033
:1021040044082D00CC002F0043082D00CB004D08BF
:102114004E04031D8E288F2894282E00291D9328F1
:1021240094289928FF302D00CB07FF30CC3D1F3079
:102134002D00D7000030D8003100DF010A29FF301C
:102144002D00D707FF30D83D0A30A000A101A2011D
:10215400A301A401A501A601A7014F08A8005008E6
:10216400A9005108AA005208AB005308AC00540857
:10217400AD005508AE005608AF00A0317420903170
:102184002D002108B4002008B300B631C1269031D7
:102194002D003308303EC3005708C03E8600083087
:1021A400870043088100FF30C907FF30CA3DFF3074
:1021B400CB07FF30CC3D0A30A000A101A201A3014E
:1021C400A401A501A601A7014F08A8005008A90071
:1021D4005108AA005208AB005308AC005408AD00E3
:1021E4005508AE005608AF00A131612190312D0091
:1021F4002008CF002108D0002208D1002308D200F3
:102204002408D3002508D4002608D5002708D600C2
:102214002D005808803AC30080304302031D14295E
:1022240001305702031C1729182945292D004F088E
:102234005004510452045304540455045604031D19
:1022440024292529A1284A08803AC3008030430262
:10225400031D2E2901304902031831293229A128EE
:102264002D004C08803AC30080304302031D3C29F2
:1022740001304B02031C3F29402945292E00A9188F
:1022840044294529A1282D004D084E04031D4B293E
:102294004C2951292E00291D502951296E29FF301E
:1022A4002D00D707FF30D83D4D084E04031D5B2990
:1022B4005C2961292B30C7000030C80065292D3006
:1022C400C7000030C8004708C3005708C03E860056
:1022D40008308700430881002D005708C03EC30022
:1022E4004308B0004C08B2004B08B1004608A931BD
:1022F400C22190312D003108BC003008BB00080019
:1023040029000E082E00CD00CE0129000F082E0052
:10231400CF00D0014F08D000CF014D084F072D004A
:10232400A9002E004E08503D2D00AA00AB01AC01BF
:102334000030AD319E2591312D002C082F00C000B6
:102344002D002B082F00BF002D002A082F00BE00EF
:102354002D0029082F00BD0000302E002C02313042
:1023640003192B020318B729B829D9292C08CE0040
:102374002B08CD00CD35CE0DCD35CE0D2830CF0078
:102384002730D0004D084F0786004E08503D870087
:102394002F003D08C03F3E08C13F3F08C23F4008F0
:1023A400C33F01302E00AB070030AC3DF7292C08A9
:1023B400CE002B08CD00CD35CE0DCD35CE0D283039
:1023C400CF002730D0004D084F0786004E08503DFF
:1023D40087002F003D08C03F3E08C13F3F08C23F71
:1023E4004008C33F2E00AB01AC0100303200B10005
:1023F4000030B0000030AF000030AE00AA01AB01E5
:1024040000302B02323003192A02031C0A2A0B2A39
:102414000C2A852A2B082E00CE0032002A082E0012
:10242400CD00CD35CE0DCD35CE0D2830CF002730A3
:10243400D0004D084F0786004E08503D8700403FAE
:102444002D00A000413FA100423FA200433FA30052
:10245400320031082D00A700320030082D00A600FC
:1024640032002F082D00A50032002E082D00A400F4
:102474009B31712391312D0023083200B1002D00CE
:1024840022083200B0002D0021083200AF002D00D8
:1024940020083200AE0031302A062B04031D532AD3
:1024A400542A802A42302D00BA004830B900003046
:1024B400B8000030B700320031082D00BE003200F1
:1024C40030082D00BD0032002F082D00BC00320062
:1024D4002E082D00BB00A231662291312D003A084E
:1024E4003200B1002D0039083200B0002D00380848
:1024F4003200AF002D0037083200AE000130AA07C9
:102504000030AB3D022A31082D00BE0032003008F5
:102514002D00BD0032002F082D00BC0032002E0813
:102524002D00BB003C30BA004830B9000030B80080
:102534000030B7009D31A92591312D003A08D4000F
:102544003908D3003808D2003708D100AC310B2445
:1025540091312D0052083200A5002D00510832009F
:10256400A40031082D00BE00320030082D00BD004B
:1025740032002F082D00BC0032002E082D00BB00B5
:102584003C30BA004830B9000030B8000030B70021
:102594009D31A92591312D003A083200A3002D0068
:1025A40039083200A2002D0038083200A1002D00A5
:1025B40037083200A00000302D00DF000030DE00BC
:1025C4000030DD000A30DC00320023082D00BE009C
:1025D400320022082D00BD00320021082D00BC006D
:1025E400320020082D00BB004130BA002030B90071
:1025F4000030B8000030B7009D31A92591312D007D
:102604003A08D4003908D3003808D2003708D1007A
:10261400AC310B2491312D005408E3005308E2003F
:102624005208E1005108E000A831C82091312D0082
:102634005D083200A7002D005C083200A600CB30F4
:102644002E00BD000730BE002030BF00B830C000EF
:102654008D310B25913150302E00BD000830BE0065
:102664006B30BF00B830C0008D310B2591312E0086
:102674003008031D3E2B3F2B5F2B1430CD004D083B
:10268400B0004030BD000830BE002C30BF00B83070
:10269400C000320025082E00C200320024082E009B
:1026A400C100320027082E00C400320026082E0084
:1026B400C3008D310B2591318A2B3200AC01AD0161
:1026C4002D08803A2E00CD0080304D02031D6D2B65
:1026D400103032002C02031C702B712B722B8A2BAE
:1026E40032002C08203E86000830870001082E00A6
:1026F400CD0032002C08403E8600083087002E00B2
:102704004D08810001303200AC070030AD3D622B32
:1027140020000D1E8E2B8F2B932B8C1D922B932B15
:10272400932C60302E00BD000830BE007E30BF0008
:10273400B830C0008D310B2591312F0040082D0099
:10274400D4002F003F082D00D3002F003E082D0099
:10275400D2002F003D082D00D100AC310B24913163
:102764002D005208DD005108DC00B531DB25913124
:102774003F302D00D400F330D3003330D200333057
:10278400D1003C30BA004830B9000030B800003005
:10279400B700320031082D00BE00320030082D0091
:1027A400BD0032002F082D00BC0032002E082D0081
:1027B400BB009D31A92591312D003A08D800390874
:1027C400D7003808D6003708D500AC3180249131C1
:1027D4000318ED2BEE2BF12B22000C14272C3C308C
:1027E4002D00BA004830B9000030B8000030B700FE
:1027F400320031082D00BE00320030082D00BD002B
:1028040032002F082D00BC0032002E082D00BB0022
:102814009D31A92591312D003A08D4003908D300FF
:102824003808D2003708D1003F30D800E630D7004E
:102834006630D6006630D500AC318024913103185F
:10284400242C252C272C22000C1040302D00D400E1
:102854000330D3003330D2003330D1003C30BA00DF
:102864004830B9000030B8000030B70032003108F9
:102874002D00BE00320030082D00BD0032002F08AC
:102884002D00BC0032002E082D00BB009D31A9256F
:1028940091312D003A08D8003908D7003808D600FD
:1028A4003708D500AC318024913103185A2C5B2CA5
:1028B4005D2C8E31BD2E3C302D00BA004830B9005D
:1028C4000030B8000030B700320031082D00BE00DF
:1028D400320030082D00BD0032002F082D00BC004E
:1028E40032002E082D00BB009D31A92591312D0009
:1028F4003A08D4003908D3003808D2003708D10088
:102904003F30D800F930D7009930D6009A30D5003E
:10291400AC31802491310318902C912CE72D8D310A
:102924009E2D60302E00BD000830BE006D30BF000B
:10293400B830C0008D310B2591318D31952D023089
:10294400CD004D082D00A200A301A30A5E30A831DA
:1029540044209131CB302E00BD000730BE004330FF
:10296400BF00B830C0008D310B25913140302E00AE
:10297400BD000830BE004E30BF00B830C0000A3081
:102984002D00A0000030A1002E005E08CD00CE0175
:102994004D082D00A2002E004E082D00A300AA31E0
:1029A400D92291312D0021082E00C2002D002008CB
:1029B4002E00C1000A302D00A0000030A1002E001E
:1029C4005E08CF00D0014F082D00A2002E00500851
:1029D4002D00A300A931132191312D0021082E00CF
:1029E400C4002D0020082E00C3008D310B25913129
:1029F4002E005E08CD00CE01CF01D00150082D007D
:102A0400AC002E004F082D00AB002E004E082D0008
:102A1400AA002E004D082D00A9000130AD319E25DD
:102A240091312D002C08BE002B08BD002A08BC00E3
:102A34002908BB004130BA000230B900F130B800B7
:102A4400AA30B7009D31A92591312D003A08D40050
:102A54003908D3003808D2003708D100AC310B2430
:102A640091312D005208DD005108DC00B531DB2521
:102A740091313F302D00D400EC30D300CC30D20063
:102A8400CD30D1004130BA002030B9000030B80058
:102A94000030B7002E005E08CD00CE01CF01D0017A
:102AA40050082D00AC002E004F082D00AB002E0066
:102AB4004E082D00AA002E004D082D00A90000305C
:102AC400AD319E2591312D002C08BE002B08BD0090
:102AD4002A08BC002908BB00A231662291312D00CE
:102AE4003A08D8003908D7003808D6003708D50086
:102AF400AC31802491310318802D812D842D220046
:102B04000C14862D22000C102E005E08CD00CE0180
:102B14004D082D00A2002E004E082D00A3000A30FF
:102B2400A0000030A100AA31D92291312D00200843
:102B3400A9002108AA00890D893B8909AB00AC00D2
:102B44000130AD319E2591312D002C08D4002B0885
:102B5400D3002A08D2002908D1004030D800003020
:102B6400D7000030D6000030D500AC31802491313C
:102B7400031CBD2DBE2D912C5B2CCB30BD0007302A
:102B8400BE005930BF00B830C0008D310B259131E3
:102B94009F2C2E003908CD00CE014E08003A0319AF
:102BA400D42DBF2D4D08003A8D310319A22D013AC1
:102BB40003198A2D9131033A0319FE2F013A03199F
:102BC4008229073A0319A12CBF2D2E005208530461
:102BD4000319ED2DEE2DF32DFF30B531E72591319D
:102BE400F72D0030B531E7259131A4311A24913104
:102BF4002E00B10120008D18002E012E112E01305F
:102C04002E00CD004D08B1075C085D0403190B2E9E
:102C14000C2E162EFF30DC07FF30DD3D162E14304F
:102C24002E00DC000030DD0020000D191A2E1B2EB2
:102C34002B2E01302E00CD004D08B1075A085B043D
:102C44000319252E262E302EFF30DA07FF30DB3D08
:102C5400302E14302E00DA000030DB0020000D1876
:102C6400342E352E452E01302E00CD004D08B107EF
:102C74005808590403193F2E402E4A2EFF30D80716
:102C8400FF30D93D4A2E14302E00D8000030D90030
:102C94003103031D4E2E4F2E8C2F2F00680869041C
:102CA4000319552E562E5B2EFF30E807FF30E93D01
:102CB400912F50302E00D200C330D3005C085D0445
:102CC400031D652E662ED02E20008D1E6A2E6B2EBF
:102CD400D02E0D1D6E2E6F2ED02E2E002D082E04FC
:102CE400031D752E762ED02E04302F0203187B2E52
:102CF4007C2E842E0130CD004D08AF07D030AD00BE
:102D04000730AE0033080319882E892E9F2E6430B5
:102D14005E0203188E2E8F2ED02E0130CD004D086A
:102D2400DE075E30CD004D082D00A600A701A70ADE
:102D34000230AB3139239131D02E64305F02031855
:102D4400A42EA52ED02E3908031DA92EAA2EBA2EE4
:102D54000130CD004D08DF075F30CD004D082D0058
:102D6400A600A701A70A0130AB3139239131D02E37
:102D740002303906031DBF2EC02ED02E0130CD00E7
:102D84004D08DF075F30CD004D082D00A600A701D8
:102D9400A70A0330AB3139239131D02E2E005A08C3
:102DA4005B04031DD62ED72E392F20008D1EDB2E5B
:102DB400DC2E392F8D1CDF2EE02E392F2E002D080E
:102DC4002E04031DE62EE72E392F04302F0203189C
:102DD400EC2EED2EF52E0130CD004D08AF07D0308E
:102DE400AD000730AE0033080319F92EFA2E0D2F6B
:102DF4005E080319FE2EFF2E392F0130DE025E30ED
:102E0400CD004D082D00A600A701A70A0230AB3162
:102E140039239131392F5F080319112F122F392FBC
:102E24003908031D162F172F252F0130DF025F30BD
:102E3400CD004D082D00A600A701A70A0130AB3133
:102E440039239131392F02303906031D2A2F2B2FB4
:102E5400392F0130DF025F30CD004D082D00A60070
:102E6400A701A70A0330AB3139239131392F2E0042
:102E740058085904031D3F2F402F912F3408031D78
:102E8400442F452F912FB401B40A330803194B2F53
:102E94004C2F4F2FD401D501912F20008D1C532F7F
:102EA400542F912F0D1D572F582F912F04302E0082
:102EB4003906031D5E2F5F2F682FB3012D00A20179
:102EC400A301A30A3930A8314420913103302E00E4
:102ED400390203186E2F6F2F7F2F0130CD004D085C
:102EE400B9073930CD004D082D00A600A701A70A67
:102EF4000030AB3139239131912FB9013930CD00F4
:102F04004D082D00A600A701A70A0030AB313923D4
:102F14009131912F14302F00E8000030E9002E0089
:102F240030080319962F972F992F0130B0025408B7
:102F34005504031D9E2F9F2FA82FB3012D00A2011E
:102F4400A301A30A3930A831442091312E00560838
:102F54005704031DAE2FB02FA631602EB301D40148
:102F6400D5012F00C90105302E00CD004D08B90050
:102F74003230CD004D08DF006430CD004D08DE0056
:102F840000302F00C0000030BF000030BE00003011
:102F9400BD0039302E00CD004D082D00A600A7013C
:102FA400A70A0030AB31392391315F302E00CD00B8
:102FB4004D082D00A600A701A70A0130AB31392323
:102FC40091315F302E00CD004D082D00A600A701E1
:102FD400A70A0330AB31392391315E302E00CD0086
:102FE4004D082D00A600A701A70A0230AB313923F2
:102FF4009131AE2F8031C1288E31C02E00308B1B11
:1030040001302D00A5008B132108230092002D0010
:103014002008230091002D002308230094002D0094
:103024002208230093002D00240C2300031C951276
:1030340003189516151315121515B531B7259831C2
:103044002D00250803192728282829288B1708006C
:103054002D00EA005908860007308700403FDB0056
:10306400413FDC005B0884005C0885001200253ABF
:10307400031D3D283E282329590886000730870070
:103084000130810741310318810A2F00C301C401B3
:103094002E00A901AA01FF30A700FF30A8002D00CF
:1030A4005908860007308700403FDB00413FDC00C1
:1030B4005B0884005C0885001200643A03196328E5
:1030C400642876285908860007308700403FDB00D3
:1030D400413FDC005B0884005C0885001200693A0B
:1030E400031D75287628B428590886000730870000
:1030F4000130810741310318810A5A0886000730DC
:103104008700010884000730850002308107003FF2
:10311400DB00013FDC005B08E0005C08E100890D96
:10312400893B8909E200E300E400E500E600E700EA
:103134006008BB006108BC006208BD006308BE00F3
:103144006408BF006508C0006608C1006708C200C3
:103154006A089031122098312D003C08DA003B08AF
:10316400D90048295908860007308700403FDB0012
:10317400413FDC005B0884005C0885001200733A60
:10318400031DC528C628EB28590886000730870088
:103194000130810741310318810A5A08860007303B
:1031A4008700010884000730850002308107003F52
:1031B400E800013FE9006908A9006808A8006A0856
:1031C400AE314B2698312D002908DA002808D900A1
:1031D40048295908860007308700403FDB00413FFB
:1031E400DC005B0884005C0885001200253A031D9E
:1031F400FC28FD281729590886000730870001306C
:10320400810741310318810A2530A0000030A10054
:103214006A08DB005B08A200AA311E229831013043
:103224002D00D9000030DA004829590886000730FB
:1032340087000130810741310318810AD901DA017D
:1032440048295908860007308700403FDB00413F8A
:10325400DC005B0884005C0885000008DD00DE01FA
:103264005D08A0005E08A1006A08DF005F08A200F4
:10327400AA311E2298312D00590886000730870094
:103284000130810741310318810A112908002D00FA
:10329400D101D201D301D401C301C4012E002308FA
:1032A4000739031D56295729852A22082D00BB00FA
:1032B400BC013B08A9003C08AA000830A00000306B
:1032C400A1002E0023082D00BD00BE013D08A20070
:1032D4003E08A300AA31D92299312D002108AC005F
:1032E4002008AB00B7313A2799312D002A08C800CD
:1032F4002908C7002E0024082D003A02A900AA01BB
:10330400031CAA034808AC004708AB00B7313A27AE
:1033140099312D002908043ECB0000302A3DCC0011
:10332400D101D201692A0230D3000030D400522ADC
:103334002E0022082D00BB00BC013B08A9003C085C
:10334400AA005208AC005108AB00B7313A279931B2
:103354002D0029082E0020072D00BD002A082E006C
:10336400213D2D00BE004B083D07BF004C083E3DEB
:10337400C0003F08530784004008543D85000008FE
:10338400C100C2014108C3004208C400D501013094
:10339400BB000030BC00550AD129BB35BC0D890BDC
:1033A400CF2943083B05BD0044083C05BE003D0849
:1033B4003E040319DE29DF293C2A2E002608031DBA
:1033C400E429E529112A2D0053083607BB005408C7
:1033D400373DBC003B08FE3EA900FF303C3DAA003F
:1033E4005508BD00BE015208C0005108BF00BF35DA
:1033F400C00DBF35C00DBF35C00D3D083F07C1002E
:103404003E08403DC20038084107AB003908423D40
:10341400AC00AD01AD0AAF3122279931432A2D000A
:1034240053083607BB005408373DBC003B08FE3E3A
:10343400A900FF303C3DAA005508BD00BE0152085A
:10344400C0005108BF00BF35C00DBF35C00DBF352A
:10345400C00D3D083F07C1003E08403DC20038088A
:103464004107AB003908423DAC00AD01AF31222722
:103474009931432A2E002608031D412A422AE529B0
:10348400112A01302D00BB003B08D5070830550236
:10349400031C4D2A4E2AC9290130D3070030D43DDC
:1034A4002E002208FE3E2D00BB00FF300318003022
:1034B400BC003C085402031D612A3B085302031C50
:1034C400642A652A9A290130D1070030D23D083098
:1034D400A0000030A1002E0023082D00BB00BC0179
:1034E4003B08A2003C08A300AA31D92299312D003F
:1034F40021085202031D802A20085102031C832A3A
:10350400842A9529702B08302D00A0000030A100DA
:103514002E0022082D00BB00BC013B08A9003C087A
:10352400AA002E0023082D00BD00BE013D08AB00FB
:103534003E08AC00B7313A2799312D002A08A30080
:103544002908A200AA31D92299312D002108C800E6
:103554002008C7002E0024082D003A02A900AA0161
:10356400031CAA034808AC004708AB00B7313A274C
:1035740099312D002908043ECB0000302A3DCC00AF
:103584002E0020082D004B0784002E0021082D005A
:103594004C3D85000008BB00BC013B08C5003C084D
:1035A400C6000730C9000030CA00CD01CE01612B2E
:1035B4002D00CF01D0014D2B01302D00BB00003078
:1035C400BC00490AE72ABB35BC0D890BE52A45082E
:1035D4003B05BD0046083C05BE003D083E040319FA
:1035E400F42AF52A202B2E002608031DFA2AFB2A8A
:1035F4000E2B2D004D083607A9004E08373DAA00B2
:103604004F083807AB005008393DAC00AD01AD0A96
:10361400AF3122279931272B2D004D083607A900F9
:103624004E08373DAA004F083807AB005008393D13
:10363400AC00AD01AF3122279931272B2E0026088B
:10364400031D252B262BFB2A0E2BFF302D00C9072B
:10365400FF30CA3DCA1F2F2B302B492B0730C9001E
:103664000030CA000130CB070030CC3D2E002008CA
:103674002D004B0784002E0021082D004C3D8500B1
:103684000008BB00BC013B08C5003C08C600013073
:10369400CF070030D03D5008803ABB0080303B0259
:1036A400031D582B2E0023082D004F02031C5B2BF7
:1036B4005C2BDE2A01302D00CD070030CE3D4E08B4
:1036C400803ABB0080303B02031D6C2B2E00220885
:1036D4002D004D02031C6F2B702BDA2A08002D00DD
:1036E40023088039A8002808B0002335A80028083A
:1036F400B200A21F7E2B7F2B802B321432080319B9
:10370400842B852B952B320A031D892B8A2B922B14
:103714000030A3000030A2000030A1000030A0005F
:10372400A217A3019D2B0030A3000030A20000309B
:10373400A1000030A00027088039A8002808B100A3
:10374400310830060319A72BA82BA92B30172735CE
:10375400A8002808B100A61FB02BB12BB22B31143E
:1037640031080319B62BB72BC72B310A031DBB2B0A
:10377400BC2BC42B0030A7000030A6000030A500ED
:103784000030A400A617A701CF2B0030A7000030FB
:10379400A6000030A5000030A4003208310203184E
:1037A400D42BD52B192C301FD82BD92BDD2B8030C3
:1037B400A8002808B0063208A8002808B300310879
:1037C400A8002808B2003308A8002808B10020087F
:1037D400A8002808B3002408A8002808A00033087B
:1037E400A8002808A4002108A8002808B300250878
:1037F400A8002808A1003308A8002808A50022086A
:10380400A8002808B3002608A8002808A200330846
:10381400A8002808A6002308A8002808B300270841
:10382400A8002808A3003308A8002808A700B301AB
:103834003108A800A9012908AB0032082802AA000F
:10384400031CAB032B08803AAC0080302C02031D10
:103854002D2C1A302A02031C302C312C692C2D00FB
:103864002308220421042004031D392C3B2C01309D
:103874003C2C0030A8002808B3000030A30000301E
:10388400A2000030A1000030A0003108A8002808E0
:10389400B200702C331C4F2C502C562C333601386C
:1038A400A8002808B300582C0310B30C201C5B2C70
:1038B4005C2C5D2CB3170130A800A337A20CA10C1B
:1038C400A00CA80B5F2C0130A8002808B2072D001B
:1038D40031083202031C6F2C702C4C2C301B732CBF
:1038E400742CAC2C3208031D782C792C822C0030DB
:1038F400A3000030A2000030A1000030A000A82DD9
:103904002408A0072508A13D2608A23D2708A33DB9
:10391400231C8D2C8E2C382D331C912C922C982CFE
:1039240033360138A8002808B3009A2C0310B30CCE
:10393400201C9D2C9E2C9F2CB3170130A800A3376C
:10394400A20CA10CA00CA80BA12C0130A8002808E3
:10395400B207382D2308803AA8002708803A2802A5
:10396400031DBE2C26082202031DBE2C250821029D
:10397400031DBE2C240820020318C12CC22CFA2CCF
:10398400FF30A800FF30A900FF30AA00FF30AB00D1
:1039940020082402AC002108253BAD002208263B68
:1039A400AE002308273BAF002C08A8072D08A93D2B
:1039B4002E08AA3D2F08AB3D2B08A3002A08A2001D
:1039C4002908A1002808A0008030A8002808B00613
:1039D400B309B30A3308031DF02CF12C022D013076
:1039E400A0070030A13D0030A23D0030A33D022DD0
:1039F4002408A0022508A13B2608A23B2708A33BD4
:103A04002308220421042004031D092D0A2D342D2A
:103A14003308031D0E2D0F2D342D0030A30000306C
:103A2400A2000030A1000030A000A82D0130A03574
:103A3400A10DA20DA30D890B192DB31F222D232D2A
:103A4400242D2014331C272D282D2B2D0314B30DC6
:103A54002D2D0310B30D32080319312D322D342DC1
:103A64000130B202A21F372D382D182DB101B31F1A
:103A74003C2D3D2D4B2D33087F390319422D432D09
:103A8400462DB101B10A4B2D201C492D4A2D4B2D39
:103A9400432D310803194F2D502D7D2D0130A007E2
:103AA4000030A13D0030A23D0030A33D231C5B2D1E
:103AB4005C2D7D2D2008A8002108A9002208AA0059
:103AC4002308AB000130AC00AB37AA0CA90CA80C3E
:103AD400AC0B662D2B08A3002A08A2002908A1001C
:103AE4002808A000320A0319782D792D7D2D013084
:103AF400A8002808B207320A0319812D822D872DC8
:103B04003208031D862D872D952D0030A30000302B
:103B1400A2000030A1000030A0003208031D932D44
:103B2400942D952DB001321C982D992D9B2DA21703
:103B34009F2D7F30A8002808A2053236A800280847
:103B4400A300B01FA62DA72DA82DA31708002D0094
:103B54003A088039BF003F08C4003A35BF003F0827
:103B6400CA00B91FB62DB72DB82D4A144A08031937
:103B7400BC2DBD2DCC2D4A0A031DC12DC22DCA2D2D
:103B84000030BA000030B9000030B8000030B7008F
:103B9400B917D42D0030BA000030B9000030B80095
:103BA4000030B7003E088039BF003F08C4063E35E8
:103BB400BF003F08C500BD1FE02DE12DE22D4514D7
:103BC40045080319E62DE72DF62D450A031DEB2DB7
:103BD400EC2DF42D0030BE000030BD000030BC00E0
:103BE4000030BB00BD17FE2D0030BE000030BD000C
:103BF4000030BC000030BB0045080319022E032E20
:103C0400082E4A08031D072E082E112E0030BA0074
:103C14000030B9000030B8000030B700FF2F37087B
:103C2400BF003F08A0003D08B7317C279D312D001F
:103C34002108D0002008CF004F08BF00C001C101F7
:103C4400C2014208C9004108C8004008C7003F0833
:103C5400C6005008BF00C001C101C2014208CE0025
:103C64004108CD004008CC003F08CB003808BF0015
:103C74003F08A0003C08B7317C279D312D00210866
:103C8400D0002008CF004F08BF00C001C101C2010D
:103C94003F08C6074008C73D4108C83D4208C93D22
:103CA4005008BF00C001C101C2013F08CB07400852
:103CB400CC3D4108CD3D4208CE3D3908BF003F0808
:103CC400A0003B08B7317C279D312D002108D0008E
:103CD4002008CF004F08BF00C001C101C2013F0846
:103CE400C6074008C73D4108C83D4208C93D5008C1
:103CF400BF00C001C101C2013F08CB074008CC3D51
:103D04004108CD3D4208CE3D0830C635C70DC80D2B
:103D1400C90D890B872E3808BF003F08A0003B0857
:103D2400B7317C279D312D002108D0002008CF0019
:103D34004F08C6075008C73D0030C83DC93D370885
:103D4400BF003F08A0003C08B7317C279D312D00FF
:103D54002108D0002008CF004F08C6075008C73DEF
:103D64000030C83DC93D0830C635C70DC80DC90D62
:103D7400890BB62E3708BF003F08A0003B08B731B7
:103D84007C279D312D002108D0002008CF004F084A
:103D9400C6075008C73D0030C83DC93D3808BF00BC
:103DA4003F08A0003D08B7317C279D312D00210834
:103DB400D0002008CF004F08CB075008CC3D00307E
:103DC400CD3DCE3D3908BF003F08A0003C08B731C7
:103DD4007C279D312D002108D0002008CF004F08FA
:103DE400CB075008CC3D0030CD3DCE3D3908BF0057
:103DF4003F08A0003D08B7317C279D312D002108E4
:103E0400D0002008CF004F08BF005008C000C101F7
:103E1400C2010830BF35C00DC10DC20D890B0C2F76
:103E24003F08CB074008CC3D4108CD3D4208CE3D7C
:103E34004608BF004708C0004808C1004908C2003E
:103E44001830C236C10CC00CBF0C890B232F3F089D
:103E5400CB074008CC3D4108CD3D4208CE3D08305B
:103E6400C635C70DC80DC90D890B322F4A08450741
:103E7400BF00C001C00D3F08823ECF00FF30403D6F
:103E8400D0005B2F0130CB35CC0DCD0DCE0D890B81
:103E9400452FC91F4E2F4F2F502F4B140130C635BD
:103EA400C70DC80DC90D890B512FFF30CF07FF3047
:103EB400D03DCD1F5E2F5F2F442FC501C91F632F37
:103EC400642F802FFF304605BF00FF304705C00038
:103ED400FF304805C1007F304905C2004208410453
:103EE40040043F040319772F782F7B2FC501C50A9F
:103EF400802F4B1C7E2F7F2F802F782F450803198E
:103F0400842F852FAD2F0130CB070030CC3D0030FE
:103F1400CD3D0030CE3D4E1C902F912FAD2F4B0840
:103F2400BF004C08C0004D08C1004E08C20001305B
:103F3400C300C237C10CC00CBF0CC30B9B2F42087B
:103F4400CE004108CD004008CC003F08CB00013032
:103F5400CF070030D03D5008803ABF0080303F0288
:103F6400031DB62FFF304F02031CB92FBA2FC42FE5
:103F74007F302D00CE008030CD000030CC000030EA
:103F8400CB00F32F2D005008803ABF0080303F0251
:103F9400031DCE2F01304F020318D12FD22FDD2F56
:103FA40000302D00CE000030CD000030CC000030B9
:103FB400CB00C401F32F2D004F08BF003F08CA00F7
:103FC400FF30CB05FF30CC057F30CD050030CE056A
:103FD4004A1CED2FEE2FEF2FCD174A36BF003F08B6
:103FE400CE004408BF003F08CE044E08BA004D0876
:0C3FF400B9004C08B8004B08B7000800EA
:104006002D00A900A8012130B6314926A031003083
:10401600B6314926A0317F30B6314926A03122304B
:10402600B6314926A0312D002908B6314926A031DE
:104036002D002908013EB6314926A031B5319F250C
:10404600A0317830B6310C26A0314030B6310C267E
:10405600A0312D002908A200A3010730A235A30D27
:10406600890B31282208A6002308A7005828A80192
:104076000030A2002030A300260822078600270869
:10408600233D87000108B6310C26A03101302D00F2
:10409600A6070030A73D0130A2002208A80710306D
:1040A6002802031C572858283B282908A200A301E8
:1040B6000730A235A30D890B5C282208003EA40018
:1040C6000130233DA50025082702031D6C2824087E
:1040D6002602031C6F2870283A28B5319825A0318E
:1040E60008002D00B201A830860006308700473F41
:1040F600B000B01F7F288028A2282D00A809A90992
:10410600AA09AB09AC09AD09AE09AF09A80A031D96
:104116009F28A90A031D9F28AA0A031D9F28AB0AE8
:10412600031D9F28AC0A031D9F28AD0A031D9F2867
:10413600AE0A031D9F28AF0A2D00B201B20AA030B5
:10414600860006308700473F2D00B000B01FAC2820
:10415600AD28CC282D00A009A109A209A309A4090C
:10416600A509A609A709A00A031DCC28A10A031DB3
:10417600CC28A20A031DCC28A30A031DCC28A40A16
:10418600031DCC28A50A031DCC28A60A031DCC288E
:10419600A70A2D0020082104220423042404250450
:1041A600260427040319D828D9282C29B101B10AD5
:1041B600E828A035A10DA20DA30DA40DA50DA60DF1
:1041C600A70D0130B0003008B107A71FEB28EC2877
:1041D600DC2827082F02031D0A2926082E02031DA4
:1041E6000A2925082D02031D0A2924082C02031D6D
:1041F6000A2923082B02031D0A2922082A02031D65
:104206000A2921082902031D0A2920082802031C5D
:104216000D290E291E292008A8022108A93B2208DB
:10422600AA3B2308AB3B2408AC3B2508AD3B26083C
:10423600AE3B2708AF3BA736A60CA50CA40CA30CD7
:10424600A20CA10CA00C0130B102031D2B292C29B4
:10425600EC2832080319302931294F29A809A90960
:10426600AA09AB09AC09AD09AE09AF09A80A031D35
:104276004F29A90A031D4F29AA0A031D4F29AB0A74
:10428600031D4F29AC0A031D4F29AD0A031D4F29F3
:10429600AE0A031D4F29AF0A2D002808A0002908E1
:1042A600A1002A08A2002B08A3002C08A4002D08B0
:1042B600A5002E08A6002F08A70008002D00B201B1
:1042C600A030860006308700473FB000B01F6C293B
:1042D6006D298F292D00A009A109A209A309A40906
:1042E600A509A609A709A00A031D8C29A10A031D71
:1042F6008C29A20A031D8C29A30A031D8C29A40A52
:10430600031D8C29A50A031D8C29A60A031D8C29C9
:10431600A70A2D00B201B20AA8308600063087002F
:10432600473F2D00B000B01F99299A29BE292D00BC
:10433600A809A909AA09AB09AC09AD09AE09AF09D3
:10434600A80A031DB929A90A031DB929AA0A031D2A
:10435600B929AB0A031DB929AC0A031DB929AD0A4F
:10436600031DB929AE0A031DB929AF0A01302D0074
:10437600B0003008B206B330860006308700083039
:104386002D00B00000301E00B00BC6292008210405
:104396002204230424042504260427040319D4290B
:1043A600D529312AB101B10AE429A035A10DA20D02
:1043B600A30DA40DA50DA60DA70D0130B000300864
:1043C600B107A71FE729E829D829B335B40DB50DDC
:1043D600B60DB70DB80DB90DBA0D27082F02031D7E
:1043E6000E2A26082E02031D0E2A25082D02031D5D
:1043F6000E2A24082C02031D0E2A23082B02031D55
:104406000E2A22082A02031D0E2A21082902031D4C
:104416000E2A20082802031C112A122A232A200801
:10442600A8022108A93B2208AA3B2308AB3B240883
:10443600AC3B2508AD3B2608AE3B2708AF3B331403
:10444600A736A60CA50CA40CA30CA20CA10CA00CC0
:104456000130B102031D302A312AE8293208031936
:10446600352A362A542AB309B409B509B609B70953
:10447600B809B909BA09B30A031D542AB40A031DB7
:10448600542AB50A031D542AB60A031D542AB70A2C
:10449600031D542AB80A031D542AB90A031D542AB7
:1044A600BA0A2D003308A0003408A1003508A2007E
:1044B6003608A3003708A4003808A5003908A60066
:1044C6003A08A70008002D003E088039BF003F08C3
:1044D600C8003E35BF003F08CF00BD1F732A742AAF
:1044E600752A4F144F080319792A7A2A8A2A4F0AFD
:1044F600031D7E2A7F2A872A0030BE000030BD00B9
:104506000030BC000030BB00BD17BE01922A00304F
:10451600BE000030BD000030BC000030BB003A08D1
:104526008039BF003F08C8063A35BF003F08D000B3
:10453600B91F9E2A9F2AA02A501450080319A42A9C
:10454600A52AB52A500A031DA92AAA2AB22A00308A
:10455600BA000030B9000030B8000030B700B91713
:10456600BA01BD2A0030BA000030B9000030B800E8
:104576000030B7003A08390438043704031DC42A4A
:10458600C52ADE2A0030BE000030BD000030BC0067
:104596000030BB008030BD047F30BE044808BF0039
:1045A6003F08BE043E08BA003D08B9003C08B80002
:1045B6003B08B700192C4F08031DE22AE32AEC2A10
:1045C6000030BA000030B9000030B8000030B70043
:1045D600192C4F08BF00C0014008C20050083F0216
:1045E600C100031CC20341087F3EC9000030423DA2
:1045F600CA003E08C7003D08C6003C08C5003B0887
:10460600C4000030BE000030BD000030BC000030E9
:10461600BB000030CE000030CD000030CC000030B2
:10462600CB00D001542B500803191A2B1B2B352B0A
:104636000130C435C50DC60DC70D890B1C2B0130C5
:10464600BB35BC0DBD0DBE0D890B232BCE1F2C2BF0
:104656002D2B2E2B3B140130CB35CC0DCD0DCE0D95
:10466600890B2F2B3A084702031D432B39084602B4
:10467600031D432B38084502031D432B370844020C
:10468600031C462B472B502B4E173708C4023808FD
:10469600C53B3908C63B3A08C73B0130BF003F0857
:1046A600D0071A305002031C592B5A2B162B4708D9
:1046B6004604450444040319612B622B7B2B4B14DF
:1046C6007B2B0130BB35BC0DBD0DBE0D890B652B9B
:1046D600CE1F6E2B6F2B702B3B140130CB35CC0DC0
:1046E600CD0DCE0D890B712BFF30C907FF30CA3DAA
:1046F600BD1F7E2B7F2B642BD001CE1F832B842BDB
:10470600A02BFF304B05BF00FF304C05C000FF302B
:104716004D05C1007F304E05C200420841044004E9
:104726003F040319972B982B9B2BD001D00AA02B63
:104736003B1C9E2B9F2BA02B982B50080319A42BB8
:10474600A52BCD2B0130BB070030BC3D0030BD3D55
:104756000030BE3D3E1CB02BB12BCD2B3B08BF001D
:104766003C08C0003D08C1003E08C2000130C3003D
:10477600C237C10CC00CBF0CC30BBB2B4208BE001A
:104786004108BD004008BC003F08BB000130C90716
:104796000030CA3D4A08803ABF0080303F02031D00
:1047A600D62BFF304902031CD92BDA2BE72BFF301F
:1047B6002D00C9000030CA000030BE000030BD0028
:1047C6000030BC000030BB002D004A08803ABF0014
:1047D60080303F02031DF12B013049020318F42BF0
:1047E600F52B012C2D00C901CA010030BE00003096
:1047F600BD000030BC000030BB00C8012D004908D8
:10480600BF003F08CF004F1C092C0A2C0C2CBD17EB
:10481600102C7F30BF003F08BD054F36BF003F0854
:10482600BE004808BF003F08BE04D52A08002D0078
:10483600D801E101E2012D006108CB3E8600073078
:1048460087006108303E84000830850000080106B4
:10485600031D2E2C2F2C352C2E0038080319342C32
:10486600352C792C2D005808D600D701D635D70D12
:10487600D635D70D2E002208FC3E2D00A900FF30AC
:1048860003180030AA006208AC006108AB00B7311B
:104896003A27A4312D0056082902D90057082A3B89
:1048A600DA005A08B7005908B6000030B800B90057
:1048B6006108CB3E8600073087000108D6005608FF
:1048C600BA0099314921A4312D006108CB3E8600FA
:1048D600073087000108D6006108303E86000830A0
:1048E6008700560881002E00B801B80A2D0061081D
:1048F600CB3E86000730870020300106031D842C3E
:10490600852C892C0130D6005608D8070130E107DE
:104916000030E23D6208803AD60080305602031D20
:10492600962C10306102031C992C9A2C1E2C2D00FB
:10493600DB01DC012D005B08603E86000830870045
:104946005B08B03E840008308500000801060319A4
:10495600AD2CAE2CE92C2E002208FC3E2D00A90021
:10496600FF3003180030AA005C08AC005B08AB00FF
:10497600B7313A27A4312D002A08DA002908D900D0
:104986005A08B7005908B6001030B8000030B90010
:104996005B08603E8600083087000108D60056088E
:1049A600BA0099314921A4312D005B08603E86008A
:1049B600083087000108D6005B08B03E8600083044
:1049C6008700560881002E00B701B70A01302D0076
:1049D600DB070030DC3D5C08803AD60080305602AA
:1049E600031DF72C10305B02031CFA2CFB2C9D2CAC
:1049F6002D00DD01DE012D005D08503E86000830E9
:104A060087005D08A03E8400083085000008010686
:104A160003190E2D0F2D4A2D2E002208FC3E2D00C7
:104A2600A900FF3003180030AA005E08AC005D083C
:104A3600AB00B7313A27A4312D002A08DA0029083D
:104A4600D9005A08B7005908B6002030B80000301F
:104A5600B9005D08503E8600083087000108D60080
:104A66005608BA0099314921A4312D005D08503EFF
:104A76008600083087000108D6005D08A03E860043
:104A860008308700560881002E00B601B60A0130AC
:104A96002D00DD070030DE3D5E08803AD60080300E
:104AA6005602031D582D10305D02031C5B2D5C2D34
:104AB600FE2C2D00DF01E0012D005F08403E860040
:104AC600083087005F08203E840008308500000813
:104AD600010603196F2D702DAB2D2E002208FC3E0A
:104AE6002D00A900FF3003180030AA006008AC00B2
:104AF6005F08AB00B7313A27A4312D002A08DA0047
:104B06002908D9005A08B7005908B6003030B8004D
:104B16000030B9005F08403E860008308700010873
:104B2600D6005608BA0099314921A4312D005F08F4
:104B3600403E8600083087000108D6005F08203E08
:104B4600860008308700560881002E00B501B50A98
:104B560001302D00DF070030E03D6008803AD600C6
:104B660080305602031DB92D10305F02031CBC2D88
:104B7600BD2D5F2D2E0038080319C22DC32DC92D5A
:104B86000030A0310320A4312E00B80137080319E4
:104B9600CD2DCE2DD42D0230A0310320A4312E00F0
:104BA600B70136080319D82DD92DDF2D0430A031D1
:104BB6000320A4312E00B60135080319E32DE42D98
:104BC600EA2D0630A0310320A4312E00B5010800DD
:104BD600B6315F26A5318B170B1705302E00CE0098
:104BE6000F30CD00F130890BF62DCD0BF62DCE0B07
:104BF600F62D2D00A201A301A30A3930A8314420C5
:104C0600A5312D00A201A20AA301A30A5F30A83193
:104C16004420A53102302E00CD004D082D00A20003
:104C2600A301A30A5E30A8314420A53165302E00C9
:104C36005F02031C1F2E202E3B2E3230CD004D0866
:104C4600DF005F30CD004D082D00A600A701A70AA2
:104C56000130AB313923A5315F302E00CD004D0830
:104C66002D00A600A701A70A0330AB313923A531D1
:104C760065302E005E02031C412E422E512E6430FA
:104C8600CD004D08DE005E30CD004D082D00A6009B
:104C9600A701A70A0230AB313923A531AD310B2567
:104CA600A53105302E00CE000F30CD00F130890B36
:104CB6005A2ECD0B5A2ECE0B5A2EB5319325A53131
:104CC60020000D18672E682EAF2E8D186B2E6C2EB9
:104CD600AF2ECB302D00A0000730A100B7315A27E8
:104CE600A53160302D00A0000830A100B7315A2749
:104CF600A53160302E00BD000830BE006430BF0014
:104D0600B830C0008630C100B830C2008D310B25E6
:104D1600A53150302D00A0000830A100B7315A2728
:104D2600A53140302D00A0000830A100B7315A2728
:104D3600A531A4311A24A531B5319325A5317A3090
:104D46002E00CE00C130CD008130890BA82ECD0BB0
:104D5600A82ECE0BA82E003220008D1AB32EB52E0B
:104D66008D31662D02302E00CD004D082D00A2009B
:104D7600A301A30A5E30A8314420A531CB302D0013
:104D8600A0000730A100B7315A27A531CB302E003D
:104D9600BD000730BE007630BF00B830C0008D3190
:104DA6000B25A53160302D00A0000830A100B731D9
:104DB6005A27A53150302D00A0000830A100B73188
:104DC6005A27A53140302D00A0000830A100B73188
:104DD6005A27A53140302E00BD000830BE004E30A7
:104DE600BF00B830C0000A302D00A0000030A1007E
:104DF6002E005E08CD00CE014D082D00A2002E002B
:104E06004E082D00A300AA31D922A5312D00210874
:104E16002E00C2002D0020082E00C1000A302D00F1
:104E2600A0000030A1002E005E08CF00D0014F0880
:104E36002D00A2002E0050082D00A300A931132139
:104E4600A5312D0021082E00C4002D0020082E00BB
:104E5600C3008D310B25A5312E005E08CD00CE0195
:104E6600CF01D00150082D00AC002E004F082D00B8
:104E7600AB002E004E082D00AA002E004D082D0076
:104E8600A9000130AD319E25A5312D002C08BE00AC
:104E96002B08BD002A08BC002908BB004130BA0017
:104EA6000230B900F130B800AA30B7009D31A9250B
:104EB600A5312D003A08D4003908D3003808D200AD
:104EC6003708D100AC310B24A5312D005208DD0086
:104ED6005108DC00B531DB25A5313F302D00D4006B
:104EE600EC30D300CC30D200CD30D1004130BA0006
:104EF6002030B9000030B8000030B7002E005E0840
:104F0600CD00CE01CF01D00150082D00AC002E00FF
:104F16004F082D00AB002E004E082D00AA002E00D3
:104F26004D082D00A9000030AD319E25A5312D007C
:104F36002C08BE002B08BD002A08BC002908BB00AF
:104F4600A2316622A5312D003A08D8003908D700CB
:104F56003808D6003708D500AC318024A5310318AF
:104F6600B52FB62FB92F22000C14BB2F22000C1020
:104F76002E005E08CD00CE014D082D00A2002E00A9
:104F86004E082D00A3000A30A0000030A100AA316F
:104F9600D922A5312D002008A9002108AA00890DD3
:104FA600893B8909AB00AC000130AD319E25A531A6
:104FB6002D002C08D4002B08D3002A08D20029087B
:104FC600D1004030D8000030D7000030D600003085
:104FD600D500AC318024A531031CF22FF32FF62F18
:104FE60022008C14F82F22008C10A4311A24A5312B
:104FF6003200A801A9018D31612DFE0012001E00AC
:105006000130FE020030FF3B7F087E04031D0128AD
:10501600003422008C018D018E01083021009000A1
:10502600B8308C00FF308D00FF308E0023008E01DB
:1050360008308D0004308C00240090018D018C0115
:105046008E012100971725008C018D018E01FF30FE
:1050560026008C00FF308D00E7308E003F302700A1
:105066008C00F0308D00FF308E0014303C00BB0009
:1050760021303D00A3002230A40013303C00BA00CA
:1050860008002D00A8002208A400A5010530A435BB
:10509600A50D890B4A282408803EA6003F30253DF1
:1050A600A70021302302031859285A2880280430E3
:1050B6002202031C5F2860287B2880282708A1007D
:1050C6002608A000B6313426A8312D002008A400F9
:1050D6002808860007308700240881000130A607CB
:1050E6000030A73D0130A4002408A8070130A30220
:1050F6002308031D7F288028612808002D00210829
:105106002E00A1002D0020082E00A0002D00200852
:105116008400210885000008A20022082E00A200B3
:105126002D002108A3002008A200013022078400D8
:1051360023080318230A85000008A40024082E006B
:10514600A3002D002108A3002008A2000230220798
:10515600840023080318230A85000008A4002408F5
:105166002E00A4002D002108A3002008A200033071
:105176002207840023080318230A85000008A400D8
:1051860024082E00A500A60108002D005F085E0475
:105196005D045C040319D028D1280A29E501E50A33
:1051A600DF280130DC35DD0DDE0DDF0D890BD5285E
:1051B6000130E4006408E507DF1FE228E328D4286D
:1051C6005F086302031DF1285E086202031DF128D1
:1051D6005D086102031DF1285C086002031CF428C7
:1051E600F528FD285C08E0025D08E13B5E08E23B2D
:1051F6005F08E33B0130DF36DE0CDD0CDC0C890B8F
:10520600FE280130E502031D09290A29E32863085F
:10521600DF006208DE006108DD006008DC000800CF
:105226002D00A601A31F182919292029A209A309BF
:10523600A20A0319A30AA601A60AA11F2329242943
:105246002929A009A109A00A0319A10A20082104F5
:1052560003192E292F295829A501A50A3B29013012
:10526600A035A10D890B33290130A4002408A50718
:10527600A11F3E293F29322921082302031D452962
:1052860020082202031C482949294D292008A20288
:105296002108A33B0130A136A00C890B4E29013011
:1052A600A502031D572958293F29260803195C29F9
:1052B6005D296229A209A309A20A0319A30A2308E0
:1052C600A1002208A00008002D00A4012130B6315B
:1052D6004926A9310030B6314926A9317F30B63189
:1052E6004926A9312230B6314926A9310030B631D6
:1052F6004926A9310730B6314926A931B5319F254E
:10530600A9317830B6310C26A9314030B6310C2699
:10531600A9312D00A501A601A4010030A20020306C
:10532600A3002508220786002608233D87000108DA
:10533600B6310C26A93101302D00A5070030A63D57
:105346000130A2002208A40710302402031CAC2955
:10535600AD2990290130A5020030A63B0130A507F2
:105366000030A63D04302602003003192502031C36
:10537600BD29BE298F29B5319825A93108002D00F0
:10538600B8002E00291CC829C929D2292D003808A1
:10539600B3003308A8003008B731A027A9312D0083
:1053A600B21BD629D729DC293208B7003108B60046
:1053B600DE29B601B701B401B501F22920302D006E
:1053C600A0000030A1003808B3003308A200AA31BB
:1053D6001E22A93101302D00B4070030B53D350835
:1053E600803AB3003708803A3302031DFC29360899
:1053F6003402031CFF29002AE1292E002918042A59
:10540600052A0E2A2D003808B3003308A8003008F4
:10541600B731A027A9312D003008A0000830A1001F
:10542600B631A726A9312D0036082007B000370867
:10543600213DB10008002D0022080319232A242A41
:10544600292A2208031D282A292A2E2A20089031D3
:105456000220AA317A2A2208043E860007308700F5
:10546600160001040319382A392A592A2208043E4B
:10547600860007308700403FA300413FA400220872
:10548600023E860007308700403FA500413FA60048
:105496002608803AA7002408803A2702031D552AC9
:1054A600230825020318582A592A7A2A2D00220889
:1054B600023E8600073087002208840007308500F8
:1054C600403F0007A3000131413F003DA4002308EF
:1054D600860024088700200881002208023E8600F4
:1054E600073087000130810741310318810A08001F
:1054F600FA007A08F800F9010530F835F90D890B3C
:10550600802A7808803EFB003F30793DFC00213040
:10551600770203188F2A902AD82A04307A02031CAD
:10552600952A962A972AD82A7C08F1007B08F0004B
:10553600B6317526AA31BD2A7C08F1007B08F00039
:1055460076088600073087000108F800F901780818
:10555600F2007908F300F401F40AB631FA26AA310A
:105566000130F8007808F6070130FB070030FC3DF3
:105576000130F702023077020318C22AC32A9F2A93
:105586007C08F1007B08F00076088600073087006B
:105596000108F800F9017808F2007908F300F4012F
:1055A600B631FA26AA312300150808002D00A601F7
:1055B600A11FDE2ADF2AE62AA009A109A00A0319EB
:1055C600A10AA601A60AA31FE92AEA2AF32AA20922
:1055D600A309A20A0319A30A0130A4002408A606F7
:1055E600A701A801200821040319FA2AFB2A2A2B5D
:1055F600A501A50A072B0130A035A10D890BFF2AAD
:105606000130A4002408A507A11F0A2B0B2BFE2A94
:105616000130A735A80D890B0C2B21082302031D89
:10562600162B20082202031C192B1A2B1F2B2008CD
:10563600A2022108A33B27140130A136A00C890B36
:10564600202B0130A502031D292B2A2B0B2B260804
:1056560003192E2B2F2B342BA709A809A70A0319E8
:10566600A80A2808A1002708A00008002D00AA0003
:105676002A08A800A9010530A835A90D890B3F2BDA
:105686002808803EAB003F30293DAC002130270280
:1056960003184E2B4F2B992B04302A02031C542B34
:1056A600552B562B992B2C08A1002B08A000B631A0
:1056B600DD26AB317D2B2C08A1002B08A000260887
:1056C6008600073087000108A800A9012808A20063
:1056D6002908A300A401A40A98310020AB310130A7
:1056E6002D00A8002808A6070130AB070030AC3D06
:1056F6000130A70202302D0027020318832B842BCA
:105706005E2B2C08A1002B08A00026088600073077
:1057160087000108A800A9012808A2002908A300FB
:10572600A40198310020AB31230015080800AE30E3
:10573600B6314926AB31D530B6314926AB31F030DA
:10574600B6314926AB31A830B6314926AB313F30A8
:10575600B6314926AB31D330B6314926AB310030AC
:10576600B6314926AB314030B6314926AB318D30A2
:10577600B6314926AB311430B6314926AB3120302B
:10578600B6314926AB310030B6314926AB31A130AE
:10579600B6314926AB31C830B6314926AB31DA309D
:1057A600B6314926AB311230B6314926AB3181309C
:1057B600B6314926AB31FF30B6314926AB31D93047
:1057C600B6314926AB31F130B6314926AB31DB3043
:1057D600B6314926AB314030B6314926AB31A4301B
:1057E600B6314926AB31A630B6314926AB312E301B
:1057F600B6314926AB31AF30B6314926AB3125300B
:105806002D00A0008130A100A8318120AB31080015
:1058160003102D00530D540DD5005508DB005B0811
:10582600031D162C172C202C0030D4000030D3007A
:105836000030D2000030D1007F2C5108D50052082C
:10584600D6005308D7005408D8001F30D836D70CD6
:10585600D60CD50C890B292C5508D9005908DA0025
:10586600D317FF30D105FF30D205FF30D305003006
:10587600D4059630DB02DB1F412C422C5A2C5B08E8
:10588600803A973E0318482C492C4A2C172C013095
:10589600D436D30CD20CD10C890B4B2C0130D5004D
:1058A6005508DB07031D582C592C4A2C6F2C203029
:1058B6005B02031C5F2C602C6A2C172C0130D1353F
:1058C600D20DD30DD40D890B622C0130DB025B089F
:1058D600031D6E2C6F2C612C5A080319732C742C23
:1058E6007F2CD109D209D309D409D10A0319D20AC6
:1058F6000319D30A0319D40A080000302D005105F4
:10590600D90000305205DA0080305305DB007F30C5
:105916005405DC005C085B045A045904031D942CEE
:10592600952C9D2C0030D4000030D3000030D200DE
:105936000030D10000305505D90000305605DA0098
:1059460080305705DB007F305805DC005C085B04BF
:105956005A045904031DB02CB12CB92C0030D800C0
:105966000030D7000030D6000030D500D41FBC2C44
:10597600BD2CD52C0030D9000030DA000030DB0019
:105986008030DC005108D9025208DA3B5308DB3B71
:105996005408DC3B5C08D4005B08D3005A08D200EC
:1059A6005908D100D81FD82CD92CF12C0030D90099
:1059B6000030DA000030DB008030DC005508D90208
:1059C6005608DA3B5708DB3B5808DC3B5C08D80036
:1059D6005B08D7005A08D6005908D5008030D4068F
:1059E6008030D80658085402031D032D5708530269
:1059F600031D032D56085202031D032D550851029F
:105A06000318062D072D092D03100A2D031408006F
:105A16000130B7311A27AD31B5319825AD31053092
:105A26002D00A8000F30A700F130890B182DA70B09
:105A3600182DA80B182DAE30B6314926AD31D5300C
:105A4600B6314926AD31F030B6314926AD31A830F0
:105A5600B6314926AD313F30B6314926AD31D33066
:105A6600B6314926AD310030B6314926AD31403028
:105A7600B6314926AD318D30B6314926AD311430B7
:105A8600B6314926AD312030B6314926AD31003028
:105A9600B6314926AD31A130B6314926AD31C830CF
:105AA600B6314926AD31DA30B6314926AD3112303C
:105AB600B6314926AD318130B6314926AD31FF3098
:105AC600B6314926AD31D930B6314926AD31F1303E
:105AD600B6314926AD31DB30B6314926AD314030DD
